{
	"W3day2.sol": {
		"RoleUserPermission": {
			"abi": [
				{
					"inputs": [
						{
							"internalType": "address",
							"name": "",
							"type": "address"
						},
						{
							"internalType": "enum RoleUserPermission.Permission",
							"name": "",
							"type": "uint8"
						}
					],
					"name": "User",
					"outputs": [
						{
							"internalType": "bool",
							"name": "admin",
							"type": "bool"
						},
						{
							"internalType": "bool",
							"name": "moderator",
							"type": "bool"
						},
						{
							"internalType": "bool",
							"name": "member",
							"type": "bool"
						}
					],
					"stateMutability": "view",
					"type": "function"
				},
				{
					"inputs": [
						{
							"internalType": "enum RoleUserPermission.Permission",
							"name": "_permission",
							"type": "uint8"
						}
					],
					"name": "cpermission",
					"outputs": [],
					"stateMutability": "nonpayable",
					"type": "function"
				}
			],
			"devdoc": {
				"kind": "dev",
				"methods": {},
				"version": 1
			},
			"evm": {
				"assembly": "    /* \"W3day2.sol\":1272:1973  contract RoleUserPermission{... */\n  mstore(0x40, 0x80)\n  callvalue\n  dup1\n  iszero\n  tag_1\n  jumpi\n  revert(0x00, 0x00)\ntag_1:\n  pop\n  dataSize(sub_0)\n  dup1\n  dataOffset(sub_0)\n  0x00\n  codecopy\n  0x00\n  return\nstop\n\nsub_0: assembly {\n        /* \"W3day2.sol\":1272:1973  contract RoleUserPermission{... */\n      mstore(0x40, 0x80)\n      callvalue\n      dup1\n      iszero\n      tag_1\n      jumpi\n      revert(0x00, 0x00)\n    tag_1:\n      pop\n      jumpi(tag_2, lt(calldatasize, 0x04))\n      shr(0xe0, calldataload(0x00))\n      dup1\n      0x2f7825de\n      eq\n      tag_3\n      jumpi\n      dup1\n      0x43ba3524\n      eq\n      tag_4\n      jumpi\n    tag_2:\n      revert(0x00, 0x00)\n        /* \"W3day2.sol\":1586:1970  function cpermission(Permission _permission) public{... */\n    tag_3:\n      tag_5\n      0x04\n      dup1\n      calldatasize\n      sub\n      dup2\n      add\n      swap1\n      tag_6\n      swap2\n      swap1\n      tag_7\n      jump\t// in\n    tag_6:\n      tag_8\n      jump\t// in\n    tag_5:\n      stop\n        /* \"W3day2.sol\":1518:1577  mapping(address => mapping(Permission => Role)) public User */\n    tag_4:\n      tag_9\n      0x04\n      dup1\n      calldatasize\n      sub\n      dup2\n      add\n      swap1\n      tag_10\n      swap2\n      swap1\n      tag_11\n      jump\t// in\n    tag_10:\n      tag_12\n      jump\t// in\n    tag_9:\n      mload(0x40)\n      tag_13\n      swap4\n      swap3\n      swap2\n      swap1\n      tag_14\n      jump\t// in\n    tag_13:\n      mload(0x40)\n      dup1\n      swap2\n      sub\n      swap1\n      return\n        /* \"W3day2.sol\":1586:1970  function cpermission(Permission _permission) public{... */\n    tag_8:\n        /* \"W3day2.sol\":1666:1687  Permission.notGrantor */\n      0x00\n        /* \"W3day2.sol\":1651:1687  _permission == Permission.notGrantor */\n      0x02\n      dup2\n      gt\n      iszero\n      tag_16\n      jumpi\n      tag_17\n      tag_18\n      jump\t// in\n    tag_17:\n    tag_16:\n        /* \"W3day2.sol\":1651:1662  _permission */\n      dup2\n        /* \"W3day2.sol\":1651:1687  _permission == Permission.notGrantor */\n      0x02\n      dup2\n      gt\n      iszero\n      tag_19\n      jumpi\n      tag_20\n      tag_18\n      jump\t// in\n    tag_20:\n    tag_19:\n      sub\n        /* \"W3day2.sol\":1648:1963  if(_permission == Permission.notGrantor){... */\n      tag_21\n      jumpi\n        /* \"W3day2.sol\":1738:1742  true */\n      0x01\n        /* \"W3day2.sol\":1699:1703  User */\n      dup1\n        /* \"W3day2.sol\":1699:1715  User[msg.sender] */\n      0x00\n        /* \"W3day2.sol\":1704:1714  msg.sender */\n      caller\n        /* \"W3day2.sol\":1699:1715  User[msg.sender] */\n      0xffffffffffffffffffffffffffffffffffffffff\n      and\n      0xffffffffffffffffffffffffffffffffffffffff\n      and\n      dup2\n      mstore\n      0x20\n      add\n      swap1\n      dup2\n      mstore\n      0x20\n      add\n      0x00\n      keccak256\n        /* \"W3day2.sol\":1699:1728  User[msg.sender][_permission] */\n      0x00\n        /* \"W3day2.sol\":1716:1727  _permission */\n      dup4\n        /* \"W3day2.sol\":1699:1728  User[msg.sender][_permission] */\n      0x02\n      dup2\n      gt\n      iszero\n      tag_22\n      jumpi\n      tag_23\n      tag_18\n      jump\t// in\n    tag_23:\n    tag_22:\n      0x02\n      dup2\n      gt\n      iszero\n      tag_24\n      jumpi\n      tag_25\n      tag_18\n      jump\t// in\n    tag_25:\n    tag_24:\n      dup2\n      mstore\n      0x20\n      add\n      swap1\n      dup2\n      mstore\n      0x20\n      add\n      0x00\n      keccak256\n        /* \"W3day2.sol\":1699:1735  User[msg.sender][_permission].member */\n      0x00\n      add\n      0x02\n        /* \"W3day2.sol\":1699:1742  User[msg.sender][_permission].member = true */\n      0x0100\n      exp\n      dup2\n      sload\n      dup2\n      0xff\n      mul\n      not\n      and\n      swap1\n      dup4\n      iszero\n      iszero\n      mul\n      or\n      swap1\n      sstore\n      pop\n        /* \"W3day2.sol\":1648:1963  if(_permission == Permission.notGrantor){... */\n      jump(tag_26)\n    tag_21:\n        /* \"W3day2.sol\":1788:1806  Permission.Grantor */\n      0x02\n        /* \"W3day2.sol\":1773:1806  _permission == Permission.Grantor */\n      dup1\n      dup2\n      gt\n      iszero\n      tag_27\n      jumpi\n      tag_28\n      tag_18\n      jump\t// in\n    tag_28:\n    tag_27:\n        /* \"W3day2.sol\":1773:1784  _permission */\n      dup2\n        /* \"W3day2.sol\":1773:1806  _permission == Permission.Grantor */\n      0x02\n      dup2\n      gt\n      iszero\n      tag_29\n      jumpi\n      tag_30\n      tag_18\n      jump\t// in\n    tag_30:\n    tag_29:\n      sub\n        /* \"W3day2.sol\":1769:1963  if (_permission == Permission.Grantor){... */\n      tag_31\n      jumpi\n        /* \"W3day2.sol\":1860:1864  true */\n      0x01\n        /* \"W3day2.sol\":1822:1826  User */\n      dup1\n        /* \"W3day2.sol\":1822:1838  User[msg.sender] */\n      0x00\n        /* \"W3day2.sol\":1827:1837  msg.sender */\n      caller\n        /* \"W3day2.sol\":1822:1838  User[msg.sender] */\n      0xffffffffffffffffffffffffffffffffffffffff\n      and\n      0xffffffffffffffffffffffffffffffffffffffff\n      and\n      dup2\n      mstore\n      0x20\n      add\n      swap1\n      dup2\n      mstore\n      0x20\n      add\n      0x00\n      keccak256\n        /* \"W3day2.sol\":1822:1851  User[msg.sender][_permission] */\n      0x00\n        /* \"W3day2.sol\":1839:1850  _permission */\n      dup4\n        /* \"W3day2.sol\":1822:1851  User[msg.sender][_permission] */\n      0x02\n      dup2\n      gt\n      iszero\n      tag_32\n      jumpi\n      tag_33\n      tag_18\n      jump\t// in\n    tag_33:\n    tag_32:\n      0x02\n      dup2\n      gt\n      iszero\n      tag_34\n      jumpi\n      tag_35\n      tag_18\n      jump\t// in\n    tag_35:\n    tag_34:\n      dup2\n      mstore\n      0x20\n      add\n      swap1\n      dup2\n      mstore\n      0x20\n      add\n      0x00\n      keccak256\n        /* \"W3day2.sol\":1822:1857  User[msg.sender][_permission].admin */\n      0x00\n      add\n      0x00\n        /* \"W3day2.sol\":1822:1864  User[msg.sender][_permission].admin = true */\n      0x0100\n      exp\n      dup2\n      sload\n      dup2\n      0xff\n      mul\n      not\n      and\n      swap1\n      dup4\n      iszero\n      iszero\n      mul\n      or\n      swap1\n      sstore\n      pop\n        /* \"W3day2.sol\":1769:1963  if (_permission == Permission.Grantor){... */\n      jump(tag_36)\n    tag_31:\n        /* \"W3day2.sol\":1947:1951  true */\n      0x01\n        /* \"W3day2.sol\":1905:1909  User */\n      dup1\n        /* \"W3day2.sol\":1905:1921  User[msg.sender] */\n      0x00\n        /* \"W3day2.sol\":1910:1920  msg.sender */\n      caller\n        /* \"W3day2.sol\":1905:1921  User[msg.sender] */\n      0xffffffffffffffffffffffffffffffffffffffff\n      and\n      0xffffffffffffffffffffffffffffffffffffffff\n      and\n      dup2\n      mstore\n      0x20\n      add\n      swap1\n      dup2\n      mstore\n      0x20\n      add\n      0x00\n      keccak256\n        /* \"W3day2.sol\":1905:1934  User[msg.sender][_permission] */\n      0x00\n        /* \"W3day2.sol\":1922:1933  _permission */\n      dup4\n        /* \"W3day2.sol\":1905:1934  User[msg.sender][_permission] */\n      0x02\n      dup2\n      gt\n      iszero\n      tag_37\n      jumpi\n      tag_38\n      tag_18\n      jump\t// in\n    tag_38:\n    tag_37:\n      0x02\n      dup2\n      gt\n      iszero\n      tag_39\n      jumpi\n      tag_40\n      tag_18\n      jump\t// in\n    tag_40:\n    tag_39:\n      dup2\n      mstore\n      0x20\n      add\n      swap1\n      dup2\n      mstore\n      0x20\n      add\n      0x00\n      keccak256\n        /* \"W3day2.sol\":1905:1944  User[msg.sender][_permission].moderator */\n      0x00\n      add\n      0x01\n        /* \"W3day2.sol\":1905:1951  User[msg.sender][_permission].moderator = true */\n      0x0100\n      exp\n      dup2\n      sload\n      dup2\n      0xff\n      mul\n      not\n      and\n      swap1\n      dup4\n      iszero\n      iszero\n      mul\n      or\n      swap1\n      sstore\n      pop\n        /* \"W3day2.sol\":1769:1963  if (_permission == Permission.Grantor){... */\n    tag_36:\n        /* \"W3day2.sol\":1648:1963  if(_permission == Permission.notGrantor){... */\n    tag_26:\n        /* \"W3day2.sol\":1586:1970  function cpermission(Permission _permission) public{... */\n      pop\n      jump\t// out\n        /* \"W3day2.sol\":1518:1577  mapping(address => mapping(Permission => Role)) public User */\n    tag_12:\n      mstore(0x20, 0x01)\n      dup2\n      0x00\n      mstore\n      mstore(0x20, keccak256(0x00, 0x40))\n      dup1\n      0x00\n      mstore\n      keccak256(0x00, 0x40)\n      0x00\n      swap2\n      pop\n      swap2\n      pop\n      pop\n      dup1\n      0x00\n      add\n      0x00\n      swap1\n      sload\n      swap1\n      0x0100\n      exp\n      swap1\n      div\n      0xff\n      and\n      swap1\n      dup1\n      0x00\n      add\n      0x01\n      swap1\n      sload\n      swap1\n      0x0100\n      exp\n      swap1\n      div\n      0xff\n      and\n      swap1\n      dup1\n      0x00\n      add\n      0x02\n      swap1\n      sload\n      swap1\n      0x0100\n      exp\n      swap1\n      div\n      0xff\n      and\n      swap1\n      pop\n      dup4\n      jump\t// out\n        /* \"#utility.yul\":88:205   */\n    tag_42:\n        /* \"#utility.yul\":197:198   */\n      0x00\n        /* \"#utility.yul\":194:195   */\n      0x00\n        /* \"#utility.yul\":187:199   */\n      revert\n        /* \"#utility.yul\":334:447   */\n    tag_44:\n        /* \"#utility.yul\":421:422   */\n      0x03\n        /* \"#utility.yul\":414:419   */\n      dup2\n        /* \"#utility.yul\":411:423   */\n      lt\n        /* \"#utility.yul\":401:441   */\n      tag_57\n      jumpi\n        /* \"#utility.yul\":437:438   */\n      0x00\n        /* \"#utility.yul\":434:435   */\n      0x00\n        /* \"#utility.yul\":427:439   */\n      revert\n        /* \"#utility.yul\":401:441   */\n    tag_57:\n        /* \"#utility.yul\":334:447   */\n      pop\n      jump\t// out\n        /* \"#utility.yul\":453:620   */\n    tag_45:\n        /* \"#utility.yul\":513:518   */\n      0x00\n        /* \"#utility.yul\":551:557   */\n      dup2\n        /* \"#utility.yul\":538:558   */\n      calldataload\n        /* \"#utility.yul\":529:558   */\n      swap1\n      pop\n        /* \"#utility.yul\":567:614   */\n      tag_59\n        /* \"#utility.yul\":608:613   */\n      dup2\n        /* \"#utility.yul\":567:614   */\n      tag_44\n      jump\t// in\n    tag_59:\n        /* \"#utility.yul\":453:620   */\n      swap3\n      swap2\n      pop\n      pop\n      jump\t// out\n        /* \"#utility.yul\":626:983   */\n    tag_7:\n        /* \"#utility.yul\":699:705   */\n      0x00\n        /* \"#utility.yul\":748:750   */\n      0x20\n        /* \"#utility.yul\":736:745   */\n      dup3\n        /* \"#utility.yul\":727:734   */\n      dup5\n        /* \"#utility.yul\":723:746   */\n      sub\n        /* \"#utility.yul\":719:751   */\n      slt\n        /* \"#utility.yul\":716:835   */\n      iszero\n      tag_61\n      jumpi\n        /* \"#utility.yul\":754:833   */\n      tag_62\n      tag_42\n      jump\t// in\n    tag_62:\n        /* \"#utility.yul\":716:835   */\n    tag_61:\n        /* \"#utility.yul\":874:875   */\n      0x00\n        /* \"#utility.yul\":899:966   */\n      tag_63\n        /* \"#utility.yul\":958:965   */\n      dup5\n        /* \"#utility.yul\":949:955   */\n      dup3\n        /* \"#utility.yul\":938:947   */\n      dup6\n        /* \"#utility.yul\":934:956   */\n      add\n        /* \"#utility.yul\":899:966   */\n      tag_45\n      jump\t// in\n    tag_63:\n        /* \"#utility.yul\":889:966   */\n      swap2\n      pop\n        /* \"#utility.yul\":845:976   */\n      pop\n        /* \"#utility.yul\":626:983   */\n      swap3\n      swap2\n      pop\n      pop\n      jump\t// out\n        /* \"#utility.yul\":989:1115   */\n    tag_46:\n        /* \"#utility.yul\":1026:1033   */\n      0x00\n        /* \"#utility.yul\":1066:1108   */\n      0xffffffffffffffffffffffffffffffffffffffff\n        /* \"#utility.yul\":1059:1064   */\n      dup3\n        /* \"#utility.yul\":1055:1109   */\n      and\n        /* \"#utility.yul\":1044:1109   */\n      swap1\n      pop\n        /* \"#utility.yul\":989:1115   */\n      swap2\n      swap1\n      pop\n      jump\t// out\n        /* \"#utility.yul\":1121:1217   */\n    tag_47:\n        /* \"#utility.yul\":1158:1165   */\n      0x00\n        /* \"#utility.yul\":1187:1211   */\n      tag_66\n        /* \"#utility.yul\":1205:1210   */\n      dup3\n        /* \"#utility.yul\":1187:1211   */\n      tag_46\n      jump\t// in\n    tag_66:\n        /* \"#utility.yul\":1176:1211   */\n      swap1\n      pop\n        /* \"#utility.yul\":1121:1217   */\n      swap2\n      swap1\n      pop\n      jump\t// out\n        /* \"#utility.yul\":1223:1345   */\n    tag_48:\n        /* \"#utility.yul\":1296:1320   */\n      tag_68\n        /* \"#utility.yul\":1314:1319   */\n      dup2\n        /* \"#utility.yul\":1296:1320   */\n      tag_47\n      jump\t// in\n    tag_68:\n        /* \"#utility.yul\":1289:1294   */\n      dup2\n        /* \"#utility.yul\":1286:1321   */\n      eq\n        /* \"#utility.yul\":1276:1339   */\n      tag_69\n      jumpi\n        /* \"#utility.yul\":1335:1336   */\n      0x00\n        /* \"#utility.yul\":1332:1333   */\n      0x00\n        /* \"#utility.yul\":1325:1337   */\n      revert\n        /* \"#utility.yul\":1276:1339   */\n    tag_69:\n        /* \"#utility.yul\":1223:1345   */\n      pop\n      jump\t// out\n        /* \"#utility.yul\":1351:1490   */\n    tag_49:\n        /* \"#utility.yul\":1397:1402   */\n      0x00\n        /* \"#utility.yul\":1435:1441   */\n      dup2\n        /* \"#utility.yul\":1422:1442   */\n      calldataload\n        /* \"#utility.yul\":1413:1442   */\n      swap1\n      pop\n        /* \"#utility.yul\":1451:1484   */\n      tag_71\n        /* \"#utility.yul\":1478:1483   */\n      dup2\n        /* \"#utility.yul\":1451:1484   */\n      tag_48\n      jump\t// in\n    tag_71:\n        /* \"#utility.yul\":1351:1490   */\n      swap3\n      swap2\n      pop\n      pop\n      jump\t// out\n        /* \"#utility.yul\":1496:1998   */\n    tag_11:\n        /* \"#utility.yul\":1578:1584   */\n      0x00\n        /* \"#utility.yul\":1586:1592   */\n      0x00\n        /* \"#utility.yul\":1635:1637   */\n      0x40\n        /* \"#utility.yul\":1623:1632   */\n      dup4\n        /* \"#utility.yul\":1614:1621   */\n      dup6\n        /* \"#utility.yul\":1610:1633   */\n      sub\n        /* \"#utility.yul\":1606:1638   */\n      slt\n        /* \"#utility.yul\":1603:1722   */\n      iszero\n      tag_73\n      jumpi\n        /* \"#utility.yul\":1641:1720   */\n      tag_74\n      tag_42\n      jump\t// in\n    tag_74:\n        /* \"#utility.yul\":1603:1722   */\n    tag_73:\n        /* \"#utility.yul\":1761:1762   */\n      0x00\n        /* \"#utility.yul\":1786:1839   */\n      tag_75\n        /* \"#utility.yul\":1831:1838   */\n      dup6\n        /* \"#utility.yul\":1822:1828   */\n      dup3\n        /* \"#utility.yul\":1811:1820   */\n      dup7\n        /* \"#utility.yul\":1807:1829   */\n      add\n        /* \"#utility.yul\":1786:1839   */\n      tag_49\n      jump\t// in\n    tag_75:\n        /* \"#utility.yul\":1776:1839   */\n      swap3\n      pop\n        /* \"#utility.yul\":1732:1849   */\n      pop\n        /* \"#utility.yul\":1888:1890   */\n      0x20\n        /* \"#utility.yul\":1914:1981   */\n      tag_76\n        /* \"#utility.yul\":1973:1980   */\n      dup6\n        /* \"#utility.yul\":1964:1970   */\n      dup3\n        /* \"#utility.yul\":1953:1962   */\n      dup7\n        /* \"#utility.yul\":1949:1971   */\n      add\n        /* \"#utility.yul\":1914:1981   */\n      tag_45\n      jump\t// in\n    tag_76:\n        /* \"#utility.yul\":1904:1981   */\n      swap2\n      pop\n        /* \"#utility.yul\":1859:1991   */\n      pop\n        /* \"#utility.yul\":1496:1998   */\n      swap3\n      pop\n      swap3\n      swap1\n      pop\n      jump\t// out\n        /* \"#utility.yul\":2004:2094   */\n    tag_50:\n        /* \"#utility.yul\":2038:2045   */\n      0x00\n        /* \"#utility.yul\":2081:2086   */\n      dup2\n        /* \"#utility.yul\":2074:2087   */\n      iszero\n        /* \"#utility.yul\":2067:2088   */\n      iszero\n        /* \"#utility.yul\":2056:2088   */\n      swap1\n      pop\n        /* \"#utility.yul\":2004:2094   */\n      swap2\n      swap1\n      pop\n      jump\t// out\n        /* \"#utility.yul\":2100:2209   */\n    tag_51:\n        /* \"#utility.yul\":2181:2202   */\n      tag_79\n        /* \"#utility.yul\":2196:2201   */\n      dup2\n        /* \"#utility.yul\":2181:2202   */\n      tag_50\n      jump\t// in\n    tag_79:\n        /* \"#utility.yul\":2176:2179   */\n      dup3\n        /* \"#utility.yul\":2169:2203   */\n      mstore\n        /* \"#utility.yul\":2100:2209   */\n      pop\n      pop\n      jump\t// out\n        /* \"#utility.yul\":2215:2621   */\n    tag_14:\n        /* \"#utility.yul\":2346:2350   */\n      0x00\n        /* \"#utility.yul\":2384:2386   */\n      0x60\n        /* \"#utility.yul\":2373:2382   */\n      dup3\n        /* \"#utility.yul\":2369:2387   */\n      add\n        /* \"#utility.yul\":2361:2387   */\n      swap1\n      pop\n        /* \"#utility.yul\":2397:2462   */\n      tag_81\n        /* \"#utility.yul\":2459:2460   */\n      0x00\n        /* \"#utility.yul\":2448:2457   */\n      dup4\n        /* \"#utility.yul\":2444:2461   */\n      add\n        /* \"#utility.yul\":2435:2441   */\n      dup7\n        /* \"#utility.yul\":2397:2462   */\n      tag_51\n      jump\t// in\n    tag_81:\n        /* \"#utility.yul\":2472:2538   */\n      tag_82\n        /* \"#utility.yul\":2534:2536   */\n      0x20\n        /* \"#utility.yul\":2523:2532   */\n      dup4\n        /* \"#utility.yul\":2519:2537   */\n      add\n        /* \"#utility.yul\":2510:2516   */\n      dup6\n        /* \"#utility.yul\":2472:2538   */\n      tag_51\n      jump\t// in\n    tag_82:\n        /* \"#utility.yul\":2548:2614   */\n      tag_83\n        /* \"#utility.yul\":2610:2612   */\n      0x40\n        /* \"#utility.yul\":2599:2608   */\n      dup4\n        /* \"#utility.yul\":2595:2613   */\n      add\n        /* \"#utility.yul\":2586:2592   */\n      dup5\n        /* \"#utility.yul\":2548:2614   */\n      tag_51\n      jump\t// in\n    tag_83:\n        /* \"#utility.yul\":2215:2621   */\n      swap5\n      swap4\n      pop\n      pop\n      pop\n      pop\n      jump\t// out\n        /* \"#utility.yul\":2627:2807   */\n    tag_18:\n        /* \"#utility.yul\":2675:2752   */\n      0x4e487b7100000000000000000000000000000000000000000000000000000000\n        /* \"#utility.yul\":2672:2673   */\n      0x00\n        /* \"#utility.yul\":2665:2753   */\n      mstore\n        /* \"#utility.yul\":2772:2776   */\n      0x21\n        /* \"#utility.yul\":2769:2770   */\n      0x04\n        /* \"#utility.yul\":2762:2777   */\n      mstore\n        /* \"#utility.yul\":2796:2800   */\n      0x24\n        /* \"#utility.yul\":2793:2794   */\n      0x00\n        /* \"#utility.yul\":2786:2801   */\n      revert\n\n    auxdata: 0xa26469706673582212205d9c5c4a3e6e5a17f525ccac20aa367545c67f6bc8e8dfe301d98e173ed34fa664736f6c634300081f0033\n}\n",
				"bytecode": {
					"linkReferences": {},
					"object": "6080604052348015600e575f5ffd5b506104798061001c5f395ff3fe608060405234801561000f575f5ffd5b5060043610610034575f3560e01c80632f7825de1461003857806343ba352414610054575b5f5ffd5b610052600480360381019061004d9190610304565b610086565b005b61006e60048036038101906100699190610389565b610288565b60405161007d939291906103e1565b60405180910390f35b5f600281111561009957610098610416565b5b8160028111156100ac576100ab610416565b5b03610140576001805f3373ffffffffffffffffffffffffffffffffffffffff1673ffffffffffffffffffffffffffffffffffffffff1681526020019081526020015f205f83600281111561010357610102610416565b5b600281111561011557610114610416565b5b81526020019081526020015f205f0160026101000a81548160ff021916908315150217905550610285565b60028081111561015357610152610416565b5b81600281111561016657610165610416565b5b036101f9576001805f3373ffffffffffffffffffffffffffffffffffffffff1673ffffffffffffffffffffffffffffffffffffffff1681526020019081526020015f205f8360028111156101bd576101bc610416565b5b60028111156101cf576101ce610416565b5b81526020019081526020015f205f015f6101000a81548160ff021916908315150217905550610284565b6001805f3373ffffffffffffffffffffffffffffffffffffffff1673ffffffffffffffffffffffffffffffffffffffff1681526020019081526020015f205f83600281111561024b5761024a610416565b5b600281111561025d5761025c610416565b5b81526020019081526020015f205f0160016101000a81548160ff0219169083151502179055505b5b50565b6001602052815f5260405f20602052805f5260405f205f9150915050805f015f9054906101000a900460ff1690805f0160019054906101000a900460ff1690805f0160029054906101000a900460ff16905083565b5f5ffd5b600381106102ed575f5ffd5b50565b5f813590506102fe816102e1565b92915050565b5f60208284031215610319576103186102dd565b5b5f610326848285016102f0565b91505092915050565b5f73ffffffffffffffffffffffffffffffffffffffff82169050919050565b5f6103588261032f565b9050919050565b6103688161034e565b8114610372575f5ffd5b50565b5f813590506103838161035f565b92915050565b5f5f6040838503121561039f5761039e6102dd565b5b5f6103ac85828601610375565b92505060206103bd858286016102f0565b9150509250929050565b5f8115159050919050565b6103db816103c7565b82525050565b5f6060820190506103f45f8301866103d2565b61040160208301856103d2565b61040e60408301846103d2565b949350505050565b7f4e487b71000000000000000000000000000000000000000000000000000000005f52602160045260245ffdfea26469706673582212205d9c5c4a3e6e5a17f525ccac20aa367545c67f6bc8e8dfe301d98e173ed34fa664736f6c634300081f0033",
					"opcodes": "PUSH1 0x80 PUSH1 0x40 MSTORE CALLVALUE DUP1 ISZERO PUSH1 0xE JUMPI PUSH0 PUSH0 REVERT JUMPDEST POP PUSH2 0x479 DUP1 PUSH2 0x1C PUSH0 CODECOPY PUSH0 RETURN INVALID PUSH1 0x80 PUSH1 0x40 MSTORE CALLVALUE DUP1 ISZERO PUSH2 0xF JUMPI PUSH0 PUSH0 REVERT JUMPDEST POP PUSH1 0x4 CALLDATASIZE LT PUSH2 0x34 JUMPI PUSH0 CALLDATALOAD PUSH1 0xE0 SHR DUP1 PUSH4 0x2F7825DE EQ PUSH2 0x38 JUMPI DUP1 PUSH4 0x43BA3524 EQ PUSH2 0x54 JUMPI JUMPDEST PUSH0 PUSH0 REVERT JUMPDEST PUSH2 0x52 PUSH1 0x4 DUP1 CALLDATASIZE SUB DUP2 ADD SWAP1 PUSH2 0x4D SWAP2 SWAP1 PUSH2 0x304 JUMP JUMPDEST PUSH2 0x86 JUMP JUMPDEST STOP JUMPDEST PUSH2 0x6E PUSH1 0x4 DUP1 CALLDATASIZE SUB DUP2 ADD SWAP1 PUSH2 0x69 SWAP2 SWAP1 PUSH2 0x389 JUMP JUMPDEST PUSH2 0x288 JUMP JUMPDEST PUSH1 0x40 MLOAD PUSH2 0x7D SWAP4 SWAP3 SWAP2 SWAP1 PUSH2 0x3E1 JUMP JUMPDEST PUSH1 0x40 MLOAD DUP1 SWAP2 SUB SWAP1 RETURN JUMPDEST PUSH0 PUSH1 0x2 DUP2 GT ISZERO PUSH2 0x99 JUMPI PUSH2 0x98 PUSH2 0x416 JUMP JUMPDEST JUMPDEST DUP2 PUSH1 0x2 DUP2 GT ISZERO PUSH2 0xAC JUMPI PUSH2 0xAB PUSH2 0x416 JUMP JUMPDEST JUMPDEST SUB PUSH2 0x140 JUMPI PUSH1 0x1 DUP1 PUSH0 CALLER PUSH20 0xFFFFFFFFFFFFFFFFFFFFFFFFFFFFFFFFFFFFFFFF AND PUSH20 0xFFFFFFFFFFFFFFFFFFFFFFFFFFFFFFFFFFFFFFFF AND DUP2 MSTORE PUSH1 0x20 ADD SWAP1 DUP2 MSTORE PUSH1 0x20 ADD PUSH0 KECCAK256 PUSH0 DUP4 PUSH1 0x2 DUP2 GT ISZERO PUSH2 0x103 JUMPI PUSH2 0x102 PUSH2 0x416 JUMP JUMPDEST JUMPDEST PUSH1 0x2 DUP2 GT ISZERO PUSH2 0x115 JUMPI PUSH2 0x114 PUSH2 0x416 JUMP JUMPDEST JUMPDEST DUP2 MSTORE PUSH1 0x20 ADD SWAP1 DUP2 MSTORE PUSH1 0x20 ADD PUSH0 KECCAK256 PUSH0 ADD PUSH1 0x2 PUSH2 0x100 EXP DUP2 SLOAD DUP2 PUSH1 0xFF MUL NOT AND SWAP1 DUP4 ISZERO ISZERO MUL OR SWAP1 SSTORE POP PUSH2 0x285 JUMP JUMPDEST PUSH1 0x2 DUP1 DUP2 GT ISZERO PUSH2 0x153 JUMPI PUSH2 0x152 PUSH2 0x416 JUMP JUMPDEST JUMPDEST DUP2 PUSH1 0x2 DUP2 GT ISZERO PUSH2 0x166 JUMPI PUSH2 0x165 PUSH2 0x416 JUMP JUMPDEST JUMPDEST SUB PUSH2 0x1F9 JUMPI PUSH1 0x1 DUP1 PUSH0 CALLER PUSH20 0xFFFFFFFFFFFFFFFFFFFFFFFFFFFFFFFFFFFFFFFF AND PUSH20 0xFFFFFFFFFFFFFFFFFFFFFFFFFFFFFFFFFFFFFFFF AND DUP2 MSTORE PUSH1 0x20 ADD SWAP1 DUP2 MSTORE PUSH1 0x20 ADD PUSH0 KECCAK256 PUSH0 DUP4 PUSH1 0x2 DUP2 GT ISZERO PUSH2 0x1BD JUMPI PUSH2 0x1BC PUSH2 0x416 JUMP JUMPDEST JUMPDEST PUSH1 0x2 DUP2 GT ISZERO PUSH2 0x1CF JUMPI PUSH2 0x1CE PUSH2 0x416 JUMP JUMPDEST JUMPDEST DUP2 MSTORE PUSH1 0x20 ADD SWAP1 DUP2 MSTORE PUSH1 0x20 ADD PUSH0 KECCAK256 PUSH0 ADD PUSH0 PUSH2 0x100 EXP DUP2 SLOAD DUP2 PUSH1 0xFF MUL NOT AND SWAP1 DUP4 ISZERO ISZERO MUL OR SWAP1 SSTORE POP PUSH2 0x284 JUMP JUMPDEST PUSH1 0x1 DUP1 PUSH0 CALLER PUSH20 0xFFFFFFFFFFFFFFFFFFFFFFFFFFFFFFFFFFFFFFFF AND PUSH20 0xFFFFFFFFFFFFFFFFFFFFFFFFFFFFFFFFFFFFFFFF AND DUP2 MSTORE PUSH1 0x20 ADD SWAP1 DUP2 MSTORE PUSH1 0x20 ADD PUSH0 KECCAK256 PUSH0 DUP4 PUSH1 0x2 DUP2 GT ISZERO PUSH2 0x24B JUMPI PUSH2 0x24A PUSH2 0x416 JUMP JUMPDEST JUMPDEST PUSH1 0x2 DUP2 GT ISZERO PUSH2 0x25D JUMPI PUSH2 0x25C PUSH2 0x416 JUMP JUMPDEST JUMPDEST DUP2 MSTORE PUSH1 0x20 ADD SWAP1 DUP2 MSTORE PUSH1 0x20 ADD PUSH0 KECCAK256 PUSH0 ADD PUSH1 0x1 PUSH2 0x100 EXP DUP2 SLOAD DUP2 PUSH1 0xFF MUL NOT AND SWAP1 DUP4 ISZERO ISZERO MUL OR SWAP1 SSTORE POP JUMPDEST JUMPDEST POP JUMP JUMPDEST PUSH1 0x1 PUSH1 0x20 MSTORE DUP2 PUSH0 MSTORE PUSH1 0x40 PUSH0 KECCAK256 PUSH1 0x20 MSTORE DUP1 PUSH0 MSTORE PUSH1 0x40 PUSH0 KECCAK256 PUSH0 SWAP2 POP SWAP2 POP POP DUP1 PUSH0 ADD PUSH0 SWAP1 SLOAD SWAP1 PUSH2 0x100 EXP SWAP1 DIV PUSH1 0xFF AND SWAP1 DUP1 PUSH0 ADD PUSH1 0x1 SWAP1 SLOAD SWAP1 PUSH2 0x100 EXP SWAP1 DIV PUSH1 0xFF AND SWAP1 DUP1 PUSH0 ADD PUSH1 0x2 SWAP1 SLOAD SWAP1 PUSH2 0x100 EXP SWAP1 DIV PUSH1 0xFF AND SWAP1 POP DUP4 JUMP JUMPDEST PUSH0 PUSH0 REVERT JUMPDEST PUSH1 0x3 DUP2 LT PUSH2 0x2ED JUMPI PUSH0 PUSH0 REVERT JUMPDEST POP JUMP JUMPDEST PUSH0 DUP2 CALLDATALOAD SWAP1 POP PUSH2 0x2FE DUP2 PUSH2 0x2E1 JUMP JUMPDEST SWAP3 SWAP2 POP POP JUMP JUMPDEST PUSH0 PUSH1 0x20 DUP3 DUP5 SUB SLT ISZERO PUSH2 0x319 JUMPI PUSH2 0x318 PUSH2 0x2DD JUMP JUMPDEST JUMPDEST PUSH0 PUSH2 0x326 DUP5 DUP3 DUP6 ADD PUSH2 0x2F0 JUMP JUMPDEST SWAP2 POP POP SWAP3 SWAP2 POP POP JUMP JUMPDEST PUSH0 PUSH20 0xFFFFFFFFFFFFFFFFFFFFFFFFFFFFFFFFFFFFFFFF DUP3 AND SWAP1 POP SWAP2 SWAP1 POP JUMP JUMPDEST PUSH0 PUSH2 0x358 DUP3 PUSH2 0x32F JUMP JUMPDEST SWAP1 POP SWAP2 SWAP1 POP JUMP JUMPDEST PUSH2 0x368 DUP2 PUSH2 0x34E JUMP JUMPDEST DUP2 EQ PUSH2 0x372 JUMPI PUSH0 PUSH0 REVERT JUMPDEST POP JUMP JUMPDEST PUSH0 DUP2 CALLDATALOAD SWAP1 POP PUSH2 0x383 DUP2 PUSH2 0x35F JUMP JUMPDEST SWAP3 SWAP2 POP POP JUMP JUMPDEST PUSH0 PUSH0 PUSH1 0x40 DUP4 DUP6 SUB SLT ISZERO PUSH2 0x39F JUMPI PUSH2 0x39E PUSH2 0x2DD JUMP JUMPDEST JUMPDEST PUSH0 PUSH2 0x3AC DUP6 DUP3 DUP7 ADD PUSH2 0x375 JUMP JUMPDEST SWAP3 POP POP PUSH1 0x20 PUSH2 0x3BD DUP6 DUP3 DUP7 ADD PUSH2 0x2F0 JUMP JUMPDEST SWAP2 POP POP SWAP3 POP SWAP3 SWAP1 POP JUMP JUMPDEST PUSH0 DUP2 ISZERO ISZERO SWAP1 POP SWAP2 SWAP1 POP JUMP JUMPDEST PUSH2 0x3DB DUP2 PUSH2 0x3C7 JUMP JUMPDEST DUP3 MSTORE POP POP JUMP JUMPDEST PUSH0 PUSH1 0x60 DUP3 ADD SWAP1 POP PUSH2 0x3F4 PUSH0 DUP4 ADD DUP7 PUSH2 0x3D2 JUMP JUMPDEST PUSH2 0x401 PUSH1 0x20 DUP4 ADD DUP6 PUSH2 0x3D2 JUMP JUMPDEST PUSH2 0x40E PUSH1 0x40 DUP4 ADD DUP5 PUSH2 0x3D2 JUMP JUMPDEST SWAP5 SWAP4 POP POP POP POP JUMP JUMPDEST PUSH32 0x4E487B7100000000000000000000000000000000000000000000000000000000 PUSH0 MSTORE PUSH1 0x21 PUSH1 0x4 MSTORE PUSH1 0x24 PUSH0 REVERT INVALID LOG2 PUSH5 0x6970667358 0x22 SLT KECCAK256 TSTORE SWAP13 TLOAD BLOBBASEFEE RETURNDATACOPY PUSH15 0x5A17F525CCAC20AA367545C67F6BC8 0xE8 0xDF CALLF 0x1D9 DUP15 OR RETURNDATACOPY 0xD3 0x4F 0xA6 PUSH5 0x736F6C6343 STOP ADDMOD 0x1F STOP CALLER "
				},
				"gasEstimates": {
					"creation": {
						"codeDepositCost": "229000",
						"executionCost": "267",
						"totalCost": "229267"
					},
					"external": {
						"User(address,uint8)": "infinite",
						"cpermission(uint8)": "25025"
					}
				},
				"methodIdentifiers": {
					"User(address,uint8)": "43ba3524",
					"cpermission(uint8)": "2f7825de"
				}
			},
			"storageLayout": {
				"storage": [
					{
						"astId": 145,
						"contract": "W3day2.sol:RoleUserPermission",
						"label": "permissions",
						"offset": 0,
						"slot": "0",
						"type": "t_enum(Permission)142"
					},
					{
						"astId": 153,
						"contract": "W3day2.sol:RoleUserPermission",
						"label": "User",
						"offset": 0,
						"slot": "1",
						"type": "t_mapping(t_address,t_mapping(t_enum(Permission)142,t_struct(Role)138_storage))"
					}
				],
				"types": {
					"t_address": {
						"encoding": "inplace",
						"label": "address",
						"numberOfBytes": "20"
					},
					"t_bool": {
						"encoding": "inplace",
						"label": "bool",
						"numberOfBytes": "1"
					},
					"t_enum(Permission)142": {
						"encoding": "inplace",
						"label": "enum RoleUserPermission.Permission",
						"numberOfBytes": "1"
					},
					"t_mapping(t_address,t_mapping(t_enum(Permission)142,t_struct(Role)138_storage))": {
						"encoding": "mapping",
						"key": "t_address",
						"label": "mapping(address => mapping(enum RoleUserPermission.Permission => struct RoleUserPermission.Role))",
						"numberOfBytes": "32",
						"value": "t_mapping(t_enum(Permission)142,t_struct(Role)138_storage)"
					},
					"t_mapping(t_enum(Permission)142,t_struct(Role)138_storage)": {
						"encoding": "mapping",
						"key": "t_enum(Permission)142",
						"label": "mapping(enum RoleUserPermission.Permission => struct RoleUserPermission.Role)",
						"numberOfBytes": "32",
						"value": "t_struct(Role)138_storage"
					},
					"t_struct(Role)138_storage": {
						"encoding": "inplace",
						"label": "struct RoleUserPermission.Role",
						"members": [
							{
								"astId": 133,
								"contract": "W3day2.sol:RoleUserPermission",
								"label": "admin",
								"offset": 0,
								"slot": "0",
								"type": "t_bool"
							},
							{
								"astId": 135,
								"contract": "W3day2.sol:RoleUserPermission",
								"label": "moderator",
								"offset": 1,
								"slot": "0",
								"type": "t_bool"
							},
							{
								"astId": 137,
								"contract": "W3day2.sol:RoleUserPermission",
								"label": "member",
								"offset": 2,
								"slot": "0",
								"type": "t_bool"
							}
						],
						"numberOfBytes": "32"
					}
				}
			},
			"userdoc": {
				"kind": "user",
				"methods": {},
				"version": 1
			}
		}
	}
}