{
	"day2.sol": {
		"ValueTypes": {
			"abi": [
				{
					"inputs": [],
					"stateMutability": "nonpayable",
					"type": "constructor"
				},
				{
					"inputs": [],
					"name": "isActive",
					"outputs": [
						{
							"internalType": "bool",
							"name": "",
							"type": "bool"
						}
					],
					"stateMutability": "view",
					"type": "function"
				},
				{
					"inputs": [],
					"name": "myInt",
					"outputs": [
						{
							"internalType": "int256",
							"name": "",
							"type": "int256"
						}
					],
					"stateMutability": "view",
					"type": "function"
				},
				{
					"inputs": [],
					"name": "myUint",
					"outputs": [
						{
							"internalType": "uint256",
							"name": "",
							"type": "uint256"
						}
					],
					"stateMutability": "view",
					"type": "function"
				},
				{
					"inputs": [],
					"name": "owner",
					"outputs": [
						{
							"internalType": "address",
							"name": "",
							"type": "address"
						}
					],
					"stateMutability": "view",
					"type": "function"
				},
				{
					"inputs": [
						{
							"internalType": "int256",
							"name": "_num",
							"type": "int256"
						}
					],
					"name": "setInt",
					"outputs": [],
					"stateMutability": "nonpayable",
					"type": "function"
				},
				{
					"inputs": [
						{
							"internalType": "address",
							"name": "_owner",
							"type": "address"
						}
					],
					"name": "setOwner",
					"outputs": [],
					"stateMutability": "nonpayable",
					"type": "function"
				},
				{
					"inputs": [
						{
							"internalType": "uint256",
							"name": "_num",
							"type": "uint256"
						}
					],
					"name": "setUint",
					"outputs": [],
					"stateMutability": "nonpayable",
					"type": "function"
				},
				{
					"inputs": [],
					"name": "toggleActive",
					"outputs": [],
					"stateMutability": "nonpayable",
					"type": "function"
				}
			],
			"devdoc": {
				"kind": "dev",
				"methods": {},
				"title": "Value Types Practice",
				"version": 1
			},
			"evm": {
				"assembly": "    /* \"day2.sol\":158:772  contract ValueTypes {... */\n  mstore(0x40, 0x80)\n    /* \"day2.sol\":315:437  constructor() {... */\n  callvalue\n  dup1\n  iszero\n  tag_1\n  jumpi\n  revert(0x00, 0x00)\ntag_1:\n  pop\n    /* \"day2.sol\":349:352  100 */\n  0x64\n    /* \"day2.sol\":340:346  myUint */\n  0x00\n    /* \"day2.sol\":340:352  myUint = 100 */\n  dup2\n  swap1\n  sstore\n  pop\n    /* \"day2.sol\":371:374  -50 */\n  0xffffffffffffffffffffffffffffffffffffffffffffffffffffffffffffffce\n    /* \"day2.sol\":363:368  myInt */\n  0x01\n    /* \"day2.sol\":363:374  myInt = -50 */\n  dup2\n  swap1\n  sstore\n  pop\n    /* \"day2.sol\":396:400  true */\n  0x01\n    /* \"day2.sol\":385:393  isActive */\n  0x02\n  0x00\n    /* \"day2.sol\":385:400  isActive = true */\n  0x0100\n  exp\n  dup2\n  sload\n  dup2\n  0xff\n  mul\n  not\n  and\n  swap1\n  dup4\n  iszero\n  iszero\n  mul\n  or\n  swap1\n  sstore\n  pop\n    /* \"day2.sol\":419:429  msg.sender */\n  caller\n    /* \"day2.sol\":411:416  owner */\n  0x02\n  0x01\n    /* \"day2.sol\":411:429  owner = msg.sender */\n  0x0100\n  exp\n  dup2\n  sload\n  dup2\n  0xffffffffffffffffffffffffffffffffffffffff\n  mul\n  not\n  and\n  swap1\n  dup4\n  0xffffffffffffffffffffffffffffffffffffffff\n  and\n  mul\n  or\n  swap1\n  sstore\n  pop\n    /* \"day2.sol\":158:772  contract ValueTypes {... */\n  dataSize(sub_0)\n  dup1\n  dataOffset(sub_0)\n  0x00\n  codecopy\n  0x00\n  return\nstop\n\nsub_0: assembly {\n        /* \"day2.sol\":158:772  contract ValueTypes {... */\n      mstore(0x40, 0x80)\n      callvalue\n      dup1\n      iszero\n      tag_1\n      jumpi\n      revert(0x00, 0x00)\n    tag_1:\n      pop\n      jumpi(tag_2, lt(calldatasize, 0x04))\n      shr(0xe0, calldataload(0x00))\n      dup1\n      0x2cb777a6\n      gt\n      tag_11\n      jumpi\n      dup1\n      0x2cb777a6\n      eq\n      tag_7\n      jumpi\n      dup1\n      0x4ef65c3b\n      eq\n      tag_8\n      jumpi\n      dup1\n      0x747586b8\n      eq\n      tag_9\n      jumpi\n      dup1\n      0x8da5cb5b\n      eq\n      tag_10\n      jumpi\n      jump(tag_2)\n    tag_11:\n      dup1\n      0x06540f7e\n      eq\n      tag_3\n      jumpi\n      dup1\n      0x13af4035\n      eq\n      tag_4\n      jumpi\n      dup1\n      0x22f3e2d4\n      eq\n      tag_5\n      jumpi\n      dup1\n      0x29c68dc1\n      eq\n      tag_6\n      jumpi\n    tag_2:\n      revert(0x00, 0x00)\n        /* \"day2.sol\":185:206  uint256 public myUint */\n    tag_3:\n      tag_12\n      tag_13\n      jump\t// in\n    tag_12:\n      mload(0x40)\n      tag_14\n      swap2\n      swap1\n      tag_15\n      jump\t// in\n    tag_14:\n      mload(0x40)\n      dup1\n      swap2\n      sub\n      swap1\n      return\n        /* \"day2.sol\":695:769  function setOwner(address _owner) public {... */\n    tag_4:\n      tag_16\n      0x04\n      dup1\n      calldatasize\n      sub\n      dup2\n      add\n      swap1\n      tag_17\n      swap2\n      swap1\n      tag_18\n      jump\t// in\n    tag_17:\n      tag_19\n      jump\t// in\n    tag_16:\n      stop\n        /* \"day2.sol\":239:259  bool public isActive */\n    tag_5:\n      tag_20\n      tag_21\n      jump\t// in\n    tag_20:\n      mload(0x40)\n      tag_22\n      swap2\n      swap1\n      tag_23\n      jump\t// in\n    tag_22:\n      mload(0x40)\n      dup1\n      swap2\n      sub\n      swap1\n      return\n        /* \"day2.sol\":617:687  function toggleActive() public {... */\n    tag_6:\n      tag_24\n      tag_25\n      jump\t// in\n    tag_24:\n      stop\n        /* \"day2.sol\":213:232  int256 public myInt */\n    tag_7:\n      tag_26\n      tag_27\n      jump\t// in\n    tag_26:\n      mload(0x40)\n      tag_28\n      swap2\n      swap1\n      tag_29\n      jump\t// in\n    tag_28:\n      mload(0x40)\n      dup1\n      swap2\n      sub\n      swap1\n      return\n        /* \"day2.sol\":470:537  function setUint(uint _num) public {... */\n    tag_8:\n      tag_30\n      0x04\n      dup1\n      calldatasize\n      sub\n      dup2\n      add\n      swap1\n      tag_31\n      swap2\n      swap1\n      tag_32\n      jump\t// in\n    tag_31:\n      tag_33\n      jump\t// in\n    tag_30:\n      stop\n        /* \"day2.sol\":545:609  function setInt(int _num) public {... */\n    tag_9:\n      tag_34\n      0x04\n      dup1\n      calldatasize\n      sub\n      dup2\n      add\n      swap1\n      tag_35\n      swap2\n      swap1\n      tag_36\n      jump\t// in\n    tag_35:\n      tag_37\n      jump\t// in\n    tag_34:\n      stop\n        /* \"day2.sol\":266:286  address public owner */\n    tag_10:\n      tag_38\n      tag_39\n      jump\t// in\n    tag_38:\n      mload(0x40)\n      tag_40\n      swap2\n      swap1\n      tag_41\n      jump\t// in\n    tag_40:\n      mload(0x40)\n      dup1\n      swap2\n      sub\n      swap1\n      return\n        /* \"day2.sol\":185:206  uint256 public myUint */\n    tag_13:\n      sload(0x00)\n      dup2\n      jump\t// out\n        /* \"day2.sol\":695:769  function setOwner(address _owner) public {... */\n    tag_19:\n        /* \"day2.sol\":755:761  _owner */\n      dup1\n        /* \"day2.sol\":747:752  owner */\n      0x02\n      0x01\n        /* \"day2.sol\":747:761  owner = _owner */\n      0x0100\n      exp\n      dup2\n      sload\n      dup2\n      0xffffffffffffffffffffffffffffffffffffffff\n      mul\n      not\n      and\n      swap1\n      dup4\n      0xffffffffffffffffffffffffffffffffffffffff\n      and\n      mul\n      or\n      swap1\n      sstore\n      pop\n        /* \"day2.sol\":695:769  function setOwner(address _owner) public {... */\n      pop\n      jump\t// out\n        /* \"day2.sol\":239:259  bool public isActive */\n    tag_21:\n      0x02\n      0x00\n      swap1\n      sload\n      swap1\n      0x0100\n      exp\n      swap1\n      div\n      0xff\n      and\n      dup2\n      jump\t// out\n        /* \"day2.sol\":617:687  function toggleActive() public {... */\n    tag_25:\n        /* \"day2.sol\":671:679  isActive */\n      0x02\n      0x00\n      swap1\n      sload\n      swap1\n      0x0100\n      exp\n      swap1\n      div\n      0xff\n      and\n        /* \"day2.sol\":670:679  !isActive */\n      iszero\n        /* \"day2.sol\":659:667  isActive */\n      0x02\n      0x00\n        /* \"day2.sol\":659:679  isActive = !isActive */\n      0x0100\n      exp\n      dup2\n      sload\n      dup2\n      0xff\n      mul\n      not\n      and\n      swap1\n      dup4\n      iszero\n      iszero\n      mul\n      or\n      swap1\n      sstore\n      pop\n        /* \"day2.sol\":617:687  function toggleActive() public {... */\n      jump\t// out\n        /* \"day2.sol\":213:232  int256 public myInt */\n    tag_27:\n      sload(0x01)\n      dup2\n      jump\t// out\n        /* \"day2.sol\":470:537  function setUint(uint _num) public {... */\n    tag_33:\n        /* \"day2.sol\":525:529  _num */\n      dup1\n        /* \"day2.sol\":516:522  myUint */\n      0x00\n        /* \"day2.sol\":516:529  myUint = _num */\n      dup2\n      swap1\n      sstore\n      pop\n        /* \"day2.sol\":470:537  function setUint(uint _num) public {... */\n      pop\n      jump\t// out\n        /* \"day2.sol\":545:609  function setInt(int _num) public {... */\n    tag_37:\n        /* \"day2.sol\":597:601  _num */\n      dup1\n        /* \"day2.sol\":589:594  myInt */\n      0x01\n        /* \"day2.sol\":589:601  myInt = _num */\n      dup2\n      swap1\n      sstore\n      pop\n        /* \"day2.sol\":545:609  function setInt(int _num) public {... */\n      pop\n      jump\t// out\n        /* \"day2.sol\":266:286  address public owner */\n    tag_39:\n      0x02\n      0x01\n      swap1\n      sload\n      swap1\n      0x0100\n      exp\n      swap1\n      div\n      0xffffffffffffffffffffffffffffffffffffffff\n      and\n      dup2\n      jump\t// out\n        /* \"#utility.yul\":7:84   */\n    tag_46:\n        /* \"#utility.yul\":44:51   */\n      0x00\n        /* \"#utility.yul\":73:78   */\n      dup2\n        /* \"#utility.yul\":62:78   */\n      swap1\n      pop\n        /* \"#utility.yul\":7:84   */\n      swap2\n      swap1\n      pop\n      jump\t// out\n        /* \"#utility.yul\":90:208   */\n    tag_47:\n        /* \"#utility.yul\":177:201   */\n      tag_67\n        /* \"#utility.yul\":195:200   */\n      dup2\n        /* \"#utility.yul\":177:201   */\n      tag_46\n      jump\t// in\n    tag_67:\n        /* \"#utility.yul\":172:175   */\n      dup3\n        /* \"#utility.yul\":165:202   */\n      mstore\n        /* \"#utility.yul\":90:208   */\n      pop\n      pop\n      jump\t// out\n        /* \"#utility.yul\":214:436   */\n    tag_15:\n        /* \"#utility.yul\":307:311   */\n      0x00\n        /* \"#utility.yul\":345:347   */\n      0x20\n        /* \"#utility.yul\":334:343   */\n      dup3\n        /* \"#utility.yul\":330:348   */\n      add\n        /* \"#utility.yul\":322:348   */\n      swap1\n      pop\n        /* \"#utility.yul\":358:429   */\n      tag_69\n        /* \"#utility.yul\":426:427   */\n      0x00\n        /* \"#utility.yul\":415:424   */\n      dup4\n        /* \"#utility.yul\":411:428   */\n      add\n        /* \"#utility.yul\":402:408   */\n      dup5\n        /* \"#utility.yul\":358:429   */\n      tag_47\n      jump\t// in\n    tag_69:\n        /* \"#utility.yul\":214:436   */\n      swap3\n      swap2\n      pop\n      pop\n      jump\t// out\n        /* \"#utility.yul\":523:640   */\n    tag_49:\n        /* \"#utility.yul\":632:633   */\n      0x00\n        /* \"#utility.yul\":629:630   */\n      0x00\n        /* \"#utility.yul\":622:634   */\n      revert\n        /* \"#utility.yul\":769:895   */\n    tag_51:\n        /* \"#utility.yul\":806:813   */\n      0x00\n        /* \"#utility.yul\":846:888   */\n      0xffffffffffffffffffffffffffffffffffffffff\n        /* \"#utility.yul\":839:844   */\n      dup3\n        /* \"#utility.yul\":835:889   */\n      and\n        /* \"#utility.yul\":824:889   */\n      swap1\n      pop\n        /* \"#utility.yul\":769:895   */\n      swap2\n      swap1\n      pop\n      jump\t// out\n        /* \"#utility.yul\":901:997   */\n    tag_52:\n        /* \"#utility.yul\":938:945   */\n      0x00\n        /* \"#utility.yul\":967:991   */\n      tag_75\n        /* \"#utility.yul\":985:990   */\n      dup3\n        /* \"#utility.yul\":967:991   */\n      tag_51\n      jump\t// in\n    tag_75:\n        /* \"#utility.yul\":956:991   */\n      swap1\n      pop\n        /* \"#utility.yul\":901:997   */\n      swap2\n      swap1\n      pop\n      jump\t// out\n        /* \"#utility.yul\":1003:1125   */\n    tag_53:\n        /* \"#utility.yul\":1076:1100   */\n      tag_77\n        /* \"#utility.yul\":1094:1099   */\n      dup2\n        /* \"#utility.yul\":1076:1100   */\n      tag_52\n      jump\t// in\n    tag_77:\n        /* \"#utility.yul\":1069:1074   */\n      dup2\n        /* \"#utility.yul\":1066:1101   */\n      eq\n        /* \"#utility.yul\":1056:1119   */\n      tag_78\n      jumpi\n        /* \"#utility.yul\":1115:1116   */\n      0x00\n        /* \"#utility.yul\":1112:1113   */\n      0x00\n        /* \"#utility.yul\":1105:1117   */\n      revert\n        /* \"#utility.yul\":1056:1119   */\n    tag_78:\n        /* \"#utility.yul\":1003:1125   */\n      pop\n      jump\t// out\n        /* \"#utility.yul\":1131:1270   */\n    tag_54:\n        /* \"#utility.yul\":1177:1182   */\n      0x00\n        /* \"#utility.yul\":1215:1221   */\n      dup2\n        /* \"#utility.yul\":1202:1222   */\n      calldataload\n        /* \"#utility.yul\":1193:1222   */\n      swap1\n      pop\n        /* \"#utility.yul\":1231:1264   */\n      tag_80\n        /* \"#utility.yul\":1258:1263   */\n      dup2\n        /* \"#utility.yul\":1231:1264   */\n      tag_53\n      jump\t// in\n    tag_80:\n        /* \"#utility.yul\":1131:1270   */\n      swap3\n      swap2\n      pop\n      pop\n      jump\t// out\n        /* \"#utility.yul\":1276:1605   */\n    tag_18:\n        /* \"#utility.yul\":1335:1341   */\n      0x00\n        /* \"#utility.yul\":1384:1386   */\n      0x20\n        /* \"#utility.yul\":1372:1381   */\n      dup3\n        /* \"#utility.yul\":1363:1370   */\n      dup5\n        /* \"#utility.yul\":1359:1382   */\n      sub\n        /* \"#utility.yul\":1355:1387   */\n      slt\n        /* \"#utility.yul\":1352:1471   */\n      iszero\n      tag_82\n      jumpi\n        /* \"#utility.yul\":1390:1469   */\n      tag_83\n      tag_49\n      jump\t// in\n    tag_83:\n        /* \"#utility.yul\":1352:1471   */\n    tag_82:\n        /* \"#utility.yul\":1510:1511   */\n      0x00\n        /* \"#utility.yul\":1535:1588   */\n      tag_84\n        /* \"#utility.yul\":1580:1587   */\n      dup5\n        /* \"#utility.yul\":1571:1577   */\n      dup3\n        /* \"#utility.yul\":1560:1569   */\n      dup6\n        /* \"#utility.yul\":1556:1578   */\n      add\n        /* \"#utility.yul\":1535:1588   */\n      tag_54\n      jump\t// in\n    tag_84:\n        /* \"#utility.yul\":1525:1588   */\n      swap2\n      pop\n        /* \"#utility.yul\":1481:1598   */\n      pop\n        /* \"#utility.yul\":1276:1605   */\n      swap3\n      swap2\n      pop\n      pop\n      jump\t// out\n        /* \"#utility.yul\":1611:1701   */\n    tag_55:\n        /* \"#utility.yul\":1645:1652   */\n      0x00\n        /* \"#utility.yul\":1688:1693   */\n      dup2\n        /* \"#utility.yul\":1681:1694   */\n      iszero\n        /* \"#utility.yul\":1674:1695   */\n      iszero\n        /* \"#utility.yul\":1663:1695   */\n      swap1\n      pop\n        /* \"#utility.yul\":1611:1701   */\n      swap2\n      swap1\n      pop\n      jump\t// out\n        /* \"#utility.yul\":1707:1816   */\n    tag_56:\n        /* \"#utility.yul\":1788:1809   */\n      tag_87\n        /* \"#utility.yul\":1803:1808   */\n      dup2\n        /* \"#utility.yul\":1788:1809   */\n      tag_55\n      jump\t// in\n    tag_87:\n        /* \"#utility.yul\":1783:1786   */\n      dup3\n        /* \"#utility.yul\":1776:1810   */\n      mstore\n        /* \"#utility.yul\":1707:1816   */\n      pop\n      pop\n      jump\t// out\n        /* \"#utility.yul\":1822:2032   */\n    tag_23:\n        /* \"#utility.yul\":1909:1913   */\n      0x00\n        /* \"#utility.yul\":1947:1949   */\n      0x20\n        /* \"#utility.yul\":1936:1945   */\n      dup3\n        /* \"#utility.yul\":1932:1950   */\n      add\n        /* \"#utility.yul\":1924:1950   */\n      swap1\n      pop\n        /* \"#utility.yul\":1960:2025   */\n      tag_89\n        /* \"#utility.yul\":2022:2023   */\n      0x00\n        /* \"#utility.yul\":2011:2020   */\n      dup4\n        /* \"#utility.yul\":2007:2024   */\n      add\n        /* \"#utility.yul\":1998:2004   */\n      dup5\n        /* \"#utility.yul\":1960:2025   */\n      tag_56\n      jump\t// in\n    tag_89:\n        /* \"#utility.yul\":1822:2032   */\n      swap3\n      swap2\n      pop\n      pop\n      jump\t// out\n        /* \"#utility.yul\":2038:2114   */\n    tag_57:\n        /* \"#utility.yul\":2074:2081   */\n      0x00\n        /* \"#utility.yul\":2103:2108   */\n      dup2\n        /* \"#utility.yul\":2092:2108   */\n      swap1\n      pop\n        /* \"#utility.yul\":2038:2114   */\n      swap2\n      swap1\n      pop\n      jump\t// out\n        /* \"#utility.yul\":2120:2235   */\n    tag_58:\n        /* \"#utility.yul\":2205:2228   */\n      tag_92\n        /* \"#utility.yul\":2222:2227   */\n      dup2\n        /* \"#utility.yul\":2205:2228   */\n      tag_57\n      jump\t// in\n    tag_92:\n        /* \"#utility.yul\":2200:2203   */\n      dup3\n        /* \"#utility.yul\":2193:2229   */\n      mstore\n        /* \"#utility.yul\":2120:2235   */\n      pop\n      pop\n      jump\t// out\n        /* \"#utility.yul\":2241:2459   */\n    tag_29:\n        /* \"#utility.yul\":2332:2336   */\n      0x00\n        /* \"#utility.yul\":2370:2372   */\n      0x20\n        /* \"#utility.yul\":2359:2368   */\n      dup3\n        /* \"#utility.yul\":2355:2373   */\n      add\n        /* \"#utility.yul\":2347:2373   */\n      swap1\n      pop\n        /* \"#utility.yul\":2383:2452   */\n      tag_94\n        /* \"#utility.yul\":2449:2450   */\n      0x00\n        /* \"#utility.yul\":2438:2447   */\n      dup4\n        /* \"#utility.yul\":2434:2451   */\n      add\n        /* \"#utility.yul\":2425:2431   */\n      dup5\n        /* \"#utility.yul\":2383:2452   */\n      tag_58\n      jump\t// in\n    tag_94:\n        /* \"#utility.yul\":2241:2459   */\n      swap3\n      swap2\n      pop\n      pop\n      jump\t// out\n        /* \"#utility.yul\":2465:2587   */\n    tag_59:\n        /* \"#utility.yul\":2538:2562   */\n      tag_96\n        /* \"#utility.yul\":2556:2561   */\n      dup2\n        /* \"#utility.yul\":2538:2562   */\n      tag_46\n      jump\t// in\n    tag_96:\n        /* \"#utility.yul\":2531:2536   */\n      dup2\n        /* \"#utility.yul\":2528:2563   */\n      eq\n        /* \"#utility.yul\":2518:2581   */\n      tag_97\n      jumpi\n        /* \"#utility.yul\":2577:2578   */\n      0x00\n        /* \"#utility.yul\":2574:2575   */\n      0x00\n        /* \"#utility.yul\":2567:2579   */\n      revert\n        /* \"#utility.yul\":2518:2581   */\n    tag_97:\n        /* \"#utility.yul\":2465:2587   */\n      pop\n      jump\t// out\n        /* \"#utility.yul\":2593:2732   */\n    tag_60:\n        /* \"#utility.yul\":2639:2644   */\n      0x00\n        /* \"#utility.yul\":2677:2683   */\n      dup2\n        /* \"#utility.yul\":2664:2684   */\n      calldataload\n        /* \"#utility.yul\":2655:2684   */\n      swap1\n      pop\n        /* \"#utility.yul\":2693:2726   */\n      tag_99\n        /* \"#utility.yul\":2720:2725   */\n      dup2\n        /* \"#utility.yul\":2693:2726   */\n      tag_59\n      jump\t// in\n    tag_99:\n        /* \"#utility.yul\":2593:2732   */\n      swap3\n      swap2\n      pop\n      pop\n      jump\t// out\n        /* \"#utility.yul\":2738:3067   */\n    tag_32:\n        /* \"#utility.yul\":2797:2803   */\n      0x00\n        /* \"#utility.yul\":2846:2848   */\n      0x20\n        /* \"#utility.yul\":2834:2843   */\n      dup3\n        /* \"#utility.yul\":2825:2832   */\n      dup5\n        /* \"#utility.yul\":2821:2844   */\n      sub\n        /* \"#utility.yul\":2817:2849   */\n      slt\n        /* \"#utility.yul\":2814:2933   */\n      iszero\n      tag_101\n      jumpi\n        /* \"#utility.yul\":2852:2931   */\n      tag_102\n      tag_49\n      jump\t// in\n    tag_102:\n        /* \"#utility.yul\":2814:2933   */\n    tag_101:\n        /* \"#utility.yul\":2972:2973   */\n      0x00\n        /* \"#utility.yul\":2997:3050   */\n      tag_103\n        /* \"#utility.yul\":3042:3049   */\n      dup5\n        /* \"#utility.yul\":3033:3039   */\n      dup3\n        /* \"#utility.yul\":3022:3031   */\n      dup6\n        /* \"#utility.yul\":3018:3040   */\n      add\n        /* \"#utility.yul\":2997:3050   */\n      tag_60\n      jump\t// in\n    tag_103:\n        /* \"#utility.yul\":2987:3050   */\n      swap2\n      pop\n        /* \"#utility.yul\":2943:3060   */\n      pop\n        /* \"#utility.yul\":2738:3067   */\n      swap3\n      swap2\n      pop\n      pop\n      jump\t// out\n        /* \"#utility.yul\":3073:3193   */\n    tag_61:\n        /* \"#utility.yul\":3145:3168   */\n      tag_105\n        /* \"#utility.yul\":3162:3167   */\n      dup2\n        /* \"#utility.yul\":3145:3168   */\n      tag_57\n      jump\t// in\n    tag_105:\n        /* \"#utility.yul\":3138:3143   */\n      dup2\n        /* \"#utility.yul\":3135:3169   */\n      eq\n        /* \"#utility.yul\":3125:3187   */\n      tag_106\n      jumpi\n        /* \"#utility.yul\":3183:3184   */\n      0x00\n        /* \"#utility.yul\":3180:3181   */\n      0x00\n        /* \"#utility.yul\":3173:3185   */\n      revert\n        /* \"#utility.yul\":3125:3187   */\n    tag_106:\n        /* \"#utility.yul\":3073:3193   */\n      pop\n      jump\t// out\n        /* \"#utility.yul\":3199:3336   */\n    tag_62:\n        /* \"#utility.yul\":3244:3249   */\n      0x00\n        /* \"#utility.yul\":3282:3288   */\n      dup2\n        /* \"#utility.yul\":3269:3289   */\n      calldataload\n        /* \"#utility.yul\":3260:3289   */\n      swap1\n      pop\n        /* \"#utility.yul\":3298:3330   */\n      tag_108\n        /* \"#utility.yul\":3324:3329   */\n      dup2\n        /* \"#utility.yul\":3298:3330   */\n      tag_61\n      jump\t// in\n    tag_108:\n        /* \"#utility.yul\":3199:3336   */\n      swap3\n      swap2\n      pop\n      pop\n      jump\t// out\n        /* \"#utility.yul\":3342:3669   */\n    tag_36:\n        /* \"#utility.yul\":3400:3406   */\n      0x00\n        /* \"#utility.yul\":3449:3451   */\n      0x20\n        /* \"#utility.yul\":3437:3446   */\n      dup3\n        /* \"#utility.yul\":3428:3435   */\n      dup5\n        /* \"#utility.yul\":3424:3447   */\n      sub\n        /* \"#utility.yul\":3420:3452   */\n      slt\n        /* \"#utility.yul\":3417:3536   */\n      iszero\n      tag_110\n      jumpi\n        /* \"#utility.yul\":3455:3534   */\n      tag_111\n      tag_49\n      jump\t// in\n    tag_111:\n        /* \"#utility.yul\":3417:3536   */\n    tag_110:\n        /* \"#utility.yul\":3575:3576   */\n      0x00\n        /* \"#utility.yul\":3600:3652   */\n      tag_112\n        /* \"#utility.yul\":3644:3651   */\n      dup5\n        /* \"#utility.yul\":3635:3641   */\n      dup3\n        /* \"#utility.yul\":3624:3633   */\n      dup6\n        /* \"#utility.yul\":3620:3642   */\n      add\n        /* \"#utility.yul\":3600:3652   */\n      tag_62\n      jump\t// in\n    tag_112:\n        /* \"#utility.yul\":3590:3652   */\n      swap2\n      pop\n        /* \"#utility.yul\":3546:3662   */\n      pop\n        /* \"#utility.yul\":3342:3669   */\n      swap3\n      swap2\n      pop\n      pop\n      jump\t// out\n        /* \"#utility.yul\":3675:3793   */\n    tag_63:\n        /* \"#utility.yul\":3762:3786   */\n      tag_114\n        /* \"#utility.yul\":3780:3785   */\n      dup2\n        /* \"#utility.yul\":3762:3786   */\n      tag_52\n      jump\t// in\n    tag_114:\n        /* \"#utility.yul\":3757:3760   */\n      dup3\n        /* \"#utility.yul\":3750:3787   */\n      mstore\n        /* \"#utility.yul\":3675:3793   */\n      pop\n      pop\n      jump\t// out\n        /* \"#utility.yul\":3799:4021   */\n    tag_41:\n        /* \"#utility.yul\":3892:3896   */\n      0x00\n        /* \"#utility.yul\":3930:3932   */\n      0x20\n        /* \"#utility.yul\":3919:3928   */\n      dup3\n        /* \"#utility.yul\":3915:3933   */\n      add\n        /* \"#utility.yul\":3907:3933   */\n      swap1\n      pop\n        /* \"#utility.yul\":3943:4014   */\n      tag_116\n        /* \"#utility.yul\":4011:4012   */\n      0x00\n        /* \"#utility.yul\":4000:4009   */\n      dup4\n        /* \"#utility.yul\":3996:4013   */\n      add\n        /* \"#utility.yul\":3987:3993   */\n      dup5\n        /* \"#utility.yul\":3943:4014   */\n      tag_63\n      jump\t// in\n    tag_116:\n        /* \"#utility.yul\":3799:4021   */\n      swap3\n      swap2\n      pop\n      pop\n      jump\t// out\n\n    auxdata: 0xa264697066735822122029edbbff3c03525f03ebcda41ef4eb5efdbd6232ffdfbc81a9200b3e1c4c81ee64736f6c63430008210033\n}\n",
				"bytecode": {
					"linkReferences": {},
					"object": "6080604052348015600e575f5ffd5b5060645f819055507fffffffffffffffffffffffffffffffffffffffffffffffffffffffffffffffce600181905550600160025f6101000a81548160ff02191690831515021790555033600260016101000a81548173ffffffffffffffffffffffffffffffffffffffff021916908373ffffffffffffffffffffffffffffffffffffffff16021790555061044a806100a55f395ff3fe608060405234801561000f575f5ffd5b5060043610610086575f3560e01c80632cb777a6116100595780632cb777a6146100ec5780634ef65c3b1461010a578063747586b8146101265780638da5cb5b1461014257610086565b806306540f7e1461008a57806313af4035146100a857806322f3e2d4146100c457806329c68dc1146100e2575b5f5ffd5b610092610160565b60405161009f919061023c565b60405180910390f35b6100c260048036038101906100bd91906102b3565b610165565b005b6100cc6101a9565b6040516100d991906102f8565b60405180910390f35b6100ea6101bb565b005b6100f46101e5565b6040516101019190610329565b60405180910390f35b610124600480360381019061011f919061036c565b6101eb565b005b610140600480360381019061013b91906103c1565b6101f4565b005b61014a6101fe565b60405161015791906103fb565b60405180910390f35b5f5481565b80600260016101000a81548173ffffffffffffffffffffffffffffffffffffffff021916908373ffffffffffffffffffffffffffffffffffffffff16021790555050565b60025f9054906101000a900460ff1681565b60025f9054906101000a900460ff161560025f6101000a81548160ff021916908315150217905550565b60015481565b805f8190555050565b8060018190555050565b600260019054906101000a900473ffffffffffffffffffffffffffffffffffffffff1681565b5f819050919050565b61023681610224565b82525050565b5f60208201905061024f5f83018461022d565b92915050565b5f5ffd5b5f73ffffffffffffffffffffffffffffffffffffffff82169050919050565b5f61028282610259565b9050919050565b61029281610278565b811461029c575f5ffd5b50565b5f813590506102ad81610289565b92915050565b5f602082840312156102c8576102c7610255565b5b5f6102d58482850161029f565b91505092915050565b5f8115159050919050565b6102f2816102de565b82525050565b5f60208201905061030b5f8301846102e9565b92915050565b5f819050919050565b61032381610311565b82525050565b5f60208201905061033c5f83018461031a565b92915050565b61034b81610224565b8114610355575f5ffd5b50565b5f8135905061036681610342565b92915050565b5f6020828403121561038157610380610255565b5b5f61038e84828501610358565b91505092915050565b6103a081610311565b81146103aa575f5ffd5b50565b5f813590506103bb81610397565b92915050565b5f602082840312156103d6576103d5610255565b5b5f6103e3848285016103ad565b91505092915050565b6103f581610278565b82525050565b5f60208201905061040e5f8301846103ec565b9291505056fea264697066735822122029edbbff3c03525f03ebcda41ef4eb5efdbd6232ffdfbc81a9200b3e1c4c81ee64736f6c63430008210033",
					"opcodes": "PUSH1 0x80 PUSH1 0x40 MSTORE CALLVALUE DUP1 ISZERO PUSH1 0xE JUMPI PUSH0 PUSH0 REVERT JUMPDEST POP PUSH1 0x64 PUSH0 DUP2 SWAP1 SSTORE POP PUSH32 0xFFFFFFFFFFFFFFFFFFFFFFFFFFFFFFFFFFFFFFFFFFFFFFFFFFFFFFFFFFFFFFCE PUSH1 0x1 DUP2 SWAP1 SSTORE POP PUSH1 0x1 PUSH1 0x2 PUSH0 PUSH2 0x100 EXP DUP2 SLOAD DUP2 PUSH1 0xFF MUL NOT AND SWAP1 DUP4 ISZERO ISZERO MUL OR SWAP1 SSTORE POP CALLER PUSH1 0x2 PUSH1 0x1 PUSH2 0x100 EXP DUP2 SLOAD DUP2 PUSH20 0xFFFFFFFFFFFFFFFFFFFFFFFFFFFFFFFFFFFFFFFF MUL NOT AND SWAP1 DUP4 PUSH20 0xFFFFFFFFFFFFFFFFFFFFFFFFFFFFFFFFFFFFFFFF AND MUL OR SWAP1 SSTORE POP PUSH2 0x44A DUP1 PUSH2 0xA5 PUSH0 CODECOPY PUSH0 RETURN INVALID PUSH1 0x80 PUSH1 0x40 MSTORE CALLVALUE DUP1 ISZERO PUSH2 0xF JUMPI PUSH0 PUSH0 REVERT JUMPDEST POP PUSH1 0x4 CALLDATASIZE LT PUSH2 0x86 JUMPI PUSH0 CALLDATALOAD PUSH1 0xE0 SHR DUP1 PUSH4 0x2CB777A6 GT PUSH2 0x59 JUMPI DUP1 PUSH4 0x2CB777A6 EQ PUSH2 0xEC JUMPI DUP1 PUSH4 0x4EF65C3B EQ PUSH2 0x10A JUMPI DUP1 PUSH4 0x747586B8 EQ PUSH2 0x126 JUMPI DUP1 PUSH4 0x8DA5CB5B EQ PUSH2 0x142 JUMPI PUSH2 0x86 JUMP JUMPDEST DUP1 PUSH4 0x6540F7E EQ PUSH2 0x8A JUMPI DUP1 PUSH4 0x13AF4035 EQ PUSH2 0xA8 JUMPI DUP1 PUSH4 0x22F3E2D4 EQ PUSH2 0xC4 JUMPI DUP1 PUSH4 0x29C68DC1 EQ PUSH2 0xE2 JUMPI JUMPDEST PUSH0 PUSH0 REVERT JUMPDEST PUSH2 0x92 PUSH2 0x160 JUMP JUMPDEST PUSH1 0x40 MLOAD PUSH2 0x9F SWAP2 SWAP1 PUSH2 0x23C JUMP JUMPDEST PUSH1 0x40 MLOAD DUP1 SWAP2 SUB SWAP1 RETURN JUMPDEST PUSH2 0xC2 PUSH1 0x4 DUP1 CALLDATASIZE SUB DUP2 ADD SWAP1 PUSH2 0xBD SWAP2 SWAP1 PUSH2 0x2B3 JUMP JUMPDEST PUSH2 0x165 JUMP JUMPDEST STOP JUMPDEST PUSH2 0xCC PUSH2 0x1A9 JUMP JUMPDEST PUSH1 0x40 MLOAD PUSH2 0xD9 SWAP2 SWAP1 PUSH2 0x2F8 JUMP JUMPDEST PUSH1 0x40 MLOAD DUP1 SWAP2 SUB SWAP1 RETURN JUMPDEST PUSH2 0xEA PUSH2 0x1BB JUMP JUMPDEST STOP JUMPDEST PUSH2 0xF4 PUSH2 0x1E5 JUMP JUMPDEST PUSH1 0x40 MLOAD PUSH2 0x101 SWAP2 SWAP1 PUSH2 0x329 JUMP JUMPDEST PUSH1 0x40 MLOAD DUP1 SWAP2 SUB SWAP1 RETURN JUMPDEST PUSH2 0x124 PUSH1 0x4 DUP1 CALLDATASIZE SUB DUP2 ADD SWAP1 PUSH2 0x11F SWAP2 SWAP1 PUSH2 0x36C JUMP JUMPDEST PUSH2 0x1EB JUMP JUMPDEST STOP JUMPDEST PUSH2 0x140 PUSH1 0x4 DUP1 CALLDATASIZE SUB DUP2 ADD SWAP1 PUSH2 0x13B SWAP2 SWAP1 PUSH2 0x3C1 JUMP JUMPDEST PUSH2 0x1F4 JUMP JUMPDEST STOP JUMPDEST PUSH2 0x14A PUSH2 0x1FE JUMP JUMPDEST PUSH1 0x40 MLOAD PUSH2 0x157 SWAP2 SWAP1 PUSH2 0x3FB JUMP JUMPDEST PUSH1 0x40 MLOAD DUP1 SWAP2 SUB SWAP1 RETURN JUMPDEST PUSH0 SLOAD DUP2 JUMP JUMPDEST DUP1 PUSH1 0x2 PUSH1 0x1 PUSH2 0x100 EXP DUP2 SLOAD DUP2 PUSH20 0xFFFFFFFFFFFFFFFFFFFFFFFFFFFFFFFFFFFFFFFF MUL NOT AND SWAP1 DUP4 PUSH20 0xFFFFFFFFFFFFFFFFFFFFFFFFFFFFFFFFFFFFFFFF AND MUL OR SWAP1 SSTORE POP POP JUMP JUMPDEST PUSH1 0x2 PUSH0 SWAP1 SLOAD SWAP1 PUSH2 0x100 EXP SWAP1 DIV PUSH1 0xFF AND DUP2 JUMP JUMPDEST PUSH1 0x2 PUSH0 SWAP1 SLOAD SWAP1 PUSH2 0x100 EXP SWAP1 DIV PUSH1 0xFF AND ISZERO PUSH1 0x2 PUSH0 PUSH2 0x100 EXP DUP2 SLOAD DUP2 PUSH1 0xFF MUL NOT AND SWAP1 DUP4 ISZERO ISZERO MUL OR SWAP1 SSTORE POP JUMP JUMPDEST PUSH1 0x1 SLOAD DUP2 JUMP JUMPDEST DUP1 PUSH0 DUP2 SWAP1 SSTORE POP POP JUMP JUMPDEST DUP1 PUSH1 0x1 DUP2 SWAP1 SSTORE POP POP JUMP JUMPDEST PUSH1 0x2 PUSH1 0x1 SWAP1 SLOAD SWAP1 PUSH2 0x100 EXP SWAP1 DIV PUSH20 0xFFFFFFFFFFFFFFFFFFFFFFFFFFFFFFFFFFFFFFFF AND DUP2 JUMP JUMPDEST PUSH0 DUP2 SWAP1 POP SWAP2 SWAP1 POP JUMP JUMPDEST PUSH2 0x236 DUP2 PUSH2 0x224 JUMP JUMPDEST DUP3 MSTORE POP POP JUMP JUMPDEST PUSH0 PUSH1 0x20 DUP3 ADD SWAP1 POP PUSH2 0x24F PUSH0 DUP4 ADD DUP5 PUSH2 0x22D JUMP JUMPDEST SWAP3 SWAP2 POP POP JUMP JUMPDEST PUSH0 PUSH0 REVERT JUMPDEST PUSH0 PUSH20 0xFFFFFFFFFFFFFFFFFFFFFFFFFFFFFFFFFFFFFFFF DUP3 AND SWAP1 POP SWAP2 SWAP1 POP JUMP JUMPDEST PUSH0 PUSH2 0x282 DUP3 PUSH2 0x259 JUMP JUMPDEST SWAP1 POP SWAP2 SWAP1 POP JUMP JUMPDEST PUSH2 0x292 DUP2 PUSH2 0x278 JUMP JUMPDEST DUP2 EQ PUSH2 0x29C JUMPI PUSH0 PUSH0 REVERT JUMPDEST POP JUMP JUMPDEST PUSH0 DUP2 CALLDATALOAD SWAP1 POP PUSH2 0x2AD DUP2 PUSH2 0x289 JUMP JUMPDEST SWAP3 SWAP2 POP POP JUMP JUMPDEST PUSH0 PUSH1 0x20 DUP3 DUP5 SUB SLT ISZERO PUSH2 0x2C8 JUMPI PUSH2 0x2C7 PUSH2 0x255 JUMP JUMPDEST JUMPDEST PUSH0 PUSH2 0x2D5 DUP5 DUP3 DUP6 ADD PUSH2 0x29F JUMP JUMPDEST SWAP2 POP POP SWAP3 SWAP2 POP POP JUMP JUMPDEST PUSH0 DUP2 ISZERO ISZERO SWAP1 POP SWAP2 SWAP1 POP JUMP JUMPDEST PUSH2 0x2F2 DUP2 PUSH2 0x2DE JUMP JUMPDEST DUP3 MSTORE POP POP JUMP JUMPDEST PUSH0 PUSH1 0x20 DUP3 ADD SWAP1 POP PUSH2 0x30B PUSH0 DUP4 ADD DUP5 PUSH2 0x2E9 JUMP JUMPDEST SWAP3 SWAP2 POP POP JUMP JUMPDEST PUSH0 DUP2 SWAP1 POP SWAP2 SWAP1 POP JUMP JUMPDEST PUSH2 0x323 DUP2 PUSH2 0x311 JUMP JUMPDEST DUP3 MSTORE POP POP JUMP JUMPDEST PUSH0 PUSH1 0x20 DUP3 ADD SWAP1 POP PUSH2 0x33C PUSH0 DUP4 ADD DUP5 PUSH2 0x31A JUMP JUMPDEST SWAP3 SWAP2 POP POP JUMP JUMPDEST PUSH2 0x34B DUP2 PUSH2 0x224 JUMP JUMPDEST DUP2 EQ PUSH2 0x355 JUMPI PUSH0 PUSH0 REVERT JUMPDEST POP JUMP JUMPDEST PUSH0 DUP2 CALLDATALOAD SWAP1 POP PUSH2 0x366 DUP2 PUSH2 0x342 JUMP JUMPDEST SWAP3 SWAP2 POP POP JUMP JUMPDEST PUSH0 PUSH1 0x20 DUP3 DUP5 SUB SLT ISZERO PUSH2 0x381 JUMPI PUSH2 0x380 PUSH2 0x255 JUMP JUMPDEST JUMPDEST PUSH0 PUSH2 0x38E DUP5 DUP3 DUP6 ADD PUSH2 0x358 JUMP JUMPDEST SWAP2 POP POP SWAP3 SWAP2 POP POP JUMP JUMPDEST PUSH2 0x3A0 DUP2 PUSH2 0x311 JUMP JUMPDEST DUP2 EQ PUSH2 0x3AA JUMPI PUSH0 PUSH0 REVERT JUMPDEST POP JUMP JUMPDEST PUSH0 DUP2 CALLDATALOAD SWAP1 POP PUSH2 0x3BB DUP2 PUSH2 0x397 JUMP JUMPDEST SWAP3 SWAP2 POP POP JUMP JUMPDEST PUSH0 PUSH1 0x20 DUP3 DUP5 SUB SLT ISZERO PUSH2 0x3D6 JUMPI PUSH2 0x3D5 PUSH2 0x255 JUMP JUMPDEST JUMPDEST PUSH0 PUSH2 0x3E3 DUP5 DUP3 DUP6 ADD PUSH2 0x3AD JUMP JUMPDEST SWAP2 POP POP SWAP3 SWAP2 POP POP JUMP JUMPDEST PUSH2 0x3F5 DUP2 PUSH2 0x278 JUMP JUMPDEST DUP3 MSTORE POP POP JUMP JUMPDEST PUSH0 PUSH1 0x20 DUP3 ADD SWAP1 POP PUSH2 0x40E PUSH0 DUP4 ADD DUP5 PUSH2 0x3EC JUMP JUMPDEST SWAP3 SWAP2 POP POP JUMP INVALID LOG2 PUSH5 0x6970667358 0x22 SLT KECCAK256 0x29 0xED 0xBB SELFDESTRUCT EXTCODECOPY SUB MSTORE PUSH0 SUB 0xEB 0xCD LOG4 CLZ DELEGATECALL 0xEB MCOPY REVERT 0xBD PUSH3 0x32FFDF 0xBC DUP2 0xA9 KECCAK256 SIGNEXTEND RETURNDATACOPY SHR 0x4C DUP2 RETURNCONTRACT 0x64 PUSH20 0x6F6C634300082100330000000000000000000000 "
				},
				"gasEstimates": {
					"creation": {
						"codeDepositCost": "219600",
						"executionCost": "93070",
						"totalCost": "312670"
					},
					"external": {
						"isActive()": "2511",
						"myInt()": "2425",
						"myUint()": "2425",
						"owner()": "2625",
						"setInt(int256)": "22559",
						"setOwner(address)": "24789",
						"setUint(uint256)": "22536",
						"toggleActive()": "26614"
					}
				},
				"methodIdentifiers": {
					"isActive()": "22f3e2d4",
					"myInt()": "2cb777a6",
					"myUint()": "06540f7e",
					"owner()": "8da5cb5b",
					"setInt(int256)": "747586b8",
					"setOwner(address)": "13af4035",
					"setUint(uint256)": "4ef65c3b",
					"toggleActive()": "29c68dc1"
				}
			},
			"storageLayout": {
				"storage": [
					{
						"astId": 4,
						"contract": "day2.sol:ValueTypes",
						"label": "myUint",
						"offset": 0,
						"slot": "0",
						"type": "t_uint256"
					},
					{
						"astId": 6,
						"contract": "day2.sol:ValueTypes",
						"label": "myInt",
						"offset": 0,
						"slot": "1",
						"type": "t_int256"
					},
					{
						"astId": 8,
						"contract": "day2.sol:ValueTypes",
						"label": "isActive",
						"offset": 0,
						"slot": "2",
						"type": "t_bool"
					},
					{
						"astId": 10,
						"contract": "day2.sol:ValueTypes",
						"label": "owner",
						"offset": 1,
						"slot": "2",
						"type": "t_address"
					}
				],
				"types": {
					"t_address": {
						"encoding": "inplace",
						"label": "address",
						"numberOfBytes": "20"
					},
					"t_bool": {
						"encoding": "inplace",
						"label": "bool",
						"numberOfBytes": "1"
					},
					"t_int256": {
						"encoding": "inplace",
						"label": "int256",
						"numberOfBytes": "32"
					},
					"t_uint256": {
						"encoding": "inplace",
						"label": "uint256",
						"numberOfBytes": "32"
					}
				}
			},
			"userdoc": {
				"kind": "user",
				"methods": {},
				"notice": "Practice working with uint, int, bool, and address",
				"version": 1
			}
		}
	}
}