{
	"W3day1.sol": {
		"NestedStruct": {
			"abi": [
				{
					"inputs": [],
					"name": "Deposit",
					"outputs": [],
					"stateMutability": "payable",
					"type": "function"
				},
				{
					"inputs": [
						{
							"internalType": "string",
							"name": "username",
							"type": "string"
						}
					],
					"name": "Register",
					"outputs": [],
					"stateMutability": "nonpayable",
					"type": "function"
				},
				{
					"inputs": [
						{
							"internalType": "address",
							"name": "user",
							"type": "address"
						}
					],
					"name": "frozeProfile",
					"outputs": [],
					"stateMutability": "nonpayable",
					"type": "function"
				},
				{
					"inputs": [
						{
							"internalType": "address",
							"name": "user",
							"type": "address"
						}
					],
					"name": "getBalance",
					"outputs": [],
					"stateMutability": "view",
					"type": "function"
				},
				{
					"inputs": [
						{
							"internalType": "address",
							"name": "",
							"type": "address"
						}
					],
					"name": "users",
					"outputs": [
						{
							"components": [
								{
									"internalType": "uint256",
									"name": "balance",
									"type": "uint256"
								},
								{
									"internalType": "uint256",
									"name": "lastDeposit",
									"type": "uint256"
								}
							],
							"internalType": "struct NestedStruct.Wallet",
							"name": "wallet",
							"type": "tuple"
						},
						{
							"components": [
								{
									"internalType": "bool",
									"name": "twoFAenabled",
									"type": "bool"
								},
								{
									"internalType": "bool",
									"name": "isFrozen",
									"type": "bool"
								}
							],
							"internalType": "struct NestedStruct.Security",
							"name": "security",
							"type": "tuple"
						},
						{
							"components": [
								{
									"internalType": "string",
									"name": "username",
									"type": "string"
								},
								{
									"internalType": "uint256",
									"name": "createdAt",
									"type": "uint256"
								}
							],
							"internalType": "struct NestedStruct.Profile",
							"name": "profile",
							"type": "tuple"
						}
					],
					"stateMutability": "view",
					"type": "function"
				}
			],
			"devdoc": {
				"kind": "dev",
				"methods": {},
				"version": 1
			},
			"evm": {
				"assembly": "    /* \"W3day1.sol\":61:1265  contract NestedStruct{... */\n  mstore(0x40, 0x80)\n  callvalue\n  dup1\n  iszero\n  tag_1\n  jumpi\n  revert(0x00, 0x00)\ntag_1:\n  pop\n  dataSize(sub_0)\n  dup1\n  dataOffset(sub_0)\n  0x00\n  codecopy\n  0x00\n  return\nstop\n\nsub_0: assembly {\n        /* \"W3day1.sol\":61:1265  contract NestedStruct{... */\n      mstore(0x40, 0x80)\n      jumpi(tag_1, lt(calldatasize, 0x04))\n      shr(0xe0, calldataload(0x00))\n      dup1\n      0x40b2d3af\n      eq\n      tag_2\n      jumpi\n      dup1\n      0xa87430ba\n      eq\n      tag_3\n      jumpi\n      dup1\n      0xad14deb1\n      eq\n      tag_4\n      jumpi\n      dup1\n      0xed21248c\n      eq\n      tag_5\n      jumpi\n      dup1\n      0xf8b2cb4f\n      eq\n      tag_6\n      jumpi\n    tag_1:\n      revert(0x00, 0x00)\n        /* \"W3day1.sol\":496:741  function Register(string memory username) public{... */\n    tag_2:\n      callvalue\n      dup1\n      iszero\n      tag_7\n      jumpi\n      revert(0x00, 0x00)\n    tag_7:\n      pop\n      tag_8\n      0x04\n      dup1\n      calldatasize\n      sub\n      dup2\n      add\n      swap1\n      tag_9\n      swap2\n      swap1\n      tag_10\n      jump\t// in\n    tag_9:\n      tag_11\n      jump\t// in\n    tag_8:\n      stop\n        /* \"W3day1.sol\":450:487  mapping(address => User) public users */\n    tag_3:\n      callvalue\n      dup1\n      iszero\n      tag_12\n      jumpi\n      revert(0x00, 0x00)\n    tag_12:\n      pop\n      tag_13\n      0x04\n      dup1\n      calldatasize\n      sub\n      dup2\n      add\n      swap1\n      tag_14\n      swap2\n      swap1\n      tag_15\n      jump\t// in\n    tag_14:\n      tag_16\n      jump\t// in\n    tag_13:\n      mload(0x40)\n      tag_17\n      swap4\n      swap3\n      swap2\n      swap1\n      tag_18\n      jump\t// in\n    tag_17:\n      mload(0x40)\n      dup1\n      swap2\n      sub\n      swap1\n      return\n        /* \"W3day1.sol\":1164:1262  function frozeProfile(address user) public {... */\n    tag_4:\n      callvalue\n      dup1\n      iszero\n      tag_19\n      jumpi\n      revert(0x00, 0x00)\n    tag_19:\n      pop\n      tag_20\n      0x04\n      dup1\n      calldatasize\n      sub\n      dup2\n      add\n      swap1\n      tag_21\n      swap2\n      swap1\n      tag_15\n      jump\t// in\n    tag_21:\n      tag_22\n      jump\t// in\n    tag_20:\n      stop\n        /* \"W3day1.sol\":749:1057  function Deposit() public payable{... */\n    tag_5:\n      tag_23\n      tag_24\n      jump\t// in\n    tag_23:\n      stop\n        /* \"W3day1.sol\":1065:1156  function getBalance(address user) public view {... */\n    tag_6:\n      callvalue\n      dup1\n      iszero\n      tag_25\n      jumpi\n      revert(0x00, 0x00)\n    tag_25:\n      pop\n      tag_26\n      0x04\n      dup1\n      calldatasize\n      sub\n      dup2\n      add\n      swap1\n      tag_27\n      swap2\n      swap1\n      tag_15\n      jump\t// in\n    tag_27:\n      tag_28\n      jump\t// in\n    tag_26:\n      stop\n        /* \"W3day1.sol\":496:741  function Register(string memory username) public{... */\n    tag_11:\n        /* \"W3day1.sol\":583:677  Profile({... */\n      mload(0x40)\n      dup1\n      0x40\n      add\n      0x40\n      mstore\n      dup1\n        /* \"W3day1.sol\":616:624  username */\n      dup3\n        /* \"W3day1.sol\":583:677  Profile({... */\n      dup2\n      mstore\n      0x20\n      add\n        /* \"W3day1.sol\":650:665  block.timestamp */\n      timestamp\n        /* \"W3day1.sol\":583:677  Profile({... */\n      dup2\n      mstore\n      pop\n        /* \"W3day1.sol\":555:560  users */\n      0x00\n        /* \"W3day1.sol\":555:572  users[msg.sender] */\n      0x00\n        /* \"W3day1.sol\":561:571  msg.sender */\n      caller\n        /* \"W3day1.sol\":555:572  users[msg.sender] */\n      0xffffffffffffffffffffffffffffffffffffffff\n      and\n      0xffffffffffffffffffffffffffffffffffffffff\n      and\n      dup2\n      mstore\n      0x20\n      add\n      swap1\n      dup2\n      mstore\n      0x20\n      add\n      0x00\n      keccak256\n        /* \"W3day1.sol\":555:580  users[msg.sender].profile */\n      0x03\n      add\n        /* \"W3day1.sol\":555:677  users[msg.sender].profile = Profile({... */\n      0x00\n      dup3\n      add\n      mload\n      dup2\n      0x00\n      add\n      swap1\n      dup2\n      tag_30\n      swap2\n      swap1\n      tag_31\n      jump\t// in\n    tag_30:\n      pop\n      0x20\n      dup3\n      add\n      mload\n      dup2\n      0x01\n      add\n      sstore\n      swap1\n      pop\n      pop\n        /* \"W3day1.sol\":728:733  false */\n      0x00\n        /* \"W3day1.sol\":690:695  users */\n      0x00\n        /* \"W3day1.sol\":690:707  users[msg.sender] */\n      0x00\n        /* \"W3day1.sol\":696:706  msg.sender */\n      caller\n        /* \"W3day1.sol\":690:707  users[msg.sender] */\n      0xffffffffffffffffffffffffffffffffffffffff\n      and\n      0xffffffffffffffffffffffffffffffffffffffff\n      and\n      dup2\n      mstore\n      0x20\n      add\n      swap1\n      dup2\n      mstore\n      0x20\n      add\n      0x00\n      keccak256\n        /* \"W3day1.sol\":690:716  users[msg.sender].security */\n      0x02\n      add\n        /* \"W3day1.sol\":690:725  users[msg.sender].security.isFrozen */\n      0x00\n      add\n      0x01\n        /* \"W3day1.sol\":690:733  users[msg.sender].security.isFrozen = false */\n      0x0100\n      exp\n      dup2\n      sload\n      dup2\n      0xff\n      mul\n      not\n      and\n      swap1\n      dup4\n      iszero\n      iszero\n      mul\n      or\n      swap1\n      sstore\n      pop\n        /* \"W3day1.sol\":496:741  function Register(string memory username) public{... */\n      pop\n      jump\t// out\n        /* \"W3day1.sol\":450:487  mapping(address => User) public users */\n    tag_16:\n      mstore(0x20, 0x00)\n      dup1\n      0x00\n      mstore\n      keccak256(0x00, 0x40)\n      0x00\n      swap2\n      pop\n      swap1\n      pop\n      dup1\n      0x00\n      add\n      mload(0x40)\n      dup1\n      0x40\n      add\n      0x40\n      mstore\n      swap1\n      dup2\n      0x00\n      dup3\n      add\n      sload\n      dup2\n      mstore\n      0x20\n      add\n      0x01\n      dup3\n      add\n      sload\n      dup2\n      mstore\n      pop\n      pop\n      swap1\n      dup1\n      0x02\n      add\n      mload(0x40)\n      dup1\n      0x40\n      add\n      0x40\n      mstore\n      swap1\n      dup2\n      0x00\n      dup3\n      add\n      0x00\n      swap1\n      sload\n      swap1\n      0x0100\n      exp\n      swap1\n      div\n      0xff\n      and\n      iszero\n      iszero\n      iszero\n      iszero\n      dup2\n      mstore\n      0x20\n      add\n      0x00\n      dup3\n      add\n      0x01\n      swap1\n      sload\n      swap1\n      0x0100\n      exp\n      swap1\n      div\n      0xff\n      and\n      iszero\n      iszero\n      iszero\n      iszero\n      dup2\n      mstore\n      pop\n      pop\n      swap1\n      dup1\n      0x03\n      add\n      mload(0x40)\n      dup1\n      0x40\n      add\n      0x40\n      mstore\n      swap1\n      dup2\n      0x00\n      dup3\n      add\n      dup1\n      sload\n      tag_32\n      swap1\n      tag_33\n      jump\t// in\n    tag_32:\n      dup1\n      0x1f\n      add\n      0x20\n      dup1\n      swap2\n      div\n      mul\n      0x20\n      add\n      mload(0x40)\n      swap1\n      dup2\n      add\n      0x40\n      mstore\n      dup1\n      swap3\n      swap2\n      swap1\n      dup2\n      dup2\n      mstore\n      0x20\n      add\n      dup3\n      dup1\n      sload\n      tag_34\n      swap1\n      tag_33\n      jump\t// in\n    tag_34:\n      dup1\n      iszero\n      tag_35\n      jumpi\n      dup1\n      0x1f\n      lt\n      tag_36\n      jumpi\n      0x0100\n      dup1\n      dup4\n      sload\n      div\n      mul\n      dup4\n      mstore\n      swap2\n      0x20\n      add\n      swap2\n      jump(tag_35)\n    tag_36:\n      dup3\n      add\n      swap2\n      swap1\n      0x00\n      mstore\n      keccak256(0x00, 0x20)\n      swap1\n    tag_37:\n      dup2\n      sload\n      dup2\n      mstore\n      swap1\n      0x01\n      add\n      swap1\n      0x20\n      add\n      dup1\n      dup4\n      gt\n      tag_37\n      jumpi\n      dup3\n      swap1\n      sub\n      0x1f\n      and\n      dup3\n      add\n      swap2\n    tag_35:\n      pop\n      pop\n      pop\n      pop\n      pop\n      dup2\n      mstore\n      0x20\n      add\n      0x01\n      dup3\n      add\n      sload\n      dup2\n      mstore\n      pop\n      pop\n      swap1\n      pop\n      dup4\n      jump\t// out\n        /* \"W3day1.sol\":1164:1262  function frozeProfile(address user) public {... */\n    tag_22:\n        /* \"W3day1.sol\":1250:1254  true */\n      0x01\n        /* \"W3day1.sol\":1218:1223  users */\n      0x00\n        /* \"W3day1.sol\":1218:1229  users[user] */\n      0x00\n        /* \"W3day1.sol\":1224:1228  user */\n      dup4\n        /* \"W3day1.sol\":1218:1229  users[user] */\n      0xffffffffffffffffffffffffffffffffffffffff\n      and\n      0xffffffffffffffffffffffffffffffffffffffff\n      and\n      dup2\n      mstore\n      0x20\n      add\n      swap1\n      dup2\n      mstore\n      0x20\n      add\n      0x00\n      keccak256\n        /* \"W3day1.sol\":1218:1238  users[user].security */\n      0x02\n      add\n        /* \"W3day1.sol\":1218:1247  users[user].security.isFrozen */\n      0x00\n      add\n      0x01\n        /* \"W3day1.sol\":1218:1254  users[user].security.isFrozen = true */\n      0x0100\n      exp\n      dup2\n      sload\n      dup2\n      0xff\n      mul\n      not\n      and\n      swap1\n      dup4\n      iszero\n      iszero\n      mul\n      or\n      swap1\n      sstore\n      pop\n        /* \"W3day1.sol\":1164:1262  function frozeProfile(address user) public {... */\n      pop\n      jump\t// out\n        /* \"W3day1.sol\":749:1057  function Deposit() public payable{... */\n    tag_24:\n        /* \"W3day1.sol\":840:845  false */\n      0x00\n        /* \"W3day1.sol\":801:845  users[msg.sender].security.isFrozen == false */\n      iszero\n      iszero\n        /* \"W3day1.sol\":801:806  users */\n      0x00\n        /* \"W3day1.sol\":801:818  users[msg.sender] */\n      0x00\n        /* \"W3day1.sol\":807:817  msg.sender */\n      caller\n        /* \"W3day1.sol\":801:818  users[msg.sender] */\n      0xffffffffffffffffffffffffffffffffffffffff\n      and\n      0xffffffffffffffffffffffffffffffffffffffff\n      and\n      dup2\n      mstore\n      0x20\n      add\n      swap1\n      dup2\n      mstore\n      0x20\n      add\n      0x00\n      keccak256\n        /* \"W3day1.sol\":801:827  users[msg.sender].security */\n      0x02\n      add\n        /* \"W3day1.sol\":801:836  users[msg.sender].security.isFrozen */\n      0x00\n      add\n      0x01\n      swap1\n      sload\n      swap1\n      0x0100\n      exp\n      swap1\n      div\n      0xff\n      and\n        /* \"W3day1.sol\":801:845  users[msg.sender].security.isFrozen == false */\n      iszero\n      iszero\n      eq\n        /* \"W3day1.sol\":793:867  require(users[msg.sender].security.isFrozen == false, \"Account is FROZEN\") */\n      tag_40\n      jumpi\n      mload(0x40)\n      0x08c379a000000000000000000000000000000000000000000000000000000000\n      dup2\n      mstore\n      0x04\n      add\n      tag_41\n      swap1\n      tag_42\n      jump\t// in\n    tag_41:\n      mload(0x40)\n      dup1\n      swap2\n      sub\n      swap1\n      revert\n    tag_40:\n        /* \"W3day1.sol\":898:899  0 */\n      0x00\n        /* \"W3day1.sol\":886:895  msg.value */\n      callvalue\n        /* \"W3day1.sol\":886:899  msg.value > 0 */\n      gt\n        /* \"W3day1.sol\":878:926  require(msg.value > 0, \"Deposit a valid amount\") */\n      tag_43\n      jumpi\n      mload(0x40)\n      0x08c379a000000000000000000000000000000000000000000000000000000000\n      dup2\n      mstore\n      0x04\n      add\n      tag_44\n      swap1\n      tag_45\n      jump\t// in\n    tag_44:\n      mload(0x40)\n      dup1\n      swap2\n      sub\n      swap1\n      revert\n    tag_43:\n        /* \"W3day1.sol\":975:984  msg.value */\n      callvalue\n        /* \"W3day1.sol\":939:944  users */\n      0x00\n        /* \"W3day1.sol\":939:956  users[msg.sender] */\n      0x00\n        /* \"W3day1.sol\":945:955  msg.sender */\n      caller\n        /* \"W3day1.sol\":939:956  users[msg.sender] */\n      0xffffffffffffffffffffffffffffffffffffffff\n      and\n      0xffffffffffffffffffffffffffffffffffffffff\n      and\n      dup2\n      mstore\n      0x20\n      add\n      swap1\n      dup2\n      mstore\n      0x20\n      add\n      0x00\n      keccak256\n        /* \"W3day1.sol\":939:963  users[msg.sender].wallet */\n      0x00\n      add\n        /* \"W3day1.sol\":939:971  users[msg.sender].wallet.balance */\n      0x00\n      add\n      0x00\n        /* \"W3day1.sol\":939:984  users[msg.sender].wallet.balance += msg.value */\n      dup3\n      dup3\n      sload\n      tag_46\n      swap2\n      swap1\n      tag_47\n      jump\t// in\n    tag_46:\n      swap3\n      pop\n      pop\n      dup2\n      swap1\n      sstore\n      pop\n        /* \"W3day1.sol\":1034:1049  block.timestamp */\n      timestamp\n        /* \"W3day1.sol\":995:1000  users */\n      0x00\n        /* \"W3day1.sol\":995:1012  users[msg.sender] */\n      0x00\n        /* \"W3day1.sol\":1001:1011  msg.sender */\n      caller\n        /* \"W3day1.sol\":995:1012  users[msg.sender] */\n      0xffffffffffffffffffffffffffffffffffffffff\n      and\n      0xffffffffffffffffffffffffffffffffffffffff\n      and\n      dup2\n      mstore\n      0x20\n      add\n      swap1\n      dup2\n      mstore\n      0x20\n      add\n      0x00\n      keccak256\n        /* \"W3day1.sol\":995:1019  users[msg.sender].wallet */\n      0x00\n      add\n        /* \"W3day1.sol\":995:1031  users[msg.sender].wallet.lastDeposit */\n      0x01\n      add\n        /* \"W3day1.sol\":995:1049  users[msg.sender].wallet.lastDeposit = block.timestamp */\n      dup2\n      swap1\n      sstore\n      pop\n        /* \"W3day1.sol\":749:1057  function Deposit() public payable{... */\n      jump\t// out\n        /* \"W3day1.sol\":1065:1156  function getBalance(address user) public view {... */\n    tag_28:\n        /* \"W3day1.sol\":1122:1127  users */\n      0x00\n        /* \"W3day1.sol\":1122:1133  users[user] */\n      0x00\n        /* \"W3day1.sol\":1128:1132  user */\n      dup3\n        /* \"W3day1.sol\":1122:1133  users[user] */\n      0xffffffffffffffffffffffffffffffffffffffff\n      and\n      0xffffffffffffffffffffffffffffffffffffffff\n      and\n      dup2\n      mstore\n      0x20\n      add\n      swap1\n      dup2\n      mstore\n      0x20\n      add\n      0x00\n      keccak256\n        /* \"W3day1.sol\":1122:1140  users[user].wallet */\n      pop\n        /* \"W3day1.sol\":1065:1156  function getBalance(address user) public view {... */\n      pop\n      jump\t// out\n        /* \"#utility.yul\":7:82   */\n    tag_49:\n        /* \"#utility.yul\":40:46   */\n      0x00\n        /* \"#utility.yul\":73:75   */\n      0x40\n        /* \"#utility.yul\":67:76   */\n      mload\n        /* \"#utility.yul\":57:76   */\n      swap1\n      pop\n        /* \"#utility.yul\":7:82   */\n      swap1\n      jump\t// out\n        /* \"#utility.yul\":88:205   */\n    tag_50:\n        /* \"#utility.yul\":197:198   */\n      0x00\n        /* \"#utility.yul\":194:195   */\n      0x00\n        /* \"#utility.yul\":187:199   */\n      revert\n        /* \"#utility.yul\":211:328   */\n    tag_51:\n        /* \"#utility.yul\":320:321   */\n      0x00\n        /* \"#utility.yul\":317:318   */\n      0x00\n        /* \"#utility.yul\":310:322   */\n      revert\n        /* \"#utility.yul\":334:451   */\n    tag_52:\n        /* \"#utility.yul\":443:444   */\n      0x00\n        /* \"#utility.yul\":440:441   */\n      0x00\n        /* \"#utility.yul\":433:445   */\n      revert\n        /* \"#utility.yul\":457:574   */\n    tag_53:\n        /* \"#utility.yul\":566:567   */\n      0x00\n        /* \"#utility.yul\":563:564   */\n      0x00\n        /* \"#utility.yul\":556:568   */\n      revert\n        /* \"#utility.yul\":580:682   */\n    tag_54:\n        /* \"#utility.yul\":621:627   */\n      0x00\n        /* \"#utility.yul\":672:674   */\n      0x1f\n        /* \"#utility.yul\":668:675   */\n      not\n        /* \"#utility.yul\":663:665   */\n      0x1f\n        /* \"#utility.yul\":656:661   */\n      dup4\n        /* \"#utility.yul\":652:666   */\n      add\n        /* \"#utility.yul\":648:676   */\n      and\n        /* \"#utility.yul\":638:676   */\n      swap1\n      pop\n        /* \"#utility.yul\":580:682   */\n      swap2\n      swap1\n      pop\n      jump\t// out\n        /* \"#utility.yul\":688:868   */\n    tag_55:\n        /* \"#utility.yul\":736:813   */\n      0x4e487b7100000000000000000000000000000000000000000000000000000000\n        /* \"#utility.yul\":733:734   */\n      0x00\n        /* \"#utility.yul\":726:814   */\n      mstore\n        /* \"#utility.yul\":833:837   */\n      0x41\n        /* \"#utility.yul\":830:831   */\n      0x04\n        /* \"#utility.yul\":823:838   */\n      mstore\n        /* \"#utility.yul\":857:861   */\n      0x24\n        /* \"#utility.yul\":854:855   */\n      0x00\n        /* \"#utility.yul\":847:862   */\n      revert\n        /* \"#utility.yul\":874:1155   */\n    tag_56:\n        /* \"#utility.yul\":957:984   */\n      tag_108\n        /* \"#utility.yul\":979:983   */\n      dup3\n        /* \"#utility.yul\":957:984   */\n      tag_54\n      jump\t// in\n    tag_108:\n        /* \"#utility.yul\":949:955   */\n      dup2\n        /* \"#utility.yul\":945:985   */\n      add\n        /* \"#utility.yul\":1087:1093   */\n      dup2\n        /* \"#utility.yul\":1075:1085   */\n      dup2\n        /* \"#utility.yul\":1072:1094   */\n      lt\n        /* \"#utility.yul\":1051:1069   */\n      0xffffffffffffffff\n        /* \"#utility.yul\":1039:1049   */\n      dup3\n        /* \"#utility.yul\":1036:1070   */\n      gt\n        /* \"#utility.yul\":1033:1095   */\n      or\n        /* \"#utility.yul\":1030:1118   */\n      iszero\n      tag_109\n      jumpi\n        /* \"#utility.yul\":1098:1116   */\n      tag_110\n      tag_55\n      jump\t// in\n    tag_110:\n        /* \"#utility.yul\":1030:1118   */\n    tag_109:\n        /* \"#utility.yul\":1138:1148   */\n      dup1\n        /* \"#utility.yul\":1134:1136   */\n      0x40\n        /* \"#utility.yul\":1127:1149   */\n      mstore\n        /* \"#utility.yul\":917:1155   */\n      pop\n        /* \"#utility.yul\":874:1155   */\n      pop\n      pop\n      jump\t// out\n        /* \"#utility.yul\":1161:1290   */\n    tag_57:\n        /* \"#utility.yul\":1195:1201   */\n      0x00\n        /* \"#utility.yul\":1222:1242   */\n      tag_112\n      tag_49\n      jump\t// in\n    tag_112:\n        /* \"#utility.yul\":1212:1242   */\n      swap1\n      pop\n        /* \"#utility.yul\":1251:1284   */\n      tag_113\n        /* \"#utility.yul\":1279:1283   */\n      dup3\n        /* \"#utility.yul\":1271:1277   */\n      dup3\n        /* \"#utility.yul\":1251:1284   */\n      tag_56\n      jump\t// in\n    tag_113:\n        /* \"#utility.yul\":1161:1290   */\n      swap2\n      swap1\n      pop\n      jump\t// out\n        /* \"#utility.yul\":1296:1604   */\n    tag_58:\n        /* \"#utility.yul\":1358:1362   */\n      0x00\n        /* \"#utility.yul\":1448:1466   */\n      0xffffffffffffffff\n        /* \"#utility.yul\":1440:1446   */\n      dup3\n        /* \"#utility.yul\":1437:1467   */\n      gt\n        /* \"#utility.yul\":1434:1490   */\n      iszero\n      tag_115\n      jumpi\n        /* \"#utility.yul\":1470:1488   */\n      tag_116\n      tag_55\n      jump\t// in\n    tag_116:\n        /* \"#utility.yul\":1434:1490   */\n    tag_115:\n        /* \"#utility.yul\":1508:1537   */\n      tag_117\n        /* \"#utility.yul\":1530:1536   */\n      dup3\n        /* \"#utility.yul\":1508:1537   */\n      tag_54\n      jump\t// in\n    tag_117:\n        /* \"#utility.yul\":1500:1537   */\n      swap1\n      pop\n        /* \"#utility.yul\":1592:1596   */\n      0x20\n        /* \"#utility.yul\":1586:1590   */\n      dup2\n        /* \"#utility.yul\":1582:1597   */\n      add\n        /* \"#utility.yul\":1574:1597   */\n      swap1\n      pop\n        /* \"#utility.yul\":1296:1604   */\n      swap2\n      swap1\n      pop\n      jump\t// out\n        /* \"#utility.yul\":1610:1758   */\n    tag_59:\n        /* \"#utility.yul\":1708:1714   */\n      dup3\n        /* \"#utility.yul\":1703:1706   */\n      dup2\n        /* \"#utility.yul\":1698:1701   */\n      dup4\n        /* \"#utility.yul\":1685:1715   */\n      calldatacopy\n        /* \"#utility.yul\":1749:1750   */\n      0x00\n        /* \"#utility.yul\":1740:1746   */\n      dup4\n        /* \"#utility.yul\":1735:1738   */\n      dup4\n        /* \"#utility.yul\":1731:1747   */\n      add\n        /* \"#utility.yul\":1724:1751   */\n      mstore\n        /* \"#utility.yul\":1610:1758   */\n      pop\n      pop\n      pop\n      jump\t// out\n        /* \"#utility.yul\":1764:2189   */\n    tag_60:\n        /* \"#utility.yul\":1842:1847   */\n      0x00\n        /* \"#utility.yul\":1867:1933   */\n      tag_120\n        /* \"#utility.yul\":1883:1932   */\n      tag_121\n        /* \"#utility.yul\":1925:1931   */\n      dup5\n        /* \"#utility.yul\":1883:1932   */\n      tag_58\n      jump\t// in\n    tag_121:\n        /* \"#utility.yul\":1867:1933   */\n      tag_57\n      jump\t// in\n    tag_120:\n        /* \"#utility.yul\":1858:1933   */\n      swap1\n      pop\n        /* \"#utility.yul\":1956:1962   */\n      dup3\n        /* \"#utility.yul\":1949:1954   */\n      dup2\n        /* \"#utility.yul\":1942:1963   */\n      mstore\n        /* \"#utility.yul\":1994:1998   */\n      0x20\n        /* \"#utility.yul\":1987:1992   */\n      dup2\n        /* \"#utility.yul\":1983:1999   */\n      add\n        /* \"#utility.yul\":2032:2035   */\n      dup5\n        /* \"#utility.yul\":2023:2029   */\n      dup5\n        /* \"#utility.yul\":2018:2021   */\n      dup5\n        /* \"#utility.yul\":2014:2030   */\n      add\n        /* \"#utility.yul\":2011:2036   */\n      gt\n        /* \"#utility.yul\":2008:2120   */\n      iszero\n      tag_122\n      jumpi\n        /* \"#utility.yul\":2039:2118   */\n      tag_123\n      tag_53\n      jump\t// in\n    tag_123:\n        /* \"#utility.yul\":2008:2120   */\n    tag_122:\n        /* \"#utility.yul\":2129:2183   */\n      tag_124\n        /* \"#utility.yul\":2176:2182   */\n      dup5\n        /* \"#utility.yul\":2171:2174   */\n      dup3\n        /* \"#utility.yul\":2166:2169   */\n      dup6\n        /* \"#utility.yul\":2129:2183   */\n      tag_59\n      jump\t// in\n    tag_124:\n        /* \"#utility.yul\":1848:2189   */\n      pop\n        /* \"#utility.yul\":1764:2189   */\n      swap4\n      swap3\n      pop\n      pop\n      pop\n      jump\t// out\n        /* \"#utility.yul\":2209:2549   */\n    tag_61:\n        /* \"#utility.yul\":2265:2270   */\n      0x00\n        /* \"#utility.yul\":2314:2317   */\n      dup3\n        /* \"#utility.yul\":2307:2311   */\n      0x1f\n        /* \"#utility.yul\":2299:2305   */\n      dup4\n        /* \"#utility.yul\":2295:2312   */\n      add\n        /* \"#utility.yul\":2291:2318   */\n      slt\n        /* \"#utility.yul\":2281:2403   */\n      tag_126\n      jumpi\n        /* \"#utility.yul\":2322:2401   */\n      tag_127\n      tag_52\n      jump\t// in\n    tag_127:\n        /* \"#utility.yul\":2281:2403   */\n    tag_126:\n        /* \"#utility.yul\":2439:2445   */\n      dup2\n        /* \"#utility.yul\":2426:2446   */\n      calldataload\n        /* \"#utility.yul\":2464:2543   */\n      tag_128\n        /* \"#utility.yul\":2539:2542   */\n      dup5\n        /* \"#utility.yul\":2531:2537   */\n      dup3\n        /* \"#utility.yul\":2524:2528   */\n      0x20\n        /* \"#utility.yul\":2516:2522   */\n      dup7\n        /* \"#utility.yul\":2512:2529   */\n      add\n        /* \"#utility.yul\":2464:2543   */\n      tag_60\n      jump\t// in\n    tag_128:\n        /* \"#utility.yul\":2455:2543   */\n      swap2\n      pop\n        /* \"#utility.yul\":2271:2549   */\n      pop\n        /* \"#utility.yul\":2209:2549   */\n      swap3\n      swap2\n      pop\n      pop\n      jump\t// out\n        /* \"#utility.yul\":2555:3064   */\n    tag_10:\n        /* \"#utility.yul\":2624:2630   */\n      0x00\n        /* \"#utility.yul\":2673:2675   */\n      0x20\n        /* \"#utility.yul\":2661:2670   */\n      dup3\n        /* \"#utility.yul\":2652:2659   */\n      dup5\n        /* \"#utility.yul\":2648:2671   */\n      sub\n        /* \"#utility.yul\":2644:2676   */\n      slt\n        /* \"#utility.yul\":2641:2760   */\n      iszero\n      tag_130\n      jumpi\n        /* \"#utility.yul\":2679:2758   */\n      tag_131\n      tag_50\n      jump\t// in\n    tag_131:\n        /* \"#utility.yul\":2641:2760   */\n    tag_130:\n        /* \"#utility.yul\":2827:2828   */\n      0x00\n        /* \"#utility.yul\":2816:2825   */\n      dup3\n        /* \"#utility.yul\":2812:2829   */\n      add\n        /* \"#utility.yul\":2799:2830   */\n      calldataload\n        /* \"#utility.yul\":2857:2875   */\n      0xffffffffffffffff\n        /* \"#utility.yul\":2849:2855   */\n      dup2\n        /* \"#utility.yul\":2846:2876   */\n      gt\n        /* \"#utility.yul\":2843:2960   */\n      iszero\n      tag_132\n      jumpi\n        /* \"#utility.yul\":2879:2958   */\n      tag_133\n      tag_51\n      jump\t// in\n    tag_133:\n        /* \"#utility.yul\":2843:2960   */\n    tag_132:\n        /* \"#utility.yul\":2984:3047   */\n      tag_134\n        /* \"#utility.yul\":3039:3046   */\n      dup5\n        /* \"#utility.yul\":3030:3036   */\n      dup3\n        /* \"#utility.yul\":3019:3028   */\n      dup6\n        /* \"#utility.yul\":3015:3037   */\n      add\n        /* \"#utility.yul\":2984:3047   */\n      tag_61\n      jump\t// in\n    tag_134:\n        /* \"#utility.yul\":2974:3047   */\n      swap2\n      pop\n        /* \"#utility.yul\":2770:3057   */\n      pop\n        /* \"#utility.yul\":2555:3064   */\n      swap3\n      swap2\n      pop\n      pop\n      jump\t// out\n        /* \"#utility.yul\":3070:3196   */\n    tag_62:\n        /* \"#utility.yul\":3107:3114   */\n      0x00\n        /* \"#utility.yul\":3147:3189   */\n      0xffffffffffffffffffffffffffffffffffffffff\n        /* \"#utility.yul\":3140:3145   */\n      dup3\n        /* \"#utility.yul\":3136:3190   */\n      and\n        /* \"#utility.yul\":3125:3190   */\n      swap1\n      pop\n        /* \"#utility.yul\":3070:3196   */\n      swap2\n      swap1\n      pop\n      jump\t// out\n        /* \"#utility.yul\":3202:3298   */\n    tag_63:\n        /* \"#utility.yul\":3239:3246   */\n      0x00\n        /* \"#utility.yul\":3268:3292   */\n      tag_137\n        /* \"#utility.yul\":3286:3291   */\n      dup3\n        /* \"#utility.yul\":3268:3292   */\n      tag_62\n      jump\t// in\n    tag_137:\n        /* \"#utility.yul\":3257:3292   */\n      swap1\n      pop\n        /* \"#utility.yul\":3202:3298   */\n      swap2\n      swap1\n      pop\n      jump\t// out\n        /* \"#utility.yul\":3304:3426   */\n    tag_64:\n        /* \"#utility.yul\":3377:3401   */\n      tag_139\n        /* \"#utility.yul\":3395:3400   */\n      dup2\n        /* \"#utility.yul\":3377:3401   */\n      tag_63\n      jump\t// in\n    tag_139:\n        /* \"#utility.yul\":3370:3375   */\n      dup2\n        /* \"#utility.yul\":3367:3402   */\n      eq\n        /* \"#utility.yul\":3357:3420   */\n      tag_140\n      jumpi\n        /* \"#utility.yul\":3416:3417   */\n      0x00\n        /* \"#utility.yul\":3413:3414   */\n      0x00\n        /* \"#utility.yul\":3406:3418   */\n      revert\n        /* \"#utility.yul\":3357:3420   */\n    tag_140:\n        /* \"#utility.yul\":3304:3426   */\n      pop\n      jump\t// out\n        /* \"#utility.yul\":3432:3571   */\n    tag_65:\n        /* \"#utility.yul\":3478:3483   */\n      0x00\n        /* \"#utility.yul\":3516:3522   */\n      dup2\n        /* \"#utility.yul\":3503:3523   */\n      calldataload\n        /* \"#utility.yul\":3494:3523   */\n      swap1\n      pop\n        /* \"#utility.yul\":3532:3565   */\n      tag_142\n        /* \"#utility.yul\":3559:3564   */\n      dup2\n        /* \"#utility.yul\":3532:3565   */\n      tag_64\n      jump\t// in\n    tag_142:\n        /* \"#utility.yul\":3432:3571   */\n      swap3\n      swap2\n      pop\n      pop\n      jump\t// out\n        /* \"#utility.yul\":3577:3906   */\n    tag_15:\n        /* \"#utility.yul\":3636:3642   */\n      0x00\n        /* \"#utility.yul\":3685:3687   */\n      0x20\n        /* \"#utility.yul\":3673:3682   */\n      dup3\n        /* \"#utility.yul\":3664:3671   */\n      dup5\n        /* \"#utility.yul\":3660:3683   */\n      sub\n        /* \"#utility.yul\":3656:3688   */\n      slt\n        /* \"#utility.yul\":3653:3772   */\n      iszero\n      tag_144\n      jumpi\n        /* \"#utility.yul\":3691:3770   */\n      tag_145\n      tag_50\n      jump\t// in\n    tag_145:\n        /* \"#utility.yul\":3653:3772   */\n    tag_144:\n        /* \"#utility.yul\":3811:3812   */\n      0x00\n        /* \"#utility.yul\":3836:3889   */\n      tag_146\n        /* \"#utility.yul\":3881:3888   */\n      dup5\n        /* \"#utility.yul\":3872:3878   */\n      dup3\n        /* \"#utility.yul\":3861:3870   */\n      dup6\n        /* \"#utility.yul\":3857:3879   */\n      add\n        /* \"#utility.yul\":3836:3889   */\n      tag_65\n      jump\t// in\n    tag_146:\n        /* \"#utility.yul\":3826:3889   */\n      swap2\n      pop\n        /* \"#utility.yul\":3782:3899   */\n      pop\n        /* \"#utility.yul\":3577:3906   */\n      swap3\n      swap2\n      pop\n      pop\n      jump\t// out\n        /* \"#utility.yul\":3912:3989   */\n    tag_66:\n        /* \"#utility.yul\":3949:3956   */\n      0x00\n        /* \"#utility.yul\":3978:3983   */\n      dup2\n        /* \"#utility.yul\":3967:3983   */\n      swap1\n      pop\n        /* \"#utility.yul\":3912:3989   */\n      swap2\n      swap1\n      pop\n      jump\t// out\n        /* \"#utility.yul\":3995:4103   */\n    tag_67:\n        /* \"#utility.yul\":4072:4096   */\n      tag_149\n        /* \"#utility.yul\":4090:4095   */\n      dup2\n        /* \"#utility.yul\":4072:4096   */\n      tag_66\n      jump\t// in\n    tag_149:\n        /* \"#utility.yul\":4067:4070   */\n      dup3\n        /* \"#utility.yul\":4060:4097   */\n      mstore\n        /* \"#utility.yul\":3995:4103   */\n      pop\n      pop\n      jump\t// out\n        /* \"#utility.yul\":4173:4682   */\n    tag_68:\n        /* \"#utility.yul\":4312:4316   */\n      0x40\n        /* \"#utility.yul\":4307:4310   */\n      dup3\n        /* \"#utility.yul\":4303:4317   */\n      add\n        /* \"#utility.yul\":4402:4406   */\n      0x00\n        /* \"#utility.yul\":4395:4400   */\n      dup3\n        /* \"#utility.yul\":4391:4407   */\n      add\n        /* \"#utility.yul\":4385:4408   */\n      mload\n        /* \"#utility.yul\":4421:4484   */\n      tag_151\n        /* \"#utility.yul\":4478:4482   */\n      0x00\n        /* \"#utility.yul\":4473:4476   */\n      dup6\n        /* \"#utility.yul\":4469:4483   */\n      add\n        /* \"#utility.yul\":4455:4467   */\n      dup3\n        /* \"#utility.yul\":4421:4484   */\n      tag_67\n      jump\t// in\n    tag_151:\n        /* \"#utility.yul\":4327:4494   */\n      pop\n        /* \"#utility.yul\":4583:4587   */\n      0x20\n        /* \"#utility.yul\":4576:4581   */\n      dup3\n        /* \"#utility.yul\":4572:4588   */\n      add\n        /* \"#utility.yul\":4566:4589   */\n      mload\n        /* \"#utility.yul\":4602:4665   */\n      tag_152\n        /* \"#utility.yul\":4659:4663   */\n      0x20\n        /* \"#utility.yul\":4654:4657   */\n      dup6\n        /* \"#utility.yul\":4650:4664   */\n      add\n        /* \"#utility.yul\":4636:4648   */\n      dup3\n        /* \"#utility.yul\":4602:4665   */\n      tag_67\n      jump\t// in\n    tag_152:\n        /* \"#utility.yul\":4504:4675   */\n      pop\n        /* \"#utility.yul\":4281:4682   */\n      pop\n        /* \"#utility.yul\":4173:4682   */\n      pop\n      pop\n      jump\t// out\n        /* \"#utility.yul\":4688:4778   */\n    tag_69:\n        /* \"#utility.yul\":4722:4729   */\n      0x00\n        /* \"#utility.yul\":4765:4770   */\n      dup2\n        /* \"#utility.yul\":4758:4771   */\n      iszero\n        /* \"#utility.yul\":4751:4772   */\n      iszero\n        /* \"#utility.yul\":4740:4772   */\n      swap1\n      pop\n        /* \"#utility.yul\":4688:4778   */\n      swap2\n      swap1\n      pop\n      jump\t// out\n        /* \"#utility.yul\":4784:4883   */\n    tag_70:\n        /* \"#utility.yul\":4855:4876   */\n      tag_155\n        /* \"#utility.yul\":4870:4875   */\n      dup2\n        /* \"#utility.yul\":4855:4876   */\n      tag_69\n      jump\t// in\n    tag_155:\n        /* \"#utility.yul\":4850:4853   */\n      dup3\n        /* \"#utility.yul\":4843:4877   */\n      mstore\n        /* \"#utility.yul\":4784:4883   */\n      pop\n      pop\n      jump\t// out\n        /* \"#utility.yul\":4957:5462   */\n    tag_71:\n        /* \"#utility.yul\":5102:5106   */\n      0x40\n        /* \"#utility.yul\":5097:5100   */\n      dup3\n        /* \"#utility.yul\":5093:5107   */\n      add\n        /* \"#utility.yul\":5197:5201   */\n      0x00\n        /* \"#utility.yul\":5190:5195   */\n      dup3\n        /* \"#utility.yul\":5186:5202   */\n      add\n        /* \"#utility.yul\":5180:5203   */\n      mload\n        /* \"#utility.yul\":5216:5273   */\n      tag_157\n        /* \"#utility.yul\":5267:5271   */\n      0x00\n        /* \"#utility.yul\":5262:5265   */\n      dup6\n        /* \"#utility.yul\":5258:5272   */\n      add\n        /* \"#utility.yul\":5244:5256   */\n      dup3\n        /* \"#utility.yul\":5216:5273   */\n      tag_70\n      jump\t// in\n    tag_157:\n        /* \"#utility.yul\":5117:5283   */\n      pop\n        /* \"#utility.yul\":5369:5373   */\n      0x20\n        /* \"#utility.yul\":5362:5367   */\n      dup3\n        /* \"#utility.yul\":5358:5374   */\n      add\n        /* \"#utility.yul\":5352:5375   */\n      mload\n        /* \"#utility.yul\":5388:5445   */\n      tag_158\n        /* \"#utility.yul\":5439:5443   */\n      0x20\n        /* \"#utility.yul\":5434:5437   */\n      dup6\n        /* \"#utility.yul\":5430:5444   */\n      add\n        /* \"#utility.yul\":5416:5428   */\n      dup3\n        /* \"#utility.yul\":5388:5445   */\n      tag_70\n      jump\t// in\n    tag_158:\n        /* \"#utility.yul\":5293:5455   */\n      pop\n        /* \"#utility.yul\":5071:5462   */\n      pop\n        /* \"#utility.yul\":4957:5462   */\n      pop\n      pop\n      jump\t// out\n        /* \"#utility.yul\":5468:5567   */\n    tag_72:\n        /* \"#utility.yul\":5520:5526   */\n      0x00\n        /* \"#utility.yul\":5554:5559   */\n      dup2\n        /* \"#utility.yul\":5548:5560   */\n      mload\n        /* \"#utility.yul\":5538:5560   */\n      swap1\n      pop\n        /* \"#utility.yul\":5468:5567   */\n      swap2\n      swap1\n      pop\n      jump\t// out\n        /* \"#utility.yul\":5573:5732   */\n    tag_73:\n        /* \"#utility.yul\":5647:5658   */\n      0x00\n        /* \"#utility.yul\":5681:5687   */\n      dup3\n        /* \"#utility.yul\":5676:5679   */\n      dup3\n        /* \"#utility.yul\":5669:5688   */\n      mstore\n        /* \"#utility.yul\":5721:5725   */\n      0x20\n        /* \"#utility.yul\":5716:5719   */\n      dup3\n        /* \"#utility.yul\":5712:5726   */\n      add\n        /* \"#utility.yul\":5697:5726   */\n      swap1\n      pop\n        /* \"#utility.yul\":5573:5732   */\n      swap3\n      swap2\n      pop\n      pop\n      jump\t// out\n        /* \"#utility.yul\":5738:5877   */\n    tag_74:\n        /* \"#utility.yul\":5827:5833   */\n      dup3\n        /* \"#utility.yul\":5822:5825   */\n      dup2\n        /* \"#utility.yul\":5817:5820   */\n      dup4\n        /* \"#utility.yul\":5811:5834   */\n      mcopy\n        /* \"#utility.yul\":5868:5869   */\n      0x00\n        /* \"#utility.yul\":5859:5865   */\n      dup4\n        /* \"#utility.yul\":5854:5857   */\n      dup4\n        /* \"#utility.yul\":5850:5866   */\n      add\n        /* \"#utility.yul\":5843:5870   */\n      mstore\n        /* \"#utility.yul\":5738:5877   */\n      pop\n      pop\n      pop\n      jump\t// out\n        /* \"#utility.yul\":5883:6240   */\n    tag_75:\n        /* \"#utility.yul\":5961:5964   */\n      0x00\n        /* \"#utility.yul\":5989:6028   */\n      tag_163\n        /* \"#utility.yul\":6022:6027   */\n      dup3\n        /* \"#utility.yul\":5989:6028   */\n      tag_72\n      jump\t// in\n    tag_163:\n        /* \"#utility.yul\":6044:6105   */\n      tag_164\n        /* \"#utility.yul\":6098:6104   */\n      dup2\n        /* \"#utility.yul\":6093:6096   */\n      dup6\n        /* \"#utility.yul\":6044:6105   */\n      tag_73\n      jump\t// in\n    tag_164:\n        /* \"#utility.yul\":6037:6105   */\n      swap4\n      pop\n        /* \"#utility.yul\":6114:6179   */\n      tag_165\n        /* \"#utility.yul\":6172:6178   */\n      dup2\n        /* \"#utility.yul\":6167:6170   */\n      dup6\n        /* \"#utility.yul\":6160:6164   */\n      0x20\n        /* \"#utility.yul\":6153:6158   */\n      dup7\n        /* \"#utility.yul\":6149:6165   */\n      add\n        /* \"#utility.yul\":6114:6179   */\n      tag_74\n      jump\t// in\n    tag_165:\n        /* \"#utility.yul\":6204:6233   */\n      tag_166\n        /* \"#utility.yul\":6226:6232   */\n      dup2\n        /* \"#utility.yul\":6204:6233   */\n      tag_54\n      jump\t// in\n    tag_166:\n        /* \"#utility.yul\":6199:6202   */\n      dup5\n        /* \"#utility.yul\":6195:6234   */\n      add\n        /* \"#utility.yul\":6188:6234   */\n      swap2\n      pop\n        /* \"#utility.yul\":5965:6240   */\n      pop\n        /* \"#utility.yul\":5883:6240   */\n      swap3\n      swap2\n      pop\n      pop\n      jump\t// out\n        /* \"#utility.yul\":6312:6923   */\n    tag_76:\n        /* \"#utility.yul\":6427:6430   */\n      0x00\n        /* \"#utility.yul\":6463:6467   */\n      0x40\n        /* \"#utility.yul\":6458:6461   */\n      dup4\n        /* \"#utility.yul\":6454:6468   */\n      add\n        /* \"#utility.yul\":6554:6558   */\n      0x00\n        /* \"#utility.yul\":6547:6552   */\n      dup4\n        /* \"#utility.yul\":6543:6559   */\n      add\n        /* \"#utility.yul\":6537:6560   */\n      mload\n        /* \"#utility.yul\":6607:6610   */\n      dup5\n        /* \"#utility.yul\":6601:6605   */\n      dup3\n        /* \"#utility.yul\":6597:6611   */\n      sub\n        /* \"#utility.yul\":6590:6594   */\n      0x00\n        /* \"#utility.yul\":6585:6588   */\n      dup7\n        /* \"#utility.yul\":6581:6595   */\n      add\n        /* \"#utility.yul\":6574:6612   */\n      mstore\n        /* \"#utility.yul\":6633:6706   */\n      tag_168\n        /* \"#utility.yul\":6701:6705   */\n      dup3\n        /* \"#utility.yul\":6687:6699   */\n      dup3\n        /* \"#utility.yul\":6633:6706   */\n      tag_75\n      jump\t// in\n    tag_168:\n        /* \"#utility.yul\":6625:6706   */\n      swap2\n      pop\n        /* \"#utility.yul\":6478:6717   */\n      pop\n        /* \"#utility.yul\":6804:6808   */\n      0x20\n        /* \"#utility.yul\":6797:6802   */\n      dup4\n        /* \"#utility.yul\":6793:6809   */\n      add\n        /* \"#utility.yul\":6787:6810   */\n      mload\n        /* \"#utility.yul\":6823:6886   */\n      tag_169\n        /* \"#utility.yul\":6880:6884   */\n      0x20\n        /* \"#utility.yul\":6875:6878   */\n      dup7\n        /* \"#utility.yul\":6871:6885   */\n      add\n        /* \"#utility.yul\":6857:6869   */\n      dup3\n        /* \"#utility.yul\":6823:6886   */\n      tag_67\n      jump\t// in\n    tag_169:\n        /* \"#utility.yul\":6727:6896   */\n      pop\n        /* \"#utility.yul\":6913:6917   */\n      dup1\n        /* \"#utility.yul\":6906:6917   */\n      swap2\n      pop\n        /* \"#utility.yul\":6432:6923   */\n      pop\n        /* \"#utility.yul\":6312:6923   */\n      swap3\n      swap2\n      pop\n      pop\n      jump\t// out\n        /* \"#utility.yul\":6929:7696   */\n    tag_18:\n        /* \"#utility.yul\":7214:7218   */\n      0x00\n        /* \"#utility.yul\":7252:7255   */\n      0xa0\n        /* \"#utility.yul\":7241:7250   */\n      dup3\n        /* \"#utility.yul\":7237:7256   */\n      add\n        /* \"#utility.yul\":7229:7256   */\n      swap1\n      pop\n        /* \"#utility.yul\":7266:7379   */\n      tag_171\n        /* \"#utility.yul\":7376:7377   */\n      0x00\n        /* \"#utility.yul\":7365:7374   */\n      dup4\n        /* \"#utility.yul\":7361:7378   */\n      add\n        /* \"#utility.yul\":7352:7358   */\n      dup7\n        /* \"#utility.yul\":7266:7379   */\n      tag_68\n      jump\t// in\n    tag_171:\n        /* \"#utility.yul\":7389:7509   */\n      tag_172\n        /* \"#utility.yul\":7505:7507   */\n      0x40\n        /* \"#utility.yul\":7494:7503   */\n      dup4\n        /* \"#utility.yul\":7490:7508   */\n      add\n        /* \"#utility.yul\":7481:7487   */\n      dup6\n        /* \"#utility.yul\":7389:7509   */\n      tag_71\n      jump\t// in\n    tag_172:\n        /* \"#utility.yul\":7557:7566   */\n      dup2\n        /* \"#utility.yul\":7551:7555   */\n      dup2\n        /* \"#utility.yul\":7547:7567   */\n      sub\n        /* \"#utility.yul\":7541:7544   */\n      0x80\n        /* \"#utility.yul\":7530:7539   */\n      dup4\n        /* \"#utility.yul\":7526:7545   */\n      add\n        /* \"#utility.yul\":7519:7568   */\n      mstore\n        /* \"#utility.yul\":7585:7689   */\n      tag_173\n        /* \"#utility.yul\":7684:7688   */\n      dup2\n        /* \"#utility.yul\":7675:7681   */\n      dup5\n        /* \"#utility.yul\":7585:7689   */\n      tag_76\n      jump\t// in\n    tag_173:\n        /* \"#utility.yul\":7577:7689   */\n      swap1\n      pop\n        /* \"#utility.yul\":6929:7696   */\n      swap5\n      swap4\n      pop\n      pop\n      pop\n      pop\n      jump\t// out\n        /* \"#utility.yul\":7702:7882   */\n    tag_77:\n        /* \"#utility.yul\":7750:7827   */\n      0x4e487b7100000000000000000000000000000000000000000000000000000000\n        /* \"#utility.yul\":7747:7748   */\n      0x00\n        /* \"#utility.yul\":7740:7828   */\n      mstore\n        /* \"#utility.yul\":7847:7851   */\n      0x22\n        /* \"#utility.yul\":7844:7845   */\n      0x04\n        /* \"#utility.yul\":7837:7852   */\n      mstore\n        /* \"#utility.yul\":7871:7875   */\n      0x24\n        /* \"#utility.yul\":7868:7869   */\n      0x00\n        /* \"#utility.yul\":7861:7876   */\n      revert\n        /* \"#utility.yul\":7888:8208   */\n    tag_33:\n        /* \"#utility.yul\":7932:7938   */\n      0x00\n        /* \"#utility.yul\":7969:7970   */\n      0x02\n        /* \"#utility.yul\":7963:7967   */\n      dup3\n        /* \"#utility.yul\":7959:7971   */\n      div\n        /* \"#utility.yul\":7949:7971   */\n      swap1\n      pop\n        /* \"#utility.yul\":8016:8017   */\n      0x01\n        /* \"#utility.yul\":8010:8014   */\n      dup3\n        /* \"#utility.yul\":8006:8018   */\n      and\n        /* \"#utility.yul\":8037:8055   */\n      dup1\n        /* \"#utility.yul\":8027:8108   */\n      tag_176\n      jumpi\n        /* \"#utility.yul\":8093:8097   */\n      0x7f\n        /* \"#utility.yul\":8085:8091   */\n      dup3\n        /* \"#utility.yul\":8081:8098   */\n      and\n        /* \"#utility.yul\":8071:8098   */\n      swap2\n      pop\n        /* \"#utility.yul\":8027:8108   */\n    tag_176:\n        /* \"#utility.yul\":8155:8157   */\n      0x20\n        /* \"#utility.yul\":8147:8153   */\n      dup3\n        /* \"#utility.yul\":8144:8158   */\n      lt\n        /* \"#utility.yul\":8124:8142   */\n      dup2\n        /* \"#utility.yul\":8121:8159   */\n      sub\n        /* \"#utility.yul\":8118:8202   */\n      tag_177\n      jumpi\n        /* \"#utility.yul\":8174:8192   */\n      tag_178\n      tag_77\n      jump\t// in\n    tag_178:\n        /* \"#utility.yul\":8118:8202   */\n    tag_177:\n        /* \"#utility.yul\":7939:8208   */\n      pop\n        /* \"#utility.yul\":7888:8208   */\n      swap2\n      swap1\n      pop\n      jump\t// out\n        /* \"#utility.yul\":8214:8355   */\n    tag_78:\n        /* \"#utility.yul\":8263:8267   */\n      0x00\n        /* \"#utility.yul\":8286:8289   */\n      dup2\n        /* \"#utility.yul\":8278:8289   */\n      swap1\n      pop\n        /* \"#utility.yul\":8309:8312   */\n      dup2\n        /* \"#utility.yul\":8306:8307   */\n      0x00\n        /* \"#utility.yul\":8299:8313   */\n      mstore\n        /* \"#utility.yul\":8343:8347   */\n      0x20\n        /* \"#utility.yul\":8340:8341   */\n      0x00\n        /* \"#utility.yul\":8330:8348   */\n      keccak256\n        /* \"#utility.yul\":8322:8348   */\n      swap1\n      pop\n        /* \"#utility.yul\":8214:8355   */\n      swap2\n      swap1\n      pop\n      jump\t// out\n        /* \"#utility.yul\":8361:8454   */\n    tag_79:\n        /* \"#utility.yul\":8398:8404   */\n      0x00\n        /* \"#utility.yul\":8445:8447   */\n      0x20\n        /* \"#utility.yul\":8440:8442   */\n      0x1f\n        /* \"#utility.yul\":8433:8438   */\n      dup4\n        /* \"#utility.yul\":8429:8443   */\n      add\n        /* \"#utility.yul\":8425:8448   */\n      div\n        /* \"#utility.yul\":8415:8448   */\n      swap1\n      pop\n        /* \"#utility.yul\":8361:8454   */\n      swap2\n      swap1\n      pop\n      jump\t// out\n        /* \"#utility.yul\":8460:8567   */\n    tag_80:\n        /* \"#utility.yul\":8504:8512   */\n      0x00\n        /* \"#utility.yul\":8554:8559   */\n      dup3\n        /* \"#utility.yul\":8548:8552   */\n      dup3\n        /* \"#utility.yul\":8544:8560   */\n      shl\n        /* \"#utility.yul\":8523:8560   */\n      swap1\n      pop\n        /* \"#utility.yul\":8460:8567   */\n      swap3\n      swap2\n      pop\n      pop\n      jump\t// out\n        /* \"#utility.yul\":8573:8966   */\n    tag_81:\n        /* \"#utility.yul\":8642:8648   */\n      0x00\n        /* \"#utility.yul\":8692:8693   */\n      0x08\n        /* \"#utility.yul\":8680:8690   */\n      dup4\n        /* \"#utility.yul\":8676:8694   */\n      mul\n        /* \"#utility.yul\":8715:8812   */\n      tag_183\n        /* \"#utility.yul\":8745:8811   */\n      0xffffffffffffffffffffffffffffffffffffffffffffffffffffffffffffffff\n        /* \"#utility.yul\":8734:8743   */\n      dup3\n        /* \"#utility.yul\":8715:8812   */\n      tag_80\n      jump\t// in\n    tag_183:\n        /* \"#utility.yul\":8833:8872   */\n      tag_184\n        /* \"#utility.yul\":8863:8871   */\n      dup7\n        /* \"#utility.yul\":8852:8861   */\n      dup4\n        /* \"#utility.yul\":8833:8872   */\n      tag_80\n      jump\t// in\n    tag_184:\n        /* \"#utility.yul\":8821:8872   */\n      swap6\n      pop\n        /* \"#utility.yul\":8905:8909   */\n      dup1\n        /* \"#utility.yul\":8901:8910   */\n      not\n        /* \"#utility.yul\":8894:8899   */\n      dup5\n        /* \"#utility.yul\":8890:8911   */\n      and\n        /* \"#utility.yul\":8881:8911   */\n      swap4\n      pop\n        /* \"#utility.yul\":8954:8958   */\n      dup1\n        /* \"#utility.yul\":8944:8952   */\n      dup7\n        /* \"#utility.yul\":8940:8959   */\n      and\n        /* \"#utility.yul\":8933:8938   */\n      dup5\n        /* \"#utility.yul\":8930:8960   */\n      or\n        /* \"#utility.yul\":8920:8960   */\n      swap3\n      pop\n        /* \"#utility.yul\":8649:8966   */\n      pop\n      pop\n        /* \"#utility.yul\":8573:8966   */\n      swap4\n      swap3\n      pop\n      pop\n      pop\n      jump\t// out\n        /* \"#utility.yul\":8972:9032   */\n    tag_82:\n        /* \"#utility.yul\":9000:9003   */\n      0x00\n        /* \"#utility.yul\":9021:9026   */\n      dup2\n        /* \"#utility.yul\":9014:9026   */\n      swap1\n      pop\n        /* \"#utility.yul\":8972:9032   */\n      swap2\n      swap1\n      pop\n      jump\t// out\n        /* \"#utility.yul\":9038:9180   */\n    tag_83:\n        /* \"#utility.yul\":9088:9097   */\n      0x00\n        /* \"#utility.yul\":9121:9174   */\n      tag_187\n        /* \"#utility.yul\":9139:9173   */\n      tag_188\n        /* \"#utility.yul\":9148:9172   */\n      tag_189\n        /* \"#utility.yul\":9166:9171   */\n      dup5\n        /* \"#utility.yul\":9148:9172   */\n      tag_66\n      jump\t// in\n    tag_189:\n        /* \"#utility.yul\":9139:9173   */\n      tag_82\n      jump\t// in\n    tag_188:\n        /* \"#utility.yul\":9121:9174   */\n      tag_66\n      jump\t// in\n    tag_187:\n        /* \"#utility.yul\":9108:9174   */\n      swap1\n      pop\n        /* \"#utility.yul\":9038:9180   */\n      swap2\n      swap1\n      pop\n      jump\t// out\n        /* \"#utility.yul\":9186:9261   */\n    tag_84:\n        /* \"#utility.yul\":9229:9232   */\n      0x00\n        /* \"#utility.yul\":9250:9255   */\n      dup2\n        /* \"#utility.yul\":9243:9255   */\n      swap1\n      pop\n        /* \"#utility.yul\":9186:9261   */\n      swap2\n      swap1\n      pop\n      jump\t// out\n        /* \"#utility.yul\":9267:9536   */\n    tag_85:\n        /* \"#utility.yul\":9377:9416   */\n      tag_192\n        /* \"#utility.yul\":9408:9415   */\n      dup4\n        /* \"#utility.yul\":9377:9416   */\n      tag_83\n      jump\t// in\n    tag_192:\n        /* \"#utility.yul\":9438:9529   */\n      tag_193\n        /* \"#utility.yul\":9487:9528   */\n      tag_194\n        /* \"#utility.yul\":9511:9527   */\n      dup3\n        /* \"#utility.yul\":9487:9528   */\n      tag_84\n      jump\t// in\n    tag_194:\n        /* \"#utility.yul\":9479:9485   */\n      dup5\n        /* \"#utility.yul\":9472:9476   */\n      dup5\n        /* \"#utility.yul\":9466:9477   */\n      sload\n        /* \"#utility.yul\":9438:9529   */\n      tag_81\n      jump\t// in\n    tag_193:\n        /* \"#utility.yul\":9432:9436   */\n      dup3\n        /* \"#utility.yul\":9425:9530   */\n      sstore\n        /* \"#utility.yul\":9343:9536   */\n      pop\n        /* \"#utility.yul\":9267:9536   */\n      pop\n      pop\n      pop\n      jump\t// out\n        /* \"#utility.yul\":9542:9615   */\n    tag_86:\n        /* \"#utility.yul\":9587:9590   */\n      0x00\n        /* \"#utility.yul\":9608:9609   */\n      0x00\n        /* \"#utility.yul\":9601:9609   */\n      swap1\n      pop\n        /* \"#utility.yul\":9542:9615   */\n      swap1\n      jump\t// out\n        /* \"#utility.yul\":9621:9810   */\n    tag_87:\n        /* \"#utility.yul\":9698:9730   */\n      tag_197\n      tag_86\n      jump\t// in\n    tag_197:\n        /* \"#utility.yul\":9739:9804   */\n      tag_198\n        /* \"#utility.yul\":9797:9803   */\n      dup2\n        /* \"#utility.yul\":9789:9795   */\n      dup5\n        /* \"#utility.yul\":9783:9787   */\n      dup5\n        /* \"#utility.yul\":9739:9804   */\n      tag_85\n      jump\t// in\n    tag_198:\n        /* \"#utility.yul\":9674:9810   */\n      pop\n        /* \"#utility.yul\":9621:9810   */\n      pop\n      pop\n      jump\t// out\n        /* \"#utility.yul\":9816:10002   */\n    tag_88:\n        /* \"#utility.yul\":9876:9996   */\n    tag_200:\n        /* \"#utility.yul\":9893:9896   */\n      dup2\n        /* \"#utility.yul\":9886:9891   */\n      dup2\n        /* \"#utility.yul\":9883:9897   */\n      lt\n        /* \"#utility.yul\":9876:9996   */\n      iszero\n      tag_202\n      jumpi\n        /* \"#utility.yul\":9947:9986   */\n      tag_203\n        /* \"#utility.yul\":9984:9985   */\n      0x00\n        /* \"#utility.yul\":9977:9982   */\n      dup3\n        /* \"#utility.yul\":9947:9986   */\n      tag_87\n      jump\t// in\n    tag_203:\n        /* \"#utility.yul\":9920:9921   */\n      0x01\n        /* \"#utility.yul\":9913:9918   */\n      dup2\n        /* \"#utility.yul\":9909:9922   */\n      add\n        /* \"#utility.yul\":9900:9922   */\n      swap1\n      pop\n        /* \"#utility.yul\":9876:9996   */\n      jump(tag_200)\n    tag_202:\n        /* \"#utility.yul\":9816:10002   */\n      pop\n      pop\n      jump\t// out\n        /* \"#utility.yul\":10008:10551   */\n    tag_89:\n        /* \"#utility.yul\":10109:10111   */\n      0x1f\n        /* \"#utility.yul\":10104:10107   */\n      dup3\n        /* \"#utility.yul\":10101:10112   */\n      gt\n        /* \"#utility.yul\":10098:10544   */\n      iszero\n      tag_205\n      jumpi\n        /* \"#utility.yul\":10143:10181   */\n      tag_206\n        /* \"#utility.yul\":10175:10180   */\n      dup2\n        /* \"#utility.yul\":10143:10181   */\n      tag_78\n      jump\t// in\n    tag_206:\n        /* \"#utility.yul\":10227:10256   */\n      tag_207\n        /* \"#utility.yul\":10245:10255   */\n      dup5\n        /* \"#utility.yul\":10227:10256   */\n      tag_79\n      jump\t// in\n    tag_207:\n        /* \"#utility.yul\":10217:10225   */\n      dup2\n        /* \"#utility.yul\":10213:10257   */\n      add\n        /* \"#utility.yul\":10410:10412   */\n      0x20\n        /* \"#utility.yul\":10398:10408   */\n      dup6\n        /* \"#utility.yul\":10395:10413   */\n      lt\n        /* \"#utility.yul\":10392:10441   */\n      iszero\n      tag_208\n      jumpi\n        /* \"#utility.yul\":10431:10439   */\n      dup2\n        /* \"#utility.yul\":10416:10439   */\n      swap1\n      pop\n        /* \"#utility.yul\":10392:10441   */\n    tag_208:\n        /* \"#utility.yul\":10454:10534   */\n      tag_209\n        /* \"#utility.yul\":10510:10532   */\n      tag_210\n        /* \"#utility.yul\":10528:10531   */\n      dup6\n        /* \"#utility.yul\":10510:10532   */\n      tag_79\n      jump\t// in\n    tag_210:\n        /* \"#utility.yul\":10500:10508   */\n      dup4\n        /* \"#utility.yul\":10496:10533   */\n      add\n        /* \"#utility.yul\":10483:10494   */\n      dup3\n        /* \"#utility.yul\":10454:10534   */\n      tag_88\n      jump\t// in\n    tag_209:\n        /* \"#utility.yul\":10113:10544   */\n      pop\n      pop\n        /* \"#utility.yul\":10098:10544   */\n    tag_205:\n        /* \"#utility.yul\":10008:10551   */\n      pop\n      pop\n      pop\n      jump\t// out\n        /* \"#utility.yul\":10557:10674   */\n    tag_90:\n        /* \"#utility.yul\":10611:10619   */\n      0x00\n        /* \"#utility.yul\":10661:10666   */\n      dup3\n        /* \"#utility.yul\":10655:10659   */\n      dup3\n        /* \"#utility.yul\":10651:10667   */\n      shr\n        /* \"#utility.yul\":10630:10667   */\n      swap1\n      pop\n        /* \"#utility.yul\":10557:10674   */\n      swap3\n      swap2\n      pop\n      pop\n      jump\t// out\n        /* \"#utility.yul\":10680:10849   */\n    tag_91:\n        /* \"#utility.yul\":10724:10730   */\n      0x00\n        /* \"#utility.yul\":10757:10808   */\n      tag_213\n        /* \"#utility.yul\":10805:10806   */\n      0x00\n        /* \"#utility.yul\":10801:10807   */\n      not\n        /* \"#utility.yul\":10793:10798   */\n      dup5\n        /* \"#utility.yul\":10790:10791   */\n      0x08\n        /* \"#utility.yul\":10786:10799   */\n      mul\n        /* \"#utility.yul\":10757:10808   */\n      tag_90\n      jump\t// in\n    tag_213:\n        /* \"#utility.yul\":10753:10809   */\n      not\n        /* \"#utility.yul\":10838:10842   */\n      dup1\n        /* \"#utility.yul\":10832:10836   */\n      dup4\n        /* \"#utility.yul\":10828:10843   */\n      and\n        /* \"#utility.yul\":10818:10843   */\n      swap2\n      pop\n        /* \"#utility.yul\":10731:10849   */\n      pop\n        /* \"#utility.yul\":10680:10849   */\n      swap3\n      swap2\n      pop\n      pop\n      jump\t// out\n        /* \"#utility.yul\":10854:11149   */\n    tag_92:\n        /* \"#utility.yul\":10930:10934   */\n      0x00\n        /* \"#utility.yul\":11076:11105   */\n      tag_215\n        /* \"#utility.yul\":11101:11104   */\n      dup4\n        /* \"#utility.yul\":11095:11099   */\n      dup4\n        /* \"#utility.yul\":11076:11105   */\n      tag_91\n      jump\t// in\n    tag_215:\n        /* \"#utility.yul\":11068:11105   */\n      swap2\n      pop\n        /* \"#utility.yul\":11138:11141   */\n      dup3\n        /* \"#utility.yul\":11135:11136   */\n      0x02\n        /* \"#utility.yul\":11131:11142   */\n      mul\n        /* \"#utility.yul\":11125:11129   */\n      dup3\n        /* \"#utility.yul\":11122:11143   */\n      or\n        /* \"#utility.yul\":11114:11143   */\n      swap1\n      pop\n        /* \"#utility.yul\":10854:11149   */\n      swap3\n      swap2\n      pop\n      pop\n      jump\t// out\n        /* \"#utility.yul\":11154:12549   */\n    tag_31:\n        /* \"#utility.yul\":11271:11308   */\n      tag_217\n        /* \"#utility.yul\":11304:11307   */\n      dup3\n        /* \"#utility.yul\":11271:11308   */\n      tag_72\n      jump\t// in\n    tag_217:\n        /* \"#utility.yul\":11373:11391   */\n      0xffffffffffffffff\n        /* \"#utility.yul\":11365:11371   */\n      dup2\n        /* \"#utility.yul\":11362:11392   */\n      gt\n        /* \"#utility.yul\":11359:11415   */\n      iszero\n      tag_218\n      jumpi\n        /* \"#utility.yul\":11395:11413   */\n      tag_219\n      tag_55\n      jump\t// in\n    tag_219:\n        /* \"#utility.yul\":11359:11415   */\n    tag_218:\n        /* \"#utility.yul\":11439:11477   */\n      tag_220\n        /* \"#utility.yul\":11471:11475   */\n      dup3\n        /* \"#utility.yul\":11465:11476   */\n      sload\n        /* \"#utility.yul\":11439:11477   */\n      tag_33\n      jump\t// in\n    tag_220:\n        /* \"#utility.yul\":11524:11591   */\n      tag_221\n        /* \"#utility.yul\":11584:11590   */\n      dup3\n        /* \"#utility.yul\":11576:11582   */\n      dup3\n        /* \"#utility.yul\":11570:11574   */\n      dup6\n        /* \"#utility.yul\":11524:11591   */\n      tag_89\n      jump\t// in\n    tag_221:\n        /* \"#utility.yul\":11618:11619   */\n      0x00\n        /* \"#utility.yul\":11642:11646   */\n      0x20\n        /* \"#utility.yul\":11629:11646   */\n      swap1\n      pop\n        /* \"#utility.yul\":11674:11676   */\n      0x1f\n        /* \"#utility.yul\":11666:11672   */\n      dup4\n        /* \"#utility.yul\":11663:11677   */\n      gt\n        /* \"#utility.yul\":11691:11692   */\n      0x01\n        /* \"#utility.yul\":11686:12304   */\n      dup2\n      eq\n      tag_223\n      jumpi\n        /* \"#utility.yul\":12348:12349   */\n      0x00\n        /* \"#utility.yul\":12365:12371   */\n      dup5\n        /* \"#utility.yul\":12362:12439   */\n      iszero\n      tag_224\n      jumpi\n        /* \"#utility.yul\":12414:12423   */\n      dup3\n        /* \"#utility.yul\":12409:12412   */\n      dup8\n        /* \"#utility.yul\":12405:12424   */\n      add\n        /* \"#utility.yul\":12399:12425   */\n      mload\n        /* \"#utility.yul\":12390:12425   */\n      swap1\n      pop\n        /* \"#utility.yul\":12362:12439   */\n    tag_224:\n        /* \"#utility.yul\":12465:12532   */\n      tag_225\n        /* \"#utility.yul\":12525:12531   */\n      dup6\n        /* \"#utility.yul\":12518:12523   */\n      dup3\n        /* \"#utility.yul\":12465:12532   */\n      tag_92\n      jump\t// in\n    tag_225:\n        /* \"#utility.yul\":12459:12463   */\n      dup7\n        /* \"#utility.yul\":12452:12533   */\n      sstore\n        /* \"#utility.yul\":12321:12543   */\n      pop\n        /* \"#utility.yul\":11656:12543   */\n      jump(tag_222)\n        /* \"#utility.yul\":11686:12304   */\n    tag_223:\n        /* \"#utility.yul\":11738:11742   */\n      0x1f\n        /* \"#utility.yul\":11734:11743   */\n      not\n        /* \"#utility.yul\":11726:11732   */\n      dup5\n        /* \"#utility.yul\":11722:11744   */\n      and\n        /* \"#utility.yul\":11772:11809   */\n      tag_226\n        /* \"#utility.yul\":11804:11808   */\n      dup7\n        /* \"#utility.yul\":11772:11809   */\n      tag_78\n      jump\t// in\n    tag_226:\n        /* \"#utility.yul\":11831:11832   */\n      0x00\n        /* \"#utility.yul\":11845:12053   */\n    tag_227:\n        /* \"#utility.yul\":11859:11866   */\n      dup3\n        /* \"#utility.yul\":11856:11857   */\n      dup2\n        /* \"#utility.yul\":11853:11867   */\n      lt\n        /* \"#utility.yul\":11845:12053   */\n      iszero\n      tag_229\n      jumpi\n        /* \"#utility.yul\":11938:11947   */\n      dup5\n        /* \"#utility.yul\":11933:11936   */\n      dup10\n        /* \"#utility.yul\":11929:11948   */\n      add\n        /* \"#utility.yul\":11923:11949   */\n      mload\n        /* \"#utility.yul\":11915:11921   */\n      dup3\n        /* \"#utility.yul\":11908:11950   */\n      sstore\n        /* \"#utility.yul\":11989:11990   */\n      0x01\n        /* \"#utility.yul\":11981:11987   */\n      dup3\n        /* \"#utility.yul\":11977:11991   */\n      add\n        /* \"#utility.yul\":11967:11991   */\n      swap2\n      pop\n        /* \"#utility.yul\":12036:12038   */\n      0x20\n        /* \"#utility.yul\":12025:12034   */\n      dup6\n        /* \"#utility.yul\":12021:12039   */\n      add\n        /* \"#utility.yul\":12008:12039   */\n      swap5\n      pop\n        /* \"#utility.yul\":11882:11886   */\n      0x20\n        /* \"#utility.yul\":11879:11880   */\n      dup2\n        /* \"#utility.yul\":11875:11887   */\n      add\n        /* \"#utility.yul\":11870:11887   */\n      swap1\n      pop\n        /* \"#utility.yul\":11845:12053   */\n      jump(tag_227)\n    tag_229:\n        /* \"#utility.yul\":12081:12087   */\n      dup7\n        /* \"#utility.yul\":12072:12079   */\n      dup4\n        /* \"#utility.yul\":12069:12088   */\n      lt\n        /* \"#utility.yul\":12066:12245   */\n      iszero\n      tag_230\n      jumpi\n        /* \"#utility.yul\":12139:12148   */\n      dup5\n        /* \"#utility.yul\":12134:12137   */\n      dup10\n        /* \"#utility.yul\":12130:12149   */\n      add\n        /* \"#utility.yul\":12124:12150   */\n      mload\n        /* \"#utility.yul\":12182:12230   */\n      tag_231\n        /* \"#utility.yul\":12224:12228   */\n      0x1f\n        /* \"#utility.yul\":12216:12222   */\n      dup10\n        /* \"#utility.yul\":12212:12229   */\n      and\n        /* \"#utility.yul\":12201:12210   */\n      dup3\n        /* \"#utility.yul\":12182:12230   */\n      tag_91\n      jump\t// in\n    tag_231:\n        /* \"#utility.yul\":12174:12180   */\n      dup4\n        /* \"#utility.yul\":12167:12231   */\n      sstore\n        /* \"#utility.yul\":12089:12245   */\n      pop\n        /* \"#utility.yul\":12066:12245   */\n    tag_230:\n        /* \"#utility.yul\":12291:12292   */\n      0x01\n        /* \"#utility.yul\":12287:12288   */\n      0x02\n        /* \"#utility.yul\":12279:12285   */\n      dup9\n        /* \"#utility.yul\":12275:12289   */\n      mul\n        /* \"#utility.yul\":12271:12293   */\n      add\n        /* \"#utility.yul\":12265:12269   */\n      dup9\n        /* \"#utility.yul\":12258:12294   */\n      sstore\n        /* \"#utility.yul\":11693:12304   */\n      pop\n      pop\n      pop\n        /* \"#utility.yul\":11656:12543   */\n    tag_222:\n      pop\n        /* \"#utility.yul\":11246:12549   */\n      pop\n      pop\n      pop\n        /* \"#utility.yul\":11154:12549   */\n      pop\n      pop\n      jump\t// out\n        /* \"#utility.yul\":12555:12724   */\n    tag_93:\n        /* \"#utility.yul\":12639:12650   */\n      0x00\n        /* \"#utility.yul\":12673:12679   */\n      dup3\n        /* \"#utility.yul\":12668:12671   */\n      dup3\n        /* \"#utility.yul\":12661:12680   */\n      mstore\n        /* \"#utility.yul\":12713:12717   */\n      0x20\n        /* \"#utility.yul\":12708:12711   */\n      dup3\n        /* \"#utility.yul\":12704:12718   */\n      add\n        /* \"#utility.yul\":12689:12718   */\n      swap1\n      pop\n        /* \"#utility.yul\":12555:12724   */\n      swap3\n      swap2\n      pop\n      pop\n      jump\t// out\n        /* \"#utility.yul\":12730:12897   */\n    tag_94:\n        /* \"#utility.yul\":12870:12889   */\n      0x4163636f756e742069732046524f5a454e000000000000000000000000000000\n        /* \"#utility.yul\":12866:12867   */\n      0x00\n        /* \"#utility.yul\":12858:12864   */\n      dup3\n        /* \"#utility.yul\":12854:12868   */\n      add\n        /* \"#utility.yul\":12847:12890   */\n      mstore\n        /* \"#utility.yul\":12730:12897   */\n      pop\n      jump\t// out\n        /* \"#utility.yul\":12903:13269   */\n    tag_95:\n        /* \"#utility.yul\":13045:13048   */\n      0x00\n        /* \"#utility.yul\":13066:13133   */\n      tag_235\n        /* \"#utility.yul\":13130:13132   */\n      0x11\n        /* \"#utility.yul\":13125:13128   */\n      dup4\n        /* \"#utility.yul\":13066:13133   */\n      tag_93\n      jump\t// in\n    tag_235:\n        /* \"#utility.yul\":13059:13133   */\n      swap2\n      pop\n        /* \"#utility.yul\":13142:13235   */\n      tag_236\n        /* \"#utility.yul\":13231:13234   */\n      dup3\n        /* \"#utility.yul\":13142:13235   */\n      tag_94\n      jump\t// in\n    tag_236:\n        /* \"#utility.yul\":13260:13262   */\n      0x20\n        /* \"#utility.yul\":13255:13258   */\n      dup3\n        /* \"#utility.yul\":13251:13263   */\n      add\n        /* \"#utility.yul\":13244:13263   */\n      swap1\n      pop\n        /* \"#utility.yul\":12903:13269   */\n      swap2\n      swap1\n      pop\n      jump\t// out\n        /* \"#utility.yul\":13275:13694   */\n    tag_42:\n        /* \"#utility.yul\":13441:13445   */\n      0x00\n        /* \"#utility.yul\":13479:13481   */\n      0x20\n        /* \"#utility.yul\":13468:13477   */\n      dup3\n        /* \"#utility.yul\":13464:13482   */\n      add\n        /* \"#utility.yul\":13456:13482   */\n      swap1\n      pop\n        /* \"#utility.yul\":13528:13537   */\n      dup2\n        /* \"#utility.yul\":13522:13526   */\n      dup2\n        /* \"#utility.yul\":13518:13538   */\n      sub\n        /* \"#utility.yul\":13514:13515   */\n      0x00\n        /* \"#utility.yul\":13503:13512   */\n      dup4\n        /* \"#utility.yul\":13499:13516   */\n      add\n        /* \"#utility.yul\":13492:13539   */\n      mstore\n        /* \"#utility.yul\":13556:13687   */\n      tag_238\n        /* \"#utility.yul\":13682:13686   */\n      dup2\n        /* \"#utility.yul\":13556:13687   */\n      tag_95\n      jump\t// in\n    tag_238:\n        /* \"#utility.yul\":13548:13687   */\n      swap1\n      pop\n        /* \"#utility.yul\":13275:13694   */\n      swap2\n      swap1\n      pop\n      jump\t// out\n        /* \"#utility.yul\":13700:13872   */\n    tag_96:\n        /* \"#utility.yul\":13840:13864   */\n      0x4465706f73697420612076616c696420616d6f756e7400000000000000000000\n        /* \"#utility.yul\":13836:13837   */\n      0x00\n        /* \"#utility.yul\":13828:13834   */\n      dup3\n        /* \"#utility.yul\":13824:13838   */\n      add\n        /* \"#utility.yul\":13817:13865   */\n      mstore\n        /* \"#utility.yul\":13700:13872   */\n      pop\n      jump\t// out\n        /* \"#utility.yul\":13878:14244   */\n    tag_97:\n        /* \"#utility.yul\":14020:14023   */\n      0x00\n        /* \"#utility.yul\":14041:14108   */\n      tag_241\n        /* \"#utility.yul\":14105:14107   */\n      0x16\n        /* \"#utility.yul\":14100:14103   */\n      dup4\n        /* \"#utility.yul\":14041:14108   */\n      tag_93\n      jump\t// in\n    tag_241:\n        /* \"#utility.yul\":14034:14108   */\n      swap2\n      pop\n        /* \"#utility.yul\":14117:14210   */\n      tag_242\n        /* \"#utility.yul\":14206:14209   */\n      dup3\n        /* \"#utility.yul\":14117:14210   */\n      tag_96\n      jump\t// in\n    tag_242:\n        /* \"#utility.yul\":14235:14237   */\n      0x20\n        /* \"#utility.yul\":14230:14233   */\n      dup3\n        /* \"#utility.yul\":14226:14238   */\n      add\n        /* \"#utility.yul\":14219:14238   */\n      swap1\n      pop\n        /* \"#utility.yul\":13878:14244   */\n      swap2\n      swap1\n      pop\n      jump\t// out\n        /* \"#utility.yul\":14250:14669   */\n    tag_45:\n        /* \"#utility.yul\":14416:14420   */\n      0x00\n        /* \"#utility.yul\":14454:14456   */\n      0x20\n        /* \"#utility.yul\":14443:14452   */\n      dup3\n        /* \"#utility.yul\":14439:14457   */\n      add\n        /* \"#utility.yul\":14431:14457   */\n      swap1\n      pop\n        /* \"#utility.yul\":14503:14512   */\n      dup2\n        /* \"#utility.yul\":14497:14501   */\n      dup2\n        /* \"#utility.yul\":14493:14513   */\n      sub\n        /* \"#utility.yul\":14489:14490   */\n      0x00\n        /* \"#utility.yul\":14478:14487   */\n      dup4\n        /* \"#utility.yul\":14474:14491   */\n      add\n        /* \"#utility.yul\":14467:14514   */\n      mstore\n        /* \"#utility.yul\":14531:14662   */\n      tag_244\n        /* \"#utility.yul\":14657:14661   */\n      dup2\n        /* \"#utility.yul\":14531:14662   */\n      tag_97\n      jump\t// in\n    tag_244:\n        /* \"#utility.yul\":14523:14662   */\n      swap1\n      pop\n        /* \"#utility.yul\":14250:14669   */\n      swap2\n      swap1\n      pop\n      jump\t// out\n        /* \"#utility.yul\":14675:14855   */\n    tag_98:\n        /* \"#utility.yul\":14723:14800   */\n      0x4e487b7100000000000000000000000000000000000000000000000000000000\n        /* \"#utility.yul\":14720:14721   */\n      0x00\n        /* \"#utility.yul\":14713:14801   */\n      mstore\n        /* \"#utility.yul\":14820:14824   */\n      0x11\n        /* \"#utility.yul\":14817:14818   */\n      0x04\n        /* \"#utility.yul\":14810:14825   */\n      mstore\n        /* \"#utility.yul\":14844:14848   */\n      0x24\n        /* \"#utility.yul\":14841:14842   */\n      0x00\n        /* \"#utility.yul\":14834:14849   */\n      revert\n        /* \"#utility.yul\":14861:15052   */\n    tag_47:\n        /* \"#utility.yul\":14901:14904   */\n      0x00\n        /* \"#utility.yul\":14920:14940   */\n      tag_247\n        /* \"#utility.yul\":14938:14939   */\n      dup3\n        /* \"#utility.yul\":14920:14940   */\n      tag_66\n      jump\t// in\n    tag_247:\n        /* \"#utility.yul\":14915:14940   */\n      swap2\n      pop\n        /* \"#utility.yul\":14954:14974   */\n      tag_248\n        /* \"#utility.yul\":14972:14973   */\n      dup4\n        /* \"#utility.yul\":14954:14974   */\n      tag_66\n      jump\t// in\n    tag_248:\n        /* \"#utility.yul\":14949:14974   */\n      swap3\n      pop\n        /* \"#utility.yul\":14997:14998   */\n      dup3\n        /* \"#utility.yul\":14994:14995   */\n      dup3\n        /* \"#utility.yul\":14990:14999   */\n      add\n        /* \"#utility.yul\":14983:14999   */\n      swap1\n      pop\n        /* \"#utility.yul\":15018:15021   */\n      dup1\n        /* \"#utility.yul\":15015:15016   */\n      dup3\n        /* \"#utility.yul\":15012:15022   */\n      gt\n        /* \"#utility.yul\":15009:15045   */\n      iszero\n      tag_249\n      jumpi\n        /* \"#utility.yul\":15025:15043   */\n      tag_250\n      tag_98\n      jump\t// in\n    tag_250:\n        /* \"#utility.yul\":15009:15045   */\n    tag_249:\n        /* \"#utility.yul\":14861:15052   */\n      swap3\n      swap2\n      pop\n      pop\n      jump\t// out\n\n    auxdata: 0xa2646970667358221220ac38aca5f0ff874cae0912187f942ebca8fba743b3407b8a3a600698f7a97be364736f6c634300081f0033\n}\n",
				"bytecode": {
					"linkReferences": {},
					"object": "6080604052348015600e575f5ffd5b50610cce8061001c5f395ff3fe608060405260043610610049575f3560e01c806340b2d3af1461004d578063a87430ba14610075578063ad14deb1146100b3578063ed21248c146100db578063f8b2cb4f146100e5575b5f5ffd5b348015610058575f5ffd5b50610073600480360381019061006e919061065e565b61010d565b005b348015610080575f5ffd5b5061009b600480360381019061009691906106ff565b6101de565b6040516100aa93929190610850565b60405180910390f35b3480156100be575f5ffd5b506100d960048036038101906100d491906106ff565b610300565b005b6100e361035d565b005b3480156100f0575f5ffd5b5061010b600480360381019061010691906106ff565b6104d1565b005b6040518060400160405280828152602001428152505f5f3373ffffffffffffffffffffffffffffffffffffffff1673ffffffffffffffffffffffffffffffffffffffff1681526020019081526020015f206003015f820151815f0190816101749190610a89565b50602082015181600101559050505f5f5f3373ffffffffffffffffffffffffffffffffffffffff1673ffffffffffffffffffffffffffffffffffffffff1681526020019081526020015f206002015f0160016101000a81548160ff02191690831515021790555050565b5f602052805f5260405f205f91509050805f016040518060400160405290815f820154815260200160018201548152505090806002016040518060400160405290815f82015f9054906101000a900460ff161515151581526020015f820160019054906101000a900460ff16151515158152505090806003016040518060400160405290815f82018054610271906108b9565b80601f016020809104026020016040519081016040528092919081815260200182805461029d906108b9565b80156102e85780601f106102bf576101008083540402835291602001916102e8565b820191905f5260205f20905b8154815290600101906020018083116102cb57829003601f168201915b50505050508152602001600182015481525050905083565b60015f5f8373ffffffffffffffffffffffffffffffffffffffff1673ffffffffffffffffffffffffffffffffffffffff1681526020019081526020015f206002015f0160016101000a81548160ff02191690831515021790555050565b5f15155f5f3373ffffffffffffffffffffffffffffffffffffffff1673ffffffffffffffffffffffffffffffffffffffff1681526020019081526020015f206002015f0160019054906101000a900460ff161515146103f1576040517f08c379a00000000000000000000000000000000000000000000000000000000081526004016103e890610bb2565b60405180910390fd5b5f3411610433576040517f08c379a000000000000000000000000000000000000000000000000000000000815260040161042a90610c1a565b60405180910390fd5b345f5f3373ffffffffffffffffffffffffffffffffffffffff1673ffffffffffffffffffffffffffffffffffffffff1681526020019081526020015f205f015f015f8282546104829190610c65565b92505081905550425f5f3373ffffffffffffffffffffffffffffffffffffffff1673ffffffffffffffffffffffffffffffffffffffff1681526020019081526020015f205f0160010181905550565b5f5f8273ffffffffffffffffffffffffffffffffffffffff1673ffffffffffffffffffffffffffffffffffffffff1681526020019081526020015f205050565b5f604051905090565b5f5ffd5b5f5ffd5b5f5ffd5b5f5ffd5b5f601f19601f8301169050919050565b7f4e487b71000000000000000000000000000000000000000000000000000000005f52604160045260245ffd5b6105708261052a565b810181811067ffffffffffffffff8211171561058f5761058e61053a565b5b80604052505050565b5f6105a1610511565b90506105ad8282610567565b919050565b5f67ffffffffffffffff8211156105cc576105cb61053a565b5b6105d58261052a565b9050602081019050919050565b828183375f83830152505050565b5f6106026105fd846105b2565b610598565b90508281526020810184848401111561061e5761061d610526565b5b6106298482856105e2565b509392505050565b5f82601f83011261064557610644610522565b5b81356106558482602086016105f0565b91505092915050565b5f602082840312156106735761067261051a565b5b5f82013567ffffffffffffffff8111156106905761068f61051e565b5b61069c84828501610631565b91505092915050565b5f73ffffffffffffffffffffffffffffffffffffffff82169050919050565b5f6106ce826106a5565b9050919050565b6106de816106c4565b81146106e8575f5ffd5b50565b5f813590506106f9816106d5565b92915050565b5f602082840312156107145761071361051a565b5b5f610721848285016106eb565b91505092915050565b5f819050919050565b61073c8161072a565b82525050565b604082015f8201516107565f850182610733565b5060208201516107696020850182610733565b50505050565b5f8115159050919050565b6107838161076f565b82525050565b604082015f82015161079d5f85018261077a565b5060208201516107b0602085018261077a565b50505050565b5f81519050919050565b5f82825260208201905092915050565b8281835e5f83830152505050565b5f6107e8826107b6565b6107f281856107c0565b93506108028185602086016107d0565b61080b8161052a565b840191505092915050565b5f604083015f8301518482035f86015261083082826107de565b91505060208301516108456020860182610733565b508091505092915050565b5f60a0820190506108635f830186610742565b6108706040830185610789565b81810360808301526108828184610816565b9050949350505050565b7f4e487b71000000000000000000000000000000000000000000000000000000005f52602260045260245ffd5b5f60028204905060018216806108d057607f821691505b6020821081036108e3576108e261088c565b5b50919050565b5f819050815f5260205f209050919050565b5f6020601f8301049050919050565b5f82821b905092915050565b5f600883026109457fffffffffffffffffffffffffffffffffffffffffffffffffffffffffffffffff8261090a565b61094f868361090a565b95508019841693508086168417925050509392505050565b5f819050919050565b5f61098a6109856109808461072a565b610967565b61072a565b9050919050565b5f819050919050565b6109a383610970565b6109b76109af82610991565b848454610916565b825550505050565b5f5f905090565b6109ce6109bf565b6109d981848461099a565b505050565b5b818110156109fc576109f15f826109c6565b6001810190506109df565b5050565b601f821115610a4157610a12816108e9565b610a1b846108fb565b81016020851015610a2a578190505b610a3e610a36856108fb565b8301826109de565b50505b505050565b5f82821c905092915050565b5f610a615f1984600802610a46565b1980831691505092915050565b5f610a798383610a52565b9150826002028217905092915050565b610a92826107b6565b67ffffffffffffffff811115610aab57610aaa61053a565b5b610ab582546108b9565b610ac0828285610a00565b5f60209050601f831160018114610af1575f8415610adf578287015190505b610ae98582610a6e565b865550610b50565b601f198416610aff866108e9565b5f5b82811015610b2657848901518255600182019150602085019450602081019050610b01565b86831015610b435784890151610b3f601f891682610a52565b8355505b6001600288020188555050505b505050505050565b5f82825260208201905092915050565b7f4163636f756e742069732046524f5a454e0000000000000000000000000000005f82015250565b5f610b9c601183610b58565b9150610ba782610b68565b602082019050919050565b5f6020820190508181035f830152610bc981610b90565b9050919050565b7f4465706f73697420612076616c696420616d6f756e74000000000000000000005f82015250565b5f610c04601683610b58565b9150610c0f82610bd0565b602082019050919050565b5f6020820190508181035f830152610c3181610bf8565b9050919050565b7f4e487b71000000000000000000000000000000000000000000000000000000005f52601160045260245ffd5b5f610c6f8261072a565b9150610c7a8361072a565b9250828201905080821115610c9257610c91610c38565b5b9291505056fea2646970667358221220ac38aca5f0ff874cae0912187f942ebca8fba743b3407b8a3a600698f7a97be364736f6c634300081f0033",
					"opcodes": "PUSH1 0x80 PUSH1 0x40 MSTORE CALLVALUE DUP1 ISZERO PUSH1 0xE JUMPI PUSH0 PUSH0 REVERT JUMPDEST POP PUSH2 0xCCE DUP1 PUSH2 0x1C PUSH0 CODECOPY PUSH0 RETURN INVALID PUSH1 0x80 PUSH1 0x40 MSTORE PUSH1 0x4 CALLDATASIZE LT PUSH2 0x49 JUMPI PUSH0 CALLDATALOAD PUSH1 0xE0 SHR DUP1 PUSH4 0x40B2D3AF EQ PUSH2 0x4D JUMPI DUP1 PUSH4 0xA87430BA EQ PUSH2 0x75 JUMPI DUP1 PUSH4 0xAD14DEB1 EQ PUSH2 0xB3 JUMPI DUP1 PUSH4 0xED21248C EQ PUSH2 0xDB JUMPI DUP1 PUSH4 0xF8B2CB4F EQ PUSH2 0xE5 JUMPI JUMPDEST PUSH0 PUSH0 REVERT JUMPDEST CALLVALUE DUP1 ISZERO PUSH2 0x58 JUMPI PUSH0 PUSH0 REVERT JUMPDEST POP PUSH2 0x73 PUSH1 0x4 DUP1 CALLDATASIZE SUB DUP2 ADD SWAP1 PUSH2 0x6E SWAP2 SWAP1 PUSH2 0x65E JUMP JUMPDEST PUSH2 0x10D JUMP JUMPDEST STOP JUMPDEST CALLVALUE DUP1 ISZERO PUSH2 0x80 JUMPI PUSH0 PUSH0 REVERT JUMPDEST POP PUSH2 0x9B PUSH1 0x4 DUP1 CALLDATASIZE SUB DUP2 ADD SWAP1 PUSH2 0x96 SWAP2 SWAP1 PUSH2 0x6FF JUMP JUMPDEST PUSH2 0x1DE JUMP JUMPDEST PUSH1 0x40 MLOAD PUSH2 0xAA SWAP4 SWAP3 SWAP2 SWAP1 PUSH2 0x850 JUMP JUMPDEST PUSH1 0x40 MLOAD DUP1 SWAP2 SUB SWAP1 RETURN JUMPDEST CALLVALUE DUP1 ISZERO PUSH2 0xBE JUMPI PUSH0 PUSH0 REVERT JUMPDEST POP PUSH2 0xD9 PUSH1 0x4 DUP1 CALLDATASIZE SUB DUP2 ADD SWAP1 PUSH2 0xD4 SWAP2 SWAP1 PUSH2 0x6FF JUMP JUMPDEST PUSH2 0x300 JUMP JUMPDEST STOP JUMPDEST PUSH2 0xE3 PUSH2 0x35D JUMP JUMPDEST STOP JUMPDEST CALLVALUE DUP1 ISZERO PUSH2 0xF0 JUMPI PUSH0 PUSH0 REVERT JUMPDEST POP PUSH2 0x10B PUSH1 0x4 DUP1 CALLDATASIZE SUB DUP2 ADD SWAP1 PUSH2 0x106 SWAP2 SWAP1 PUSH2 0x6FF JUMP JUMPDEST PUSH2 0x4D1 JUMP JUMPDEST STOP JUMPDEST PUSH1 0x40 MLOAD DUP1 PUSH1 0x40 ADD PUSH1 0x40 MSTORE DUP1 DUP3 DUP2 MSTORE PUSH1 0x20 ADD TIMESTAMP DUP2 MSTORE POP PUSH0 PUSH0 CALLER PUSH20 0xFFFFFFFFFFFFFFFFFFFFFFFFFFFFFFFFFFFFFFFF AND PUSH20 0xFFFFFFFFFFFFFFFFFFFFFFFFFFFFFFFFFFFFFFFF AND DUP2 MSTORE PUSH1 0x20 ADD SWAP1 DUP2 MSTORE PUSH1 0x20 ADD PUSH0 KECCAK256 PUSH1 0x3 ADD PUSH0 DUP3 ADD MLOAD DUP2 PUSH0 ADD SWAP1 DUP2 PUSH2 0x174 SWAP2 SWAP1 PUSH2 0xA89 JUMP JUMPDEST POP PUSH1 0x20 DUP3 ADD MLOAD DUP2 PUSH1 0x1 ADD SSTORE SWAP1 POP POP PUSH0 PUSH0 PUSH0 CALLER PUSH20 0xFFFFFFFFFFFFFFFFFFFFFFFFFFFFFFFFFFFFFFFF AND PUSH20 0xFFFFFFFFFFFFFFFFFFFFFFFFFFFFFFFFFFFFFFFF AND DUP2 MSTORE PUSH1 0x20 ADD SWAP1 DUP2 MSTORE PUSH1 0x20 ADD PUSH0 KECCAK256 PUSH1 0x2 ADD PUSH0 ADD PUSH1 0x1 PUSH2 0x100 EXP DUP2 SLOAD DUP2 PUSH1 0xFF MUL NOT AND SWAP1 DUP4 ISZERO ISZERO MUL OR SWAP1 SSTORE POP POP JUMP JUMPDEST PUSH0 PUSH1 0x20 MSTORE DUP1 PUSH0 MSTORE PUSH1 0x40 PUSH0 KECCAK256 PUSH0 SWAP2 POP SWAP1 POP DUP1 PUSH0 ADD PUSH1 0x40 MLOAD DUP1 PUSH1 0x40 ADD PUSH1 0x40 MSTORE SWAP1 DUP2 PUSH0 DUP3 ADD SLOAD DUP2 MSTORE PUSH1 0x20 ADD PUSH1 0x1 DUP3 ADD SLOAD DUP2 MSTORE POP POP SWAP1 DUP1 PUSH1 0x2 ADD PUSH1 0x40 MLOAD DUP1 PUSH1 0x40 ADD PUSH1 0x40 MSTORE SWAP1 DUP2 PUSH0 DUP3 ADD PUSH0 SWAP1 SLOAD SWAP1 PUSH2 0x100 EXP SWAP1 DIV PUSH1 0xFF AND ISZERO ISZERO ISZERO ISZERO DUP2 MSTORE PUSH1 0x20 ADD PUSH0 DUP3 ADD PUSH1 0x1 SWAP1 SLOAD SWAP1 PUSH2 0x100 EXP SWAP1 DIV PUSH1 0xFF AND ISZERO ISZERO ISZERO ISZERO DUP2 MSTORE POP POP SWAP1 DUP1 PUSH1 0x3 ADD PUSH1 0x40 MLOAD DUP1 PUSH1 0x40 ADD PUSH1 0x40 MSTORE SWAP1 DUP2 PUSH0 DUP3 ADD DUP1 SLOAD PUSH2 0x271 SWAP1 PUSH2 0x8B9 JUMP JUMPDEST DUP1 PUSH1 0x1F ADD PUSH1 0x20 DUP1 SWAP2 DIV MUL PUSH1 0x20 ADD PUSH1 0x40 MLOAD SWAP1 DUP2 ADD PUSH1 0x40 MSTORE DUP1 SWAP3 SWAP2 SWAP1 DUP2 DUP2 MSTORE PUSH1 0x20 ADD DUP3 DUP1 SLOAD PUSH2 0x29D SWAP1 PUSH2 0x8B9 JUMP JUMPDEST DUP1 ISZERO PUSH2 0x2E8 JUMPI DUP1 PUSH1 0x1F LT PUSH2 0x2BF JUMPI PUSH2 0x100 DUP1 DUP4 SLOAD DIV MUL DUP4 MSTORE SWAP2 PUSH1 0x20 ADD SWAP2 PUSH2 0x2E8 JUMP JUMPDEST DUP3 ADD SWAP2 SWAP1 PUSH0 MSTORE PUSH1 0x20 PUSH0 KECCAK256 SWAP1 JUMPDEST DUP2 SLOAD DUP2 MSTORE SWAP1 PUSH1 0x1 ADD SWAP1 PUSH1 0x20 ADD DUP1 DUP4 GT PUSH2 0x2CB JUMPI DUP3 SWAP1 SUB PUSH1 0x1F AND DUP3 ADD SWAP2 JUMPDEST POP POP POP POP POP DUP2 MSTORE PUSH1 0x20 ADD PUSH1 0x1 DUP3 ADD SLOAD DUP2 MSTORE POP POP SWAP1 POP DUP4 JUMP JUMPDEST PUSH1 0x1 PUSH0 PUSH0 DUP4 PUSH20 0xFFFFFFFFFFFFFFFFFFFFFFFFFFFFFFFFFFFFFFFF AND PUSH20 0xFFFFFFFFFFFFFFFFFFFFFFFFFFFFFFFFFFFFFFFF AND DUP2 MSTORE PUSH1 0x20 ADD SWAP1 DUP2 MSTORE PUSH1 0x20 ADD PUSH0 KECCAK256 PUSH1 0x2 ADD PUSH0 ADD PUSH1 0x1 PUSH2 0x100 EXP DUP2 SLOAD DUP2 PUSH1 0xFF MUL NOT AND SWAP1 DUP4 ISZERO ISZERO MUL OR SWAP1 SSTORE POP POP JUMP JUMPDEST PUSH0 ISZERO ISZERO PUSH0 PUSH0 CALLER PUSH20 0xFFFFFFFFFFFFFFFFFFFFFFFFFFFFFFFFFFFFFFFF AND PUSH20 0xFFFFFFFFFFFFFFFFFFFFFFFFFFFFFFFFFFFFFFFF AND DUP2 MSTORE PUSH1 0x20 ADD SWAP1 DUP2 MSTORE PUSH1 0x20 ADD PUSH0 KECCAK256 PUSH1 0x2 ADD PUSH0 ADD PUSH1 0x1 SWAP1 SLOAD SWAP1 PUSH2 0x100 EXP SWAP1 DIV PUSH1 0xFF AND ISZERO ISZERO EQ PUSH2 0x3F1 JUMPI PUSH1 0x40 MLOAD PUSH32 0x8C379A000000000000000000000000000000000000000000000000000000000 DUP2 MSTORE PUSH1 0x4 ADD PUSH2 0x3E8 SWAP1 PUSH2 0xBB2 JUMP JUMPDEST PUSH1 0x40 MLOAD DUP1 SWAP2 SUB SWAP1 REVERT JUMPDEST PUSH0 CALLVALUE GT PUSH2 0x433 JUMPI PUSH1 0x40 MLOAD PUSH32 0x8C379A000000000000000000000000000000000000000000000000000000000 DUP2 MSTORE PUSH1 0x4 ADD PUSH2 0x42A SWAP1 PUSH2 0xC1A JUMP JUMPDEST PUSH1 0x40 MLOAD DUP1 SWAP2 SUB SWAP1 REVERT JUMPDEST CALLVALUE PUSH0 PUSH0 CALLER PUSH20 0xFFFFFFFFFFFFFFFFFFFFFFFFFFFFFFFFFFFFFFFF AND PUSH20 0xFFFFFFFFFFFFFFFFFFFFFFFFFFFFFFFFFFFFFFFF AND DUP2 MSTORE PUSH1 0x20 ADD SWAP1 DUP2 MSTORE PUSH1 0x20 ADD PUSH0 KECCAK256 PUSH0 ADD PUSH0 ADD PUSH0 DUP3 DUP3 SLOAD PUSH2 0x482 SWAP2 SWAP1 PUSH2 0xC65 JUMP JUMPDEST SWAP3 POP POP DUP2 SWAP1 SSTORE POP TIMESTAMP PUSH0 PUSH0 CALLER PUSH20 0xFFFFFFFFFFFFFFFFFFFFFFFFFFFFFFFFFFFFFFFF AND PUSH20 0xFFFFFFFFFFFFFFFFFFFFFFFFFFFFFFFFFFFFFFFF AND DUP2 MSTORE PUSH1 0x20 ADD SWAP1 DUP2 MSTORE PUSH1 0x20 ADD PUSH0 KECCAK256 PUSH0 ADD PUSH1 0x1 ADD DUP2 SWAP1 SSTORE POP JUMP JUMPDEST PUSH0 PUSH0 DUP3 PUSH20 0xFFFFFFFFFFFFFFFFFFFFFFFFFFFFFFFFFFFFFFFF AND PUSH20 0xFFFFFFFFFFFFFFFFFFFFFFFFFFFFFFFFFFFFFFFF AND DUP2 MSTORE PUSH1 0x20 ADD SWAP1 DUP2 MSTORE PUSH1 0x20 ADD PUSH0 KECCAK256 POP POP JUMP JUMPDEST PUSH0 PUSH1 0x40 MLOAD SWAP1 POP SWAP1 JUMP JUMPDEST PUSH0 PUSH0 REVERT JUMPDEST PUSH0 PUSH0 REVERT JUMPDEST PUSH0 PUSH0 REVERT JUMPDEST PUSH0 PUSH0 REVERT JUMPDEST PUSH0 PUSH1 0x1F NOT PUSH1 0x1F DUP4 ADD AND SWAP1 POP SWAP2 SWAP1 POP JUMP JUMPDEST PUSH32 0x4E487B7100000000000000000000000000000000000000000000000000000000 PUSH0 MSTORE PUSH1 0x41 PUSH1 0x4 MSTORE PUSH1 0x24 PUSH0 REVERT JUMPDEST PUSH2 0x570 DUP3 PUSH2 0x52A JUMP JUMPDEST DUP2 ADD DUP2 DUP2 LT PUSH8 0xFFFFFFFFFFFFFFFF DUP3 GT OR ISZERO PUSH2 0x58F JUMPI PUSH2 0x58E PUSH2 0x53A JUMP JUMPDEST JUMPDEST DUP1 PUSH1 0x40 MSTORE POP POP POP JUMP JUMPDEST PUSH0 PUSH2 0x5A1 PUSH2 0x511 JUMP JUMPDEST SWAP1 POP PUSH2 0x5AD DUP3 DUP3 PUSH2 0x567 JUMP JUMPDEST SWAP2 SWAP1 POP JUMP JUMPDEST PUSH0 PUSH8 0xFFFFFFFFFFFFFFFF DUP3 GT ISZERO PUSH2 0x5CC JUMPI PUSH2 0x5CB PUSH2 0x53A JUMP JUMPDEST JUMPDEST PUSH2 0x5D5 DUP3 PUSH2 0x52A JUMP JUMPDEST SWAP1 POP PUSH1 0x20 DUP2 ADD SWAP1 POP SWAP2 SWAP1 POP JUMP JUMPDEST DUP3 DUP2 DUP4 CALLDATACOPY PUSH0 DUP4 DUP4 ADD MSTORE POP POP POP JUMP JUMPDEST PUSH0 PUSH2 0x602 PUSH2 0x5FD DUP5 PUSH2 0x5B2 JUMP JUMPDEST PUSH2 0x598 JUMP JUMPDEST SWAP1 POP DUP3 DUP2 MSTORE PUSH1 0x20 DUP2 ADD DUP5 DUP5 DUP5 ADD GT ISZERO PUSH2 0x61E JUMPI PUSH2 0x61D PUSH2 0x526 JUMP JUMPDEST JUMPDEST PUSH2 0x629 DUP5 DUP3 DUP6 PUSH2 0x5E2 JUMP JUMPDEST POP SWAP4 SWAP3 POP POP POP JUMP JUMPDEST PUSH0 DUP3 PUSH1 0x1F DUP4 ADD SLT PUSH2 0x645 JUMPI PUSH2 0x644 PUSH2 0x522 JUMP JUMPDEST JUMPDEST DUP2 CALLDATALOAD PUSH2 0x655 DUP5 DUP3 PUSH1 0x20 DUP7 ADD PUSH2 0x5F0 JUMP JUMPDEST SWAP2 POP POP SWAP3 SWAP2 POP POP JUMP JUMPDEST PUSH0 PUSH1 0x20 DUP3 DUP5 SUB SLT ISZERO PUSH2 0x673 JUMPI PUSH2 0x672 PUSH2 0x51A JUMP JUMPDEST JUMPDEST PUSH0 DUP3 ADD CALLDATALOAD PUSH8 0xFFFFFFFFFFFFFFFF DUP2 GT ISZERO PUSH2 0x690 JUMPI PUSH2 0x68F PUSH2 0x51E JUMP JUMPDEST JUMPDEST PUSH2 0x69C DUP5 DUP3 DUP6 ADD PUSH2 0x631 JUMP JUMPDEST SWAP2 POP POP SWAP3 SWAP2 POP POP JUMP JUMPDEST PUSH0 PUSH20 0xFFFFFFFFFFFFFFFFFFFFFFFFFFFFFFFFFFFFFFFF DUP3 AND SWAP1 POP SWAP2 SWAP1 POP JUMP JUMPDEST PUSH0 PUSH2 0x6CE DUP3 PUSH2 0x6A5 JUMP JUMPDEST SWAP1 POP SWAP2 SWAP1 POP JUMP JUMPDEST PUSH2 0x6DE DUP2 PUSH2 0x6C4 JUMP JUMPDEST DUP2 EQ PUSH2 0x6E8 JUMPI PUSH0 PUSH0 REVERT JUMPDEST POP JUMP JUMPDEST PUSH0 DUP2 CALLDATALOAD SWAP1 POP PUSH2 0x6F9 DUP2 PUSH2 0x6D5 JUMP JUMPDEST SWAP3 SWAP2 POP POP JUMP JUMPDEST PUSH0 PUSH1 0x20 DUP3 DUP5 SUB SLT ISZERO PUSH2 0x714 JUMPI PUSH2 0x713 PUSH2 0x51A JUMP JUMPDEST JUMPDEST PUSH0 PUSH2 0x721 DUP5 DUP3 DUP6 ADD PUSH2 0x6EB JUMP JUMPDEST SWAP2 POP POP SWAP3 SWAP2 POP POP JUMP JUMPDEST PUSH0 DUP2 SWAP1 POP SWAP2 SWAP1 POP JUMP JUMPDEST PUSH2 0x73C DUP2 PUSH2 0x72A JUMP JUMPDEST DUP3 MSTORE POP POP JUMP JUMPDEST PUSH1 0x40 DUP3 ADD PUSH0 DUP3 ADD MLOAD PUSH2 0x756 PUSH0 DUP6 ADD DUP3 PUSH2 0x733 JUMP JUMPDEST POP PUSH1 0x20 DUP3 ADD MLOAD PUSH2 0x769 PUSH1 0x20 DUP6 ADD DUP3 PUSH2 0x733 JUMP JUMPDEST POP POP POP POP JUMP JUMPDEST PUSH0 DUP2 ISZERO ISZERO SWAP1 POP SWAP2 SWAP1 POP JUMP JUMPDEST PUSH2 0x783 DUP2 PUSH2 0x76F JUMP JUMPDEST DUP3 MSTORE POP POP JUMP JUMPDEST PUSH1 0x40 DUP3 ADD PUSH0 DUP3 ADD MLOAD PUSH2 0x79D PUSH0 DUP6 ADD DUP3 PUSH2 0x77A JUMP JUMPDEST POP PUSH1 0x20 DUP3 ADD MLOAD PUSH2 0x7B0 PUSH1 0x20 DUP6 ADD DUP3 PUSH2 0x77A JUMP JUMPDEST POP POP POP POP JUMP JUMPDEST PUSH0 DUP2 MLOAD SWAP1 POP SWAP2 SWAP1 POP JUMP JUMPDEST PUSH0 DUP3 DUP3 MSTORE PUSH1 0x20 DUP3 ADD SWAP1 POP SWAP3 SWAP2 POP POP JUMP JUMPDEST DUP3 DUP2 DUP4 MCOPY PUSH0 DUP4 DUP4 ADD MSTORE POP POP POP JUMP JUMPDEST PUSH0 PUSH2 0x7E8 DUP3 PUSH2 0x7B6 JUMP JUMPDEST PUSH2 0x7F2 DUP2 DUP6 PUSH2 0x7C0 JUMP JUMPDEST SWAP4 POP PUSH2 0x802 DUP2 DUP6 PUSH1 0x20 DUP7 ADD PUSH2 0x7D0 JUMP JUMPDEST PUSH2 0x80B DUP2 PUSH2 0x52A JUMP JUMPDEST DUP5 ADD SWAP2 POP POP SWAP3 SWAP2 POP POP JUMP JUMPDEST PUSH0 PUSH1 0x40 DUP4 ADD PUSH0 DUP4 ADD MLOAD DUP5 DUP3 SUB PUSH0 DUP7 ADD MSTORE PUSH2 0x830 DUP3 DUP3 PUSH2 0x7DE JUMP JUMPDEST SWAP2 POP POP PUSH1 0x20 DUP4 ADD MLOAD PUSH2 0x845 PUSH1 0x20 DUP7 ADD DUP3 PUSH2 0x733 JUMP JUMPDEST POP DUP1 SWAP2 POP POP SWAP3 SWAP2 POP POP JUMP JUMPDEST PUSH0 PUSH1 0xA0 DUP3 ADD SWAP1 POP PUSH2 0x863 PUSH0 DUP4 ADD DUP7 PUSH2 0x742 JUMP JUMPDEST PUSH2 0x870 PUSH1 0x40 DUP4 ADD DUP6 PUSH2 0x789 JUMP JUMPDEST DUP2 DUP2 SUB PUSH1 0x80 DUP4 ADD MSTORE PUSH2 0x882 DUP2 DUP5 PUSH2 0x816 JUMP JUMPDEST SWAP1 POP SWAP5 SWAP4 POP POP POP POP JUMP JUMPDEST PUSH32 0x4E487B7100000000000000000000000000000000000000000000000000000000 PUSH0 MSTORE PUSH1 0x22 PUSH1 0x4 MSTORE PUSH1 0x24 PUSH0 REVERT JUMPDEST PUSH0 PUSH1 0x2 DUP3 DIV SWAP1 POP PUSH1 0x1 DUP3 AND DUP1 PUSH2 0x8D0 JUMPI PUSH1 0x7F DUP3 AND SWAP2 POP JUMPDEST PUSH1 0x20 DUP3 LT DUP2 SUB PUSH2 0x8E3 JUMPI PUSH2 0x8E2 PUSH2 0x88C JUMP JUMPDEST JUMPDEST POP SWAP2 SWAP1 POP JUMP JUMPDEST PUSH0 DUP2 SWAP1 POP DUP2 PUSH0 MSTORE PUSH1 0x20 PUSH0 KECCAK256 SWAP1 POP SWAP2 SWAP1 POP JUMP JUMPDEST PUSH0 PUSH1 0x20 PUSH1 0x1F DUP4 ADD DIV SWAP1 POP SWAP2 SWAP1 POP JUMP JUMPDEST PUSH0 DUP3 DUP3 SHL SWAP1 POP SWAP3 SWAP2 POP POP JUMP JUMPDEST PUSH0 PUSH1 0x8 DUP4 MUL PUSH2 0x945 PUSH32 0xFFFFFFFFFFFFFFFFFFFFFFFFFFFFFFFFFFFFFFFFFFFFFFFFFFFFFFFFFFFFFFFF DUP3 PUSH2 0x90A JUMP JUMPDEST PUSH2 0x94F DUP7 DUP4 PUSH2 0x90A JUMP JUMPDEST SWAP6 POP DUP1 NOT DUP5 AND SWAP4 POP DUP1 DUP7 AND DUP5 OR SWAP3 POP POP POP SWAP4 SWAP3 POP POP POP JUMP JUMPDEST PUSH0 DUP2 SWAP1 POP SWAP2 SWAP1 POP JUMP JUMPDEST PUSH0 PUSH2 0x98A PUSH2 0x985 PUSH2 0x980 DUP5 PUSH2 0x72A JUMP JUMPDEST PUSH2 0x967 JUMP JUMPDEST PUSH2 0x72A JUMP JUMPDEST SWAP1 POP SWAP2 SWAP1 POP JUMP JUMPDEST PUSH0 DUP2 SWAP1 POP SWAP2 SWAP1 POP JUMP JUMPDEST PUSH2 0x9A3 DUP4 PUSH2 0x970 JUMP JUMPDEST PUSH2 0x9B7 PUSH2 0x9AF DUP3 PUSH2 0x991 JUMP JUMPDEST DUP5 DUP5 SLOAD PUSH2 0x916 JUMP JUMPDEST DUP3 SSTORE POP POP POP POP JUMP JUMPDEST PUSH0 PUSH0 SWAP1 POP SWAP1 JUMP JUMPDEST PUSH2 0x9CE PUSH2 0x9BF JUMP JUMPDEST PUSH2 0x9D9 DUP2 DUP5 DUP5 PUSH2 0x99A JUMP JUMPDEST POP POP POP JUMP JUMPDEST JUMPDEST DUP2 DUP2 LT ISZERO PUSH2 0x9FC JUMPI PUSH2 0x9F1 PUSH0 DUP3 PUSH2 0x9C6 JUMP JUMPDEST PUSH1 0x1 DUP2 ADD SWAP1 POP PUSH2 0x9DF JUMP JUMPDEST POP POP JUMP JUMPDEST PUSH1 0x1F DUP3 GT ISZERO PUSH2 0xA41 JUMPI PUSH2 0xA12 DUP2 PUSH2 0x8E9 JUMP JUMPDEST PUSH2 0xA1B DUP5 PUSH2 0x8FB JUMP JUMPDEST DUP2 ADD PUSH1 0x20 DUP6 LT ISZERO PUSH2 0xA2A JUMPI DUP2 SWAP1 POP JUMPDEST PUSH2 0xA3E PUSH2 0xA36 DUP6 PUSH2 0x8FB JUMP JUMPDEST DUP4 ADD DUP3 PUSH2 0x9DE JUMP JUMPDEST POP POP JUMPDEST POP POP POP JUMP JUMPDEST PUSH0 DUP3 DUP3 SHR SWAP1 POP SWAP3 SWAP2 POP POP JUMP JUMPDEST PUSH0 PUSH2 0xA61 PUSH0 NOT DUP5 PUSH1 0x8 MUL PUSH2 0xA46 JUMP JUMPDEST NOT DUP1 DUP4 AND SWAP2 POP POP SWAP3 SWAP2 POP POP JUMP JUMPDEST PUSH0 PUSH2 0xA79 DUP4 DUP4 PUSH2 0xA52 JUMP JUMPDEST SWAP2 POP DUP3 PUSH1 0x2 MUL DUP3 OR SWAP1 POP SWAP3 SWAP2 POP POP JUMP JUMPDEST PUSH2 0xA92 DUP3 PUSH2 0x7B6 JUMP JUMPDEST PUSH8 0xFFFFFFFFFFFFFFFF DUP2 GT ISZERO PUSH2 0xAAB JUMPI PUSH2 0xAAA PUSH2 0x53A JUMP JUMPDEST JUMPDEST PUSH2 0xAB5 DUP3 SLOAD PUSH2 0x8B9 JUMP JUMPDEST PUSH2 0xAC0 DUP3 DUP3 DUP6 PUSH2 0xA00 JUMP JUMPDEST PUSH0 PUSH1 0x20 SWAP1 POP PUSH1 0x1F DUP4 GT PUSH1 0x1 DUP2 EQ PUSH2 0xAF1 JUMPI PUSH0 DUP5 ISZERO PUSH2 0xADF JUMPI DUP3 DUP8 ADD MLOAD SWAP1 POP JUMPDEST PUSH2 0xAE9 DUP6 DUP3 PUSH2 0xA6E JUMP JUMPDEST DUP7 SSTORE POP PUSH2 0xB50 JUMP JUMPDEST PUSH1 0x1F NOT DUP5 AND PUSH2 0xAFF DUP7 PUSH2 0x8E9 JUMP JUMPDEST PUSH0 JUMPDEST DUP3 DUP2 LT ISZERO PUSH2 0xB26 JUMPI DUP5 DUP10 ADD MLOAD DUP3 SSTORE PUSH1 0x1 DUP3 ADD SWAP2 POP PUSH1 0x20 DUP6 ADD SWAP5 POP PUSH1 0x20 DUP2 ADD SWAP1 POP PUSH2 0xB01 JUMP JUMPDEST DUP7 DUP4 LT ISZERO PUSH2 0xB43 JUMPI DUP5 DUP10 ADD MLOAD PUSH2 0xB3F PUSH1 0x1F DUP10 AND DUP3 PUSH2 0xA52 JUMP JUMPDEST DUP4 SSTORE POP JUMPDEST PUSH1 0x1 PUSH1 0x2 DUP9 MUL ADD DUP9 SSTORE POP POP POP JUMPDEST POP POP POP POP POP POP JUMP JUMPDEST PUSH0 DUP3 DUP3 MSTORE PUSH1 0x20 DUP3 ADD SWAP1 POP SWAP3 SWAP2 POP POP JUMP JUMPDEST PUSH32 0x4163636F756E742069732046524F5A454E000000000000000000000000000000 PUSH0 DUP3 ADD MSTORE POP JUMP JUMPDEST PUSH0 PUSH2 0xB9C PUSH1 0x11 DUP4 PUSH2 0xB58 JUMP JUMPDEST SWAP2 POP PUSH2 0xBA7 DUP3 PUSH2 0xB68 JUMP JUMPDEST PUSH1 0x20 DUP3 ADD SWAP1 POP SWAP2 SWAP1 POP JUMP JUMPDEST PUSH0 PUSH1 0x20 DUP3 ADD SWAP1 POP DUP2 DUP2 SUB PUSH0 DUP4 ADD MSTORE PUSH2 0xBC9 DUP2 PUSH2 0xB90 JUMP JUMPDEST SWAP1 POP SWAP2 SWAP1 POP JUMP JUMPDEST PUSH32 0x4465706F73697420612076616C696420616D6F756E7400000000000000000000 PUSH0 DUP3 ADD MSTORE POP JUMP JUMPDEST PUSH0 PUSH2 0xC04 PUSH1 0x16 DUP4 PUSH2 0xB58 JUMP JUMPDEST SWAP2 POP PUSH2 0xC0F DUP3 PUSH2 0xBD0 JUMP JUMPDEST PUSH1 0x20 DUP3 ADD SWAP1 POP SWAP2 SWAP1 POP JUMP JUMPDEST PUSH0 PUSH1 0x20 DUP3 ADD SWAP1 POP DUP2 DUP2 SUB PUSH0 DUP4 ADD MSTORE PUSH2 0xC31 DUP2 PUSH2 0xBF8 JUMP JUMPDEST SWAP1 POP SWAP2 SWAP1 POP JUMP JUMPDEST PUSH32 0x4E487B7100000000000000000000000000000000000000000000000000000000 PUSH0 MSTORE PUSH1 0x11 PUSH1 0x4 MSTORE PUSH1 0x24 PUSH0 REVERT JUMPDEST PUSH0 PUSH2 0xC6F DUP3 PUSH2 0x72A JUMP JUMPDEST SWAP2 POP PUSH2 0xC7A DUP4 PUSH2 0x72A JUMP JUMPDEST SWAP3 POP DUP3 DUP3 ADD SWAP1 POP DUP1 DUP3 GT ISZERO PUSH2 0xC92 JUMPI PUSH2 0xC91 PUSH2 0xC38 JUMP JUMPDEST JUMPDEST SWAP3 SWAP2 POP POP JUMP INVALID LOG2 PUSH5 0x6970667358 0x22 SLT KECCAK256 0xAC CODESIZE 0xAC 0xA5 CREATE SELFDESTRUCT DUP8 0x4C 0xAE MULMOD SLT XOR PUSH32 0x942EBCA8FBA743B3407B8A3A600698F7A97BE364736F6C634300081F00330000 "
				},
				"gasEstimates": {
					"creation": {
						"codeDepositCost": "655600",
						"executionCost": "687",
						"totalCost": "656287"
					},
					"external": {
						"Deposit()": "infinite",
						"Register(string)": "infinite",
						"frozeProfile(address)": "24886",
						"getBalance(address)": "607",
						"users(address)": "infinite"
					}
				},
				"methodIdentifiers": {
					"Deposit()": "ed21248c",
					"Register(string)": "40b2d3af",
					"frozeProfile(address)": "ad14deb1",
					"getBalance(address)": "f8b2cb4f",
					"users(address)": "a87430ba"
				}
			},
			"storageLayout": {
				"storage": [
					{
						"astId": 31,
						"contract": "W3day1.sol:NestedStruct",
						"label": "users",
						"offset": 0,
						"slot": "0",
						"type": "t_mapping(t_address,t_struct(User)26_storage)"
					}
				],
				"types": {
					"t_address": {
						"encoding": "inplace",
						"label": "address",
						"numberOfBytes": "20"
					},
					"t_bool": {
						"encoding": "inplace",
						"label": "bool",
						"numberOfBytes": "1"
					},
					"t_mapping(t_address,t_struct(User)26_storage)": {
						"encoding": "mapping",
						"key": "t_address",
						"label": "mapping(address => struct NestedStruct.User)",
						"numberOfBytes": "32",
						"value": "t_struct(User)26_storage"
					},
					"t_string_storage": {
						"encoding": "bytes",
						"label": "string",
						"numberOfBytes": "32"
					},
					"t_struct(Profile)16_storage": {
						"encoding": "inplace",
						"label": "struct NestedStruct.Profile",
						"members": [
							{
								"astId": 13,
								"contract": "W3day1.sol:NestedStruct",
								"label": "username",
								"offset": 0,
								"slot": "0",
								"type": "t_string_storage"
							},
							{
								"astId": 15,
								"contract": "W3day1.sol:NestedStruct",
								"label": "createdAt",
								"offset": 0,
								"slot": "1",
								"type": "t_uint256"
							}
						],
						"numberOfBytes": "64"
					},
					"t_struct(Security)11_storage": {
						"encoding": "inplace",
						"label": "struct NestedStruct.Security",
						"members": [
							{
								"astId": 8,
								"contract": "W3day1.sol:NestedStruct",
								"label": "twoFAenabled",
								"offset": 0,
								"slot": "0",
								"type": "t_bool"
							},
							{
								"astId": 10,
								"contract": "W3day1.sol:NestedStruct",
								"label": "isFrozen",
								"offset": 1,
								"slot": "0",
								"type": "t_bool"
							}
						],
						"numberOfBytes": "32"
					},
					"t_struct(User)26_storage": {
						"encoding": "inplace",
						"label": "struct NestedStruct.User",
						"members": [
							{
								"astId": 19,
								"contract": "W3day1.sol:NestedStruct",
								"label": "wallet",
								"offset": 0,
								"slot": "0",
								"type": "t_struct(Wallet)6_storage"
							},
							{
								"astId": 22,
								"contract": "W3day1.sol:NestedStruct",
								"label": "security",
								"offset": 0,
								"slot": "2",
								"type": "t_struct(Security)11_storage"
							},
							{
								"astId": 25,
								"contract": "W3day1.sol:NestedStruct",
								"label": "profile",
								"offset": 0,
								"slot": "3",
								"type": "t_struct(Profile)16_storage"
							}
						],
						"numberOfBytes": "160"
					},
					"t_struct(Wallet)6_storage": {
						"encoding": "inplace",
						"label": "struct NestedStruct.Wallet",
						"members": [
							{
								"astId": 3,
								"contract": "W3day1.sol:NestedStruct",
								"label": "balance",
								"offset": 0,
								"slot": "0",
								"type": "t_uint256"
							},
							{
								"astId": 5,
								"contract": "W3day1.sol:NestedStruct",
								"label": "lastDeposit",
								"offset": 0,
								"slot": "1",
								"type": "t_uint256"
							}
						],
						"numberOfBytes": "64"
					},
					"t_uint256": {
						"encoding": "inplace",
						"label": "uint256",
						"numberOfBytes": "32"
					}
				}
			},
			"userdoc": {
				"kind": "user",
				"methods": {},
				"version": 1
			}
		}
	}
}