{
	"AdminControlledRegistry.sol": {
		"AdminControlledRegistry": {
			"abi": [
				{
					"inputs": [],
					"stateMutability": "nonpayable",
					"type": "constructor"
				},
				{
					"inputs": [],
					"name": "notAnAdmin",
					"type": "error"
				},
				{
					"anonymous": false,
					"inputs": [
						{
							"indexed": false,
							"internalType": "string",
							"name": "_fullName",
							"type": "string"
						},
						{
							"indexed": false,
							"internalType": "uint256",
							"name": "YOB",
							"type": "uint256"
						},
						{
							"indexed": false,
							"internalType": "enum AdminControlledRegistry.Gender",
							"name": "gender",
							"type": "uint8"
						},
						{
							"indexed": false,
							"internalType": "string",
							"name": "emailAddress",
							"type": "string"
						}
					],
					"name": "DataSubmitted",
					"type": "event"
				},
				{
					"inputs": [
						{
							"internalType": "enum AdminControlledRegistry.RequestType",
							"name": "_requestType",
							"type": "uint8"
						},
						{
							"internalType": "string",
							"name": "_purpose",
							"type": "string"
						},
						{
							"internalType": "uint256",
							"name": "_Idn",
							"type": "uint256"
						}
					],
					"name": "AddDetails",
					"outputs": [],
					"stateMutability": "nonpayable",
					"type": "function"
				},
				{
					"inputs": [
						{
							"internalType": "address",
							"name": "",
							"type": "address"
						}
					],
					"name": "genders",
					"outputs": [
						{
							"internalType": "enum AdminControlledRegistry.Gender",
							"name": "",
							"type": "uint8"
						}
					],
					"stateMutability": "view",
					"type": "function"
				},
				{
					"inputs": [],
					"name": "owner",
					"outputs": [
						{
							"internalType": "address",
							"name": "",
							"type": "address"
						}
					],
					"stateMutability": "view",
					"type": "function"
				},
				{
					"inputs": [
						{
							"internalType": "address",
							"name": "",
							"type": "address"
						}
					],
					"name": "roles",
					"outputs": [
						{
							"internalType": "enum AdminControlledRegistry.Role",
							"name": "",
							"type": "uint8"
						}
					],
					"stateMutability": "view",
					"type": "function"
				},
				{
					"inputs": [
						{
							"internalType": "string",
							"name": "_fullName",
							"type": "string"
						},
						{
							"internalType": "enum AdminControlledRegistry.Gender",
							"name": "_gender",
							"type": "uint8"
						},
						{
							"internalType": "uint256",
							"name": "_YOB",
							"type": "uint256"
						},
						{
							"internalType": "string",
							"name": "_email",
							"type": "string"
						}
					],
					"name": "submitData",
					"outputs": [],
					"stateMutability": "nonpayable",
					"type": "function"
				},
				{
					"inputs": [
						{
							"internalType": "address",
							"name": "",
							"type": "address"
						}
					],
					"name": "users",
					"outputs": [
						{
							"components": [
								{
									"internalType": "string",
									"name": "fullName",
									"type": "string"
								},
								{
									"internalType": "uint256",
									"name": "YOB",
									"type": "uint256"
								},
								{
									"internalType": "enum AdminControlledRegistry.Gender",
									"name": "gender",
									"type": "uint8"
								},
								{
									"internalType": "string",
									"name": "emailAddress",
									"type": "string"
								}
							],
							"internalType": "struct AdminControlledRegistry.UserInformation",
							"name": "userInformation",
							"type": "tuple"
						},
						{
							"components": [
								{
									"internalType": "enum AdminControlledRegistry.RequestType",
									"name": "typeRequest",
									"type": "uint8"
								},
								{
									"internalType": "string",
									"name": "purpose",
									"type": "string"
								},
								{
									"internalType": "uint256",
									"name": "idN",
									"type": "uint256"
								}
							],
							"internalType": "struct AdminControlledRegistry.RegistrationDetails",
							"name": "regDetails",
							"type": "tuple"
						}
					],
					"stateMutability": "view",
					"type": "function"
				}
			],
			"devdoc": {
				"kind": "dev",
				"methods": {},
				"version": 1
			},
			"evm": {
				"assembly": "    /* \"AdminControlledRegistry.sol\":212:1961  contract AdminControlledRegistry{... */\n  mstore(0x40, 0x80)\n    /* \"AdminControlledRegistry.sol\":282:333  constructor() {... */\n  callvalue\n  dup1\n  iszero\n  tag_1\n  jumpi\n  revert(0x00, 0x00)\ntag_1:\n  pop\n    /* \"AdminControlledRegistry.sol\":315:325  msg.sender */\n  caller\n    /* \"AdminControlledRegistry.sol\":307:312  owner */\n  0x00\n  0x00\n    /* \"AdminControlledRegistry.sol\":307:325  owner = msg.sender */\n  0x0100\n  exp\n  dup2\n  sload\n  dup2\n  0xffffffffffffffffffffffffffffffffffffffff\n  mul\n  not\n  and\n  swap1\n  dup4\n  0xffffffffffffffffffffffffffffffffffffffff\n  and\n  mul\n  or\n  swap1\n  sstore\n  pop\n    /* \"AdminControlledRegistry.sol\":212:1961  contract AdminControlledRegistry{... */\n  dataSize(sub_0)\n  dup1\n  dataOffset(sub_0)\n  0x00\n  codecopy\n  0x00\n  return\nstop\n\nsub_0: assembly {\n        /* \"AdminControlledRegistry.sol\":212:1961  contract AdminControlledRegistry{... */\n      mstore(0x40, 0x80)\n      callvalue\n      dup1\n      iszero\n      tag_1\n      jumpi\n      revert(0x00, 0x00)\n    tag_1:\n      pop\n      jumpi(tag_2, lt(calldatasize, 0x04))\n      shr(0xe0, calldataload(0x00))\n      dup1\n      0x07d2a101\n      eq\n      tag_3\n      jumpi\n      dup1\n      0x8da5cb5b\n      eq\n      tag_4\n      jumpi\n      dup1\n      0x99374642\n      eq\n      tag_5\n      jumpi\n      dup1\n      0x9cab8d95\n      eq\n      tag_6\n      jumpi\n      dup1\n      0xa87430ba\n      eq\n      tag_7\n      jumpi\n      dup1\n      0xe482656d\n      eq\n      tag_8\n      jumpi\n    tag_2:\n      revert(0x00, 0x00)\n        /* \"AdminControlledRegistry.sol\":1047:1088  mapping(address => Gender) public genders */\n    tag_3:\n      tag_9\n      0x04\n      dup1\n      calldatasize\n      sub\n      dup2\n      add\n      swap1\n      tag_10\n      swap2\n      swap1\n      tag_11\n      jump\t// in\n    tag_10:\n      tag_12\n      jump\t// in\n    tag_9:\n      mload(0x40)\n      tag_13\n      swap2\n      swap1\n      tag_14\n      jump\t// in\n    tag_13:\n      mload(0x40)\n      dup1\n      swap2\n      sub\n      swap1\n      return\n        /* \"AdminControlledRegistry.sol\":253:273  address public owner */\n    tag_4:\n      tag_15\n      tag_16\n      jump\t// in\n    tag_15:\n      mload(0x40)\n      tag_17\n      swap2\n      swap1\n      tag_18\n      jump\t// in\n    tag_17:\n      mload(0x40)\n      dup1\n      swap2\n      sub\n      swap1\n      return\n        /* \"AdminControlledRegistry.sol\":1003:1040  mapping(address => Role) public roles */\n    tag_5:\n      tag_19\n      0x04\n      dup1\n      calldatasize\n      sub\n      dup2\n      add\n      swap1\n      tag_20\n      swap2\n      swap1\n      tag_11\n      jump\t// in\n    tag_20:\n      tag_21\n      jump\t// in\n    tag_19:\n      mload(0x40)\n      tag_22\n      swap2\n      swap1\n      tag_23\n      jump\t// in\n    tag_22:\n      mload(0x40)\n      dup1\n      swap2\n      sub\n      swap1\n      return\n        /* \"AdminControlledRegistry.sol\":1687:1956  function AddDetails(RequestType _requestType, string memory _purpose, uint256 _Idn)public{... */\n    tag_6:\n      tag_24\n      0x04\n      dup1\n      calldatasize\n      sub\n      dup2\n      add\n      swap1\n      tag_25\n      swap2\n      swap1\n      tag_26\n      jump\t// in\n    tag_25:\n      tag_27\n      jump\t// in\n    tag_24:\n      stop\n        /* \"AdminControlledRegistry.sol\":959:996  mapping(address => User) public users */\n    tag_7:\n      tag_28\n      0x04\n      dup1\n      calldatasize\n      sub\n      dup2\n      add\n      swap1\n      tag_29\n      swap2\n      swap1\n      tag_11\n      jump\t// in\n    tag_29:\n      tag_30\n      jump\t// in\n    tag_28:\n      mload(0x40)\n      tag_31\n      swap3\n      swap2\n      swap1\n      tag_32\n      jump\t// in\n    tag_31:\n      mload(0x40)\n      dup1\n      swap2\n      sub\n      swap1\n      return\n        /* \"AdminControlledRegistry.sol\":1320:1679  function submitData(string memory _fullName, Gender _gender, uint256 _YOB, string memory _email) public {... */\n    tag_8:\n      tag_33\n      0x04\n      dup1\n      calldatasize\n      sub\n      dup2\n      add\n      swap1\n      tag_34\n      swap2\n      swap1\n      tag_35\n      jump\t// in\n    tag_34:\n      tag_36\n      jump\t// in\n    tag_33:\n      stop\n        /* \"AdminControlledRegistry.sol\":1047:1088  mapping(address => Gender) public genders */\n    tag_12:\n      mstore(0x20, 0x03)\n      dup1\n      0x00\n      mstore\n      keccak256(0x00, 0x40)\n      0x00\n      swap2\n      pop\n      sload\n      swap1\n      0x0100\n      exp\n      swap1\n      div\n      0xff\n      and\n      dup2\n      jump\t// out\n        /* \"AdminControlledRegistry.sol\":253:273  address public owner */\n    tag_16:\n      0x00\n      0x00\n      swap1\n      sload\n      swap1\n      0x0100\n      exp\n      swap1\n      div\n      0xffffffffffffffffffffffffffffffffffffffff\n      and\n      dup2\n      jump\t// out\n        /* \"AdminControlledRegistry.sol\":1003:1040  mapping(address => Role) public roles */\n    tag_21:\n      mstore(0x20, 0x02)\n      dup1\n      0x00\n      mstore\n      keccak256(0x00, 0x40)\n      0x00\n      swap2\n      pop\n      sload\n      swap1\n      0x0100\n      exp\n      swap1\n      div\n      0xff\n      and\n      dup2\n      jump\t// out\n        /* \"AdminControlledRegistry.sol\":1687:1956  function AddDetails(RequestType _requestType, string memory _purpose, uint256 _Idn)public{... */\n    tag_27:\n        /* \"AdminControlledRegistry.sol\":1818:1946  RegistrationDetails({... */\n      mload(0x40)\n      dup1\n      0x60\n      add\n      0x40\n      mstore\n      dup1\n        /* \"AdminControlledRegistry.sol\":1866:1878  _requestType */\n      dup5\n        /* \"AdminControlledRegistry.sol\":1818:1946  RegistrationDetails({... */\n      0x02\n      dup2\n      gt\n      iszero\n      tag_38\n      jumpi\n      tag_39\n      tag_40\n      jump\t// in\n    tag_39:\n    tag_38:\n      dup2\n      mstore\n      0x20\n      add\n        /* \"AdminControlledRegistry.sol\":1902:1910  _purpose */\n      dup4\n        /* \"AdminControlledRegistry.sol\":1818:1946  RegistrationDetails({... */\n      dup2\n      mstore\n      0x20\n      add\n        /* \"AdminControlledRegistry.sol\":1930:1934  _Idn */\n      dup3\n        /* \"AdminControlledRegistry.sol\":1818:1946  RegistrationDetails({... */\n      dup2\n      mstore\n      pop\n        /* \"AdminControlledRegistry.sol\":1787:1792  users */\n      0x01\n        /* \"AdminControlledRegistry.sol\":1787:1804  users[msg.sender] */\n      0x00\n        /* \"AdminControlledRegistry.sol\":1793:1803  msg.sender */\n      caller\n        /* \"AdminControlledRegistry.sol\":1787:1804  users[msg.sender] */\n      0xffffffffffffffffffffffffffffffffffffffff\n      and\n      0xffffffffffffffffffffffffffffffffffffffff\n      and\n      dup2\n      mstore\n      0x20\n      add\n      swap1\n      dup2\n      mstore\n      0x20\n      add\n      0x00\n      keccak256\n        /* \"AdminControlledRegistry.sol\":1787:1815  users[msg.sender].regDetails */\n      0x04\n      add\n        /* \"AdminControlledRegistry.sol\":1787:1946  users[msg.sender].regDetails = RegistrationDetails({... */\n      0x00\n      dup3\n      add\n      mload\n      dup2\n      0x00\n      add\n      exp(0x0100, 0x00)\n      dup2\n      sload\n      dup2\n      0xff\n      mul\n      not\n      and\n      swap1\n      dup4\n      0x02\n      dup2\n      gt\n      iszero\n      tag_41\n      jumpi\n      tag_42\n      tag_40\n      jump\t// in\n    tag_42:\n    tag_41:\n      mul\n      or\n      swap1\n      sstore\n      pop\n      0x20\n      dup3\n      add\n      mload\n      dup2\n      0x01\n      add\n      swap1\n      dup2\n      tag_43\n      swap2\n      swap1\n      tag_44\n      jump\t// in\n    tag_43:\n      pop\n      0x40\n      dup3\n      add\n      mload\n      dup2\n      0x02\n      add\n      sstore\n      swap1\n      pop\n      pop\n        /* \"AdminControlledRegistry.sol\":1687:1956  function AddDetails(RequestType _requestType, string memory _purpose, uint256 _Idn)public{... */\n      pop\n      pop\n      pop\n      jump\t// out\n        /* \"AdminControlledRegistry.sol\":959:996  mapping(address => User) public users */\n    tag_30:\n      mstore(0x20, 0x01)\n      dup1\n      0x00\n      mstore\n      keccak256(0x00, 0x40)\n      0x00\n      swap2\n      pop\n      swap1\n      pop\n      dup1\n      0x00\n      add\n      mload(0x40)\n      dup1\n      0x80\n      add\n      0x40\n      mstore\n      swap1\n      dup2\n      0x00\n      dup3\n      add\n      dup1\n      sload\n      tag_45\n      swap1\n      tag_46\n      jump\t// in\n    tag_45:\n      dup1\n      0x1f\n      add\n      0x20\n      dup1\n      swap2\n      div\n      mul\n      0x20\n      add\n      mload(0x40)\n      swap1\n      dup2\n      add\n      0x40\n      mstore\n      dup1\n      swap3\n      swap2\n      swap1\n      dup2\n      dup2\n      mstore\n      0x20\n      add\n      dup3\n      dup1\n      sload\n      tag_47\n      swap1\n      tag_46\n      jump\t// in\n    tag_47:\n      dup1\n      iszero\n      tag_48\n      jumpi\n      dup1\n      0x1f\n      lt\n      tag_49\n      jumpi\n      0x0100\n      dup1\n      dup4\n      sload\n      div\n      mul\n      dup4\n      mstore\n      swap2\n      0x20\n      add\n      swap2\n      jump(tag_48)\n    tag_49:\n      dup3\n      add\n      swap2\n      swap1\n      0x00\n      mstore\n      keccak256(0x00, 0x20)\n      swap1\n    tag_50:\n      dup2\n      sload\n      dup2\n      mstore\n      swap1\n      0x01\n      add\n      swap1\n      0x20\n      add\n      dup1\n      dup4\n      gt\n      tag_50\n      jumpi\n      dup3\n      swap1\n      sub\n      0x1f\n      and\n      dup3\n      add\n      swap2\n    tag_48:\n      pop\n      pop\n      pop\n      pop\n      pop\n      dup2\n      mstore\n      0x20\n      add\n      0x01\n      dup3\n      add\n      sload\n      dup2\n      mstore\n      0x20\n      add\n      0x02\n      dup3\n      add\n      0x00\n      swap1\n      sload\n      swap1\n      0x0100\n      exp\n      swap1\n      div\n      0xff\n      and\n      0x01\n      dup2\n      gt\n      iszero\n      tag_51\n      jumpi\n      tag_52\n      tag_40\n      jump\t// in\n    tag_52:\n    tag_51:\n      0x01\n      dup2\n      gt\n      iszero\n      tag_53\n      jumpi\n      tag_54\n      tag_40\n      jump\t// in\n    tag_54:\n    tag_53:\n      dup2\n      mstore\n      0x20\n      add\n      0x03\n      dup3\n      add\n      dup1\n      sload\n      tag_55\n      swap1\n      tag_46\n      jump\t// in\n    tag_55:\n      dup1\n      0x1f\n      add\n      0x20\n      dup1\n      swap2\n      div\n      mul\n      0x20\n      add\n      mload(0x40)\n      swap1\n      dup2\n      add\n      0x40\n      mstore\n      dup1\n      swap3\n      swap2\n      swap1\n      dup2\n      dup2\n      mstore\n      0x20\n      add\n      dup3\n      dup1\n      sload\n      tag_56\n      swap1\n      tag_46\n      jump\t// in\n    tag_56:\n      dup1\n      iszero\n      tag_57\n      jumpi\n      dup1\n      0x1f\n      lt\n      tag_58\n      jumpi\n      0x0100\n      dup1\n      dup4\n      sload\n      div\n      mul\n      dup4\n      mstore\n      swap2\n      0x20\n      add\n      swap2\n      jump(tag_57)\n    tag_58:\n      dup3\n      add\n      swap2\n      swap1\n      0x00\n      mstore\n      keccak256(0x00, 0x20)\n      swap1\n    tag_59:\n      dup2\n      sload\n      dup2\n      mstore\n      swap1\n      0x01\n      add\n      swap1\n      0x20\n      add\n      dup1\n      dup4\n      gt\n      tag_59\n      jumpi\n      dup3\n      swap1\n      sub\n      0x1f\n      and\n      dup3\n      add\n      swap2\n    tag_57:\n      pop\n      pop\n      pop\n      pop\n      pop\n      dup2\n      mstore\n      pop\n      pop\n      swap1\n      dup1\n      0x04\n      add\n      mload(0x40)\n      dup1\n      0x60\n      add\n      0x40\n      mstore\n      swap1\n      dup2\n      0x00\n      dup3\n      add\n      0x00\n      swap1\n      sload\n      swap1\n      0x0100\n      exp\n      swap1\n      div\n      0xff\n      and\n      0x02\n      dup2\n      gt\n      iszero\n      tag_60\n      jumpi\n      tag_61\n      tag_40\n      jump\t// in\n    tag_61:\n    tag_60:\n      0x02\n      dup2\n      gt\n      iszero\n      tag_62\n      jumpi\n      tag_63\n      tag_40\n      jump\t// in\n    tag_63:\n    tag_62:\n      dup2\n      mstore\n      0x20\n      add\n      0x01\n      dup3\n      add\n      dup1\n      sload\n      tag_64\n      swap1\n      tag_46\n      jump\t// in\n    tag_64:\n      dup1\n      0x1f\n      add\n      0x20\n      dup1\n      swap2\n      div\n      mul\n      0x20\n      add\n      mload(0x40)\n      swap1\n      dup2\n      add\n      0x40\n      mstore\n      dup1\n      swap3\n      swap2\n      swap1\n      dup2\n      dup2\n      mstore\n      0x20\n      add\n      dup3\n      dup1\n      sload\n      tag_65\n      swap1\n      tag_46\n      jump\t// in\n    tag_65:\n      dup1\n      iszero\n      tag_66\n      jumpi\n      dup1\n      0x1f\n      lt\n      tag_67\n      jumpi\n      0x0100\n      dup1\n      dup4\n      sload\n      div\n      mul\n      dup4\n      mstore\n      swap2\n      0x20\n      add\n      swap2\n      jump(tag_66)\n    tag_67:\n      dup3\n      add\n      swap2\n      swap1\n      0x00\n      mstore\n      keccak256(0x00, 0x20)\n      swap1\n    tag_68:\n      dup2\n      sload\n      dup2\n      mstore\n      swap1\n      0x01\n      add\n      swap1\n      0x20\n      add\n      dup1\n      dup4\n      gt\n      tag_68\n      jumpi\n      dup3\n      swap1\n      sub\n      0x1f\n      and\n      dup3\n      add\n      swap2\n    tag_66:\n      pop\n      pop\n      pop\n      pop\n      pop\n      dup2\n      mstore\n      0x20\n      add\n      0x02\n      dup3\n      add\n      sload\n      dup2\n      mstore\n      pop\n      pop\n      swap1\n      pop\n      dup3\n      jump\t// out\n        /* \"AdminControlledRegistry.sol\":1320:1679  function submitData(string memory _fullName, Gender _gender, uint256 _YOB, string memory _email) public {... */\n    tag_36:\n        /* \"AdminControlledRegistry.sol\":1471:1606  UserInformation({... */\n      mload(0x40)\n      dup1\n      0x80\n      add\n      0x40\n      mstore\n      dup1\n        /* \"AdminControlledRegistry.sol\":1508:1517  _fullName */\n      dup6\n        /* \"AdminControlledRegistry.sol\":1471:1606  UserInformation({... */\n      dup2\n      mstore\n      0x20\n      add\n        /* \"AdminControlledRegistry.sol\":1533:1537  _YOB */\n      dup4\n        /* \"AdminControlledRegistry.sol\":1471:1606  UserInformation({... */\n      dup2\n      mstore\n      0x20\n      add\n        /* \"AdminControlledRegistry.sol\":1556:1563  _gender */\n      dup5\n        /* \"AdminControlledRegistry.sol\":1471:1606  UserInformation({... */\n      0x01\n      dup2\n      gt\n      iszero\n      tag_70\n      jumpi\n      tag_71\n      tag_40\n      jump\t// in\n    tag_71:\n    tag_70:\n      dup2\n      mstore\n      0x20\n      add\n        /* \"AdminControlledRegistry.sol\":1588:1594  _email */\n      dup3\n        /* \"AdminControlledRegistry.sol\":1471:1606  UserInformation({... */\n      dup2\n      mstore\n      pop\n        /* \"AdminControlledRegistry.sol\":1435:1440  users */\n      0x01\n        /* \"AdminControlledRegistry.sol\":1435:1452  users[msg.sender] */\n      0x00\n        /* \"AdminControlledRegistry.sol\":1441:1451  msg.sender */\n      caller\n        /* \"AdminControlledRegistry.sol\":1435:1452  users[msg.sender] */\n      0xffffffffffffffffffffffffffffffffffffffff\n      and\n      0xffffffffffffffffffffffffffffffffffffffff\n      and\n      dup2\n      mstore\n      0x20\n      add\n      swap1\n      dup2\n      mstore\n      0x20\n      add\n      0x00\n      keccak256\n        /* \"AdminControlledRegistry.sol\":1435:1468  users[msg.sender].userInformation */\n      0x00\n      add\n        /* \"AdminControlledRegistry.sol\":1435:1606  users[msg.sender].userInformation = UserInformation({... */\n      0x00\n      dup3\n      add\n      mload\n      dup2\n      0x00\n      add\n      swap1\n      dup2\n      tag_72\n      swap2\n      swap1\n      tag_44\n      jump\t// in\n    tag_72:\n      pop\n      0x20\n      dup3\n      add\n      mload\n      dup2\n      0x01\n      add\n      sstore\n      0x40\n      dup3\n      add\n      mload\n      dup2\n      0x02\n      add\n      exp(0x0100, 0x00)\n      dup2\n      sload\n      dup2\n      0xff\n      mul\n      not\n      and\n      swap1\n      dup4\n      0x01\n      dup2\n      gt\n      iszero\n      tag_73\n      jumpi\n      tag_74\n      tag_40\n      jump\t// in\n    tag_74:\n    tag_73:\n      mul\n      or\n      swap1\n      sstore\n      pop\n      0x60\n      dup3\n      add\n      mload\n      dup2\n      0x03\n      add\n      swap1\n      dup2\n      tag_75\n      swap2\n      swap1\n      tag_44\n      jump\t// in\n    tag_75:\n      pop\n      swap1\n      pop\n      pop\n        /* \"AdminControlledRegistry.sol\":1624:1671  DataSubmitted(_fullName, _YOB, _gender, _email) */\n      0xb578f66e00dd5ce37b5eb9655026c617e4051d69a28c6f3145b3dac4f34ab985\n        /* \"AdminControlledRegistry.sol\":1638:1647  _fullName */\n      dup5\n        /* \"AdminControlledRegistry.sol\":1649:1653  _YOB */\n      dup4\n        /* \"AdminControlledRegistry.sol\":1655:1662  _gender */\n      dup6\n        /* \"AdminControlledRegistry.sol\":1664:1670  _email */\n      dup5\n        /* \"AdminControlledRegistry.sol\":1624:1671  DataSubmitted(_fullName, _YOB, _gender, _email) */\n      mload(0x40)\n      tag_76\n      swap5\n      swap4\n      swap3\n      swap2\n      swap1\n      tag_77\n      jump\t// in\n    tag_76:\n      mload(0x40)\n      dup1\n      swap2\n      sub\n      swap1\n      log1\n        /* \"AdminControlledRegistry.sol\":1320:1679  function submitData(string memory _fullName, Gender _gender, uint256 _YOB, string memory _email) public {... */\n      pop\n      pop\n      pop\n      pop\n      jump\t// out\n        /* \"#utility.yul\":7:82   */\n    tag_78:\n        /* \"#utility.yul\":40:46   */\n      0x00\n        /* \"#utility.yul\":73:75   */\n      0x40\n        /* \"#utility.yul\":67:76   */\n      mload\n        /* \"#utility.yul\":57:76   */\n      swap1\n      pop\n        /* \"#utility.yul\":7:82   */\n      swap1\n      jump\t// out\n        /* \"#utility.yul\":88:205   */\n    tag_79:\n        /* \"#utility.yul\":197:198   */\n      0x00\n        /* \"#utility.yul\":194:195   */\n      0x00\n        /* \"#utility.yul\":187:199   */\n      revert\n        /* \"#utility.yul\":211:328   */\n    tag_80:\n        /* \"#utility.yul\":320:321   */\n      0x00\n        /* \"#utility.yul\":317:318   */\n      0x00\n        /* \"#utility.yul\":310:322   */\n      revert\n        /* \"#utility.yul\":334:460   */\n    tag_81:\n        /* \"#utility.yul\":371:378   */\n      0x00\n        /* \"#utility.yul\":411:453   */\n      0xffffffffffffffffffffffffffffffffffffffff\n        /* \"#utility.yul\":404:409   */\n      dup3\n        /* \"#utility.yul\":400:454   */\n      and\n        /* \"#utility.yul\":389:454   */\n      swap1\n      pop\n        /* \"#utility.yul\":334:460   */\n      swap2\n      swap1\n      pop\n      jump\t// out\n        /* \"#utility.yul\":466:562   */\n    tag_82:\n        /* \"#utility.yul\":503:510   */\n      0x00\n        /* \"#utility.yul\":532:556   */\n      tag_148\n        /* \"#utility.yul\":550:555   */\n      dup3\n        /* \"#utility.yul\":532:556   */\n      tag_81\n      jump\t// in\n    tag_148:\n        /* \"#utility.yul\":521:556   */\n      swap1\n      pop\n        /* \"#utility.yul\":466:562   */\n      swap2\n      swap1\n      pop\n      jump\t// out\n        /* \"#utility.yul\":568:690   */\n    tag_83:\n        /* \"#utility.yul\":641:665   */\n      tag_150\n        /* \"#utility.yul\":659:664   */\n      dup2\n        /* \"#utility.yul\":641:665   */\n      tag_82\n      jump\t// in\n    tag_150:\n        /* \"#utility.yul\":634:639   */\n      dup2\n        /* \"#utility.yul\":631:666   */\n      eq\n        /* \"#utility.yul\":621:684   */\n      tag_151\n      jumpi\n        /* \"#utility.yul\":680:681   */\n      0x00\n        /* \"#utility.yul\":677:678   */\n      0x00\n        /* \"#utility.yul\":670:682   */\n      revert\n        /* \"#utility.yul\":621:684   */\n    tag_151:\n        /* \"#utility.yul\":568:690   */\n      pop\n      jump\t// out\n        /* \"#utility.yul\":696:835   */\n    tag_84:\n        /* \"#utility.yul\":742:747   */\n      0x00\n        /* \"#utility.yul\":780:786   */\n      dup2\n        /* \"#utility.yul\":767:787   */\n      calldataload\n        /* \"#utility.yul\":758:787   */\n      swap1\n      pop\n        /* \"#utility.yul\":796:829   */\n      tag_153\n        /* \"#utility.yul\":823:828   */\n      dup2\n        /* \"#utility.yul\":796:829   */\n      tag_83\n      jump\t// in\n    tag_153:\n        /* \"#utility.yul\":696:835   */\n      swap3\n      swap2\n      pop\n      pop\n      jump\t// out\n        /* \"#utility.yul\":841:1170   */\n    tag_11:\n        /* \"#utility.yul\":900:906   */\n      0x00\n        /* \"#utility.yul\":949:951   */\n      0x20\n        /* \"#utility.yul\":937:946   */\n      dup3\n        /* \"#utility.yul\":928:935   */\n      dup5\n        /* \"#utility.yul\":924:947   */\n      sub\n        /* \"#utility.yul\":920:952   */\n      slt\n        /* \"#utility.yul\":917:1036   */\n      iszero\n      tag_155\n      jumpi\n        /* \"#utility.yul\":955:1034   */\n      tag_156\n      tag_79\n      jump\t// in\n    tag_156:\n        /* \"#utility.yul\":917:1036   */\n    tag_155:\n        /* \"#utility.yul\":1075:1076   */\n      0x00\n        /* \"#utility.yul\":1100:1153   */\n      tag_157\n        /* \"#utility.yul\":1145:1152   */\n      dup5\n        /* \"#utility.yul\":1136:1142   */\n      dup3\n        /* \"#utility.yul\":1125:1134   */\n      dup6\n        /* \"#utility.yul\":1121:1143   */\n      add\n        /* \"#utility.yul\":1100:1153   */\n      tag_84\n      jump\t// in\n    tag_157:\n        /* \"#utility.yul\":1090:1153   */\n      swap2\n      pop\n        /* \"#utility.yul\":1046:1163   */\n      pop\n        /* \"#utility.yul\":841:1170   */\n      swap3\n      swap2\n      pop\n      pop\n      jump\t// out\n        /* \"#utility.yul\":1176:1356   */\n    tag_40:\n        /* \"#utility.yul\":1224:1301   */\n      0x4e487b7100000000000000000000000000000000000000000000000000000000\n        /* \"#utility.yul\":1221:1222   */\n      0x00\n        /* \"#utility.yul\":1214:1302   */\n      mstore\n        /* \"#utility.yul\":1321:1325   */\n      0x21\n        /* \"#utility.yul\":1318:1319   */\n      0x04\n        /* \"#utility.yul\":1311:1326   */\n      mstore\n        /* \"#utility.yul\":1345:1349   */\n      0x24\n        /* \"#utility.yul\":1342:1343   */\n      0x00\n        /* \"#utility.yul\":1335:1350   */\n      revert\n        /* \"#utility.yul\":1362:1476   */\n    tag_85:\n        /* \"#utility.yul\":1444:1445   */\n      0x02\n        /* \"#utility.yul\":1437:1442   */\n      dup2\n        /* \"#utility.yul\":1434:1446   */\n      lt\n        /* \"#utility.yul\":1424:1470   */\n      tag_160\n      jumpi\n        /* \"#utility.yul\":1450:1468   */\n      tag_161\n      tag_40\n      jump\t// in\n    tag_161:\n        /* \"#utility.yul\":1424:1470   */\n    tag_160:\n        /* \"#utility.yul\":1362:1476   */\n      pop\n      jump\t// out\n        /* \"#utility.yul\":1482:1611   */\n    tag_86:\n        /* \"#utility.yul\":1528:1535   */\n      0x00\n        /* \"#utility.yul\":1557:1562   */\n      dup2\n        /* \"#utility.yul\":1546:1562   */\n      swap1\n      pop\n        /* \"#utility.yul\":1563:1605   */\n      tag_163\n        /* \"#utility.yul\":1599:1604   */\n      dup3\n        /* \"#utility.yul\":1563:1605   */\n      tag_85\n      jump\t// in\n    tag_163:\n        /* \"#utility.yul\":1482:1611   */\n      swap2\n      swap1\n      pop\n      jump\t// out\n        /* \"#utility.yul\":1617:1746   */\n    tag_87:\n        /* \"#utility.yul\":1674:1683   */\n      0x00\n        /* \"#utility.yul\":1707:1740   */\n      tag_165\n        /* \"#utility.yul\":1734:1739   */\n      dup3\n        /* \"#utility.yul\":1707:1740   */\n      tag_86\n      jump\t// in\n    tag_165:\n        /* \"#utility.yul\":1694:1740   */\n      swap1\n      pop\n        /* \"#utility.yul\":1617:1746   */\n      swap2\n      swap1\n      pop\n      jump\t// out\n        /* \"#utility.yul\":1752:1897   */\n    tag_88:\n        /* \"#utility.yul\":1846:1890   */\n      tag_167\n        /* \"#utility.yul\":1884:1889   */\n      dup2\n        /* \"#utility.yul\":1846:1890   */\n      tag_87\n      jump\t// in\n    tag_167:\n        /* \"#utility.yul\":1841:1844   */\n      dup3\n        /* \"#utility.yul\":1834:1891   */\n      mstore\n        /* \"#utility.yul\":1752:1897   */\n      pop\n      pop\n      jump\t// out\n        /* \"#utility.yul\":1903:2139   */\n    tag_14:\n        /* \"#utility.yul\":2003:2007   */\n      0x00\n        /* \"#utility.yul\":2041:2043   */\n      0x20\n        /* \"#utility.yul\":2030:2039   */\n      dup3\n        /* \"#utility.yul\":2026:2044   */\n      add\n        /* \"#utility.yul\":2018:2044   */\n      swap1\n      pop\n        /* \"#utility.yul\":2054:2132   */\n      tag_169\n        /* \"#utility.yul\":2129:2130   */\n      0x00\n        /* \"#utility.yul\":2118:2127   */\n      dup4\n        /* \"#utility.yul\":2114:2131   */\n      add\n        /* \"#utility.yul\":2105:2111   */\n      dup5\n        /* \"#utility.yul\":2054:2132   */\n      tag_88\n      jump\t// in\n    tag_169:\n        /* \"#utility.yul\":1903:2139   */\n      swap3\n      swap2\n      pop\n      pop\n      jump\t// out\n        /* \"#utility.yul\":2145:2263   */\n    tag_89:\n        /* \"#utility.yul\":2232:2256   */\n      tag_171\n        /* \"#utility.yul\":2250:2255   */\n      dup2\n        /* \"#utility.yul\":2232:2256   */\n      tag_82\n      jump\t// in\n    tag_171:\n        /* \"#utility.yul\":2227:2230   */\n      dup3\n        /* \"#utility.yul\":2220:2257   */\n      mstore\n        /* \"#utility.yul\":2145:2263   */\n      pop\n      pop\n      jump\t// out\n        /* \"#utility.yul\":2269:2491   */\n    tag_18:\n        /* \"#utility.yul\":2362:2366   */\n      0x00\n        /* \"#utility.yul\":2400:2402   */\n      0x20\n        /* \"#utility.yul\":2389:2398   */\n      dup3\n        /* \"#utility.yul\":2385:2403   */\n      add\n        /* \"#utility.yul\":2377:2403   */\n      swap1\n      pop\n        /* \"#utility.yul\":2413:2484   */\n      tag_173\n        /* \"#utility.yul\":2481:2482   */\n      0x00\n        /* \"#utility.yul\":2470:2479   */\n      dup4\n        /* \"#utility.yul\":2466:2483   */\n      add\n        /* \"#utility.yul\":2457:2463   */\n      dup5\n        /* \"#utility.yul\":2413:2484   */\n      tag_89\n      jump\t// in\n    tag_173:\n        /* \"#utility.yul\":2269:2491   */\n      swap3\n      swap2\n      pop\n      pop\n      jump\t// out\n        /* \"#utility.yul\":2497:2609   */\n    tag_90:\n        /* \"#utility.yul\":2577:2578   */\n      0x03\n        /* \"#utility.yul\":2570:2575   */\n      dup2\n        /* \"#utility.yul\":2567:2579   */\n      lt\n        /* \"#utility.yul\":2557:2603   */\n      tag_175\n      jumpi\n        /* \"#utility.yul\":2583:2601   */\n      tag_176\n      tag_40\n      jump\t// in\n    tag_176:\n        /* \"#utility.yul\":2557:2603   */\n    tag_175:\n        /* \"#utility.yul\":2497:2609   */\n      pop\n      jump\t// out\n        /* \"#utility.yul\":2615:2740   */\n    tag_91:\n        /* \"#utility.yul\":2659:2666   */\n      0x00\n        /* \"#utility.yul\":2688:2693   */\n      dup2\n        /* \"#utility.yul\":2677:2693   */\n      swap1\n      pop\n        /* \"#utility.yul\":2694:2734   */\n      tag_178\n        /* \"#utility.yul\":2728:2733   */\n      dup3\n        /* \"#utility.yul\":2694:2734   */\n      tag_90\n      jump\t// in\n    tag_178:\n        /* \"#utility.yul\":2615:2740   */\n      swap2\n      swap1\n      pop\n      jump\t// out\n        /* \"#utility.yul\":2746:2871   */\n    tag_92:\n        /* \"#utility.yul\":2801:2810   */\n      0x00\n        /* \"#utility.yul\":2834:2865   */\n      tag_180\n        /* \"#utility.yul\":2859:2864   */\n      dup3\n        /* \"#utility.yul\":2834:2865   */\n      tag_91\n      jump\t// in\n    tag_180:\n        /* \"#utility.yul\":2821:2865   */\n      swap1\n      pop\n        /* \"#utility.yul\":2746:2871   */\n      swap2\n      swap1\n      pop\n      jump\t// out\n        /* \"#utility.yul\":2877:3018   */\n    tag_93:\n        /* \"#utility.yul\":2969:3011   */\n      tag_182\n        /* \"#utility.yul\":3005:3010   */\n      dup2\n        /* \"#utility.yul\":2969:3011   */\n      tag_92\n      jump\t// in\n    tag_182:\n        /* \"#utility.yul\":2964:2967   */\n      dup3\n        /* \"#utility.yul\":2957:3012   */\n      mstore\n        /* \"#utility.yul\":2877:3018   */\n      pop\n      pop\n      jump\t// out\n        /* \"#utility.yul\":3024:3256   */\n    tag_23:\n        /* \"#utility.yul\":3122:3126   */\n      0x00\n        /* \"#utility.yul\":3160:3162   */\n      0x20\n        /* \"#utility.yul\":3149:3158   */\n      dup3\n        /* \"#utility.yul\":3145:3163   */\n      add\n        /* \"#utility.yul\":3137:3163   */\n      swap1\n      pop\n        /* \"#utility.yul\":3173:3249   */\n      tag_184\n        /* \"#utility.yul\":3246:3247   */\n      0x00\n        /* \"#utility.yul\":3235:3244   */\n      dup4\n        /* \"#utility.yul\":3231:3248   */\n      add\n        /* \"#utility.yul\":3222:3228   */\n      dup5\n        /* \"#utility.yul\":3173:3249   */\n      tag_93\n      jump\t// in\n    tag_184:\n        /* \"#utility.yul\":3024:3256   */\n      swap3\n      swap2\n      pop\n      pop\n      jump\t// out\n        /* \"#utility.yul\":3262:3375   */\n    tag_94:\n        /* \"#utility.yul\":3349:3350   */\n      0x03\n        /* \"#utility.yul\":3342:3347   */\n      dup2\n        /* \"#utility.yul\":3339:3351   */\n      lt\n        /* \"#utility.yul\":3329:3369   */\n      tag_186\n      jumpi\n        /* \"#utility.yul\":3365:3366   */\n      0x00\n        /* \"#utility.yul\":3362:3363   */\n      0x00\n        /* \"#utility.yul\":3355:3367   */\n      revert\n        /* \"#utility.yul\":3329:3369   */\n    tag_186:\n        /* \"#utility.yul\":3262:3375   */\n      pop\n      jump\t// out\n        /* \"#utility.yul\":3381:3548   */\n    tag_95:\n        /* \"#utility.yul\":3441:3446   */\n      0x00\n        /* \"#utility.yul\":3479:3485   */\n      dup2\n        /* \"#utility.yul\":3466:3486   */\n      calldataload\n        /* \"#utility.yul\":3457:3486   */\n      swap1\n      pop\n        /* \"#utility.yul\":3495:3542   */\n      tag_188\n        /* \"#utility.yul\":3536:3541   */\n      dup2\n        /* \"#utility.yul\":3495:3542   */\n      tag_94\n      jump\t// in\n    tag_188:\n        /* \"#utility.yul\":3381:3548   */\n      swap3\n      swap2\n      pop\n      pop\n      jump\t// out\n        /* \"#utility.yul\":3554:3671   */\n    tag_96:\n        /* \"#utility.yul\":3663:3664   */\n      0x00\n        /* \"#utility.yul\":3660:3661   */\n      0x00\n        /* \"#utility.yul\":3653:3665   */\n      revert\n        /* \"#utility.yul\":3677:3794   */\n    tag_97:\n        /* \"#utility.yul\":3786:3787   */\n      0x00\n        /* \"#utility.yul\":3783:3784   */\n      0x00\n        /* \"#utility.yul\":3776:3788   */\n      revert\n        /* \"#utility.yul\":3800:3902   */\n    tag_98:\n        /* \"#utility.yul\":3841:3847   */\n      0x00\n        /* \"#utility.yul\":3892:3894   */\n      0x1f\n        /* \"#utility.yul\":3888:3895   */\n      not\n        /* \"#utility.yul\":3883:3885   */\n      0x1f\n        /* \"#utility.yul\":3876:3881   */\n      dup4\n        /* \"#utility.yul\":3872:3886   */\n      add\n        /* \"#utility.yul\":3868:3896   */\n      and\n        /* \"#utility.yul\":3858:3896   */\n      swap1\n      pop\n        /* \"#utility.yul\":3800:3902   */\n      swap2\n      swap1\n      pop\n      jump\t// out\n        /* \"#utility.yul\":3908:4088   */\n    tag_99:\n        /* \"#utility.yul\":3956:4033   */\n      0x4e487b7100000000000000000000000000000000000000000000000000000000\n        /* \"#utility.yul\":3953:3954   */\n      0x00\n        /* \"#utility.yul\":3946:4034   */\n      mstore\n        /* \"#utility.yul\":4053:4057   */\n      0x41\n        /* \"#utility.yul\":4050:4051   */\n      0x04\n        /* \"#utility.yul\":4043:4058   */\n      mstore\n        /* \"#utility.yul\":4077:4081   */\n      0x24\n        /* \"#utility.yul\":4074:4075   */\n      0x00\n        /* \"#utility.yul\":4067:4082   */\n      revert\n        /* \"#utility.yul\":4094:4375   */\n    tag_100:\n        /* \"#utility.yul\":4177:4204   */\n      tag_194\n        /* \"#utility.yul\":4199:4203   */\n      dup3\n        /* \"#utility.yul\":4177:4204   */\n      tag_98\n      jump\t// in\n    tag_194:\n        /* \"#utility.yul\":4169:4175   */\n      dup2\n        /* \"#utility.yul\":4165:4205   */\n      add\n        /* \"#utility.yul\":4307:4313   */\n      dup2\n        /* \"#utility.yul\":4295:4305   */\n      dup2\n        /* \"#utility.yul\":4292:4314   */\n      lt\n        /* \"#utility.yul\":4271:4289   */\n      0xffffffffffffffff\n        /* \"#utility.yul\":4259:4269   */\n      dup3\n        /* \"#utility.yul\":4256:4290   */\n      gt\n        /* \"#utility.yul\":4253:4315   */\n      or\n        /* \"#utility.yul\":4250:4338   */\n      iszero\n      tag_195\n      jumpi\n        /* \"#utility.yul\":4318:4336   */\n      tag_196\n      tag_99\n      jump\t// in\n    tag_196:\n        /* \"#utility.yul\":4250:4338   */\n    tag_195:\n        /* \"#utility.yul\":4358:4368   */\n      dup1\n        /* \"#utility.yul\":4354:4356   */\n      0x40\n        /* \"#utility.yul\":4347:4369   */\n      mstore\n        /* \"#utility.yul\":4137:4375   */\n      pop\n        /* \"#utility.yul\":4094:4375   */\n      pop\n      pop\n      jump\t// out\n        /* \"#utility.yul\":4381:4510   */\n    tag_101:\n        /* \"#utility.yul\":4415:4421   */\n      0x00\n        /* \"#utility.yul\":4442:4462   */\n      tag_198\n      tag_78\n      jump\t// in\n    tag_198:\n        /* \"#utility.yul\":4432:4462   */\n      swap1\n      pop\n        /* \"#utility.yul\":4471:4504   */\n      tag_199\n        /* \"#utility.yul\":4499:4503   */\n      dup3\n        /* \"#utility.yul\":4491:4497   */\n      dup3\n        /* \"#utility.yul\":4471:4504   */\n      tag_100\n      jump\t// in\n    tag_199:\n        /* \"#utility.yul\":4381:4510   */\n      swap2\n      swap1\n      pop\n      jump\t// out\n        /* \"#utility.yul\":4516:4824   */\n    tag_102:\n        /* \"#utility.yul\":4578:4582   */\n      0x00\n        /* \"#utility.yul\":4668:4686   */\n      0xffffffffffffffff\n        /* \"#utility.yul\":4660:4666   */\n      dup3\n        /* \"#utility.yul\":4657:4687   */\n      gt\n        /* \"#utility.yul\":4654:4710   */\n      iszero\n      tag_201\n      jumpi\n        /* \"#utility.yul\":4690:4708   */\n      tag_202\n      tag_99\n      jump\t// in\n    tag_202:\n        /* \"#utility.yul\":4654:4710   */\n    tag_201:\n        /* \"#utility.yul\":4728:4757   */\n      tag_203\n        /* \"#utility.yul\":4750:4756   */\n      dup3\n        /* \"#utility.yul\":4728:4757   */\n      tag_98\n      jump\t// in\n    tag_203:\n        /* \"#utility.yul\":4720:4757   */\n      swap1\n      pop\n        /* \"#utility.yul\":4812:4816   */\n      0x20\n        /* \"#utility.yul\":4806:4810   */\n      dup2\n        /* \"#utility.yul\":4802:4817   */\n      add\n        /* \"#utility.yul\":4794:4817   */\n      swap1\n      pop\n        /* \"#utility.yul\":4516:4824   */\n      swap2\n      swap1\n      pop\n      jump\t// out\n        /* \"#utility.yul\":4830:4978   */\n    tag_103:\n        /* \"#utility.yul\":4928:4934   */\n      dup3\n        /* \"#utility.yul\":4923:4926   */\n      dup2\n        /* \"#utility.yul\":4918:4921   */\n      dup4\n        /* \"#utility.yul\":4905:4935   */\n      calldatacopy\n        /* \"#utility.yul\":4969:4970   */\n      0x00\n        /* \"#utility.yul\":4960:4966   */\n      dup4\n        /* \"#utility.yul\":4955:4958   */\n      dup4\n        /* \"#utility.yul\":4951:4967   */\n      add\n        /* \"#utility.yul\":4944:4971   */\n      mstore\n        /* \"#utility.yul\":4830:4978   */\n      pop\n      pop\n      pop\n      jump\t// out\n        /* \"#utility.yul\":4984:5409   */\n    tag_104:\n        /* \"#utility.yul\":5062:5067   */\n      0x00\n        /* \"#utility.yul\":5087:5153   */\n      tag_206\n        /* \"#utility.yul\":5103:5152   */\n      tag_207\n        /* \"#utility.yul\":5145:5151   */\n      dup5\n        /* \"#utility.yul\":5103:5152   */\n      tag_102\n      jump\t// in\n    tag_207:\n        /* \"#utility.yul\":5087:5153   */\n      tag_101\n      jump\t// in\n    tag_206:\n        /* \"#utility.yul\":5078:5153   */\n      swap1\n      pop\n        /* \"#utility.yul\":5176:5182   */\n      dup3\n        /* \"#utility.yul\":5169:5174   */\n      dup2\n        /* \"#utility.yul\":5162:5183   */\n      mstore\n        /* \"#utility.yul\":5214:5218   */\n      0x20\n        /* \"#utility.yul\":5207:5212   */\n      dup2\n        /* \"#utility.yul\":5203:5219   */\n      add\n        /* \"#utility.yul\":5252:5255   */\n      dup5\n        /* \"#utility.yul\":5243:5249   */\n      dup5\n        /* \"#utility.yul\":5238:5241   */\n      dup5\n        /* \"#utility.yul\":5234:5250   */\n      add\n        /* \"#utility.yul\":5231:5256   */\n      gt\n        /* \"#utility.yul\":5228:5340   */\n      iszero\n      tag_208\n      jumpi\n        /* \"#utility.yul\":5259:5338   */\n      tag_209\n      tag_97\n      jump\t// in\n    tag_209:\n        /* \"#utility.yul\":5228:5340   */\n    tag_208:\n        /* \"#utility.yul\":5349:5403   */\n      tag_210\n        /* \"#utility.yul\":5396:5402   */\n      dup5\n        /* \"#utility.yul\":5391:5394   */\n      dup3\n        /* \"#utility.yul\":5386:5389   */\n      dup6\n        /* \"#utility.yul\":5349:5403   */\n      tag_103\n      jump\t// in\n    tag_210:\n        /* \"#utility.yul\":5068:5409   */\n      pop\n        /* \"#utility.yul\":4984:5409   */\n      swap4\n      swap3\n      pop\n      pop\n      pop\n      jump\t// out\n        /* \"#utility.yul\":5429:5769   */\n    tag_105:\n        /* \"#utility.yul\":5485:5490   */\n      0x00\n        /* \"#utility.yul\":5534:5537   */\n      dup3\n        /* \"#utility.yul\":5527:5531   */\n      0x1f\n        /* \"#utility.yul\":5519:5525   */\n      dup4\n        /* \"#utility.yul\":5515:5532   */\n      add\n        /* \"#utility.yul\":5511:5538   */\n      slt\n        /* \"#utility.yul\":5501:5623   */\n      tag_212\n      jumpi\n        /* \"#utility.yul\":5542:5621   */\n      tag_213\n      tag_96\n      jump\t// in\n    tag_213:\n        /* \"#utility.yul\":5501:5623   */\n    tag_212:\n        /* \"#utility.yul\":5659:5665   */\n      dup2\n        /* \"#utility.yul\":5646:5666   */\n      calldataload\n        /* \"#utility.yul\":5684:5763   */\n      tag_214\n        /* \"#utility.yul\":5759:5762   */\n      dup5\n        /* \"#utility.yul\":5751:5757   */\n      dup3\n        /* \"#utility.yul\":5744:5748   */\n      0x20\n        /* \"#utility.yul\":5736:5742   */\n      dup7\n        /* \"#utility.yul\":5732:5749   */\n      add\n        /* \"#utility.yul\":5684:5763   */\n      tag_104\n      jump\t// in\n    tag_214:\n        /* \"#utility.yul\":5675:5763   */\n      swap2\n      pop\n        /* \"#utility.yul\":5491:5769   */\n      pop\n        /* \"#utility.yul\":5429:5769   */\n      swap3\n      swap2\n      pop\n      pop\n      jump\t// out\n        /* \"#utility.yul\":5775:5852   */\n    tag_106:\n        /* \"#utility.yul\":5812:5819   */\n      0x00\n        /* \"#utility.yul\":5841:5846   */\n      dup2\n        /* \"#utility.yul\":5830:5846   */\n      swap1\n      pop\n        /* \"#utility.yul\":5775:5852   */\n      swap2\n      swap1\n      pop\n      jump\t// out\n        /* \"#utility.yul\":5858:5980   */\n    tag_107:\n        /* \"#utility.yul\":5931:5955   */\n      tag_217\n        /* \"#utility.yul\":5949:5954   */\n      dup2\n        /* \"#utility.yul\":5931:5955   */\n      tag_106\n      jump\t// in\n    tag_217:\n        /* \"#utility.yul\":5924:5929   */\n      dup2\n        /* \"#utility.yul\":5921:5956   */\n      eq\n        /* \"#utility.yul\":5911:5974   */\n      tag_218\n      jumpi\n        /* \"#utility.yul\":5970:5971   */\n      0x00\n        /* \"#utility.yul\":5967:5968   */\n      0x00\n        /* \"#utility.yul\":5960:5972   */\n      revert\n        /* \"#utility.yul\":5911:5974   */\n    tag_218:\n        /* \"#utility.yul\":5858:5980   */\n      pop\n      jump\t// out\n        /* \"#utility.yul\":5986:6125   */\n    tag_108:\n        /* \"#utility.yul\":6032:6037   */\n      0x00\n        /* \"#utility.yul\":6070:6076   */\n      dup2\n        /* \"#utility.yul\":6057:6077   */\n      calldataload\n        /* \"#utility.yul\":6048:6077   */\n      swap1\n      pop\n        /* \"#utility.yul\":6086:6119   */\n      tag_220\n        /* \"#utility.yul\":6113:6118   */\n      dup2\n        /* \"#utility.yul\":6086:6119   */\n      tag_107\n      jump\t// in\n    tag_220:\n        /* \"#utility.yul\":5986:6125   */\n      swap3\n      swap2\n      pop\n      pop\n      jump\t// out\n        /* \"#utility.yul\":6131:6958   */\n    tag_26:\n        /* \"#utility.yul\":6232:6238   */\n      0x00\n        /* \"#utility.yul\":6240:6246   */\n      0x00\n        /* \"#utility.yul\":6248:6254   */\n      0x00\n        /* \"#utility.yul\":6297:6299   */\n      0x60\n        /* \"#utility.yul\":6285:6294   */\n      dup5\n        /* \"#utility.yul\":6276:6283   */\n      dup7\n        /* \"#utility.yul\":6272:6295   */\n      sub\n        /* \"#utility.yul\":6268:6300   */\n      slt\n        /* \"#utility.yul\":6265:6384   */\n      iszero\n      tag_222\n      jumpi\n        /* \"#utility.yul\":6303:6382   */\n      tag_223\n      tag_79\n      jump\t// in\n    tag_223:\n        /* \"#utility.yul\":6265:6384   */\n    tag_222:\n        /* \"#utility.yul\":6423:6424   */\n      0x00\n        /* \"#utility.yul\":6448:6515   */\n      tag_224\n        /* \"#utility.yul\":6507:6514   */\n      dup7\n        /* \"#utility.yul\":6498:6504   */\n      dup3\n        /* \"#utility.yul\":6487:6496   */\n      dup8\n        /* \"#utility.yul\":6483:6505   */\n      add\n        /* \"#utility.yul\":6448:6515   */\n      tag_95\n      jump\t// in\n    tag_224:\n        /* \"#utility.yul\":6438:6515   */\n      swap4\n      pop\n        /* \"#utility.yul\":6394:6525   */\n      pop\n        /* \"#utility.yul\":6592:6594   */\n      0x20\n        /* \"#utility.yul\":6581:6590   */\n      dup5\n        /* \"#utility.yul\":6577:6595   */\n      add\n        /* \"#utility.yul\":6564:6596   */\n      calldataload\n        /* \"#utility.yul\":6623:6641   */\n      0xffffffffffffffff\n        /* \"#utility.yul\":6615:6621   */\n      dup2\n        /* \"#utility.yul\":6612:6642   */\n      gt\n        /* \"#utility.yul\":6609:6726   */\n      iszero\n      tag_225\n      jumpi\n        /* \"#utility.yul\":6645:6724   */\n      tag_226\n      tag_80\n      jump\t// in\n    tag_226:\n        /* \"#utility.yul\":6609:6726   */\n    tag_225:\n        /* \"#utility.yul\":6750:6813   */\n      tag_227\n        /* \"#utility.yul\":6805:6812   */\n      dup7\n        /* \"#utility.yul\":6796:6802   */\n      dup3\n        /* \"#utility.yul\":6785:6794   */\n      dup8\n        /* \"#utility.yul\":6781:6803   */\n      add\n        /* \"#utility.yul\":6750:6813   */\n      tag_105\n      jump\t// in\n    tag_227:\n        /* \"#utility.yul\":6740:6813   */\n      swap3\n      pop\n        /* \"#utility.yul\":6535:6823   */\n      pop\n        /* \"#utility.yul\":6862:6864   */\n      0x40\n        /* \"#utility.yul\":6888:6941   */\n      tag_228\n        /* \"#utility.yul\":6933:6940   */\n      dup7\n        /* \"#utility.yul\":6924:6930   */\n      dup3\n        /* \"#utility.yul\":6913:6922   */\n      dup8\n        /* \"#utility.yul\":6909:6931   */\n      add\n        /* \"#utility.yul\":6888:6941   */\n      tag_108\n      jump\t// in\n    tag_228:\n        /* \"#utility.yul\":6878:6941   */\n      swap2\n      pop\n        /* \"#utility.yul\":6833:6951   */\n      pop\n        /* \"#utility.yul\":6131:6958   */\n      swap3\n      pop\n      swap3\n      pop\n      swap3\n      jump\t// out\n        /* \"#utility.yul\":6964:7063   */\n    tag_109:\n        /* \"#utility.yul\":7016:7022   */\n      0x00\n        /* \"#utility.yul\":7050:7055   */\n      dup2\n        /* \"#utility.yul\":7044:7056   */\n      mload\n        /* \"#utility.yul\":7034:7056   */\n      swap1\n      pop\n        /* \"#utility.yul\":6964:7063   */\n      swap2\n      swap1\n      pop\n      jump\t// out\n        /* \"#utility.yul\":7069:7228   */\n    tag_110:\n        /* \"#utility.yul\":7143:7154   */\n      0x00\n        /* \"#utility.yul\":7177:7183   */\n      dup3\n        /* \"#utility.yul\":7172:7175   */\n      dup3\n        /* \"#utility.yul\":7165:7184   */\n      mstore\n        /* \"#utility.yul\":7217:7221   */\n      0x20\n        /* \"#utility.yul\":7212:7215   */\n      dup3\n        /* \"#utility.yul\":7208:7222   */\n      add\n        /* \"#utility.yul\":7193:7222   */\n      swap1\n      pop\n        /* \"#utility.yul\":7069:7228   */\n      swap3\n      swap2\n      pop\n      pop\n      jump\t// out\n        /* \"#utility.yul\":7234:7373   */\n    tag_111:\n        /* \"#utility.yul\":7323:7329   */\n      dup3\n        /* \"#utility.yul\":7318:7321   */\n      dup2\n        /* \"#utility.yul\":7313:7316   */\n      dup4\n        /* \"#utility.yul\":7307:7330   */\n      mcopy\n        /* \"#utility.yul\":7364:7365   */\n      0x00\n        /* \"#utility.yul\":7355:7361   */\n      dup4\n        /* \"#utility.yul\":7350:7353   */\n      dup4\n        /* \"#utility.yul\":7346:7362   */\n      add\n        /* \"#utility.yul\":7339:7366   */\n      mstore\n        /* \"#utility.yul\":7234:7373   */\n      pop\n      pop\n      pop\n      jump\t// out\n        /* \"#utility.yul\":7379:7736   */\n    tag_112:\n        /* \"#utility.yul\":7457:7460   */\n      0x00\n        /* \"#utility.yul\":7485:7524   */\n      tag_233\n        /* \"#utility.yul\":7518:7523   */\n      dup3\n        /* \"#utility.yul\":7485:7524   */\n      tag_109\n      jump\t// in\n    tag_233:\n        /* \"#utility.yul\":7540:7601   */\n      tag_234\n        /* \"#utility.yul\":7594:7600   */\n      dup2\n        /* \"#utility.yul\":7589:7592   */\n      dup6\n        /* \"#utility.yul\":7540:7601   */\n      tag_110\n      jump\t// in\n    tag_234:\n        /* \"#utility.yul\":7533:7601   */\n      swap4\n      pop\n        /* \"#utility.yul\":7610:7675   */\n      tag_235\n        /* \"#utility.yul\":7668:7674   */\n      dup2\n        /* \"#utility.yul\":7663:7666   */\n      dup6\n        /* \"#utility.yul\":7656:7660   */\n      0x20\n        /* \"#utility.yul\":7649:7654   */\n      dup7\n        /* \"#utility.yul\":7645:7661   */\n      add\n        /* \"#utility.yul\":7610:7675   */\n      tag_111\n      jump\t// in\n    tag_235:\n        /* \"#utility.yul\":7700:7729   */\n      tag_236\n        /* \"#utility.yul\":7722:7728   */\n      dup2\n        /* \"#utility.yul\":7700:7729   */\n      tag_98\n      jump\t// in\n    tag_236:\n        /* \"#utility.yul\":7695:7698   */\n      dup5\n        /* \"#utility.yul\":7691:7730   */\n      add\n        /* \"#utility.yul\":7684:7730   */\n      swap2\n      pop\n        /* \"#utility.yul\":7461:7736   */\n      pop\n        /* \"#utility.yul\":7379:7736   */\n      swap3\n      swap2\n      pop\n      pop\n      jump\t// out\n        /* \"#utility.yul\":7742:7850   */\n    tag_113:\n        /* \"#utility.yul\":7819:7843   */\n      tag_238\n        /* \"#utility.yul\":7837:7842   */\n      dup2\n        /* \"#utility.yul\":7819:7843   */\n      tag_106\n      jump\t// in\n    tag_238:\n        /* \"#utility.yul\":7814:7817   */\n      dup3\n        /* \"#utility.yul\":7807:7844   */\n      mstore\n        /* \"#utility.yul\":7742:7850   */\n      pop\n      pop\n      jump\t// out\n        /* \"#utility.yul\":7856:7991   */\n    tag_114:\n        /* \"#utility.yul\":7940:7984   */\n      tag_240\n        /* \"#utility.yul\":7978:7983   */\n      dup2\n        /* \"#utility.yul\":7940:7984   */\n      tag_87\n      jump\t// in\n    tag_240:\n        /* \"#utility.yul\":7935:7938   */\n      dup3\n        /* \"#utility.yul\":7928:7985   */\n      mstore\n        /* \"#utility.yul\":7856:7991   */\n      pop\n      pop\n      jump\t// out\n        /* \"#utility.yul\":8101:9158   */\n    tag_115:\n        /* \"#utility.yul\":8232:8235   */\n      0x00\n        /* \"#utility.yul\":8268:8272   */\n      0x80\n        /* \"#utility.yul\":8263:8266   */\n      dup4\n        /* \"#utility.yul\":8259:8273   */\n      add\n        /* \"#utility.yul\":8359:8363   */\n      0x00\n        /* \"#utility.yul\":8352:8357   */\n      dup4\n        /* \"#utility.yul\":8348:8364   */\n      add\n        /* \"#utility.yul\":8342:8365   */\n      mload\n        /* \"#utility.yul\":8412:8415   */\n      dup5\n        /* \"#utility.yul\":8406:8410   */\n      dup3\n        /* \"#utility.yul\":8402:8416   */\n      sub\n        /* \"#utility.yul\":8395:8399   */\n      0x00\n        /* \"#utility.yul\":8390:8393   */\n      dup7\n        /* \"#utility.yul\":8386:8400   */\n      add\n        /* \"#utility.yul\":8379:8417   */\n      mstore\n        /* \"#utility.yul\":8438:8511   */\n      tag_242\n        /* \"#utility.yul\":8506:8510   */\n      dup3\n        /* \"#utility.yul\":8492:8504   */\n      dup3\n        /* \"#utility.yul\":8438:8511   */\n      tag_112\n      jump\t// in\n    tag_242:\n        /* \"#utility.yul\":8430:8511   */\n      swap2\n      pop\n        /* \"#utility.yul\":8283:8522   */\n      pop\n        /* \"#utility.yul\":8603:8607   */\n      0x20\n        /* \"#utility.yul\":8596:8601   */\n      dup4\n        /* \"#utility.yul\":8592:8608   */\n      add\n        /* \"#utility.yul\":8586:8609   */\n      mload\n        /* \"#utility.yul\":8622:8685   */\n      tag_243\n        /* \"#utility.yul\":8679:8683   */\n      0x20\n        /* \"#utility.yul\":8674:8677   */\n      dup7\n        /* \"#utility.yul\":8670:8684   */\n      add\n        /* \"#utility.yul\":8656:8668   */\n      dup3\n        /* \"#utility.yul\":8622:8685   */\n      tag_113\n      jump\t// in\n    tag_243:\n        /* \"#utility.yul\":8532:8695   */\n      pop\n        /* \"#utility.yul\":8779:8783   */\n      0x40\n        /* \"#utility.yul\":8772:8777   */\n      dup4\n        /* \"#utility.yul\":8768:8784   */\n      add\n        /* \"#utility.yul\":8762:8785   */\n      mload\n        /* \"#utility.yul\":8798:8868   */\n      tag_244\n        /* \"#utility.yul\":8862:8866   */\n      0x40\n        /* \"#utility.yul\":8857:8860   */\n      dup7\n        /* \"#utility.yul\":8853:8867   */\n      add\n        /* \"#utility.yul\":8839:8851   */\n      dup3\n        /* \"#utility.yul\":8798:8868   */\n      tag_114\n      jump\t// in\n    tag_244:\n        /* \"#utility.yul\":8705:8878   */\n      pop\n        /* \"#utility.yul\":8968:8972   */\n      0x60\n        /* \"#utility.yul\":8961:8966   */\n      dup4\n        /* \"#utility.yul\":8957:8973   */\n      add\n        /* \"#utility.yul\":8951:8974   */\n      mload\n        /* \"#utility.yul\":9021:9024   */\n      dup5\n        /* \"#utility.yul\":9015:9019   */\n      dup3\n        /* \"#utility.yul\":9011:9025   */\n      sub\n        /* \"#utility.yul\":9004:9008   */\n      0x60\n        /* \"#utility.yul\":8999:9002   */\n      dup7\n        /* \"#utility.yul\":8995:9009   */\n      add\n        /* \"#utility.yul\":8988:9026   */\n      mstore\n        /* \"#utility.yul\":9047:9120   */\n      tag_245\n        /* \"#utility.yul\":9115:9119   */\n      dup3\n        /* \"#utility.yul\":9101:9113   */\n      dup3\n        /* \"#utility.yul\":9047:9120   */\n      tag_112\n      jump\t// in\n    tag_245:\n        /* \"#utility.yul\":9039:9120   */\n      swap2\n      pop\n        /* \"#utility.yul\":8888:9131   */\n      pop\n        /* \"#utility.yul\":9148:9152   */\n      dup1\n        /* \"#utility.yul\":9141:9152   */\n      swap2\n      pop\n        /* \"#utility.yul\":8237:9158   */\n      pop\n        /* \"#utility.yul\":8101:9158   */\n      swap3\n      swap2\n      pop\n      pop\n      jump\t// out\n        /* \"#utility.yul\":9164:9283   */\n    tag_116:\n        /* \"#utility.yul\":9251:9252   */\n      0x03\n        /* \"#utility.yul\":9244:9249   */\n      dup2\n        /* \"#utility.yul\":9241:9253   */\n      lt\n        /* \"#utility.yul\":9231:9277   */\n      tag_247\n      jumpi\n        /* \"#utility.yul\":9257:9275   */\n      tag_248\n      tag_40\n      jump\t// in\n    tag_248:\n        /* \"#utility.yul\":9231:9277   */\n    tag_247:\n        /* \"#utility.yul\":9164:9283   */\n      pop\n      jump\t// out\n        /* \"#utility.yul\":9289:9428   */\n    tag_117:\n        /* \"#utility.yul\":9340:9347   */\n      0x00\n        /* \"#utility.yul\":9369:9374   */\n      dup2\n        /* \"#utility.yul\":9358:9374   */\n      swap1\n      pop\n        /* \"#utility.yul\":9375:9422   */\n      tag_250\n        /* \"#utility.yul\":9416:9421   */\n      dup3\n        /* \"#utility.yul\":9375:9422   */\n      tag_116\n      jump\t// in\n    tag_250:\n        /* \"#utility.yul\":9289:9428   */\n      swap2\n      swap1\n      pop\n      jump\t// out\n        /* \"#utility.yul\":9434:9573   */\n    tag_118:\n        /* \"#utility.yul\":9496:9505   */\n      0x00\n        /* \"#utility.yul\":9529:9567   */\n      tag_252\n        /* \"#utility.yul\":9561:9566   */\n      dup3\n        /* \"#utility.yul\":9529:9567   */\n      tag_117\n      jump\t// in\n    tag_252:\n        /* \"#utility.yul\":9516:9567   */\n      swap1\n      pop\n        /* \"#utility.yul\":9434:9573   */\n      swap2\n      swap1\n      pop\n      jump\t// out\n        /* \"#utility.yul\":9579:9724   */\n    tag_119:\n        /* \"#utility.yul\":9668:9717   */\n      tag_254\n        /* \"#utility.yul\":9711:9716   */\n      dup2\n        /* \"#utility.yul\":9668:9717   */\n      tag_118\n      jump\t// in\n    tag_254:\n        /* \"#utility.yul\":9663:9666   */\n      dup3\n        /* \"#utility.yul\":9656:9718   */\n      mstore\n        /* \"#utility.yul\":9579:9724   */\n      pop\n      pop\n      jump\t// out\n        /* \"#utility.yul\":9842:10663   */\n    tag_120:\n        /* \"#utility.yul\":9981:9984   */\n      0x00\n        /* \"#utility.yul\":10017:10021   */\n      0x60\n        /* \"#utility.yul\":10012:10015   */\n      dup4\n        /* \"#utility.yul\":10008:10022   */\n      add\n        /* \"#utility.yul\":10111:10115   */\n      0x00\n        /* \"#utility.yul\":10104:10109   */\n      dup4\n        /* \"#utility.yul\":10100:10116   */\n      add\n        /* \"#utility.yul\":10094:10117   */\n      mload\n        /* \"#utility.yul\":10130:10205   */\n      tag_256\n        /* \"#utility.yul\":10199:10203   */\n      0x00\n        /* \"#utility.yul\":10194:10197   */\n      dup7\n        /* \"#utility.yul\":10190:10204   */\n      add\n        /* \"#utility.yul\":10176:10188   */\n      dup3\n        /* \"#utility.yul\":10130:10205   */\n      tag_119\n      jump\t// in\n    tag_256:\n        /* \"#utility.yul\":10032:10215   */\n      pop\n        /* \"#utility.yul\":10300:10304   */\n      0x20\n        /* \"#utility.yul\":10293:10298   */\n      dup4\n        /* \"#utility.yul\":10289:10305   */\n      add\n        /* \"#utility.yul\":10283:10306   */\n      mload\n        /* \"#utility.yul\":10353:10356   */\n      dup5\n        /* \"#utility.yul\":10347:10351   */\n      dup3\n        /* \"#utility.yul\":10343:10357   */\n      sub\n        /* \"#utility.yul\":10336:10340   */\n      0x20\n        /* \"#utility.yul\":10331:10334   */\n      dup7\n        /* \"#utility.yul\":10327:10341   */\n      add\n        /* \"#utility.yul\":10320:10358   */\n      mstore\n        /* \"#utility.yul\":10379:10452   */\n      tag_257\n        /* \"#utility.yul\":10447:10451   */\n      dup3\n        /* \"#utility.yul\":10433:10445   */\n      dup3\n        /* \"#utility.yul\":10379:10452   */\n      tag_112\n      jump\t// in\n    tag_257:\n        /* \"#utility.yul\":10371:10452   */\n      swap2\n      pop\n        /* \"#utility.yul\":10225:10463   */\n      pop\n        /* \"#utility.yul\":10544:10548   */\n      0x40\n        /* \"#utility.yul\":10537:10542   */\n      dup4\n        /* \"#utility.yul\":10533:10549   */\n      add\n        /* \"#utility.yul\":10527:10550   */\n      mload\n        /* \"#utility.yul\":10563:10626   */\n      tag_258\n        /* \"#utility.yul\":10620:10624   */\n      0x40\n        /* \"#utility.yul\":10615:10618   */\n      dup7\n        /* \"#utility.yul\":10611:10625   */\n      add\n        /* \"#utility.yul\":10597:10609   */\n      dup3\n        /* \"#utility.yul\":10563:10626   */\n      tag_113\n      jump\t// in\n    tag_258:\n        /* \"#utility.yul\":10473:10636   */\n      pop\n        /* \"#utility.yul\":10653:10657   */\n      dup1\n        /* \"#utility.yul\":10646:10657   */\n      swap2\n      pop\n        /* \"#utility.yul\":9986:10663   */\n      pop\n        /* \"#utility.yul\":9842:10663   */\n      swap3\n      swap2\n      pop\n      pop\n      jump\t// out\n        /* \"#utility.yul\":10669:11367   */\n    tag_32:\n        /* \"#utility.yul\":10922:10926   */\n      0x00\n        /* \"#utility.yul\":10960:10962   */\n      0x40\n        /* \"#utility.yul\":10949:10958   */\n      dup3\n        /* \"#utility.yul\":10945:10963   */\n      add\n        /* \"#utility.yul\":10937:10963   */\n      swap1\n      pop\n        /* \"#utility.yul\":11009:11018   */\n      dup2\n        /* \"#utility.yul\":11003:11007   */\n      dup2\n        /* \"#utility.yul\":10999:11019   */\n      sub\n        /* \"#utility.yul\":10995:10996   */\n      0x00\n        /* \"#utility.yul\":10984:10993   */\n      dup4\n        /* \"#utility.yul\":10980:10997   */\n      add\n        /* \"#utility.yul\":10973:11020   */\n      mstore\n        /* \"#utility.yul\":11037:11157   */\n      tag_260\n        /* \"#utility.yul\":11152:11156   */\n      dup2\n        /* \"#utility.yul\":11143:11149   */\n      dup6\n        /* \"#utility.yul\":11037:11157   */\n      tag_115\n      jump\t// in\n    tag_260:\n        /* \"#utility.yul\":11029:11157   */\n      swap1\n      pop\n        /* \"#utility.yul\":11204:11213   */\n      dup2\n        /* \"#utility.yul\":11198:11202   */\n      dup2\n        /* \"#utility.yul\":11194:11214   */\n      sub\n        /* \"#utility.yul\":11189:11191   */\n      0x20\n        /* \"#utility.yul\":11178:11187   */\n      dup4\n        /* \"#utility.yul\":11174:11192   */\n      add\n        /* \"#utility.yul\":11167:11215   */\n      mstore\n        /* \"#utility.yul\":11232:11360   */\n      tag_261\n        /* \"#utility.yul\":11355:11359   */\n      dup2\n        /* \"#utility.yul\":11346:11352   */\n      dup5\n        /* \"#utility.yul\":11232:11360   */\n      tag_120\n      jump\t// in\n    tag_261:\n        /* \"#utility.yul\":11224:11360   */\n      swap1\n      pop\n        /* \"#utility.yul\":10669:11367   */\n      swap4\n      swap3\n      pop\n      pop\n      pop\n      jump\t// out\n        /* \"#utility.yul\":11373:11481   */\n    tag_121:\n        /* \"#utility.yul\":11455:11456   */\n      0x02\n        /* \"#utility.yul\":11448:11453   */\n      dup2\n        /* \"#utility.yul\":11445:11457   */\n      lt\n        /* \"#utility.yul\":11435:11475   */\n      tag_263\n      jumpi\n        /* \"#utility.yul\":11471:11472   */\n      0x00\n        /* \"#utility.yul\":11468:11469   */\n      0x00\n        /* \"#utility.yul\":11461:11473   */\n      revert\n        /* \"#utility.yul\":11435:11475   */\n    tag_263:\n        /* \"#utility.yul\":11373:11481   */\n      pop\n      jump\t// out\n        /* \"#utility.yul\":11487:11644   */\n    tag_122:\n        /* \"#utility.yul\":11542:11547   */\n      0x00\n        /* \"#utility.yul\":11580:11586   */\n      dup2\n        /* \"#utility.yul\":11567:11587   */\n      calldataload\n        /* \"#utility.yul\":11558:11587   */\n      swap1\n      pop\n        /* \"#utility.yul\":11596:11638   */\n      tag_265\n        /* \"#utility.yul\":11632:11637   */\n      dup2\n        /* \"#utility.yul\":11596:11638   */\n      tag_121\n      jump\t// in\n    tag_265:\n        /* \"#utility.yul\":11487:11644   */\n      swap3\n      swap2\n      pop\n      pop\n      jump\t// out\n        /* \"#utility.yul\":11650:12793   */\n    tag_35:\n        /* \"#utility.yul\":11765:11771   */\n      0x00\n        /* \"#utility.yul\":11773:11779   */\n      0x00\n        /* \"#utility.yul\":11781:11787   */\n      0x00\n        /* \"#utility.yul\":11789:11795   */\n      0x00\n        /* \"#utility.yul\":11838:11841   */\n      0x80\n        /* \"#utility.yul\":11826:11835   */\n      dup6\n        /* \"#utility.yul\":11817:11824   */\n      dup8\n        /* \"#utility.yul\":11813:11836   */\n      sub\n        /* \"#utility.yul\":11809:11842   */\n      slt\n        /* \"#utility.yul\":11806:11926   */\n      iszero\n      tag_267\n      jumpi\n        /* \"#utility.yul\":11845:11924   */\n      tag_268\n      tag_79\n      jump\t// in\n    tag_268:\n        /* \"#utility.yul\":11806:11926   */\n    tag_267:\n        /* \"#utility.yul\":11993:11994   */\n      0x00\n        /* \"#utility.yul\":11982:11991   */\n      dup6\n        /* \"#utility.yul\":11978:11995   */\n      add\n        /* \"#utility.yul\":11965:11996   */\n      calldataload\n        /* \"#utility.yul\":12023:12041   */\n      0xffffffffffffffff\n        /* \"#utility.yul\":12015:12021   */\n      dup2\n        /* \"#utility.yul\":12012:12042   */\n      gt\n        /* \"#utility.yul\":12009:12126   */\n      iszero\n      tag_269\n      jumpi\n        /* \"#utility.yul\":12045:12124   */\n      tag_270\n      tag_80\n      jump\t// in\n    tag_270:\n        /* \"#utility.yul\":12009:12126   */\n    tag_269:\n        /* \"#utility.yul\":12150:12213   */\n      tag_271\n        /* \"#utility.yul\":12205:12212   */\n      dup8\n        /* \"#utility.yul\":12196:12202   */\n      dup3\n        /* \"#utility.yul\":12185:12194   */\n      dup9\n        /* \"#utility.yul\":12181:12203   */\n      add\n        /* \"#utility.yul\":12150:12213   */\n      tag_105\n      jump\t// in\n    tag_271:\n        /* \"#utility.yul\":12140:12213   */\n      swap5\n      pop\n        /* \"#utility.yul\":11936:12223   */\n      pop\n        /* \"#utility.yul\":12262:12264   */\n      0x20\n        /* \"#utility.yul\":12288:12350   */\n      tag_272\n        /* \"#utility.yul\":12342:12349   */\n      dup8\n        /* \"#utility.yul\":12333:12339   */\n      dup3\n        /* \"#utility.yul\":12322:12331   */\n      dup9\n        /* \"#utility.yul\":12318:12340   */\n      add\n        /* \"#utility.yul\":12288:12350   */\n      tag_122\n      jump\t// in\n    tag_272:\n        /* \"#utility.yul\":12278:12350   */\n      swap4\n      pop\n        /* \"#utility.yul\":12233:12360   */\n      pop\n        /* \"#utility.yul\":12399:12401   */\n      0x40\n        /* \"#utility.yul\":12425:12478   */\n      tag_273\n        /* \"#utility.yul\":12470:12477   */\n      dup8\n        /* \"#utility.yul\":12461:12467   */\n      dup3\n        /* \"#utility.yul\":12450:12459   */\n      dup9\n        /* \"#utility.yul\":12446:12468   */\n      add\n        /* \"#utility.yul\":12425:12478   */\n      tag_108\n      jump\t// in\n    tag_273:\n        /* \"#utility.yul\":12415:12478   */\n      swap3\n      pop\n        /* \"#utility.yul\":12370:12488   */\n      pop\n        /* \"#utility.yul\":12555:12557   */\n      0x60\n        /* \"#utility.yul\":12544:12553   */\n      dup6\n        /* \"#utility.yul\":12540:12558   */\n      add\n        /* \"#utility.yul\":12527:12559   */\n      calldataload\n        /* \"#utility.yul\":12586:12604   */\n      0xffffffffffffffff\n        /* \"#utility.yul\":12578:12584   */\n      dup2\n        /* \"#utility.yul\":12575:12605   */\n      gt\n        /* \"#utility.yul\":12572:12689   */\n      iszero\n      tag_274\n      jumpi\n        /* \"#utility.yul\":12608:12687   */\n      tag_275\n      tag_80\n      jump\t// in\n    tag_275:\n        /* \"#utility.yul\":12572:12689   */\n    tag_274:\n        /* \"#utility.yul\":12713:12776   */\n      tag_276\n        /* \"#utility.yul\":12768:12775   */\n      dup8\n        /* \"#utility.yul\":12759:12765   */\n      dup3\n        /* \"#utility.yul\":12748:12757   */\n      dup9\n        /* \"#utility.yul\":12744:12766   */\n      add\n        /* \"#utility.yul\":12713:12776   */\n      tag_105\n      jump\t// in\n    tag_276:\n        /* \"#utility.yul\":12703:12776   */\n      swap2\n      pop\n        /* \"#utility.yul\":12498:12786   */\n      pop\n        /* \"#utility.yul\":11650:12793   */\n      swap3\n      swap6\n      swap2\n      swap5\n      pop\n      swap3\n      pop\n      jump\t// out\n        /* \"#utility.yul\":12799:12979   */\n    tag_123:\n        /* \"#utility.yul\":12847:12924   */\n      0x4e487b7100000000000000000000000000000000000000000000000000000000\n        /* \"#utility.yul\":12844:12845   */\n      0x00\n        /* \"#utility.yul\":12837:12925   */\n      mstore\n        /* \"#utility.yul\":12944:12948   */\n      0x22\n        /* \"#utility.yul\":12941:12942   */\n      0x04\n        /* \"#utility.yul\":12934:12949   */\n      mstore\n        /* \"#utility.yul\":12968:12972   */\n      0x24\n        /* \"#utility.yul\":12965:12966   */\n      0x00\n        /* \"#utility.yul\":12958:12973   */\n      revert\n        /* \"#utility.yul\":12985:13305   */\n    tag_46:\n        /* \"#utility.yul\":13029:13035   */\n      0x00\n        /* \"#utility.yul\":13066:13067   */\n      0x02\n        /* \"#utility.yul\":13060:13064   */\n      dup3\n        /* \"#utility.yul\":13056:13068   */\n      div\n        /* \"#utility.yul\":13046:13068   */\n      swap1\n      pop\n        /* \"#utility.yul\":13113:13114   */\n      0x01\n        /* \"#utility.yul\":13107:13111   */\n      dup3\n        /* \"#utility.yul\":13103:13115   */\n      and\n        /* \"#utility.yul\":13134:13152   */\n      dup1\n        /* \"#utility.yul\":13124:13205   */\n      tag_279\n      jumpi\n        /* \"#utility.yul\":13190:13194   */\n      0x7f\n        /* \"#utility.yul\":13182:13188   */\n      dup3\n        /* \"#utility.yul\":13178:13195   */\n      and\n        /* \"#utility.yul\":13168:13195   */\n      swap2\n      pop\n        /* \"#utility.yul\":13124:13205   */\n    tag_279:\n        /* \"#utility.yul\":13252:13254   */\n      0x20\n        /* \"#utility.yul\":13244:13250   */\n      dup3\n        /* \"#utility.yul\":13241:13255   */\n      lt\n        /* \"#utility.yul\":13221:13239   */\n      dup2\n        /* \"#utility.yul\":13218:13256   */\n      sub\n        /* \"#utility.yul\":13215:13299   */\n      tag_280\n      jumpi\n        /* \"#utility.yul\":13271:13289   */\n      tag_281\n      tag_123\n      jump\t// in\n    tag_281:\n        /* \"#utility.yul\":13215:13299   */\n    tag_280:\n        /* \"#utility.yul\":13036:13305   */\n      pop\n        /* \"#utility.yul\":12985:13305   */\n      swap2\n      swap1\n      pop\n      jump\t// out\n        /* \"#utility.yul\":13311:13452   */\n    tag_124:\n        /* \"#utility.yul\":13360:13364   */\n      0x00\n        /* \"#utility.yul\":13383:13386   */\n      dup2\n        /* \"#utility.yul\":13375:13386   */\n      swap1\n      pop\n        /* \"#utility.yul\":13406:13409   */\n      dup2\n        /* \"#utility.yul\":13403:13404   */\n      0x00\n        /* \"#utility.yul\":13396:13410   */\n      mstore\n        /* \"#utility.yul\":13440:13444   */\n      0x20\n        /* \"#utility.yul\":13437:13438   */\n      0x00\n        /* \"#utility.yul\":13427:13445   */\n      keccak256\n        /* \"#utility.yul\":13419:13445   */\n      swap1\n      pop\n        /* \"#utility.yul\":13311:13452   */\n      swap2\n      swap1\n      pop\n      jump\t// out\n        /* \"#utility.yul\":13458:13551   */\n    tag_125:\n        /* \"#utility.yul\":13495:13501   */\n      0x00\n        /* \"#utility.yul\":13542:13544   */\n      0x20\n        /* \"#utility.yul\":13537:13539   */\n      0x1f\n        /* \"#utility.yul\":13530:13535   */\n      dup4\n        /* \"#utility.yul\":13526:13540   */\n      add\n        /* \"#utility.yul\":13522:13545   */\n      div\n        /* \"#utility.yul\":13512:13545   */\n      swap1\n      pop\n        /* \"#utility.yul\":13458:13551   */\n      swap2\n      swap1\n      pop\n      jump\t// out\n        /* \"#utility.yul\":13557:13664   */\n    tag_126:\n        /* \"#utility.yul\":13601:13609   */\n      0x00\n        /* \"#utility.yul\":13651:13656   */\n      dup3\n        /* \"#utility.yul\":13645:13649   */\n      dup3\n        /* \"#utility.yul\":13641:13657   */\n      shl\n        /* \"#utility.yul\":13620:13657   */\n      swap1\n      pop\n        /* \"#utility.yul\":13557:13664   */\n      swap3\n      swap2\n      pop\n      pop\n      jump\t// out\n        /* \"#utility.yul\":13670:14063   */\n    tag_127:\n        /* \"#utility.yul\":13739:13745   */\n      0x00\n        /* \"#utility.yul\":13789:13790   */\n      0x08\n        /* \"#utility.yul\":13777:13787   */\n      dup4\n        /* \"#utility.yul\":13773:13791   */\n      mul\n        /* \"#utility.yul\":13812:13909   */\n      tag_286\n        /* \"#utility.yul\":13842:13908   */\n      0xffffffffffffffffffffffffffffffffffffffffffffffffffffffffffffffff\n        /* \"#utility.yul\":13831:13840   */\n      dup3\n        /* \"#utility.yul\":13812:13909   */\n      tag_126\n      jump\t// in\n    tag_286:\n        /* \"#utility.yul\":13930:13969   */\n      tag_287\n        /* \"#utility.yul\":13960:13968   */\n      dup7\n        /* \"#utility.yul\":13949:13958   */\n      dup4\n        /* \"#utility.yul\":13930:13969   */\n      tag_126\n      jump\t// in\n    tag_287:\n        /* \"#utility.yul\":13918:13969   */\n      swap6\n      pop\n        /* \"#utility.yul\":14002:14006   */\n      dup1\n        /* \"#utility.yul\":13998:14007   */\n      not\n        /* \"#utility.yul\":13991:13996   */\n      dup5\n        /* \"#utility.yul\":13987:14008   */\n      and\n        /* \"#utility.yul\":13978:14008   */\n      swap4\n      pop\n        /* \"#utility.yul\":14051:14055   */\n      dup1\n        /* \"#utility.yul\":14041:14049   */\n      dup7\n        /* \"#utility.yul\":14037:14056   */\n      and\n        /* \"#utility.yul\":14030:14035   */\n      dup5\n        /* \"#utility.yul\":14027:14057   */\n      or\n        /* \"#utility.yul\":14017:14057   */\n      swap3\n      pop\n        /* \"#utility.yul\":13746:14063   */\n      pop\n      pop\n        /* \"#utility.yul\":13670:14063   */\n      swap4\n      swap3\n      pop\n      pop\n      pop\n      jump\t// out\n        /* \"#utility.yul\":14069:14129   */\n    tag_128:\n        /* \"#utility.yul\":14097:14100   */\n      0x00\n        /* \"#utility.yul\":14118:14123   */\n      dup2\n        /* \"#utility.yul\":14111:14123   */\n      swap1\n      pop\n        /* \"#utility.yul\":14069:14129   */\n      swap2\n      swap1\n      pop\n      jump\t// out\n        /* \"#utility.yul\":14135:14277   */\n    tag_129:\n        /* \"#utility.yul\":14185:14194   */\n      0x00\n        /* \"#utility.yul\":14218:14271   */\n      tag_290\n        /* \"#utility.yul\":14236:14270   */\n      tag_291\n        /* \"#utility.yul\":14245:14269   */\n      tag_292\n        /* \"#utility.yul\":14263:14268   */\n      dup5\n        /* \"#utility.yul\":14245:14269   */\n      tag_106\n      jump\t// in\n    tag_292:\n        /* \"#utility.yul\":14236:14270   */\n      tag_128\n      jump\t// in\n    tag_291:\n        /* \"#utility.yul\":14218:14271   */\n      tag_106\n      jump\t// in\n    tag_290:\n        /* \"#utility.yul\":14205:14271   */\n      swap1\n      pop\n        /* \"#utility.yul\":14135:14277   */\n      swap2\n      swap1\n      pop\n      jump\t// out\n        /* \"#utility.yul\":14283:14358   */\n    tag_130:\n        /* \"#utility.yul\":14326:14329   */\n      0x00\n        /* \"#utility.yul\":14347:14352   */\n      dup2\n        /* \"#utility.yul\":14340:14352   */\n      swap1\n      pop\n        /* \"#utility.yul\":14283:14358   */\n      swap2\n      swap1\n      pop\n      jump\t// out\n        /* \"#utility.yul\":14364:14633   */\n    tag_131:\n        /* \"#utility.yul\":14474:14513   */\n      tag_295\n        /* \"#utility.yul\":14505:14512   */\n      dup4\n        /* \"#utility.yul\":14474:14513   */\n      tag_129\n      jump\t// in\n    tag_295:\n        /* \"#utility.yul\":14535:14626   */\n      tag_296\n        /* \"#utility.yul\":14584:14625   */\n      tag_297\n        /* \"#utility.yul\":14608:14624   */\n      dup3\n        /* \"#utility.yul\":14584:14625   */\n      tag_130\n      jump\t// in\n    tag_297:\n        /* \"#utility.yul\":14576:14582   */\n      dup5\n        /* \"#utility.yul\":14569:14573   */\n      dup5\n        /* \"#utility.yul\":14563:14574   */\n      sload\n        /* \"#utility.yul\":14535:14626   */\n      tag_127\n      jump\t// in\n    tag_296:\n        /* \"#utility.yul\":14529:14533   */\n      dup3\n        /* \"#utility.yul\":14522:14627   */\n      sstore\n        /* \"#utility.yul\":14440:14633   */\n      pop\n        /* \"#utility.yul\":14364:14633   */\n      pop\n      pop\n      pop\n      jump\t// out\n        /* \"#utility.yul\":14639:14712   */\n    tag_132:\n        /* \"#utility.yul\":14684:14687   */\n      0x00\n        /* \"#utility.yul\":14705:14706   */\n      0x00\n        /* \"#utility.yul\":14698:14706   */\n      swap1\n      pop\n        /* \"#utility.yul\":14639:14712   */\n      swap1\n      jump\t// out\n        /* \"#utility.yul\":14718:14907   */\n    tag_133:\n        /* \"#utility.yul\":14795:14827   */\n      tag_300\n      tag_132\n      jump\t// in\n    tag_300:\n        /* \"#utility.yul\":14836:14901   */\n      tag_301\n        /* \"#utility.yul\":14894:14900   */\n      dup2\n        /* \"#utility.yul\":14886:14892   */\n      dup5\n        /* \"#utility.yul\":14880:14884   */\n      dup5\n        /* \"#utility.yul\":14836:14901   */\n      tag_131\n      jump\t// in\n    tag_301:\n        /* \"#utility.yul\":14771:14907   */\n      pop\n        /* \"#utility.yul\":14718:14907   */\n      pop\n      pop\n      jump\t// out\n        /* \"#utility.yul\":14913:15099   */\n    tag_134:\n        /* \"#utility.yul\":14973:15093   */\n    tag_303:\n        /* \"#utility.yul\":14990:14993   */\n      dup2\n        /* \"#utility.yul\":14983:14988   */\n      dup2\n        /* \"#utility.yul\":14980:14994   */\n      lt\n        /* \"#utility.yul\":14973:15093   */\n      iszero\n      tag_305\n      jumpi\n        /* \"#utility.yul\":15044:15083   */\n      tag_306\n        /* \"#utility.yul\":15081:15082   */\n      0x00\n        /* \"#utility.yul\":15074:15079   */\n      dup3\n        /* \"#utility.yul\":15044:15083   */\n      tag_133\n      jump\t// in\n    tag_306:\n        /* \"#utility.yul\":15017:15018   */\n      0x01\n        /* \"#utility.yul\":15010:15015   */\n      dup2\n        /* \"#utility.yul\":15006:15019   */\n      add\n        /* \"#utility.yul\":14997:15019   */\n      swap1\n      pop\n        /* \"#utility.yul\":14973:15093   */\n      jump(tag_303)\n    tag_305:\n        /* \"#utility.yul\":14913:15099   */\n      pop\n      pop\n      jump\t// out\n        /* \"#utility.yul\":15105:15648   */\n    tag_135:\n        /* \"#utility.yul\":15206:15208   */\n      0x1f\n        /* \"#utility.yul\":15201:15204   */\n      dup3\n        /* \"#utility.yul\":15198:15209   */\n      gt\n        /* \"#utility.yul\":15195:15641   */\n      iszero\n      tag_308\n      jumpi\n        /* \"#utility.yul\":15240:15278   */\n      tag_309\n        /* \"#utility.yul\":15272:15277   */\n      dup2\n        /* \"#utility.yul\":15240:15278   */\n      tag_124\n      jump\t// in\n    tag_309:\n        /* \"#utility.yul\":15324:15353   */\n      tag_310\n        /* \"#utility.yul\":15342:15352   */\n      dup5\n        /* \"#utility.yul\":15324:15353   */\n      tag_125\n      jump\t// in\n    tag_310:\n        /* \"#utility.yul\":15314:15322   */\n      dup2\n        /* \"#utility.yul\":15310:15354   */\n      add\n        /* \"#utility.yul\":15507:15509   */\n      0x20\n        /* \"#utility.yul\":15495:15505   */\n      dup6\n        /* \"#utility.yul\":15492:15510   */\n      lt\n        /* \"#utility.yul\":15489:15538   */\n      iszero\n      tag_311\n      jumpi\n        /* \"#utility.yul\":15528:15536   */\n      dup2\n        /* \"#utility.yul\":15513:15536   */\n      swap1\n      pop\n        /* \"#utility.yul\":15489:15538   */\n    tag_311:\n        /* \"#utility.yul\":15551:15631   */\n      tag_312\n        /* \"#utility.yul\":15607:15629   */\n      tag_313\n        /* \"#utility.yul\":15625:15628   */\n      dup6\n        /* \"#utility.yul\":15607:15629   */\n      tag_125\n      jump\t// in\n    tag_313:\n        /* \"#utility.yul\":15597:15605   */\n      dup4\n        /* \"#utility.yul\":15593:15630   */\n      add\n        /* \"#utility.yul\":15580:15591   */\n      dup3\n        /* \"#utility.yul\":15551:15631   */\n      tag_134\n      jump\t// in\n    tag_312:\n        /* \"#utility.yul\":15210:15641   */\n      pop\n      pop\n        /* \"#utility.yul\":15195:15641   */\n    tag_308:\n        /* \"#utility.yul\":15105:15648   */\n      pop\n      pop\n      pop\n      jump\t// out\n        /* \"#utility.yul\":15654:15771   */\n    tag_136:\n        /* \"#utility.yul\":15708:15716   */\n      0x00\n        /* \"#utility.yul\":15758:15763   */\n      dup3\n        /* \"#utility.yul\":15752:15756   */\n      dup3\n        /* \"#utility.yul\":15748:15764   */\n      shr\n        /* \"#utility.yul\":15727:15764   */\n      swap1\n      pop\n        /* \"#utility.yul\":15654:15771   */\n      swap3\n      swap2\n      pop\n      pop\n      jump\t// out\n        /* \"#utility.yul\":15777:15946   */\n    tag_137:\n        /* \"#utility.yul\":15821:15827   */\n      0x00\n        /* \"#utility.yul\":15854:15905   */\n      tag_316\n        /* \"#utility.yul\":15902:15903   */\n      0x00\n        /* \"#utility.yul\":15898:15904   */\n      not\n        /* \"#utility.yul\":15890:15895   */\n      dup5\n        /* \"#utility.yul\":15887:15888   */\n      0x08\n        /* \"#utility.yul\":15883:15896   */\n      mul\n        /* \"#utility.yul\":15854:15905   */\n      tag_136\n      jump\t// in\n    tag_316:\n        /* \"#utility.yul\":15850:15906   */\n      not\n        /* \"#utility.yul\":15935:15939   */\n      dup1\n        /* \"#utility.yul\":15929:15933   */\n      dup4\n        /* \"#utility.yul\":15925:15940   */\n      and\n        /* \"#utility.yul\":15915:15940   */\n      swap2\n      pop\n        /* \"#utility.yul\":15828:15946   */\n      pop\n        /* \"#utility.yul\":15777:15946   */\n      swap3\n      swap2\n      pop\n      pop\n      jump\t// out\n        /* \"#utility.yul\":15951:16246   */\n    tag_138:\n        /* \"#utility.yul\":16027:16031   */\n      0x00\n        /* \"#utility.yul\":16173:16202   */\n      tag_318\n        /* \"#utility.yul\":16198:16201   */\n      dup4\n        /* \"#utility.yul\":16192:16196   */\n      dup4\n        /* \"#utility.yul\":16173:16202   */\n      tag_137\n      jump\t// in\n    tag_318:\n        /* \"#utility.yul\":16165:16202   */\n      swap2\n      pop\n        /* \"#utility.yul\":16235:16238   */\n      dup3\n        /* \"#utility.yul\":16232:16233   */\n      0x02\n        /* \"#utility.yul\":16228:16239   */\n      mul\n        /* \"#utility.yul\":16222:16226   */\n      dup3\n        /* \"#utility.yul\":16219:16240   */\n      or\n        /* \"#utility.yul\":16211:16240   */\n      swap1\n      pop\n        /* \"#utility.yul\":15951:16246   */\n      swap3\n      swap2\n      pop\n      pop\n      jump\t// out\n        /* \"#utility.yul\":16251:17646   */\n    tag_44:\n        /* \"#utility.yul\":16368:16405   */\n      tag_320\n        /* \"#utility.yul\":16401:16404   */\n      dup3\n        /* \"#utility.yul\":16368:16405   */\n      tag_109\n      jump\t// in\n    tag_320:\n        /* \"#utility.yul\":16470:16488   */\n      0xffffffffffffffff\n        /* \"#utility.yul\":16462:16468   */\n      dup2\n        /* \"#utility.yul\":16459:16489   */\n      gt\n        /* \"#utility.yul\":16456:16512   */\n      iszero\n      tag_321\n      jumpi\n        /* \"#utility.yul\":16492:16510   */\n      tag_322\n      tag_99\n      jump\t// in\n    tag_322:\n        /* \"#utility.yul\":16456:16512   */\n    tag_321:\n        /* \"#utility.yul\":16536:16574   */\n      tag_323\n        /* \"#utility.yul\":16568:16572   */\n      dup3\n        /* \"#utility.yul\":16562:16573   */\n      sload\n        /* \"#utility.yul\":16536:16574   */\n      tag_46\n      jump\t// in\n    tag_323:\n        /* \"#utility.yul\":16621:16688   */\n      tag_324\n        /* \"#utility.yul\":16681:16687   */\n      dup3\n        /* \"#utility.yul\":16673:16679   */\n      dup3\n        /* \"#utility.yul\":16667:16671   */\n      dup6\n        /* \"#utility.yul\":16621:16688   */\n      tag_135\n      jump\t// in\n    tag_324:\n        /* \"#utility.yul\":16715:16716   */\n      0x00\n        /* \"#utility.yul\":16739:16743   */\n      0x20\n        /* \"#utility.yul\":16726:16743   */\n      swap1\n      pop\n        /* \"#utility.yul\":16771:16773   */\n      0x1f\n        /* \"#utility.yul\":16763:16769   */\n      dup4\n        /* \"#utility.yul\":16760:16774   */\n      gt\n        /* \"#utility.yul\":16788:16789   */\n      0x01\n        /* \"#utility.yul\":16783:17401   */\n      dup2\n      eq\n      tag_326\n      jumpi\n        /* \"#utility.yul\":17445:17446   */\n      0x00\n        /* \"#utility.yul\":17462:17468   */\n      dup5\n        /* \"#utility.yul\":17459:17536   */\n      iszero\n      tag_327\n      jumpi\n        /* \"#utility.yul\":17511:17520   */\n      dup3\n        /* \"#utility.yul\":17506:17509   */\n      dup8\n        /* \"#utility.yul\":17502:17521   */\n      add\n        /* \"#utility.yul\":17496:17522   */\n      mload\n        /* \"#utility.yul\":17487:17522   */\n      swap1\n      pop\n        /* \"#utility.yul\":17459:17536   */\n    tag_327:\n        /* \"#utility.yul\":17562:17629   */\n      tag_328\n        /* \"#utility.yul\":17622:17628   */\n      dup6\n        /* \"#utility.yul\":17615:17620   */\n      dup3\n        /* \"#utility.yul\":17562:17629   */\n      tag_138\n      jump\t// in\n    tag_328:\n        /* \"#utility.yul\":17556:17560   */\n      dup7\n        /* \"#utility.yul\":17549:17630   */\n      sstore\n        /* \"#utility.yul\":17418:17640   */\n      pop\n        /* \"#utility.yul\":16753:17640   */\n      jump(tag_325)\n        /* \"#utility.yul\":16783:17401   */\n    tag_326:\n        /* \"#utility.yul\":16835:16839   */\n      0x1f\n        /* \"#utility.yul\":16831:16840   */\n      not\n        /* \"#utility.yul\":16823:16829   */\n      dup5\n        /* \"#utility.yul\":16819:16841   */\n      and\n        /* \"#utility.yul\":16869:16906   */\n      tag_329\n        /* \"#utility.yul\":16901:16905   */\n      dup7\n        /* \"#utility.yul\":16869:16906   */\n      tag_124\n      jump\t// in\n    tag_329:\n        /* \"#utility.yul\":16928:16929   */\n      0x00\n        /* \"#utility.yul\":16942:17150   */\n    tag_330:\n        /* \"#utility.yul\":16956:16963   */\n      dup3\n        /* \"#utility.yul\":16953:16954   */\n      dup2\n        /* \"#utility.yul\":16950:16964   */\n      lt\n        /* \"#utility.yul\":16942:17150   */\n      iszero\n      tag_332\n      jumpi\n        /* \"#utility.yul\":17035:17044   */\n      dup5\n        /* \"#utility.yul\":17030:17033   */\n      dup10\n        /* \"#utility.yul\":17026:17045   */\n      add\n        /* \"#utility.yul\":17020:17046   */\n      mload\n        /* \"#utility.yul\":17012:17018   */\n      dup3\n        /* \"#utility.yul\":17005:17047   */\n      sstore\n        /* \"#utility.yul\":17086:17087   */\n      0x01\n        /* \"#utility.yul\":17078:17084   */\n      dup3\n        /* \"#utility.yul\":17074:17088   */\n      add\n        /* \"#utility.yul\":17064:17088   */\n      swap2\n      pop\n        /* \"#utility.yul\":17133:17135   */\n      0x20\n        /* \"#utility.yul\":17122:17131   */\n      dup6\n        /* \"#utility.yul\":17118:17136   */\n      add\n        /* \"#utility.yul\":17105:17136   */\n      swap5\n      pop\n        /* \"#utility.yul\":16979:16983   */\n      0x20\n        /* \"#utility.yul\":16976:16977   */\n      dup2\n        /* \"#utility.yul\":16972:16984   */\n      add\n        /* \"#utility.yul\":16967:16984   */\n      swap1\n      pop\n        /* \"#utility.yul\":16942:17150   */\n      jump(tag_330)\n    tag_332:\n        /* \"#utility.yul\":17178:17184   */\n      dup7\n        /* \"#utility.yul\":17169:17176   */\n      dup4\n        /* \"#utility.yul\":17166:17185   */\n      lt\n        /* \"#utility.yul\":17163:17342   */\n      iszero\n      tag_333\n      jumpi\n        /* \"#utility.yul\":17236:17245   */\n      dup5\n        /* \"#utility.yul\":17231:17234   */\n      dup10\n        /* \"#utility.yul\":17227:17246   */\n      add\n        /* \"#utility.yul\":17221:17247   */\n      mload\n        /* \"#utility.yul\":17279:17327   */\n      tag_334\n        /* \"#utility.yul\":17321:17325   */\n      0x1f\n        /* \"#utility.yul\":17313:17319   */\n      dup10\n        /* \"#utility.yul\":17309:17326   */\n      and\n        /* \"#utility.yul\":17298:17307   */\n      dup3\n        /* \"#utility.yul\":17279:17327   */\n      tag_137\n      jump\t// in\n    tag_334:\n        /* \"#utility.yul\":17271:17277   */\n      dup4\n        /* \"#utility.yul\":17264:17328   */\n      sstore\n        /* \"#utility.yul\":17186:17342   */\n      pop\n        /* \"#utility.yul\":17163:17342   */\n    tag_333:\n        /* \"#utility.yul\":17388:17389   */\n      0x01\n        /* \"#utility.yul\":17384:17385   */\n      0x02\n        /* \"#utility.yul\":17376:17382   */\n      dup9\n        /* \"#utility.yul\":17372:17386   */\n      mul\n        /* \"#utility.yul\":17368:17390   */\n      add\n        /* \"#utility.yul\":17362:17366   */\n      dup9\n        /* \"#utility.yul\":17355:17391   */\n      sstore\n        /* \"#utility.yul\":16790:17401   */\n      pop\n      pop\n      pop\n        /* \"#utility.yul\":16753:17640   */\n    tag_325:\n      pop\n        /* \"#utility.yul\":16343:17646   */\n      pop\n      pop\n      pop\n        /* \"#utility.yul\":16251:17646   */\n      pop\n      pop\n      jump\t// out\n        /* \"#utility.yul\":17652:17821   */\n    tag_139:\n        /* \"#utility.yul\":17736:17747   */\n      0x00\n        /* \"#utility.yul\":17770:17776   */\n      dup3\n        /* \"#utility.yul\":17765:17768   */\n      dup3\n        /* \"#utility.yul\":17758:17777   */\n      mstore\n        /* \"#utility.yul\":17810:17814   */\n      0x20\n        /* \"#utility.yul\":17805:17808   */\n      dup3\n        /* \"#utility.yul\":17801:17815   */\n      add\n        /* \"#utility.yul\":17786:17815   */\n      swap1\n      pop\n        /* \"#utility.yul\":17652:17821   */\n      swap3\n      swap2\n      pop\n      pop\n      jump\t// out\n        /* \"#utility.yul\":17827:18204   */\n    tag_140:\n        /* \"#utility.yul\":17915:17918   */\n      0x00\n        /* \"#utility.yul\":17943:17982   */\n      tag_337\n        /* \"#utility.yul\":17976:17981   */\n      dup3\n        /* \"#utility.yul\":17943:17982   */\n      tag_109\n      jump\t// in\n    tag_337:\n        /* \"#utility.yul\":17998:18069   */\n      tag_338\n        /* \"#utility.yul\":18062:18068   */\n      dup2\n        /* \"#utility.yul\":18057:18060   */\n      dup6\n        /* \"#utility.yul\":17998:18069   */\n      tag_139\n      jump\t// in\n    tag_338:\n        /* \"#utility.yul\":17991:18069   */\n      swap4\n      pop\n        /* \"#utility.yul\":18078:18143   */\n      tag_339\n        /* \"#utility.yul\":18136:18142   */\n      dup2\n        /* \"#utility.yul\":18131:18134   */\n      dup6\n        /* \"#utility.yul\":18124:18128   */\n      0x20\n        /* \"#utility.yul\":18117:18122   */\n      dup7\n        /* \"#utility.yul\":18113:18129   */\n      add\n        /* \"#utility.yul\":18078:18143   */\n      tag_111\n      jump\t// in\n    tag_339:\n        /* \"#utility.yul\":18168:18197   */\n      tag_340\n        /* \"#utility.yul\":18190:18196   */\n      dup2\n        /* \"#utility.yul\":18168:18197   */\n      tag_98\n      jump\t// in\n    tag_340:\n        /* \"#utility.yul\":18163:18166   */\n      dup5\n        /* \"#utility.yul\":18159:18198   */\n      add\n        /* \"#utility.yul\":18152:18198   */\n      swap2\n      pop\n        /* \"#utility.yul\":17919:18204   */\n      pop\n        /* \"#utility.yul\":17827:18204   */\n      swap3\n      swap2\n      pop\n      pop\n      jump\t// out\n        /* \"#utility.yul\":18210:18328   */\n    tag_141:\n        /* \"#utility.yul\":18297:18321   */\n      tag_342\n        /* \"#utility.yul\":18315:18320   */\n      dup2\n        /* \"#utility.yul\":18297:18321   */\n      tag_106\n      jump\t// in\n    tag_342:\n        /* \"#utility.yul\":18292:18295   */\n      dup3\n        /* \"#utility.yul\":18285:18322   */\n      mstore\n        /* \"#utility.yul\":18210:18328   */\n      pop\n      pop\n      jump\t// out\n        /* \"#utility.yul\":18334:19083   */\n    tag_77:\n        /* \"#utility.yul\":18558:18562   */\n      0x00\n        /* \"#utility.yul\":18596:18599   */\n      0x80\n        /* \"#utility.yul\":18585:18594   */\n      dup3\n        /* \"#utility.yul\":18581:18600   */\n      add\n        /* \"#utility.yul\":18573:18600   */\n      swap1\n      pop\n        /* \"#utility.yul\":18646:18655   */\n      dup2\n        /* \"#utility.yul\":18640:18644   */\n      dup2\n        /* \"#utility.yul\":18636:18656   */\n      sub\n        /* \"#utility.yul\":18632:18633   */\n      0x00\n        /* \"#utility.yul\":18621:18630   */\n      dup4\n        /* \"#utility.yul\":18617:18634   */\n      add\n        /* \"#utility.yul\":18610:18657   */\n      mstore\n        /* \"#utility.yul\":18674:18752   */\n      tag_344\n        /* \"#utility.yul\":18747:18751   */\n      dup2\n        /* \"#utility.yul\":18738:18744   */\n      dup8\n        /* \"#utility.yul\":18674:18752   */\n      tag_140\n      jump\t// in\n    tag_344:\n        /* \"#utility.yul\":18666:18752   */\n      swap1\n      pop\n        /* \"#utility.yul\":18762:18834   */\n      tag_345\n        /* \"#utility.yul\":18830:18832   */\n      0x20\n        /* \"#utility.yul\":18819:18828   */\n      dup4\n        /* \"#utility.yul\":18815:18833   */\n      add\n        /* \"#utility.yul\":18806:18812   */\n      dup7\n        /* \"#utility.yul\":18762:18834   */\n      tag_141\n      jump\t// in\n    tag_345:\n        /* \"#utility.yul\":18844:18923   */\n      tag_346\n        /* \"#utility.yul\":18919:18921   */\n      0x40\n        /* \"#utility.yul\":18908:18917   */\n      dup4\n        /* \"#utility.yul\":18904:18922   */\n      add\n        /* \"#utility.yul\":18895:18901   */\n      dup6\n        /* \"#utility.yul\":18844:18923   */\n      tag_88\n      jump\t// in\n    tag_346:\n        /* \"#utility.yul\":18970:18979   */\n      dup2\n        /* \"#utility.yul\":18964:18968   */\n      dup2\n        /* \"#utility.yul\":18960:18980   */\n      sub\n        /* \"#utility.yul\":18955:18957   */\n      0x60\n        /* \"#utility.yul\":18944:18953   */\n      dup4\n        /* \"#utility.yul\":18940:18958   */\n      add\n        /* \"#utility.yul\":18933:18981   */\n      mstore\n        /* \"#utility.yul\":18998:19076   */\n      tag_347\n        /* \"#utility.yul\":19071:19075   */\n      dup2\n        /* \"#utility.yul\":19062:19068   */\n      dup5\n        /* \"#utility.yul\":18998:19076   */\n      tag_140\n      jump\t// in\n    tag_347:\n        /* \"#utility.yul\":18990:19076   */\n      swap1\n      pop\n        /* \"#utility.yul\":18334:19083   */\n      swap6\n      swap5\n      pop\n      pop\n      pop\n      pop\n      pop\n      jump\t// out\n\n    auxdata: 0xa26469706673582212207f264fadc78407aeeb87bd02aef94187c61e7de244042a5af92c626f71c7181264736f6c634300081f0033\n}\n",
				"bytecode": {
					"linkReferences": {},
					"object": "6080604052348015600e575f5ffd5b50335f5f6101000a81548173ffffffffffffffffffffffffffffffffffffffff021916908373ffffffffffffffffffffffffffffffffffffffff160217905550610fad8061005b5f395ff3fe608060405234801561000f575f5ffd5b5060043610610060575f3560e01c806307d2a101146100645780638da5cb5b1461009457806399374642146100b25780639cab8d95146100e2578063a87430ba146100fe578063e482656d1461012f575b5f5ffd5b61007e6004803603810190610079919061065b565b61014b565b60405161008b91906106f9565b60405180910390f35b61009c610168565b6040516100a99190610721565b60405180910390f35b6100cc60048036038101906100c7919061065b565b61018c565b6040516100d99190610780565b60405180910390f35b6100fc60048036038101906100f7919061092b565b6101a9565b005b6101186004803603810190610113919061065b565b61026b565b604051610126929190610b0f565b60405180910390f35b61014960048036038101906101449190610b67565b6104d5565b005b6003602052805f5260405f205f915054906101000a900460ff1681565b5f5f9054906101000a900473ffffffffffffffffffffffffffffffffffffffff1681565b6002602052805f5260405f205f915054906101000a900460ff1681565b60405180606001604052808460028111156101c7576101c6610686565b5b81526020018381526020018281525060015f3373ffffffffffffffffffffffffffffffffffffffff1673ffffffffffffffffffffffffffffffffffffffff1681526020019081526020015f206004015f820151815f015f6101000a81548160ff0219169083600281111561023e5761023d610686565b5b021790555060208201518160010190816102589190610e00565b5060408201518160020155905050505050565b6001602052805f5260405f205f91509050805f016040518060800160405290815f8201805461029990610c30565b80601f01602080910402602001604051908101604052809291908181526020018280546102c590610c30565b80156103105780601f106102e757610100808354040283529160200191610310565b820191905f5260205f20905b8154815290600101906020018083116102f357829003601f168201915b5050505050815260200160018201548152602001600282015f9054906101000a900460ff16600181111561034757610346610686565b5b600181111561035957610358610686565b5b815260200160038201805461036d90610c30565b80601f016020809104026020016040519081016040528092919081815260200182805461039990610c30565b80156103e45780601f106103bb576101008083540402835291602001916103e4565b820191905f5260205f20905b8154815290600101906020018083116103c757829003601f168201915b50505050508152505090806004016040518060600160405290815f82015f9054906101000a900460ff1660028111156104205761041f610686565b5b600281111561043257610431610686565b5b815260200160018201805461044690610c30565b80601f016020809104026020016040519081016040528092919081815260200182805461047290610c30565b80156104bd5780601f10610494576101008083540402835291602001916104bd565b820191905f5260205f20905b8154815290600101906020018083116104a057829003601f168201915b50505050508152602001600282015481525050905082565b60405180608001604052808581526020018381526020018460018111156104ff576104fe610686565b5b81526020018281525060015f3373ffffffffffffffffffffffffffffffffffffffff1673ffffffffffffffffffffffffffffffffffffffff1681526020019081526020015f205f015f820151815f01908161055a9190610e00565b50602082015181600101556040820151816002015f6101000a81548160ff0219169083600181111561058f5761058e610686565b5b021790555060608201518160030190816105a99190610e00565b509050507fb578f66e00dd5ce37b5eb9655026c617e4051d69a28c6f3145b3dac4f34ab985848385846040516105e29493929190610f26565b60405180910390a150505050565b5f604051905090565b5f5ffd5b5f5ffd5b5f73ffffffffffffffffffffffffffffffffffffffff82169050919050565b5f61062a82610601565b9050919050565b61063a81610620565b8114610644575f5ffd5b50565b5f8135905061065581610631565b92915050565b5f602082840312156106705761066f6105f9565b5b5f61067d84828501610647565b91505092915050565b7f4e487b71000000000000000000000000000000000000000000000000000000005f52602160045260245ffd5b600281106106c4576106c3610686565b5b50565b5f8190506106d4826106b3565b919050565b5f6106e3826106c7565b9050919050565b6106f3816106d9565b82525050565b5f60208201905061070c5f8301846106ea565b92915050565b61071b81610620565b82525050565b5f6020820190506107345f830184610712565b92915050565b6003811061074b5761074a610686565b5b50565b5f81905061075b8261073a565b919050565b5f61076a8261074e565b9050919050565b61077a81610760565b82525050565b5f6020820190506107935f830184610771565b92915050565b600381106107a5575f5ffd5b50565b5f813590506107b681610799565b92915050565b5f5ffd5b5f5ffd5b5f601f19601f8301169050919050565b7f4e487b71000000000000000000000000000000000000000000000000000000005f52604160045260245ffd5b61080a826107c4565b810181811067ffffffffffffffff82111715610829576108286107d4565b5b80604052505050565b5f61083b6105f0565b90506108478282610801565b919050565b5f67ffffffffffffffff821115610866576108656107d4565b5b61086f826107c4565b9050602081019050919050565b828183375f83830152505050565b5f61089c6108978461084c565b610832565b9050828152602081018484840111156108b8576108b76107c0565b5b6108c384828561087c565b509392505050565b5f82601f8301126108df576108de6107bc565b5b81356108ef84826020860161088a565b91505092915050565b5f819050919050565b61090a816108f8565b8114610914575f5ffd5b50565b5f8135905061092581610901565b92915050565b5f5f5f60608486031215610942576109416105f9565b5b5f61094f868287016107a8565b935050602084013567ffffffffffffffff8111156109705761096f6105fd565b5b61097c868287016108cb565b925050604061098d86828701610917565b9150509250925092565b5f81519050919050565b5f82825260208201905092915050565b8281835e5f83830152505050565b5f6109c982610997565b6109d381856109a1565b93506109e38185602086016109b1565b6109ec816107c4565b840191505092915050565b610a00816108f8565b82525050565b610a0f816106d9565b82525050565b5f608083015f8301518482035f860152610a2f82826109bf565b9150506020830151610a4460208601826109f7565b506040830151610a576040860182610a06565b5060608301518482036060860152610a6f82826109bf565b9150508091505092915050565b60038110610a8d57610a8c610686565b5b50565b5f819050610a9d82610a7c565b919050565b5f610aac82610a90565b9050919050565b610abc81610aa2565b82525050565b5f606083015f830151610ad75f860182610ab3565b5060208301518482036020860152610aef82826109bf565b9150506040830151610b0460408601826109f7565b508091505092915050565b5f6040820190508181035f830152610b278185610a15565b90508181036020830152610b3b8184610ac2565b90509392505050565b60028110610b50575f5ffd5b50565b5f81359050610b6181610b44565b92915050565b5f5f5f5f60808587031215610b7f57610b7e6105f9565b5b5f85013567ffffffffffffffff811115610b9c57610b9b6105fd565b5b610ba8878288016108cb565b9450506020610bb987828801610b53565b9350506040610bca87828801610917565b925050606085013567ffffffffffffffff811115610beb57610bea6105fd565b5b610bf7878288016108cb565b91505092959194509250565b7f4e487b71000000000000000000000000000000000000000000000000000000005f52602260045260245ffd5b5f6002820490506001821680610c4757607f821691505b602082108103610c5a57610c59610c03565b5b50919050565b5f819050815f5260205f209050919050565b5f6020601f8301049050919050565b5f82821b905092915050565b5f60088302610cbc7fffffffffffffffffffffffffffffffffffffffffffffffffffffffffffffffff82610c81565b610cc68683610c81565b95508019841693508086168417925050509392505050565b5f819050919050565b5f610d01610cfc610cf7846108f8565b610cde565b6108f8565b9050919050565b5f819050919050565b610d1a83610ce7565b610d2e610d2682610d08565b848454610c8d565b825550505050565b5f5f905090565b610d45610d36565b610d50818484610d11565b505050565b5b81811015610d7357610d685f82610d3d565b600181019050610d56565b5050565b601f821115610db857610d8981610c60565b610d9284610c72565b81016020851015610da1578190505b610db5610dad85610c72565b830182610d55565b50505b505050565b5f82821c905092915050565b5f610dd85f1984600802610dbd565b1980831691505092915050565b5f610df08383610dc9565b9150826002028217905092915050565b610e0982610997565b67ffffffffffffffff811115610e2257610e216107d4565b5b610e2c8254610c30565b610e37828285610d77565b5f60209050601f831160018114610e68575f8415610e56578287015190505b610e608582610de5565b865550610ec7565b601f198416610e7686610c60565b5f5b82811015610e9d57848901518255600182019150602085019450602081019050610e78565b86831015610eba5784890151610eb6601f891682610dc9565b8355505b6001600288020188555050505b505050505050565b5f82825260208201905092915050565b5f610ee982610997565b610ef38185610ecf565b9350610f038185602086016109b1565b610f0c816107c4565b840191505092915050565b610f20816108f8565b82525050565b5f6080820190508181035f830152610f3e8187610edf565b9050610f4d6020830186610f17565b610f5a60408301856106ea565b8181036060830152610f6c8184610edf565b90509594505050505056fea26469706673582212207f264fadc78407aeeb87bd02aef94187c61e7de244042a5af92c626f71c7181264736f6c634300081f0033",
					"opcodes": "PUSH1 0x80 PUSH1 0x40 MSTORE CALLVALUE DUP1 ISZERO PUSH1 0xE JUMPI PUSH0 PUSH0 REVERT JUMPDEST POP CALLER PUSH0 PUSH0 PUSH2 0x100 EXP DUP2 SLOAD DUP2 PUSH20 0xFFFFFFFFFFFFFFFFFFFFFFFFFFFFFFFFFFFFFFFF MUL NOT AND SWAP1 DUP4 PUSH20 0xFFFFFFFFFFFFFFFFFFFFFFFFFFFFFFFFFFFFFFFF AND MUL OR SWAP1 SSTORE POP PUSH2 0xFAD DUP1 PUSH2 0x5B PUSH0 CODECOPY PUSH0 RETURN INVALID PUSH1 0x80 PUSH1 0x40 MSTORE CALLVALUE DUP1 ISZERO PUSH2 0xF JUMPI PUSH0 PUSH0 REVERT JUMPDEST POP PUSH1 0x4 CALLDATASIZE LT PUSH2 0x60 JUMPI PUSH0 CALLDATALOAD PUSH1 0xE0 SHR DUP1 PUSH4 0x7D2A101 EQ PUSH2 0x64 JUMPI DUP1 PUSH4 0x8DA5CB5B EQ PUSH2 0x94 JUMPI DUP1 PUSH4 0x99374642 EQ PUSH2 0xB2 JUMPI DUP1 PUSH4 0x9CAB8D95 EQ PUSH2 0xE2 JUMPI DUP1 PUSH4 0xA87430BA EQ PUSH2 0xFE JUMPI DUP1 PUSH4 0xE482656D EQ PUSH2 0x12F JUMPI JUMPDEST PUSH0 PUSH0 REVERT JUMPDEST PUSH2 0x7E PUSH1 0x4 DUP1 CALLDATASIZE SUB DUP2 ADD SWAP1 PUSH2 0x79 SWAP2 SWAP1 PUSH2 0x65B JUMP JUMPDEST PUSH2 0x14B JUMP JUMPDEST PUSH1 0x40 MLOAD PUSH2 0x8B SWAP2 SWAP1 PUSH2 0x6F9 JUMP JUMPDEST PUSH1 0x40 MLOAD DUP1 SWAP2 SUB SWAP1 RETURN JUMPDEST PUSH2 0x9C PUSH2 0x168 JUMP JUMPDEST PUSH1 0x40 MLOAD PUSH2 0xA9 SWAP2 SWAP1 PUSH2 0x721 JUMP JUMPDEST PUSH1 0x40 MLOAD DUP1 SWAP2 SUB SWAP1 RETURN JUMPDEST PUSH2 0xCC PUSH1 0x4 DUP1 CALLDATASIZE SUB DUP2 ADD SWAP1 PUSH2 0xC7 SWAP2 SWAP1 PUSH2 0x65B JUMP JUMPDEST PUSH2 0x18C JUMP JUMPDEST PUSH1 0x40 MLOAD PUSH2 0xD9 SWAP2 SWAP1 PUSH2 0x780 JUMP JUMPDEST PUSH1 0x40 MLOAD DUP1 SWAP2 SUB SWAP1 RETURN JUMPDEST PUSH2 0xFC PUSH1 0x4 DUP1 CALLDATASIZE SUB DUP2 ADD SWAP1 PUSH2 0xF7 SWAP2 SWAP1 PUSH2 0x92B JUMP JUMPDEST PUSH2 0x1A9 JUMP JUMPDEST STOP JUMPDEST PUSH2 0x118 PUSH1 0x4 DUP1 CALLDATASIZE SUB DUP2 ADD SWAP1 PUSH2 0x113 SWAP2 SWAP1 PUSH2 0x65B JUMP JUMPDEST PUSH2 0x26B JUMP JUMPDEST PUSH1 0x40 MLOAD PUSH2 0x126 SWAP3 SWAP2 SWAP1 PUSH2 0xB0F JUMP JUMPDEST PUSH1 0x40 MLOAD DUP1 SWAP2 SUB SWAP1 RETURN JUMPDEST PUSH2 0x149 PUSH1 0x4 DUP1 CALLDATASIZE SUB DUP2 ADD SWAP1 PUSH2 0x144 SWAP2 SWAP1 PUSH2 0xB67 JUMP JUMPDEST PUSH2 0x4D5 JUMP JUMPDEST STOP JUMPDEST PUSH1 0x3 PUSH1 0x20 MSTORE DUP1 PUSH0 MSTORE PUSH1 0x40 PUSH0 KECCAK256 PUSH0 SWAP2 POP SLOAD SWAP1 PUSH2 0x100 EXP SWAP1 DIV PUSH1 0xFF AND DUP2 JUMP JUMPDEST PUSH0 PUSH0 SWAP1 SLOAD SWAP1 PUSH2 0x100 EXP SWAP1 DIV PUSH20 0xFFFFFFFFFFFFFFFFFFFFFFFFFFFFFFFFFFFFFFFF AND DUP2 JUMP JUMPDEST PUSH1 0x2 PUSH1 0x20 MSTORE DUP1 PUSH0 MSTORE PUSH1 0x40 PUSH0 KECCAK256 PUSH0 SWAP2 POP SLOAD SWAP1 PUSH2 0x100 EXP SWAP1 DIV PUSH1 0xFF AND DUP2 JUMP JUMPDEST PUSH1 0x40 MLOAD DUP1 PUSH1 0x60 ADD PUSH1 0x40 MSTORE DUP1 DUP5 PUSH1 0x2 DUP2 GT ISZERO PUSH2 0x1C7 JUMPI PUSH2 0x1C6 PUSH2 0x686 JUMP JUMPDEST JUMPDEST DUP2 MSTORE PUSH1 0x20 ADD DUP4 DUP2 MSTORE PUSH1 0x20 ADD DUP3 DUP2 MSTORE POP PUSH1 0x1 PUSH0 CALLER PUSH20 0xFFFFFFFFFFFFFFFFFFFFFFFFFFFFFFFFFFFFFFFF AND PUSH20 0xFFFFFFFFFFFFFFFFFFFFFFFFFFFFFFFFFFFFFFFF AND DUP2 MSTORE PUSH1 0x20 ADD SWAP1 DUP2 MSTORE PUSH1 0x20 ADD PUSH0 KECCAK256 PUSH1 0x4 ADD PUSH0 DUP3 ADD MLOAD DUP2 PUSH0 ADD PUSH0 PUSH2 0x100 EXP DUP2 SLOAD DUP2 PUSH1 0xFF MUL NOT AND SWAP1 DUP4 PUSH1 0x2 DUP2 GT ISZERO PUSH2 0x23E JUMPI PUSH2 0x23D PUSH2 0x686 JUMP JUMPDEST JUMPDEST MUL OR SWAP1 SSTORE POP PUSH1 0x20 DUP3 ADD MLOAD DUP2 PUSH1 0x1 ADD SWAP1 DUP2 PUSH2 0x258 SWAP2 SWAP1 PUSH2 0xE00 JUMP JUMPDEST POP PUSH1 0x40 DUP3 ADD MLOAD DUP2 PUSH1 0x2 ADD SSTORE SWAP1 POP POP POP POP POP JUMP JUMPDEST PUSH1 0x1 PUSH1 0x20 MSTORE DUP1 PUSH0 MSTORE PUSH1 0x40 PUSH0 KECCAK256 PUSH0 SWAP2 POP SWAP1 POP DUP1 PUSH0 ADD PUSH1 0x40 MLOAD DUP1 PUSH1 0x80 ADD PUSH1 0x40 MSTORE SWAP1 DUP2 PUSH0 DUP3 ADD DUP1 SLOAD PUSH2 0x299 SWAP1 PUSH2 0xC30 JUMP JUMPDEST DUP1 PUSH1 0x1F ADD PUSH1 0x20 DUP1 SWAP2 DIV MUL PUSH1 0x20 ADD PUSH1 0x40 MLOAD SWAP1 DUP2 ADD PUSH1 0x40 MSTORE DUP1 SWAP3 SWAP2 SWAP1 DUP2 DUP2 MSTORE PUSH1 0x20 ADD DUP3 DUP1 SLOAD PUSH2 0x2C5 SWAP1 PUSH2 0xC30 JUMP JUMPDEST DUP1 ISZERO PUSH2 0x310 JUMPI DUP1 PUSH1 0x1F LT PUSH2 0x2E7 JUMPI PUSH2 0x100 DUP1 DUP4 SLOAD DIV MUL DUP4 MSTORE SWAP2 PUSH1 0x20 ADD SWAP2 PUSH2 0x310 JUMP JUMPDEST DUP3 ADD SWAP2 SWAP1 PUSH0 MSTORE PUSH1 0x20 PUSH0 KECCAK256 SWAP1 JUMPDEST DUP2 SLOAD DUP2 MSTORE SWAP1 PUSH1 0x1 ADD SWAP1 PUSH1 0x20 ADD DUP1 DUP4 GT PUSH2 0x2F3 JUMPI DUP3 SWAP1 SUB PUSH1 0x1F AND DUP3 ADD SWAP2 JUMPDEST POP POP POP POP POP DUP2 MSTORE PUSH1 0x20 ADD PUSH1 0x1 DUP3 ADD SLOAD DUP2 MSTORE PUSH1 0x20 ADD PUSH1 0x2 DUP3 ADD PUSH0 SWAP1 SLOAD SWAP1 PUSH2 0x100 EXP SWAP1 DIV PUSH1 0xFF AND PUSH1 0x1 DUP2 GT ISZERO PUSH2 0x347 JUMPI PUSH2 0x346 PUSH2 0x686 JUMP JUMPDEST JUMPDEST PUSH1 0x1 DUP2 GT ISZERO PUSH2 0x359 JUMPI PUSH2 0x358 PUSH2 0x686 JUMP JUMPDEST JUMPDEST DUP2 MSTORE PUSH1 0x20 ADD PUSH1 0x3 DUP3 ADD DUP1 SLOAD PUSH2 0x36D SWAP1 PUSH2 0xC30 JUMP JUMPDEST DUP1 PUSH1 0x1F ADD PUSH1 0x20 DUP1 SWAP2 DIV MUL PUSH1 0x20 ADD PUSH1 0x40 MLOAD SWAP1 DUP2 ADD PUSH1 0x40 MSTORE DUP1 SWAP3 SWAP2 SWAP1 DUP2 DUP2 MSTORE PUSH1 0x20 ADD DUP3 DUP1 SLOAD PUSH2 0x399 SWAP1 PUSH2 0xC30 JUMP JUMPDEST DUP1 ISZERO PUSH2 0x3E4 JUMPI DUP1 PUSH1 0x1F LT PUSH2 0x3BB JUMPI PUSH2 0x100 DUP1 DUP4 SLOAD DIV MUL DUP4 MSTORE SWAP2 PUSH1 0x20 ADD SWAP2 PUSH2 0x3E4 JUMP JUMPDEST DUP3 ADD SWAP2 SWAP1 PUSH0 MSTORE PUSH1 0x20 PUSH0 KECCAK256 SWAP1 JUMPDEST DUP2 SLOAD DUP2 MSTORE SWAP1 PUSH1 0x1 ADD SWAP1 PUSH1 0x20 ADD DUP1 DUP4 GT PUSH2 0x3C7 JUMPI DUP3 SWAP1 SUB PUSH1 0x1F AND DUP3 ADD SWAP2 JUMPDEST POP POP POP POP POP DUP2 MSTORE POP POP SWAP1 DUP1 PUSH1 0x4 ADD PUSH1 0x40 MLOAD DUP1 PUSH1 0x60 ADD PUSH1 0x40 MSTORE SWAP1 DUP2 PUSH0 DUP3 ADD PUSH0 SWAP1 SLOAD SWAP1 PUSH2 0x100 EXP SWAP1 DIV PUSH1 0xFF AND PUSH1 0x2 DUP2 GT ISZERO PUSH2 0x420 JUMPI PUSH2 0x41F PUSH2 0x686 JUMP JUMPDEST JUMPDEST PUSH1 0x2 DUP2 GT ISZERO PUSH2 0x432 JUMPI PUSH2 0x431 PUSH2 0x686 JUMP JUMPDEST JUMPDEST DUP2 MSTORE PUSH1 0x20 ADD PUSH1 0x1 DUP3 ADD DUP1 SLOAD PUSH2 0x446 SWAP1 PUSH2 0xC30 JUMP JUMPDEST DUP1 PUSH1 0x1F ADD PUSH1 0x20 DUP1 SWAP2 DIV MUL PUSH1 0x20 ADD PUSH1 0x40 MLOAD SWAP1 DUP2 ADD PUSH1 0x40 MSTORE DUP1 SWAP3 SWAP2 SWAP1 DUP2 DUP2 MSTORE PUSH1 0x20 ADD DUP3 DUP1 SLOAD PUSH2 0x472 SWAP1 PUSH2 0xC30 JUMP JUMPDEST DUP1 ISZERO PUSH2 0x4BD JUMPI DUP1 PUSH1 0x1F LT PUSH2 0x494 JUMPI PUSH2 0x100 DUP1 DUP4 SLOAD DIV MUL DUP4 MSTORE SWAP2 PUSH1 0x20 ADD SWAP2 PUSH2 0x4BD JUMP JUMPDEST DUP3 ADD SWAP2 SWAP1 PUSH0 MSTORE PUSH1 0x20 PUSH0 KECCAK256 SWAP1 JUMPDEST DUP2 SLOAD DUP2 MSTORE SWAP1 PUSH1 0x1 ADD SWAP1 PUSH1 0x20 ADD DUP1 DUP4 GT PUSH2 0x4A0 JUMPI DUP3 SWAP1 SUB PUSH1 0x1F AND DUP3 ADD SWAP2 JUMPDEST POP POP POP POP POP DUP2 MSTORE PUSH1 0x20 ADD PUSH1 0x2 DUP3 ADD SLOAD DUP2 MSTORE POP POP SWAP1 POP DUP3 JUMP JUMPDEST PUSH1 0x40 MLOAD DUP1 PUSH1 0x80 ADD PUSH1 0x40 MSTORE DUP1 DUP6 DUP2 MSTORE PUSH1 0x20 ADD DUP4 DUP2 MSTORE PUSH1 0x20 ADD DUP5 PUSH1 0x1 DUP2 GT ISZERO PUSH2 0x4FF JUMPI PUSH2 0x4FE PUSH2 0x686 JUMP JUMPDEST JUMPDEST DUP2 MSTORE PUSH1 0x20 ADD DUP3 DUP2 MSTORE POP PUSH1 0x1 PUSH0 CALLER PUSH20 0xFFFFFFFFFFFFFFFFFFFFFFFFFFFFFFFFFFFFFFFF AND PUSH20 0xFFFFFFFFFFFFFFFFFFFFFFFFFFFFFFFFFFFFFFFF AND DUP2 MSTORE PUSH1 0x20 ADD SWAP1 DUP2 MSTORE PUSH1 0x20 ADD PUSH0 KECCAK256 PUSH0 ADD PUSH0 DUP3 ADD MLOAD DUP2 PUSH0 ADD SWAP1 DUP2 PUSH2 0x55A SWAP2 SWAP1 PUSH2 0xE00 JUMP JUMPDEST POP PUSH1 0x20 DUP3 ADD MLOAD DUP2 PUSH1 0x1 ADD SSTORE PUSH1 0x40 DUP3 ADD MLOAD DUP2 PUSH1 0x2 ADD PUSH0 PUSH2 0x100 EXP DUP2 SLOAD DUP2 PUSH1 0xFF MUL NOT AND SWAP1 DUP4 PUSH1 0x1 DUP2 GT ISZERO PUSH2 0x58F JUMPI PUSH2 0x58E PUSH2 0x686 JUMP JUMPDEST JUMPDEST MUL OR SWAP1 SSTORE POP PUSH1 0x60 DUP3 ADD MLOAD DUP2 PUSH1 0x3 ADD SWAP1 DUP2 PUSH2 0x5A9 SWAP2 SWAP1 PUSH2 0xE00 JUMP JUMPDEST POP SWAP1 POP POP PUSH32 0xB578F66E00DD5CE37B5EB9655026C617E4051D69A28C6F3145B3DAC4F34AB985 DUP5 DUP4 DUP6 DUP5 PUSH1 0x40 MLOAD PUSH2 0x5E2 SWAP5 SWAP4 SWAP3 SWAP2 SWAP1 PUSH2 0xF26 JUMP JUMPDEST PUSH1 0x40 MLOAD DUP1 SWAP2 SUB SWAP1 LOG1 POP POP POP POP JUMP JUMPDEST PUSH0 PUSH1 0x40 MLOAD SWAP1 POP SWAP1 JUMP JUMPDEST PUSH0 PUSH0 REVERT JUMPDEST PUSH0 PUSH0 REVERT JUMPDEST PUSH0 PUSH20 0xFFFFFFFFFFFFFFFFFFFFFFFFFFFFFFFFFFFFFFFF DUP3 AND SWAP1 POP SWAP2 SWAP1 POP JUMP JUMPDEST PUSH0 PUSH2 0x62A DUP3 PUSH2 0x601 JUMP JUMPDEST SWAP1 POP SWAP2 SWAP1 POP JUMP JUMPDEST PUSH2 0x63A DUP2 PUSH2 0x620 JUMP JUMPDEST DUP2 EQ PUSH2 0x644 JUMPI PUSH0 PUSH0 REVERT JUMPDEST POP JUMP JUMPDEST PUSH0 DUP2 CALLDATALOAD SWAP1 POP PUSH2 0x655 DUP2 PUSH2 0x631 JUMP JUMPDEST SWAP3 SWAP2 POP POP JUMP JUMPDEST PUSH0 PUSH1 0x20 DUP3 DUP5 SUB SLT ISZERO PUSH2 0x670 JUMPI PUSH2 0x66F PUSH2 0x5F9 JUMP JUMPDEST JUMPDEST PUSH0 PUSH2 0x67D DUP5 DUP3 DUP6 ADD PUSH2 0x647 JUMP JUMPDEST SWAP2 POP POP SWAP3 SWAP2 POP POP JUMP JUMPDEST PUSH32 0x4E487B7100000000000000000000000000000000000000000000000000000000 PUSH0 MSTORE PUSH1 0x21 PUSH1 0x4 MSTORE PUSH1 0x24 PUSH0 REVERT JUMPDEST PUSH1 0x2 DUP2 LT PUSH2 0x6C4 JUMPI PUSH2 0x6C3 PUSH2 0x686 JUMP JUMPDEST JUMPDEST POP JUMP JUMPDEST PUSH0 DUP2 SWAP1 POP PUSH2 0x6D4 DUP3 PUSH2 0x6B3 JUMP JUMPDEST SWAP2 SWAP1 POP JUMP JUMPDEST PUSH0 PUSH2 0x6E3 DUP3 PUSH2 0x6C7 JUMP JUMPDEST SWAP1 POP SWAP2 SWAP1 POP JUMP JUMPDEST PUSH2 0x6F3 DUP2 PUSH2 0x6D9 JUMP JUMPDEST DUP3 MSTORE POP POP JUMP JUMPDEST PUSH0 PUSH1 0x20 DUP3 ADD SWAP1 POP PUSH2 0x70C PUSH0 DUP4 ADD DUP5 PUSH2 0x6EA JUMP JUMPDEST SWAP3 SWAP2 POP POP JUMP JUMPDEST PUSH2 0x71B DUP2 PUSH2 0x620 JUMP JUMPDEST DUP3 MSTORE POP POP JUMP JUMPDEST PUSH0 PUSH1 0x20 DUP3 ADD SWAP1 POP PUSH2 0x734 PUSH0 DUP4 ADD DUP5 PUSH2 0x712 JUMP JUMPDEST SWAP3 SWAP2 POP POP JUMP JUMPDEST PUSH1 0x3 DUP2 LT PUSH2 0x74B JUMPI PUSH2 0x74A PUSH2 0x686 JUMP JUMPDEST JUMPDEST POP JUMP JUMPDEST PUSH0 DUP2 SWAP1 POP PUSH2 0x75B DUP3 PUSH2 0x73A JUMP JUMPDEST SWAP2 SWAP1 POP JUMP JUMPDEST PUSH0 PUSH2 0x76A DUP3 PUSH2 0x74E JUMP JUMPDEST SWAP1 POP SWAP2 SWAP1 POP JUMP JUMPDEST PUSH2 0x77A DUP2 PUSH2 0x760 JUMP JUMPDEST DUP3 MSTORE POP POP JUMP JUMPDEST PUSH0 PUSH1 0x20 DUP3 ADD SWAP1 POP PUSH2 0x793 PUSH0 DUP4 ADD DUP5 PUSH2 0x771 JUMP JUMPDEST SWAP3 SWAP2 POP POP JUMP JUMPDEST PUSH1 0x3 DUP2 LT PUSH2 0x7A5 JUMPI PUSH0 PUSH0 REVERT JUMPDEST POP JUMP JUMPDEST PUSH0 DUP2 CALLDATALOAD SWAP1 POP PUSH2 0x7B6 DUP2 PUSH2 0x799 JUMP JUMPDEST SWAP3 SWAP2 POP POP JUMP JUMPDEST PUSH0 PUSH0 REVERT JUMPDEST PUSH0 PUSH0 REVERT JUMPDEST PUSH0 PUSH1 0x1F NOT PUSH1 0x1F DUP4 ADD AND SWAP1 POP SWAP2 SWAP1 POP JUMP JUMPDEST PUSH32 0x4E487B7100000000000000000000000000000000000000000000000000000000 PUSH0 MSTORE PUSH1 0x41 PUSH1 0x4 MSTORE PUSH1 0x24 PUSH0 REVERT JUMPDEST PUSH2 0x80A DUP3 PUSH2 0x7C4 JUMP JUMPDEST DUP2 ADD DUP2 DUP2 LT PUSH8 0xFFFFFFFFFFFFFFFF DUP3 GT OR ISZERO PUSH2 0x829 JUMPI PUSH2 0x828 PUSH2 0x7D4 JUMP JUMPDEST JUMPDEST DUP1 PUSH1 0x40 MSTORE POP POP POP JUMP JUMPDEST PUSH0 PUSH2 0x83B PUSH2 0x5F0 JUMP JUMPDEST SWAP1 POP PUSH2 0x847 DUP3 DUP3 PUSH2 0x801 JUMP JUMPDEST SWAP2 SWAP1 POP JUMP JUMPDEST PUSH0 PUSH8 0xFFFFFFFFFFFFFFFF DUP3 GT ISZERO PUSH2 0x866 JUMPI PUSH2 0x865 PUSH2 0x7D4 JUMP JUMPDEST JUMPDEST PUSH2 0x86F DUP3 PUSH2 0x7C4 JUMP JUMPDEST SWAP1 POP PUSH1 0x20 DUP2 ADD SWAP1 POP SWAP2 SWAP1 POP JUMP JUMPDEST DUP3 DUP2 DUP4 CALLDATACOPY PUSH0 DUP4 DUP4 ADD MSTORE POP POP POP JUMP JUMPDEST PUSH0 PUSH2 0x89C PUSH2 0x897 DUP5 PUSH2 0x84C JUMP JUMPDEST PUSH2 0x832 JUMP JUMPDEST SWAP1 POP DUP3 DUP2 MSTORE PUSH1 0x20 DUP2 ADD DUP5 DUP5 DUP5 ADD GT ISZERO PUSH2 0x8B8 JUMPI PUSH2 0x8B7 PUSH2 0x7C0 JUMP JUMPDEST JUMPDEST PUSH2 0x8C3 DUP5 DUP3 DUP6 PUSH2 0x87C JUMP JUMPDEST POP SWAP4 SWAP3 POP POP POP JUMP JUMPDEST PUSH0 DUP3 PUSH1 0x1F DUP4 ADD SLT PUSH2 0x8DF JUMPI PUSH2 0x8DE PUSH2 0x7BC JUMP JUMPDEST JUMPDEST DUP2 CALLDATALOAD PUSH2 0x8EF DUP5 DUP3 PUSH1 0x20 DUP7 ADD PUSH2 0x88A JUMP JUMPDEST SWAP2 POP POP SWAP3 SWAP2 POP POP JUMP JUMPDEST PUSH0 DUP2 SWAP1 POP SWAP2 SWAP1 POP JUMP JUMPDEST PUSH2 0x90A DUP2 PUSH2 0x8F8 JUMP JUMPDEST DUP2 EQ PUSH2 0x914 JUMPI PUSH0 PUSH0 REVERT JUMPDEST POP JUMP JUMPDEST PUSH0 DUP2 CALLDATALOAD SWAP1 POP PUSH2 0x925 DUP2 PUSH2 0x901 JUMP JUMPDEST SWAP3 SWAP2 POP POP JUMP JUMPDEST PUSH0 PUSH0 PUSH0 PUSH1 0x60 DUP5 DUP7 SUB SLT ISZERO PUSH2 0x942 JUMPI PUSH2 0x941 PUSH2 0x5F9 JUMP JUMPDEST JUMPDEST PUSH0 PUSH2 0x94F DUP7 DUP3 DUP8 ADD PUSH2 0x7A8 JUMP JUMPDEST SWAP4 POP POP PUSH1 0x20 DUP5 ADD CALLDATALOAD PUSH8 0xFFFFFFFFFFFFFFFF DUP2 GT ISZERO PUSH2 0x970 JUMPI PUSH2 0x96F PUSH2 0x5FD JUMP JUMPDEST JUMPDEST PUSH2 0x97C DUP7 DUP3 DUP8 ADD PUSH2 0x8CB JUMP JUMPDEST SWAP3 POP POP PUSH1 0x40 PUSH2 0x98D DUP7 DUP3 DUP8 ADD PUSH2 0x917 JUMP JUMPDEST SWAP2 POP POP SWAP3 POP SWAP3 POP SWAP3 JUMP JUMPDEST PUSH0 DUP2 MLOAD SWAP1 POP SWAP2 SWAP1 POP JUMP JUMPDEST PUSH0 DUP3 DUP3 MSTORE PUSH1 0x20 DUP3 ADD SWAP1 POP SWAP3 SWAP2 POP POP JUMP JUMPDEST DUP3 DUP2 DUP4 MCOPY PUSH0 DUP4 DUP4 ADD MSTORE POP POP POP JUMP JUMPDEST PUSH0 PUSH2 0x9C9 DUP3 PUSH2 0x997 JUMP JUMPDEST PUSH2 0x9D3 DUP2 DUP6 PUSH2 0x9A1 JUMP JUMPDEST SWAP4 POP PUSH2 0x9E3 DUP2 DUP6 PUSH1 0x20 DUP7 ADD PUSH2 0x9B1 JUMP JUMPDEST PUSH2 0x9EC DUP2 PUSH2 0x7C4 JUMP JUMPDEST DUP5 ADD SWAP2 POP POP SWAP3 SWAP2 POP POP JUMP JUMPDEST PUSH2 0xA00 DUP2 PUSH2 0x8F8 JUMP JUMPDEST DUP3 MSTORE POP POP JUMP JUMPDEST PUSH2 0xA0F DUP2 PUSH2 0x6D9 JUMP JUMPDEST DUP3 MSTORE POP POP JUMP JUMPDEST PUSH0 PUSH1 0x80 DUP4 ADD PUSH0 DUP4 ADD MLOAD DUP5 DUP3 SUB PUSH0 DUP7 ADD MSTORE PUSH2 0xA2F DUP3 DUP3 PUSH2 0x9BF JUMP JUMPDEST SWAP2 POP POP PUSH1 0x20 DUP4 ADD MLOAD PUSH2 0xA44 PUSH1 0x20 DUP7 ADD DUP3 PUSH2 0x9F7 JUMP JUMPDEST POP PUSH1 0x40 DUP4 ADD MLOAD PUSH2 0xA57 PUSH1 0x40 DUP7 ADD DUP3 PUSH2 0xA06 JUMP JUMPDEST POP PUSH1 0x60 DUP4 ADD MLOAD DUP5 DUP3 SUB PUSH1 0x60 DUP7 ADD MSTORE PUSH2 0xA6F DUP3 DUP3 PUSH2 0x9BF JUMP JUMPDEST SWAP2 POP POP DUP1 SWAP2 POP POP SWAP3 SWAP2 POP POP JUMP JUMPDEST PUSH1 0x3 DUP2 LT PUSH2 0xA8D JUMPI PUSH2 0xA8C PUSH2 0x686 JUMP JUMPDEST JUMPDEST POP JUMP JUMPDEST PUSH0 DUP2 SWAP1 POP PUSH2 0xA9D DUP3 PUSH2 0xA7C JUMP JUMPDEST SWAP2 SWAP1 POP JUMP JUMPDEST PUSH0 PUSH2 0xAAC DUP3 PUSH2 0xA90 JUMP JUMPDEST SWAP1 POP SWAP2 SWAP1 POP JUMP JUMPDEST PUSH2 0xABC DUP2 PUSH2 0xAA2 JUMP JUMPDEST DUP3 MSTORE POP POP JUMP JUMPDEST PUSH0 PUSH1 0x60 DUP4 ADD PUSH0 DUP4 ADD MLOAD PUSH2 0xAD7 PUSH0 DUP7 ADD DUP3 PUSH2 0xAB3 JUMP JUMPDEST POP PUSH1 0x20 DUP4 ADD MLOAD DUP5 DUP3 SUB PUSH1 0x20 DUP7 ADD MSTORE PUSH2 0xAEF DUP3 DUP3 PUSH2 0x9BF JUMP JUMPDEST SWAP2 POP POP PUSH1 0x40 DUP4 ADD MLOAD PUSH2 0xB04 PUSH1 0x40 DUP7 ADD DUP3 PUSH2 0x9F7 JUMP JUMPDEST POP DUP1 SWAP2 POP POP SWAP3 SWAP2 POP POP JUMP JUMPDEST PUSH0 PUSH1 0x40 DUP3 ADD SWAP1 POP DUP2 DUP2 SUB PUSH0 DUP4 ADD MSTORE PUSH2 0xB27 DUP2 DUP6 PUSH2 0xA15 JUMP JUMPDEST SWAP1 POP DUP2 DUP2 SUB PUSH1 0x20 DUP4 ADD MSTORE PUSH2 0xB3B DUP2 DUP5 PUSH2 0xAC2 JUMP JUMPDEST SWAP1 POP SWAP4 SWAP3 POP POP POP JUMP JUMPDEST PUSH1 0x2 DUP2 LT PUSH2 0xB50 JUMPI PUSH0 PUSH0 REVERT JUMPDEST POP JUMP JUMPDEST PUSH0 DUP2 CALLDATALOAD SWAP1 POP PUSH2 0xB61 DUP2 PUSH2 0xB44 JUMP JUMPDEST SWAP3 SWAP2 POP POP JUMP JUMPDEST PUSH0 PUSH0 PUSH0 PUSH0 PUSH1 0x80 DUP6 DUP8 SUB SLT ISZERO PUSH2 0xB7F JUMPI PUSH2 0xB7E PUSH2 0x5F9 JUMP JUMPDEST JUMPDEST PUSH0 DUP6 ADD CALLDATALOAD PUSH8 0xFFFFFFFFFFFFFFFF DUP2 GT ISZERO PUSH2 0xB9C JUMPI PUSH2 0xB9B PUSH2 0x5FD JUMP JUMPDEST JUMPDEST PUSH2 0xBA8 DUP8 DUP3 DUP9 ADD PUSH2 0x8CB JUMP JUMPDEST SWAP5 POP POP PUSH1 0x20 PUSH2 0xBB9 DUP8 DUP3 DUP9 ADD PUSH2 0xB53 JUMP JUMPDEST SWAP4 POP POP PUSH1 0x40 PUSH2 0xBCA DUP8 DUP3 DUP9 ADD PUSH2 0x917 JUMP JUMPDEST SWAP3 POP POP PUSH1 0x60 DUP6 ADD CALLDATALOAD PUSH8 0xFFFFFFFFFFFFFFFF DUP2 GT ISZERO PUSH2 0xBEB JUMPI PUSH2 0xBEA PUSH2 0x5FD JUMP JUMPDEST JUMPDEST PUSH2 0xBF7 DUP8 DUP3 DUP9 ADD PUSH2 0x8CB JUMP JUMPDEST SWAP2 POP POP SWAP3 SWAP6 SWAP2 SWAP5 POP SWAP3 POP JUMP JUMPDEST PUSH32 0x4E487B7100000000000000000000000000000000000000000000000000000000 PUSH0 MSTORE PUSH1 0x22 PUSH1 0x4 MSTORE PUSH1 0x24 PUSH0 REVERT JUMPDEST PUSH0 PUSH1 0x2 DUP3 DIV SWAP1 POP PUSH1 0x1 DUP3 AND DUP1 PUSH2 0xC47 JUMPI PUSH1 0x7F DUP3 AND SWAP2 POP JUMPDEST PUSH1 0x20 DUP3 LT DUP2 SUB PUSH2 0xC5A JUMPI PUSH2 0xC59 PUSH2 0xC03 JUMP JUMPDEST JUMPDEST POP SWAP2 SWAP1 POP JUMP JUMPDEST PUSH0 DUP2 SWAP1 POP DUP2 PUSH0 MSTORE PUSH1 0x20 PUSH0 KECCAK256 SWAP1 POP SWAP2 SWAP1 POP JUMP JUMPDEST PUSH0 PUSH1 0x20 PUSH1 0x1F DUP4 ADD DIV SWAP1 POP SWAP2 SWAP1 POP JUMP JUMPDEST PUSH0 DUP3 DUP3 SHL SWAP1 POP SWAP3 SWAP2 POP POP JUMP JUMPDEST PUSH0 PUSH1 0x8 DUP4 MUL PUSH2 0xCBC PUSH32 0xFFFFFFFFFFFFFFFFFFFFFFFFFFFFFFFFFFFFFFFFFFFFFFFFFFFFFFFFFFFFFFFF DUP3 PUSH2 0xC81 JUMP JUMPDEST PUSH2 0xCC6 DUP7 DUP4 PUSH2 0xC81 JUMP JUMPDEST SWAP6 POP DUP1 NOT DUP5 AND SWAP4 POP DUP1 DUP7 AND DUP5 OR SWAP3 POP POP POP SWAP4 SWAP3 POP POP POP JUMP JUMPDEST PUSH0 DUP2 SWAP1 POP SWAP2 SWAP1 POP JUMP JUMPDEST PUSH0 PUSH2 0xD01 PUSH2 0xCFC PUSH2 0xCF7 DUP5 PUSH2 0x8F8 JUMP JUMPDEST PUSH2 0xCDE JUMP JUMPDEST PUSH2 0x8F8 JUMP JUMPDEST SWAP1 POP SWAP2 SWAP1 POP JUMP JUMPDEST PUSH0 DUP2 SWAP1 POP SWAP2 SWAP1 POP JUMP JUMPDEST PUSH2 0xD1A DUP4 PUSH2 0xCE7 JUMP JUMPDEST PUSH2 0xD2E PUSH2 0xD26 DUP3 PUSH2 0xD08 JUMP JUMPDEST DUP5 DUP5 SLOAD PUSH2 0xC8D JUMP JUMPDEST DUP3 SSTORE POP POP POP POP JUMP JUMPDEST PUSH0 PUSH0 SWAP1 POP SWAP1 JUMP JUMPDEST PUSH2 0xD45 PUSH2 0xD36 JUMP JUMPDEST PUSH2 0xD50 DUP2 DUP5 DUP5 PUSH2 0xD11 JUMP JUMPDEST POP POP POP JUMP JUMPDEST JUMPDEST DUP2 DUP2 LT ISZERO PUSH2 0xD73 JUMPI PUSH2 0xD68 PUSH0 DUP3 PUSH2 0xD3D JUMP JUMPDEST PUSH1 0x1 DUP2 ADD SWAP1 POP PUSH2 0xD56 JUMP JUMPDEST POP POP JUMP JUMPDEST PUSH1 0x1F DUP3 GT ISZERO PUSH2 0xDB8 JUMPI PUSH2 0xD89 DUP2 PUSH2 0xC60 JUMP JUMPDEST PUSH2 0xD92 DUP5 PUSH2 0xC72 JUMP JUMPDEST DUP2 ADD PUSH1 0x20 DUP6 LT ISZERO PUSH2 0xDA1 JUMPI DUP2 SWAP1 POP JUMPDEST PUSH2 0xDB5 PUSH2 0xDAD DUP6 PUSH2 0xC72 JUMP JUMPDEST DUP4 ADD DUP3 PUSH2 0xD55 JUMP JUMPDEST POP POP JUMPDEST POP POP POP JUMP JUMPDEST PUSH0 DUP3 DUP3 SHR SWAP1 POP SWAP3 SWAP2 POP POP JUMP JUMPDEST PUSH0 PUSH2 0xDD8 PUSH0 NOT DUP5 PUSH1 0x8 MUL PUSH2 0xDBD JUMP JUMPDEST NOT DUP1 DUP4 AND SWAP2 POP POP SWAP3 SWAP2 POP POP JUMP JUMPDEST PUSH0 PUSH2 0xDF0 DUP4 DUP4 PUSH2 0xDC9 JUMP JUMPDEST SWAP2 POP DUP3 PUSH1 0x2 MUL DUP3 OR SWAP1 POP SWAP3 SWAP2 POP POP JUMP JUMPDEST PUSH2 0xE09 DUP3 PUSH2 0x997 JUMP JUMPDEST PUSH8 0xFFFFFFFFFFFFFFFF DUP2 GT ISZERO PUSH2 0xE22 JUMPI PUSH2 0xE21 PUSH2 0x7D4 JUMP JUMPDEST JUMPDEST PUSH2 0xE2C DUP3 SLOAD PUSH2 0xC30 JUMP JUMPDEST PUSH2 0xE37 DUP3 DUP3 DUP6 PUSH2 0xD77 JUMP JUMPDEST PUSH0 PUSH1 0x20 SWAP1 POP PUSH1 0x1F DUP4 GT PUSH1 0x1 DUP2 EQ PUSH2 0xE68 JUMPI PUSH0 DUP5 ISZERO PUSH2 0xE56 JUMPI DUP3 DUP8 ADD MLOAD SWAP1 POP JUMPDEST PUSH2 0xE60 DUP6 DUP3 PUSH2 0xDE5 JUMP JUMPDEST DUP7 SSTORE POP PUSH2 0xEC7 JUMP JUMPDEST PUSH1 0x1F NOT DUP5 AND PUSH2 0xE76 DUP7 PUSH2 0xC60 JUMP JUMPDEST PUSH0 JUMPDEST DUP3 DUP2 LT ISZERO PUSH2 0xE9D JUMPI DUP5 DUP10 ADD MLOAD DUP3 SSTORE PUSH1 0x1 DUP3 ADD SWAP2 POP PUSH1 0x20 DUP6 ADD SWAP5 POP PUSH1 0x20 DUP2 ADD SWAP1 POP PUSH2 0xE78 JUMP JUMPDEST DUP7 DUP4 LT ISZERO PUSH2 0xEBA JUMPI DUP5 DUP10 ADD MLOAD PUSH2 0xEB6 PUSH1 0x1F DUP10 AND DUP3 PUSH2 0xDC9 JUMP JUMPDEST DUP4 SSTORE POP JUMPDEST PUSH1 0x1 PUSH1 0x2 DUP9 MUL ADD DUP9 SSTORE POP POP POP JUMPDEST POP POP POP POP POP POP JUMP JUMPDEST PUSH0 DUP3 DUP3 MSTORE PUSH1 0x20 DUP3 ADD SWAP1 POP SWAP3 SWAP2 POP POP JUMP JUMPDEST PUSH0 PUSH2 0xEE9 DUP3 PUSH2 0x997 JUMP JUMPDEST PUSH2 0xEF3 DUP2 DUP6 PUSH2 0xECF JUMP JUMPDEST SWAP4 POP PUSH2 0xF03 DUP2 DUP6 PUSH1 0x20 DUP7 ADD PUSH2 0x9B1 JUMP JUMPDEST PUSH2 0xF0C DUP2 PUSH2 0x7C4 JUMP JUMPDEST DUP5 ADD SWAP2 POP POP SWAP3 SWAP2 POP POP JUMP JUMPDEST PUSH2 0xF20 DUP2 PUSH2 0x8F8 JUMP JUMPDEST DUP3 MSTORE POP POP JUMP JUMPDEST PUSH0 PUSH1 0x80 DUP3 ADD SWAP1 POP DUP2 DUP2 SUB PUSH0 DUP4 ADD MSTORE PUSH2 0xF3E DUP2 DUP8 PUSH2 0xEDF JUMP JUMPDEST SWAP1 POP PUSH2 0xF4D PUSH1 0x20 DUP4 ADD DUP7 PUSH2 0xF17 JUMP JUMPDEST PUSH2 0xF5A PUSH1 0x40 DUP4 ADD DUP6 PUSH2 0x6EA JUMP JUMPDEST DUP2 DUP2 SUB PUSH1 0x60 DUP4 ADD MSTORE PUSH2 0xF6C DUP2 DUP5 PUSH2 0xEDF JUMP JUMPDEST SWAP1 POP SWAP6 SWAP5 POP POP POP POP POP JUMP INVALID LOG2 PUSH5 0x6970667358 0x22 SLT KECCAK256 PUSH32 0x264FADC78407AEEB87BD02AEF94187C61E7DE244042A5AF92C626F71C7181264 PUSH20 0x6F6C634300081F00330000000000000000000000 "
				},
				"gasEstimates": {
					"creation": {
						"codeDepositCost": "802600",
						"executionCost": "25100",
						"totalCost": "827700"
					},
					"external": {
						"AddDetails(uint8,string,uint256)": "infinite",
						"genders(address)": "2899",
						"owner()": "2507",
						"roles(address)": "2943",
						"submitData(string,uint8,uint256,string)": "infinite",
						"users(address)": "infinite"
					}
				},
				"methodIdentifiers": {
					"AddDetails(uint8,string,uint256)": "9cab8d95",
					"genders(address)": "07d2a101",
					"owner()": "8da5cb5b",
					"roles(address)": "99374642",
					"submitData(string,uint8,uint256,string)": "e482656d",
					"users(address)": "a87430ba"
				}
			},
			"storageLayout": {
				"storage": [
					{
						"astId": 3,
						"contract": "AdminControlledRegistry.sol:AdminControlledRegistry",
						"label": "owner",
						"offset": 0,
						"slot": "0",
						"type": "t_address"
					},
					{
						"astId": 53,
						"contract": "AdminControlledRegistry.sol:AdminControlledRegistry",
						"label": "users",
						"offset": 0,
						"slot": "1",
						"type": "t_mapping(t_address,t_struct(User)44_storage)"
					},
					{
						"astId": 58,
						"contract": "AdminControlledRegistry.sol:AdminControlledRegistry",
						"label": "roles",
						"offset": 0,
						"slot": "2",
						"type": "t_mapping(t_address,t_enum(Role)48)"
					},
					{
						"astId": 63,
						"contract": "AdminControlledRegistry.sol:AdminControlledRegistry",
						"label": "genders",
						"offset": 0,
						"slot": "3",
						"type": "t_mapping(t_address,t_enum(Gender)19)"
					}
				],
				"types": {
					"t_address": {
						"encoding": "inplace",
						"label": "address",
						"numberOfBytes": "20"
					},
					"t_enum(Gender)19": {
						"encoding": "inplace",
						"label": "enum AdminControlledRegistry.Gender",
						"numberOfBytes": "1"
					},
					"t_enum(RequestType)16": {
						"encoding": "inplace",
						"label": "enum AdminControlledRegistry.RequestType",
						"numberOfBytes": "1"
					},
					"t_enum(Role)48": {
						"encoding": "inplace",
						"label": "enum AdminControlledRegistry.Role",
						"numberOfBytes": "1"
					},
					"t_mapping(t_address,t_enum(Gender)19)": {
						"encoding": "mapping",
						"key": "t_address",
						"label": "mapping(address => enum AdminControlledRegistry.Gender)",
						"numberOfBytes": "32",
						"value": "t_enum(Gender)19"
					},
					"t_mapping(t_address,t_enum(Role)48)": {
						"encoding": "mapping",
						"key": "t_address",
						"label": "mapping(address => enum AdminControlledRegistry.Role)",
						"numberOfBytes": "32",
						"value": "t_enum(Role)48"
					},
					"t_mapping(t_address,t_struct(User)44_storage)": {
						"encoding": "mapping",
						"key": "t_address",
						"label": "mapping(address => struct AdminControlledRegistry.User)",
						"numberOfBytes": "32",
						"value": "t_struct(User)44_storage"
					},
					"t_string_storage": {
						"encoding": "bytes",
						"label": "string",
						"numberOfBytes": "32"
					},
					"t_struct(RegistrationDetails)37_storage": {
						"encoding": "inplace",
						"label": "struct AdminControlledRegistry.RegistrationDetails",
						"members": [
							{
								"astId": 32,
								"contract": "AdminControlledRegistry.sol:AdminControlledRegistry",
								"label": "typeRequest",
								"offset": 0,
								"slot": "0",
								"type": "t_enum(RequestType)16"
							},
							{
								"astId": 34,
								"contract": "AdminControlledRegistry.sol:AdminControlledRegistry",
								"label": "purpose",
								"offset": 0,
								"slot": "1",
								"type": "t_string_storage"
							},
							{
								"astId": 36,
								"contract": "AdminControlledRegistry.sol:AdminControlledRegistry",
								"label": "idN",
								"offset": 0,
								"slot": "2",
								"type": "t_uint256"
							}
						],
						"numberOfBytes": "96"
					},
					"t_struct(User)44_storage": {
						"encoding": "inplace",
						"label": "struct AdminControlledRegistry.User",
						"members": [
							{
								"astId": 40,
								"contract": "AdminControlledRegistry.sol:AdminControlledRegistry",
								"label": "userInformation",
								"offset": 0,
								"slot": "0",
								"type": "t_struct(UserInformation)29_storage"
							},
							{
								"astId": 43,
								"contract": "AdminControlledRegistry.sol:AdminControlledRegistry",
								"label": "regDetails",
								"offset": 0,
								"slot": "4",
								"type": "t_struct(RegistrationDetails)37_storage"
							}
						],
						"numberOfBytes": "224"
					},
					"t_struct(UserInformation)29_storage": {
						"encoding": "inplace",
						"label": "struct AdminControlledRegistry.UserInformation",
						"members": [
							{
								"astId": 21,
								"contract": "AdminControlledRegistry.sol:AdminControlledRegistry",
								"label": "fullName",
								"offset": 0,
								"slot": "0",
								"type": "t_string_storage"
							},
							{
								"astId": 23,
								"contract": "AdminControlledRegistry.sol:AdminControlledRegistry",
								"label": "YOB",
								"offset": 0,
								"slot": "1",
								"type": "t_uint256"
							},
							{
								"astId": 26,
								"contract": "AdminControlledRegistry.sol:AdminControlledRegistry",
								"label": "gender",
								"offset": 0,
								"slot": "2",
								"type": "t_enum(Gender)19"
							},
							{
								"astId": 28,
								"contract": "AdminControlledRegistry.sol:AdminControlledRegistry",
								"label": "emailAddress",
								"offset": 0,
								"slot": "3",
								"type": "t_string_storage"
							}
						],
						"numberOfBytes": "128"
					},
					"t_uint256": {
						"encoding": "inplace",
						"label": "uint256",
						"numberOfBytes": "32"
					}
				}
			},
			"userdoc": {
				"kind": "user",
				"methods": {},
				"version": 1
			}
		}
	}
}