{
	"helloWorld.sol": {
		"CState": {
			"abi": [
				{
					"inputs": [
						{
							"internalType": "address",
							"name": "",
							"type": "address"
						}
					],
					"name": "claimState",
					"outputs": [
						{
							"internalType": "enum CState.ClaimState",
							"name": "",
							"type": "uint8"
						}
					],
					"stateMutability": "view",
					"type": "function"
				},
				{
					"inputs": [],
					"name": "letCheck",
					"outputs": [],
					"stateMutability": "nonpayable",
					"type": "function"
				}
			],
			"devdoc": {
				"kind": "dev",
				"methods": {},
				"version": 1
			},
			"evm": {
				"assembly": "    /* \"helloWorld.sol\":6975:7255  contract CState{... */\n  mstore(0x40, 0x80)\n  callvalue\n  dup1\n  iszero\n  tag_1\n  jumpi\n  revert(0x00, 0x00)\ntag_1:\n  pop\n  dataSize(sub_0)\n  dup1\n  dataOffset(sub_0)\n  0x00\n  codecopy\n  0x00\n  return\nstop\n\nsub_0: assembly {\n        /* \"helloWorld.sol\":6975:7255  contract CState{... */\n      mstore(0x40, 0x80)\n      callvalue\n      dup1\n      iszero\n      tag_1\n      jumpi\n      revert(0x00, 0x00)\n    tag_1:\n      pop\n      jumpi(tag_2, lt(calldatasize, 0x04))\n      shr(0xe0, calldataload(0x00))\n      dup1\n      0x057b39cc\n      eq\n      tag_3\n      jumpi\n      dup1\n      0x9f226f66\n      eq\n      tag_4\n      jumpi\n    tag_2:\n      revert(0x00, 0x00)\n        /* \"helloWorld.sol\":7154:7252  function letCheck() public{... */\n    tag_3:\n      tag_5\n      tag_6\n      jump\t// in\n    tag_5:\n      stop\n        /* \"helloWorld.sol\":7093:7141  mapping(address => ClaimState) public claimState */\n    tag_4:\n      tag_7\n      0x04\n      dup1\n      calldatasize\n      sub\n      dup2\n      add\n      swap1\n      tag_8\n      swap2\n      swap1\n      tag_9\n      jump\t// in\n    tag_8:\n      tag_10\n      jump\t// in\n    tag_7:\n      mload(0x40)\n      tag_11\n      swap2\n      swap1\n      tag_12\n      jump\t// in\n    tag_11:\n      mload(0x40)\n      dup1\n      swap2\n      sub\n      swap1\n      return\n        /* \"helloWorld.sol\":7154:7252  function letCheck() public{... */\n    tag_6:\n        /* \"helloWorld.sol\":7220:7240  ClaimState.Unclaimed */\n      0x01\n        /* \"helloWorld.sol\":7195:7205  claimState */\n      0x00\n        /* \"helloWorld.sol\":7195:7217  claimState[msg.sender] */\n      0x00\n        /* \"helloWorld.sol\":7206:7216  msg.sender */\n      caller\n        /* \"helloWorld.sol\":7195:7217  claimState[msg.sender] */\n      0xffffffffffffffffffffffffffffffffffffffff\n      and\n      0xffffffffffffffffffffffffffffffffffffffff\n      and\n      dup2\n      mstore\n      0x20\n      add\n      swap1\n      dup2\n      mstore\n      0x20\n      add\n      0x00\n      keccak256\n      0x00\n        /* \"helloWorld.sol\":7195:7240  claimState[msg.sender] = ClaimState.Unclaimed */\n      0x0100\n      exp\n      dup2\n      sload\n      dup2\n      0xff\n      mul\n      not\n      and\n      swap1\n      dup4\n      0x02\n      dup2\n      gt\n      iszero\n      tag_14\n      jumpi\n      tag_15\n      tag_16\n      jump\t// in\n    tag_15:\n    tag_14:\n      mul\n      or\n      swap1\n      sstore\n      pop\n        /* \"helloWorld.sol\":7154:7252  function letCheck() public{... */\n      jump\t// out\n        /* \"helloWorld.sol\":7093:7141  mapping(address => ClaimState) public claimState */\n    tag_10:\n      mstore(0x20, 0x00)\n      dup1\n      0x00\n      mstore\n      keccak256(0x00, 0x40)\n      0x00\n      swap2\n      pop\n      sload\n      swap1\n      0x0100\n      exp\n      swap1\n      div\n      0xff\n      and\n      dup2\n      jump\t// out\n        /* \"#utility.yul\":88:205   */\n    tag_18:\n        /* \"#utility.yul\":197:198   */\n      0x00\n        /* \"#utility.yul\":194:195   */\n      0x00\n        /* \"#utility.yul\":187:199   */\n      revert\n        /* \"#utility.yul\":334:460   */\n    tag_20:\n        /* \"#utility.yul\":371:378   */\n      0x00\n        /* \"#utility.yul\":411:453   */\n      0xffffffffffffffffffffffffffffffffffffffff\n        /* \"#utility.yul\":404:409   */\n      dup3\n        /* \"#utility.yul\":400:454   */\n      and\n        /* \"#utility.yul\":389:454   */\n      swap1\n      pop\n        /* \"#utility.yul\":334:460   */\n      swap2\n      swap1\n      pop\n      jump\t// out\n        /* \"#utility.yul\":466:562   */\n    tag_21:\n        /* \"#utility.yul\":503:510   */\n      0x00\n        /* \"#utility.yul\":532:556   */\n      tag_34\n        /* \"#utility.yul\":550:555   */\n      dup3\n        /* \"#utility.yul\":532:556   */\n      tag_20\n      jump\t// in\n    tag_34:\n        /* \"#utility.yul\":521:556   */\n      swap1\n      pop\n        /* \"#utility.yul\":466:562   */\n      swap2\n      swap1\n      pop\n      jump\t// out\n        /* \"#utility.yul\":568:690   */\n    tag_22:\n        /* \"#utility.yul\":641:665   */\n      tag_36\n        /* \"#utility.yul\":659:664   */\n      dup2\n        /* \"#utility.yul\":641:665   */\n      tag_21\n      jump\t// in\n    tag_36:\n        /* \"#utility.yul\":634:639   */\n      dup2\n        /* \"#utility.yul\":631:666   */\n      eq\n        /* \"#utility.yul\":621:684   */\n      tag_37\n      jumpi\n        /* \"#utility.yul\":680:681   */\n      0x00\n        /* \"#utility.yul\":677:678   */\n      0x00\n        /* \"#utility.yul\":670:682   */\n      revert\n        /* \"#utility.yul\":621:684   */\n    tag_37:\n        /* \"#utility.yul\":568:690   */\n      pop\n      jump\t// out\n        /* \"#utility.yul\":696:835   */\n    tag_23:\n        /* \"#utility.yul\":742:747   */\n      0x00\n        /* \"#utility.yul\":780:786   */\n      dup2\n        /* \"#utility.yul\":767:787   */\n      calldataload\n        /* \"#utility.yul\":758:787   */\n      swap1\n      pop\n        /* \"#utility.yul\":796:829   */\n      tag_39\n        /* \"#utility.yul\":823:828   */\n      dup2\n        /* \"#utility.yul\":796:829   */\n      tag_22\n      jump\t// in\n    tag_39:\n        /* \"#utility.yul\":696:835   */\n      swap3\n      swap2\n      pop\n      pop\n      jump\t// out\n        /* \"#utility.yul\":841:1170   */\n    tag_9:\n        /* \"#utility.yul\":900:906   */\n      0x00\n        /* \"#utility.yul\":949:951   */\n      0x20\n        /* \"#utility.yul\":937:946   */\n      dup3\n        /* \"#utility.yul\":928:935   */\n      dup5\n        /* \"#utility.yul\":924:947   */\n      sub\n        /* \"#utility.yul\":920:952   */\n      slt\n        /* \"#utility.yul\":917:1036   */\n      iszero\n      tag_41\n      jumpi\n        /* \"#utility.yul\":955:1034   */\n      tag_42\n      tag_18\n      jump\t// in\n    tag_42:\n        /* \"#utility.yul\":917:1036   */\n    tag_41:\n        /* \"#utility.yul\":1075:1076   */\n      0x00\n        /* \"#utility.yul\":1100:1153   */\n      tag_43\n        /* \"#utility.yul\":1145:1152   */\n      dup5\n        /* \"#utility.yul\":1136:1142   */\n      dup3\n        /* \"#utility.yul\":1125:1134   */\n      dup6\n        /* \"#utility.yul\":1121:1143   */\n      add\n        /* \"#utility.yul\":1100:1153   */\n      tag_23\n      jump\t// in\n    tag_43:\n        /* \"#utility.yul\":1090:1153   */\n      swap2\n      pop\n        /* \"#utility.yul\":1046:1163   */\n      pop\n        /* \"#utility.yul\":841:1170   */\n      swap3\n      swap2\n      pop\n      pop\n      jump\t// out\n        /* \"#utility.yul\":1176:1356   */\n    tag_16:\n        /* \"#utility.yul\":1224:1301   */\n      0x4e487b7100000000000000000000000000000000000000000000000000000000\n        /* \"#utility.yul\":1221:1222   */\n      0x00\n        /* \"#utility.yul\":1214:1302   */\n      mstore\n        /* \"#utility.yul\":1321:1325   */\n      0x21\n        /* \"#utility.yul\":1318:1319   */\n      0x04\n        /* \"#utility.yul\":1311:1326   */\n      mstore\n        /* \"#utility.yul\":1345:1349   */\n      0x24\n        /* \"#utility.yul\":1342:1343   */\n      0x00\n        /* \"#utility.yul\":1335:1350   */\n      revert\n        /* \"#utility.yul\":1362:1480   */\n    tag_24:\n        /* \"#utility.yul\":1448:1449   */\n      0x03\n        /* \"#utility.yul\":1441:1446   */\n      dup2\n        /* \"#utility.yul\":1438:1450   */\n      lt\n        /* \"#utility.yul\":1428:1474   */\n      tag_46\n      jumpi\n        /* \"#utility.yul\":1454:1472   */\n      tag_47\n      tag_16\n      jump\t// in\n    tag_47:\n        /* \"#utility.yul\":1428:1474   */\n    tag_46:\n        /* \"#utility.yul\":1362:1480   */\n      pop\n      jump\t// out\n        /* \"#utility.yul\":1486:1623   */\n    tag_25:\n        /* \"#utility.yul\":1536:1543   */\n      0x00\n        /* \"#utility.yul\":1565:1570   */\n      dup2\n        /* \"#utility.yul\":1554:1570   */\n      swap1\n      pop\n        /* \"#utility.yul\":1571:1617   */\n      tag_49\n        /* \"#utility.yul\":1611:1616   */\n      dup3\n        /* \"#utility.yul\":1571:1617   */\n      tag_24\n      jump\t// in\n    tag_49:\n        /* \"#utility.yul\":1486:1623   */\n      swap2\n      swap1\n      pop\n      jump\t// out\n        /* \"#utility.yul\":1629:1766   */\n    tag_26:\n        /* \"#utility.yul\":1690:1699   */\n      0x00\n        /* \"#utility.yul\":1723:1760   */\n      tag_51\n        /* \"#utility.yul\":1754:1759   */\n      dup3\n        /* \"#utility.yul\":1723:1760   */\n      tag_25\n      jump\t// in\n    tag_51:\n        /* \"#utility.yul\":1710:1760   */\n      swap1\n      pop\n        /* \"#utility.yul\":1629:1766   */\n      swap2\n      swap1\n      pop\n      jump\t// out\n        /* \"#utility.yul\":1772:1925   */\n    tag_27:\n        /* \"#utility.yul\":1870:1918   */\n      tag_53\n        /* \"#utility.yul\":1912:1917   */\n      dup2\n        /* \"#utility.yul\":1870:1918   */\n      tag_26\n      jump\t// in\n    tag_53:\n        /* \"#utility.yul\":1865:1868   */\n      dup3\n        /* \"#utility.yul\":1858:1919   */\n      mstore\n        /* \"#utility.yul\":1772:1925   */\n      pop\n      pop\n      jump\t// out\n        /* \"#utility.yul\":1931:2175   */\n    tag_12:\n        /* \"#utility.yul\":2035:2039   */\n      0x00\n        /* \"#utility.yul\":2073:2075   */\n      0x20\n        /* \"#utility.yul\":2062:2071   */\n      dup3\n        /* \"#utility.yul\":2058:2076   */\n      add\n        /* \"#utility.yul\":2050:2076   */\n      swap1\n      pop\n        /* \"#utility.yul\":2086:2168   */\n      tag_55\n        /* \"#utility.yul\":2165:2166   */\n      0x00\n        /* \"#utility.yul\":2154:2163   */\n      dup4\n        /* \"#utility.yul\":2150:2167   */\n      add\n        /* \"#utility.yul\":2141:2147   */\n      dup5\n        /* \"#utility.yul\":2086:2168   */\n      tag_27\n      jump\t// in\n    tag_55:\n        /* \"#utility.yul\":1931:2175   */\n      swap3\n      swap2\n      pop\n      pop\n      jump\t// out\n\n    auxdata: 0xa26469706673582212209b9d04f928e68f8d839e2f5da8847a646663a2355c264423d3a083e28c42168664736f6c63430008210033\n}\n",
				"bytecode": {
					"linkReferences": {},
					"object": "6080604052348015600e575f5ffd5b5061023f8061001c5f395ff3fe608060405234801561000f575f5ffd5b5060043610610034575f3560e01c8063057b39cc146100385780639f226f6614610042575b5f5ffd5b610040610072565b005b61005c60048036038101906100579190610152565b6100d8565b60405161006991906101f0565b60405180910390f35b60015f5f3373ffffffffffffffffffffffffffffffffffffffff1673ffffffffffffffffffffffffffffffffffffffff1681526020019081526020015f205f6101000a81548160ff021916908360028111156100d1576100d061017d565b5b0217905550565b5f602052805f5260405f205f915054906101000a900460ff1681565b5f5ffd5b5f73ffffffffffffffffffffffffffffffffffffffff82169050919050565b5f610121826100f8565b9050919050565b61013181610117565b811461013b575f5ffd5b50565b5f8135905061014c81610128565b92915050565b5f60208284031215610167576101666100f4565b5b5f6101748482850161013e565b91505092915050565b7f4e487b71000000000000000000000000000000000000000000000000000000005f52602160045260245ffd5b600381106101bb576101ba61017d565b5b50565b5f8190506101cb826101aa565b919050565b5f6101da826101be565b9050919050565b6101ea816101d0565b82525050565b5f6020820190506102035f8301846101e1565b9291505056fea26469706673582212209b9d04f928e68f8d839e2f5da8847a646663a2355c264423d3a083e28c42168664736f6c63430008210033",
					"opcodes": "PUSH1 0x80 PUSH1 0x40 MSTORE CALLVALUE DUP1 ISZERO PUSH1 0xE JUMPI PUSH0 PUSH0 REVERT JUMPDEST POP PUSH2 0x23F DUP1 PUSH2 0x1C PUSH0 CODECOPY PUSH0 RETURN INVALID PUSH1 0x80 PUSH1 0x40 MSTORE CALLVALUE DUP1 ISZERO PUSH2 0xF JUMPI PUSH0 PUSH0 REVERT JUMPDEST POP PUSH1 0x4 CALLDATASIZE LT PUSH2 0x34 JUMPI PUSH0 CALLDATALOAD PUSH1 0xE0 SHR DUP1 PUSH4 0x57B39CC EQ PUSH2 0x38 JUMPI DUP1 PUSH4 0x9F226F66 EQ PUSH2 0x42 JUMPI JUMPDEST PUSH0 PUSH0 REVERT JUMPDEST PUSH2 0x40 PUSH2 0x72 JUMP JUMPDEST STOP JUMPDEST PUSH2 0x5C PUSH1 0x4 DUP1 CALLDATASIZE SUB DUP2 ADD SWAP1 PUSH2 0x57 SWAP2 SWAP1 PUSH2 0x152 JUMP JUMPDEST PUSH2 0xD8 JUMP JUMPDEST PUSH1 0x40 MLOAD PUSH2 0x69 SWAP2 SWAP1 PUSH2 0x1F0 JUMP JUMPDEST PUSH1 0x40 MLOAD DUP1 SWAP2 SUB SWAP1 RETURN JUMPDEST PUSH1 0x1 PUSH0 PUSH0 CALLER PUSH20 0xFFFFFFFFFFFFFFFFFFFFFFFFFFFFFFFFFFFFFFFF AND PUSH20 0xFFFFFFFFFFFFFFFFFFFFFFFFFFFFFFFFFFFFFFFF AND DUP2 MSTORE PUSH1 0x20 ADD SWAP1 DUP2 MSTORE PUSH1 0x20 ADD PUSH0 KECCAK256 PUSH0 PUSH2 0x100 EXP DUP2 SLOAD DUP2 PUSH1 0xFF MUL NOT AND SWAP1 DUP4 PUSH1 0x2 DUP2 GT ISZERO PUSH2 0xD1 JUMPI PUSH2 0xD0 PUSH2 0x17D JUMP JUMPDEST JUMPDEST MUL OR SWAP1 SSTORE POP JUMP JUMPDEST PUSH0 PUSH1 0x20 MSTORE DUP1 PUSH0 MSTORE PUSH1 0x40 PUSH0 KECCAK256 PUSH0 SWAP2 POP SLOAD SWAP1 PUSH2 0x100 EXP SWAP1 DIV PUSH1 0xFF AND DUP2 JUMP JUMPDEST PUSH0 PUSH0 REVERT JUMPDEST PUSH0 PUSH20 0xFFFFFFFFFFFFFFFFFFFFFFFFFFFFFFFFFFFFFFFF DUP3 AND SWAP1 POP SWAP2 SWAP1 POP JUMP JUMPDEST PUSH0 PUSH2 0x121 DUP3 PUSH2 0xF8 JUMP JUMPDEST SWAP1 POP SWAP2 SWAP1 POP JUMP JUMPDEST PUSH2 0x131 DUP2 PUSH2 0x117 JUMP JUMPDEST DUP2 EQ PUSH2 0x13B JUMPI PUSH0 PUSH0 REVERT JUMPDEST POP JUMP JUMPDEST PUSH0 DUP2 CALLDATALOAD SWAP1 POP PUSH2 0x14C DUP2 PUSH2 0x128 JUMP JUMPDEST SWAP3 SWAP2 POP POP JUMP JUMPDEST PUSH0 PUSH1 0x20 DUP3 DUP5 SUB SLT ISZERO PUSH2 0x167 JUMPI PUSH2 0x166 PUSH2 0xF4 JUMP JUMPDEST JUMPDEST PUSH0 PUSH2 0x174 DUP5 DUP3 DUP6 ADD PUSH2 0x13E JUMP JUMPDEST SWAP2 POP POP SWAP3 SWAP2 POP POP JUMP JUMPDEST PUSH32 0x4E487B7100000000000000000000000000000000000000000000000000000000 PUSH0 MSTORE PUSH1 0x21 PUSH1 0x4 MSTORE PUSH1 0x24 PUSH0 REVERT JUMPDEST PUSH1 0x3 DUP2 LT PUSH2 0x1BB JUMPI PUSH2 0x1BA PUSH2 0x17D JUMP JUMPDEST JUMPDEST POP JUMP JUMPDEST PUSH0 DUP2 SWAP1 POP PUSH2 0x1CB DUP3 PUSH2 0x1AA JUMP JUMPDEST SWAP2 SWAP1 POP JUMP JUMPDEST PUSH0 PUSH2 0x1DA DUP3 PUSH2 0x1BE JUMP JUMPDEST SWAP1 POP SWAP2 SWAP1 POP JUMP JUMPDEST PUSH2 0x1EA DUP2 PUSH2 0x1D0 JUMP JUMPDEST DUP3 MSTORE POP POP JUMP JUMPDEST PUSH0 PUSH1 0x20 DUP3 ADD SWAP1 POP PUSH2 0x203 PUSH0 DUP4 ADD DUP5 PUSH2 0x1E1 JUMP JUMPDEST SWAP3 SWAP2 POP POP JUMP INVALID LOG2 PUSH5 0x6970667358 0x22 SLT KECCAK256 SWAP12 SWAP14 DIV EXTDELEGATECALL 0x28 DUPN 0x8F DUP14 DUP4 SWAP15 0x2F TSTORE 0xA8 DUP5 PUSH27 0x646663A2355C264423D3A083E28C42168664736F6C634300082100 CALLER "
				},
				"gasEstimates": {
					"creation": {
						"codeDepositCost": "115000",
						"executionCost": "157",
						"totalCost": "115157"
					},
					"external": {
						"claimState(address)": "2920",
						"letCheck()": "24493"
					}
				},
				"methodIdentifiers": {
					"claimState(address)": "9f226f66",
					"letCheck()": "057b39cc"
				}
			},
			"storageLayout": {
				"storage": [
					{
						"astId": 89,
						"contract": "helloWorld.sol:CState",
						"label": "claimState",
						"offset": 0,
						"slot": "0",
						"type": "t_mapping(t_address,t_enum(ClaimState)84)"
					}
				],
				"types": {
					"t_address": {
						"encoding": "inplace",
						"label": "address",
						"numberOfBytes": "20"
					},
					"t_enum(ClaimState)84": {
						"encoding": "inplace",
						"label": "enum CState.ClaimState",
						"numberOfBytes": "1"
					},
					"t_mapping(t_address,t_enum(ClaimState)84)": {
						"encoding": "mapping",
						"key": "t_address",
						"label": "mapping(address => enum CState.ClaimState)",
						"numberOfBytes": "32",
						"value": "t_enum(ClaimState)84"
					}
				}
			},
			"userdoc": {
				"kind": "user",
				"methods": {},
				"version": 1
			}
		}
	}
}