{
	"helloWorld.sol": {
		"claiming": {
			"abi": [
				{
					"inputs": [],
					"name": "claimor",
					"outputs": [],
					"stateMutability": "nonpayable",
					"type": "function"
				},
				{
					"inputs": [],
					"name": "states",
					"outputs": [
						{
							"internalType": "enum AirdropState",
							"name": "",
							"type": "uint8"
						}
					],
					"stateMutability": "view",
					"type": "function"
				}
			],
			"devdoc": {
				"kind": "dev",
				"methods": {},
				"version": 1
			},
			"evm": {
				"assembly": "    /* \"helloWorld.sol\":6133:6971  contract claiming{... */\n  mstore(0x40, 0x80)\n  callvalue\n  dup1\n  iszero\n  tag_1\n  jumpi\n  revert(0x00, 0x00)\ntag_1:\n  pop\n  dataSize(sub_0)\n  dup1\n  dataOffset(sub_0)\n  0x00\n  codecopy\n  0x00\n  return\nstop\n\nsub_0: assembly {\n        /* \"helloWorld.sol\":6133:6971  contract claiming{... */\n      mstore(0x40, 0x80)\n      callvalue\n      dup1\n      iszero\n      tag_1\n      jumpi\n      revert(0x00, 0x00)\n    tag_1:\n      pop\n      jumpi(tag_2, lt(calldatasize, 0x04))\n      shr(0xe0, calldataload(0x00))\n      dup1\n      0x82482f7c\n      eq\n      tag_3\n      jumpi\n      dup1\n      0xef6928a4\n      eq\n      tag_4\n      jumpi\n    tag_2:\n      revert(0x00, 0x00)\n        /* \"helloWorld.sol\":6157:6183  AirdropState public states */\n    tag_3:\n      tag_5\n      tag_6\n      jump\t// in\n    tag_5:\n      mload(0x40)\n      tag_7\n      swap2\n      swap1\n      tag_8\n      jump\t// in\n    tag_7:\n      mload(0x40)\n      dup1\n      swap2\n      sub\n      swap1\n      return\n        /* \"helloWorld.sol\":6219:6968  function claimor() public {... */\n    tag_4:\n      tag_9\n      tag_10\n      jump\t// in\n    tag_9:\n      stop\n        /* \"helloWorld.sol\":6157:6183  AirdropState public states */\n    tag_6:\n      0x00\n      0x00\n      swap1\n      sload\n      swap1\n      0x0100\n      exp\n      swap1\n      div\n      0xff\n      and\n      dup2\n      jump\t// out\n        /* \"helloWorld.sol\":6219:6968  function claimor() public {... */\n    tag_10:\n        /* \"helloWorld.sol\":6271:6313  0x01eca328b460e687795d714749f5692eb097118c */\n      0x01eca328b460e687795d714749f5692eb097118c\n        /* \"helloWorld.sol\":6257:6313  msg.sender == 0x01eca328b460e687795d714749f5692eb097118c */\n      0xffffffffffffffffffffffffffffffffffffffff\n      and\n        /* \"helloWorld.sol\":6257:6267  msg.sender */\n      caller\n        /* \"helloWorld.sol\":6257:6313  msg.sender == 0x01eca328b460e687795d714749f5692eb097118c */\n      0xffffffffffffffffffffffffffffffffffffffff\n      and\n      sub\n        /* \"helloWorld.sol\":6254:6961  if(msg.sender == 0x01eca328b460e687795d714749f5692eb097118c){... */\n      tag_12\n      jumpi\n        /* \"helloWorld.sol\":6334:6354  AirdropState.Checked */\n      0x00\n        /* \"helloWorld.sol\":6325:6331  states */\n      0x00\n      0x00\n        /* \"helloWorld.sol\":6325:6354  states = AirdropState.Checked */\n      0x0100\n      exp\n      dup2\n      sload\n      dup2\n      0xff\n      mul\n      not\n      and\n      swap1\n      dup4\n      0x03\n      dup2\n      gt\n      iszero\n      tag_13\n      jumpi\n      tag_14\n      tag_15\n      jump\t// in\n    tag_14:\n    tag_13:\n      mul\n      or\n      swap1\n      sstore\n      pop\n        /* \"helloWorld.sol\":6254:6961  if(msg.sender == 0x01eca328b460e687795d714749f5692eb097118c){... */\n      jump(tag_16)\n    tag_12:\n        /* \"helloWorld.sol\":6390:6432  0x52908400098527886E0F7030069857D2E4169EE7 */\n      0x52908400098527886e0f7030069857d2e4169ee7\n        /* \"helloWorld.sol\":6376:6432  msg.sender == 0x52908400098527886E0F7030069857D2E4169EE7 */\n      0xffffffffffffffffffffffffffffffffffffffff\n      and\n        /* \"helloWorld.sol\":6376:6386  msg.sender */\n      caller\n        /* \"helloWorld.sol\":6376:6432  msg.sender == 0x52908400098527886E0F7030069857D2E4169EE7 */\n      0xffffffffffffffffffffffffffffffffffffffff\n      and\n      sub\n        /* \"helloWorld.sol\":6373:6961  if(msg.sender == 0x52908400098527886E0F7030069857D2E4169EE7){... */\n      tag_17\n      jumpi\n        /* \"helloWorld.sol\":6453:6473  AirdropState.Claimed */\n      0x02\n        /* \"helloWorld.sol\":6444:6450  states */\n      0x00\n      0x00\n        /* \"helloWorld.sol\":6444:6473  states = AirdropState.Claimed */\n      0x0100\n      exp\n      dup2\n      sload\n      dup2\n      0xff\n      mul\n      not\n      and\n      swap1\n      dup4\n      0x03\n      dup2\n      gt\n      iszero\n      tag_18\n      jumpi\n      tag_19\n      tag_15\n      jump\t// in\n    tag_19:\n    tag_18:\n      mul\n      or\n      swap1\n      sstore\n      pop\n        /* \"helloWorld.sol\":6373:6961  if(msg.sender == 0x52908400098527886E0F7030069857D2E4169EE7){... */\n      jump(tag_20)\n    tag_17:\n        /* \"helloWorld.sol\":6509:6551  0x8617E340B3D01FA5F11F306F4090FD50E238070D */\n      0x8617e340b3d01fa5f11f306f4090fd50e238070d\n        /* \"helloWorld.sol\":6495:6551  msg.sender == 0x8617E340B3D01FA5F11F306F4090FD50E238070D */\n      0xffffffffffffffffffffffffffffffffffffffff\n      and\n        /* \"helloWorld.sol\":6495:6505  msg.sender */\n      caller\n        /* \"helloWorld.sol\":6495:6551  msg.sender == 0x8617E340B3D01FA5F11F306F4090FD50E238070D */\n      0xffffffffffffffffffffffffffffffffffffffff\n      and\n      sub\n        /* \"helloWorld.sol\":6492:6961  if(msg.sender == 0x8617E340B3D01FA5F11F306F4090FD50E238070D){... */\n      tag_21\n      jumpi\n        /* \"helloWorld.sol\":6572:6594  AirdropState.Unclaimed */\n      0x01\n        /* \"helloWorld.sol\":6563:6569  states */\n      0x00\n      0x00\n        /* \"helloWorld.sol\":6563:6594  states = AirdropState.Unclaimed */\n      0x0100\n      exp\n      dup2\n      sload\n      dup2\n      0xff\n      mul\n      not\n      and\n      swap1\n      dup4\n      0x03\n      dup2\n      gt\n      iszero\n      tag_22\n      jumpi\n      tag_23\n      tag_15\n      jump\t// in\n    tag_23:\n    tag_22:\n      mul\n      or\n      swap1\n      sstore\n      pop\n        /* \"helloWorld.sol\":6492:6961  if(msg.sender == 0x8617E340B3D01FA5F11F306F4090FD50E238070D){... */\n      jump(tag_24)\n    tag_21:\n        /* \"helloWorld.sol\":6630:6672  0xde709f2102306220921060314715629080e2fb77 */\n      0xde709f2102306220921060314715629080e2fb77\n        /* \"helloWorld.sol\":6616:6672  msg.sender == 0xde709f2102306220921060314715629080e2fb77 */\n      0xffffffffffffffffffffffffffffffffffffffff\n      and\n        /* \"helloWorld.sol\":6616:6626  msg.sender */\n      caller\n        /* \"helloWorld.sol\":6616:6672  msg.sender == 0xde709f2102306220921060314715629080e2fb77 */\n      0xffffffffffffffffffffffffffffffffffffffff\n      and\n      sub\n        /* \"helloWorld.sol\":6613:6961  if(msg.sender == 0xde709f2102306220921060314715629080e2fb77){... */\n      tag_25\n      jumpi\n        /* \"helloWorld.sol\":6693:6713  AirdropState.Vesting */\n      0x03\n        /* \"helloWorld.sol\":6684:6690  states */\n      0x00\n      0x00\n        /* \"helloWorld.sol\":6684:6713  states = AirdropState.Vesting */\n      0x0100\n      exp\n      dup2\n      sload\n      dup2\n      0xff\n      mul\n      not\n      and\n      swap1\n      dup4\n      0x03\n      dup2\n      gt\n      iszero\n      tag_26\n      jumpi\n      tag_27\n      tag_15\n      jump\t// in\n    tag_27:\n    tag_26:\n      mul\n      or\n      swap1\n      sstore\n      pop\n        /* \"helloWorld.sol\":6613:6961  if(msg.sender == 0xde709f2102306220921060314715629080e2fb77){... */\n      jump(tag_28)\n    tag_25:\n        /* \"helloWorld.sol\":6749:6791  0x27b1fdb04752bbc536007a920d24acb045561c26 */\n      0x27b1fdb04752bbc536007a920d24acb045561c26\n        /* \"helloWorld.sol\":6735:6791  msg.sender == 0x27b1fdb04752bbc536007a920d24acb045561c26 */\n      0xffffffffffffffffffffffffffffffffffffffff\n      and\n        /* \"helloWorld.sol\":6735:6745  msg.sender */\n      caller\n        /* \"helloWorld.sol\":6735:6791  msg.sender == 0x27b1fdb04752bbc536007a920d24acb045561c26 */\n      0xffffffffffffffffffffffffffffffffffffffff\n      and\n      sub\n        /* \"helloWorld.sol\":6732:6961  if(msg.sender == 0x27b1fdb04752bbc536007a920d24acb045561c26){... */\n      tag_29\n      jumpi\n        /* \"helloWorld.sol\":6812:6834  AirdropState.Unclaimed */\n      0x01\n        /* \"helloWorld.sol\":6803:6809  states */\n      0x00\n      0x00\n        /* \"helloWorld.sol\":6803:6834  states = AirdropState.Unclaimed */\n      0x0100\n      exp\n      dup2\n      sload\n      dup2\n      0xff\n      mul\n      not\n      and\n      swap1\n      dup4\n      0x03\n      dup2\n      gt\n      iszero\n      tag_30\n      jumpi\n      tag_31\n      tag_15\n      jump\t// in\n    tag_31:\n    tag_30:\n      mul\n      or\n      swap1\n      sstore\n      pop\n        /* \"helloWorld.sol\":6732:6961  if(msg.sender == 0x27b1fdb04752bbc536007a920d24acb045561c26){... */\n      jump(tag_32)\n    tag_29:\n        /* \"helloWorld.sol\":6870:6912  0x5aAeb6053F3E94C9b9A09f33669435E7Ef1BeAed */\n      0x5aaeb6053f3e94c9b9a09f33669435e7ef1beaed\n        /* \"helloWorld.sol\":6856:6912  msg.sender == 0x5aAeb6053F3E94C9b9A09f33669435E7Ef1BeAed */\n      0xffffffffffffffffffffffffffffffffffffffff\n      and\n        /* \"helloWorld.sol\":6856:6866  msg.sender */\n      caller\n        /* \"helloWorld.sol\":6856:6912  msg.sender == 0x5aAeb6053F3E94C9b9A09f33669435E7Ef1BeAed */\n      0xffffffffffffffffffffffffffffffffffffffff\n      and\n      sub\n        /* \"helloWorld.sol\":6853:6961  if(msg.sender == 0x5aAeb6053F3E94C9b9A09f33669435E7Ef1BeAed){... */\n      tag_33\n      jumpi\n        /* \"helloWorld.sol\":6933:6953  AirdropState.Claimed */\n      0x02\n        /* \"helloWorld.sol\":6924:6930  states */\n      0x00\n      0x00\n        /* \"helloWorld.sol\":6924:6953  states = AirdropState.Claimed */\n      0x0100\n      exp\n      dup2\n      sload\n      dup2\n      0xff\n      mul\n      not\n      and\n      swap1\n      dup4\n      0x03\n      dup2\n      gt\n      iszero\n      tag_34\n      jumpi\n      tag_35\n      tag_15\n      jump\t// in\n    tag_35:\n    tag_34:\n      mul\n      or\n      swap1\n      sstore\n      pop\n        /* \"helloWorld.sol\":6853:6961  if(msg.sender == 0x5aAeb6053F3E94C9b9A09f33669435E7Ef1BeAed){... */\n    tag_33:\n        /* \"helloWorld.sol\":6732:6961  if(msg.sender == 0x27b1fdb04752bbc536007a920d24acb045561c26){... */\n    tag_32:\n        /* \"helloWorld.sol\":6613:6961  if(msg.sender == 0xde709f2102306220921060314715629080e2fb77){... */\n    tag_28:\n        /* \"helloWorld.sol\":6492:6961  if(msg.sender == 0x8617E340B3D01FA5F11F306F4090FD50E238070D){... */\n    tag_24:\n        /* \"helloWorld.sol\":6373:6961  if(msg.sender == 0x52908400098527886E0F7030069857D2E4169EE7){... */\n    tag_20:\n        /* \"helloWorld.sol\":6254:6961  if(msg.sender == 0x01eca328b460e687795d714749f5692eb097118c){... */\n    tag_16:\n        /* \"helloWorld.sol\":6219:6968  function claimor() public {... */\n      jump\t// out\n        /* \"#utility.yul\":7:187   */\n    tag_15:\n        /* \"#utility.yul\":55:132   */\n      0x4e487b7100000000000000000000000000000000000000000000000000000000\n        /* \"#utility.yul\":52:53   */\n      0x00\n        /* \"#utility.yul\":45:133   */\n      mstore\n        /* \"#utility.yul\":152:156   */\n      0x21\n        /* \"#utility.yul\":149:150   */\n      0x04\n        /* \"#utility.yul\":142:157   */\n      mstore\n        /* \"#utility.yul\":176:180   */\n      0x24\n        /* \"#utility.yul\":173:174   */\n      0x00\n        /* \"#utility.yul\":166:181   */\n      revert\n        /* \"#utility.yul\":193:312   */\n    tag_36:\n        /* \"#utility.yul\":280:281   */\n      0x04\n        /* \"#utility.yul\":273:278   */\n      dup2\n        /* \"#utility.yul\":270:282   */\n      lt\n        /* \"#utility.yul\":260:306   */\n      tag_43\n      jumpi\n        /* \"#utility.yul\":286:304   */\n      tag_44\n      tag_15\n      jump\t// in\n    tag_44:\n        /* \"#utility.yul\":260:306   */\n    tag_43:\n        /* \"#utility.yul\":193:312   */\n      pop\n      jump\t// out\n        /* \"#utility.yul\":318:457   */\n    tag_37:\n        /* \"#utility.yul\":369:376   */\n      0x00\n        /* \"#utility.yul\":398:403   */\n      dup2\n        /* \"#utility.yul\":387:403   */\n      swap1\n      pop\n        /* \"#utility.yul\":404:451   */\n      tag_46\n        /* \"#utility.yul\":445:450   */\n      dup3\n        /* \"#utility.yul\":404:451   */\n      tag_36\n      jump\t// in\n    tag_46:\n        /* \"#utility.yul\":318:457   */\n      swap2\n      swap1\n      pop\n      jump\t// out\n        /* \"#utility.yul\":463:602   */\n    tag_38:\n        /* \"#utility.yul\":525:534   */\n      0x00\n        /* \"#utility.yul\":558:596   */\n      tag_48\n        /* \"#utility.yul\":590:595   */\n      dup3\n        /* \"#utility.yul\":558:596   */\n      tag_37\n      jump\t// in\n    tag_48:\n        /* \"#utility.yul\":545:596   */\n      swap1\n      pop\n        /* \"#utility.yul\":463:602   */\n      swap2\n      swap1\n      pop\n      jump\t// out\n        /* \"#utility.yul\":608:763   */\n    tag_39:\n        /* \"#utility.yul\":707:756   */\n      tag_50\n        /* \"#utility.yul\":750:755   */\n      dup2\n        /* \"#utility.yul\":707:756   */\n      tag_38\n      jump\t// in\n    tag_50:\n        /* \"#utility.yul\":702:705   */\n      dup3\n        /* \"#utility.yul\":695:757   */\n      mstore\n        /* \"#utility.yul\":608:763   */\n      pop\n      pop\n      jump\t// out\n        /* \"#utility.yul\":769:1015   */\n    tag_8:\n        /* \"#utility.yul\":874:878   */\n      0x00\n        /* \"#utility.yul\":912:914   */\n      0x20\n        /* \"#utility.yul\":901:910   */\n      dup3\n        /* \"#utility.yul\":897:915   */\n      add\n        /* \"#utility.yul\":889:915   */\n      swap1\n      pop\n        /* \"#utility.yul\":925:1008   */\n      tag_52\n        /* \"#utility.yul\":1005:1006   */\n      0x00\n        /* \"#utility.yul\":994:1003   */\n      dup4\n        /* \"#utility.yul\":990:1007   */\n      add\n        /* \"#utility.yul\":981:987   */\n      dup5\n        /* \"#utility.yul\":925:1008   */\n      tag_39\n      jump\t// in\n    tag_52:\n        /* \"#utility.yul\":769:1015   */\n      swap3\n      swap2\n      pop\n      pop\n      jump\t// out\n\n    auxdata: 0xa26469706673582212200f3b1b5c323458a7c8cd947909f98db84c19c19765b10b0bca00bb389a6c7bf964736f6c63430008210033\n}\n",
				"bytecode": {
					"linkReferences": {},
					"object": "6080604052348015600e575f5ffd5b506103f38061001c5f395ff3fe608060405234801561000f575f5ffd5b5060043610610034575f3560e01c806382482f7c14610038578063ef6928a414610056575b5f5ffd5b610040610060565b60405161004d91906103a4565b60405180910390f35b61005e610071565b005b5f5f9054906101000a900460ff1681565b7301eca328b460e687795d714749f5692eb097118c73ffffffffffffffffffffffffffffffffffffffff163373ffffffffffffffffffffffffffffffffffffffff16036100e5575f5f5f6101000a81548160ff021916908360038111156100db576100da610331565b5b021790555061032f565b7352908400098527886e0f7030069857d2e4169ee773ffffffffffffffffffffffffffffffffffffffff163373ffffffffffffffffffffffffffffffffffffffff160361015a5760025f5f6101000a81548160ff021916908360038111156101505761014f610331565b5b021790555061032e565b738617e340b3d01fa5f11f306f4090fd50e238070d73ffffffffffffffffffffffffffffffffffffffff163373ffffffffffffffffffffffffffffffffffffffff16036101cf5760015f5f6101000a81548160ff021916908360038111156101c5576101c4610331565b5b021790555061032d565b73de709f2102306220921060314715629080e2fb7773ffffffffffffffffffffffffffffffffffffffff163373ffffffffffffffffffffffffffffffffffffffff16036102445760035f5f6101000a81548160ff0219169083600381111561023a57610239610331565b5b021790555061032c565b7327b1fdb04752bbc536007a920d24acb045561c2673ffffffffffffffffffffffffffffffffffffffff163373ffffffffffffffffffffffffffffffffffffffff16036102b95760015f5f6101000a81548160ff021916908360038111156102af576102ae610331565b5b021790555061032b565b735aaeb6053f3e94c9b9a09f33669435e7ef1beaed73ffffffffffffffffffffffffffffffffffffffff163373ffffffffffffffffffffffffffffffffffffffff160361032a5760025f5f6101000a81548160ff0219169083600381111561032457610323610331565b5b02179055505b5b5b5b5b5b565b7f4e487b71000000000000000000000000000000000000000000000000000000005f52602160045260245ffd5b6004811061036f5761036e610331565b5b50565b5f81905061037f8261035e565b919050565b5f61038e82610372565b9050919050565b61039e81610384565b82525050565b5f6020820190506103b75f830184610395565b9291505056fea26469706673582212200f3b1b5c323458a7c8cd947909f98db84c19c19765b10b0bca00bb389a6c7bf964736f6c63430008210033",
					"opcodes": "PUSH1 0x80 PUSH1 0x40 MSTORE CALLVALUE DUP1 ISZERO PUSH1 0xE JUMPI PUSH0 PUSH0 REVERT JUMPDEST POP PUSH2 0x3F3 DUP1 PUSH2 0x1C PUSH0 CODECOPY PUSH0 RETURN INVALID PUSH1 0x80 PUSH1 0x40 MSTORE CALLVALUE DUP1 ISZERO PUSH2 0xF JUMPI PUSH0 PUSH0 REVERT JUMPDEST POP PUSH1 0x4 CALLDATASIZE LT PUSH2 0x34 JUMPI PUSH0 CALLDATALOAD PUSH1 0xE0 SHR DUP1 PUSH4 0x82482F7C EQ PUSH2 0x38 JUMPI DUP1 PUSH4 0xEF6928A4 EQ PUSH2 0x56 JUMPI JUMPDEST PUSH0 PUSH0 REVERT JUMPDEST PUSH2 0x40 PUSH2 0x60 JUMP JUMPDEST PUSH1 0x40 MLOAD PUSH2 0x4D SWAP2 SWAP1 PUSH2 0x3A4 JUMP JUMPDEST PUSH1 0x40 MLOAD DUP1 SWAP2 SUB SWAP1 RETURN JUMPDEST PUSH2 0x5E PUSH2 0x71 JUMP JUMPDEST STOP JUMPDEST PUSH0 PUSH0 SWAP1 SLOAD SWAP1 PUSH2 0x100 EXP SWAP1 DIV PUSH1 0xFF AND DUP2 JUMP JUMPDEST PUSH20 0x1ECA328B460E687795D714749F5692EB097118C PUSH20 0xFFFFFFFFFFFFFFFFFFFFFFFFFFFFFFFFFFFFFFFF AND CALLER PUSH20 0xFFFFFFFFFFFFFFFFFFFFFFFFFFFFFFFFFFFFFFFF AND SUB PUSH2 0xE5 JUMPI PUSH0 PUSH0 PUSH0 PUSH2 0x100 EXP DUP2 SLOAD DUP2 PUSH1 0xFF MUL NOT AND SWAP1 DUP4 PUSH1 0x3 DUP2 GT ISZERO PUSH2 0xDB JUMPI PUSH2 0xDA PUSH2 0x331 JUMP JUMPDEST JUMPDEST MUL OR SWAP1 SSTORE POP PUSH2 0x32F JUMP JUMPDEST PUSH20 0x52908400098527886E0F7030069857D2E4169EE7 PUSH20 0xFFFFFFFFFFFFFFFFFFFFFFFFFFFFFFFFFFFFFFFF AND CALLER PUSH20 0xFFFFFFFFFFFFFFFFFFFFFFFFFFFFFFFFFFFFFFFF AND SUB PUSH2 0x15A JUMPI PUSH1 0x2 PUSH0 PUSH0 PUSH2 0x100 EXP DUP2 SLOAD DUP2 PUSH1 0xFF MUL NOT AND SWAP1 DUP4 PUSH1 0x3 DUP2 GT ISZERO PUSH2 0x150 JUMPI PUSH2 0x14F PUSH2 0x331 JUMP JUMPDEST JUMPDEST MUL OR SWAP1 SSTORE POP PUSH2 0x32E JUMP JUMPDEST PUSH20 0x8617E340B3D01FA5F11F306F4090FD50E238070D PUSH20 0xFFFFFFFFFFFFFFFFFFFFFFFFFFFFFFFFFFFFFFFF AND CALLER PUSH20 0xFFFFFFFFFFFFFFFFFFFFFFFFFFFFFFFFFFFFFFFF AND SUB PUSH2 0x1CF JUMPI PUSH1 0x1 PUSH0 PUSH0 PUSH2 0x100 EXP DUP2 SLOAD DUP2 PUSH1 0xFF MUL NOT AND SWAP1 DUP4 PUSH1 0x3 DUP2 GT ISZERO PUSH2 0x1C5 JUMPI PUSH2 0x1C4 PUSH2 0x331 JUMP JUMPDEST JUMPDEST MUL OR SWAP1 SSTORE POP PUSH2 0x32D JUMP JUMPDEST PUSH20 0xDE709F2102306220921060314715629080E2FB77 PUSH20 0xFFFFFFFFFFFFFFFFFFFFFFFFFFFFFFFFFFFFFFFF AND CALLER PUSH20 0xFFFFFFFFFFFFFFFFFFFFFFFFFFFFFFFFFFFFFFFF AND SUB PUSH2 0x244 JUMPI PUSH1 0x3 PUSH0 PUSH0 PUSH2 0x100 EXP DUP2 SLOAD DUP2 PUSH1 0xFF MUL NOT AND SWAP1 DUP4 PUSH1 0x3 DUP2 GT ISZERO PUSH2 0x23A JUMPI PUSH2 0x239 PUSH2 0x331 JUMP JUMPDEST JUMPDEST MUL OR SWAP1 SSTORE POP PUSH2 0x32C JUMP JUMPDEST PUSH20 0x27B1FDB04752BBC536007A920D24ACB045561C26 PUSH20 0xFFFFFFFFFFFFFFFFFFFFFFFFFFFFFFFFFFFFFFFF AND CALLER PUSH20 0xFFFFFFFFFFFFFFFFFFFFFFFFFFFFFFFFFFFFFFFF AND SUB PUSH2 0x2B9 JUMPI PUSH1 0x1 PUSH0 PUSH0 PUSH2 0x100 EXP DUP2 SLOAD DUP2 PUSH1 0xFF MUL NOT AND SWAP1 DUP4 PUSH1 0x3 DUP2 GT ISZERO PUSH2 0x2AF JUMPI PUSH2 0x2AE PUSH2 0x331 JUMP JUMPDEST JUMPDEST MUL OR SWAP1 SSTORE POP PUSH2 0x32B JUMP JUMPDEST PUSH20 0x5AAEB6053F3E94C9B9A09F33669435E7EF1BEAED PUSH20 0xFFFFFFFFFFFFFFFFFFFFFFFFFFFFFFFFFFFFFFFF AND CALLER PUSH20 0xFFFFFFFFFFFFFFFFFFFFFFFFFFFFFFFFFFFFFFFF AND SUB PUSH2 0x32A JUMPI PUSH1 0x2 PUSH0 PUSH0 PUSH2 0x100 EXP DUP2 SLOAD DUP2 PUSH1 0xFF MUL NOT AND SWAP1 DUP4 PUSH1 0x3 DUP2 GT ISZERO PUSH2 0x324 JUMPI PUSH2 0x323 PUSH2 0x331 JUMP JUMPDEST JUMPDEST MUL OR SWAP1 SSTORE POP JUMPDEST JUMPDEST JUMPDEST JUMPDEST JUMPDEST JUMPDEST JUMP JUMPDEST PUSH32 0x4E487B7100000000000000000000000000000000000000000000000000000000 PUSH0 MSTORE PUSH1 0x21 PUSH1 0x4 MSTORE PUSH1 0x24 PUSH0 REVERT JUMPDEST PUSH1 0x4 DUP2 LT PUSH2 0x36F JUMPI PUSH2 0x36E PUSH2 0x331 JUMP JUMPDEST JUMPDEST POP JUMP JUMPDEST PUSH0 DUP2 SWAP1 POP PUSH2 0x37F DUP3 PUSH2 0x35E JUMP JUMPDEST SWAP2 SWAP1 POP JUMP JUMPDEST PUSH0 PUSH2 0x38E DUP3 PUSH2 0x372 JUMP JUMPDEST SWAP1 POP SWAP2 SWAP1 POP JUMP JUMPDEST PUSH2 0x39E DUP2 PUSH2 0x384 JUMP JUMPDEST DUP3 MSTORE POP POP JUMP JUMPDEST PUSH0 PUSH1 0x20 DUP3 ADD SWAP1 POP PUSH2 0x3B7 PUSH0 DUP4 ADD DUP5 PUSH2 0x395 JUMP JUMPDEST SWAP3 SWAP2 POP POP JUMP INVALID LOG2 PUSH5 0x6970667358 0x22 SLT KECCAK256 0xF EXTCODESIZE SHL TLOAD ORIGIN CALLVALUE PC 0xA7 0xC8 0xCD SWAP5 PUSH26 0x9F98DB84C19C19765B10B0BCA00BB389A6C7BF964736F6C6343 STOP ADDMOD 0x21 STOP CALLER "
				},
				"gasEstimates": {
					"creation": {
						"codeDepositCost": "202200",
						"executionCost": "243",
						"totalCost": "202443"
					},
					"external": {
						"claimor()": "24637",
						"states()": "2531"
					}
				},
				"methodIdentifiers": {
					"claimor()": "ef6928a4",
					"states()": "82482f7c"
				}
			},
			"storageLayout": {
				"storage": [
					{
						"astId": 9,
						"contract": "helloWorld.sol:claiming",
						"label": "states",
						"offset": 0,
						"slot": "0",
						"type": "t_enum(AirdropState)6"
					}
				],
				"types": {
					"t_enum(AirdropState)6": {
						"encoding": "inplace",
						"label": "enum AirdropState",
						"numberOfBytes": "1"
					}
				}
			},
			"userdoc": {
				"kind": "user",
				"methods": {},
				"version": 1
			}
		}
	}
}