{
	"day1-5Together.sol": {
		"ProfileStorage": {
			"abi": [
				{
					"inputs": [
						{
							"internalType": "string",
							"name": "_username",
							"type": "string"
						},
						{
							"internalType": "uint256",
							"name": "_age",
							"type": "uint256"
						}
					],
					"name": "createProfile",
					"outputs": [],
					"stateMutability": "nonpayable",
					"type": "function"
				},
				{
					"inputs": [
						{
							"internalType": "address",
							"name": "_user",
							"type": "address"
						}
					],
					"name": "getProfile",
					"outputs": [
						{
							"internalType": "string",
							"name": "",
							"type": "string"
						},
						{
							"internalType": "uint256",
							"name": "",
							"type": "uint256"
						},
						{
							"internalType": "address",
							"name": "",
							"type": "address"
						},
						{
							"internalType": "uint256",
							"name": "",
							"type": "uint256"
						},
						{
							"internalType": "enum ProfileStorage.AccountStatus",
							"name": "",
							"type": "uint8"
						},
						{
							"internalType": "uint256",
							"name": "",
							"type": "uint256"
						}
					],
					"stateMutability": "view",
					"type": "function"
				},
				{
					"inputs": [
						{
							"internalType": "address",
							"name": "_inactive",
							"type": "address"
						}
					],
					"name": "suspendAcct",
					"outputs": [],
					"stateMutability": "nonpayable",
					"type": "function"
				}
			],
			"devdoc": {
				"author": "Rasheed",
				"details": "Stores profile details",
				"kind": "dev",
				"methods": {},
				"title": "Combining day1-5 knowledge",
				"version": 1
			},
			"evm": {
				"assembly": "    /* \"day1-5Together.sol\":185:1533  contract ProfileStorage{... */\n  mstore(0x40, 0x80)\n  callvalue\n  dup1\n  iszero\n  tag_1\n  jumpi\n  revert(0x00, 0x00)\ntag_1:\n  pop\n  dataSize(sub_0)\n  dup1\n  dataOffset(sub_0)\n  0x00\n  codecopy\n  0x00\n  return\nstop\n\nsub_0: assembly {\n        /* \"day1-5Together.sol\":185:1533  contract ProfileStorage{... */\n      mstore(0x40, 0x80)\n      callvalue\n      dup1\n      iszero\n      tag_1\n      jumpi\n      revert(0x00, 0x00)\n    tag_1:\n      pop\n      jumpi(tag_2, lt(calldatasize, 0x04))\n      shr(0xe0, calldataload(0x00))\n      dup1\n      0x0f53a470\n      eq\n      tag_3\n      jumpi\n      dup1\n      0x49f5a836\n      eq\n      tag_4\n      jumpi\n      dup1\n      0x5658bee1\n      eq\n      tag_5\n      jumpi\n    tag_2:\n      revert(0x00, 0x00)\n        /* \"day1-5Together.sol\":1189:1530  function getProfile(address _user) public view returns(string memory, uint256, address, uint256, AccountStatus, uint256){... */\n    tag_3:\n      tag_6\n      0x04\n      dup1\n      calldatasize\n      sub\n      dup2\n      add\n      swap1\n      tag_7\n      swap2\n      swap1\n      tag_8\n      jump\t// in\n    tag_7:\n      tag_9\n      jump\t// in\n    tag_6:\n      mload(0x40)\n      tag_10\n      swap7\n      swap6\n      swap5\n      swap4\n      swap3\n      swap2\n      swap1\n      tag_11\n      jump\t// in\n    tag_10:\n      mload(0x40)\n      dup1\n      swap2\n      sub\n      swap1\n      return\n        /* \"day1-5Together.sol\":973:1183  function suspendAcct(address _inactive) public{... */\n    tag_4:\n      tag_12\n      0x04\n      dup1\n      calldatasize\n      sub\n      dup2\n      add\n      swap1\n      tag_13\n      swap2\n      swap1\n      tag_8\n      jump\t// in\n    tag_13:\n      tag_14\n      jump\t// in\n    tag_12:\n      stop\n        /* \"day1-5Together.sol\":516:965  function createProfile(string memory _username, uint256 _age) public {... */\n    tag_5:\n      tag_15\n      0x04\n      dup1\n      calldatasize\n      sub\n      dup2\n      add\n      swap1\n      tag_16\n      swap2\n      swap1\n      tag_17\n      jump\t// in\n    tag_16:\n      tag_18\n      jump\t// in\n    tag_15:\n      stop\n        /* \"day1-5Together.sol\":1189:1530  function getProfile(address _user) public view returns(string memory, uint256, address, uint256, AccountStatus, uint256){... */\n    tag_9:\n        /* \"day1-5Together.sol\":1244:1257  string memory */\n      0x60\n        /* \"day1-5Together.sol\":1259:1266  uint256 */\n      0x00\n        /* \"day1-5Together.sol\":1268:1275  address */\n      0x00\n        /* \"day1-5Together.sol\":1277:1284  uint256 */\n      0x00\n        /* \"day1-5Together.sol\":1286:1299  AccountStatus */\n      0x00\n        /* \"day1-5Together.sol\":1301:1308  uint256 */\n      0x00\n        /* \"day1-5Together.sol\":1320:1333  User memory u */\n      0x00\n        /* \"day1-5Together.sol\":1336:1342  stored */\n      0x00\n        /* \"day1-5Together.sol\":1336:1349  stored[_user] */\n      0x00\n        /* \"day1-5Together.sol\":1343:1348  _user */\n      dup10\n        /* \"day1-5Together.sol\":1336:1349  stored[_user] */\n      0xffffffffffffffffffffffffffffffffffffffff\n      and\n      0xffffffffffffffffffffffffffffffffffffffff\n      and\n      dup2\n      mstore\n      0x20\n      add\n      swap1\n      dup2\n      mstore\n      0x20\n      add\n      0x00\n      keccak256\n        /* \"day1-5Together.sol\":1320:1349  User memory u = stored[_user] */\n      mload(0x40)\n      dup1\n      0xc0\n      add\n      0x40\n      mstore\n      swap1\n      dup2\n      0x00\n      dup3\n      add\n      dup1\n      sload\n      tag_20\n      swap1\n      tag_21\n      jump\t// in\n    tag_20:\n      dup1\n      0x1f\n      add\n      0x20\n      dup1\n      swap2\n      div\n      mul\n      0x20\n      add\n      mload(0x40)\n      swap1\n      dup2\n      add\n      0x40\n      mstore\n      dup1\n      swap3\n      swap2\n      swap1\n      dup2\n      dup2\n      mstore\n      0x20\n      add\n      dup3\n      dup1\n      sload\n      tag_22\n      swap1\n      tag_21\n      jump\t// in\n    tag_22:\n      dup1\n      iszero\n      tag_23\n      jumpi\n      dup1\n      0x1f\n      lt\n      tag_24\n      jumpi\n      0x0100\n      dup1\n      dup4\n      sload\n      div\n      mul\n      dup4\n      mstore\n      swap2\n      0x20\n      add\n      swap2\n      jump(tag_23)\n    tag_24:\n      dup3\n      add\n      swap2\n      swap1\n      0x00\n      mstore\n      keccak256(0x00, 0x20)\n      swap1\n    tag_25:\n      dup2\n      sload\n      dup2\n      mstore\n      swap1\n      0x01\n      add\n      swap1\n      0x20\n      add\n      dup1\n      dup4\n      gt\n      tag_25\n      jumpi\n      dup3\n      swap1\n      sub\n      0x1f\n      and\n      dup3\n      add\n      swap2\n    tag_23:\n      pop\n      pop\n      pop\n      pop\n      pop\n      dup2\n      mstore\n      0x20\n      add\n      0x01\n      dup3\n      add\n      sload\n      dup2\n      mstore\n      0x20\n      add\n      0x02\n      dup3\n      add\n      0x00\n      swap1\n      sload\n      swap1\n      0x0100\n      exp\n      swap1\n      div\n      0xffffffffffffffffffffffffffffffffffffffff\n      and\n      0xffffffffffffffffffffffffffffffffffffffff\n      and\n      0xffffffffffffffffffffffffffffffffffffffff\n      and\n      dup2\n      mstore\n      0x20\n      add\n      0x03\n      dup3\n      add\n      sload\n      dup2\n      mstore\n      0x20\n      add\n      0x04\n      dup3\n      add\n      0x00\n      swap1\n      sload\n      swap1\n      0x0100\n      exp\n      swap1\n      div\n      0xff\n      and\n      0x02\n      dup2\n      gt\n      iszero\n      tag_26\n      jumpi\n      tag_27\n      tag_28\n      jump\t// in\n    tag_27:\n    tag_26:\n      0x02\n      dup2\n      gt\n      iszero\n      tag_29\n      jumpi\n      tag_30\n      tag_28\n      jump\t// in\n    tag_30:\n    tag_29:\n      dup2\n      mstore\n      0x20\n      add\n      0x05\n      dup3\n      add\n      sload\n      dup2\n      mstore\n      pop\n      pop\n      swap1\n      pop\n        /* \"day1-5Together.sol\":1382:1383  u */\n      dup1\n        /* \"day1-5Together.sol\":1382:1392  u.username */\n      0x00\n      add\n      mload\n        /* \"day1-5Together.sol\":1407:1408  u */\n      dup2\n        /* \"day1-5Together.sol\":1407:1412  u.age */\n      0x20\n      add\n      mload\n        /* \"day1-5Together.sol\":1427:1428  u */\n      dup3\n        /* \"day1-5Together.sol\":1427:1435  u.wallet */\n      0x40\n      add\n      mload\n        /* \"day1-5Together.sol\":1450:1451  u */\n      dup4\n        /* \"day1-5Together.sol\":1450:1464  u.creationTime */\n      0x60\n      add\n      mload\n        /* \"day1-5Together.sol\":1479:1480  u */\n      dup5\n        /* \"day1-5Together.sol\":1479:1487  u.status */\n      0x80\n      add\n      mload\n        /* \"day1-5Together.sol\":1502:1503  u */\n      dup6\n        /* \"day1-5Together.sol\":1502:1511  u.balance */\n      0xa0\n      add\n      mload\n        /* \"day1-5Together.sol\":1360:1522  return (... */\n      swap7\n      pop\n      swap7\n      pop\n      swap7\n      pop\n      swap7\n      pop\n      swap7\n      pop\n      swap7\n      pop\n      pop\n        /* \"day1-5Together.sol\":1189:1530  function getProfile(address _user) public view returns(string memory, uint256, address, uint256, AccountStatus, uint256){... */\n      swap2\n      swap4\n      swap6\n      pop\n      swap2\n      swap4\n      swap6\n      jump\t// out\n        /* \"day1-5Together.sol\":973:1183  function suspendAcct(address _inactive) public{... */\n    tag_14:\n        /* \"day1-5Together.sol\":1067:1087  AccountStatus.Active */\n      0x01\n        /* \"day1-5Together.sol\":1038:1087  stored[msg.sender].status == AccountStatus.Active */\n      0x02\n      dup2\n      gt\n      iszero\n      tag_32\n      jumpi\n      tag_33\n      tag_28\n      jump\t// in\n    tag_33:\n    tag_32:\n        /* \"day1-5Together.sol\":1038:1044  stored */\n      0x00\n        /* \"day1-5Together.sol\":1038:1056  stored[msg.sender] */\n      0x00\n        /* \"day1-5Together.sol\":1045:1055  msg.sender */\n      caller\n        /* \"day1-5Together.sol\":1038:1056  stored[msg.sender] */\n      0xffffffffffffffffffffffffffffffffffffffff\n      and\n      0xffffffffffffffffffffffffffffffffffffffff\n      and\n      dup2\n      mstore\n      0x20\n      add\n      swap1\n      dup2\n      mstore\n      0x20\n      add\n      0x00\n      keccak256\n        /* \"day1-5Together.sol\":1038:1063  stored[msg.sender].status */\n      0x04\n      add\n      0x00\n      swap1\n      sload\n      swap1\n      0x0100\n      exp\n      swap1\n      div\n      0xff\n      and\n        /* \"day1-5Together.sol\":1038:1087  stored[msg.sender].status == AccountStatus.Active */\n      0x02\n      dup2\n      gt\n      iszero\n      tag_34\n      jumpi\n      tag_35\n      tag_28\n      jump\t// in\n    tag_35:\n    tag_34:\n      eq\n        /* \"day1-5Together.sol\":1030:1111  require(stored[msg.sender].status == AccountStatus.Active, \"Account is inactive\") */\n      tag_36\n      jumpi\n      mload(0x40)\n      0x08c379a000000000000000000000000000000000000000000000000000000000\n      dup2\n      mstore\n      0x04\n      add\n      tag_37\n      swap1\n      tag_38\n      jump\t// in\n    tag_37:\n      mload(0x40)\n      dup1\n      swap2\n      sub\n      swap1\n      revert\n    tag_36:\n        /* \"day1-5Together.sol\":1151:1173  AccountStatus.Inactive */\n      0x02\n        /* \"day1-5Together.sol\":1124:1130  stored */\n      0x00\n        /* \"day1-5Together.sol\":1124:1141  stored[_inactive] */\n      0x00\n        /* \"day1-5Together.sol\":1131:1140  _inactive */\n      dup4\n        /* \"day1-5Together.sol\":1124:1141  stored[_inactive] */\n      0xffffffffffffffffffffffffffffffffffffffff\n      and\n      0xffffffffffffffffffffffffffffffffffffffff\n      and\n      dup2\n      mstore\n      0x20\n      add\n      swap1\n      dup2\n      mstore\n      0x20\n      add\n      0x00\n      keccak256\n        /* \"day1-5Together.sol\":1124:1148  stored[_inactive].status */\n      0x04\n      add\n      0x00\n        /* \"day1-5Together.sol\":1124:1173  stored[_inactive].status = AccountStatus.Inactive */\n      0x0100\n      exp\n      dup2\n      sload\n      dup2\n      0xff\n      mul\n      not\n      and\n      swap1\n      dup4\n      0x02\n      dup2\n      gt\n      iszero\n      tag_39\n      jumpi\n      tag_40\n      tag_28\n      jump\t// in\n    tag_40:\n    tag_39:\n      mul\n      or\n      swap1\n      sstore\n      pop\n        /* \"day1-5Together.sol\":973:1183  function suspendAcct(address _inactive) public{... */\n      pop\n      jump\t// out\n        /* \"day1-5Together.sol\":516:965  function createProfile(string memory _username, uint256 _age) public {... */\n    tag_18:\n        /* \"day1-5Together.sol\":633:659  AccountStatus.Unregistered */\n      0x00\n        /* \"day1-5Together.sol\":604:659  stored[msg.sender].status == AccountStatus.Unregistered */\n      0x02\n      dup2\n      gt\n      iszero\n      tag_42\n      jumpi\n      tag_43\n      tag_28\n      jump\t// in\n    tag_43:\n    tag_42:\n        /* \"day1-5Together.sol\":604:610  stored */\n      0x00\n        /* \"day1-5Together.sol\":604:622  stored[msg.sender] */\n      0x00\n        /* \"day1-5Together.sol\":611:621  msg.sender */\n      caller\n        /* \"day1-5Together.sol\":604:622  stored[msg.sender] */\n      0xffffffffffffffffffffffffffffffffffffffff\n      and\n      0xffffffffffffffffffffffffffffffffffffffff\n      and\n      dup2\n      mstore\n      0x20\n      add\n      swap1\n      dup2\n      mstore\n      0x20\n      add\n      0x00\n      keccak256\n        /* \"day1-5Together.sol\":604:629  stored[msg.sender].status */\n      0x04\n      add\n      0x00\n      swap1\n      sload\n      swap1\n      0x0100\n      exp\n      swap1\n      div\n      0xff\n      and\n        /* \"day1-5Together.sol\":604:659  stored[msg.sender].status == AccountStatus.Unregistered */\n      0x02\n      dup2\n      gt\n      iszero\n      tag_44\n      jumpi\n      tag_45\n      tag_28\n      jump\t// in\n    tag_45:\n    tag_44:\n      eq\n        /* \"day1-5Together.sol\":596:686  require(stored[msg.sender].status == AccountStatus.Unregistered, \"Account already exist!\") */\n      tag_46\n      jumpi\n      mload(0x40)\n      0x08c379a000000000000000000000000000000000000000000000000000000000\n      dup2\n      mstore\n      0x04\n      add\n      tag_47\n      swap1\n      tag_48\n      jump\t// in\n    tag_47:\n      mload(0x40)\n      dup1\n      swap2\n      sub\n      swap1\n      revert\n    tag_46:\n        /* \"day1-5Together.sol\":720:957  User({... */\n      mload(0x40)\n      dup1\n      0xc0\n      add\n      0x40\n      mstore\n      dup1\n        /* \"day1-5Together.sol\":750:759  _username */\n      dup4\n        /* \"day1-5Together.sol\":720:957  User({... */\n      dup2\n      mstore\n      0x20\n      add\n        /* \"day1-5Together.sol\":779:783  _age */\n      dup3\n        /* \"day1-5Together.sol\":720:957  User({... */\n      dup2\n      mstore\n      0x20\n      add\n        /* \"day1-5Together.sol\":806:816  msg.sender */\n      caller\n        /* \"day1-5Together.sol\":720:957  User({... */\n      0xffffffffffffffffffffffffffffffffffffffff\n      and\n      dup2\n      mstore\n      0x20\n      add\n        /* \"day1-5Together.sol\":845:860  block.timestamp */\n      timestamp\n        /* \"day1-5Together.sol\":720:957  User({... */\n      dup2\n      mstore\n      0x20\n      add\n        /* \"day1-5Together.sol\":883:903  AccountStatus.Active */\n      0x01\n        /* \"day1-5Together.sol\":720:957  User({... */\n      0x02\n      dup2\n      gt\n      iszero\n      tag_49\n      jumpi\n      tag_50\n      tag_28\n      jump\t// in\n    tag_50:\n    tag_49:\n      dup2\n      mstore\n      0x20\n      add\n        /* \"day1-5Together.sol\":927:937  msg.sender */\n      caller\n        /* \"day1-5Together.sol\":927:945  msg.sender.balance */\n      0xffffffffffffffffffffffffffffffffffffffff\n      and\n      balance\n        /* \"day1-5Together.sol\":720:957  User({... */\n      dup2\n      mstore\n      pop\n        /* \"day1-5Together.sol\":699:705  stored */\n      0x00\n        /* \"day1-5Together.sol\":699:717  stored[msg.sender] */\n      0x00\n        /* \"day1-5Together.sol\":706:716  msg.sender */\n      caller\n        /* \"day1-5Together.sol\":699:717  stored[msg.sender] */\n      0xffffffffffffffffffffffffffffffffffffffff\n      and\n      0xffffffffffffffffffffffffffffffffffffffff\n      and\n      dup2\n      mstore\n      0x20\n      add\n      swap1\n      dup2\n      mstore\n      0x20\n      add\n      0x00\n      keccak256\n        /* \"day1-5Together.sol\":699:957  stored[msg.sender] = User({... */\n      0x00\n      dup3\n      add\n      mload\n      dup2\n      0x00\n      add\n      swap1\n      dup2\n      tag_51\n      swap2\n      swap1\n      tag_52\n      jump\t// in\n    tag_51:\n      pop\n      0x20\n      dup3\n      add\n      mload\n      dup2\n      0x01\n      add\n      sstore\n      0x40\n      dup3\n      add\n      mload\n      dup2\n      0x02\n      add\n      exp(0x0100, 0x00)\n      dup2\n      sload\n      dup2\n      0xffffffffffffffffffffffffffffffffffffffff\n      mul\n      not\n      and\n      swap1\n      dup4\n      0xffffffffffffffffffffffffffffffffffffffff\n      and\n      mul\n      or\n      swap1\n      sstore\n      pop\n      0x60\n      dup3\n      add\n      mload\n      dup2\n      0x03\n      add\n      sstore\n      0x80\n      dup3\n      add\n      mload\n      dup2\n      0x04\n      add\n      exp(0x0100, 0x00)\n      dup2\n      sload\n      dup2\n      0xff\n      mul\n      not\n      and\n      swap1\n      dup4\n      0x02\n      dup2\n      gt\n      iszero\n      tag_53\n      jumpi\n      tag_54\n      tag_28\n      jump\t// in\n    tag_54:\n    tag_53:\n      mul\n      or\n      swap1\n      sstore\n      pop\n      0xa0\n      dup3\n      add\n      mload\n      dup2\n      0x05\n      add\n      sstore\n      swap1\n      pop\n      pop\n        /* \"day1-5Together.sol\":516:965  function createProfile(string memory _username, uint256 _age) public {... */\n      pop\n      pop\n      jump\t// out\n        /* \"#utility.yul\":7:82   */\n    tag_55:\n        /* \"#utility.yul\":40:46   */\n      0x00\n        /* \"#utility.yul\":73:75   */\n      0x40\n        /* \"#utility.yul\":67:76   */\n      mload\n        /* \"#utility.yul\":57:76   */\n      swap1\n      pop\n        /* \"#utility.yul\":7:82   */\n      swap1\n      jump\t// out\n        /* \"#utility.yul\":88:205   */\n    tag_56:\n        /* \"#utility.yul\":197:198   */\n      0x00\n        /* \"#utility.yul\":194:195   */\n      0x00\n        /* \"#utility.yul\":187:199   */\n      revert\n        /* \"#utility.yul\":211:328   */\n    tag_57:\n        /* \"#utility.yul\":320:321   */\n      0x00\n        /* \"#utility.yul\":317:318   */\n      0x00\n        /* \"#utility.yul\":310:322   */\n      revert\n        /* \"#utility.yul\":334:460   */\n    tag_58:\n        /* \"#utility.yul\":371:378   */\n      0x00\n        /* \"#utility.yul\":411:453   */\n      0xffffffffffffffffffffffffffffffffffffffff\n        /* \"#utility.yul\":404:409   */\n      dup3\n        /* \"#utility.yul\":400:454   */\n      and\n        /* \"#utility.yul\":389:454   */\n      swap1\n      pop\n        /* \"#utility.yul\":334:460   */\n      swap2\n      swap1\n      pop\n      jump\t// out\n        /* \"#utility.yul\":466:562   */\n    tag_59:\n        /* \"#utility.yul\":503:510   */\n      0x00\n        /* \"#utility.yul\":532:556   */\n      tag_111\n        /* \"#utility.yul\":550:555   */\n      dup3\n        /* \"#utility.yul\":532:556   */\n      tag_58\n      jump\t// in\n    tag_111:\n        /* \"#utility.yul\":521:556   */\n      swap1\n      pop\n        /* \"#utility.yul\":466:562   */\n      swap2\n      swap1\n      pop\n      jump\t// out\n        /* \"#utility.yul\":568:690   */\n    tag_60:\n        /* \"#utility.yul\":641:665   */\n      tag_113\n        /* \"#utility.yul\":659:664   */\n      dup2\n        /* \"#utility.yul\":641:665   */\n      tag_59\n      jump\t// in\n    tag_113:\n        /* \"#utility.yul\":634:639   */\n      dup2\n        /* \"#utility.yul\":631:666   */\n      eq\n        /* \"#utility.yul\":621:684   */\n      tag_114\n      jumpi\n        /* \"#utility.yul\":680:681   */\n      0x00\n        /* \"#utility.yul\":677:678   */\n      0x00\n        /* \"#utility.yul\":670:682   */\n      revert\n        /* \"#utility.yul\":621:684   */\n    tag_114:\n        /* \"#utility.yul\":568:690   */\n      pop\n      jump\t// out\n        /* \"#utility.yul\":696:835   */\n    tag_61:\n        /* \"#utility.yul\":742:747   */\n      0x00\n        /* \"#utility.yul\":780:786   */\n      dup2\n        /* \"#utility.yul\":767:787   */\n      calldataload\n        /* \"#utility.yul\":758:787   */\n      swap1\n      pop\n        /* \"#utility.yul\":796:829   */\n      tag_116\n        /* \"#utility.yul\":823:828   */\n      dup2\n        /* \"#utility.yul\":796:829   */\n      tag_60\n      jump\t// in\n    tag_116:\n        /* \"#utility.yul\":696:835   */\n      swap3\n      swap2\n      pop\n      pop\n      jump\t// out\n        /* \"#utility.yul\":841:1170   */\n    tag_8:\n        /* \"#utility.yul\":900:906   */\n      0x00\n        /* \"#utility.yul\":949:951   */\n      0x20\n        /* \"#utility.yul\":937:946   */\n      dup3\n        /* \"#utility.yul\":928:935   */\n      dup5\n        /* \"#utility.yul\":924:947   */\n      sub\n        /* \"#utility.yul\":920:952   */\n      slt\n        /* \"#utility.yul\":917:1036   */\n      iszero\n      tag_118\n      jumpi\n        /* \"#utility.yul\":955:1034   */\n      tag_119\n      tag_56\n      jump\t// in\n    tag_119:\n        /* \"#utility.yul\":917:1036   */\n    tag_118:\n        /* \"#utility.yul\":1075:1076   */\n      0x00\n        /* \"#utility.yul\":1100:1153   */\n      tag_120\n        /* \"#utility.yul\":1145:1152   */\n      dup5\n        /* \"#utility.yul\":1136:1142   */\n      dup3\n        /* \"#utility.yul\":1125:1134   */\n      dup6\n        /* \"#utility.yul\":1121:1143   */\n      add\n        /* \"#utility.yul\":1100:1153   */\n      tag_61\n      jump\t// in\n    tag_120:\n        /* \"#utility.yul\":1090:1153   */\n      swap2\n      pop\n        /* \"#utility.yul\":1046:1163   */\n      pop\n        /* \"#utility.yul\":841:1170   */\n      swap3\n      swap2\n      pop\n      pop\n      jump\t// out\n        /* \"#utility.yul\":1176:1275   */\n    tag_62:\n        /* \"#utility.yul\":1228:1234   */\n      0x00\n        /* \"#utility.yul\":1262:1267   */\n      dup2\n        /* \"#utility.yul\":1256:1268   */\n      mload\n        /* \"#utility.yul\":1246:1268   */\n      swap1\n      pop\n        /* \"#utility.yul\":1176:1275   */\n      swap2\n      swap1\n      pop\n      jump\t// out\n        /* \"#utility.yul\":1281:1450   */\n    tag_63:\n        /* \"#utility.yul\":1365:1376   */\n      0x00\n        /* \"#utility.yul\":1399:1405   */\n      dup3\n        /* \"#utility.yul\":1394:1397   */\n      dup3\n        /* \"#utility.yul\":1387:1406   */\n      mstore\n        /* \"#utility.yul\":1439:1443   */\n      0x20\n        /* \"#utility.yul\":1434:1437   */\n      dup3\n        /* \"#utility.yul\":1430:1444   */\n      add\n        /* \"#utility.yul\":1415:1444   */\n      swap1\n      pop\n        /* \"#utility.yul\":1281:1450   */\n      swap3\n      swap2\n      pop\n      pop\n      jump\t// out\n        /* \"#utility.yul\":1456:1595   */\n    tag_64:\n        /* \"#utility.yul\":1545:1551   */\n      dup3\n        /* \"#utility.yul\":1540:1543   */\n      dup2\n        /* \"#utility.yul\":1535:1538   */\n      dup4\n        /* \"#utility.yul\":1529:1552   */\n      mcopy\n        /* \"#utility.yul\":1586:1587   */\n      0x00\n        /* \"#utility.yul\":1577:1583   */\n      dup4\n        /* \"#utility.yul\":1572:1575   */\n      dup4\n        /* \"#utility.yul\":1568:1584   */\n      add\n        /* \"#utility.yul\":1561:1588   */\n      mstore\n        /* \"#utility.yul\":1456:1595   */\n      pop\n      pop\n      pop\n      jump\t// out\n        /* \"#utility.yul\":1601:1703   */\n    tag_65:\n        /* \"#utility.yul\":1642:1648   */\n      0x00\n        /* \"#utility.yul\":1693:1695   */\n      0x1f\n        /* \"#utility.yul\":1689:1696   */\n      not\n        /* \"#utility.yul\":1684:1686   */\n      0x1f\n        /* \"#utility.yul\":1677:1682   */\n      dup4\n        /* \"#utility.yul\":1673:1687   */\n      add\n        /* \"#utility.yul\":1669:1697   */\n      and\n        /* \"#utility.yul\":1659:1697   */\n      swap1\n      pop\n        /* \"#utility.yul\":1601:1703   */\n      swap2\n      swap1\n      pop\n      jump\t// out\n        /* \"#utility.yul\":1709:2086   */\n    tag_66:\n        /* \"#utility.yul\":1797:1800   */\n      0x00\n        /* \"#utility.yul\":1825:1864   */\n      tag_126\n        /* \"#utility.yul\":1858:1863   */\n      dup3\n        /* \"#utility.yul\":1825:1864   */\n      tag_62\n      jump\t// in\n    tag_126:\n        /* \"#utility.yul\":1880:1951   */\n      tag_127\n        /* \"#utility.yul\":1944:1950   */\n      dup2\n        /* \"#utility.yul\":1939:1942   */\n      dup6\n        /* \"#utility.yul\":1880:1951   */\n      tag_63\n      jump\t// in\n    tag_127:\n        /* \"#utility.yul\":1873:1951   */\n      swap4\n      pop\n        /* \"#utility.yul\":1960:2025   */\n      tag_128\n        /* \"#utility.yul\":2018:2024   */\n      dup2\n        /* \"#utility.yul\":2013:2016   */\n      dup6\n        /* \"#utility.yul\":2006:2010   */\n      0x20\n        /* \"#utility.yul\":1999:2004   */\n      dup7\n        /* \"#utility.yul\":1995:2011   */\n      add\n        /* \"#utility.yul\":1960:2025   */\n      tag_64\n      jump\t// in\n    tag_128:\n        /* \"#utility.yul\":2050:2079   */\n      tag_129\n        /* \"#utility.yul\":2072:2078   */\n      dup2\n        /* \"#utility.yul\":2050:2079   */\n      tag_65\n      jump\t// in\n    tag_129:\n        /* \"#utility.yul\":2045:2048   */\n      dup5\n        /* \"#utility.yul\":2041:2080   */\n      add\n        /* \"#utility.yul\":2034:2080   */\n      swap2\n      pop\n        /* \"#utility.yul\":1801:2086   */\n      pop\n        /* \"#utility.yul\":1709:2086   */\n      swap3\n      swap2\n      pop\n      pop\n      jump\t// out\n        /* \"#utility.yul\":2092:2169   */\n    tag_67:\n        /* \"#utility.yul\":2129:2136   */\n      0x00\n        /* \"#utility.yul\":2158:2163   */\n      dup2\n        /* \"#utility.yul\":2147:2163   */\n      swap1\n      pop\n        /* \"#utility.yul\":2092:2169   */\n      swap2\n      swap1\n      pop\n      jump\t// out\n        /* \"#utility.yul\":2175:2293   */\n    tag_68:\n        /* \"#utility.yul\":2262:2286   */\n      tag_132\n        /* \"#utility.yul\":2280:2285   */\n      dup2\n        /* \"#utility.yul\":2262:2286   */\n      tag_67\n      jump\t// in\n    tag_132:\n        /* \"#utility.yul\":2257:2260   */\n      dup3\n        /* \"#utility.yul\":2250:2287   */\n      mstore\n        /* \"#utility.yul\":2175:2293   */\n      pop\n      pop\n      jump\t// out\n        /* \"#utility.yul\":2299:2417   */\n    tag_69:\n        /* \"#utility.yul\":2386:2410   */\n      tag_134\n        /* \"#utility.yul\":2404:2409   */\n      dup2\n        /* \"#utility.yul\":2386:2410   */\n      tag_59\n      jump\t// in\n    tag_134:\n        /* \"#utility.yul\":2381:2384   */\n      dup3\n        /* \"#utility.yul\":2374:2411   */\n      mstore\n        /* \"#utility.yul\":2299:2417   */\n      pop\n      pop\n      jump\t// out\n        /* \"#utility.yul\":2423:2603   */\n    tag_28:\n        /* \"#utility.yul\":2471:2548   */\n      0x4e487b7100000000000000000000000000000000000000000000000000000000\n        /* \"#utility.yul\":2468:2469   */\n      0x00\n        /* \"#utility.yul\":2461:2549   */\n      mstore\n        /* \"#utility.yul\":2568:2572   */\n      0x21\n        /* \"#utility.yul\":2565:2566   */\n      0x04\n        /* \"#utility.yul\":2558:2573   */\n      mstore\n        /* \"#utility.yul\":2592:2596   */\n      0x24\n        /* \"#utility.yul\":2589:2590   */\n      0x00\n        /* \"#utility.yul\":2582:2597   */\n      revert\n        /* \"#utility.yul\":2609:2729   */\n    tag_70:\n        /* \"#utility.yul\":2697:2698   */\n      0x03\n        /* \"#utility.yul\":2690:2695   */\n      dup2\n        /* \"#utility.yul\":2687:2699   */\n      lt\n        /* \"#utility.yul\":2677:2723   */\n      tag_137\n      jumpi\n        /* \"#utility.yul\":2703:2721   */\n      tag_138\n      tag_28\n      jump\t// in\n    tag_138:\n        /* \"#utility.yul\":2677:2723   */\n    tag_137:\n        /* \"#utility.yul\":2609:2729   */\n      pop\n      jump\t// out\n        /* \"#utility.yul\":2735:2876   */\n    tag_71:\n        /* \"#utility.yul\":2787:2794   */\n      0x00\n        /* \"#utility.yul\":2816:2821   */\n      dup2\n        /* \"#utility.yul\":2805:2821   */\n      swap1\n      pop\n        /* \"#utility.yul\":2822:2870   */\n      tag_140\n        /* \"#utility.yul\":2864:2869   */\n      dup3\n        /* \"#utility.yul\":2822:2870   */\n      tag_70\n      jump\t// in\n    tag_140:\n        /* \"#utility.yul\":2735:2876   */\n      swap2\n      swap1\n      pop\n      jump\t// out\n        /* \"#utility.yul\":2882:3023   */\n    tag_72:\n        /* \"#utility.yul\":2945:2954   */\n      0x00\n        /* \"#utility.yul\":2978:3017   */\n      tag_142\n        /* \"#utility.yul\":3011:3016   */\n      dup3\n        /* \"#utility.yul\":2978:3017   */\n      tag_71\n      jump\t// in\n    tag_142:\n        /* \"#utility.yul\":2965:3017   */\n      swap1\n      pop\n        /* \"#utility.yul\":2882:3023   */\n      swap2\n      swap1\n      pop\n      jump\t// out\n        /* \"#utility.yul\":3029:3186   */\n    tag_73:\n        /* \"#utility.yul\":3129:3179   */\n      tag_144\n        /* \"#utility.yul\":3173:3178   */\n      dup2\n        /* \"#utility.yul\":3129:3179   */\n      tag_72\n      jump\t// in\n    tag_144:\n        /* \"#utility.yul\":3124:3127   */\n      dup3\n        /* \"#utility.yul\":3117:3180   */\n      mstore\n        /* \"#utility.yul\":3029:3186   */\n      pop\n      pop\n      jump\t// out\n        /* \"#utility.yul\":3192:4084   */\n    tag_11:\n        /* \"#utility.yul\":3458:3462   */\n      0x00\n        /* \"#utility.yul\":3496:3499   */\n      0xc0\n        /* \"#utility.yul\":3485:3494   */\n      dup3\n        /* \"#utility.yul\":3481:3500   */\n      add\n        /* \"#utility.yul\":3473:3500   */\n      swap1\n      pop\n        /* \"#utility.yul\":3546:3555   */\n      dup2\n        /* \"#utility.yul\":3540:3544   */\n      dup2\n        /* \"#utility.yul\":3536:3556   */\n      sub\n        /* \"#utility.yul\":3532:3533   */\n      0x00\n        /* \"#utility.yul\":3521:3530   */\n      dup4\n        /* \"#utility.yul\":3517:3534   */\n      add\n        /* \"#utility.yul\":3510:3557   */\n      mstore\n        /* \"#utility.yul\":3574:3652   */\n      tag_146\n        /* \"#utility.yul\":3647:3651   */\n      dup2\n        /* \"#utility.yul\":3638:3644   */\n      dup10\n        /* \"#utility.yul\":3574:3652   */\n      tag_66\n      jump\t// in\n    tag_146:\n        /* \"#utility.yul\":3566:3652   */\n      swap1\n      pop\n        /* \"#utility.yul\":3662:3734   */\n      tag_147\n        /* \"#utility.yul\":3730:3732   */\n      0x20\n        /* \"#utility.yul\":3719:3728   */\n      dup4\n        /* \"#utility.yul\":3715:3733   */\n      add\n        /* \"#utility.yul\":3706:3712   */\n      dup9\n        /* \"#utility.yul\":3662:3734   */\n      tag_68\n      jump\t// in\n    tag_147:\n        /* \"#utility.yul\":3744:3816   */\n      tag_148\n        /* \"#utility.yul\":3812:3814   */\n      0x40\n        /* \"#utility.yul\":3801:3810   */\n      dup4\n        /* \"#utility.yul\":3797:3815   */\n      add\n        /* \"#utility.yul\":3788:3794   */\n      dup8\n        /* \"#utility.yul\":3744:3816   */\n      tag_69\n      jump\t// in\n    tag_148:\n        /* \"#utility.yul\":3826:3898   */\n      tag_149\n        /* \"#utility.yul\":3894:3896   */\n      0x60\n        /* \"#utility.yul\":3883:3892   */\n      dup4\n        /* \"#utility.yul\":3879:3897   */\n      add\n        /* \"#utility.yul\":3870:3876   */\n      dup7\n        /* \"#utility.yul\":3826:3898   */\n      tag_68\n      jump\t// in\n    tag_149:\n        /* \"#utility.yul\":3908:3994   */\n      tag_150\n        /* \"#utility.yul\":3989:3992   */\n      0x80\n        /* \"#utility.yul\":3978:3987   */\n      dup4\n        /* \"#utility.yul\":3974:3993   */\n      add\n        /* \"#utility.yul\":3965:3971   */\n      dup6\n        /* \"#utility.yul\":3908:3994   */\n      tag_73\n      jump\t// in\n    tag_150:\n        /* \"#utility.yul\":4004:4077   */\n      tag_151\n        /* \"#utility.yul\":4072:4075   */\n      0xa0\n        /* \"#utility.yul\":4061:4070   */\n      dup4\n        /* \"#utility.yul\":4057:4076   */\n      add\n        /* \"#utility.yul\":4048:4054   */\n      dup5\n        /* \"#utility.yul\":4004:4077   */\n      tag_68\n      jump\t// in\n    tag_151:\n        /* \"#utility.yul\":3192:4084   */\n      swap8\n      swap7\n      pop\n      pop\n      pop\n      pop\n      pop\n      pop\n      pop\n      jump\t// out\n        /* \"#utility.yul\":4090:4207   */\n    tag_74:\n        /* \"#utility.yul\":4199:4200   */\n      0x00\n        /* \"#utility.yul\":4196:4197   */\n      0x00\n        /* \"#utility.yul\":4189:4201   */\n      revert\n        /* \"#utility.yul\":4213:4330   */\n    tag_75:\n        /* \"#utility.yul\":4322:4323   */\n      0x00\n        /* \"#utility.yul\":4319:4320   */\n      0x00\n        /* \"#utility.yul\":4312:4324   */\n      revert\n        /* \"#utility.yul\":4336:4516   */\n    tag_76:\n        /* \"#utility.yul\":4384:4461   */\n      0x4e487b7100000000000000000000000000000000000000000000000000000000\n        /* \"#utility.yul\":4381:4382   */\n      0x00\n        /* \"#utility.yul\":4374:4462   */\n      mstore\n        /* \"#utility.yul\":4481:4485   */\n      0x41\n        /* \"#utility.yul\":4478:4479   */\n      0x04\n        /* \"#utility.yul\":4471:4486   */\n      mstore\n        /* \"#utility.yul\":4505:4509   */\n      0x24\n        /* \"#utility.yul\":4502:4503   */\n      0x00\n        /* \"#utility.yul\":4495:4510   */\n      revert\n        /* \"#utility.yul\":4522:4803   */\n    tag_77:\n        /* \"#utility.yul\":4605:4632   */\n      tag_156\n        /* \"#utility.yul\":4627:4631   */\n      dup3\n        /* \"#utility.yul\":4605:4632   */\n      tag_65\n      jump\t// in\n    tag_156:\n        /* \"#utility.yul\":4597:4603   */\n      dup2\n        /* \"#utility.yul\":4593:4633   */\n      add\n        /* \"#utility.yul\":4735:4741   */\n      dup2\n        /* \"#utility.yul\":4723:4733   */\n      dup2\n        /* \"#utility.yul\":4720:4742   */\n      lt\n        /* \"#utility.yul\":4699:4717   */\n      0xffffffffffffffff\n        /* \"#utility.yul\":4687:4697   */\n      dup3\n        /* \"#utility.yul\":4684:4718   */\n      gt\n        /* \"#utility.yul\":4681:4743   */\n      or\n        /* \"#utility.yul\":4678:4766   */\n      iszero\n      tag_157\n      jumpi\n        /* \"#utility.yul\":4746:4764   */\n      tag_158\n      tag_76\n      jump\t// in\n    tag_158:\n        /* \"#utility.yul\":4678:4766   */\n    tag_157:\n        /* \"#utility.yul\":4786:4796   */\n      dup1\n        /* \"#utility.yul\":4782:4784   */\n      0x40\n        /* \"#utility.yul\":4775:4797   */\n      mstore\n        /* \"#utility.yul\":4565:4803   */\n      pop\n        /* \"#utility.yul\":4522:4803   */\n      pop\n      pop\n      jump\t// out\n        /* \"#utility.yul\":4809:4938   */\n    tag_78:\n        /* \"#utility.yul\":4843:4849   */\n      0x00\n        /* \"#utility.yul\":4870:4890   */\n      tag_160\n      tag_55\n      jump\t// in\n    tag_160:\n        /* \"#utility.yul\":4860:4890   */\n      swap1\n      pop\n        /* \"#utility.yul\":4899:4932   */\n      tag_161\n        /* \"#utility.yul\":4927:4931   */\n      dup3\n        /* \"#utility.yul\":4919:4925   */\n      dup3\n        /* \"#utility.yul\":4899:4932   */\n      tag_77\n      jump\t// in\n    tag_161:\n        /* \"#utility.yul\":4809:4938   */\n      swap2\n      swap1\n      pop\n      jump\t// out\n        /* \"#utility.yul\":4944:5252   */\n    tag_79:\n        /* \"#utility.yul\":5006:5010   */\n      0x00\n        /* \"#utility.yul\":5096:5114   */\n      0xffffffffffffffff\n        /* \"#utility.yul\":5088:5094   */\n      dup3\n        /* \"#utility.yul\":5085:5115   */\n      gt\n        /* \"#utility.yul\":5082:5138   */\n      iszero\n      tag_163\n      jumpi\n        /* \"#utility.yul\":5118:5136   */\n      tag_164\n      tag_76\n      jump\t// in\n    tag_164:\n        /* \"#utility.yul\":5082:5138   */\n    tag_163:\n        /* \"#utility.yul\":5156:5185   */\n      tag_165\n        /* \"#utility.yul\":5178:5184   */\n      dup3\n        /* \"#utility.yul\":5156:5185   */\n      tag_65\n      jump\t// in\n    tag_165:\n        /* \"#utility.yul\":5148:5185   */\n      swap1\n      pop\n        /* \"#utility.yul\":5240:5244   */\n      0x20\n        /* \"#utility.yul\":5234:5238   */\n      dup2\n        /* \"#utility.yul\":5230:5245   */\n      add\n        /* \"#utility.yul\":5222:5245   */\n      swap1\n      pop\n        /* \"#utility.yul\":4944:5252   */\n      swap2\n      swap1\n      pop\n      jump\t// out\n        /* \"#utility.yul\":5258:5406   */\n    tag_80:\n        /* \"#utility.yul\":5356:5362   */\n      dup3\n        /* \"#utility.yul\":5351:5354   */\n      dup2\n        /* \"#utility.yul\":5346:5349   */\n      dup4\n        /* \"#utility.yul\":5333:5363   */\n      calldatacopy\n        /* \"#utility.yul\":5397:5398   */\n      0x00\n        /* \"#utility.yul\":5388:5394   */\n      dup4\n        /* \"#utility.yul\":5383:5386   */\n      dup4\n        /* \"#utility.yul\":5379:5395   */\n      add\n        /* \"#utility.yul\":5372:5399   */\n      mstore\n        /* \"#utility.yul\":5258:5406   */\n      pop\n      pop\n      pop\n      jump\t// out\n        /* \"#utility.yul\":5412:5837   */\n    tag_81:\n        /* \"#utility.yul\":5490:5495   */\n      0x00\n        /* \"#utility.yul\":5515:5581   */\n      tag_168\n        /* \"#utility.yul\":5531:5580   */\n      tag_169\n        /* \"#utility.yul\":5573:5579   */\n      dup5\n        /* \"#utility.yul\":5531:5580   */\n      tag_79\n      jump\t// in\n    tag_169:\n        /* \"#utility.yul\":5515:5581   */\n      tag_78\n      jump\t// in\n    tag_168:\n        /* \"#utility.yul\":5506:5581   */\n      swap1\n      pop\n        /* \"#utility.yul\":5604:5610   */\n      dup3\n        /* \"#utility.yul\":5597:5602   */\n      dup2\n        /* \"#utility.yul\":5590:5611   */\n      mstore\n        /* \"#utility.yul\":5642:5646   */\n      0x20\n        /* \"#utility.yul\":5635:5640   */\n      dup2\n        /* \"#utility.yul\":5631:5647   */\n      add\n        /* \"#utility.yul\":5680:5683   */\n      dup5\n        /* \"#utility.yul\":5671:5677   */\n      dup5\n        /* \"#utility.yul\":5666:5669   */\n      dup5\n        /* \"#utility.yul\":5662:5678   */\n      add\n        /* \"#utility.yul\":5659:5684   */\n      gt\n        /* \"#utility.yul\":5656:5768   */\n      iszero\n      tag_170\n      jumpi\n        /* \"#utility.yul\":5687:5766   */\n      tag_171\n      tag_75\n      jump\t// in\n    tag_171:\n        /* \"#utility.yul\":5656:5768   */\n    tag_170:\n        /* \"#utility.yul\":5777:5831   */\n      tag_172\n        /* \"#utility.yul\":5824:5830   */\n      dup5\n        /* \"#utility.yul\":5819:5822   */\n      dup3\n        /* \"#utility.yul\":5814:5817   */\n      dup6\n        /* \"#utility.yul\":5777:5831   */\n      tag_80\n      jump\t// in\n    tag_172:\n        /* \"#utility.yul\":5496:5837   */\n      pop\n        /* \"#utility.yul\":5412:5837   */\n      swap4\n      swap3\n      pop\n      pop\n      pop\n      jump\t// out\n        /* \"#utility.yul\":5857:6197   */\n    tag_82:\n        /* \"#utility.yul\":5913:5918   */\n      0x00\n        /* \"#utility.yul\":5962:5965   */\n      dup3\n        /* \"#utility.yul\":5955:5959   */\n      0x1f\n        /* \"#utility.yul\":5947:5953   */\n      dup4\n        /* \"#utility.yul\":5943:5960   */\n      add\n        /* \"#utility.yul\":5939:5966   */\n      slt\n        /* \"#utility.yul\":5929:6051   */\n      tag_174\n      jumpi\n        /* \"#utility.yul\":5970:6049   */\n      tag_175\n      tag_74\n      jump\t// in\n    tag_175:\n        /* \"#utility.yul\":5929:6051   */\n    tag_174:\n        /* \"#utility.yul\":6087:6093   */\n      dup2\n        /* \"#utility.yul\":6074:6094   */\n      calldataload\n        /* \"#utility.yul\":6112:6191   */\n      tag_176\n        /* \"#utility.yul\":6187:6190   */\n      dup5\n        /* \"#utility.yul\":6179:6185   */\n      dup3\n        /* \"#utility.yul\":6172:6176   */\n      0x20\n        /* \"#utility.yul\":6164:6170   */\n      dup7\n        /* \"#utility.yul\":6160:6177   */\n      add\n        /* \"#utility.yul\":6112:6191   */\n      tag_81\n      jump\t// in\n    tag_176:\n        /* \"#utility.yul\":6103:6191   */\n      swap2\n      pop\n        /* \"#utility.yul\":5919:6197   */\n      pop\n        /* \"#utility.yul\":5857:6197   */\n      swap3\n      swap2\n      pop\n      pop\n      jump\t// out\n        /* \"#utility.yul\":6203:6325   */\n    tag_83:\n        /* \"#utility.yul\":6276:6300   */\n      tag_178\n        /* \"#utility.yul\":6294:6299   */\n      dup2\n        /* \"#utility.yul\":6276:6300   */\n      tag_67\n      jump\t// in\n    tag_178:\n        /* \"#utility.yul\":6269:6274   */\n      dup2\n        /* \"#utility.yul\":6266:6301   */\n      eq\n        /* \"#utility.yul\":6256:6319   */\n      tag_179\n      jumpi\n        /* \"#utility.yul\":6315:6316   */\n      0x00\n        /* \"#utility.yul\":6312:6313   */\n      0x00\n        /* \"#utility.yul\":6305:6317   */\n      revert\n        /* \"#utility.yul\":6256:6319   */\n    tag_179:\n        /* \"#utility.yul\":6203:6325   */\n      pop\n      jump\t// out\n        /* \"#utility.yul\":6331:6470   */\n    tag_84:\n        /* \"#utility.yul\":6377:6382   */\n      0x00\n        /* \"#utility.yul\":6415:6421   */\n      dup2\n        /* \"#utility.yul\":6402:6422   */\n      calldataload\n        /* \"#utility.yul\":6393:6422   */\n      swap1\n      pop\n        /* \"#utility.yul\":6431:6464   */\n      tag_181\n        /* \"#utility.yul\":6458:6463   */\n      dup2\n        /* \"#utility.yul\":6431:6464   */\n      tag_83\n      jump\t// in\n    tag_181:\n        /* \"#utility.yul\":6331:6470   */\n      swap3\n      swap2\n      pop\n      pop\n      jump\t// out\n        /* \"#utility.yul\":6476:7130   */\n    tag_17:\n        /* \"#utility.yul\":6554:6560   */\n      0x00\n        /* \"#utility.yul\":6562:6568   */\n      0x00\n        /* \"#utility.yul\":6611:6613   */\n      0x40\n        /* \"#utility.yul\":6599:6608   */\n      dup4\n        /* \"#utility.yul\":6590:6597   */\n      dup6\n        /* \"#utility.yul\":6586:6609   */\n      sub\n        /* \"#utility.yul\":6582:6614   */\n      slt\n        /* \"#utility.yul\":6579:6698   */\n      iszero\n      tag_183\n      jumpi\n        /* \"#utility.yul\":6617:6696   */\n      tag_184\n      tag_56\n      jump\t// in\n    tag_184:\n        /* \"#utility.yul\":6579:6698   */\n    tag_183:\n        /* \"#utility.yul\":6765:6766   */\n      0x00\n        /* \"#utility.yul\":6754:6763   */\n      dup4\n        /* \"#utility.yul\":6750:6767   */\n      add\n        /* \"#utility.yul\":6737:6768   */\n      calldataload\n        /* \"#utility.yul\":6795:6813   */\n      0xffffffffffffffff\n        /* \"#utility.yul\":6787:6793   */\n      dup2\n        /* \"#utility.yul\":6784:6814   */\n      gt\n        /* \"#utility.yul\":6781:6898   */\n      iszero\n      tag_185\n      jumpi\n        /* \"#utility.yul\":6817:6896   */\n      tag_186\n      tag_57\n      jump\t// in\n    tag_186:\n        /* \"#utility.yul\":6781:6898   */\n    tag_185:\n        /* \"#utility.yul\":6922:6985   */\n      tag_187\n        /* \"#utility.yul\":6977:6984   */\n      dup6\n        /* \"#utility.yul\":6968:6974   */\n      dup3\n        /* \"#utility.yul\":6957:6966   */\n      dup7\n        /* \"#utility.yul\":6953:6975   */\n      add\n        /* \"#utility.yul\":6922:6985   */\n      tag_82\n      jump\t// in\n    tag_187:\n        /* \"#utility.yul\":6912:6985   */\n      swap3\n      pop\n        /* \"#utility.yul\":6708:6995   */\n      pop\n        /* \"#utility.yul\":7034:7036   */\n      0x20\n        /* \"#utility.yul\":7060:7113   */\n      tag_188\n        /* \"#utility.yul\":7105:7112   */\n      dup6\n        /* \"#utility.yul\":7096:7102   */\n      dup3\n        /* \"#utility.yul\":7085:7094   */\n      dup7\n        /* \"#utility.yul\":7081:7103   */\n      add\n        /* \"#utility.yul\":7060:7113   */\n      tag_84\n      jump\t// in\n    tag_188:\n        /* \"#utility.yul\":7050:7113   */\n      swap2\n      pop\n        /* \"#utility.yul\":7005:7123   */\n      pop\n        /* \"#utility.yul\":6476:7130   */\n      swap3\n      pop\n      swap3\n      swap1\n      pop\n      jump\t// out\n        /* \"#utility.yul\":7136:7316   */\n    tag_85:\n        /* \"#utility.yul\":7184:7261   */\n      0x4e487b7100000000000000000000000000000000000000000000000000000000\n        /* \"#utility.yul\":7181:7182   */\n      0x00\n        /* \"#utility.yul\":7174:7262   */\n      mstore\n        /* \"#utility.yul\":7281:7285   */\n      0x22\n        /* \"#utility.yul\":7278:7279   */\n      0x04\n        /* \"#utility.yul\":7271:7286   */\n      mstore\n        /* \"#utility.yul\":7305:7309   */\n      0x24\n        /* \"#utility.yul\":7302:7303   */\n      0x00\n        /* \"#utility.yul\":7295:7310   */\n      revert\n        /* \"#utility.yul\":7322:7642   */\n    tag_21:\n        /* \"#utility.yul\":7366:7372   */\n      0x00\n        /* \"#utility.yul\":7403:7404   */\n      0x02\n        /* \"#utility.yul\":7397:7401   */\n      dup3\n        /* \"#utility.yul\":7393:7405   */\n      div\n        /* \"#utility.yul\":7383:7405   */\n      swap1\n      pop\n        /* \"#utility.yul\":7450:7451   */\n      0x01\n        /* \"#utility.yul\":7444:7448   */\n      dup3\n        /* \"#utility.yul\":7440:7452   */\n      and\n        /* \"#utility.yul\":7471:7489   */\n      dup1\n        /* \"#utility.yul\":7461:7542   */\n      tag_191\n      jumpi\n        /* \"#utility.yul\":7527:7531   */\n      0x7f\n        /* \"#utility.yul\":7519:7525   */\n      dup3\n        /* \"#utility.yul\":7515:7532   */\n      and\n        /* \"#utility.yul\":7505:7532   */\n      swap2\n      pop\n        /* \"#utility.yul\":7461:7542   */\n    tag_191:\n        /* \"#utility.yul\":7589:7591   */\n      0x20\n        /* \"#utility.yul\":7581:7587   */\n      dup3\n        /* \"#utility.yul\":7578:7592   */\n      lt\n        /* \"#utility.yul\":7558:7576   */\n      dup2\n        /* \"#utility.yul\":7555:7593   */\n      sub\n        /* \"#utility.yul\":7552:7636   */\n      tag_192\n      jumpi\n        /* \"#utility.yul\":7608:7626   */\n      tag_193\n      tag_85\n      jump\t// in\n    tag_193:\n        /* \"#utility.yul\":7552:7636   */\n    tag_192:\n        /* \"#utility.yul\":7373:7642   */\n      pop\n        /* \"#utility.yul\":7322:7642   */\n      swap2\n      swap1\n      pop\n      jump\t// out\n        /* \"#utility.yul\":7648:7817   */\n    tag_86:\n        /* \"#utility.yul\":7788:7809   */\n      0x4163636f756e7420697320696e61637469766500000000000000000000000000\n        /* \"#utility.yul\":7784:7785   */\n      0x00\n        /* \"#utility.yul\":7776:7782   */\n      dup3\n        /* \"#utility.yul\":7772:7786   */\n      add\n        /* \"#utility.yul\":7765:7810   */\n      mstore\n        /* \"#utility.yul\":7648:7817   */\n      pop\n      jump\t// out\n        /* \"#utility.yul\":7823:8189   */\n    tag_87:\n        /* \"#utility.yul\":7965:7968   */\n      0x00\n        /* \"#utility.yul\":7986:8053   */\n      tag_196\n        /* \"#utility.yul\":8050:8052   */\n      0x13\n        /* \"#utility.yul\":8045:8048   */\n      dup4\n        /* \"#utility.yul\":7986:8053   */\n      tag_63\n      jump\t// in\n    tag_196:\n        /* \"#utility.yul\":7979:8053   */\n      swap2\n      pop\n        /* \"#utility.yul\":8062:8155   */\n      tag_197\n        /* \"#utility.yul\":8151:8154   */\n      dup3\n        /* \"#utility.yul\":8062:8155   */\n      tag_86\n      jump\t// in\n    tag_197:\n        /* \"#utility.yul\":8180:8182   */\n      0x20\n        /* \"#utility.yul\":8175:8178   */\n      dup3\n        /* \"#utility.yul\":8171:8183   */\n      add\n        /* \"#utility.yul\":8164:8183   */\n      swap1\n      pop\n        /* \"#utility.yul\":7823:8189   */\n      swap2\n      swap1\n      pop\n      jump\t// out\n        /* \"#utility.yul\":8195:8614   */\n    tag_38:\n        /* \"#utility.yul\":8361:8365   */\n      0x00\n        /* \"#utility.yul\":8399:8401   */\n      0x20\n        /* \"#utility.yul\":8388:8397   */\n      dup3\n        /* \"#utility.yul\":8384:8402   */\n      add\n        /* \"#utility.yul\":8376:8402   */\n      swap1\n      pop\n        /* \"#utility.yul\":8448:8457   */\n      dup2\n        /* \"#utility.yul\":8442:8446   */\n      dup2\n        /* \"#utility.yul\":8438:8458   */\n      sub\n        /* \"#utility.yul\":8434:8435   */\n      0x00\n        /* \"#utility.yul\":8423:8432   */\n      dup4\n        /* \"#utility.yul\":8419:8436   */\n      add\n        /* \"#utility.yul\":8412:8459   */\n      mstore\n        /* \"#utility.yul\":8476:8607   */\n      tag_199\n        /* \"#utility.yul\":8602:8606   */\n      dup2\n        /* \"#utility.yul\":8476:8607   */\n      tag_87\n      jump\t// in\n    tag_199:\n        /* \"#utility.yul\":8468:8607   */\n      swap1\n      pop\n        /* \"#utility.yul\":8195:8614   */\n      swap2\n      swap1\n      pop\n      jump\t// out\n        /* \"#utility.yul\":8620:8792   */\n    tag_88:\n        /* \"#utility.yul\":8760:8784   */\n      0x4163636f756e7420616c72656164792065786973742100000000000000000000\n        /* \"#utility.yul\":8756:8757   */\n      0x00\n        /* \"#utility.yul\":8748:8754   */\n      dup3\n        /* \"#utility.yul\":8744:8758   */\n      add\n        /* \"#utility.yul\":8737:8785   */\n      mstore\n        /* \"#utility.yul\":8620:8792   */\n      pop\n      jump\t// out\n        /* \"#utility.yul\":8798:9164   */\n    tag_89:\n        /* \"#utility.yul\":8940:8943   */\n      0x00\n        /* \"#utility.yul\":8961:9028   */\n      tag_202\n        /* \"#utility.yul\":9025:9027   */\n      0x16\n        /* \"#utility.yul\":9020:9023   */\n      dup4\n        /* \"#utility.yul\":8961:9028   */\n      tag_63\n      jump\t// in\n    tag_202:\n        /* \"#utility.yul\":8954:9028   */\n      swap2\n      pop\n        /* \"#utility.yul\":9037:9130   */\n      tag_203\n        /* \"#utility.yul\":9126:9129   */\n      dup3\n        /* \"#utility.yul\":9037:9130   */\n      tag_88\n      jump\t// in\n    tag_203:\n        /* \"#utility.yul\":9155:9157   */\n      0x20\n        /* \"#utility.yul\":9150:9153   */\n      dup3\n        /* \"#utility.yul\":9146:9158   */\n      add\n        /* \"#utility.yul\":9139:9158   */\n      swap1\n      pop\n        /* \"#utility.yul\":8798:9164   */\n      swap2\n      swap1\n      pop\n      jump\t// out\n        /* \"#utility.yul\":9170:9589   */\n    tag_48:\n        /* \"#utility.yul\":9336:9340   */\n      0x00\n        /* \"#utility.yul\":9374:9376   */\n      0x20\n        /* \"#utility.yul\":9363:9372   */\n      dup3\n        /* \"#utility.yul\":9359:9377   */\n      add\n        /* \"#utility.yul\":9351:9377   */\n      swap1\n      pop\n        /* \"#utility.yul\":9423:9432   */\n      dup2\n        /* \"#utility.yul\":9417:9421   */\n      dup2\n        /* \"#utility.yul\":9413:9433   */\n      sub\n        /* \"#utility.yul\":9409:9410   */\n      0x00\n        /* \"#utility.yul\":9398:9407   */\n      dup4\n        /* \"#utility.yul\":9394:9411   */\n      add\n        /* \"#utility.yul\":9387:9434   */\n      mstore\n        /* \"#utility.yul\":9451:9582   */\n      tag_205\n        /* \"#utility.yul\":9577:9581   */\n      dup2\n        /* \"#utility.yul\":9451:9582   */\n      tag_89\n      jump\t// in\n    tag_205:\n        /* \"#utility.yul\":9443:9582   */\n      swap1\n      pop\n        /* \"#utility.yul\":9170:9589   */\n      swap2\n      swap1\n      pop\n      jump\t// out\n        /* \"#utility.yul\":9595:9736   */\n    tag_90:\n        /* \"#utility.yul\":9644:9648   */\n      0x00\n        /* \"#utility.yul\":9667:9670   */\n      dup2\n        /* \"#utility.yul\":9659:9670   */\n      swap1\n      pop\n        /* \"#utility.yul\":9690:9693   */\n      dup2\n        /* \"#utility.yul\":9687:9688   */\n      0x00\n        /* \"#utility.yul\":9680:9694   */\n      mstore\n        /* \"#utility.yul\":9724:9728   */\n      0x20\n        /* \"#utility.yul\":9721:9722   */\n      0x00\n        /* \"#utility.yul\":9711:9729   */\n      keccak256\n        /* \"#utility.yul\":9703:9729   */\n      swap1\n      pop\n        /* \"#utility.yul\":9595:9736   */\n      swap2\n      swap1\n      pop\n      jump\t// out\n        /* \"#utility.yul\":9742:9835   */\n    tag_91:\n        /* \"#utility.yul\":9779:9785   */\n      0x00\n        /* \"#utility.yul\":9826:9828   */\n      0x20\n        /* \"#utility.yul\":9821:9823   */\n      0x1f\n        /* \"#utility.yul\":9814:9819   */\n      dup4\n        /* \"#utility.yul\":9810:9824   */\n      add\n        /* \"#utility.yul\":9806:9829   */\n      div\n        /* \"#utility.yul\":9796:9829   */\n      swap1\n      pop\n        /* \"#utility.yul\":9742:9835   */\n      swap2\n      swap1\n      pop\n      jump\t// out\n        /* \"#utility.yul\":9841:9948   */\n    tag_92:\n        /* \"#utility.yul\":9885:9893   */\n      0x00\n        /* \"#utility.yul\":9935:9940   */\n      dup3\n        /* \"#utility.yul\":9929:9933   */\n      dup3\n        /* \"#utility.yul\":9925:9941   */\n      shl\n        /* \"#utility.yul\":9904:9941   */\n      swap1\n      pop\n        /* \"#utility.yul\":9841:9948   */\n      swap3\n      swap2\n      pop\n      pop\n      jump\t// out\n        /* \"#utility.yul\":9954:10347   */\n    tag_93:\n        /* \"#utility.yul\":10023:10029   */\n      0x00\n        /* \"#utility.yul\":10073:10074   */\n      0x08\n        /* \"#utility.yul\":10061:10071   */\n      dup4\n        /* \"#utility.yul\":10057:10075   */\n      mul\n        /* \"#utility.yul\":10096:10193   */\n      tag_210\n        /* \"#utility.yul\":10126:10192   */\n      0xffffffffffffffffffffffffffffffffffffffffffffffffffffffffffffffff\n        /* \"#utility.yul\":10115:10124   */\n      dup3\n        /* \"#utility.yul\":10096:10193   */\n      tag_92\n      jump\t// in\n    tag_210:\n        /* \"#utility.yul\":10214:10253   */\n      tag_211\n        /* \"#utility.yul\":10244:10252   */\n      dup7\n        /* \"#utility.yul\":10233:10242   */\n      dup4\n        /* \"#utility.yul\":10214:10253   */\n      tag_92\n      jump\t// in\n    tag_211:\n        /* \"#utility.yul\":10202:10253   */\n      swap6\n      pop\n        /* \"#utility.yul\":10286:10290   */\n      dup1\n        /* \"#utility.yul\":10282:10291   */\n      not\n        /* \"#utility.yul\":10275:10280   */\n      dup5\n        /* \"#utility.yul\":10271:10292   */\n      and\n        /* \"#utility.yul\":10262:10292   */\n      swap4\n      pop\n        /* \"#utility.yul\":10335:10339   */\n      dup1\n        /* \"#utility.yul\":10325:10333   */\n      dup7\n        /* \"#utility.yul\":10321:10340   */\n      and\n        /* \"#utility.yul\":10314:10319   */\n      dup5\n        /* \"#utility.yul\":10311:10341   */\n      or\n        /* \"#utility.yul\":10301:10341   */\n      swap3\n      pop\n        /* \"#utility.yul\":10030:10347   */\n      pop\n      pop\n        /* \"#utility.yul\":9954:10347   */\n      swap4\n      swap3\n      pop\n      pop\n      pop\n      jump\t// out\n        /* \"#utility.yul\":10353:10413   */\n    tag_94:\n        /* \"#utility.yul\":10381:10384   */\n      0x00\n        /* \"#utility.yul\":10402:10407   */\n      dup2\n        /* \"#utility.yul\":10395:10407   */\n      swap1\n      pop\n        /* \"#utility.yul\":10353:10413   */\n      swap2\n      swap1\n      pop\n      jump\t// out\n        /* \"#utility.yul\":10419:10561   */\n    tag_95:\n        /* \"#utility.yul\":10469:10478   */\n      0x00\n        /* \"#utility.yul\":10502:10555   */\n      tag_214\n        /* \"#utility.yul\":10520:10554   */\n      tag_215\n        /* \"#utility.yul\":10529:10553   */\n      tag_216\n        /* \"#utility.yul\":10547:10552   */\n      dup5\n        /* \"#utility.yul\":10529:10553   */\n      tag_67\n      jump\t// in\n    tag_216:\n        /* \"#utility.yul\":10520:10554   */\n      tag_94\n      jump\t// in\n    tag_215:\n        /* \"#utility.yul\":10502:10555   */\n      tag_67\n      jump\t// in\n    tag_214:\n        /* \"#utility.yul\":10489:10555   */\n      swap1\n      pop\n        /* \"#utility.yul\":10419:10561   */\n      swap2\n      swap1\n      pop\n      jump\t// out\n        /* \"#utility.yul\":10567:10642   */\n    tag_96:\n        /* \"#utility.yul\":10610:10613   */\n      0x00\n        /* \"#utility.yul\":10631:10636   */\n      dup2\n        /* \"#utility.yul\":10624:10636   */\n      swap1\n      pop\n        /* \"#utility.yul\":10567:10642   */\n      swap2\n      swap1\n      pop\n      jump\t// out\n        /* \"#utility.yul\":10648:10917   */\n    tag_97:\n        /* \"#utility.yul\":10758:10797   */\n      tag_219\n        /* \"#utility.yul\":10789:10796   */\n      dup4\n        /* \"#utility.yul\":10758:10797   */\n      tag_95\n      jump\t// in\n    tag_219:\n        /* \"#utility.yul\":10819:10910   */\n      tag_220\n        /* \"#utility.yul\":10868:10909   */\n      tag_221\n        /* \"#utility.yul\":10892:10908   */\n      dup3\n        /* \"#utility.yul\":10868:10909   */\n      tag_96\n      jump\t// in\n    tag_221:\n        /* \"#utility.yul\":10860:10866   */\n      dup5\n        /* \"#utility.yul\":10853:10857   */\n      dup5\n        /* \"#utility.yul\":10847:10858   */\n      sload\n        /* \"#utility.yul\":10819:10910   */\n      tag_93\n      jump\t// in\n    tag_220:\n        /* \"#utility.yul\":10813:10817   */\n      dup3\n        /* \"#utility.yul\":10806:10911   */\n      sstore\n        /* \"#utility.yul\":10724:10917   */\n      pop\n        /* \"#utility.yul\":10648:10917   */\n      pop\n      pop\n      pop\n      jump\t// out\n        /* \"#utility.yul\":10923:10996   */\n    tag_98:\n        /* \"#utility.yul\":10968:10971   */\n      0x00\n        /* \"#utility.yul\":10989:10990   */\n      0x00\n        /* \"#utility.yul\":10982:10990   */\n      swap1\n      pop\n        /* \"#utility.yul\":10923:10996   */\n      swap1\n      jump\t// out\n        /* \"#utility.yul\":11002:11191   */\n    tag_99:\n        /* \"#utility.yul\":11079:11111   */\n      tag_224\n      tag_98\n      jump\t// in\n    tag_224:\n        /* \"#utility.yul\":11120:11185   */\n      tag_225\n        /* \"#utility.yul\":11178:11184   */\n      dup2\n        /* \"#utility.yul\":11170:11176   */\n      dup5\n        /* \"#utility.yul\":11164:11168   */\n      dup5\n        /* \"#utility.yul\":11120:11185   */\n      tag_97\n      jump\t// in\n    tag_225:\n        /* \"#utility.yul\":11055:11191   */\n      pop\n        /* \"#utility.yul\":11002:11191   */\n      pop\n      pop\n      jump\t// out\n        /* \"#utility.yul\":11197:11411   */\n    tag_100:\n        /* \"#utility.yul\":11282:11283   */\n      0x00\n        /* \"#utility.yul\":11267:11405   */\n    tag_227:\n        /* \"#utility.yul\":11292:11301   */\n      dup3\n        /* \"#utility.yul\":11289:11290   */\n      dup2\n        /* \"#utility.yul\":11286:11302   */\n      lt\n        /* \"#utility.yul\":11267:11405   */\n      iszero\n      tag_229\n      jumpi\n        /* \"#utility.yul\":11344:11395   */\n      tag_230\n        /* \"#utility.yul\":11393:11394   */\n      0x00\n        /* \"#utility.yul\":11389:11390   */\n      dup3\n        /* \"#utility.yul\":11378:11387   */\n      dup5\n        /* \"#utility.yul\":11374:11391   */\n      add\n        /* \"#utility.yul\":11344:11395   */\n      tag_99\n      jump\t// in\n    tag_230:\n        /* \"#utility.yul\":11317:11318   */\n      0x01\n        /* \"#utility.yul\":11314:11315   */\n      dup2\n        /* \"#utility.yul\":11310:11319   */\n      add\n        /* \"#utility.yul\":11305:11319   */\n      swap1\n      pop\n        /* \"#utility.yul\":11267:11405   */\n      jump(tag_227)\n    tag_229:\n        /* \"#utility.yul\":11271:11285   */\n      pop\n        /* \"#utility.yul\":11197:11411   */\n      pop\n      pop\n      jump\t// out\n        /* \"#utility.yul\":11417:12163   */\n    tag_101:\n        /* \"#utility.yul\":11518:11520   */\n      0x1f\n        /* \"#utility.yul\":11513:11516   */\n      dup3\n        /* \"#utility.yul\":11510:11521   */\n      gt\n        /* \"#utility.yul\":11507:12156   */\n      iszero\n      tag_232\n      jumpi\n        /* \"#utility.yul\":11547:11557   */\n      dup3\n        /* \"#utility.yul\":11542:11545   */\n      dup3\n        /* \"#utility.yul\":11539:11558   */\n      gt\n        /* \"#utility.yul\":11536:12146   */\n      iszero\n      tag_233\n      jumpi\n        /* \"#utility.yul\":11593:11631   */\n      tag_234\n        /* \"#utility.yul\":11625:11630   */\n      dup2\n        /* \"#utility.yul\":11593:11631   */\n      tag_90\n      jump\t// in\n    tag_234:\n        /* \"#utility.yul\":11668:11690   */\n      tag_235\n        /* \"#utility.yul\":11686:11689   */\n      dup4\n        /* \"#utility.yul\":11668:11690   */\n      tag_91\n      jump\t// in\n    tag_235:\n        /* \"#utility.yul\":11727:11756   */\n      tag_236\n        /* \"#utility.yul\":11745:11755   */\n      dup6\n        /* \"#utility.yul\":11727:11756   */\n      tag_91\n      jump\t// in\n    tag_236:\n        /* \"#utility.yul\":11917:11919   */\n      0x20\n        /* \"#utility.yul\":11905:11915   */\n      dup7\n        /* \"#utility.yul\":11902:11920   */\n      lt\n        /* \"#utility.yul\":11899:11978   */\n      iszero\n      tag_237\n      jumpi\n        /* \"#utility.yul\":11959:11960   */\n      0x00\n        /* \"#utility.yul\":11943:11960   */\n      swap1\n      pop\n        /* \"#utility.yul\":11899:11978   */\n    tag_237:\n        /* \"#utility.yul\":12028:12040   */\n      dup1\n        /* \"#utility.yul\":12018:12026   */\n      dup4\n        /* \"#utility.yul\":12014:12041   */\n      add\n        /* \"#utility.yul\":12058:12132   */\n      tag_238\n        /* \"#utility.yul\":12118:12130   */\n      dup3\n        /* \"#utility.yul\":12104:12116   */\n      dup5\n        /* \"#utility.yul\":12100:12131   */\n      sub\n        /* \"#utility.yul\":12087:12098   */\n      dup3\n        /* \"#utility.yul\":12058:12132   */\n      tag_100\n      jump\t// in\n    tag_238:\n        /* \"#utility.yul\":11559:12146   */\n      pop\n      pop\n      pop\n      pop\n        /* \"#utility.yul\":11536:12146   */\n    tag_233:\n        /* \"#utility.yul\":11507:12156   */\n    tag_232:\n        /* \"#utility.yul\":11417:12163   */\n      pop\n      pop\n      pop\n      jump\t// out\n        /* \"#utility.yul\":12169:12286   */\n    tag_102:\n        /* \"#utility.yul\":12223:12231   */\n      0x00\n        /* \"#utility.yul\":12273:12278   */\n      dup3\n        /* \"#utility.yul\":12267:12271   */\n      dup3\n        /* \"#utility.yul\":12263:12279   */\n      shr\n        /* \"#utility.yul\":12242:12279   */\n      swap1\n      pop\n        /* \"#utility.yul\":12169:12286   */\n      swap3\n      swap2\n      pop\n      pop\n      jump\t// out\n        /* \"#utility.yul\":12292:12461   */\n    tag_103:\n        /* \"#utility.yul\":12336:12342   */\n      0x00\n        /* \"#utility.yul\":12369:12420   */\n      tag_241\n        /* \"#utility.yul\":12417:12418   */\n      0x00\n        /* \"#utility.yul\":12413:12419   */\n      not\n        /* \"#utility.yul\":12405:12410   */\n      dup5\n        /* \"#utility.yul\":12402:12403   */\n      0x08\n        /* \"#utility.yul\":12398:12411   */\n      mul\n        /* \"#utility.yul\":12369:12420   */\n      tag_102\n      jump\t// in\n    tag_241:\n        /* \"#utility.yul\":12365:12421   */\n      not\n        /* \"#utility.yul\":12450:12454   */\n      dup1\n        /* \"#utility.yul\":12444:12448   */\n      dup4\n        /* \"#utility.yul\":12440:12455   */\n      and\n        /* \"#utility.yul\":12430:12455   */\n      swap2\n      pop\n        /* \"#utility.yul\":12343:12461   */\n      pop\n        /* \"#utility.yul\":12292:12461   */\n      swap3\n      swap2\n      pop\n      pop\n      jump\t// out\n        /* \"#utility.yul\":12466:12761   */\n    tag_104:\n        /* \"#utility.yul\":12542:12546   */\n      0x00\n        /* \"#utility.yul\":12688:12717   */\n      tag_243\n        /* \"#utility.yul\":12713:12716   */\n      dup4\n        /* \"#utility.yul\":12707:12711   */\n      dup4\n        /* \"#utility.yul\":12688:12717   */\n      tag_103\n      jump\t// in\n    tag_243:\n        /* \"#utility.yul\":12680:12717   */\n      swap2\n      pop\n        /* \"#utility.yul\":12750:12753   */\n      dup3\n        /* \"#utility.yul\":12747:12748   */\n      0x02\n        /* \"#utility.yul\":12743:12754   */\n      mul\n        /* \"#utility.yul\":12737:12741   */\n      dup3\n        /* \"#utility.yul\":12734:12755   */\n      or\n        /* \"#utility.yul\":12726:12755   */\n      swap1\n      pop\n        /* \"#utility.yul\":12466:12761   */\n      swap3\n      swap2\n      pop\n      pop\n      jump\t// out\n        /* \"#utility.yul\":12766:14161   */\n    tag_52:\n        /* \"#utility.yul\":12883:12920   */\n      tag_245\n        /* \"#utility.yul\":12916:12919   */\n      dup3\n        /* \"#utility.yul\":12883:12920   */\n      tag_62\n      jump\t// in\n    tag_245:\n        /* \"#utility.yul\":12985:13003   */\n      0xffffffffffffffff\n        /* \"#utility.yul\":12977:12983   */\n      dup2\n        /* \"#utility.yul\":12974:13004   */\n      gt\n        /* \"#utility.yul\":12971:13027   */\n      iszero\n      tag_246\n      jumpi\n        /* \"#utility.yul\":13007:13025   */\n      tag_247\n      tag_76\n      jump\t// in\n    tag_247:\n        /* \"#utility.yul\":12971:13027   */\n    tag_246:\n        /* \"#utility.yul\":13051:13089   */\n      tag_248\n        /* \"#utility.yul\":13083:13087   */\n      dup3\n        /* \"#utility.yul\":13077:13088   */\n      sload\n        /* \"#utility.yul\":13051:13089   */\n      tag_21\n      jump\t// in\n    tag_248:\n        /* \"#utility.yul\":13136:13203   */\n      tag_249\n        /* \"#utility.yul\":13196:13202   */\n      dup3\n        /* \"#utility.yul\":13188:13194   */\n      dup3\n        /* \"#utility.yul\":13182:13186   */\n      dup6\n        /* \"#utility.yul\":13136:13203   */\n      tag_101\n      jump\t// in\n    tag_249:\n        /* \"#utility.yul\":13230:13231   */\n      0x00\n        /* \"#utility.yul\":13254:13258   */\n      0x20\n        /* \"#utility.yul\":13241:13258   */\n      swap1\n      pop\n        /* \"#utility.yul\":13286:13288   */\n      0x1f\n        /* \"#utility.yul\":13278:13284   */\n      dup4\n        /* \"#utility.yul\":13275:13289   */\n      gt\n        /* \"#utility.yul\":13303:13304   */\n      0x01\n        /* \"#utility.yul\":13298:13916   */\n      dup2\n      eq\n      tag_251\n      jumpi\n        /* \"#utility.yul\":13960:13961   */\n      0x00\n        /* \"#utility.yul\":13977:13983   */\n      dup5\n        /* \"#utility.yul\":13974:14051   */\n      iszero\n      tag_252\n      jumpi\n        /* \"#utility.yul\":14026:14035   */\n      dup3\n        /* \"#utility.yul\":14021:14024   */\n      dup8\n        /* \"#utility.yul\":14017:14036   */\n      add\n        /* \"#utility.yul\":14011:14037   */\n      mload\n        /* \"#utility.yul\":14002:14037   */\n      swap1\n      pop\n        /* \"#utility.yul\":13974:14051   */\n    tag_252:\n        /* \"#utility.yul\":14077:14144   */\n      tag_253\n        /* \"#utility.yul\":14137:14143   */\n      dup6\n        /* \"#utility.yul\":14130:14135   */\n      dup3\n        /* \"#utility.yul\":14077:14144   */\n      tag_104\n      jump\t// in\n    tag_253:\n        /* \"#utility.yul\":14071:14075   */\n      dup7\n        /* \"#utility.yul\":14064:14145   */\n      sstore\n        /* \"#utility.yul\":13933:14155   */\n      pop\n        /* \"#utility.yul\":13268:14155   */\n      jump(tag_250)\n        /* \"#utility.yul\":13298:13916   */\n    tag_251:\n        /* \"#utility.yul\":13350:13354   */\n      0x1f\n        /* \"#utility.yul\":13346:13355   */\n      not\n        /* \"#utility.yul\":13338:13344   */\n      dup5\n        /* \"#utility.yul\":13334:13356   */\n      and\n        /* \"#utility.yul\":13384:13421   */\n      tag_254\n        /* \"#utility.yul\":13416:13420   */\n      dup7\n        /* \"#utility.yul\":13384:13421   */\n      tag_90\n      jump\t// in\n    tag_254:\n        /* \"#utility.yul\":13443:13444   */\n      0x00\n        /* \"#utility.yul\":13457:13665   */\n    tag_255:\n        /* \"#utility.yul\":13471:13478   */\n      dup3\n        /* \"#utility.yul\":13468:13469   */\n      dup2\n        /* \"#utility.yul\":13465:13479   */\n      lt\n        /* \"#utility.yul\":13457:13665   */\n      iszero\n      tag_257\n      jumpi\n        /* \"#utility.yul\":13550:13559   */\n      dup5\n        /* \"#utility.yul\":13545:13548   */\n      dup10\n        /* \"#utility.yul\":13541:13560   */\n      add\n        /* \"#utility.yul\":13535:13561   */\n      mload\n        /* \"#utility.yul\":13527:13533   */\n      dup3\n        /* \"#utility.yul\":13520:13562   */\n      sstore\n        /* \"#utility.yul\":13601:13602   */\n      0x01\n        /* \"#utility.yul\":13593:13599   */\n      dup3\n        /* \"#utility.yul\":13589:13603   */\n      add\n        /* \"#utility.yul\":13579:13603   */\n      swap2\n      pop\n        /* \"#utility.yul\":13648:13650   */\n      0x20\n        /* \"#utility.yul\":13637:13646   */\n      dup6\n        /* \"#utility.yul\":13633:13651   */\n      add\n        /* \"#utility.yul\":13620:13651   */\n      swap5\n      pop\n        /* \"#utility.yul\":13494:13498   */\n      0x20\n        /* \"#utility.yul\":13491:13492   */\n      dup2\n        /* \"#utility.yul\":13487:13499   */\n      add\n        /* \"#utility.yul\":13482:13499   */\n      swap1\n      pop\n        /* \"#utility.yul\":13457:13665   */\n      jump(tag_255)\n    tag_257:\n        /* \"#utility.yul\":13693:13699   */\n      dup7\n        /* \"#utility.yul\":13684:13691   */\n      dup4\n        /* \"#utility.yul\":13681:13700   */\n      lt\n        /* \"#utility.yul\":13678:13857   */\n      iszero\n      tag_258\n      jumpi\n        /* \"#utility.yul\":13751:13760   */\n      dup5\n        /* \"#utility.yul\":13746:13749   */\n      dup10\n        /* \"#utility.yul\":13742:13761   */\n      add\n        /* \"#utility.yul\":13736:13762   */\n      mload\n        /* \"#utility.yul\":13794:13842   */\n      tag_259\n        /* \"#utility.yul\":13836:13840   */\n      0x1f\n        /* \"#utility.yul\":13828:13834   */\n      dup10\n        /* \"#utility.yul\":13824:13841   */\n      and\n        /* \"#utility.yul\":13813:13822   */\n      dup3\n        /* \"#utility.yul\":13794:13842   */\n      tag_103\n      jump\t// in\n    tag_259:\n        /* \"#utility.yul\":13786:13792   */\n      dup4\n        /* \"#utility.yul\":13779:13843   */\n      sstore\n        /* \"#utility.yul\":13701:13857   */\n      pop\n        /* \"#utility.yul\":13678:13857   */\n    tag_258:\n        /* \"#utility.yul\":13903:13904   */\n      0x01\n        /* \"#utility.yul\":13899:13900   */\n      0x02\n        /* \"#utility.yul\":13891:13897   */\n      dup9\n        /* \"#utility.yul\":13887:13901   */\n      mul\n        /* \"#utility.yul\":13883:13905   */\n      add\n        /* \"#utility.yul\":13877:13881   */\n      dup9\n        /* \"#utility.yul\":13870:13906   */\n      sstore\n        /* \"#utility.yul\":13305:13916   */\n      pop\n      pop\n      pop\n        /* \"#utility.yul\":13268:14155   */\n    tag_250:\n      pop\n        /* \"#utility.yul\":12858:14161   */\n      pop\n      pop\n      pop\n        /* \"#utility.yul\":12766:14161   */\n      pop\n      pop\n      jump\t// out\n\n    auxdata: 0xa2646970667358221220bb321c2729585c0a950d9dfc01eabdd105ce33859ec74ea9009b2aad7c52583264736f6c63430008210033\n}\n",
				"bytecode": {
					"linkReferences": {},
					"object": "6080604052348015600e575f5ffd5b50610d2d8061001c5f395ff3fe608060405234801561000f575f5ffd5b506004361061003f575f3560e01c80630f53a4701461004357806349f5a836146100785780635658bee114610094575b5f5ffd5b61005d600480360381019061005891906105ff565b6100b0565b60405161006f96959493929190610734565b60405180910390f35b610092600480360381019061008d91906105ff565b610270565b005b6100ae60048036038101906100a991906108f0565b61038c565b005b60605f5f5f5f5f5f5f5f8973ffffffffffffffffffffffffffffffffffffffff1673ffffffffffffffffffffffffffffffffffffffff1681526020019081526020015f206040518060c00160405290815f8201805461010e90610977565b80601f016020809104026020016040519081016040528092919081815260200182805461013a90610977565b80156101855780601f1061015c57610100808354040283529160200191610185565b820191905f5260205f20905b81548152906001019060200180831161016857829003601f168201915b5050505050815260200160018201548152602001600282015f9054906101000a900473ffffffffffffffffffffffffffffffffffffffff1673ffffffffffffffffffffffffffffffffffffffff1673ffffffffffffffffffffffffffffffffffffffff16815260200160038201548152602001600482015f9054906101000a900460ff16600281111561021b5761021a6106c1565b5b600281111561022d5761022c6106c1565b5b81526020016005820154815250509050805f015181602001518260400151836060015184608001518560a001519650965096509650965096505091939550919395565b60016002811115610284576102836106c1565b5b5f5f3373ffffffffffffffffffffffffffffffffffffffff1673ffffffffffffffffffffffffffffffffffffffff1681526020019081526020015f206004015f9054906101000a900460ff1660028111156102e2576102e16106c1565b5b14610322576040517f08c379a0000000000000000000000000000000000000000000000000000000008152600401610319906109f1565b60405180910390fd5b60025f5f8373ffffffffffffffffffffffffffffffffffffffff1673ffffffffffffffffffffffffffffffffffffffff1681526020019081526020015f206004015f6101000a81548160ff02191690836002811115610384576103836106c1565b5b021790555050565b5f600281111561039f5761039e6106c1565b5b5f5f3373ffffffffffffffffffffffffffffffffffffffff1673ffffffffffffffffffffffffffffffffffffffff1681526020019081526020015f206004015f9054906101000a900460ff1660028111156103fd576103fc6106c1565b5b1461043d576040517f08c379a000000000000000000000000000000000000000000000000000000000815260040161043490610a59565b60405180910390fd5b6040518060c001604052808381526020018281526020013373ffffffffffffffffffffffffffffffffffffffff1681526020014281526020016001600281111561048a576104896106c1565b5b81526020013373ffffffffffffffffffffffffffffffffffffffff16318152505f5f3373ffffffffffffffffffffffffffffffffffffffff1673ffffffffffffffffffffffffffffffffffffffff1681526020019081526020015f205f820151815f0190816104f99190610c28565b50602082015181600101556040820151816002015f6101000a81548173ffffffffffffffffffffffffffffffffffffffff021916908373ffffffffffffffffffffffffffffffffffffffff160217905550606082015181600301556080820151816004015f6101000a81548160ff0219169083600281111561057e5761057d6106c1565b5b021790555060a082015181600501559050505050565b5f604051905090565b5f5ffd5b5f5ffd5b5f73ffffffffffffffffffffffffffffffffffffffff82169050919050565b5f6105ce826105a5565b9050919050565b6105de816105c4565b81146105e8575f5ffd5b50565b5f813590506105f9816105d5565b92915050565b5f602082840312156106145761061361059d565b5b5f610621848285016105eb565b91505092915050565b5f81519050919050565b5f82825260208201905092915050565b8281835e5f83830152505050565b5f601f19601f8301169050919050565b5f61066c8261062a565b6106768185610634565b9350610686818560208601610644565b61068f81610652565b840191505092915050565b5f819050919050565b6106ac8161069a565b82525050565b6106bb816105c4565b82525050565b7f4e487b71000000000000000000000000000000000000000000000000000000005f52602160045260245ffd5b600381106106ff576106fe6106c1565b5b50565b5f81905061070f826106ee565b919050565b5f61071e82610702565b9050919050565b61072e81610714565b82525050565b5f60c0820190508181035f83015261074c8189610662565b905061075b60208301886106a3565b61076860408301876106b2565b61077560608301866106a3565b6107826080830185610725565b61078f60a08301846106a3565b979650505050505050565b5f5ffd5b5f5ffd5b7f4e487b71000000000000000000000000000000000000000000000000000000005f52604160045260245ffd5b6107d882610652565b810181811067ffffffffffffffff821117156107f7576107f66107a2565b5b80604052505050565b5f610809610594565b905061081582826107cf565b919050565b5f67ffffffffffffffff821115610834576108336107a2565b5b61083d82610652565b9050602081019050919050565b828183375f83830152505050565b5f61086a6108658461081a565b610800565b9050828152602081018484840111156108865761088561079e565b5b61089184828561084a565b509392505050565b5f82601f8301126108ad576108ac61079a565b5b81356108bd848260208601610858565b91505092915050565b6108cf8161069a565b81146108d9575f5ffd5b50565b5f813590506108ea816108c6565b92915050565b5f5f604083850312156109065761090561059d565b5b5f83013567ffffffffffffffff811115610923576109226105a1565b5b61092f85828601610899565b9250506020610940858286016108dc565b9150509250929050565b7f4e487b71000000000000000000000000000000000000000000000000000000005f52602260045260245ffd5b5f600282049050600182168061098e57607f821691505b6020821081036109a1576109a061094a565b5b50919050565b7f4163636f756e7420697320696e616374697665000000000000000000000000005f82015250565b5f6109db601383610634565b91506109e6826109a7565b602082019050919050565b5f6020820190508181035f830152610a08816109cf565b9050919050565b7f4163636f756e7420616c726561647920657869737421000000000000000000005f82015250565b5f610a43601683610634565b9150610a4e82610a0f565b602082019050919050565b5f6020820190508181035f830152610a7081610a37565b9050919050565b5f819050815f5260205f209050919050565b5f6020601f8301049050919050565b5f82821b905092915050565b5f60088302610ad37fffffffffffffffffffffffffffffffffffffffffffffffffffffffffffffffff82610a98565b610add8683610a98565b95508019841693508086168417925050509392505050565b5f819050919050565b5f610b18610b13610b0e8461069a565b610af5565b61069a565b9050919050565b5f819050919050565b610b3183610afe565b610b45610b3d82610b1f565b848454610aa4565b825550505050565b5f5f905090565b610b5c610b4d565b610b67818484610b28565b505050565b5f5b82811015610b8d57610b825f828401610b54565b600181019050610b6e565b505050565b601f821115610be05782821115610bdf57610bac81610a77565b610bb583610a89565b610bbe85610a89565b6020861015610bcb575f90505b808301610bda82840382610b6c565b505050505b5b505050565b5f82821c905092915050565b5f610c005f1984600802610be5565b1980831691505092915050565b5f610c188383610bf1565b9150826002028217905092915050565b610c318261062a565b67ffffffffffffffff811115610c4a57610c496107a2565b5b610c548254610977565b610c5f828285610b92565b5f60209050601f831160018114610c90575f8415610c7e578287015190505b610c888582610c0d565b865550610cef565b601f198416610c9e86610a77565b5f5b82811015610cc557848901518255600182019150602085019450602081019050610ca0565b86831015610ce25784890151610cde601f891682610bf1565b8355505b6001600288020188555050505b50505050505056fea2646970667358221220bb321c2729585c0a950d9dfc01eabdd105ce33859ec74ea9009b2aad7c52583264736f6c63430008210033",
					"opcodes": "PUSH1 0x80 PUSH1 0x40 MSTORE CALLVALUE DUP1 ISZERO PUSH1 0xE JUMPI PUSH0 PUSH0 REVERT JUMPDEST POP PUSH2 0xD2D DUP1 PUSH2 0x1C PUSH0 CODECOPY PUSH0 RETURN INVALID PUSH1 0x80 PUSH1 0x40 MSTORE CALLVALUE DUP1 ISZERO PUSH2 0xF JUMPI PUSH0 PUSH0 REVERT JUMPDEST POP PUSH1 0x4 CALLDATASIZE LT PUSH2 0x3F JUMPI PUSH0 CALLDATALOAD PUSH1 0xE0 SHR DUP1 PUSH4 0xF53A470 EQ PUSH2 0x43 JUMPI DUP1 PUSH4 0x49F5A836 EQ PUSH2 0x78 JUMPI DUP1 PUSH4 0x5658BEE1 EQ PUSH2 0x94 JUMPI JUMPDEST PUSH0 PUSH0 REVERT JUMPDEST PUSH2 0x5D PUSH1 0x4 DUP1 CALLDATASIZE SUB DUP2 ADD SWAP1 PUSH2 0x58 SWAP2 SWAP1 PUSH2 0x5FF JUMP JUMPDEST PUSH2 0xB0 JUMP JUMPDEST PUSH1 0x40 MLOAD PUSH2 0x6F SWAP7 SWAP6 SWAP5 SWAP4 SWAP3 SWAP2 SWAP1 PUSH2 0x734 JUMP JUMPDEST PUSH1 0x40 MLOAD DUP1 SWAP2 SUB SWAP1 RETURN JUMPDEST PUSH2 0x92 PUSH1 0x4 DUP1 CALLDATASIZE SUB DUP2 ADD SWAP1 PUSH2 0x8D SWAP2 SWAP1 PUSH2 0x5FF JUMP JUMPDEST PUSH2 0x270 JUMP JUMPDEST STOP JUMPDEST PUSH2 0xAE PUSH1 0x4 DUP1 CALLDATASIZE SUB DUP2 ADD SWAP1 PUSH2 0xA9 SWAP2 SWAP1 PUSH2 0x8F0 JUMP JUMPDEST PUSH2 0x38C JUMP JUMPDEST STOP JUMPDEST PUSH1 0x60 PUSH0 PUSH0 PUSH0 PUSH0 PUSH0 PUSH0 PUSH0 PUSH0 DUP10 PUSH20 0xFFFFFFFFFFFFFFFFFFFFFFFFFFFFFFFFFFFFFFFF AND PUSH20 0xFFFFFFFFFFFFFFFFFFFFFFFFFFFFFFFFFFFFFFFF AND DUP2 MSTORE PUSH1 0x20 ADD SWAP1 DUP2 MSTORE PUSH1 0x20 ADD PUSH0 KECCAK256 PUSH1 0x40 MLOAD DUP1 PUSH1 0xC0 ADD PUSH1 0x40 MSTORE SWAP1 DUP2 PUSH0 DUP3 ADD DUP1 SLOAD PUSH2 0x10E SWAP1 PUSH2 0x977 JUMP JUMPDEST DUP1 PUSH1 0x1F ADD PUSH1 0x20 DUP1 SWAP2 DIV MUL PUSH1 0x20 ADD PUSH1 0x40 MLOAD SWAP1 DUP2 ADD PUSH1 0x40 MSTORE DUP1 SWAP3 SWAP2 SWAP1 DUP2 DUP2 MSTORE PUSH1 0x20 ADD DUP3 DUP1 SLOAD PUSH2 0x13A SWAP1 PUSH2 0x977 JUMP JUMPDEST DUP1 ISZERO PUSH2 0x185 JUMPI DUP1 PUSH1 0x1F LT PUSH2 0x15C JUMPI PUSH2 0x100 DUP1 DUP4 SLOAD DIV MUL DUP4 MSTORE SWAP2 PUSH1 0x20 ADD SWAP2 PUSH2 0x185 JUMP JUMPDEST DUP3 ADD SWAP2 SWAP1 PUSH0 MSTORE PUSH1 0x20 PUSH0 KECCAK256 SWAP1 JUMPDEST DUP2 SLOAD DUP2 MSTORE SWAP1 PUSH1 0x1 ADD SWAP1 PUSH1 0x20 ADD DUP1 DUP4 GT PUSH2 0x168 JUMPI DUP3 SWAP1 SUB PUSH1 0x1F AND DUP3 ADD SWAP2 JUMPDEST POP POP POP POP POP DUP2 MSTORE PUSH1 0x20 ADD PUSH1 0x1 DUP3 ADD SLOAD DUP2 MSTORE PUSH1 0x20 ADD PUSH1 0x2 DUP3 ADD PUSH0 SWAP1 SLOAD SWAP1 PUSH2 0x100 EXP SWAP1 DIV PUSH20 0xFFFFFFFFFFFFFFFFFFFFFFFFFFFFFFFFFFFFFFFF AND PUSH20 0xFFFFFFFFFFFFFFFFFFFFFFFFFFFFFFFFFFFFFFFF AND PUSH20 0xFFFFFFFFFFFFFFFFFFFFFFFFFFFFFFFFFFFFFFFF AND DUP2 MSTORE PUSH1 0x20 ADD PUSH1 0x3 DUP3 ADD SLOAD DUP2 MSTORE PUSH1 0x20 ADD PUSH1 0x4 DUP3 ADD PUSH0 SWAP1 SLOAD SWAP1 PUSH2 0x100 EXP SWAP1 DIV PUSH1 0xFF AND PUSH1 0x2 DUP2 GT ISZERO PUSH2 0x21B JUMPI PUSH2 0x21A PUSH2 0x6C1 JUMP JUMPDEST JUMPDEST PUSH1 0x2 DUP2 GT ISZERO PUSH2 0x22D JUMPI PUSH2 0x22C PUSH2 0x6C1 JUMP JUMPDEST JUMPDEST DUP2 MSTORE PUSH1 0x20 ADD PUSH1 0x5 DUP3 ADD SLOAD DUP2 MSTORE POP POP SWAP1 POP DUP1 PUSH0 ADD MLOAD DUP2 PUSH1 0x20 ADD MLOAD DUP3 PUSH1 0x40 ADD MLOAD DUP4 PUSH1 0x60 ADD MLOAD DUP5 PUSH1 0x80 ADD MLOAD DUP6 PUSH1 0xA0 ADD MLOAD SWAP7 POP SWAP7 POP SWAP7 POP SWAP7 POP SWAP7 POP SWAP7 POP POP SWAP2 SWAP4 SWAP6 POP SWAP2 SWAP4 SWAP6 JUMP JUMPDEST PUSH1 0x1 PUSH1 0x2 DUP2 GT ISZERO PUSH2 0x284 JUMPI PUSH2 0x283 PUSH2 0x6C1 JUMP JUMPDEST JUMPDEST PUSH0 PUSH0 CALLER PUSH20 0xFFFFFFFFFFFFFFFFFFFFFFFFFFFFFFFFFFFFFFFF AND PUSH20 0xFFFFFFFFFFFFFFFFFFFFFFFFFFFFFFFFFFFFFFFF AND DUP2 MSTORE PUSH1 0x20 ADD SWAP1 DUP2 MSTORE PUSH1 0x20 ADD PUSH0 KECCAK256 PUSH1 0x4 ADD PUSH0 SWAP1 SLOAD SWAP1 PUSH2 0x100 EXP SWAP1 DIV PUSH1 0xFF AND PUSH1 0x2 DUP2 GT ISZERO PUSH2 0x2E2 JUMPI PUSH2 0x2E1 PUSH2 0x6C1 JUMP JUMPDEST JUMPDEST EQ PUSH2 0x322 JUMPI PUSH1 0x40 MLOAD PUSH32 0x8C379A000000000000000000000000000000000000000000000000000000000 DUP2 MSTORE PUSH1 0x4 ADD PUSH2 0x319 SWAP1 PUSH2 0x9F1 JUMP JUMPDEST PUSH1 0x40 MLOAD DUP1 SWAP2 SUB SWAP1 REVERT JUMPDEST PUSH1 0x2 PUSH0 PUSH0 DUP4 PUSH20 0xFFFFFFFFFFFFFFFFFFFFFFFFFFFFFFFFFFFFFFFF AND PUSH20 0xFFFFFFFFFFFFFFFFFFFFFFFFFFFFFFFFFFFFFFFF AND DUP2 MSTORE PUSH1 0x20 ADD SWAP1 DUP2 MSTORE PUSH1 0x20 ADD PUSH0 KECCAK256 PUSH1 0x4 ADD PUSH0 PUSH2 0x100 EXP DUP2 SLOAD DUP2 PUSH1 0xFF MUL NOT AND SWAP1 DUP4 PUSH1 0x2 DUP2 GT ISZERO PUSH2 0x384 JUMPI PUSH2 0x383 PUSH2 0x6C1 JUMP JUMPDEST JUMPDEST MUL OR SWAP1 SSTORE POP POP JUMP JUMPDEST PUSH0 PUSH1 0x2 DUP2 GT ISZERO PUSH2 0x39F JUMPI PUSH2 0x39E PUSH2 0x6C1 JUMP JUMPDEST JUMPDEST PUSH0 PUSH0 CALLER PUSH20 0xFFFFFFFFFFFFFFFFFFFFFFFFFFFFFFFFFFFFFFFF AND PUSH20 0xFFFFFFFFFFFFFFFFFFFFFFFFFFFFFFFFFFFFFFFF AND DUP2 MSTORE PUSH1 0x20 ADD SWAP1 DUP2 MSTORE PUSH1 0x20 ADD PUSH0 KECCAK256 PUSH1 0x4 ADD PUSH0 SWAP1 SLOAD SWAP1 PUSH2 0x100 EXP SWAP1 DIV PUSH1 0xFF AND PUSH1 0x2 DUP2 GT ISZERO PUSH2 0x3FD JUMPI PUSH2 0x3FC PUSH2 0x6C1 JUMP JUMPDEST JUMPDEST EQ PUSH2 0x43D JUMPI PUSH1 0x40 MLOAD PUSH32 0x8C379A000000000000000000000000000000000000000000000000000000000 DUP2 MSTORE PUSH1 0x4 ADD PUSH2 0x434 SWAP1 PUSH2 0xA59 JUMP JUMPDEST PUSH1 0x40 MLOAD DUP1 SWAP2 SUB SWAP1 REVERT JUMPDEST PUSH1 0x40 MLOAD DUP1 PUSH1 0xC0 ADD PUSH1 0x40 MSTORE DUP1 DUP4 DUP2 MSTORE PUSH1 0x20 ADD DUP3 DUP2 MSTORE PUSH1 0x20 ADD CALLER PUSH20 0xFFFFFFFFFFFFFFFFFFFFFFFFFFFFFFFFFFFFFFFF AND DUP2 MSTORE PUSH1 0x20 ADD TIMESTAMP DUP2 MSTORE PUSH1 0x20 ADD PUSH1 0x1 PUSH1 0x2 DUP2 GT ISZERO PUSH2 0x48A JUMPI PUSH2 0x489 PUSH2 0x6C1 JUMP JUMPDEST JUMPDEST DUP2 MSTORE PUSH1 0x20 ADD CALLER PUSH20 0xFFFFFFFFFFFFFFFFFFFFFFFFFFFFFFFFFFFFFFFF AND BALANCE DUP2 MSTORE POP PUSH0 PUSH0 CALLER PUSH20 0xFFFFFFFFFFFFFFFFFFFFFFFFFFFFFFFFFFFFFFFF AND PUSH20 0xFFFFFFFFFFFFFFFFFFFFFFFFFFFFFFFFFFFFFFFF AND DUP2 MSTORE PUSH1 0x20 ADD SWAP1 DUP2 MSTORE PUSH1 0x20 ADD PUSH0 KECCAK256 PUSH0 DUP3 ADD MLOAD DUP2 PUSH0 ADD SWAP1 DUP2 PUSH2 0x4F9 SWAP2 SWAP1 PUSH2 0xC28 JUMP JUMPDEST POP PUSH1 0x20 DUP3 ADD MLOAD DUP2 PUSH1 0x1 ADD SSTORE PUSH1 0x40 DUP3 ADD MLOAD DUP2 PUSH1 0x2 ADD PUSH0 PUSH2 0x100 EXP DUP2 SLOAD DUP2 PUSH20 0xFFFFFFFFFFFFFFFFFFFFFFFFFFFFFFFFFFFFFFFF MUL NOT AND SWAP1 DUP4 PUSH20 0xFFFFFFFFFFFFFFFFFFFFFFFFFFFFFFFFFFFFFFFF AND MUL OR SWAP1 SSTORE POP PUSH1 0x60 DUP3 ADD MLOAD DUP2 PUSH1 0x3 ADD SSTORE PUSH1 0x80 DUP3 ADD MLOAD DUP2 PUSH1 0x4 ADD PUSH0 PUSH2 0x100 EXP DUP2 SLOAD DUP2 PUSH1 0xFF MUL NOT AND SWAP1 DUP4 PUSH1 0x2 DUP2 GT ISZERO PUSH2 0x57E JUMPI PUSH2 0x57D PUSH2 0x6C1 JUMP JUMPDEST JUMPDEST MUL OR SWAP1 SSTORE POP PUSH1 0xA0 DUP3 ADD MLOAD DUP2 PUSH1 0x5 ADD SSTORE SWAP1 POP POP POP POP JUMP JUMPDEST PUSH0 PUSH1 0x40 MLOAD SWAP1 POP SWAP1 JUMP JUMPDEST PUSH0 PUSH0 REVERT JUMPDEST PUSH0 PUSH0 REVERT JUMPDEST PUSH0 PUSH20 0xFFFFFFFFFFFFFFFFFFFFFFFFFFFFFFFFFFFFFFFF DUP3 AND SWAP1 POP SWAP2 SWAP1 POP JUMP JUMPDEST PUSH0 PUSH2 0x5CE DUP3 PUSH2 0x5A5 JUMP JUMPDEST SWAP1 POP SWAP2 SWAP1 POP JUMP JUMPDEST PUSH2 0x5DE DUP2 PUSH2 0x5C4 JUMP JUMPDEST DUP2 EQ PUSH2 0x5E8 JUMPI PUSH0 PUSH0 REVERT JUMPDEST POP JUMP JUMPDEST PUSH0 DUP2 CALLDATALOAD SWAP1 POP PUSH2 0x5F9 DUP2 PUSH2 0x5D5 JUMP JUMPDEST SWAP3 SWAP2 POP POP JUMP JUMPDEST PUSH0 PUSH1 0x20 DUP3 DUP5 SUB SLT ISZERO PUSH2 0x614 JUMPI PUSH2 0x613 PUSH2 0x59D JUMP JUMPDEST JUMPDEST PUSH0 PUSH2 0x621 DUP5 DUP3 DUP6 ADD PUSH2 0x5EB JUMP JUMPDEST SWAP2 POP POP SWAP3 SWAP2 POP POP JUMP JUMPDEST PUSH0 DUP2 MLOAD SWAP1 POP SWAP2 SWAP1 POP JUMP JUMPDEST PUSH0 DUP3 DUP3 MSTORE PUSH1 0x20 DUP3 ADD SWAP1 POP SWAP3 SWAP2 POP POP JUMP JUMPDEST DUP3 DUP2 DUP4 MCOPY PUSH0 DUP4 DUP4 ADD MSTORE POP POP POP JUMP JUMPDEST PUSH0 PUSH1 0x1F NOT PUSH1 0x1F DUP4 ADD AND SWAP1 POP SWAP2 SWAP1 POP JUMP JUMPDEST PUSH0 PUSH2 0x66C DUP3 PUSH2 0x62A JUMP JUMPDEST PUSH2 0x676 DUP2 DUP6 PUSH2 0x634 JUMP JUMPDEST SWAP4 POP PUSH2 0x686 DUP2 DUP6 PUSH1 0x20 DUP7 ADD PUSH2 0x644 JUMP JUMPDEST PUSH2 0x68F DUP2 PUSH2 0x652 JUMP JUMPDEST DUP5 ADD SWAP2 POP POP SWAP3 SWAP2 POP POP JUMP JUMPDEST PUSH0 DUP2 SWAP1 POP SWAP2 SWAP1 POP JUMP JUMPDEST PUSH2 0x6AC DUP2 PUSH2 0x69A JUMP JUMPDEST DUP3 MSTORE POP POP JUMP JUMPDEST PUSH2 0x6BB DUP2 PUSH2 0x5C4 JUMP JUMPDEST DUP3 MSTORE POP POP JUMP JUMPDEST PUSH32 0x4E487B7100000000000000000000000000000000000000000000000000000000 PUSH0 MSTORE PUSH1 0x21 PUSH1 0x4 MSTORE PUSH1 0x24 PUSH0 REVERT JUMPDEST PUSH1 0x3 DUP2 LT PUSH2 0x6FF JUMPI PUSH2 0x6FE PUSH2 0x6C1 JUMP JUMPDEST JUMPDEST POP JUMP JUMPDEST PUSH0 DUP2 SWAP1 POP PUSH2 0x70F DUP3 PUSH2 0x6EE JUMP JUMPDEST SWAP2 SWAP1 POP JUMP JUMPDEST PUSH0 PUSH2 0x71E DUP3 PUSH2 0x702 JUMP JUMPDEST SWAP1 POP SWAP2 SWAP1 POP JUMP JUMPDEST PUSH2 0x72E DUP2 PUSH2 0x714 JUMP JUMPDEST DUP3 MSTORE POP POP JUMP JUMPDEST PUSH0 PUSH1 0xC0 DUP3 ADD SWAP1 POP DUP2 DUP2 SUB PUSH0 DUP4 ADD MSTORE PUSH2 0x74C DUP2 DUP10 PUSH2 0x662 JUMP JUMPDEST SWAP1 POP PUSH2 0x75B PUSH1 0x20 DUP4 ADD DUP9 PUSH2 0x6A3 JUMP JUMPDEST PUSH2 0x768 PUSH1 0x40 DUP4 ADD DUP8 PUSH2 0x6B2 JUMP JUMPDEST PUSH2 0x775 PUSH1 0x60 DUP4 ADD DUP7 PUSH2 0x6A3 JUMP JUMPDEST PUSH2 0x782 PUSH1 0x80 DUP4 ADD DUP6 PUSH2 0x725 JUMP JUMPDEST PUSH2 0x78F PUSH1 0xA0 DUP4 ADD DUP5 PUSH2 0x6A3 JUMP JUMPDEST SWAP8 SWAP7 POP POP POP POP POP POP POP JUMP JUMPDEST PUSH0 PUSH0 REVERT JUMPDEST PUSH0 PUSH0 REVERT JUMPDEST PUSH32 0x4E487B7100000000000000000000000000000000000000000000000000000000 PUSH0 MSTORE PUSH1 0x41 PUSH1 0x4 MSTORE PUSH1 0x24 PUSH0 REVERT JUMPDEST PUSH2 0x7D8 DUP3 PUSH2 0x652 JUMP JUMPDEST DUP2 ADD DUP2 DUP2 LT PUSH8 0xFFFFFFFFFFFFFFFF DUP3 GT OR ISZERO PUSH2 0x7F7 JUMPI PUSH2 0x7F6 PUSH2 0x7A2 JUMP JUMPDEST JUMPDEST DUP1 PUSH1 0x40 MSTORE POP POP POP JUMP JUMPDEST PUSH0 PUSH2 0x809 PUSH2 0x594 JUMP JUMPDEST SWAP1 POP PUSH2 0x815 DUP3 DUP3 PUSH2 0x7CF JUMP JUMPDEST SWAP2 SWAP1 POP JUMP JUMPDEST PUSH0 PUSH8 0xFFFFFFFFFFFFFFFF DUP3 GT ISZERO PUSH2 0x834 JUMPI PUSH2 0x833 PUSH2 0x7A2 JUMP JUMPDEST JUMPDEST PUSH2 0x83D DUP3 PUSH2 0x652 JUMP JUMPDEST SWAP1 POP PUSH1 0x20 DUP2 ADD SWAP1 POP SWAP2 SWAP1 POP JUMP JUMPDEST DUP3 DUP2 DUP4 CALLDATACOPY PUSH0 DUP4 DUP4 ADD MSTORE POP POP POP JUMP JUMPDEST PUSH0 PUSH2 0x86A PUSH2 0x865 DUP5 PUSH2 0x81A JUMP JUMPDEST PUSH2 0x800 JUMP JUMPDEST SWAP1 POP DUP3 DUP2 MSTORE PUSH1 0x20 DUP2 ADD DUP5 DUP5 DUP5 ADD GT ISZERO PUSH2 0x886 JUMPI PUSH2 0x885 PUSH2 0x79E JUMP JUMPDEST JUMPDEST PUSH2 0x891 DUP5 DUP3 DUP6 PUSH2 0x84A JUMP JUMPDEST POP SWAP4 SWAP3 POP POP POP JUMP JUMPDEST PUSH0 DUP3 PUSH1 0x1F DUP4 ADD SLT PUSH2 0x8AD JUMPI PUSH2 0x8AC PUSH2 0x79A JUMP JUMPDEST JUMPDEST DUP2 CALLDATALOAD PUSH2 0x8BD DUP5 DUP3 PUSH1 0x20 DUP7 ADD PUSH2 0x858 JUMP JUMPDEST SWAP2 POP POP SWAP3 SWAP2 POP POP JUMP JUMPDEST PUSH2 0x8CF DUP2 PUSH2 0x69A JUMP JUMPDEST DUP2 EQ PUSH2 0x8D9 JUMPI PUSH0 PUSH0 REVERT JUMPDEST POP JUMP JUMPDEST PUSH0 DUP2 CALLDATALOAD SWAP1 POP PUSH2 0x8EA DUP2 PUSH2 0x8C6 JUMP JUMPDEST SWAP3 SWAP2 POP POP JUMP JUMPDEST PUSH0 PUSH0 PUSH1 0x40 DUP4 DUP6 SUB SLT ISZERO PUSH2 0x906 JUMPI PUSH2 0x905 PUSH2 0x59D JUMP JUMPDEST JUMPDEST PUSH0 DUP4 ADD CALLDATALOAD PUSH8 0xFFFFFFFFFFFFFFFF DUP2 GT ISZERO PUSH2 0x923 JUMPI PUSH2 0x922 PUSH2 0x5A1 JUMP JUMPDEST JUMPDEST PUSH2 0x92F DUP6 DUP3 DUP7 ADD PUSH2 0x899 JUMP JUMPDEST SWAP3 POP POP PUSH1 0x20 PUSH2 0x940 DUP6 DUP3 DUP7 ADD PUSH2 0x8DC JUMP JUMPDEST SWAP2 POP POP SWAP3 POP SWAP3 SWAP1 POP JUMP JUMPDEST PUSH32 0x4E487B7100000000000000000000000000000000000000000000000000000000 PUSH0 MSTORE PUSH1 0x22 PUSH1 0x4 MSTORE PUSH1 0x24 PUSH0 REVERT JUMPDEST PUSH0 PUSH1 0x2 DUP3 DIV SWAP1 POP PUSH1 0x1 DUP3 AND DUP1 PUSH2 0x98E JUMPI PUSH1 0x7F DUP3 AND SWAP2 POP JUMPDEST PUSH1 0x20 DUP3 LT DUP2 SUB PUSH2 0x9A1 JUMPI PUSH2 0x9A0 PUSH2 0x94A JUMP JUMPDEST JUMPDEST POP SWAP2 SWAP1 POP JUMP JUMPDEST PUSH32 0x4163636F756E7420697320696E61637469766500000000000000000000000000 PUSH0 DUP3 ADD MSTORE POP JUMP JUMPDEST PUSH0 PUSH2 0x9DB PUSH1 0x13 DUP4 PUSH2 0x634 JUMP JUMPDEST SWAP2 POP PUSH2 0x9E6 DUP3 PUSH2 0x9A7 JUMP JUMPDEST PUSH1 0x20 DUP3 ADD SWAP1 POP SWAP2 SWAP1 POP JUMP JUMPDEST PUSH0 PUSH1 0x20 DUP3 ADD SWAP1 POP DUP2 DUP2 SUB PUSH0 DUP4 ADD MSTORE PUSH2 0xA08 DUP2 PUSH2 0x9CF JUMP JUMPDEST SWAP1 POP SWAP2 SWAP1 POP JUMP JUMPDEST PUSH32 0x4163636F756E7420616C72656164792065786973742100000000000000000000 PUSH0 DUP3 ADD MSTORE POP JUMP JUMPDEST PUSH0 PUSH2 0xA43 PUSH1 0x16 DUP4 PUSH2 0x634 JUMP JUMPDEST SWAP2 POP PUSH2 0xA4E DUP3 PUSH2 0xA0F JUMP JUMPDEST PUSH1 0x20 DUP3 ADD SWAP1 POP SWAP2 SWAP1 POP JUMP JUMPDEST PUSH0 PUSH1 0x20 DUP3 ADD SWAP1 POP DUP2 DUP2 SUB PUSH0 DUP4 ADD MSTORE PUSH2 0xA70 DUP2 PUSH2 0xA37 JUMP JUMPDEST SWAP1 POP SWAP2 SWAP1 POP JUMP JUMPDEST PUSH0 DUP2 SWAP1 POP DUP2 PUSH0 MSTORE PUSH1 0x20 PUSH0 KECCAK256 SWAP1 POP SWAP2 SWAP1 POP JUMP JUMPDEST PUSH0 PUSH1 0x20 PUSH1 0x1F DUP4 ADD DIV SWAP1 POP SWAP2 SWAP1 POP JUMP JUMPDEST PUSH0 DUP3 DUP3 SHL SWAP1 POP SWAP3 SWAP2 POP POP JUMP JUMPDEST PUSH0 PUSH1 0x8 DUP4 MUL PUSH2 0xAD3 PUSH32 0xFFFFFFFFFFFFFFFFFFFFFFFFFFFFFFFFFFFFFFFFFFFFFFFFFFFFFFFFFFFFFFFF DUP3 PUSH2 0xA98 JUMP JUMPDEST PUSH2 0xADD DUP7 DUP4 PUSH2 0xA98 JUMP JUMPDEST SWAP6 POP DUP1 NOT DUP5 AND SWAP4 POP DUP1 DUP7 AND DUP5 OR SWAP3 POP POP POP SWAP4 SWAP3 POP POP POP JUMP JUMPDEST PUSH0 DUP2 SWAP1 POP SWAP2 SWAP1 POP JUMP JUMPDEST PUSH0 PUSH2 0xB18 PUSH2 0xB13 PUSH2 0xB0E DUP5 PUSH2 0x69A JUMP JUMPDEST PUSH2 0xAF5 JUMP JUMPDEST PUSH2 0x69A JUMP JUMPDEST SWAP1 POP SWAP2 SWAP1 POP JUMP JUMPDEST PUSH0 DUP2 SWAP1 POP SWAP2 SWAP1 POP JUMP JUMPDEST PUSH2 0xB31 DUP4 PUSH2 0xAFE JUMP JUMPDEST PUSH2 0xB45 PUSH2 0xB3D DUP3 PUSH2 0xB1F JUMP JUMPDEST DUP5 DUP5 SLOAD PUSH2 0xAA4 JUMP JUMPDEST DUP3 SSTORE POP POP POP POP JUMP JUMPDEST PUSH0 PUSH0 SWAP1 POP SWAP1 JUMP JUMPDEST PUSH2 0xB5C PUSH2 0xB4D JUMP JUMPDEST PUSH2 0xB67 DUP2 DUP5 DUP5 PUSH2 0xB28 JUMP JUMPDEST POP POP POP JUMP JUMPDEST PUSH0 JUMPDEST DUP3 DUP2 LT ISZERO PUSH2 0xB8D JUMPI PUSH2 0xB82 PUSH0 DUP3 DUP5 ADD PUSH2 0xB54 JUMP JUMPDEST PUSH1 0x1 DUP2 ADD SWAP1 POP PUSH2 0xB6E JUMP JUMPDEST POP POP POP JUMP JUMPDEST PUSH1 0x1F DUP3 GT ISZERO PUSH2 0xBE0 JUMPI DUP3 DUP3 GT ISZERO PUSH2 0xBDF JUMPI PUSH2 0xBAC DUP2 PUSH2 0xA77 JUMP JUMPDEST PUSH2 0xBB5 DUP4 PUSH2 0xA89 JUMP JUMPDEST PUSH2 0xBBE DUP6 PUSH2 0xA89 JUMP JUMPDEST PUSH1 0x20 DUP7 LT ISZERO PUSH2 0xBCB JUMPI PUSH0 SWAP1 POP JUMPDEST DUP1 DUP4 ADD PUSH2 0xBDA DUP3 DUP5 SUB DUP3 PUSH2 0xB6C JUMP JUMPDEST POP POP POP POP JUMPDEST JUMPDEST POP POP POP JUMP JUMPDEST PUSH0 DUP3 DUP3 SHR SWAP1 POP SWAP3 SWAP2 POP POP JUMP JUMPDEST PUSH0 PUSH2 0xC00 PUSH0 NOT DUP5 PUSH1 0x8 MUL PUSH2 0xBE5 JUMP JUMPDEST NOT DUP1 DUP4 AND SWAP2 POP POP SWAP3 SWAP2 POP POP JUMP JUMPDEST PUSH0 PUSH2 0xC18 DUP4 DUP4 PUSH2 0xBF1 JUMP JUMPDEST SWAP2 POP DUP3 PUSH1 0x2 MUL DUP3 OR SWAP1 POP SWAP3 SWAP2 POP POP JUMP JUMPDEST PUSH2 0xC31 DUP3 PUSH2 0x62A JUMP JUMPDEST PUSH8 0xFFFFFFFFFFFFFFFF DUP2 GT ISZERO PUSH2 0xC4A JUMPI PUSH2 0xC49 PUSH2 0x7A2 JUMP JUMPDEST JUMPDEST PUSH2 0xC54 DUP3 SLOAD PUSH2 0x977 JUMP JUMPDEST PUSH2 0xC5F DUP3 DUP3 DUP6 PUSH2 0xB92 JUMP JUMPDEST PUSH0 PUSH1 0x20 SWAP1 POP PUSH1 0x1F DUP4 GT PUSH1 0x1 DUP2 EQ PUSH2 0xC90 JUMPI PUSH0 DUP5 ISZERO PUSH2 0xC7E JUMPI DUP3 DUP8 ADD MLOAD SWAP1 POP JUMPDEST PUSH2 0xC88 DUP6 DUP3 PUSH2 0xC0D JUMP JUMPDEST DUP7 SSTORE POP PUSH2 0xCEF JUMP JUMPDEST PUSH1 0x1F NOT DUP5 AND PUSH2 0xC9E DUP7 PUSH2 0xA77 JUMP JUMPDEST PUSH0 JUMPDEST DUP3 DUP2 LT ISZERO PUSH2 0xCC5 JUMPI DUP5 DUP10 ADD MLOAD DUP3 SSTORE PUSH1 0x1 DUP3 ADD SWAP2 POP PUSH1 0x20 DUP6 ADD SWAP5 POP PUSH1 0x20 DUP2 ADD SWAP1 POP PUSH2 0xCA0 JUMP JUMPDEST DUP7 DUP4 LT ISZERO PUSH2 0xCE2 JUMPI DUP5 DUP10 ADD MLOAD PUSH2 0xCDE PUSH1 0x1F DUP10 AND DUP3 PUSH2 0xBF1 JUMP JUMPDEST DUP4 SSTORE POP JUMPDEST PUSH1 0x1 PUSH1 0x2 DUP9 MUL ADD DUP9 SSTORE POP POP POP JUMPDEST POP POP POP POP POP POP JUMP INVALID LOG2 PUSH5 0x6970667358 0x22 SLT KECCAK256 0xBB ORIGIN SHR 0x27 0x29 PC TLOAD EXP SWAP6 0xD SWAP14 0xFC ADD 0xEA 0xBD DATALOADN 0x5CE CALLER DUP6 SWAP15 0xC7 0x4E 0xA9 STOP SWAP12 0x2A 0xAD PUSH29 0x52583264736F6C63430008210033000000000000000000000000000000 "
				},
				"gasEstimates": {
					"creation": {
						"codeDepositCost": "674600",
						"executionCost": "706",
						"totalCost": "675306"
					},
					"external": {
						"createProfile(string,uint256)": "infinite",
						"getProfile(address)": "infinite",
						"suspendAcct(address)": "27130"
					}
				},
				"methodIdentifiers": {
					"createProfile(string,uint256)": "5658bee1",
					"getProfile(address)": "0f53a470",
					"suspendAcct(address)": "49f5a836"
				}
			},
			"storageLayout": {
				"storage": [
					{
						"astId": 25,
						"contract": "day1-5Together.sol:ProfileStorage",
						"label": "stored",
						"offset": 0,
						"slot": "0",
						"type": "t_mapping(t_address,t_struct(User)20_storage)"
					}
				],
				"types": {
					"t_address": {
						"encoding": "inplace",
						"label": "address",
						"numberOfBytes": "20"
					},
					"t_enum(AccountStatus)6": {
						"encoding": "inplace",
						"label": "enum ProfileStorage.AccountStatus",
						"numberOfBytes": "1"
					},
					"t_mapping(t_address,t_struct(User)20_storage)": {
						"encoding": "mapping",
						"key": "t_address",
						"label": "mapping(address => struct ProfileStorage.User)",
						"numberOfBytes": "32",
						"value": "t_struct(User)20_storage"
					},
					"t_string_storage": {
						"encoding": "bytes",
						"label": "string",
						"numberOfBytes": "32"
					},
					"t_struct(User)20_storage": {
						"encoding": "inplace",
						"label": "struct ProfileStorage.User",
						"members": [
							{
								"astId": 8,
								"contract": "day1-5Together.sol:ProfileStorage",
								"label": "username",
								"offset": 0,
								"slot": "0",
								"type": "t_string_storage"
							},
							{
								"astId": 10,
								"contract": "day1-5Together.sol:ProfileStorage",
								"label": "age",
								"offset": 0,
								"slot": "1",
								"type": "t_uint256"
							},
							{
								"astId": 12,
								"contract": "day1-5Together.sol:ProfileStorage",
								"label": "wallet",
								"offset": 0,
								"slot": "2",
								"type": "t_address"
							},
							{
								"astId": 14,
								"contract": "day1-5Together.sol:ProfileStorage",
								"label": "creationTime",
								"offset": 0,
								"slot": "3",
								"type": "t_uint256"
							},
							{
								"astId": 17,
								"contract": "day1-5Together.sol:ProfileStorage",
								"label": "status",
								"offset": 0,
								"slot": "4",
								"type": "t_enum(AccountStatus)6"
							},
							{
								"astId": 19,
								"contract": "day1-5Together.sol:ProfileStorage",
								"label": "balance",
								"offset": 0,
								"slot": "5",
								"type": "t_uint256"
							}
						],
						"numberOfBytes": "192"
					},
					"t_uint256": {
						"encoding": "inplace",
						"label": "uint256",
						"numberOfBytes": "32"
					}
				}
			},
			"userdoc": {
				"kind": "user",
				"methods": {},
				"notice": "Profile Onchain",
				"version": 1
			}
		}
	}
}