{
	"W3day5.sol": {
		"registration": {
			"abi": [
				{
					"inputs": [],
					"stateMutability": "nonpayable",
					"type": "constructor"
				},
				{
					"inputs": [
						{
							"internalType": "address",
							"name": "reg",
							"type": "address"
						}
					],
					"name": "ActiveUser",
					"type": "error"
				},
				{
					"inputs": [],
					"name": "InvalidAmount",
					"type": "error"
				},
				{
					"inputs": [
						{
							"internalType": "address",
							"name": "attempter",
							"type": "address"
						}
					],
					"name": "NotAdmin",
					"type": "error"
				},
				{
					"anonymous": false,
					"inputs": [
						{
							"indexed": true,
							"internalType": "address",
							"name": "user",
							"type": "address"
						},
						{
							"indexed": false,
							"internalType": "uint256",
							"name": "amount",
							"type": "uint256"
						}
					],
					"name": "Balance",
					"type": "event"
				},
				{
					"anonymous": false,
					"inputs": [
						{
							"indexed": true,
							"internalType": "address",
							"name": "user",
							"type": "address"
						},
						{
							"indexed": true,
							"internalType": "uint256",
							"name": "uid",
							"type": "uint256"
						}
					],
					"name": "Register",
					"type": "event"
				},
				{
					"anonymous": false,
					"inputs": [
						{
							"indexed": true,
							"internalType": "address",
							"name": "user",
							"type": "address"
						},
						{
							"indexed": false,
							"internalType": "enum registration.Role",
							"name": "roles",
							"type": "uint8"
						}
					],
					"name": "Roole",
					"type": "event"
				},
				{
					"inputs": [
						{
							"internalType": "address",
							"name": "_user",
							"type": "address"
						},
						{
							"internalType": "enum registration.Role",
							"name": "_roles",
							"type": "uint8"
						}
					],
					"name": "ChangeRole",
					"outputs": [],
					"stateMutability": "nonpayable",
					"type": "function"
				},
				{
					"inputs": [
						{
							"internalType": "address",
							"name": "_user",
							"type": "address"
						}
					],
					"name": "IncreaseBalance",
					"outputs": [],
					"stateMutability": "payable",
					"type": "function"
				},
				{
					"inputs": [
						{
							"internalType": "string",
							"name": "_username",
							"type": "string"
						}
					],
					"name": "RegisterNow",
					"outputs": [],
					"stateMutability": "nonpayable",
					"type": "function"
				},
				{
					"inputs": [],
					"name": "admin",
					"outputs": [
						{
							"internalType": "address",
							"name": "",
							"type": "address"
						}
					],
					"stateMutability": "view",
					"type": "function"
				},
				{
					"inputs": [
						{
							"internalType": "address",
							"name": "",
							"type": "address"
						}
					],
					"name": "balance",
					"outputs": [
						{
							"internalType": "uint256",
							"name": "",
							"type": "uint256"
						}
					],
					"stateMutability": "view",
					"type": "function"
				},
				{
					"inputs": [
						{
							"internalType": "address",
							"name": "",
							"type": "address"
						}
					],
					"name": "isRegistered",
					"outputs": [
						{
							"internalType": "bool",
							"name": "",
							"type": "bool"
						}
					],
					"stateMutability": "view",
					"type": "function"
				},
				{
					"inputs": [
						{
							"internalType": "address",
							"name": "",
							"type": "address"
						}
					],
					"name": "roles",
					"outputs": [
						{
							"internalType": "enum registration.Role",
							"name": "",
							"type": "uint8"
						}
					],
					"stateMutability": "view",
					"type": "function"
				}
			],
			"devdoc": {
				"kind": "dev",
				"methods": {},
				"version": 1
			},
			"evm": {
				"assembly": "    /* \"W3day5.sol\":63:1629  contract registration{... */\n  mstore(0x40, 0x80)\n    /* \"W3day5.sol\":373:374  0 */\n  0x00\n    /* \"W3day5.sol\":352:374  uint256 private id = 0 */\n  0x02\n  sstore\n    /* \"W3day5.sol\":440:491  constructor() {... */\n  callvalue\n  dup1\n  iszero\n  tag_1\n  jumpi\n  revert(0x00, 0x00)\ntag_1:\n  pop\n    /* \"W3day5.sol\":473:483  msg.sender */\n  caller\n    /* \"W3day5.sol\":465:470  admin */\n  0x04\n  0x00\n    /* \"W3day5.sol\":465:483  admin = msg.sender */\n  0x0100\n  exp\n  dup2\n  sload\n  dup2\n  0xffffffffffffffffffffffffffffffffffffffff\n  mul\n  not\n  and\n  swap1\n  dup4\n  0xffffffffffffffffffffffffffffffffffffffff\n  and\n  mul\n  or\n  swap1\n  sstore\n  pop\n    /* \"W3day5.sol\":63:1629  contract registration{... */\n  dataSize(sub_0)\n  dup1\n  dataOffset(sub_0)\n  0x00\n  codecopy\n  0x00\n  return\nstop\n\nsub_0: assembly {\n        /* \"W3day5.sol\":63:1629  contract registration{... */\n      mstore(0x40, 0x80)\n      jumpi(tag_1, lt(calldatasize, 0x04))\n      shr(0xe0, calldataload(0x00))\n      dup1\n      0x99374642\n      gt\n      tag_9\n      jumpi\n      dup1\n      0x99374642\n      eq\n      tag_5\n      jumpi\n      dup1\n      0xc3c5a547\n      eq\n      tag_6\n      jumpi\n      dup1\n      0xe3d670d7\n      eq\n      tag_7\n      jumpi\n      dup1\n      0xf851a440\n      eq\n      tag_8\n      jumpi\n      jump(tag_1)\n    tag_9:\n      dup1\n      0x04ab7197\n      eq\n      tag_2\n      jumpi\n      dup1\n      0x5b0025ad\n      eq\n      tag_3\n      jumpi\n      dup1\n      0x6b4fd2ad\n      eq\n      tag_4\n      jumpi\n    tag_1:\n      revert(0x00, 0x00)\n        /* \"W3day5.sol\":1435:1626  function IncreaseBalance(address _user)public payable {... */\n    tag_2:\n      tag_10\n      0x04\n      dup1\n      calldatasize\n      sub\n      dup2\n      add\n      swap1\n      tag_11\n      swap2\n      swap1\n      tag_12\n      jump\t// in\n    tag_11:\n      tag_13\n      jump\t// in\n    tag_10:\n      stop\n        /* \"W3day5.sol\":795:1167  function RegisterNow(string memory _username) external {... */\n    tag_3:\n      callvalue\n      dup1\n      iszero\n      tag_14\n      jumpi\n      revert(0x00, 0x00)\n    tag_14:\n      pop\n      tag_15\n      0x04\n      dup1\n      calldatasize\n      sub\n      dup2\n      add\n      swap1\n      tag_16\n      swap2\n      swap1\n      tag_17\n      jump\t// in\n    tag_16:\n      tag_18\n      jump\t// in\n    tag_15:\n      stop\n        /* \"W3day5.sol\":1284:1427  function ChangeRole(address _user, Role _roles) external OnlyAdmin {... */\n    tag_4:\n      callvalue\n      dup1\n      iszero\n      tag_19\n      jumpi\n      revert(0x00, 0x00)\n    tag_19:\n      pop\n      tag_20\n      0x04\n      dup1\n      calldatasize\n      sub\n      dup2\n      add\n      swap1\n      tag_21\n      swap2\n      swap1\n      tag_22\n      jump\t// in\n    tag_21:\n      tag_23\n      jump\t// in\n    tag_20:\n      stop\n        /* \"W3day5.sol\":573:610  mapping(address => Role) public roles */\n    tag_5:\n      callvalue\n      dup1\n      iszero\n      tag_24\n      jumpi\n      revert(0x00, 0x00)\n    tag_24:\n      pop\n      tag_25\n      0x04\n      dup1\n      calldatasize\n      sub\n      dup2\n      add\n      swap1\n      tag_26\n      swap2\n      swap1\n      tag_12\n      jump\t// in\n    tag_26:\n      tag_27\n      jump\t// in\n    tag_25:\n      mload(0x40)\n      tag_28\n      swap2\n      swap1\n      tag_29\n      jump\t// in\n    tag_28:\n      mload(0x40)\n      dup1\n      swap2\n      sub\n      swap1\n      return\n        /* \"W3day5.sol\":301:345  mapping(address => bool) public isRegistered */\n    tag_6:\n      callvalue\n      dup1\n      iszero\n      tag_30\n      jumpi\n      revert(0x00, 0x00)\n    tag_30:\n      pop\n      tag_31\n      0x04\n      dup1\n      calldatasize\n      sub\n      dup2\n      add\n      swap1\n      tag_32\n      swap2\n      swap1\n      tag_12\n      jump\t// in\n    tag_32:\n      tag_33\n      jump\t// in\n    tag_31:\n      mload(0x40)\n      tag_34\n      swap2\n      swap1\n      tag_35\n      jump\t// in\n    tag_34:\n      mload(0x40)\n      dup1\n      swap2\n      sub\n      swap1\n      return\n        /* \"W3day5.sol\":252:294  mapping(address => uint256) public balance */\n    tag_7:\n      callvalue\n      dup1\n      iszero\n      tag_36\n      jumpi\n      revert(0x00, 0x00)\n    tag_36:\n      pop\n      tag_37\n      0x04\n      dup1\n      calldatasize\n      sub\n      dup2\n      add\n      swap1\n      tag_38\n      swap2\n      swap1\n      tag_12\n      jump\t// in\n    tag_38:\n      tag_39\n      jump\t// in\n    tag_37:\n      mload(0x40)\n      tag_40\n      swap2\n      swap1\n      tag_41\n      jump\t// in\n    tag_40:\n      mload(0x40)\n      dup1\n      swap2\n      sub\n      swap1\n      return\n        /* \"W3day5.sol\":411:431  address public admin */\n    tag_8:\n      callvalue\n      dup1\n      iszero\n      tag_42\n      jumpi\n      revert(0x00, 0x00)\n    tag_42:\n      pop\n      tag_43\n      tag_44\n      jump\t// in\n    tag_43:\n      mload(0x40)\n      tag_45\n      swap2\n      swap1\n      tag_46\n      jump\t// in\n    tag_45:\n      mload(0x40)\n      dup1\n      swap2\n      sub\n      swap1\n      return\n        /* \"W3day5.sol\":1435:1626  function IncreaseBalance(address _user)public payable {... */\n    tag_13:\n        /* \"W3day5.sol\":1520:1521  0 */\n      0x00\n        /* \"W3day5.sol\":1508:1517  msg.value */\n      callvalue\n        /* \"W3day5.sol\":1508:1521  msg.value > 0 */\n      gt\n        /* \"W3day5.sol\":1500:1539  require(msg.value > 0, InvalidAmount()) */\n      tag_48\n      jumpi\n      mload(0x40)\n      0x2c5211c600000000000000000000000000000000000000000000000000000000\n      dup2\n      mstore\n      0x04\n      add\n      mload(0x40)\n      dup1\n      swap2\n      sub\n      swap1\n      revert\n    tag_48:\n        /* \"W3day5.sol\":1568:1577  msg.value */\n      callvalue\n        /* \"W3day5.sol\":1550:1557  balance */\n      0x00\n        /* \"W3day5.sol\":1550:1564  balance[_user] */\n      0x00\n        /* \"W3day5.sol\":1558:1563  _user */\n      dup4\n        /* \"W3day5.sol\":1550:1564  balance[_user] */\n      0xffffffffffffffffffffffffffffffffffffffff\n      and\n      0xffffffffffffffffffffffffffffffffffffffff\n      and\n      dup2\n      mstore\n      0x20\n      add\n      swap1\n      dup2\n      mstore\n      0x20\n      add\n      0x00\n      keccak256\n      0x00\n        /* \"W3day5.sol\":1550:1577  balance[_user] += msg.value */\n      dup3\n      dup3\n      sload\n      tag_49\n      swap2\n      swap1\n      tag_50\n      jump\t// in\n    tag_49:\n      swap3\n      pop\n      pop\n      dup2\n      swap1\n      sstore\n      pop\n        /* \"W3day5.sol\":1601:1606  _user */\n      dup1\n        /* \"W3day5.sol\":1593:1618  Balance(_user, msg.value) */\n      0xffffffffffffffffffffffffffffffffffffffff\n      and\n      0x134e340554ff8a7d64280a2a28b982df554e2595e5bf45cd39368f31099172a6\n        /* \"W3day5.sol\":1608:1617  msg.value */\n      callvalue\n        /* \"W3day5.sol\":1593:1618  Balance(_user, msg.value) */\n      mload(0x40)\n      tag_51\n      swap2\n      swap1\n      tag_41\n      jump\t// in\n    tag_51:\n      mload(0x40)\n      dup1\n      swap2\n      sub\n      swap1\n      log2\n        /* \"W3day5.sol\":1435:1626  function IncreaseBalance(address _user)public payable {... */\n      pop\n      jump\t// out\n        /* \"W3day5.sol\":795:1167  function RegisterNow(string memory _username) external {... */\n    tag_18:\n        /* \"W3day5.sol\":870:882  isRegistered */\n      0x01\n        /* \"W3day5.sol\":870:894  isRegistered[msg.sender] */\n      0x00\n        /* \"W3day5.sol\":883:893  msg.sender */\n      caller\n        /* \"W3day5.sol\":870:894  isRegistered[msg.sender] */\n      0xffffffffffffffffffffffffffffffffffffffff\n      and\n      0xffffffffffffffffffffffffffffffffffffffff\n      and\n      dup2\n      mstore\n      0x20\n      add\n      swap1\n      dup2\n      mstore\n      0x20\n      add\n      0x00\n      keccak256\n      0x00\n      swap1\n      sload\n      swap1\n      0x0100\n      exp\n      swap1\n      div\n      0xff\n      and\n        /* \"W3day5.sol\":869:894  !isRegistered[msg.sender] */\n      iszero\n        /* \"W3day5.sol\":907:917  msg.sender */\n      caller\n        /* \"W3day5.sol\":861:919  require(!isRegistered[msg.sender], ActiveUser(msg.sender)) */\n      swap1\n      tag_53\n      jumpi\n      mload(0x40)\n      0x240cdbf000000000000000000000000000000000000000000000000000000000\n      dup2\n      mstore\n      0x04\n      add\n      tag_54\n      swap2\n      swap1\n      tag_46\n      jump\t// in\n    tag_54:\n      mload(0x40)\n      dup1\n      swap2\n      sub\n      swap1\n      revert\n    tag_53:\n      pop\n        /* \"W3day5.sol\":960:961  0 */\n      0x00\n        /* \"W3day5.sol\":939:948  _username */\n      dup2\n        /* \"W3day5.sol\":933:956  bytes(_username).length */\n      mload\n        /* \"W3day5.sol\":933:961  bytes(_username).length == 0 */\n      sub\n        /* \"W3day5.sol\":930:1015  if(bytes(_username).length == 0){... */\n      tag_55\n      jumpi\n        /* \"W3day5.sol\":977:1003  revert(\"Enter a username\") */\n      mload(0x40)\n      0x08c379a000000000000000000000000000000000000000000000000000000000\n      dup2\n      mstore\n      0x04\n      add\n      tag_56\n      swap1\n      tag_57\n      jump\t// in\n    tag_56:\n      mload(0x40)\n      dup1\n      swap2\n      sub\n      swap1\n      revert\n        /* \"W3day5.sol\":930:1015  if(bytes(_username).length == 0){... */\n    tag_55:\n        /* \"W3day5.sol\":1054:1058  true */\n      0x01\n        /* \"W3day5.sol\":1027:1039  isRegistered */\n      dup1\n        /* \"W3day5.sol\":1027:1051  isRegistered[msg.sender] */\n      0x00\n        /* \"W3day5.sol\":1040:1050  msg.sender */\n      caller\n        /* \"W3day5.sol\":1027:1051  isRegistered[msg.sender] */\n      0xffffffffffffffffffffffffffffffffffffffff\n      and\n      0xffffffffffffffffffffffffffffffffffffffff\n      and\n      dup2\n      mstore\n      0x20\n      add\n      swap1\n      dup2\n      mstore\n      0x20\n      add\n      0x00\n      keccak256\n      0x00\n        /* \"W3day5.sol\":1027:1058  isRegistered[msg.sender] = true */\n      0x0100\n      exp\n      dup2\n      sload\n      dup2\n      0xff\n      mul\n      not\n      and\n      swap1\n      dup4\n      iszero\n      iszero\n      mul\n      or\n      swap1\n      sstore\n      pop\n        /* \"W3day5.sol\":1080:1089  _username */\n      dup1\n        /* \"W3day5.sol\":1069:1077  username */\n      0x03\n        /* \"W3day5.sol\":1069:1089  username = _username */\n      swap1\n      dup2\n      tag_58\n      swap2\n      swap1\n      tag_59\n      jump\t// in\n    tag_58:\n      pop\n        /* \"W3day5.sol\":1100:1111  uint256 uid */\n      0x00\n        /* \"W3day5.sol\":1114:1116  id */\n      0x02\n      0x00\n        /* \"W3day5.sol\":1114:1118  id++ */\n      dup2\n      sload\n      dup1\n      swap3\n      swap2\n      swap1\n      tag_60\n      swap1\n      tag_61\n      jump\t// in\n    tag_60:\n      swap2\n      swap1\n      pop\n      sstore\n        /* \"W3day5.sol\":1100:1118  uint256 uid = id++ */\n      swap1\n      pop\n        /* \"W3day5.sol\":1155:1158  uid */\n      dup1\n        /* \"W3day5.sol\":1143:1153  msg.sender */\n      caller\n        /* \"W3day5.sol\":1134:1159  Register(msg.sender, uid) */\n      0xffffffffffffffffffffffffffffffffffffffff\n      and\n      0x7dc6ab80cc84c043b7b8d4fcafc802187470087f7ea7fccd2e17aecd0256a1\n      mload(0x40)\n      mload(0x40)\n      dup1\n      swap2\n      sub\n      swap1\n      log3\n        /* \"W3day5.sol\":850:1167  {... */\n      pop\n        /* \"W3day5.sol\":795:1167  function RegisterNow(string memory _username) external {... */\n      pop\n      jump\t// out\n        /* \"W3day5.sol\":1284:1427  function ChangeRole(address _user, Role _roles) external OnlyAdmin {... */\n    tag_23:\n        /* \"W3day5.sol\":1228:1233  admin */\n      0x04\n      0x00\n      swap1\n      sload\n      swap1\n      0x0100\n      exp\n      swap1\n      div\n      0xffffffffffffffffffffffffffffffffffffffff\n      and\n        /* \"W3day5.sol\":1214:1233  msg.sender == admin */\n      0xffffffffffffffffffffffffffffffffffffffff\n      and\n        /* \"W3day5.sol\":1214:1224  msg.sender */\n      caller\n        /* \"W3day5.sol\":1214:1233  msg.sender == admin */\n      0xffffffffffffffffffffffffffffffffffffffff\n      and\n      eq\n        /* \"W3day5.sol\":1244:1254  msg.sender */\n      caller\n        /* \"W3day5.sol\":1206:1256  require(msg.sender == admin, NotAdmin(msg.sender)) */\n      swap1\n      tag_63\n      jumpi\n      mload(0x40)\n      0x17a8424200000000000000000000000000000000000000000000000000000000\n      dup2\n      mstore\n      0x04\n      add\n      tag_64\n      swap2\n      swap1\n      tag_46\n      jump\t// in\n    tag_64:\n      mload(0x40)\n      dup1\n      swap2\n      sub\n      swap1\n      revert\n    tag_63:\n      pop\n        /* \"W3day5.sol\":1377:1383  _roles */\n      dup1\n        /* \"W3day5.sol\":1362:1367  roles */\n      0x05\n        /* \"W3day5.sol\":1362:1374  roles[_user] */\n      0x00\n        /* \"W3day5.sol\":1368:1373  _user */\n      dup5\n        /* \"W3day5.sol\":1362:1374  roles[_user] */\n      0xffffffffffffffffffffffffffffffffffffffff\n      and\n      0xffffffffffffffffffffffffffffffffffffffff\n      and\n      dup2\n      mstore\n      0x20\n      add\n      swap1\n      dup2\n      mstore\n      0x20\n      add\n      0x00\n      keccak256\n      0x00\n        /* \"W3day5.sol\":1362:1383  roles[_user] = _roles */\n      0x0100\n      exp\n      dup2\n      sload\n      dup2\n      0xff\n      mul\n      not\n      and\n      swap1\n      dup4\n      0x02\n      dup2\n      gt\n      iszero\n      tag_66\n      jumpi\n      tag_67\n      tag_68\n      jump\t// in\n    tag_67:\n    tag_66:\n      mul\n      or\n      swap1\n      sstore\n      pop\n        /* \"W3day5.sol\":1405:1410  _user */\n      dup2\n        /* \"W3day5.sol\":1399:1419  Roole(_user, _roles) */\n      0xffffffffffffffffffffffffffffffffffffffff\n      and\n      0xda4d41475ec50aa8531c242d7d7a0aad94df435c0be1f0cbf130f862bb38290e\n        /* \"W3day5.sol\":1412:1418  _roles */\n      dup3\n        /* \"W3day5.sol\":1399:1419  Roole(_user, _roles) */\n      mload(0x40)\n      tag_69\n      swap2\n      swap1\n      tag_29\n      jump\t// in\n    tag_69:\n      mload(0x40)\n      dup1\n      swap2\n      sub\n      swap1\n      log2\n        /* \"W3day5.sol\":1284:1427  function ChangeRole(address _user, Role _roles) external OnlyAdmin {... */\n      pop\n      pop\n      jump\t// out\n        /* \"W3day5.sol\":573:610  mapping(address => Role) public roles */\n    tag_27:\n      mstore(0x20, 0x05)\n      dup1\n      0x00\n      mstore\n      keccak256(0x00, 0x40)\n      0x00\n      swap2\n      pop\n      sload\n      swap1\n      0x0100\n      exp\n      swap1\n      div\n      0xff\n      and\n      dup2\n      jump\t// out\n        /* \"W3day5.sol\":301:345  mapping(address => bool) public isRegistered */\n    tag_33:\n      mstore(0x20, 0x01)\n      dup1\n      0x00\n      mstore\n      keccak256(0x00, 0x40)\n      0x00\n      swap2\n      pop\n      sload\n      swap1\n      0x0100\n      exp\n      swap1\n      div\n      0xff\n      and\n      dup2\n      jump\t// out\n        /* \"W3day5.sol\":252:294  mapping(address => uint256) public balance */\n    tag_39:\n      mstore(0x20, 0x00)\n      dup1\n      0x00\n      mstore\n      keccak256(0x00, 0x40)\n      0x00\n      swap2\n      pop\n      swap1\n      pop\n      sload\n      dup2\n      jump\t// out\n        /* \"W3day5.sol\":411:431  address public admin */\n    tag_44:\n      0x04\n      0x00\n      swap1\n      sload\n      swap1\n      0x0100\n      exp\n      swap1\n      div\n      0xffffffffffffffffffffffffffffffffffffffff\n      and\n      dup2\n      jump\t// out\n        /* \"#utility.yul\":7:82   */\n    tag_70:\n        /* \"#utility.yul\":40:46   */\n      0x00\n        /* \"#utility.yul\":73:75   */\n      0x40\n        /* \"#utility.yul\":67:76   */\n      mload\n        /* \"#utility.yul\":57:76   */\n      swap1\n      pop\n        /* \"#utility.yul\":7:82   */\n      swap1\n      jump\t// out\n        /* \"#utility.yul\":88:205   */\n    tag_71:\n        /* \"#utility.yul\":197:198   */\n      0x00\n        /* \"#utility.yul\":194:195   */\n      0x00\n        /* \"#utility.yul\":187:199   */\n      revert\n        /* \"#utility.yul\":211:328   */\n    tag_72:\n        /* \"#utility.yul\":320:321   */\n      0x00\n        /* \"#utility.yul\":317:318   */\n      0x00\n        /* \"#utility.yul\":310:322   */\n      revert\n        /* \"#utility.yul\":334:460   */\n    tag_73:\n        /* \"#utility.yul\":371:378   */\n      0x00\n        /* \"#utility.yul\":411:453   */\n      0xffffffffffffffffffffffffffffffffffffffff\n        /* \"#utility.yul\":404:409   */\n      dup3\n        /* \"#utility.yul\":400:454   */\n      and\n        /* \"#utility.yul\":389:454   */\n      swap1\n      pop\n        /* \"#utility.yul\":334:460   */\n      swap2\n      swap1\n      pop\n      jump\t// out\n        /* \"#utility.yul\":466:562   */\n    tag_74:\n        /* \"#utility.yul\":503:510   */\n      0x00\n        /* \"#utility.yul\":532:556   */\n      tag_126\n        /* \"#utility.yul\":550:555   */\n      dup3\n        /* \"#utility.yul\":532:556   */\n      tag_73\n      jump\t// in\n    tag_126:\n        /* \"#utility.yul\":521:556   */\n      swap1\n      pop\n        /* \"#utility.yul\":466:562   */\n      swap2\n      swap1\n      pop\n      jump\t// out\n        /* \"#utility.yul\":568:690   */\n    tag_75:\n        /* \"#utility.yul\":641:665   */\n      tag_128\n        /* \"#utility.yul\":659:664   */\n      dup2\n        /* \"#utility.yul\":641:665   */\n      tag_74\n      jump\t// in\n    tag_128:\n        /* \"#utility.yul\":634:639   */\n      dup2\n        /* \"#utility.yul\":631:666   */\n      eq\n        /* \"#utility.yul\":621:684   */\n      tag_129\n      jumpi\n        /* \"#utility.yul\":680:681   */\n      0x00\n        /* \"#utility.yul\":677:678   */\n      0x00\n        /* \"#utility.yul\":670:682   */\n      revert\n        /* \"#utility.yul\":621:684   */\n    tag_129:\n        /* \"#utility.yul\":568:690   */\n      pop\n      jump\t// out\n        /* \"#utility.yul\":696:835   */\n    tag_76:\n        /* \"#utility.yul\":742:747   */\n      0x00\n        /* \"#utility.yul\":780:786   */\n      dup2\n        /* \"#utility.yul\":767:787   */\n      calldataload\n        /* \"#utility.yul\":758:787   */\n      swap1\n      pop\n        /* \"#utility.yul\":796:829   */\n      tag_131\n        /* \"#utility.yul\":823:828   */\n      dup2\n        /* \"#utility.yul\":796:829   */\n      tag_75\n      jump\t// in\n    tag_131:\n        /* \"#utility.yul\":696:835   */\n      swap3\n      swap2\n      pop\n      pop\n      jump\t// out\n        /* \"#utility.yul\":841:1170   */\n    tag_12:\n        /* \"#utility.yul\":900:906   */\n      0x00\n        /* \"#utility.yul\":949:951   */\n      0x20\n        /* \"#utility.yul\":937:946   */\n      dup3\n        /* \"#utility.yul\":928:935   */\n      dup5\n        /* \"#utility.yul\":924:947   */\n      sub\n        /* \"#utility.yul\":920:952   */\n      slt\n        /* \"#utility.yul\":917:1036   */\n      iszero\n      tag_133\n      jumpi\n        /* \"#utility.yul\":955:1034   */\n      tag_134\n      tag_71\n      jump\t// in\n    tag_134:\n        /* \"#utility.yul\":917:1036   */\n    tag_133:\n        /* \"#utility.yul\":1075:1076   */\n      0x00\n        /* \"#utility.yul\":1100:1153   */\n      tag_135\n        /* \"#utility.yul\":1145:1152   */\n      dup5\n        /* \"#utility.yul\":1136:1142   */\n      dup3\n        /* \"#utility.yul\":1125:1134   */\n      dup6\n        /* \"#utility.yul\":1121:1143   */\n      add\n        /* \"#utility.yul\":1100:1153   */\n      tag_76\n      jump\t// in\n    tag_135:\n        /* \"#utility.yul\":1090:1153   */\n      swap2\n      pop\n        /* \"#utility.yul\":1046:1163   */\n      pop\n        /* \"#utility.yul\":841:1170   */\n      swap3\n      swap2\n      pop\n      pop\n      jump\t// out\n        /* \"#utility.yul\":1176:1293   */\n    tag_77:\n        /* \"#utility.yul\":1285:1286   */\n      0x00\n        /* \"#utility.yul\":1282:1283   */\n      0x00\n        /* \"#utility.yul\":1275:1287   */\n      revert\n        /* \"#utility.yul\":1299:1416   */\n    tag_78:\n        /* \"#utility.yul\":1408:1409   */\n      0x00\n        /* \"#utility.yul\":1405:1406   */\n      0x00\n        /* \"#utility.yul\":1398:1410   */\n      revert\n        /* \"#utility.yul\":1422:1524   */\n    tag_79:\n        /* \"#utility.yul\":1463:1469   */\n      0x00\n        /* \"#utility.yul\":1514:1516   */\n      0x1f\n        /* \"#utility.yul\":1510:1517   */\n      not\n        /* \"#utility.yul\":1505:1507   */\n      0x1f\n        /* \"#utility.yul\":1498:1503   */\n      dup4\n        /* \"#utility.yul\":1494:1508   */\n      add\n        /* \"#utility.yul\":1490:1518   */\n      and\n        /* \"#utility.yul\":1480:1518   */\n      swap1\n      pop\n        /* \"#utility.yul\":1422:1524   */\n      swap2\n      swap1\n      pop\n      jump\t// out\n        /* \"#utility.yul\":1530:1710   */\n    tag_80:\n        /* \"#utility.yul\":1578:1655   */\n      0x4e487b7100000000000000000000000000000000000000000000000000000000\n        /* \"#utility.yul\":1575:1576   */\n      0x00\n        /* \"#utility.yul\":1568:1656   */\n      mstore\n        /* \"#utility.yul\":1675:1679   */\n      0x41\n        /* \"#utility.yul\":1672:1673   */\n      0x04\n        /* \"#utility.yul\":1665:1680   */\n      mstore\n        /* \"#utility.yul\":1699:1703   */\n      0x24\n        /* \"#utility.yul\":1696:1697   */\n      0x00\n        /* \"#utility.yul\":1689:1704   */\n      revert\n        /* \"#utility.yul\":1716:1997   */\n    tag_81:\n        /* \"#utility.yul\":1799:1826   */\n      tag_141\n        /* \"#utility.yul\":1821:1825   */\n      dup3\n        /* \"#utility.yul\":1799:1826   */\n      tag_79\n      jump\t// in\n    tag_141:\n        /* \"#utility.yul\":1791:1797   */\n      dup2\n        /* \"#utility.yul\":1787:1827   */\n      add\n        /* \"#utility.yul\":1929:1935   */\n      dup2\n        /* \"#utility.yul\":1917:1927   */\n      dup2\n        /* \"#utility.yul\":1914:1936   */\n      lt\n        /* \"#utility.yul\":1893:1911   */\n      0xffffffffffffffff\n        /* \"#utility.yul\":1881:1891   */\n      dup3\n        /* \"#utility.yul\":1878:1912   */\n      gt\n        /* \"#utility.yul\":1875:1937   */\n      or\n        /* \"#utility.yul\":1872:1960   */\n      iszero\n      tag_142\n      jumpi\n        /* \"#utility.yul\":1940:1958   */\n      tag_143\n      tag_80\n      jump\t// in\n    tag_143:\n        /* \"#utility.yul\":1872:1960   */\n    tag_142:\n        /* \"#utility.yul\":1980:1990   */\n      dup1\n        /* \"#utility.yul\":1976:1978   */\n      0x40\n        /* \"#utility.yul\":1969:1991   */\n      mstore\n        /* \"#utility.yul\":1759:1997   */\n      pop\n        /* \"#utility.yul\":1716:1997   */\n      pop\n      pop\n      jump\t// out\n        /* \"#utility.yul\":2003:2132   */\n    tag_82:\n        /* \"#utility.yul\":2037:2043   */\n      0x00\n        /* \"#utility.yul\":2064:2084   */\n      tag_145\n      tag_70\n      jump\t// in\n    tag_145:\n        /* \"#utility.yul\":2054:2084   */\n      swap1\n      pop\n        /* \"#utility.yul\":2093:2126   */\n      tag_146\n        /* \"#utility.yul\":2121:2125   */\n      dup3\n        /* \"#utility.yul\":2113:2119   */\n      dup3\n        /* \"#utility.yul\":2093:2126   */\n      tag_81\n      jump\t// in\n    tag_146:\n        /* \"#utility.yul\":2003:2132   */\n      swap2\n      swap1\n      pop\n      jump\t// out\n        /* \"#utility.yul\":2138:2446   */\n    tag_83:\n        /* \"#utility.yul\":2200:2204   */\n      0x00\n        /* \"#utility.yul\":2290:2308   */\n      0xffffffffffffffff\n        /* \"#utility.yul\":2282:2288   */\n      dup3\n        /* \"#utility.yul\":2279:2309   */\n      gt\n        /* \"#utility.yul\":2276:2332   */\n      iszero\n      tag_148\n      jumpi\n        /* \"#utility.yul\":2312:2330   */\n      tag_149\n      tag_80\n      jump\t// in\n    tag_149:\n        /* \"#utility.yul\":2276:2332   */\n    tag_148:\n        /* \"#utility.yul\":2350:2379   */\n      tag_150\n        /* \"#utility.yul\":2372:2378   */\n      dup3\n        /* \"#utility.yul\":2350:2379   */\n      tag_79\n      jump\t// in\n    tag_150:\n        /* \"#utility.yul\":2342:2379   */\n      swap1\n      pop\n        /* \"#utility.yul\":2434:2438   */\n      0x20\n        /* \"#utility.yul\":2428:2432   */\n      dup2\n        /* \"#utility.yul\":2424:2439   */\n      add\n        /* \"#utility.yul\":2416:2439   */\n      swap1\n      pop\n        /* \"#utility.yul\":2138:2446   */\n      swap2\n      swap1\n      pop\n      jump\t// out\n        /* \"#utility.yul\":2452:2600   */\n    tag_84:\n        /* \"#utility.yul\":2550:2556   */\n      dup3\n        /* \"#utility.yul\":2545:2548   */\n      dup2\n        /* \"#utility.yul\":2540:2543   */\n      dup4\n        /* \"#utility.yul\":2527:2557   */\n      calldatacopy\n        /* \"#utility.yul\":2591:2592   */\n      0x00\n        /* \"#utility.yul\":2582:2588   */\n      dup4\n        /* \"#utility.yul\":2577:2580   */\n      dup4\n        /* \"#utility.yul\":2573:2589   */\n      add\n        /* \"#utility.yul\":2566:2593   */\n      mstore\n        /* \"#utility.yul\":2452:2600   */\n      pop\n      pop\n      pop\n      jump\t// out\n        /* \"#utility.yul\":2606:3031   */\n    tag_85:\n        /* \"#utility.yul\":2684:2689   */\n      0x00\n        /* \"#utility.yul\":2709:2775   */\n      tag_153\n        /* \"#utility.yul\":2725:2774   */\n      tag_154\n        /* \"#utility.yul\":2767:2773   */\n      dup5\n        /* \"#utility.yul\":2725:2774   */\n      tag_83\n      jump\t// in\n    tag_154:\n        /* \"#utility.yul\":2709:2775   */\n      tag_82\n      jump\t// in\n    tag_153:\n        /* \"#utility.yul\":2700:2775   */\n      swap1\n      pop\n        /* \"#utility.yul\":2798:2804   */\n      dup3\n        /* \"#utility.yul\":2791:2796   */\n      dup2\n        /* \"#utility.yul\":2784:2805   */\n      mstore\n        /* \"#utility.yul\":2836:2840   */\n      0x20\n        /* \"#utility.yul\":2829:2834   */\n      dup2\n        /* \"#utility.yul\":2825:2841   */\n      add\n        /* \"#utility.yul\":2874:2877   */\n      dup5\n        /* \"#utility.yul\":2865:2871   */\n      dup5\n        /* \"#utility.yul\":2860:2863   */\n      dup5\n        /* \"#utility.yul\":2856:2872   */\n      add\n        /* \"#utility.yul\":2853:2878   */\n      gt\n        /* \"#utility.yul\":2850:2962   */\n      iszero\n      tag_155\n      jumpi\n        /* \"#utility.yul\":2881:2960   */\n      tag_156\n      tag_78\n      jump\t// in\n    tag_156:\n        /* \"#utility.yul\":2850:2962   */\n    tag_155:\n        /* \"#utility.yul\":2971:3025   */\n      tag_157\n        /* \"#utility.yul\":3018:3024   */\n      dup5\n        /* \"#utility.yul\":3013:3016   */\n      dup3\n        /* \"#utility.yul\":3008:3011   */\n      dup6\n        /* \"#utility.yul\":2971:3025   */\n      tag_84\n      jump\t// in\n    tag_157:\n        /* \"#utility.yul\":2690:3031   */\n      pop\n        /* \"#utility.yul\":2606:3031   */\n      swap4\n      swap3\n      pop\n      pop\n      pop\n      jump\t// out\n        /* \"#utility.yul\":3051:3391   */\n    tag_86:\n        /* \"#utility.yul\":3107:3112   */\n      0x00\n        /* \"#utility.yul\":3156:3159   */\n      dup3\n        /* \"#utility.yul\":3149:3153   */\n      0x1f\n        /* \"#utility.yul\":3141:3147   */\n      dup4\n        /* \"#utility.yul\":3137:3154   */\n      add\n        /* \"#utility.yul\":3133:3160   */\n      slt\n        /* \"#utility.yul\":3123:3245   */\n      tag_159\n      jumpi\n        /* \"#utility.yul\":3164:3243   */\n      tag_160\n      tag_77\n      jump\t// in\n    tag_160:\n        /* \"#utility.yul\":3123:3245   */\n    tag_159:\n        /* \"#utility.yul\":3281:3287   */\n      dup2\n        /* \"#utility.yul\":3268:3288   */\n      calldataload\n        /* \"#utility.yul\":3306:3385   */\n      tag_161\n        /* \"#utility.yul\":3381:3384   */\n      dup5\n        /* \"#utility.yul\":3373:3379   */\n      dup3\n        /* \"#utility.yul\":3366:3370   */\n      0x20\n        /* \"#utility.yul\":3358:3364   */\n      dup7\n        /* \"#utility.yul\":3354:3371   */\n      add\n        /* \"#utility.yul\":3306:3385   */\n      tag_85\n      jump\t// in\n    tag_161:\n        /* \"#utility.yul\":3297:3385   */\n      swap2\n      pop\n        /* \"#utility.yul\":3113:3391   */\n      pop\n        /* \"#utility.yul\":3051:3391   */\n      swap3\n      swap2\n      pop\n      pop\n      jump\t// out\n        /* \"#utility.yul\":3397:3906   */\n    tag_17:\n        /* \"#utility.yul\":3466:3472   */\n      0x00\n        /* \"#utility.yul\":3515:3517   */\n      0x20\n        /* \"#utility.yul\":3503:3512   */\n      dup3\n        /* \"#utility.yul\":3494:3501   */\n      dup5\n        /* \"#utility.yul\":3490:3513   */\n      sub\n        /* \"#utility.yul\":3486:3518   */\n      slt\n        /* \"#utility.yul\":3483:3602   */\n      iszero\n      tag_163\n      jumpi\n        /* \"#utility.yul\":3521:3600   */\n      tag_164\n      tag_71\n      jump\t// in\n    tag_164:\n        /* \"#utility.yul\":3483:3602   */\n    tag_163:\n        /* \"#utility.yul\":3669:3670   */\n      0x00\n        /* \"#utility.yul\":3658:3667   */\n      dup3\n        /* \"#utility.yul\":3654:3671   */\n      add\n        /* \"#utility.yul\":3641:3672   */\n      calldataload\n        /* \"#utility.yul\":3699:3717   */\n      0xffffffffffffffff\n        /* \"#utility.yul\":3691:3697   */\n      dup2\n        /* \"#utility.yul\":3688:3718   */\n      gt\n        /* \"#utility.yul\":3685:3802   */\n      iszero\n      tag_165\n      jumpi\n        /* \"#utility.yul\":3721:3800   */\n      tag_166\n      tag_72\n      jump\t// in\n    tag_166:\n        /* \"#utility.yul\":3685:3802   */\n    tag_165:\n        /* \"#utility.yul\":3826:3889   */\n      tag_167\n        /* \"#utility.yul\":3881:3888   */\n      dup5\n        /* \"#utility.yul\":3872:3878   */\n      dup3\n        /* \"#utility.yul\":3861:3870   */\n      dup6\n        /* \"#utility.yul\":3857:3879   */\n      add\n        /* \"#utility.yul\":3826:3889   */\n      tag_86\n      jump\t// in\n    tag_167:\n        /* \"#utility.yul\":3816:3889   */\n      swap2\n      pop\n        /* \"#utility.yul\":3612:3899   */\n      pop\n        /* \"#utility.yul\":3397:3906   */\n      swap3\n      swap2\n      pop\n      pop\n      jump\t// out\n        /* \"#utility.yul\":3912:4018   */\n    tag_87:\n        /* \"#utility.yul\":3992:3993   */\n      0x03\n        /* \"#utility.yul\":3985:3990   */\n      dup2\n        /* \"#utility.yul\":3982:3994   */\n      lt\n        /* \"#utility.yul\":3972:4012   */\n      tag_169\n      jumpi\n        /* \"#utility.yul\":4008:4009   */\n      0x00\n        /* \"#utility.yul\":4005:4006   */\n      0x00\n        /* \"#utility.yul\":3998:4010   */\n      revert\n        /* \"#utility.yul\":3972:4012   */\n    tag_169:\n        /* \"#utility.yul\":3912:4018   */\n      pop\n      jump\t// out\n        /* \"#utility.yul\":4024:4177   */\n    tag_88:\n        /* \"#utility.yul\":4077:4082   */\n      0x00\n        /* \"#utility.yul\":4115:4121   */\n      dup2\n        /* \"#utility.yul\":4102:4122   */\n      calldataload\n        /* \"#utility.yul\":4093:4122   */\n      swap1\n      pop\n        /* \"#utility.yul\":4131:4171   */\n      tag_171\n        /* \"#utility.yul\":4165:4170   */\n      dup2\n        /* \"#utility.yul\":4131:4171   */\n      tag_87\n      jump\t// in\n    tag_171:\n        /* \"#utility.yul\":4024:4177   */\n      swap3\n      swap2\n      pop\n      pop\n      jump\t// out\n        /* \"#utility.yul\":4183:4671   */\n    tag_22:\n        /* \"#utility.yul\":4258:4264   */\n      0x00\n        /* \"#utility.yul\":4266:4272   */\n      0x00\n        /* \"#utility.yul\":4315:4317   */\n      0x40\n        /* \"#utility.yul\":4303:4312   */\n      dup4\n        /* \"#utility.yul\":4294:4301   */\n      dup6\n        /* \"#utility.yul\":4290:4313   */\n      sub\n        /* \"#utility.yul\":4286:4318   */\n      slt\n        /* \"#utility.yul\":4283:4402   */\n      iszero\n      tag_173\n      jumpi\n        /* \"#utility.yul\":4321:4400   */\n      tag_174\n      tag_71\n      jump\t// in\n    tag_174:\n        /* \"#utility.yul\":4283:4402   */\n    tag_173:\n        /* \"#utility.yul\":4441:4442   */\n      0x00\n        /* \"#utility.yul\":4466:4519   */\n      tag_175\n        /* \"#utility.yul\":4511:4518   */\n      dup6\n        /* \"#utility.yul\":4502:4508   */\n      dup3\n        /* \"#utility.yul\":4491:4500   */\n      dup7\n        /* \"#utility.yul\":4487:4509   */\n      add\n        /* \"#utility.yul\":4466:4519   */\n      tag_76\n      jump\t// in\n    tag_175:\n        /* \"#utility.yul\":4456:4519   */\n      swap3\n      pop\n        /* \"#utility.yul\":4412:4529   */\n      pop\n        /* \"#utility.yul\":4568:4570   */\n      0x20\n        /* \"#utility.yul\":4594:4654   */\n      tag_176\n        /* \"#utility.yul\":4646:4653   */\n      dup6\n        /* \"#utility.yul\":4637:4643   */\n      dup3\n        /* \"#utility.yul\":4626:4635   */\n      dup7\n        /* \"#utility.yul\":4622:4644   */\n      add\n        /* \"#utility.yul\":4594:4654   */\n      tag_88\n      jump\t// in\n    tag_176:\n        /* \"#utility.yul\":4584:4654   */\n      swap2\n      pop\n        /* \"#utility.yul\":4539:4664   */\n      pop\n        /* \"#utility.yul\":4183:4671   */\n      swap3\n      pop\n      swap3\n      swap1\n      pop\n      jump\t// out\n        /* \"#utility.yul\":4677:4857   */\n    tag_68:\n        /* \"#utility.yul\":4725:4802   */\n      0x4e487b7100000000000000000000000000000000000000000000000000000000\n        /* \"#utility.yul\":4722:4723   */\n      0x00\n        /* \"#utility.yul\":4715:4803   */\n      mstore\n        /* \"#utility.yul\":4822:4826   */\n      0x21\n        /* \"#utility.yul\":4819:4820   */\n      0x04\n        /* \"#utility.yul\":4812:4827   */\n      mstore\n        /* \"#utility.yul\":4846:4850   */\n      0x24\n        /* \"#utility.yul\":4843:4844   */\n      0x00\n        /* \"#utility.yul\":4836:4851   */\n      revert\n        /* \"#utility.yul\":4863:4975   */\n    tag_89:\n        /* \"#utility.yul\":4943:4944   */\n      0x03\n        /* \"#utility.yul\":4936:4941   */\n      dup2\n        /* \"#utility.yul\":4933:4945   */\n      lt\n        /* \"#utility.yul\":4923:4969   */\n      tag_179\n      jumpi\n        /* \"#utility.yul\":4949:4967   */\n      tag_180\n      tag_68\n      jump\t// in\n    tag_180:\n        /* \"#utility.yul\":4923:4969   */\n    tag_179:\n        /* \"#utility.yul\":4863:4975   */\n      pop\n      jump\t// out\n        /* \"#utility.yul\":4981:5106   */\n    tag_90:\n        /* \"#utility.yul\":5025:5032   */\n      0x00\n        /* \"#utility.yul\":5054:5059   */\n      dup2\n        /* \"#utility.yul\":5043:5059   */\n      swap1\n      pop\n        /* \"#utility.yul\":5060:5100   */\n      tag_182\n        /* \"#utility.yul\":5094:5099   */\n      dup3\n        /* \"#utility.yul\":5060:5100   */\n      tag_89\n      jump\t// in\n    tag_182:\n        /* \"#utility.yul\":4981:5106   */\n      swap2\n      swap1\n      pop\n      jump\t// out\n        /* \"#utility.yul\":5112:5237   */\n    tag_91:\n        /* \"#utility.yul\":5167:5176   */\n      0x00\n        /* \"#utility.yul\":5200:5231   */\n      tag_184\n        /* \"#utility.yul\":5225:5230   */\n      dup3\n        /* \"#utility.yul\":5200:5231   */\n      tag_90\n      jump\t// in\n    tag_184:\n        /* \"#utility.yul\":5187:5231   */\n      swap1\n      pop\n        /* \"#utility.yul\":5112:5237   */\n      swap2\n      swap1\n      pop\n      jump\t// out\n        /* \"#utility.yul\":5243:5384   */\n    tag_92:\n        /* \"#utility.yul\":5335:5377   */\n      tag_186\n        /* \"#utility.yul\":5371:5376   */\n      dup2\n        /* \"#utility.yul\":5335:5377   */\n      tag_91\n      jump\t// in\n    tag_186:\n        /* \"#utility.yul\":5330:5333   */\n      dup3\n        /* \"#utility.yul\":5323:5378   */\n      mstore\n        /* \"#utility.yul\":5243:5384   */\n      pop\n      pop\n      jump\t// out\n        /* \"#utility.yul\":5390:5622   */\n    tag_29:\n        /* \"#utility.yul\":5488:5492   */\n      0x00\n        /* \"#utility.yul\":5526:5528   */\n      0x20\n        /* \"#utility.yul\":5515:5524   */\n      dup3\n        /* \"#utility.yul\":5511:5529   */\n      add\n        /* \"#utility.yul\":5503:5529   */\n      swap1\n      pop\n        /* \"#utility.yul\":5539:5615   */\n      tag_188\n        /* \"#utility.yul\":5612:5613   */\n      0x00\n        /* \"#utility.yul\":5601:5610   */\n      dup4\n        /* \"#utility.yul\":5597:5614   */\n      add\n        /* \"#utility.yul\":5588:5594   */\n      dup5\n        /* \"#utility.yul\":5539:5615   */\n      tag_92\n      jump\t// in\n    tag_188:\n        /* \"#utility.yul\":5390:5622   */\n      swap3\n      swap2\n      pop\n      pop\n      jump\t// out\n        /* \"#utility.yul\":5628:5718   */\n    tag_93:\n        /* \"#utility.yul\":5662:5669   */\n      0x00\n        /* \"#utility.yul\":5705:5710   */\n      dup2\n        /* \"#utility.yul\":5698:5711   */\n      iszero\n        /* \"#utility.yul\":5691:5712   */\n      iszero\n        /* \"#utility.yul\":5680:5712   */\n      swap1\n      pop\n        /* \"#utility.yul\":5628:5718   */\n      swap2\n      swap1\n      pop\n      jump\t// out\n        /* \"#utility.yul\":5724:5833   */\n    tag_94:\n        /* \"#utility.yul\":5805:5826   */\n      tag_191\n        /* \"#utility.yul\":5820:5825   */\n      dup2\n        /* \"#utility.yul\":5805:5826   */\n      tag_93\n      jump\t// in\n    tag_191:\n        /* \"#utility.yul\":5800:5803   */\n      dup3\n        /* \"#utility.yul\":5793:5827   */\n      mstore\n        /* \"#utility.yul\":5724:5833   */\n      pop\n      pop\n      jump\t// out\n        /* \"#utility.yul\":5839:6049   */\n    tag_35:\n        /* \"#utility.yul\":5926:5930   */\n      0x00\n        /* \"#utility.yul\":5964:5966   */\n      0x20\n        /* \"#utility.yul\":5953:5962   */\n      dup3\n        /* \"#utility.yul\":5949:5967   */\n      add\n        /* \"#utility.yul\":5941:5967   */\n      swap1\n      pop\n        /* \"#utility.yul\":5977:6042   */\n      tag_193\n        /* \"#utility.yul\":6039:6040   */\n      0x00\n        /* \"#utility.yul\":6028:6037   */\n      dup4\n        /* \"#utility.yul\":6024:6041   */\n      add\n        /* \"#utility.yul\":6015:6021   */\n      dup5\n        /* \"#utility.yul\":5977:6042   */\n      tag_94\n      jump\t// in\n    tag_193:\n        /* \"#utility.yul\":5839:6049   */\n      swap3\n      swap2\n      pop\n      pop\n      jump\t// out\n        /* \"#utility.yul\":6055:6132   */\n    tag_95:\n        /* \"#utility.yul\":6092:6099   */\n      0x00\n        /* \"#utility.yul\":6121:6126   */\n      dup2\n        /* \"#utility.yul\":6110:6126   */\n      swap1\n      pop\n        /* \"#utility.yul\":6055:6132   */\n      swap2\n      swap1\n      pop\n      jump\t// out\n        /* \"#utility.yul\":6138:6256   */\n    tag_96:\n        /* \"#utility.yul\":6225:6249   */\n      tag_196\n        /* \"#utility.yul\":6243:6248   */\n      dup2\n        /* \"#utility.yul\":6225:6249   */\n      tag_95\n      jump\t// in\n    tag_196:\n        /* \"#utility.yul\":6220:6223   */\n      dup3\n        /* \"#utility.yul\":6213:6250   */\n      mstore\n        /* \"#utility.yul\":6138:6256   */\n      pop\n      pop\n      jump\t// out\n        /* \"#utility.yul\":6262:6484   */\n    tag_41:\n        /* \"#utility.yul\":6355:6359   */\n      0x00\n        /* \"#utility.yul\":6393:6395   */\n      0x20\n        /* \"#utility.yul\":6382:6391   */\n      dup3\n        /* \"#utility.yul\":6378:6396   */\n      add\n        /* \"#utility.yul\":6370:6396   */\n      swap1\n      pop\n        /* \"#utility.yul\":6406:6477   */\n      tag_198\n        /* \"#utility.yul\":6474:6475   */\n      0x00\n        /* \"#utility.yul\":6463:6472   */\n      dup4\n        /* \"#utility.yul\":6459:6476   */\n      add\n        /* \"#utility.yul\":6450:6456   */\n      dup5\n        /* \"#utility.yul\":6406:6477   */\n      tag_96\n      jump\t// in\n    tag_198:\n        /* \"#utility.yul\":6262:6484   */\n      swap3\n      swap2\n      pop\n      pop\n      jump\t// out\n        /* \"#utility.yul\":6490:6608   */\n    tag_97:\n        /* \"#utility.yul\":6577:6601   */\n      tag_200\n        /* \"#utility.yul\":6595:6600   */\n      dup2\n        /* \"#utility.yul\":6577:6601   */\n      tag_74\n      jump\t// in\n    tag_200:\n        /* \"#utility.yul\":6572:6575   */\n      dup3\n        /* \"#utility.yul\":6565:6602   */\n      mstore\n        /* \"#utility.yul\":6490:6608   */\n      pop\n      pop\n      jump\t// out\n        /* \"#utility.yul\":6614:6836   */\n    tag_46:\n        /* \"#utility.yul\":6707:6711   */\n      0x00\n        /* \"#utility.yul\":6745:6747   */\n      0x20\n        /* \"#utility.yul\":6734:6743   */\n      dup3\n        /* \"#utility.yul\":6730:6748   */\n      add\n        /* \"#utility.yul\":6722:6748   */\n      swap1\n      pop\n        /* \"#utility.yul\":6758:6829   */\n      tag_202\n        /* \"#utility.yul\":6826:6827   */\n      0x00\n        /* \"#utility.yul\":6815:6824   */\n      dup4\n        /* \"#utility.yul\":6811:6828   */\n      add\n        /* \"#utility.yul\":6802:6808   */\n      dup5\n        /* \"#utility.yul\":6758:6829   */\n      tag_97\n      jump\t// in\n    tag_202:\n        /* \"#utility.yul\":6614:6836   */\n      swap3\n      swap2\n      pop\n      pop\n      jump\t// out\n        /* \"#utility.yul\":6842:7022   */\n    tag_98:\n        /* \"#utility.yul\":6890:6967   */\n      0x4e487b7100000000000000000000000000000000000000000000000000000000\n        /* \"#utility.yul\":6887:6888   */\n      0x00\n        /* \"#utility.yul\":6880:6968   */\n      mstore\n        /* \"#utility.yul\":6987:6991   */\n      0x11\n        /* \"#utility.yul\":6984:6985   */\n      0x04\n        /* \"#utility.yul\":6977:6992   */\n      mstore\n        /* \"#utility.yul\":7011:7015   */\n      0x24\n        /* \"#utility.yul\":7008:7009   */\n      0x00\n        /* \"#utility.yul\":7001:7016   */\n      revert\n        /* \"#utility.yul\":7028:7219   */\n    tag_50:\n        /* \"#utility.yul\":7068:7071   */\n      0x00\n        /* \"#utility.yul\":7087:7107   */\n      tag_205\n        /* \"#utility.yul\":7105:7106   */\n      dup3\n        /* \"#utility.yul\":7087:7107   */\n      tag_95\n      jump\t// in\n    tag_205:\n        /* \"#utility.yul\":7082:7107   */\n      swap2\n      pop\n        /* \"#utility.yul\":7121:7141   */\n      tag_206\n        /* \"#utility.yul\":7139:7140   */\n      dup4\n        /* \"#utility.yul\":7121:7141   */\n      tag_95\n      jump\t// in\n    tag_206:\n        /* \"#utility.yul\":7116:7141   */\n      swap3\n      pop\n        /* \"#utility.yul\":7164:7165   */\n      dup3\n        /* \"#utility.yul\":7161:7162   */\n      dup3\n        /* \"#utility.yul\":7157:7166   */\n      add\n        /* \"#utility.yul\":7150:7166   */\n      swap1\n      pop\n        /* \"#utility.yul\":7185:7188   */\n      dup1\n        /* \"#utility.yul\":7182:7183   */\n      dup3\n        /* \"#utility.yul\":7179:7189   */\n      gt\n        /* \"#utility.yul\":7176:7212   */\n      iszero\n      tag_207\n      jumpi\n        /* \"#utility.yul\":7192:7210   */\n      tag_208\n      tag_98\n      jump\t// in\n    tag_208:\n        /* \"#utility.yul\":7176:7212   */\n    tag_207:\n        /* \"#utility.yul\":7028:7219   */\n      swap3\n      swap2\n      pop\n      pop\n      jump\t// out\n        /* \"#utility.yul\":7225:7394   */\n    tag_99:\n        /* \"#utility.yul\":7309:7320   */\n      0x00\n        /* \"#utility.yul\":7343:7349   */\n      dup3\n        /* \"#utility.yul\":7338:7341   */\n      dup3\n        /* \"#utility.yul\":7331:7350   */\n      mstore\n        /* \"#utility.yul\":7383:7387   */\n      0x20\n        /* \"#utility.yul\":7378:7381   */\n      dup3\n        /* \"#utility.yul\":7374:7388   */\n      add\n        /* \"#utility.yul\":7359:7388   */\n      swap1\n      pop\n        /* \"#utility.yul\":7225:7394   */\n      swap3\n      swap2\n      pop\n      pop\n      jump\t// out\n        /* \"#utility.yul\":7400:7566   */\n    tag_100:\n        /* \"#utility.yul\":7540:7558   */\n      0x456e746572206120757365726e616d6500000000000000000000000000000000\n        /* \"#utility.yul\":7536:7537   */\n      0x00\n        /* \"#utility.yul\":7528:7534   */\n      dup3\n        /* \"#utility.yul\":7524:7538   */\n      add\n        /* \"#utility.yul\":7517:7559   */\n      mstore\n        /* \"#utility.yul\":7400:7566   */\n      pop\n      jump\t// out\n        /* \"#utility.yul\":7572:7938   */\n    tag_101:\n        /* \"#utility.yul\":7714:7717   */\n      0x00\n        /* \"#utility.yul\":7735:7802   */\n      tag_212\n        /* \"#utility.yul\":7799:7801   */\n      0x10\n        /* \"#utility.yul\":7794:7797   */\n      dup4\n        /* \"#utility.yul\":7735:7802   */\n      tag_99\n      jump\t// in\n    tag_212:\n        /* \"#utility.yul\":7728:7802   */\n      swap2\n      pop\n        /* \"#utility.yul\":7811:7904   */\n      tag_213\n        /* \"#utility.yul\":7900:7903   */\n      dup3\n        /* \"#utility.yul\":7811:7904   */\n      tag_100\n      jump\t// in\n    tag_213:\n        /* \"#utility.yul\":7929:7931   */\n      0x20\n        /* \"#utility.yul\":7924:7927   */\n      dup3\n        /* \"#utility.yul\":7920:7932   */\n      add\n        /* \"#utility.yul\":7913:7932   */\n      swap1\n      pop\n        /* \"#utility.yul\":7572:7938   */\n      swap2\n      swap1\n      pop\n      jump\t// out\n        /* \"#utility.yul\":7944:8363   */\n    tag_57:\n        /* \"#utility.yul\":8110:8114   */\n      0x00\n        /* \"#utility.yul\":8148:8150   */\n      0x20\n        /* \"#utility.yul\":8137:8146   */\n      dup3\n        /* \"#utility.yul\":8133:8151   */\n      add\n        /* \"#utility.yul\":8125:8151   */\n      swap1\n      pop\n        /* \"#utility.yul\":8197:8206   */\n      dup2\n        /* \"#utility.yul\":8191:8195   */\n      dup2\n        /* \"#utility.yul\":8187:8207   */\n      sub\n        /* \"#utility.yul\":8183:8184   */\n      0x00\n        /* \"#utility.yul\":8172:8181   */\n      dup4\n        /* \"#utility.yul\":8168:8185   */\n      add\n        /* \"#utility.yul\":8161:8208   */\n      mstore\n        /* \"#utility.yul\":8225:8356   */\n      tag_215\n        /* \"#utility.yul\":8351:8355   */\n      dup2\n        /* \"#utility.yul\":8225:8356   */\n      tag_101\n      jump\t// in\n    tag_215:\n        /* \"#utility.yul\":8217:8356   */\n      swap1\n      pop\n        /* \"#utility.yul\":7944:8363   */\n      swap2\n      swap1\n      pop\n      jump\t// out\n        /* \"#utility.yul\":8369:8468   */\n    tag_102:\n        /* \"#utility.yul\":8421:8427   */\n      0x00\n        /* \"#utility.yul\":8455:8460   */\n      dup2\n        /* \"#utility.yul\":8449:8461   */\n      mload\n        /* \"#utility.yul\":8439:8461   */\n      swap1\n      pop\n        /* \"#utility.yul\":8369:8468   */\n      swap2\n      swap1\n      pop\n      jump\t// out\n        /* \"#utility.yul\":8474:8654   */\n    tag_103:\n        /* \"#utility.yul\":8522:8599   */\n      0x4e487b7100000000000000000000000000000000000000000000000000000000\n        /* \"#utility.yul\":8519:8520   */\n      0x00\n        /* \"#utility.yul\":8512:8600   */\n      mstore\n        /* \"#utility.yul\":8619:8623   */\n      0x22\n        /* \"#utility.yul\":8616:8617   */\n      0x04\n        /* \"#utility.yul\":8609:8624   */\n      mstore\n        /* \"#utility.yul\":8643:8647   */\n      0x24\n        /* \"#utility.yul\":8640:8641   */\n      0x00\n        /* \"#utility.yul\":8633:8648   */\n      revert\n        /* \"#utility.yul\":8660:8980   */\n    tag_104:\n        /* \"#utility.yul\":8704:8710   */\n      0x00\n        /* \"#utility.yul\":8741:8742   */\n      0x02\n        /* \"#utility.yul\":8735:8739   */\n      dup3\n        /* \"#utility.yul\":8731:8743   */\n      div\n        /* \"#utility.yul\":8721:8743   */\n      swap1\n      pop\n        /* \"#utility.yul\":8788:8789   */\n      0x01\n        /* \"#utility.yul\":8782:8786   */\n      dup3\n        /* \"#utility.yul\":8778:8790   */\n      and\n        /* \"#utility.yul\":8809:8827   */\n      dup1\n        /* \"#utility.yul\":8799:8880   */\n      tag_219\n      jumpi\n        /* \"#utility.yul\":8865:8869   */\n      0x7f\n        /* \"#utility.yul\":8857:8863   */\n      dup3\n        /* \"#utility.yul\":8853:8870   */\n      and\n        /* \"#utility.yul\":8843:8870   */\n      swap2\n      pop\n        /* \"#utility.yul\":8799:8880   */\n    tag_219:\n        /* \"#utility.yul\":8927:8929   */\n      0x20\n        /* \"#utility.yul\":8919:8925   */\n      dup3\n        /* \"#utility.yul\":8916:8930   */\n      lt\n        /* \"#utility.yul\":8896:8914   */\n      dup2\n        /* \"#utility.yul\":8893:8931   */\n      sub\n        /* \"#utility.yul\":8890:8974   */\n      tag_220\n      jumpi\n        /* \"#utility.yul\":8946:8964   */\n      tag_221\n      tag_103\n      jump\t// in\n    tag_221:\n        /* \"#utility.yul\":8890:8974   */\n    tag_220:\n        /* \"#utility.yul\":8711:8980   */\n      pop\n        /* \"#utility.yul\":8660:8980   */\n      swap2\n      swap1\n      pop\n      jump\t// out\n        /* \"#utility.yul\":8986:9127   */\n    tag_105:\n        /* \"#utility.yul\":9035:9039   */\n      0x00\n        /* \"#utility.yul\":9058:9061   */\n      dup2\n        /* \"#utility.yul\":9050:9061   */\n      swap1\n      pop\n        /* \"#utility.yul\":9081:9084   */\n      dup2\n        /* \"#utility.yul\":9078:9079   */\n      0x00\n        /* \"#utility.yul\":9071:9085   */\n      mstore\n        /* \"#utility.yul\":9115:9119   */\n      0x20\n        /* \"#utility.yul\":9112:9113   */\n      0x00\n        /* \"#utility.yul\":9102:9120   */\n      keccak256\n        /* \"#utility.yul\":9094:9120   */\n      swap1\n      pop\n        /* \"#utility.yul\":8986:9127   */\n      swap2\n      swap1\n      pop\n      jump\t// out\n        /* \"#utility.yul\":9133:9226   */\n    tag_106:\n        /* \"#utility.yul\":9170:9176   */\n      0x00\n        /* \"#utility.yul\":9217:9219   */\n      0x20\n        /* \"#utility.yul\":9212:9214   */\n      0x1f\n        /* \"#utility.yul\":9205:9210   */\n      dup4\n        /* \"#utility.yul\":9201:9215   */\n      add\n        /* \"#utility.yul\":9197:9220   */\n      div\n        /* \"#utility.yul\":9187:9220   */\n      swap1\n      pop\n        /* \"#utility.yul\":9133:9226   */\n      swap2\n      swap1\n      pop\n      jump\t// out\n        /* \"#utility.yul\":9232:9339   */\n    tag_107:\n        /* \"#utility.yul\":9276:9284   */\n      0x00\n        /* \"#utility.yul\":9326:9331   */\n      dup3\n        /* \"#utility.yul\":9320:9324   */\n      dup3\n        /* \"#utility.yul\":9316:9332   */\n      shl\n        /* \"#utility.yul\":9295:9332   */\n      swap1\n      pop\n        /* \"#utility.yul\":9232:9339   */\n      swap3\n      swap2\n      pop\n      pop\n      jump\t// out\n        /* \"#utility.yul\":9345:9738   */\n    tag_108:\n        /* \"#utility.yul\":9414:9420   */\n      0x00\n        /* \"#utility.yul\":9464:9465   */\n      0x08\n        /* \"#utility.yul\":9452:9462   */\n      dup4\n        /* \"#utility.yul\":9448:9466   */\n      mul\n        /* \"#utility.yul\":9487:9584   */\n      tag_226\n        /* \"#utility.yul\":9517:9583   */\n      0xffffffffffffffffffffffffffffffffffffffffffffffffffffffffffffffff\n        /* \"#utility.yul\":9506:9515   */\n      dup3\n        /* \"#utility.yul\":9487:9584   */\n      tag_107\n      jump\t// in\n    tag_226:\n        /* \"#utility.yul\":9605:9644   */\n      tag_227\n        /* \"#utility.yul\":9635:9643   */\n      dup7\n        /* \"#utility.yul\":9624:9633   */\n      dup4\n        /* \"#utility.yul\":9605:9644   */\n      tag_107\n      jump\t// in\n    tag_227:\n        /* \"#utility.yul\":9593:9644   */\n      swap6\n      pop\n        /* \"#utility.yul\":9677:9681   */\n      dup1\n        /* \"#utility.yul\":9673:9682   */\n      not\n        /* \"#utility.yul\":9666:9671   */\n      dup5\n        /* \"#utility.yul\":9662:9683   */\n      and\n        /* \"#utility.yul\":9653:9683   */\n      swap4\n      pop\n        /* \"#utility.yul\":9726:9730   */\n      dup1\n        /* \"#utility.yul\":9716:9724   */\n      dup7\n        /* \"#utility.yul\":9712:9731   */\n      and\n        /* \"#utility.yul\":9705:9710   */\n      dup5\n        /* \"#utility.yul\":9702:9732   */\n      or\n        /* \"#utility.yul\":9692:9732   */\n      swap3\n      pop\n        /* \"#utility.yul\":9421:9738   */\n      pop\n      pop\n        /* \"#utility.yul\":9345:9738   */\n      swap4\n      swap3\n      pop\n      pop\n      pop\n      jump\t// out\n        /* \"#utility.yul\":9744:9804   */\n    tag_109:\n        /* \"#utility.yul\":9772:9775   */\n      0x00\n        /* \"#utility.yul\":9793:9798   */\n      dup2\n        /* \"#utility.yul\":9786:9798   */\n      swap1\n      pop\n        /* \"#utility.yul\":9744:9804   */\n      swap2\n      swap1\n      pop\n      jump\t// out\n        /* \"#utility.yul\":9810:9952   */\n    tag_110:\n        /* \"#utility.yul\":9860:9869   */\n      0x00\n        /* \"#utility.yul\":9893:9946   */\n      tag_230\n        /* \"#utility.yul\":9911:9945   */\n      tag_231\n        /* \"#utility.yul\":9920:9944   */\n      tag_232\n        /* \"#utility.yul\":9938:9943   */\n      dup5\n        /* \"#utility.yul\":9920:9944   */\n      tag_95\n      jump\t// in\n    tag_232:\n        /* \"#utility.yul\":9911:9945   */\n      tag_109\n      jump\t// in\n    tag_231:\n        /* \"#utility.yul\":9893:9946   */\n      tag_95\n      jump\t// in\n    tag_230:\n        /* \"#utility.yul\":9880:9946   */\n      swap1\n      pop\n        /* \"#utility.yul\":9810:9952   */\n      swap2\n      swap1\n      pop\n      jump\t// out\n        /* \"#utility.yul\":9958:10033   */\n    tag_111:\n        /* \"#utility.yul\":10001:10004   */\n      0x00\n        /* \"#utility.yul\":10022:10027   */\n      dup2\n        /* \"#utility.yul\":10015:10027   */\n      swap1\n      pop\n        /* \"#utility.yul\":9958:10033   */\n      swap2\n      swap1\n      pop\n      jump\t// out\n        /* \"#utility.yul\":10039:10308   */\n    tag_112:\n        /* \"#utility.yul\":10149:10188   */\n      tag_235\n        /* \"#utility.yul\":10180:10187   */\n      dup4\n        /* \"#utility.yul\":10149:10188   */\n      tag_110\n      jump\t// in\n    tag_235:\n        /* \"#utility.yul\":10210:10301   */\n      tag_236\n        /* \"#utility.yul\":10259:10300   */\n      tag_237\n        /* \"#utility.yul\":10283:10299   */\n      dup3\n        /* \"#utility.yul\":10259:10300   */\n      tag_111\n      jump\t// in\n    tag_237:\n        /* \"#utility.yul\":10251:10257   */\n      dup5\n        /* \"#utility.yul\":10244:10248   */\n      dup5\n        /* \"#utility.yul\":10238:10249   */\n      sload\n        /* \"#utility.yul\":10210:10301   */\n      tag_108\n      jump\t// in\n    tag_236:\n        /* \"#utility.yul\":10204:10208   */\n      dup3\n        /* \"#utility.yul\":10197:10302   */\n      sstore\n        /* \"#utility.yul\":10115:10308   */\n      pop\n        /* \"#utility.yul\":10039:10308   */\n      pop\n      pop\n      pop\n      jump\t// out\n        /* \"#utility.yul\":10314:10387   */\n    tag_113:\n        /* \"#utility.yul\":10359:10362   */\n      0x00\n        /* \"#utility.yul\":10380:10381   */\n      0x00\n        /* \"#utility.yul\":10373:10381   */\n      swap1\n      pop\n        /* \"#utility.yul\":10314:10387   */\n      swap1\n      jump\t// out\n        /* \"#utility.yul\":10393:10582   */\n    tag_114:\n        /* \"#utility.yul\":10470:10502   */\n      tag_240\n      tag_113\n      jump\t// in\n    tag_240:\n        /* \"#utility.yul\":10511:10576   */\n      tag_241\n        /* \"#utility.yul\":10569:10575   */\n      dup2\n        /* \"#utility.yul\":10561:10567   */\n      dup5\n        /* \"#utility.yul\":10555:10559   */\n      dup5\n        /* \"#utility.yul\":10511:10576   */\n      tag_112\n      jump\t// in\n    tag_241:\n        /* \"#utility.yul\":10446:10582   */\n      pop\n        /* \"#utility.yul\":10393:10582   */\n      pop\n      pop\n      jump\t// out\n        /* \"#utility.yul\":10588:10774   */\n    tag_115:\n        /* \"#utility.yul\":10648:10768   */\n    tag_243:\n        /* \"#utility.yul\":10665:10668   */\n      dup2\n        /* \"#utility.yul\":10658:10663   */\n      dup2\n        /* \"#utility.yul\":10655:10669   */\n      lt\n        /* \"#utility.yul\":10648:10768   */\n      iszero\n      tag_245\n      jumpi\n        /* \"#utility.yul\":10719:10758   */\n      tag_246\n        /* \"#utility.yul\":10756:10757   */\n      0x00\n        /* \"#utility.yul\":10749:10754   */\n      dup3\n        /* \"#utility.yul\":10719:10758   */\n      tag_114\n      jump\t// in\n    tag_246:\n        /* \"#utility.yul\":10692:10693   */\n      0x01\n        /* \"#utility.yul\":10685:10690   */\n      dup2\n        /* \"#utility.yul\":10681:10694   */\n      add\n        /* \"#utility.yul\":10672:10694   */\n      swap1\n      pop\n        /* \"#utility.yul\":10648:10768   */\n      jump(tag_243)\n    tag_245:\n        /* \"#utility.yul\":10588:10774   */\n      pop\n      pop\n      jump\t// out\n        /* \"#utility.yul\":10780:11323   */\n    tag_116:\n        /* \"#utility.yul\":10881:10883   */\n      0x1f\n        /* \"#utility.yul\":10876:10879   */\n      dup3\n        /* \"#utility.yul\":10873:10884   */\n      gt\n        /* \"#utility.yul\":10870:11316   */\n      iszero\n      tag_248\n      jumpi\n        /* \"#utility.yul\":10915:10953   */\n      tag_249\n        /* \"#utility.yul\":10947:10952   */\n      dup2\n        /* \"#utility.yul\":10915:10953   */\n      tag_105\n      jump\t// in\n    tag_249:\n        /* \"#utility.yul\":10999:11028   */\n      tag_250\n        /* \"#utility.yul\":11017:11027   */\n      dup5\n        /* \"#utility.yul\":10999:11028   */\n      tag_106\n      jump\t// in\n    tag_250:\n        /* \"#utility.yul\":10989:10997   */\n      dup2\n        /* \"#utility.yul\":10985:11029   */\n      add\n        /* \"#utility.yul\":11182:11184   */\n      0x20\n        /* \"#utility.yul\":11170:11180   */\n      dup6\n        /* \"#utility.yul\":11167:11185   */\n      lt\n        /* \"#utility.yul\":11164:11213   */\n      iszero\n      tag_251\n      jumpi\n        /* \"#utility.yul\":11203:11211   */\n      dup2\n        /* \"#utility.yul\":11188:11211   */\n      swap1\n      pop\n        /* \"#utility.yul\":11164:11213   */\n    tag_251:\n        /* \"#utility.yul\":11226:11306   */\n      tag_252\n        /* \"#utility.yul\":11282:11304   */\n      tag_253\n        /* \"#utility.yul\":11300:11303   */\n      dup6\n        /* \"#utility.yul\":11282:11304   */\n      tag_106\n      jump\t// in\n    tag_253:\n        /* \"#utility.yul\":11272:11280   */\n      dup4\n        /* \"#utility.yul\":11268:11305   */\n      add\n        /* \"#utility.yul\":11255:11266   */\n      dup3\n        /* \"#utility.yul\":11226:11306   */\n      tag_115\n      jump\t// in\n    tag_252:\n        /* \"#utility.yul\":10885:11316   */\n      pop\n      pop\n        /* \"#utility.yul\":10870:11316   */\n    tag_248:\n        /* \"#utility.yul\":10780:11323   */\n      pop\n      pop\n      pop\n      jump\t// out\n        /* \"#utility.yul\":11329:11446   */\n    tag_117:\n        /* \"#utility.yul\":11383:11391   */\n      0x00\n        /* \"#utility.yul\":11433:11438   */\n      dup3\n        /* \"#utility.yul\":11427:11431   */\n      dup3\n        /* \"#utility.yul\":11423:11439   */\n      shr\n        /* \"#utility.yul\":11402:11439   */\n      swap1\n      pop\n        /* \"#utility.yul\":11329:11446   */\n      swap3\n      swap2\n      pop\n      pop\n      jump\t// out\n        /* \"#utility.yul\":11452:11621   */\n    tag_118:\n        /* \"#utility.yul\":11496:11502   */\n      0x00\n        /* \"#utility.yul\":11529:11580   */\n      tag_256\n        /* \"#utility.yul\":11577:11578   */\n      0x00\n        /* \"#utility.yul\":11573:11579   */\n      not\n        /* \"#utility.yul\":11565:11570   */\n      dup5\n        /* \"#utility.yul\":11562:11563   */\n      0x08\n        /* \"#utility.yul\":11558:11571   */\n      mul\n        /* \"#utility.yul\":11529:11580   */\n      tag_117\n      jump\t// in\n    tag_256:\n        /* \"#utility.yul\":11525:11581   */\n      not\n        /* \"#utility.yul\":11610:11614   */\n      dup1\n        /* \"#utility.yul\":11604:11608   */\n      dup4\n        /* \"#utility.yul\":11600:11615   */\n      and\n        /* \"#utility.yul\":11590:11615   */\n      swap2\n      pop\n        /* \"#utility.yul\":11503:11621   */\n      pop\n        /* \"#utility.yul\":11452:11621   */\n      swap3\n      swap2\n      pop\n      pop\n      jump\t// out\n        /* \"#utility.yul\":11626:11921   */\n    tag_119:\n        /* \"#utility.yul\":11702:11706   */\n      0x00\n        /* \"#utility.yul\":11848:11877   */\n      tag_258\n        /* \"#utility.yul\":11873:11876   */\n      dup4\n        /* \"#utility.yul\":11867:11871   */\n      dup4\n        /* \"#utility.yul\":11848:11877   */\n      tag_118\n      jump\t// in\n    tag_258:\n        /* \"#utility.yul\":11840:11877   */\n      swap2\n      pop\n        /* \"#utility.yul\":11910:11913   */\n      dup3\n        /* \"#utility.yul\":11907:11908   */\n      0x02\n        /* \"#utility.yul\":11903:11914   */\n      mul\n        /* \"#utility.yul\":11897:11901   */\n      dup3\n        /* \"#utility.yul\":11894:11915   */\n      or\n        /* \"#utility.yul\":11886:11915   */\n      swap1\n      pop\n        /* \"#utility.yul\":11626:11921   */\n      swap3\n      swap2\n      pop\n      pop\n      jump\t// out\n        /* \"#utility.yul\":11926:13321   */\n    tag_59:\n        /* \"#utility.yul\":12043:12080   */\n      tag_260\n        /* \"#utility.yul\":12076:12079   */\n      dup3\n        /* \"#utility.yul\":12043:12080   */\n      tag_102\n      jump\t// in\n    tag_260:\n        /* \"#utility.yul\":12145:12163   */\n      0xffffffffffffffff\n        /* \"#utility.yul\":12137:12143   */\n      dup2\n        /* \"#utility.yul\":12134:12164   */\n      gt\n        /* \"#utility.yul\":12131:12187   */\n      iszero\n      tag_261\n      jumpi\n        /* \"#utility.yul\":12167:12185   */\n      tag_262\n      tag_80\n      jump\t// in\n    tag_262:\n        /* \"#utility.yul\":12131:12187   */\n    tag_261:\n        /* \"#utility.yul\":12211:12249   */\n      tag_263\n        /* \"#utility.yul\":12243:12247   */\n      dup3\n        /* \"#utility.yul\":12237:12248   */\n      sload\n        /* \"#utility.yul\":12211:12249   */\n      tag_104\n      jump\t// in\n    tag_263:\n        /* \"#utility.yul\":12296:12363   */\n      tag_264\n        /* \"#utility.yul\":12356:12362   */\n      dup3\n        /* \"#utility.yul\":12348:12354   */\n      dup3\n        /* \"#utility.yul\":12342:12346   */\n      dup6\n        /* \"#utility.yul\":12296:12363   */\n      tag_116\n      jump\t// in\n    tag_264:\n        /* \"#utility.yul\":12390:12391   */\n      0x00\n        /* \"#utility.yul\":12414:12418   */\n      0x20\n        /* \"#utility.yul\":12401:12418   */\n      swap1\n      pop\n        /* \"#utility.yul\":12446:12448   */\n      0x1f\n        /* \"#utility.yul\":12438:12444   */\n      dup4\n        /* \"#utility.yul\":12435:12449   */\n      gt\n        /* \"#utility.yul\":12463:12464   */\n      0x01\n        /* \"#utility.yul\":12458:13076   */\n      dup2\n      eq\n      tag_266\n      jumpi\n        /* \"#utility.yul\":13120:13121   */\n      0x00\n        /* \"#utility.yul\":13137:13143   */\n      dup5\n        /* \"#utility.yul\":13134:13211   */\n      iszero\n      tag_267\n      jumpi\n        /* \"#utility.yul\":13186:13195   */\n      dup3\n        /* \"#utility.yul\":13181:13184   */\n      dup8\n        /* \"#utility.yul\":13177:13196   */\n      add\n        /* \"#utility.yul\":13171:13197   */\n      mload\n        /* \"#utility.yul\":13162:13197   */\n      swap1\n      pop\n        /* \"#utility.yul\":13134:13211   */\n    tag_267:\n        /* \"#utility.yul\":13237:13304   */\n      tag_268\n        /* \"#utility.yul\":13297:13303   */\n      dup6\n        /* \"#utility.yul\":13290:13295   */\n      dup3\n        /* \"#utility.yul\":13237:13304   */\n      tag_119\n      jump\t// in\n    tag_268:\n        /* \"#utility.yul\":13231:13235   */\n      dup7\n        /* \"#utility.yul\":13224:13305   */\n      sstore\n        /* \"#utility.yul\":13093:13315   */\n      pop\n        /* \"#utility.yul\":12428:13315   */\n      jump(tag_265)\n        /* \"#utility.yul\":12458:13076   */\n    tag_266:\n        /* \"#utility.yul\":12510:12514   */\n      0x1f\n        /* \"#utility.yul\":12506:12515   */\n      not\n        /* \"#utility.yul\":12498:12504   */\n      dup5\n        /* \"#utility.yul\":12494:12516   */\n      and\n        /* \"#utility.yul\":12544:12581   */\n      tag_269\n        /* \"#utility.yul\":12576:12580   */\n      dup7\n        /* \"#utility.yul\":12544:12581   */\n      tag_105\n      jump\t// in\n    tag_269:\n        /* \"#utility.yul\":12603:12604   */\n      0x00\n        /* \"#utility.yul\":12617:12825   */\n    tag_270:\n        /* \"#utility.yul\":12631:12638   */\n      dup3\n        /* \"#utility.yul\":12628:12629   */\n      dup2\n        /* \"#utility.yul\":12625:12639   */\n      lt\n        /* \"#utility.yul\":12617:12825   */\n      iszero\n      tag_272\n      jumpi\n        /* \"#utility.yul\":12710:12719   */\n      dup5\n        /* \"#utility.yul\":12705:12708   */\n      dup10\n        /* \"#utility.yul\":12701:12720   */\n      add\n        /* \"#utility.yul\":12695:12721   */\n      mload\n        /* \"#utility.yul\":12687:12693   */\n      dup3\n        /* \"#utility.yul\":12680:12722   */\n      sstore\n        /* \"#utility.yul\":12761:12762   */\n      0x01\n        /* \"#utility.yul\":12753:12759   */\n      dup3\n        /* \"#utility.yul\":12749:12763   */\n      add\n        /* \"#utility.yul\":12739:12763   */\n      swap2\n      pop\n        /* \"#utility.yul\":12808:12810   */\n      0x20\n        /* \"#utility.yul\":12797:12806   */\n      dup6\n        /* \"#utility.yul\":12793:12811   */\n      add\n        /* \"#utility.yul\":12780:12811   */\n      swap5\n      pop\n        /* \"#utility.yul\":12654:12658   */\n      0x20\n        /* \"#utility.yul\":12651:12652   */\n      dup2\n        /* \"#utility.yul\":12647:12659   */\n      add\n        /* \"#utility.yul\":12642:12659   */\n      swap1\n      pop\n        /* \"#utility.yul\":12617:12825   */\n      jump(tag_270)\n    tag_272:\n        /* \"#utility.yul\":12853:12859   */\n      dup7\n        /* \"#utility.yul\":12844:12851   */\n      dup4\n        /* \"#utility.yul\":12841:12860   */\n      lt\n        /* \"#utility.yul\":12838:13017   */\n      iszero\n      tag_273\n      jumpi\n        /* \"#utility.yul\":12911:12920   */\n      dup5\n        /* \"#utility.yul\":12906:12909   */\n      dup10\n        /* \"#utility.yul\":12902:12921   */\n      add\n        /* \"#utility.yul\":12896:12922   */\n      mload\n        /* \"#utility.yul\":12954:13002   */\n      tag_274\n        /* \"#utility.yul\":12996:13000   */\n      0x1f\n        /* \"#utility.yul\":12988:12994   */\n      dup10\n        /* \"#utility.yul\":12984:13001   */\n      and\n        /* \"#utility.yul\":12973:12982   */\n      dup3\n        /* \"#utility.yul\":12954:13002   */\n      tag_118\n      jump\t// in\n    tag_274:\n        /* \"#utility.yul\":12946:12952   */\n      dup4\n        /* \"#utility.yul\":12939:13003   */\n      sstore\n        /* \"#utility.yul\":12861:13017   */\n      pop\n        /* \"#utility.yul\":12838:13017   */\n    tag_273:\n        /* \"#utility.yul\":13063:13064   */\n      0x01\n        /* \"#utility.yul\":13059:13060   */\n      0x02\n        /* \"#utility.yul\":13051:13057   */\n      dup9\n        /* \"#utility.yul\":13047:13061   */\n      mul\n        /* \"#utility.yul\":13043:13065   */\n      add\n        /* \"#utility.yul\":13037:13041   */\n      dup9\n        /* \"#utility.yul\":13030:13066   */\n      sstore\n        /* \"#utility.yul\":12465:13076   */\n      pop\n      pop\n      pop\n        /* \"#utility.yul\":12428:13315   */\n    tag_265:\n      pop\n        /* \"#utility.yul\":12018:13321   */\n      pop\n      pop\n      pop\n        /* \"#utility.yul\":11926:13321   */\n      pop\n      pop\n      jump\t// out\n        /* \"#utility.yul\":13327:13560   */\n    tag_61:\n        /* \"#utility.yul\":13366:13369   */\n      0x00\n        /* \"#utility.yul\":13389:13413   */\n      tag_276\n        /* \"#utility.yul\":13407:13412   */\n      dup3\n        /* \"#utility.yul\":13389:13413   */\n      tag_95\n      jump\t// in\n    tag_276:\n        /* \"#utility.yul\":13380:13413   */\n      swap2\n      pop\n        /* \"#utility.yul\":13435:13501   */\n      0xffffffffffffffffffffffffffffffffffffffffffffffffffffffffffffffff\n        /* \"#utility.yul\":13428:13433   */\n      dup3\n        /* \"#utility.yul\":13425:13502   */\n      sub\n        /* \"#utility.yul\":13422:13525   */\n      tag_277\n      jumpi\n        /* \"#utility.yul\":13505:13523   */\n      tag_278\n      tag_98\n      jump\t// in\n    tag_278:\n        /* \"#utility.yul\":13422:13525   */\n    tag_277:\n        /* \"#utility.yul\":13552:13553   */\n      0x01\n        /* \"#utility.yul\":13545:13550   */\n      dup3\n        /* \"#utility.yul\":13541:13554   */\n      add\n        /* \"#utility.yul\":13534:13554   */\n      swap1\n      pop\n        /* \"#utility.yul\":13327:13560   */\n      swap2\n      swap1\n      pop\n      jump\t// out\n\n    auxdata: 0xa2646970667358221220ee3f8561ac7fc7b9a44b368e030dd9b866c0f477946f4af028c657824bea006c64736f6c634300081f0033\n}\n",
				"bytecode": {
					"linkReferences": {},
					"object": "60806040525f6002553480156012575f5ffd5b503360045f6101000a81548173ffffffffffffffffffffffffffffffffffffffff021916908373ffffffffffffffffffffffffffffffffffffffff160217905550610da7806100605f395ff3fe60806040526004361061006f575f3560e01c8063993746421161004d57806399374642146100df578063c3c5a5471461011b578063e3d670d714610157578063f851a440146101935761006f565b806304ab7197146100735780635b0025ad1461008f5780636b4fd2ad146100b7575b5f5ffd5b61008d60048036038101906100889190610655565b6101bd565b005b34801561009a575f5ffd5b506100b560048036038101906100b091906107bc565b610299565b005b3480156100c2575f5ffd5b506100dd60048036038101906100d89190610826565b61042e565b005b3480156100ea575f5ffd5b5061010560048036038101906101009190610655565b610577565b60405161011291906108d7565b60405180910390f35b348015610126575f5ffd5b50610141600480360381019061013c9190610655565b610594565b60405161014e919061090a565b60405180910390f35b348015610162575f5ffd5b5061017d60048036038101906101789190610655565b6105b1565b60405161018a919061093b565b60405180910390f35b34801561019e575f5ffd5b506101a76105c5565b6040516101b49190610963565b60405180910390f35b5f34116101f6576040517f2c5211c600000000000000000000000000000000000000000000000000000000815260040160405180910390fd5b345f5f8373ffffffffffffffffffffffffffffffffffffffff1673ffffffffffffffffffffffffffffffffffffffff1681526020019081526020015f205f82825461024191906109a9565b925050819055508073ffffffffffffffffffffffffffffffffffffffff167f134e340554ff8a7d64280a2a28b982df554e2595e5bf45cd39368f31099172a63460405161028e919061093b565b60405180910390a250565b60015f3373ffffffffffffffffffffffffffffffffffffffff1673ffffffffffffffffffffffffffffffffffffffff1681526020019081526020015f205f9054906101000a900460ff16153390610326576040517f240cdbf000000000000000000000000000000000000000000000000000000000815260040161031d9190610963565b60405180910390fd5b505f81510361036a576040517f08c379a000000000000000000000000000000000000000000000000000000000815260040161036190610a36565b60405180910390fd5b6001805f3373ffffffffffffffffffffffffffffffffffffffff1673ffffffffffffffffffffffffffffffffffffffff1681526020019081526020015f205f6101000a81548160ff02191690831515021790555080600390816103cd9190610c5b565b505f60025f8154809291906103e190610d2a565b919050559050803373ffffffffffffffffffffffffffffffffffffffff167e7dc6ab80cc84c043b7b8d4fcafc802187470087f7ea7fccd2e17aecd0256a160405160405180910390a35050565b60045f9054906101000a900473ffffffffffffffffffffffffffffffffffffffff1673ffffffffffffffffffffffffffffffffffffffff163373ffffffffffffffffffffffffffffffffffffffff161433906104c0576040517f17a842420000000000000000000000000000000000000000000000000000000081526004016104b79190610963565b60405180910390fd5b508060055f8473ffffffffffffffffffffffffffffffffffffffff1673ffffffffffffffffffffffffffffffffffffffff1681526020019081526020015f205f6101000a81548160ff021916908360028111156105205761051f610864565b5b02179055508173ffffffffffffffffffffffffffffffffffffffff167fda4d41475ec50aa8531c242d7d7a0aad94df435c0be1f0cbf130f862bb38290e8260405161056b91906108d7565b60405180910390a25050565b6005602052805f5260405f205f915054906101000a900460ff1681565b6001602052805f5260405f205f915054906101000a900460ff1681565b5f602052805f5260405f205f915090505481565b60045f9054906101000a900473ffffffffffffffffffffffffffffffffffffffff1681565b5f604051905090565b5f5ffd5b5f5ffd5b5f73ffffffffffffffffffffffffffffffffffffffff82169050919050565b5f610624826105fb565b9050919050565b6106348161061a565b811461063e575f5ffd5b50565b5f8135905061064f8161062b565b92915050565b5f6020828403121561066a576106696105f3565b5b5f61067784828501610641565b91505092915050565b5f5ffd5b5f5ffd5b5f601f19601f8301169050919050565b7f4e487b71000000000000000000000000000000000000000000000000000000005f52604160045260245ffd5b6106ce82610688565b810181811067ffffffffffffffff821117156106ed576106ec610698565b5b80604052505050565b5f6106ff6105ea565b905061070b82826106c5565b919050565b5f67ffffffffffffffff82111561072a57610729610698565b5b61073382610688565b9050602081019050919050565b828183375f83830152505050565b5f61076061075b84610710565b6106f6565b90508281526020810184848401111561077c5761077b610684565b5b610787848285610740565b509392505050565b5f82601f8301126107a3576107a2610680565b5b81356107b384826020860161074e565b91505092915050565b5f602082840312156107d1576107d06105f3565b5b5f82013567ffffffffffffffff8111156107ee576107ed6105f7565b5b6107fa8482850161078f565b91505092915050565b6003811061080f575f5ffd5b50565b5f8135905061082081610803565b92915050565b5f5f6040838503121561083c5761083b6105f3565b5b5f61084985828601610641565b925050602061085a85828601610812565b9150509250929050565b7f4e487b71000000000000000000000000000000000000000000000000000000005f52602160045260245ffd5b600381106108a2576108a1610864565b5b50565b5f8190506108b282610891565b919050565b5f6108c1826108a5565b9050919050565b6108d1816108b7565b82525050565b5f6020820190506108ea5f8301846108c8565b92915050565b5f8115159050919050565b610904816108f0565b82525050565b5f60208201905061091d5f8301846108fb565b92915050565b5f819050919050565b61093581610923565b82525050565b5f60208201905061094e5f83018461092c565b92915050565b61095d8161061a565b82525050565b5f6020820190506109765f830184610954565b92915050565b7f4e487b71000000000000000000000000000000000000000000000000000000005f52601160045260245ffd5b5f6109b382610923565b91506109be83610923565b92508282019050808211156109d6576109d561097c565b5b92915050565b5f82825260208201905092915050565b7f456e746572206120757365726e616d65000000000000000000000000000000005f82015250565b5f610a206010836109dc565b9150610a2b826109ec565b602082019050919050565b5f6020820190508181035f830152610a4d81610a14565b9050919050565b5f81519050919050565b7f4e487b71000000000000000000000000000000000000000000000000000000005f52602260045260245ffd5b5f6002820490506001821680610aa257607f821691505b602082108103610ab557610ab4610a5e565b5b50919050565b5f819050815f5260205f209050919050565b5f6020601f8301049050919050565b5f82821b905092915050565b5f60088302610b177fffffffffffffffffffffffffffffffffffffffffffffffffffffffffffffffff82610adc565b610b218683610adc565b95508019841693508086168417925050509392505050565b5f819050919050565b5f610b5c610b57610b5284610923565b610b39565b610923565b9050919050565b5f819050919050565b610b7583610b42565b610b89610b8182610b63565b848454610ae8565b825550505050565b5f5f905090565b610ba0610b91565b610bab818484610b6c565b505050565b5b81811015610bce57610bc35f82610b98565b600181019050610bb1565b5050565b601f821115610c1357610be481610abb565b610bed84610acd565b81016020851015610bfc578190505b610c10610c0885610acd565b830182610bb0565b50505b505050565b5f82821c905092915050565b5f610c335f1984600802610c18565b1980831691505092915050565b5f610c4b8383610c24565b9150826002028217905092915050565b610c6482610a54565b67ffffffffffffffff811115610c7d57610c7c610698565b5b610c878254610a8b565b610c92828285610bd2565b5f60209050601f831160018114610cc3575f8415610cb1578287015190505b610cbb8582610c40565b865550610d22565b601f198416610cd186610abb565b5f5b82811015610cf857848901518255600182019150602085019450602081019050610cd3565b86831015610d155784890151610d11601f891682610c24565b8355505b6001600288020188555050505b505050505050565b5f610d3482610923565b91507fffffffffffffffffffffffffffffffffffffffffffffffffffffffffffffffff8203610d6657610d6561097c565b5b60018201905091905056fea2646970667358221220ee3f8561ac7fc7b9a44b368e030dd9b866c0f477946f4af028c657824bea006c64736f6c634300081f0033",
					"opcodes": "PUSH1 0x80 PUSH1 0x40 MSTORE PUSH0 PUSH1 0x2 SSTORE CALLVALUE DUP1 ISZERO PUSH1 0x12 JUMPI PUSH0 PUSH0 REVERT JUMPDEST POP CALLER PUSH1 0x4 PUSH0 PUSH2 0x100 EXP DUP2 SLOAD DUP2 PUSH20 0xFFFFFFFFFFFFFFFFFFFFFFFFFFFFFFFFFFFFFFFF MUL NOT AND SWAP1 DUP4 PUSH20 0xFFFFFFFFFFFFFFFFFFFFFFFFFFFFFFFFFFFFFFFF AND MUL OR SWAP1 SSTORE POP PUSH2 0xDA7 DUP1 PUSH2 0x60 PUSH0 CODECOPY PUSH0 RETURN INVALID PUSH1 0x80 PUSH1 0x40 MSTORE PUSH1 0x4 CALLDATASIZE LT PUSH2 0x6F JUMPI PUSH0 CALLDATALOAD PUSH1 0xE0 SHR DUP1 PUSH4 0x99374642 GT PUSH2 0x4D JUMPI DUP1 PUSH4 0x99374642 EQ PUSH2 0xDF JUMPI DUP1 PUSH4 0xC3C5A547 EQ PUSH2 0x11B JUMPI DUP1 PUSH4 0xE3D670D7 EQ PUSH2 0x157 JUMPI DUP1 PUSH4 0xF851A440 EQ PUSH2 0x193 JUMPI PUSH2 0x6F JUMP JUMPDEST DUP1 PUSH4 0x4AB7197 EQ PUSH2 0x73 JUMPI DUP1 PUSH4 0x5B0025AD EQ PUSH2 0x8F JUMPI DUP1 PUSH4 0x6B4FD2AD EQ PUSH2 0xB7 JUMPI JUMPDEST PUSH0 PUSH0 REVERT JUMPDEST PUSH2 0x8D PUSH1 0x4 DUP1 CALLDATASIZE SUB DUP2 ADD SWAP1 PUSH2 0x88 SWAP2 SWAP1 PUSH2 0x655 JUMP JUMPDEST PUSH2 0x1BD JUMP JUMPDEST STOP JUMPDEST CALLVALUE DUP1 ISZERO PUSH2 0x9A JUMPI PUSH0 PUSH0 REVERT JUMPDEST POP PUSH2 0xB5 PUSH1 0x4 DUP1 CALLDATASIZE SUB DUP2 ADD SWAP1 PUSH2 0xB0 SWAP2 SWAP1 PUSH2 0x7BC JUMP JUMPDEST PUSH2 0x299 JUMP JUMPDEST STOP JUMPDEST CALLVALUE DUP1 ISZERO PUSH2 0xC2 JUMPI PUSH0 PUSH0 REVERT JUMPDEST POP PUSH2 0xDD PUSH1 0x4 DUP1 CALLDATASIZE SUB DUP2 ADD SWAP1 PUSH2 0xD8 SWAP2 SWAP1 PUSH2 0x826 JUMP JUMPDEST PUSH2 0x42E JUMP JUMPDEST STOP JUMPDEST CALLVALUE DUP1 ISZERO PUSH2 0xEA JUMPI PUSH0 PUSH0 REVERT JUMPDEST POP PUSH2 0x105 PUSH1 0x4 DUP1 CALLDATASIZE SUB DUP2 ADD SWAP1 PUSH2 0x100 SWAP2 SWAP1 PUSH2 0x655 JUMP JUMPDEST PUSH2 0x577 JUMP JUMPDEST PUSH1 0x40 MLOAD PUSH2 0x112 SWAP2 SWAP1 PUSH2 0x8D7 JUMP JUMPDEST PUSH1 0x40 MLOAD DUP1 SWAP2 SUB SWAP1 RETURN JUMPDEST CALLVALUE DUP1 ISZERO PUSH2 0x126 JUMPI PUSH0 PUSH0 REVERT JUMPDEST POP PUSH2 0x141 PUSH1 0x4 DUP1 CALLDATASIZE SUB DUP2 ADD SWAP1 PUSH2 0x13C SWAP2 SWAP1 PUSH2 0x655 JUMP JUMPDEST PUSH2 0x594 JUMP JUMPDEST PUSH1 0x40 MLOAD PUSH2 0x14E SWAP2 SWAP1 PUSH2 0x90A JUMP JUMPDEST PUSH1 0x40 MLOAD DUP1 SWAP2 SUB SWAP1 RETURN JUMPDEST CALLVALUE DUP1 ISZERO PUSH2 0x162 JUMPI PUSH0 PUSH0 REVERT JUMPDEST POP PUSH2 0x17D PUSH1 0x4 DUP1 CALLDATASIZE SUB DUP2 ADD SWAP1 PUSH2 0x178 SWAP2 SWAP1 PUSH2 0x655 JUMP JUMPDEST PUSH2 0x5B1 JUMP JUMPDEST PUSH1 0x40 MLOAD PUSH2 0x18A SWAP2 SWAP1 PUSH2 0x93B JUMP JUMPDEST PUSH1 0x40 MLOAD DUP1 SWAP2 SUB SWAP1 RETURN JUMPDEST CALLVALUE DUP1 ISZERO PUSH2 0x19E JUMPI PUSH0 PUSH0 REVERT JUMPDEST POP PUSH2 0x1A7 PUSH2 0x5C5 JUMP JUMPDEST PUSH1 0x40 MLOAD PUSH2 0x1B4 SWAP2 SWAP1 PUSH2 0x963 JUMP JUMPDEST PUSH1 0x40 MLOAD DUP1 SWAP2 SUB SWAP1 RETURN JUMPDEST PUSH0 CALLVALUE GT PUSH2 0x1F6 JUMPI PUSH1 0x40 MLOAD PUSH32 0x2C5211C600000000000000000000000000000000000000000000000000000000 DUP2 MSTORE PUSH1 0x4 ADD PUSH1 0x40 MLOAD DUP1 SWAP2 SUB SWAP1 REVERT JUMPDEST CALLVALUE PUSH0 PUSH0 DUP4 PUSH20 0xFFFFFFFFFFFFFFFFFFFFFFFFFFFFFFFFFFFFFFFF AND PUSH20 0xFFFFFFFFFFFFFFFFFFFFFFFFFFFFFFFFFFFFFFFF AND DUP2 MSTORE PUSH1 0x20 ADD SWAP1 DUP2 MSTORE PUSH1 0x20 ADD PUSH0 KECCAK256 PUSH0 DUP3 DUP3 SLOAD PUSH2 0x241 SWAP2 SWAP1 PUSH2 0x9A9 JUMP JUMPDEST SWAP3 POP POP DUP2 SWAP1 SSTORE POP DUP1 PUSH20 0xFFFFFFFFFFFFFFFFFFFFFFFFFFFFFFFFFFFFFFFF AND PUSH32 0x134E340554FF8A7D64280A2A28B982DF554E2595E5BF45CD39368F31099172A6 CALLVALUE PUSH1 0x40 MLOAD PUSH2 0x28E SWAP2 SWAP1 PUSH2 0x93B JUMP JUMPDEST PUSH1 0x40 MLOAD DUP1 SWAP2 SUB SWAP1 LOG2 POP JUMP JUMPDEST PUSH1 0x1 PUSH0 CALLER PUSH20 0xFFFFFFFFFFFFFFFFFFFFFFFFFFFFFFFFFFFFFFFF AND PUSH20 0xFFFFFFFFFFFFFFFFFFFFFFFFFFFFFFFFFFFFFFFF AND DUP2 MSTORE PUSH1 0x20 ADD SWAP1 DUP2 MSTORE PUSH1 0x20 ADD PUSH0 KECCAK256 PUSH0 SWAP1 SLOAD SWAP1 PUSH2 0x100 EXP SWAP1 DIV PUSH1 0xFF AND ISZERO CALLER SWAP1 PUSH2 0x326 JUMPI PUSH1 0x40 MLOAD PUSH32 0x240CDBF000000000000000000000000000000000000000000000000000000000 DUP2 MSTORE PUSH1 0x4 ADD PUSH2 0x31D SWAP2 SWAP1 PUSH2 0x963 JUMP JUMPDEST PUSH1 0x40 MLOAD DUP1 SWAP2 SUB SWAP1 REVERT JUMPDEST POP PUSH0 DUP2 MLOAD SUB PUSH2 0x36A JUMPI PUSH1 0x40 MLOAD PUSH32 0x8C379A000000000000000000000000000000000000000000000000000000000 DUP2 MSTORE PUSH1 0x4 ADD PUSH2 0x361 SWAP1 PUSH2 0xA36 JUMP JUMPDEST PUSH1 0x40 MLOAD DUP1 SWAP2 SUB SWAP1 REVERT JUMPDEST PUSH1 0x1 DUP1 PUSH0 CALLER PUSH20 0xFFFFFFFFFFFFFFFFFFFFFFFFFFFFFFFFFFFFFFFF AND PUSH20 0xFFFFFFFFFFFFFFFFFFFFFFFFFFFFFFFFFFFFFFFF AND DUP2 MSTORE PUSH1 0x20 ADD SWAP1 DUP2 MSTORE PUSH1 0x20 ADD PUSH0 KECCAK256 PUSH0 PUSH2 0x100 EXP DUP2 SLOAD DUP2 PUSH1 0xFF MUL NOT AND SWAP1 DUP4 ISZERO ISZERO MUL OR SWAP1 SSTORE POP DUP1 PUSH1 0x3 SWAP1 DUP2 PUSH2 0x3CD SWAP2 SWAP1 PUSH2 0xC5B JUMP JUMPDEST POP PUSH0 PUSH1 0x2 PUSH0 DUP2 SLOAD DUP1 SWAP3 SWAP2 SWAP1 PUSH2 0x3E1 SWAP1 PUSH2 0xD2A JUMP JUMPDEST SWAP2 SWAP1 POP SSTORE SWAP1 POP DUP1 CALLER PUSH20 0xFFFFFFFFFFFFFFFFFFFFFFFFFFFFFFFFFFFFFFFF AND PUSH31 0x7DC6AB80CC84C043B7B8D4FCAFC802187470087F7EA7FCCD2E17AECD0256A1 PUSH1 0x40 MLOAD PUSH1 0x40 MLOAD DUP1 SWAP2 SUB SWAP1 LOG3 POP POP JUMP JUMPDEST PUSH1 0x4 PUSH0 SWAP1 SLOAD SWAP1 PUSH2 0x100 EXP SWAP1 DIV PUSH20 0xFFFFFFFFFFFFFFFFFFFFFFFFFFFFFFFFFFFFFFFF AND PUSH20 0xFFFFFFFFFFFFFFFFFFFFFFFFFFFFFFFFFFFFFFFF AND CALLER PUSH20 0xFFFFFFFFFFFFFFFFFFFFFFFFFFFFFFFFFFFFFFFF AND EQ CALLER SWAP1 PUSH2 0x4C0 JUMPI PUSH1 0x40 MLOAD PUSH32 0x17A8424200000000000000000000000000000000000000000000000000000000 DUP2 MSTORE PUSH1 0x4 ADD PUSH2 0x4B7 SWAP2 SWAP1 PUSH2 0x963 JUMP JUMPDEST PUSH1 0x40 MLOAD DUP1 SWAP2 SUB SWAP1 REVERT JUMPDEST POP DUP1 PUSH1 0x5 PUSH0 DUP5 PUSH20 0xFFFFFFFFFFFFFFFFFFFFFFFFFFFFFFFFFFFFFFFF AND PUSH20 0xFFFFFFFFFFFFFFFFFFFFFFFFFFFFFFFFFFFFFFFF AND DUP2 MSTORE PUSH1 0x20 ADD SWAP1 DUP2 MSTORE PUSH1 0x20 ADD PUSH0 KECCAK256 PUSH0 PUSH2 0x100 EXP DUP2 SLOAD DUP2 PUSH1 0xFF MUL NOT AND SWAP1 DUP4 PUSH1 0x2 DUP2 GT ISZERO PUSH2 0x520 JUMPI PUSH2 0x51F PUSH2 0x864 JUMP JUMPDEST JUMPDEST MUL OR SWAP1 SSTORE POP DUP2 PUSH20 0xFFFFFFFFFFFFFFFFFFFFFFFFFFFFFFFFFFFFFFFF AND PUSH32 0xDA4D41475EC50AA8531C242D7D7A0AAD94DF435C0BE1F0CBF130F862BB38290E DUP3 PUSH1 0x40 MLOAD PUSH2 0x56B SWAP2 SWAP1 PUSH2 0x8D7 JUMP JUMPDEST PUSH1 0x40 MLOAD DUP1 SWAP2 SUB SWAP1 LOG2 POP POP JUMP JUMPDEST PUSH1 0x5 PUSH1 0x20 MSTORE DUP1 PUSH0 MSTORE PUSH1 0x40 PUSH0 KECCAK256 PUSH0 SWAP2 POP SLOAD SWAP1 PUSH2 0x100 EXP SWAP1 DIV PUSH1 0xFF AND DUP2 JUMP JUMPDEST PUSH1 0x1 PUSH1 0x20 MSTORE DUP1 PUSH0 MSTORE PUSH1 0x40 PUSH0 KECCAK256 PUSH0 SWAP2 POP SLOAD SWAP1 PUSH2 0x100 EXP SWAP1 DIV PUSH1 0xFF AND DUP2 JUMP JUMPDEST PUSH0 PUSH1 0x20 MSTORE DUP1 PUSH0 MSTORE PUSH1 0x40 PUSH0 KECCAK256 PUSH0 SWAP2 POP SWAP1 POP SLOAD DUP2 JUMP JUMPDEST PUSH1 0x4 PUSH0 SWAP1 SLOAD SWAP1 PUSH2 0x100 EXP SWAP1 DIV PUSH20 0xFFFFFFFFFFFFFFFFFFFFFFFFFFFFFFFFFFFFFFFF AND DUP2 JUMP JUMPDEST PUSH0 PUSH1 0x40 MLOAD SWAP1 POP SWAP1 JUMP JUMPDEST PUSH0 PUSH0 REVERT JUMPDEST PUSH0 PUSH0 REVERT JUMPDEST PUSH0 PUSH20 0xFFFFFFFFFFFFFFFFFFFFFFFFFFFFFFFFFFFFFFFF DUP3 AND SWAP1 POP SWAP2 SWAP1 POP JUMP JUMPDEST PUSH0 PUSH2 0x624 DUP3 PUSH2 0x5FB JUMP JUMPDEST SWAP1 POP SWAP2 SWAP1 POP JUMP JUMPDEST PUSH2 0x634 DUP2 PUSH2 0x61A JUMP JUMPDEST DUP2 EQ PUSH2 0x63E JUMPI PUSH0 PUSH0 REVERT JUMPDEST POP JUMP JUMPDEST PUSH0 DUP2 CALLDATALOAD SWAP1 POP PUSH2 0x64F DUP2 PUSH2 0x62B JUMP JUMPDEST SWAP3 SWAP2 POP POP JUMP JUMPDEST PUSH0 PUSH1 0x20 DUP3 DUP5 SUB SLT ISZERO PUSH2 0x66A JUMPI PUSH2 0x669 PUSH2 0x5F3 JUMP JUMPDEST JUMPDEST PUSH0 PUSH2 0x677 DUP5 DUP3 DUP6 ADD PUSH2 0x641 JUMP JUMPDEST SWAP2 POP POP SWAP3 SWAP2 POP POP JUMP JUMPDEST PUSH0 PUSH0 REVERT JUMPDEST PUSH0 PUSH0 REVERT JUMPDEST PUSH0 PUSH1 0x1F NOT PUSH1 0x1F DUP4 ADD AND SWAP1 POP SWAP2 SWAP1 POP JUMP JUMPDEST PUSH32 0x4E487B7100000000000000000000000000000000000000000000000000000000 PUSH0 MSTORE PUSH1 0x41 PUSH1 0x4 MSTORE PUSH1 0x24 PUSH0 REVERT JUMPDEST PUSH2 0x6CE DUP3 PUSH2 0x688 JUMP JUMPDEST DUP2 ADD DUP2 DUP2 LT PUSH8 0xFFFFFFFFFFFFFFFF DUP3 GT OR ISZERO PUSH2 0x6ED JUMPI PUSH2 0x6EC PUSH2 0x698 JUMP JUMPDEST JUMPDEST DUP1 PUSH1 0x40 MSTORE POP POP POP JUMP JUMPDEST PUSH0 PUSH2 0x6FF PUSH2 0x5EA JUMP JUMPDEST SWAP1 POP PUSH2 0x70B DUP3 DUP3 PUSH2 0x6C5 JUMP JUMPDEST SWAP2 SWAP1 POP JUMP JUMPDEST PUSH0 PUSH8 0xFFFFFFFFFFFFFFFF DUP3 GT ISZERO PUSH2 0x72A JUMPI PUSH2 0x729 PUSH2 0x698 JUMP JUMPDEST JUMPDEST PUSH2 0x733 DUP3 PUSH2 0x688 JUMP JUMPDEST SWAP1 POP PUSH1 0x20 DUP2 ADD SWAP1 POP SWAP2 SWAP1 POP JUMP JUMPDEST DUP3 DUP2 DUP4 CALLDATACOPY PUSH0 DUP4 DUP4 ADD MSTORE POP POP POP JUMP JUMPDEST PUSH0 PUSH2 0x760 PUSH2 0x75B DUP5 PUSH2 0x710 JUMP JUMPDEST PUSH2 0x6F6 JUMP JUMPDEST SWAP1 POP DUP3 DUP2 MSTORE PUSH1 0x20 DUP2 ADD DUP5 DUP5 DUP5 ADD GT ISZERO PUSH2 0x77C JUMPI PUSH2 0x77B PUSH2 0x684 JUMP JUMPDEST JUMPDEST PUSH2 0x787 DUP5 DUP3 DUP6 PUSH2 0x740 JUMP JUMPDEST POP SWAP4 SWAP3 POP POP POP JUMP JUMPDEST PUSH0 DUP3 PUSH1 0x1F DUP4 ADD SLT PUSH2 0x7A3 JUMPI PUSH2 0x7A2 PUSH2 0x680 JUMP JUMPDEST JUMPDEST DUP2 CALLDATALOAD PUSH2 0x7B3 DUP5 DUP3 PUSH1 0x20 DUP7 ADD PUSH2 0x74E JUMP JUMPDEST SWAP2 POP POP SWAP3 SWAP2 POP POP JUMP JUMPDEST PUSH0 PUSH1 0x20 DUP3 DUP5 SUB SLT ISZERO PUSH2 0x7D1 JUMPI PUSH2 0x7D0 PUSH2 0x5F3 JUMP JUMPDEST JUMPDEST PUSH0 DUP3 ADD CALLDATALOAD PUSH8 0xFFFFFFFFFFFFFFFF DUP2 GT ISZERO PUSH2 0x7EE JUMPI PUSH2 0x7ED PUSH2 0x5F7 JUMP JUMPDEST JUMPDEST PUSH2 0x7FA DUP5 DUP3 DUP6 ADD PUSH2 0x78F JUMP JUMPDEST SWAP2 POP POP SWAP3 SWAP2 POP POP JUMP JUMPDEST PUSH1 0x3 DUP2 LT PUSH2 0x80F JUMPI PUSH0 PUSH0 REVERT JUMPDEST POP JUMP JUMPDEST PUSH0 DUP2 CALLDATALOAD SWAP1 POP PUSH2 0x820 DUP2 PUSH2 0x803 JUMP JUMPDEST SWAP3 SWAP2 POP POP JUMP JUMPDEST PUSH0 PUSH0 PUSH1 0x40 DUP4 DUP6 SUB SLT ISZERO PUSH2 0x83C JUMPI PUSH2 0x83B PUSH2 0x5F3 JUMP JUMPDEST JUMPDEST PUSH0 PUSH2 0x849 DUP6 DUP3 DUP7 ADD PUSH2 0x641 JUMP JUMPDEST SWAP3 POP POP PUSH1 0x20 PUSH2 0x85A DUP6 DUP3 DUP7 ADD PUSH2 0x812 JUMP JUMPDEST SWAP2 POP POP SWAP3 POP SWAP3 SWAP1 POP JUMP JUMPDEST PUSH32 0x4E487B7100000000000000000000000000000000000000000000000000000000 PUSH0 MSTORE PUSH1 0x21 PUSH1 0x4 MSTORE PUSH1 0x24 PUSH0 REVERT JUMPDEST PUSH1 0x3 DUP2 LT PUSH2 0x8A2 JUMPI PUSH2 0x8A1 PUSH2 0x864 JUMP JUMPDEST JUMPDEST POP JUMP JUMPDEST PUSH0 DUP2 SWAP1 POP PUSH2 0x8B2 DUP3 PUSH2 0x891 JUMP JUMPDEST SWAP2 SWAP1 POP JUMP JUMPDEST PUSH0 PUSH2 0x8C1 DUP3 PUSH2 0x8A5 JUMP JUMPDEST SWAP1 POP SWAP2 SWAP1 POP JUMP JUMPDEST PUSH2 0x8D1 DUP2 PUSH2 0x8B7 JUMP JUMPDEST DUP3 MSTORE POP POP JUMP JUMPDEST PUSH0 PUSH1 0x20 DUP3 ADD SWAP1 POP PUSH2 0x8EA PUSH0 DUP4 ADD DUP5 PUSH2 0x8C8 JUMP JUMPDEST SWAP3 SWAP2 POP POP JUMP JUMPDEST PUSH0 DUP2 ISZERO ISZERO SWAP1 POP SWAP2 SWAP1 POP JUMP JUMPDEST PUSH2 0x904 DUP2 PUSH2 0x8F0 JUMP JUMPDEST DUP3 MSTORE POP POP JUMP JUMPDEST PUSH0 PUSH1 0x20 DUP3 ADD SWAP1 POP PUSH2 0x91D PUSH0 DUP4 ADD DUP5 PUSH2 0x8FB JUMP JUMPDEST SWAP3 SWAP2 POP POP JUMP JUMPDEST PUSH0 DUP2 SWAP1 POP SWAP2 SWAP1 POP JUMP JUMPDEST PUSH2 0x935 DUP2 PUSH2 0x923 JUMP JUMPDEST DUP3 MSTORE POP POP JUMP JUMPDEST PUSH0 PUSH1 0x20 DUP3 ADD SWAP1 POP PUSH2 0x94E PUSH0 DUP4 ADD DUP5 PUSH2 0x92C JUMP JUMPDEST SWAP3 SWAP2 POP POP JUMP JUMPDEST PUSH2 0x95D DUP2 PUSH2 0x61A JUMP JUMPDEST DUP3 MSTORE POP POP JUMP JUMPDEST PUSH0 PUSH1 0x20 DUP3 ADD SWAP1 POP PUSH2 0x976 PUSH0 DUP4 ADD DUP5 PUSH2 0x954 JUMP JUMPDEST SWAP3 SWAP2 POP POP JUMP JUMPDEST PUSH32 0x4E487B7100000000000000000000000000000000000000000000000000000000 PUSH0 MSTORE PUSH1 0x11 PUSH1 0x4 MSTORE PUSH1 0x24 PUSH0 REVERT JUMPDEST PUSH0 PUSH2 0x9B3 DUP3 PUSH2 0x923 JUMP JUMPDEST SWAP2 POP PUSH2 0x9BE DUP4 PUSH2 0x923 JUMP JUMPDEST SWAP3 POP DUP3 DUP3 ADD SWAP1 POP DUP1 DUP3 GT ISZERO PUSH2 0x9D6 JUMPI PUSH2 0x9D5 PUSH2 0x97C JUMP JUMPDEST JUMPDEST SWAP3 SWAP2 POP POP JUMP JUMPDEST PUSH0 DUP3 DUP3 MSTORE PUSH1 0x20 DUP3 ADD SWAP1 POP SWAP3 SWAP2 POP POP JUMP JUMPDEST PUSH32 0x456E746572206120757365726E616D6500000000000000000000000000000000 PUSH0 DUP3 ADD MSTORE POP JUMP JUMPDEST PUSH0 PUSH2 0xA20 PUSH1 0x10 DUP4 PUSH2 0x9DC JUMP JUMPDEST SWAP2 POP PUSH2 0xA2B DUP3 PUSH2 0x9EC JUMP JUMPDEST PUSH1 0x20 DUP3 ADD SWAP1 POP SWAP2 SWAP1 POP JUMP JUMPDEST PUSH0 PUSH1 0x20 DUP3 ADD SWAP1 POP DUP2 DUP2 SUB PUSH0 DUP4 ADD MSTORE PUSH2 0xA4D DUP2 PUSH2 0xA14 JUMP JUMPDEST SWAP1 POP SWAP2 SWAP1 POP JUMP JUMPDEST PUSH0 DUP2 MLOAD SWAP1 POP SWAP2 SWAP1 POP JUMP JUMPDEST PUSH32 0x4E487B7100000000000000000000000000000000000000000000000000000000 PUSH0 MSTORE PUSH1 0x22 PUSH1 0x4 MSTORE PUSH1 0x24 PUSH0 REVERT JUMPDEST PUSH0 PUSH1 0x2 DUP3 DIV SWAP1 POP PUSH1 0x1 DUP3 AND DUP1 PUSH2 0xAA2 JUMPI PUSH1 0x7F DUP3 AND SWAP2 POP JUMPDEST PUSH1 0x20 DUP3 LT DUP2 SUB PUSH2 0xAB5 JUMPI PUSH2 0xAB4 PUSH2 0xA5E JUMP JUMPDEST JUMPDEST POP SWAP2 SWAP1 POP JUMP JUMPDEST PUSH0 DUP2 SWAP1 POP DUP2 PUSH0 MSTORE PUSH1 0x20 PUSH0 KECCAK256 SWAP1 POP SWAP2 SWAP1 POP JUMP JUMPDEST PUSH0 PUSH1 0x20 PUSH1 0x1F DUP4 ADD DIV SWAP1 POP SWAP2 SWAP1 POP JUMP JUMPDEST PUSH0 DUP3 DUP3 SHL SWAP1 POP SWAP3 SWAP2 POP POP JUMP JUMPDEST PUSH0 PUSH1 0x8 DUP4 MUL PUSH2 0xB17 PUSH32 0xFFFFFFFFFFFFFFFFFFFFFFFFFFFFFFFFFFFFFFFFFFFFFFFFFFFFFFFFFFFFFFFF DUP3 PUSH2 0xADC JUMP JUMPDEST PUSH2 0xB21 DUP7 DUP4 PUSH2 0xADC JUMP JUMPDEST SWAP6 POP DUP1 NOT DUP5 AND SWAP4 POP DUP1 DUP7 AND DUP5 OR SWAP3 POP POP POP SWAP4 SWAP3 POP POP POP JUMP JUMPDEST PUSH0 DUP2 SWAP1 POP SWAP2 SWAP1 POP JUMP JUMPDEST PUSH0 PUSH2 0xB5C PUSH2 0xB57 PUSH2 0xB52 DUP5 PUSH2 0x923 JUMP JUMPDEST PUSH2 0xB39 JUMP JUMPDEST PUSH2 0x923 JUMP JUMPDEST SWAP1 POP SWAP2 SWAP1 POP JUMP JUMPDEST PUSH0 DUP2 SWAP1 POP SWAP2 SWAP1 POP JUMP JUMPDEST PUSH2 0xB75 DUP4 PUSH2 0xB42 JUMP JUMPDEST PUSH2 0xB89 PUSH2 0xB81 DUP3 PUSH2 0xB63 JUMP JUMPDEST DUP5 DUP5 SLOAD PUSH2 0xAE8 JUMP JUMPDEST DUP3 SSTORE POP POP POP POP JUMP JUMPDEST PUSH0 PUSH0 SWAP1 POP SWAP1 JUMP JUMPDEST PUSH2 0xBA0 PUSH2 0xB91 JUMP JUMPDEST PUSH2 0xBAB DUP2 DUP5 DUP5 PUSH2 0xB6C JUMP JUMPDEST POP POP POP JUMP JUMPDEST JUMPDEST DUP2 DUP2 LT ISZERO PUSH2 0xBCE JUMPI PUSH2 0xBC3 PUSH0 DUP3 PUSH2 0xB98 JUMP JUMPDEST PUSH1 0x1 DUP2 ADD SWAP1 POP PUSH2 0xBB1 JUMP JUMPDEST POP POP JUMP JUMPDEST PUSH1 0x1F DUP3 GT ISZERO PUSH2 0xC13 JUMPI PUSH2 0xBE4 DUP2 PUSH2 0xABB JUMP JUMPDEST PUSH2 0xBED DUP5 PUSH2 0xACD JUMP JUMPDEST DUP2 ADD PUSH1 0x20 DUP6 LT ISZERO PUSH2 0xBFC JUMPI DUP2 SWAP1 POP JUMPDEST PUSH2 0xC10 PUSH2 0xC08 DUP6 PUSH2 0xACD JUMP JUMPDEST DUP4 ADD DUP3 PUSH2 0xBB0 JUMP JUMPDEST POP POP JUMPDEST POP POP POP JUMP JUMPDEST PUSH0 DUP3 DUP3 SHR SWAP1 POP SWAP3 SWAP2 POP POP JUMP JUMPDEST PUSH0 PUSH2 0xC33 PUSH0 NOT DUP5 PUSH1 0x8 MUL PUSH2 0xC18 JUMP JUMPDEST NOT DUP1 DUP4 AND SWAP2 POP POP SWAP3 SWAP2 POP POP JUMP JUMPDEST PUSH0 PUSH2 0xC4B DUP4 DUP4 PUSH2 0xC24 JUMP JUMPDEST SWAP2 POP DUP3 PUSH1 0x2 MUL DUP3 OR SWAP1 POP SWAP3 SWAP2 POP POP JUMP JUMPDEST PUSH2 0xC64 DUP3 PUSH2 0xA54 JUMP JUMPDEST PUSH8 0xFFFFFFFFFFFFFFFF DUP2 GT ISZERO PUSH2 0xC7D JUMPI PUSH2 0xC7C PUSH2 0x698 JUMP JUMPDEST JUMPDEST PUSH2 0xC87 DUP3 SLOAD PUSH2 0xA8B JUMP JUMPDEST PUSH2 0xC92 DUP3 DUP3 DUP6 PUSH2 0xBD2 JUMP JUMPDEST PUSH0 PUSH1 0x20 SWAP1 POP PUSH1 0x1F DUP4 GT PUSH1 0x1 DUP2 EQ PUSH2 0xCC3 JUMPI PUSH0 DUP5 ISZERO PUSH2 0xCB1 JUMPI DUP3 DUP8 ADD MLOAD SWAP1 POP JUMPDEST PUSH2 0xCBB DUP6 DUP3 PUSH2 0xC40 JUMP JUMPDEST DUP7 SSTORE POP PUSH2 0xD22 JUMP JUMPDEST PUSH1 0x1F NOT DUP5 AND PUSH2 0xCD1 DUP7 PUSH2 0xABB JUMP JUMPDEST PUSH0 JUMPDEST DUP3 DUP2 LT ISZERO PUSH2 0xCF8 JUMPI DUP5 DUP10 ADD MLOAD DUP3 SSTORE PUSH1 0x1 DUP3 ADD SWAP2 POP PUSH1 0x20 DUP6 ADD SWAP5 POP PUSH1 0x20 DUP2 ADD SWAP1 POP PUSH2 0xCD3 JUMP JUMPDEST DUP7 DUP4 LT ISZERO PUSH2 0xD15 JUMPI DUP5 DUP10 ADD MLOAD PUSH2 0xD11 PUSH1 0x1F DUP10 AND DUP3 PUSH2 0xC24 JUMP JUMPDEST DUP4 SSTORE POP JUMPDEST PUSH1 0x1 PUSH1 0x2 DUP9 MUL ADD DUP9 SSTORE POP POP POP JUMPDEST POP POP POP POP POP POP JUMP JUMPDEST PUSH0 PUSH2 0xD34 DUP3 PUSH2 0x923 JUMP JUMPDEST SWAP2 POP PUSH32 0xFFFFFFFFFFFFFFFFFFFFFFFFFFFFFFFFFFFFFFFFFFFFFFFFFFFFFFFFFFFFFFFF DUP3 SUB PUSH2 0xD66 JUMPI PUSH2 0xD65 PUSH2 0x97C JUMP JUMPDEST JUMPDEST PUSH1 0x1 DUP3 ADD SWAP1 POP SWAP2 SWAP1 POP JUMP INVALID LOG2 PUSH5 0x6970667358 0x22 SLT KECCAK256 RETURNCONTRACT 0x3F DUP6 PUSH2 0xAC7F 0xC7 0xB9 LOG4 0x4B CALLDATASIZE DUP15 SUB 0xD 0xD9 0xB8 PUSH7 0xC0F477946F4AF0 0x28 0xC6 JUMPI DUP3 0x4B 0xEA STOP PUSH13 0x64736F6C634300081F00330000 "
				},
				"gasEstimates": {
					"creation": {
						"codeDepositCost": "699000",
						"executionCost": "30002",
						"totalCost": "729002"
					},
					"external": {
						"ChangeRole(address,uint8)": "infinite",
						"IncreaseBalance(address)": "infinite",
						"RegisterNow(string)": "infinite",
						"admin()": "2574",
						"balance(address)": "2845",
						"isRegistered(address)": "2855",
						"roles(address)": "2921"
					}
				},
				"methodIdentifiers": {
					"ChangeRole(address,uint8)": "6b4fd2ad",
					"IncreaseBalance(address)": "04ab7197",
					"RegisterNow(string)": "5b0025ad",
					"admin()": "f851a440",
					"balance(address)": "e3d670d7",
					"isRegistered(address)": "c3c5a547",
					"roles(address)": "99374642"
				}
			},
			"storageLayout": {
				"storage": [
					{
						"astId": 15,
						"contract": "W3day5.sol:registration",
						"label": "balance",
						"offset": 0,
						"slot": "0",
						"type": "t_mapping(t_address,t_uint256)"
					},
					{
						"astId": 19,
						"contract": "W3day5.sol:registration",
						"label": "isRegistered",
						"offset": 0,
						"slot": "1",
						"type": "t_mapping(t_address,t_bool)"
					},
					{
						"astId": 22,
						"contract": "W3day5.sol:registration",
						"label": "id",
						"offset": 0,
						"slot": "2",
						"type": "t_uint256"
					},
					{
						"astId": 24,
						"contract": "W3day5.sol:registration",
						"label": "username",
						"offset": 0,
						"slot": "3",
						"type": "t_string_storage"
					},
					{
						"astId": 26,
						"contract": "W3day5.sol:registration",
						"label": "admin",
						"offset": 0,
						"slot": "4",
						"type": "t_address"
					},
					{
						"astId": 44,
						"contract": "W3day5.sol:registration",
						"label": "roles",
						"offset": 0,
						"slot": "5",
						"type": "t_mapping(t_address,t_enum(Role)39)"
					}
				],
				"types": {
					"t_address": {
						"encoding": "inplace",
						"label": "address",
						"numberOfBytes": "20"
					},
					"t_bool": {
						"encoding": "inplace",
						"label": "bool",
						"numberOfBytes": "1"
					},
					"t_enum(Role)39": {
						"encoding": "inplace",
						"label": "enum registration.Role",
						"numberOfBytes": "1"
					},
					"t_mapping(t_address,t_bool)": {
						"encoding": "mapping",
						"key": "t_address",
						"label": "mapping(address => bool)",
						"numberOfBytes": "32",
						"value": "t_bool"
					},
					"t_mapping(t_address,t_enum(Role)39)": {
						"encoding": "mapping",
						"key": "t_address",
						"label": "mapping(address => enum registration.Role)",
						"numberOfBytes": "32",
						"value": "t_enum(Role)39"
					},
					"t_mapping(t_address,t_uint256)": {
						"encoding": "mapping",
						"key": "t_address",
						"label": "mapping(address => uint256)",
						"numberOfBytes": "32",
						"value": "t_uint256"
					},
					"t_string_storage": {
						"encoding": "bytes",
						"label": "string",
						"numberOfBytes": "32"
					},
					"t_uint256": {
						"encoding": "inplace",
						"label": "uint256",
						"numberOfBytes": "32"
					}
				}
			},
			"userdoc": {
				"kind": "user",
				"methods": {},
				"version": 1
			}
		}
	}
}