{
	"W3day3.sol": {
		"ProfileModifier": {
			"abi": [
				{
					"inputs": [],
					"stateMutability": "nonpayable",
					"type": "constructor"
				},
				{
					"inputs": [
						{
							"internalType": "address",
							"name": "",
							"type": "address"
						}
					],
					"name": "balance",
					"outputs": [
						{
							"internalType": "enum ProfileModifier.Balance",
							"name": "",
							"type": "uint8"
						}
					],
					"stateMutability": "view",
					"type": "function"
				},
				{
					"inputs": [],
					"name": "canDelete",
					"outputs": [
						{
							"internalType": "bool",
							"name": "",
							"type": "bool"
						}
					],
					"stateMutability": "view",
					"type": "function"
				},
				{
					"inputs": [],
					"name": "deployer",
					"outputs": [
						{
							"internalType": "address",
							"name": "",
							"type": "address"
						}
					],
					"stateMutability": "view",
					"type": "function"
				},
				{
					"inputs": [
						{
							"internalType": "address",
							"name": "",
							"type": "address"
						}
					],
					"name": "roles",
					"outputs": [
						{
							"internalType": "enum ProfileModifier.Role",
							"name": "",
							"type": "uint8"
						}
					],
					"stateMutability": "view",
					"type": "function"
				},
				{
					"inputs": [
						{
							"internalType": "address",
							"name": "_addr",
							"type": "address"
						}
					],
					"name": "sackAdmin",
					"outputs": [],
					"stateMutability": "nonpayable",
					"type": "function"
				},
				{
					"inputs": [
						{
							"internalType": "address",
							"name": "_addr",
							"type": "address"
						},
						{
							"internalType": "bool",
							"name": "_canDelete",
							"type": "bool"
						}
					],
					"name": "setAdmin",
					"outputs": [],
					"stateMutability": "payable",
					"type": "function"
				},
				{
					"inputs": [
						{
							"internalType": "address",
							"name": "",
							"type": "address"
						}
					],
					"name": "status",
					"outputs": [
						{
							"internalType": "enum ProfileModifier.Status",
							"name": "",
							"type": "uint8"
						}
					],
					"stateMutability": "view",
					"type": "function"
				},
				{
					"inputs": [
						{
							"internalType": "address payable",
							"name": "to",
							"type": "address"
						},
						{
							"internalType": "uint256",
							"name": "amount",
							"type": "uint256"
						}
					],
					"name": "transfer",
					"outputs": [],
					"stateMutability": "payable",
					"type": "function"
				},
				{
					"inputs": [
						{
							"internalType": "uint256",
							"name": "amount",
							"type": "uint256"
						}
					],
					"name": "withdraw",
					"outputs": [],
					"stateMutability": "payable",
					"type": "function"
				}
			],
			"devdoc": {
				"kind": "dev",
				"methods": {},
				"version": 1
			},
			"evm": {
				"assembly": "    /* \"W3day3.sol\":286:2219  contract ProfileModifier {... */\n  mstore(0x40, 0x80)\n    /* \"W3day3.sol\":815:869  constructor (){... */\n  callvalue\n  dup1\n  iszero\n  tag_1\n  jumpi\n  revert(0x00, 0x00)\ntag_1:\n  pop\n    /* \"W3day3.sol\":851:861  msg.sender */\n  caller\n    /* \"W3day3.sol\":840:848  deployer */\n  0x00\n  0x00\n    /* \"W3day3.sol\":840:861  deployer = msg.sender */\n  0x0100\n  exp\n  dup2\n  sload\n  dup2\n  0xffffffffffffffffffffffffffffffffffffffff\n  mul\n  not\n  and\n  swap1\n  dup4\n  0xffffffffffffffffffffffffffffffffffffffff\n  and\n  mul\n  or\n  swap1\n  sstore\n  pop\n    /* \"W3day3.sol\":286:2219  contract ProfileModifier {... */\n  dataSize(sub_0)\n  dup1\n  dataOffset(sub_0)\n  0x00\n  codecopy\n  0x00\n  return\nstop\n\nsub_0: assembly {\n        /* \"W3day3.sol\":286:2219  contract ProfileModifier {... */\n      mstore(0x40, 0x80)\n      jumpi(tag_1, lt(calldatasize, 0x04))\n      shr(0xe0, calldataload(0x00))\n      dup1\n      0x645b8b1b\n      gt\n      tag_11\n      jumpi\n      dup1\n      0x645b8b1b\n      eq\n      tag_6\n      jumpi\n      dup1\n      0x99374642\n      eq\n      tag_7\n      jumpi\n      dup1\n      0xa9059cbb\n      eq\n      tag_8\n      jumpi\n      dup1\n      0xd5f39488\n      eq\n      tag_9\n      jumpi\n      dup1\n      0xe3d670d7\n      eq\n      tag_10\n      jumpi\n      jump(tag_1)\n    tag_11:\n      dup1\n      0x246b80cf\n      eq\n      tag_2\n      jumpi\n      dup1\n      0x2e1a7d4d\n      eq\n      tag_3\n      jumpi\n      dup1\n      0x4b0bddd2\n      eq\n      tag_4\n      jumpi\n      dup1\n      0x4b3582eb\n      eq\n      tag_5\n      jumpi\n    tag_1:\n      revert(0x00, 0x00)\n        /* \"W3day3.sol\":785:806  bool public canDelete */\n    tag_2:\n      callvalue\n      dup1\n      iszero\n      tag_12\n      jumpi\n      revert(0x00, 0x00)\n    tag_12:\n      pop\n      tag_13\n      tag_14\n      jump\t// in\n    tag_13:\n      mload(0x40)\n      tag_15\n      swap2\n      swap1\n      tag_16\n      jump\t// in\n    tag_15:\n      mload(0x40)\n      dup1\n      swap2\n      sub\n      swap1\n      return\n        /* \"W3day3.sol\":1938:2216  function withdraw(uint256 amount) public payable notPaused minimumBalance {... */\n    tag_3:\n      tag_17\n      0x04\n      dup1\n      calldatasize\n      sub\n      dup2\n      add\n      swap1\n      tag_18\n      swap2\n      swap1\n      tag_19\n      jump\t// in\n    tag_18:\n      tag_20\n      jump\t// in\n    tag_17:\n      stop\n        /* \"W3day3.sol\":1306:1514  function setAdmin(address _addr, bool _canDelete) public onlyAdmin payable minimumBalance{... */\n    tag_4:\n      tag_21\n      0x04\n      dup1\n      calldatasize\n      sub\n      dup2\n      add\n      swap1\n      tag_22\n      swap2\n      swap1\n      tag_23\n      jump\t// in\n    tag_22:\n      tag_24\n      jump\t// in\n    tag_21:\n      stop\n        /* \"W3day3.sol\":1522:1619  function sackAdmin(address _addr) public onlyAdmin{... */\n    tag_5:\n      callvalue\n      dup1\n      iszero\n      tag_25\n      jumpi\n      revert(0x00, 0x00)\n    tag_25:\n      pop\n      tag_26\n      0x04\n      dup1\n      calldatasize\n      sub\n      dup2\n      add\n      swap1\n      tag_27\n      swap2\n      swap1\n      tag_28\n      jump\t// in\n    tag_27:\n      tag_29\n      jump\t// in\n    tag_26:\n      stop\n        /* \"W3day3.sol\":689:729  mapping(address => Status) public status */\n    tag_6:\n      callvalue\n      dup1\n      iszero\n      tag_30\n      jumpi\n      revert(0x00, 0x00)\n    tag_30:\n      pop\n      tag_31\n      0x04\n      dup1\n      calldatasize\n      sub\n      dup2\n      add\n      swap1\n      tag_32\n      swap2\n      swap1\n      tag_28\n      jump\t// in\n    tag_32:\n      tag_33\n      jump\t// in\n    tag_31:\n      mload(0x40)\n      tag_34\n      swap2\n      swap1\n      tag_35\n      jump\t// in\n    tag_34:\n      mload(0x40)\n      dup1\n      swap2\n      sub\n      swap1\n      return\n        /* \"W3day3.sol\":645:682  mapping(address => Role) public roles */\n    tag_7:\n      callvalue\n      dup1\n      iszero\n      tag_36\n      jumpi\n      revert(0x00, 0x00)\n    tag_36:\n      pop\n      tag_37\n      0x04\n      dup1\n      calldatasize\n      sub\n      dup2\n      add\n      swap1\n      tag_38\n      swap2\n      swap1\n      tag_28\n      jump\t// in\n    tag_38:\n      tag_39\n      jump\t// in\n    tag_37:\n      mload(0x40)\n      tag_40\n      swap2\n      swap1\n      tag_41\n      jump\t// in\n    tag_40:\n      mload(0x40)\n      dup1\n      swap2\n      sub\n      swap1\n      return\n        /* \"W3day3.sol\":1643:1914  function transfer(address payable to, uint256 amount)public payable notPaused{... */\n    tag_8:\n      tag_42\n      0x04\n      dup1\n      calldatasize\n      sub\n      dup2\n      add\n      swap1\n      tag_43\n      swap2\n      swap1\n      tag_44\n      jump\t// in\n    tag_43:\n      tag_45\n      jump\t// in\n    tag_42:\n      stop\n        /* \"W3day3.sol\":615:638  address public deployer */\n    tag_9:\n      callvalue\n      dup1\n      iszero\n      tag_46\n      jumpi\n      revert(0x00, 0x00)\n    tag_46:\n      pop\n      tag_47\n      tag_48\n      jump\t// in\n    tag_47:\n      mload(0x40)\n      tag_49\n      swap2\n      swap1\n      tag_50\n      jump\t// in\n    tag_49:\n      mload(0x40)\n      dup1\n      swap2\n      sub\n      swap1\n      return\n        /* \"W3day3.sol\":736:778  mapping(address => Balance) public balance */\n    tag_10:\n      callvalue\n      dup1\n      iszero\n      tag_51\n      jumpi\n      revert(0x00, 0x00)\n    tag_51:\n      pop\n      tag_52\n      0x04\n      dup1\n      calldatasize\n      sub\n      dup2\n      add\n      swap1\n      tag_53\n      swap2\n      swap1\n      tag_28\n      jump\t// in\n    tag_53:\n      tag_54\n      jump\t// in\n    tag_52:\n      mload(0x40)\n      tag_55\n      swap2\n      swap1\n      tag_56\n      jump\t// in\n    tag_55:\n      mload(0x40)\n      dup1\n      swap2\n      sub\n      swap1\n      return\n        /* \"W3day3.sol\":785:806  bool public canDelete */\n    tag_14:\n      0x04\n      0x00\n      swap1\n      sload\n      swap1\n      0x0100\n      exp\n      swap1\n      div\n      0xff\n      and\n      dup2\n      jump\t// out\n        /* \"W3day3.sol\":1938:2216  function withdraw(uint256 amount) public payable notPaused minimumBalance {... */\n    tag_20:\n        /* \"W3day3.sol\":1081:1097  Status.notPaused */\n      0x01\n        /* \"W3day3.sol\":1059:1097  status[msg.sender] == Status.notPaused */\n      dup1\n      dup2\n      gt\n      iszero\n      tag_58\n      jumpi\n      tag_59\n      tag_60\n      jump\t// in\n    tag_59:\n    tag_58:\n        /* \"W3day3.sol\":1059:1065  status */\n      0x02\n        /* \"W3day3.sol\":1059:1077  status[msg.sender] */\n      0x00\n        /* \"W3day3.sol\":1066:1076  msg.sender */\n      caller\n        /* \"W3day3.sol\":1059:1077  status[msg.sender] */\n      0xffffffffffffffffffffffffffffffffffffffff\n      and\n      0xffffffffffffffffffffffffffffffffffffffff\n      and\n      dup2\n      mstore\n      0x20\n      add\n      swap1\n      dup2\n      mstore\n      0x20\n      add\n      0x00\n      keccak256\n      0x00\n      swap1\n      sload\n      swap1\n      0x0100\n      exp\n      swap1\n      div\n      0xff\n      and\n        /* \"W3day3.sol\":1059:1097  status[msg.sender] == Status.notPaused */\n      0x01\n      dup2\n      gt\n      iszero\n      tag_61\n      jumpi\n      tag_62\n      tag_60\n      jump\t// in\n    tag_62:\n    tag_61:\n      eq\n        /* \"W3day3.sol\":1051:1117  require(status[msg.sender] == Status.notPaused, \"Transfer paused\") */\n      tag_63\n      jumpi\n      mload(0x40)\n      0x08c379a000000000000000000000000000000000000000000000000000000000\n      dup2\n      mstore\n      0x04\n      add\n      tag_64\n      swap1\n      tag_65\n      jump\t// in\n    tag_64:\n      mload(0x40)\n      dup1\n      swap2\n      sub\n      swap1\n      revert\n    tag_63:\n        /* \"W3day3.sol\":1210:1233  Balance.greaterThanZero */\n      0x02\n        /* \"W3day3.sol\":1187:1233  balance[msg.sender] == Balance.greaterThanZero */\n      dup1\n      dup2\n      gt\n      iszero\n      tag_67\n      jumpi\n      tag_68\n      tag_60\n      jump\t// in\n    tag_68:\n    tag_67:\n        /* \"W3day3.sol\":1187:1194  balance */\n      0x03\n        /* \"W3day3.sol\":1187:1206  balance[msg.sender] */\n      0x00\n        /* \"W3day3.sol\":1195:1205  msg.sender */\n      caller\n        /* \"W3day3.sol\":1187:1206  balance[msg.sender] */\n      0xffffffffffffffffffffffffffffffffffffffff\n      and\n      0xffffffffffffffffffffffffffffffffffffffff\n      and\n      dup2\n      mstore\n      0x20\n      add\n      swap1\n      dup2\n      mstore\n      0x20\n      add\n      0x00\n      keccak256\n      0x00\n      swap1\n      sload\n      swap1\n      0x0100\n      exp\n      swap1\n      div\n      0xff\n      and\n        /* \"W3day3.sol\":1187:1233  balance[msg.sender] == Balance.greaterThanZero */\n      0x02\n      dup2\n      gt\n      iszero\n      tag_69\n      jumpi\n      tag_70\n      tag_60\n      jump\t// in\n    tag_70:\n    tag_69:\n      eq\n        /* \"W3day3.sol\":1179:1255  require(balance[msg.sender] == Balance.greaterThanZero, \"Insufficient fund\") */\n      tag_71\n      jumpi\n      mload(0x40)\n      0x08c379a000000000000000000000000000000000000000000000000000000000\n      dup2\n      mstore\n      0x04\n      add\n      tag_72\n      swap1\n      tag_73\n      jump\t// in\n    tag_72:\n      mload(0x40)\n      dup1\n      swap2\n      sub\n      swap1\n      revert\n    tag_71:\n        /* \"W3day3.sol\":2056:2062  amount */\n      dup1\n        /* \"W3day3.sol\":2031:2052  address(this).balance */\n      selfbalance\n        /* \"W3day3.sol\":2031:2062  address(this).balance >= amount */\n      lt\n      iszero\n        /* \"W3day3.sol\":2023:2096  require(address(this).balance >= amount, \"Insifficient contract balance\") */\n      tag_75\n      jumpi\n      mload(0x40)\n      0x08c379a000000000000000000000000000000000000000000000000000000000\n      dup2\n      mstore\n      0x04\n      add\n      tag_76\n      swap1\n      tag_77\n      jump\t// in\n    tag_76:\n      mload(0x40)\n      dup1\n      swap2\n      sub\n      swap1\n      revert\n    tag_75:\n        /* \"W3day3.sol\":2108:2120  bool success */\n      0x00\n        /* \"W3day3.sol\":2126:2136  msg.sender */\n      caller\n        /* \"W3day3.sol\":2126:2141  msg.sender.call */\n      0xffffffffffffffffffffffffffffffffffffffff\n      and\n        /* \"W3day3.sol\":2149:2155  amount */\n      dup3\n        /* \"W3day3.sol\":2126:2160  msg.sender.call{value: amount}(\"\") */\n      mload(0x40)\n      tag_78\n      swap1\n      tag_79\n      jump\t// in\n    tag_78:\n      0x00\n      mload(0x40)\n      dup1\n      dup4\n      sub\n      dup2\n      dup6\n      dup8\n      gas\n      call\n      swap3\n      pop\n      pop\n      pop\n      returndatasize\n      dup1\n      0x00\n      dup2\n      eq\n      tag_82\n      jumpi\n      mload(0x40)\n      swap2\n      pop\n      and(add(returndatasize, 0x3f), not(0x1f))\n      dup3\n      add\n      0x40\n      mstore\n      returndatasize\n      dup3\n      mstore\n      returndatasize\n      0x00\n      0x20\n      dup5\n      add\n      returndatacopy\n      jump(tag_81)\n    tag_82:\n      0x60\n      swap2\n      pop\n    tag_81:\n      pop\n        /* \"W3day3.sol\":2107:2160  (bool success, ) = msg.sender.call{value: amount}(\"\") */\n      pop\n      swap1\n      pop\n        /* \"W3day3.sol\":2179:2186  success */\n      dup1\n        /* \"W3day3.sol\":2171:2208  require(success, \"Withdrawal failed\") */\n      tag_83\n      jumpi\n      mload(0x40)\n      0x08c379a000000000000000000000000000000000000000000000000000000000\n      dup2\n      mstore\n      0x04\n      add\n      tag_84\n      swap1\n      tag_85\n      jump\t// in\n    tag_84:\n      mload(0x40)\n      dup1\n      swap2\n      sub\n      swap1\n      revert\n    tag_83:\n        /* \"W3day3.sol\":2012:2216  {... */\n      pop\n        /* \"W3day3.sol\":1938:2216  function withdraw(uint256 amount) public payable notPaused minimumBalance {... */\n      pop\n      jump\t// out\n        /* \"W3day3.sol\":1306:1514  function setAdmin(address _addr, bool _canDelete) public onlyAdmin payable minimumBalance{... */\n    tag_24:\n        /* \"W3day3.sol\":932:945  Role.notAdmin */\n      0x00\n        /* \"W3day3.sol\":911:945  roles[msg.sender] == Role.notAdmin */\n      0x01\n      dup2\n      gt\n      iszero\n      tag_87\n      jumpi\n      tag_88\n      tag_60\n      jump\t// in\n    tag_88:\n    tag_87:\n        /* \"W3day3.sol\":911:916  roles */\n      0x01\n        /* \"W3day3.sol\":911:928  roles[msg.sender] */\n      0x00\n        /* \"W3day3.sol\":917:927  msg.sender */\n      caller\n        /* \"W3day3.sol\":911:928  roles[msg.sender] */\n      0xffffffffffffffffffffffffffffffffffffffff\n      and\n      0xffffffffffffffffffffffffffffffffffffffff\n      and\n      dup2\n      mstore\n      0x20\n      add\n      swap1\n      dup2\n      mstore\n      0x20\n      add\n      0x00\n      keccak256\n      0x00\n      swap1\n      sload\n      swap1\n      0x0100\n      exp\n      swap1\n      div\n      0xff\n      and\n        /* \"W3day3.sol\":911:945  roles[msg.sender] == Role.notAdmin */\n      0x01\n      dup2\n      gt\n      iszero\n      tag_89\n      jumpi\n      tag_90\n      tag_60\n      jump\t// in\n    tag_90:\n    tag_89:\n      sub\n        /* \"W3day3.sol\":908:995  if(roles[msg.sender] == Role.notAdmin){... */\n      tag_91\n      jumpi\n        /* \"W3day3.sol\":961:983  revert(\"Not an Admin\") */\n      mload(0x40)\n      0x08c379a000000000000000000000000000000000000000000000000000000000\n      dup2\n      mstore\n      0x04\n      add\n      tag_92\n      swap1\n      tag_93\n      jump\t// in\n    tag_92:\n      mload(0x40)\n      dup1\n      swap2\n      sub\n      swap1\n      revert\n        /* \"W3day3.sol\":908:995  if(roles[msg.sender] == Role.notAdmin){... */\n    tag_91:\n        /* \"W3day3.sol\":1210:1233  Balance.greaterThanZero */\n      0x02\n        /* \"W3day3.sol\":1187:1233  balance[msg.sender] == Balance.greaterThanZero */\n      dup1\n      dup2\n      gt\n      iszero\n      tag_95\n      jumpi\n      tag_96\n      tag_60\n      jump\t// in\n    tag_96:\n    tag_95:\n        /* \"W3day3.sol\":1187:1194  balance */\n      0x03\n        /* \"W3day3.sol\":1187:1206  balance[msg.sender] */\n      0x00\n        /* \"W3day3.sol\":1195:1205  msg.sender */\n      caller\n        /* \"W3day3.sol\":1187:1206  balance[msg.sender] */\n      0xffffffffffffffffffffffffffffffffffffffff\n      and\n      0xffffffffffffffffffffffffffffffffffffffff\n      and\n      dup2\n      mstore\n      0x20\n      add\n      swap1\n      dup2\n      mstore\n      0x20\n      add\n      0x00\n      keccak256\n      0x00\n      swap1\n      sload\n      swap1\n      0x0100\n      exp\n      swap1\n      div\n      0xff\n      and\n        /* \"W3day3.sol\":1187:1233  balance[msg.sender] == Balance.greaterThanZero */\n      0x02\n      dup2\n      gt\n      iszero\n      tag_97\n      jumpi\n      tag_98\n      tag_60\n      jump\t// in\n    tag_98:\n    tag_97:\n      eq\n        /* \"W3day3.sol\":1179:1255  require(balance[msg.sender] == Balance.greaterThanZero, \"Insufficient fund\") */\n      tag_99\n      jumpi\n      mload(0x40)\n      0x08c379a000000000000000000000000000000000000000000000000000000000\n      dup2\n      mstore\n      0x04\n      add\n      tag_100\n      swap1\n      tag_73\n      jump\t// in\n    tag_100:\n      mload(0x40)\n      dup1\n      swap2\n      sub\n      swap1\n      revert\n    tag_99:\n        /* \"W3day3.sol\":1426:1436  Role.Admin */\n      0x01\n        /* \"W3day3.sol\":1406:1411  roles */\n      dup1\n        /* \"W3day3.sol\":1406:1423  roles[msg.sender] */\n      0x00\n        /* \"W3day3.sol\":1412:1422  msg.sender */\n      caller\n        /* \"W3day3.sol\":1406:1423  roles[msg.sender] */\n      0xffffffffffffffffffffffffffffffffffffffff\n      and\n      0xffffffffffffffffffffffffffffffffffffffff\n      and\n      dup2\n      mstore\n      0x20\n      add\n      swap1\n      dup2\n      mstore\n      0x20\n      add\n      0x00\n      keccak256\n      0x00\n        /* \"W3day3.sol\":1406:1436  roles[msg.sender] = Role.Admin */\n      0x0100\n      exp\n      dup2\n      sload\n      dup2\n      0xff\n      mul\n      not\n      and\n      swap1\n      dup4\n      0x01\n      dup2\n      gt\n      iszero\n      tag_102\n      jumpi\n      tag_103\n      tag_60\n      jump\t// in\n    tag_103:\n    tag_102:\n      mul\n      or\n      swap1\n      sstore\n      pop\n        /* \"W3day3.sol\":1462:1472  Role.Admin */\n      0x01\n        /* \"W3day3.sol\":1447:1452  roles */\n      dup1\n        /* \"W3day3.sol\":1447:1459  roles[_addr] */\n      0x00\n        /* \"W3day3.sol\":1453:1458  _addr */\n      dup5\n        /* \"W3day3.sol\":1447:1459  roles[_addr] */\n      0xffffffffffffffffffffffffffffffffffffffff\n      and\n      0xffffffffffffffffffffffffffffffffffffffff\n      and\n      dup2\n      mstore\n      0x20\n      add\n      swap1\n      dup2\n      mstore\n      0x20\n      add\n      0x00\n      keccak256\n      0x00\n        /* \"W3day3.sol\":1447:1472  roles[_addr] = Role.Admin */\n      0x0100\n      exp\n      dup2\n      sload\n      dup2\n      0xff\n      mul\n      not\n      and\n      swap1\n      dup4\n      0x01\n      dup2\n      gt\n      iszero\n      tag_104\n      jumpi\n      tag_105\n      tag_60\n      jump\t// in\n    tag_105:\n    tag_104:\n      mul\n      or\n      swap1\n      sstore\n      pop\n        /* \"W3day3.sol\":1496:1506  _canDelete */\n      dup1\n        /* \"W3day3.sol\":1495:1506  !_canDelete */\n      iszero\n        /* \"W3day3.sol\":1483:1492  canDelete */\n      0x04\n      0x00\n        /* \"W3day3.sol\":1483:1506  canDelete = !_canDelete */\n      0x0100\n      exp\n      dup2\n      sload\n      dup2\n      0xff\n      mul\n      not\n      and\n      swap1\n      dup4\n      iszero\n      iszero\n      mul\n      or\n      swap1\n      sstore\n      pop\n        /* \"W3day3.sol\":1306:1514  function setAdmin(address _addr, bool _canDelete) public onlyAdmin payable minimumBalance{... */\n      pop\n      pop\n      jump\t// out\n        /* \"W3day3.sol\":1522:1619  function sackAdmin(address _addr) public onlyAdmin{... */\n    tag_29:\n        /* \"W3day3.sol\":932:945  Role.notAdmin */\n      0x00\n        /* \"W3day3.sol\":911:945  roles[msg.sender] == Role.notAdmin */\n      0x01\n      dup2\n      gt\n      iszero\n      tag_107\n      jumpi\n      tag_108\n      tag_60\n      jump\t// in\n    tag_108:\n    tag_107:\n        /* \"W3day3.sol\":911:916  roles */\n      0x01\n        /* \"W3day3.sol\":911:928  roles[msg.sender] */\n      0x00\n        /* \"W3day3.sol\":917:927  msg.sender */\n      caller\n        /* \"W3day3.sol\":911:928  roles[msg.sender] */\n      0xffffffffffffffffffffffffffffffffffffffff\n      and\n      0xffffffffffffffffffffffffffffffffffffffff\n      and\n      dup2\n      mstore\n      0x20\n      add\n      swap1\n      dup2\n      mstore\n      0x20\n      add\n      0x00\n      keccak256\n      0x00\n      swap1\n      sload\n      swap1\n      0x0100\n      exp\n      swap1\n      div\n      0xff\n      and\n        /* \"W3day3.sol\":911:945  roles[msg.sender] == Role.notAdmin */\n      0x01\n      dup2\n      gt\n      iszero\n      tag_109\n      jumpi\n      tag_110\n      tag_60\n      jump\t// in\n    tag_110:\n    tag_109:\n      sub\n        /* \"W3day3.sol\":908:995  if(roles[msg.sender] == Role.notAdmin){... */\n      tag_111\n      jumpi\n        /* \"W3day3.sol\":961:983  revert(\"Not an Admin\") */\n      mload(0x40)\n      0x08c379a000000000000000000000000000000000000000000000000000000000\n      dup2\n      mstore\n      0x04\n      add\n      tag_112\n      swap1\n      tag_93\n      jump\t// in\n    tag_112:\n      mload(0x40)\n      dup1\n      swap2\n      sub\n      swap1\n      revert\n        /* \"W3day3.sol\":908:995  if(roles[msg.sender] == Role.notAdmin){... */\n    tag_111:\n        /* \"W3day3.sol\":1598:1611  Role.notAdmin */\n      0x00\n        /* \"W3day3.sol\":1583:1588  roles */\n      0x01\n        /* \"W3day3.sol\":1583:1595  roles[_addr] */\n      0x00\n        /* \"W3day3.sol\":1589:1594  _addr */\n      dup4\n        /* \"W3day3.sol\":1583:1595  roles[_addr] */\n      0xffffffffffffffffffffffffffffffffffffffff\n      and\n      0xffffffffffffffffffffffffffffffffffffffff\n      and\n      dup2\n      mstore\n      0x20\n      add\n      swap1\n      dup2\n      mstore\n      0x20\n      add\n      0x00\n      keccak256\n      0x00\n        /* \"W3day3.sol\":1583:1611  roles[_addr] = Role.notAdmin */\n      0x0100\n      exp\n      dup2\n      sload\n      dup2\n      0xff\n      mul\n      not\n      and\n      swap1\n      dup4\n      0x01\n      dup2\n      gt\n      iszero\n      tag_114\n      jumpi\n      tag_115\n      tag_60\n      jump\t// in\n    tag_115:\n    tag_114:\n      mul\n      or\n      swap1\n      sstore\n      pop\n        /* \"W3day3.sol\":1522:1619  function sackAdmin(address _addr) public onlyAdmin{... */\n      pop\n      jump\t// out\n        /* \"W3day3.sol\":689:729  mapping(address => Status) public status */\n    tag_33:\n      mstore(0x20, 0x02)\n      dup1\n      0x00\n      mstore\n      keccak256(0x00, 0x40)\n      0x00\n      swap2\n      pop\n      sload\n      swap1\n      0x0100\n      exp\n      swap1\n      div\n      0xff\n      and\n      dup2\n      jump\t// out\n        /* \"W3day3.sol\":645:682  mapping(address => Role) public roles */\n    tag_39:\n      mstore(0x20, 0x01)\n      dup1\n      0x00\n      mstore\n      keccak256(0x00, 0x40)\n      0x00\n      swap2\n      pop\n      sload\n      swap1\n      0x0100\n      exp\n      swap1\n      div\n      0xff\n      and\n      dup2\n      jump\t// out\n        /* \"W3day3.sol\":1643:1914  function transfer(address payable to, uint256 amount)public payable notPaused{... */\n    tag_45:\n        /* \"W3day3.sol\":1081:1097  Status.notPaused */\n      0x01\n        /* \"W3day3.sol\":1059:1097  status[msg.sender] == Status.notPaused */\n      dup1\n      dup2\n      gt\n      iszero\n      tag_117\n      jumpi\n      tag_118\n      tag_60\n      jump\t// in\n    tag_118:\n    tag_117:\n        /* \"W3day3.sol\":1059:1065  status */\n      0x02\n        /* \"W3day3.sol\":1059:1077  status[msg.sender] */\n      0x00\n        /* \"W3day3.sol\":1066:1076  msg.sender */\n      caller\n        /* \"W3day3.sol\":1059:1077  status[msg.sender] */\n      0xffffffffffffffffffffffffffffffffffffffff\n      and\n      0xffffffffffffffffffffffffffffffffffffffff\n      and\n      dup2\n      mstore\n      0x20\n      add\n      swap1\n      dup2\n      mstore\n      0x20\n      add\n      0x00\n      keccak256\n      0x00\n      swap1\n      sload\n      swap1\n      0x0100\n      exp\n      swap1\n      div\n      0xff\n      and\n        /* \"W3day3.sol\":1059:1097  status[msg.sender] == Status.notPaused */\n      0x01\n      dup2\n      gt\n      iszero\n      tag_119\n      jumpi\n      tag_120\n      tag_60\n      jump\t// in\n    tag_120:\n    tag_119:\n      eq\n        /* \"W3day3.sol\":1051:1117  require(status[msg.sender] == Status.notPaused, \"Transfer paused\") */\n      tag_121\n      jumpi\n      mload(0x40)\n      0x08c379a000000000000000000000000000000000000000000000000000000000\n      dup2\n      mstore\n      0x04\n      add\n      tag_122\n      swap1\n      tag_65\n      jump\t// in\n    tag_122:\n      mload(0x40)\n      dup1\n      swap2\n      sub\n      swap1\n      revert\n    tag_121:\n        /* \"W3day3.sol\":1764:1770  amount */\n      dup1\n        /* \"W3day3.sol\":1739:1760  address(this).balance */\n      selfbalance\n        /* \"W3day3.sol\":1739:1770  address(this).balance >= amount */\n      lt\n      iszero\n        /* \"W3day3.sol\":1731:1804  require(address(this).balance >= amount, \"Insifficient contract balance\") */\n      tag_124\n      jumpi\n      mload(0x40)\n      0x08c379a000000000000000000000000000000000000000000000000000000000\n      dup2\n      mstore\n      0x04\n      add\n      tag_125\n      swap1\n      tag_77\n      jump\t// in\n    tag_125:\n      mload(0x40)\n      dup1\n      swap2\n      sub\n      swap1\n      revert\n    tag_124:\n        /* \"W3day3.sol\":1816:1828  bool success */\n      0x00\n        /* \"W3day3.sol\":1834:1836  to */\n      dup3\n        /* \"W3day3.sol\":1834:1841  to.call */\n      0xffffffffffffffffffffffffffffffffffffffff\n      and\n        /* \"W3day3.sol\":1849:1855  amount */\n      dup3\n        /* \"W3day3.sol\":1834:1860  to.call{value: amount}(\"\") */\n      mload(0x40)\n      tag_126\n      swap1\n      tag_79\n      jump\t// in\n    tag_126:\n      0x00\n      mload(0x40)\n      dup1\n      dup4\n      sub\n      dup2\n      dup6\n      dup8\n      gas\n      call\n      swap3\n      pop\n      pop\n      pop\n      returndatasize\n      dup1\n      0x00\n      dup2\n      eq\n      tag_129\n      jumpi\n      mload(0x40)\n      swap2\n      pop\n      and(add(returndatasize, 0x3f), not(0x1f))\n      dup3\n      add\n      0x40\n      mstore\n      returndatasize\n      dup3\n      mstore\n      returndatasize\n      0x00\n      0x20\n      dup5\n      add\n      returndatacopy\n      jump(tag_128)\n    tag_129:\n      0x60\n      swap2\n      pop\n    tag_128:\n      pop\n        /* \"W3day3.sol\":1815:1860  (bool success, ) = to.call{value: amount}(\"\") */\n      pop\n      swap1\n      pop\n        /* \"W3day3.sol\":1879:1886  success */\n      dup1\n        /* \"W3day3.sol\":1871:1906  require(success, \"Transfer failed\") */\n      tag_130\n      jumpi\n      mload(0x40)\n      0x08c379a000000000000000000000000000000000000000000000000000000000\n      dup2\n      mstore\n      0x04\n      add\n      tag_131\n      swap1\n      tag_132\n      jump\t// in\n    tag_131:\n      mload(0x40)\n      dup1\n      swap2\n      sub\n      swap1\n      revert\n    tag_130:\n        /* \"W3day3.sol\":1720:1914  {... */\n      pop\n        /* \"W3day3.sol\":1643:1914  function transfer(address payable to, uint256 amount)public payable notPaused{... */\n      pop\n      pop\n      jump\t// out\n        /* \"W3day3.sol\":615:638  address public deployer */\n    tag_48:\n      0x00\n      0x00\n      swap1\n      sload\n      swap1\n      0x0100\n      exp\n      swap1\n      div\n      0xffffffffffffffffffffffffffffffffffffffff\n      and\n      dup2\n      jump\t// out\n        /* \"W3day3.sol\":736:778  mapping(address => Balance) public balance */\n    tag_54:\n      mstore(0x20, 0x03)\n      dup1\n      0x00\n      mstore\n      keccak256(0x00, 0x40)\n      0x00\n      swap2\n      pop\n      sload\n      swap1\n      0x0100\n      exp\n      swap1\n      div\n      0xff\n      and\n      dup2\n      jump\t// out\n        /* \"#utility.yul\":7:97   */\n    tag_133:\n        /* \"#utility.yul\":41:48   */\n      0x00\n        /* \"#utility.yul\":84:89   */\n      dup2\n        /* \"#utility.yul\":77:90   */\n      iszero\n        /* \"#utility.yul\":70:91   */\n      iszero\n        /* \"#utility.yul\":59:91   */\n      swap1\n      pop\n        /* \"#utility.yul\":7:97   */\n      swap2\n      swap1\n      pop\n      jump\t// out\n        /* \"#utility.yul\":103:212   */\n    tag_134:\n        /* \"#utility.yul\":184:205   */\n      tag_182\n        /* \"#utility.yul\":199:204   */\n      dup2\n        /* \"#utility.yul\":184:205   */\n      tag_133\n      jump\t// in\n    tag_182:\n        /* \"#utility.yul\":179:182   */\n      dup3\n        /* \"#utility.yul\":172:206   */\n      mstore\n        /* \"#utility.yul\":103:212   */\n      pop\n      pop\n      jump\t// out\n        /* \"#utility.yul\":218:428   */\n    tag_16:\n        /* \"#utility.yul\":305:309   */\n      0x00\n        /* \"#utility.yul\":343:345   */\n      0x20\n        /* \"#utility.yul\":332:341   */\n      dup3\n        /* \"#utility.yul\":328:346   */\n      add\n        /* \"#utility.yul\":320:346   */\n      swap1\n      pop\n        /* \"#utility.yul\":356:421   */\n      tag_184\n        /* \"#utility.yul\":418:419   */\n      0x00\n        /* \"#utility.yul\":407:416   */\n      dup4\n        /* \"#utility.yul\":403:420   */\n      add\n        /* \"#utility.yul\":394:400   */\n      dup5\n        /* \"#utility.yul\":356:421   */\n      tag_134\n      jump\t// in\n    tag_184:\n        /* \"#utility.yul\":218:428   */\n      swap3\n      swap2\n      pop\n      pop\n      jump\t// out\n        /* \"#utility.yul\":515:632   */\n    tag_136:\n        /* \"#utility.yul\":624:625   */\n      0x00\n        /* \"#utility.yul\":621:622   */\n      0x00\n        /* \"#utility.yul\":614:626   */\n      revert\n        /* \"#utility.yul\":761:838   */\n    tag_138:\n        /* \"#utility.yul\":798:805   */\n      0x00\n        /* \"#utility.yul\":827:832   */\n      dup2\n        /* \"#utility.yul\":816:832   */\n      swap1\n      pop\n        /* \"#utility.yul\":761:838   */\n      swap2\n      swap1\n      pop\n      jump\t// out\n        /* \"#utility.yul\":844:966   */\n    tag_139:\n        /* \"#utility.yul\":917:941   */\n      tag_190\n        /* \"#utility.yul\":935:940   */\n      dup2\n        /* \"#utility.yul\":917:941   */\n      tag_138\n      jump\t// in\n    tag_190:\n        /* \"#utility.yul\":910:915   */\n      dup2\n        /* \"#utility.yul\":907:942   */\n      eq\n        /* \"#utility.yul\":897:960   */\n      tag_191\n      jumpi\n        /* \"#utility.yul\":956:957   */\n      0x00\n        /* \"#utility.yul\":953:954   */\n      0x00\n        /* \"#utility.yul\":946:958   */\n      revert\n        /* \"#utility.yul\":897:960   */\n    tag_191:\n        /* \"#utility.yul\":844:966   */\n      pop\n      jump\t// out\n        /* \"#utility.yul\":972:1111   */\n    tag_140:\n        /* \"#utility.yul\":1018:1023   */\n      0x00\n        /* \"#utility.yul\":1056:1062   */\n      dup2\n        /* \"#utility.yul\":1043:1063   */\n      calldataload\n        /* \"#utility.yul\":1034:1063   */\n      swap1\n      pop\n        /* \"#utility.yul\":1072:1105   */\n      tag_193\n        /* \"#utility.yul\":1099:1104   */\n      dup2\n        /* \"#utility.yul\":1072:1105   */\n      tag_139\n      jump\t// in\n    tag_193:\n        /* \"#utility.yul\":972:1111   */\n      swap3\n      swap2\n      pop\n      pop\n      jump\t// out\n        /* \"#utility.yul\":1117:1446   */\n    tag_19:\n        /* \"#utility.yul\":1176:1182   */\n      0x00\n        /* \"#utility.yul\":1225:1227   */\n      0x20\n        /* \"#utility.yul\":1213:1222   */\n      dup3\n        /* \"#utility.yul\":1204:1211   */\n      dup5\n        /* \"#utility.yul\":1200:1223   */\n      sub\n        /* \"#utility.yul\":1196:1228   */\n      slt\n        /* \"#utility.yul\":1193:1312   */\n      iszero\n      tag_195\n      jumpi\n        /* \"#utility.yul\":1231:1310   */\n      tag_196\n      tag_136\n      jump\t// in\n    tag_196:\n        /* \"#utility.yul\":1193:1312   */\n    tag_195:\n        /* \"#utility.yul\":1351:1352   */\n      0x00\n        /* \"#utility.yul\":1376:1429   */\n      tag_197\n        /* \"#utility.yul\":1421:1428   */\n      dup5\n        /* \"#utility.yul\":1412:1418   */\n      dup3\n        /* \"#utility.yul\":1401:1410   */\n      dup6\n        /* \"#utility.yul\":1397:1419   */\n      add\n        /* \"#utility.yul\":1376:1429   */\n      tag_140\n      jump\t// in\n    tag_197:\n        /* \"#utility.yul\":1366:1429   */\n      swap2\n      pop\n        /* \"#utility.yul\":1322:1439   */\n      pop\n        /* \"#utility.yul\":1117:1446   */\n      swap3\n      swap2\n      pop\n      pop\n      jump\t// out\n        /* \"#utility.yul\":1452:1578   */\n    tag_141:\n        /* \"#utility.yul\":1489:1496   */\n      0x00\n        /* \"#utility.yul\":1529:1571   */\n      0xffffffffffffffffffffffffffffffffffffffff\n        /* \"#utility.yul\":1522:1527   */\n      dup3\n        /* \"#utility.yul\":1518:1572   */\n      and\n        /* \"#utility.yul\":1507:1572   */\n      swap1\n      pop\n        /* \"#utility.yul\":1452:1578   */\n      swap2\n      swap1\n      pop\n      jump\t// out\n        /* \"#utility.yul\":1584:1680   */\n    tag_142:\n        /* \"#utility.yul\":1621:1628   */\n      0x00\n        /* \"#utility.yul\":1650:1674   */\n      tag_200\n        /* \"#utility.yul\":1668:1673   */\n      dup3\n        /* \"#utility.yul\":1650:1674   */\n      tag_141\n      jump\t// in\n    tag_200:\n        /* \"#utility.yul\":1639:1674   */\n      swap1\n      pop\n        /* \"#utility.yul\":1584:1680   */\n      swap2\n      swap1\n      pop\n      jump\t// out\n        /* \"#utility.yul\":1686:1808   */\n    tag_143:\n        /* \"#utility.yul\":1759:1783   */\n      tag_202\n        /* \"#utility.yul\":1777:1782   */\n      dup2\n        /* \"#utility.yul\":1759:1783   */\n      tag_142\n      jump\t// in\n    tag_202:\n        /* \"#utility.yul\":1752:1757   */\n      dup2\n        /* \"#utility.yul\":1749:1784   */\n      eq\n        /* \"#utility.yul\":1739:1802   */\n      tag_203\n      jumpi\n        /* \"#utility.yul\":1798:1799   */\n      0x00\n        /* \"#utility.yul\":1795:1796   */\n      0x00\n        /* \"#utility.yul\":1788:1800   */\n      revert\n        /* \"#utility.yul\":1739:1802   */\n    tag_203:\n        /* \"#utility.yul\":1686:1808   */\n      pop\n      jump\t// out\n        /* \"#utility.yul\":1814:1953   */\n    tag_144:\n        /* \"#utility.yul\":1860:1865   */\n      0x00\n        /* \"#utility.yul\":1898:1904   */\n      dup2\n        /* \"#utility.yul\":1885:1905   */\n      calldataload\n        /* \"#utility.yul\":1876:1905   */\n      swap1\n      pop\n        /* \"#utility.yul\":1914:1947   */\n      tag_205\n        /* \"#utility.yul\":1941:1946   */\n      dup2\n        /* \"#utility.yul\":1914:1947   */\n      tag_143\n      jump\t// in\n    tag_205:\n        /* \"#utility.yul\":1814:1953   */\n      swap3\n      swap2\n      pop\n      pop\n      jump\t// out\n        /* \"#utility.yul\":1959:2075   */\n    tag_145:\n        /* \"#utility.yul\":2029:2050   */\n      tag_207\n        /* \"#utility.yul\":2044:2049   */\n      dup2\n        /* \"#utility.yul\":2029:2050   */\n      tag_133\n      jump\t// in\n    tag_207:\n        /* \"#utility.yul\":2022:2027   */\n      dup2\n        /* \"#utility.yul\":2019:2051   */\n      eq\n        /* \"#utility.yul\":2009:2069   */\n      tag_208\n      jumpi\n        /* \"#utility.yul\":2065:2066   */\n      0x00\n        /* \"#utility.yul\":2062:2063   */\n      0x00\n        /* \"#utility.yul\":2055:2067   */\n      revert\n        /* \"#utility.yul\":2009:2069   */\n    tag_208:\n        /* \"#utility.yul\":1959:2075   */\n      pop\n      jump\t// out\n        /* \"#utility.yul\":2081:2214   */\n    tag_146:\n        /* \"#utility.yul\":2124:2129   */\n      0x00\n        /* \"#utility.yul\":2162:2168   */\n      dup2\n        /* \"#utility.yul\":2149:2169   */\n      calldataload\n        /* \"#utility.yul\":2140:2169   */\n      swap1\n      pop\n        /* \"#utility.yul\":2178:2208   */\n      tag_210\n        /* \"#utility.yul\":2202:2207   */\n      dup2\n        /* \"#utility.yul\":2178:2208   */\n      tag_145\n      jump\t// in\n    tag_210:\n        /* \"#utility.yul\":2081:2214   */\n      swap3\n      swap2\n      pop\n      pop\n      jump\t// out\n        /* \"#utility.yul\":2220:2688   */\n    tag_23:\n        /* \"#utility.yul\":2285:2291   */\n      0x00\n        /* \"#utility.yul\":2293:2299   */\n      0x00\n        /* \"#utility.yul\":2342:2344   */\n      0x40\n        /* \"#utility.yul\":2330:2339   */\n      dup4\n        /* \"#utility.yul\":2321:2328   */\n      dup6\n        /* \"#utility.yul\":2317:2340   */\n      sub\n        /* \"#utility.yul\":2313:2345   */\n      slt\n        /* \"#utility.yul\":2310:2429   */\n      iszero\n      tag_212\n      jumpi\n        /* \"#utility.yul\":2348:2427   */\n      tag_213\n      tag_136\n      jump\t// in\n    tag_213:\n        /* \"#utility.yul\":2310:2429   */\n    tag_212:\n        /* \"#utility.yul\":2468:2469   */\n      0x00\n        /* \"#utility.yul\":2493:2546   */\n      tag_214\n        /* \"#utility.yul\":2538:2545   */\n      dup6\n        /* \"#utility.yul\":2529:2535   */\n      dup3\n        /* \"#utility.yul\":2518:2527   */\n      dup7\n        /* \"#utility.yul\":2514:2536   */\n      add\n        /* \"#utility.yul\":2493:2546   */\n      tag_144\n      jump\t// in\n    tag_214:\n        /* \"#utility.yul\":2483:2546   */\n      swap3\n      pop\n        /* \"#utility.yul\":2439:2556   */\n      pop\n        /* \"#utility.yul\":2595:2597   */\n      0x20\n        /* \"#utility.yul\":2621:2671   */\n      tag_215\n        /* \"#utility.yul\":2663:2670   */\n      dup6\n        /* \"#utility.yul\":2654:2660   */\n      dup3\n        /* \"#utility.yul\":2643:2652   */\n      dup7\n        /* \"#utility.yul\":2639:2661   */\n      add\n        /* \"#utility.yul\":2621:2671   */\n      tag_146\n      jump\t// in\n    tag_215:\n        /* \"#utility.yul\":2611:2671   */\n      swap2\n      pop\n        /* \"#utility.yul\":2566:2681   */\n      pop\n        /* \"#utility.yul\":2220:2688   */\n      swap3\n      pop\n      swap3\n      swap1\n      pop\n      jump\t// out\n        /* \"#utility.yul\":2694:3023   */\n    tag_28:\n        /* \"#utility.yul\":2753:2759   */\n      0x00\n        /* \"#utility.yul\":2802:2804   */\n      0x20\n        /* \"#utility.yul\":2790:2799   */\n      dup3\n        /* \"#utility.yul\":2781:2788   */\n      dup5\n        /* \"#utility.yul\":2777:2800   */\n      sub\n        /* \"#utility.yul\":2773:2805   */\n      slt\n        /* \"#utility.yul\":2770:2889   */\n      iszero\n      tag_217\n      jumpi\n        /* \"#utility.yul\":2808:2887   */\n      tag_218\n      tag_136\n      jump\t// in\n    tag_218:\n        /* \"#utility.yul\":2770:2889   */\n    tag_217:\n        /* \"#utility.yul\":2928:2929   */\n      0x00\n        /* \"#utility.yul\":2953:3006   */\n      tag_219\n        /* \"#utility.yul\":2998:3005   */\n      dup5\n        /* \"#utility.yul\":2989:2995   */\n      dup3\n        /* \"#utility.yul\":2978:2987   */\n      dup6\n        /* \"#utility.yul\":2974:2996   */\n      add\n        /* \"#utility.yul\":2953:3006   */\n      tag_144\n      jump\t// in\n    tag_219:\n        /* \"#utility.yul\":2943:3006   */\n      swap2\n      pop\n        /* \"#utility.yul\":2899:3016   */\n      pop\n        /* \"#utility.yul\":2694:3023   */\n      swap3\n      swap2\n      pop\n      pop\n      jump\t// out\n        /* \"#utility.yul\":3029:3209   */\n    tag_60:\n        /* \"#utility.yul\":3077:3154   */\n      0x4e487b7100000000000000000000000000000000000000000000000000000000\n        /* \"#utility.yul\":3074:3075   */\n      0x00\n        /* \"#utility.yul\":3067:3155   */\n      mstore\n        /* \"#utility.yul\":3174:3178   */\n      0x21\n        /* \"#utility.yul\":3171:3172   */\n      0x04\n        /* \"#utility.yul\":3164:3179   */\n      mstore\n        /* \"#utility.yul\":3198:3202   */\n      0x24\n        /* \"#utility.yul\":3195:3196   */\n      0x00\n        /* \"#utility.yul\":3188:3203   */\n      revert\n        /* \"#utility.yul\":3215:3329   */\n    tag_147:\n        /* \"#utility.yul\":3297:3298   */\n      0x02\n        /* \"#utility.yul\":3290:3295   */\n      dup2\n        /* \"#utility.yul\":3287:3299   */\n      lt\n        /* \"#utility.yul\":3277:3323   */\n      tag_222\n      jumpi\n        /* \"#utility.yul\":3303:3321   */\n      tag_223\n      tag_60\n      jump\t// in\n    tag_223:\n        /* \"#utility.yul\":3277:3323   */\n    tag_222:\n        /* \"#utility.yul\":3215:3329   */\n      pop\n      jump\t// out\n        /* \"#utility.yul\":3335:3464   */\n    tag_148:\n        /* \"#utility.yul\":3381:3388   */\n      0x00\n        /* \"#utility.yul\":3410:3415   */\n      dup2\n        /* \"#utility.yul\":3399:3415   */\n      swap1\n      pop\n        /* \"#utility.yul\":3416:3458   */\n      tag_225\n        /* \"#utility.yul\":3452:3457   */\n      dup3\n        /* \"#utility.yul\":3416:3458   */\n      tag_147\n      jump\t// in\n    tag_225:\n        /* \"#utility.yul\":3335:3464   */\n      swap2\n      swap1\n      pop\n      jump\t// out\n        /* \"#utility.yul\":3470:3599   */\n    tag_149:\n        /* \"#utility.yul\":3527:3536   */\n      0x00\n        /* \"#utility.yul\":3560:3593   */\n      tag_227\n        /* \"#utility.yul\":3587:3592   */\n      dup3\n        /* \"#utility.yul\":3560:3593   */\n      tag_148\n      jump\t// in\n    tag_227:\n        /* \"#utility.yul\":3547:3593   */\n      swap1\n      pop\n        /* \"#utility.yul\":3470:3599   */\n      swap2\n      swap1\n      pop\n      jump\t// out\n        /* \"#utility.yul\":3605:3750   */\n    tag_150:\n        /* \"#utility.yul\":3699:3743   */\n      tag_229\n        /* \"#utility.yul\":3737:3742   */\n      dup2\n        /* \"#utility.yul\":3699:3743   */\n      tag_149\n      jump\t// in\n    tag_229:\n        /* \"#utility.yul\":3694:3697   */\n      dup3\n        /* \"#utility.yul\":3687:3744   */\n      mstore\n        /* \"#utility.yul\":3605:3750   */\n      pop\n      pop\n      jump\t// out\n        /* \"#utility.yul\":3756:3992   */\n    tag_35:\n        /* \"#utility.yul\":3856:3860   */\n      0x00\n        /* \"#utility.yul\":3894:3896   */\n      0x20\n        /* \"#utility.yul\":3883:3892   */\n      dup3\n        /* \"#utility.yul\":3879:3897   */\n      add\n        /* \"#utility.yul\":3871:3897   */\n      swap1\n      pop\n        /* \"#utility.yul\":3907:3985   */\n      tag_231\n        /* \"#utility.yul\":3982:3983   */\n      0x00\n        /* \"#utility.yul\":3971:3980   */\n      dup4\n        /* \"#utility.yul\":3967:3984   */\n      add\n        /* \"#utility.yul\":3958:3964   */\n      dup5\n        /* \"#utility.yul\":3907:3985   */\n      tag_150\n      jump\t// in\n    tag_231:\n        /* \"#utility.yul\":3756:3992   */\n      swap3\n      swap2\n      pop\n      pop\n      jump\t// out\n        /* \"#utility.yul\":3998:4110   */\n    tag_151:\n        /* \"#utility.yul\":4078:4079   */\n      0x02\n        /* \"#utility.yul\":4071:4076   */\n      dup2\n        /* \"#utility.yul\":4068:4080   */\n      lt\n        /* \"#utility.yul\":4058:4104   */\n      tag_233\n      jumpi\n        /* \"#utility.yul\":4084:4102   */\n      tag_234\n      tag_60\n      jump\t// in\n    tag_234:\n        /* \"#utility.yul\":4058:4104   */\n    tag_233:\n        /* \"#utility.yul\":3998:4110   */\n      pop\n      jump\t// out\n        /* \"#utility.yul\":4116:4241   */\n    tag_152:\n        /* \"#utility.yul\":4160:4167   */\n      0x00\n        /* \"#utility.yul\":4189:4194   */\n      dup2\n        /* \"#utility.yul\":4178:4194   */\n      swap1\n      pop\n        /* \"#utility.yul\":4195:4235   */\n      tag_236\n        /* \"#utility.yul\":4229:4234   */\n      dup3\n        /* \"#utility.yul\":4195:4235   */\n      tag_151\n      jump\t// in\n    tag_236:\n        /* \"#utility.yul\":4116:4241   */\n      swap2\n      swap1\n      pop\n      jump\t// out\n        /* \"#utility.yul\":4247:4372   */\n    tag_153:\n        /* \"#utility.yul\":4302:4311   */\n      0x00\n        /* \"#utility.yul\":4335:4366   */\n      tag_238\n        /* \"#utility.yul\":4360:4365   */\n      dup3\n        /* \"#utility.yul\":4335:4366   */\n      tag_152\n      jump\t// in\n    tag_238:\n        /* \"#utility.yul\":4322:4366   */\n      swap1\n      pop\n        /* \"#utility.yul\":4247:4372   */\n      swap2\n      swap1\n      pop\n      jump\t// out\n        /* \"#utility.yul\":4378:4519   */\n    tag_154:\n        /* \"#utility.yul\":4470:4512   */\n      tag_240\n        /* \"#utility.yul\":4506:4511   */\n      dup2\n        /* \"#utility.yul\":4470:4512   */\n      tag_153\n      jump\t// in\n    tag_240:\n        /* \"#utility.yul\":4465:4468   */\n      dup3\n        /* \"#utility.yul\":4458:4513   */\n      mstore\n        /* \"#utility.yul\":4378:4519   */\n      pop\n      pop\n      jump\t// out\n        /* \"#utility.yul\":4525:4757   */\n    tag_41:\n        /* \"#utility.yul\":4623:4627   */\n      0x00\n        /* \"#utility.yul\":4661:4663   */\n      0x20\n        /* \"#utility.yul\":4650:4659   */\n      dup3\n        /* \"#utility.yul\":4646:4664   */\n      add\n        /* \"#utility.yul\":4638:4664   */\n      swap1\n      pop\n        /* \"#utility.yul\":4674:4750   */\n      tag_242\n        /* \"#utility.yul\":4747:4748   */\n      0x00\n        /* \"#utility.yul\":4736:4745   */\n      dup4\n        /* \"#utility.yul\":4732:4749   */\n      add\n        /* \"#utility.yul\":4723:4729   */\n      dup5\n        /* \"#utility.yul\":4674:4750   */\n      tag_154\n      jump\t// in\n    tag_242:\n        /* \"#utility.yul\":4525:4757   */\n      swap3\n      swap2\n      pop\n      pop\n      jump\t// out\n        /* \"#utility.yul\":4763:4867   */\n    tag_155:\n        /* \"#utility.yul\":4808:4815   */\n      0x00\n        /* \"#utility.yul\":4837:4861   */\n      tag_244\n        /* \"#utility.yul\":4855:4860   */\n      dup3\n        /* \"#utility.yul\":4837:4861   */\n      tag_141\n      jump\t// in\n    tag_244:\n        /* \"#utility.yul\":4826:4861   */\n      swap1\n      pop\n        /* \"#utility.yul\":4763:4867   */\n      swap2\n      swap1\n      pop\n      jump\t// out\n        /* \"#utility.yul\":4873:5011   */\n    tag_156:\n        /* \"#utility.yul\":4954:4986   */\n      tag_246\n        /* \"#utility.yul\":4980:4985   */\n      dup2\n        /* \"#utility.yul\":4954:4986   */\n      tag_155\n      jump\t// in\n    tag_246:\n        /* \"#utility.yul\":4947:4952   */\n      dup2\n        /* \"#utility.yul\":4944:4987   */\n      eq\n        /* \"#utility.yul\":4934:5005   */\n      tag_247\n      jumpi\n        /* \"#utility.yul\":5001:5002   */\n      0x00\n        /* \"#utility.yul\":4998:4999   */\n      0x00\n        /* \"#utility.yul\":4991:5003   */\n      revert\n        /* \"#utility.yul\":4934:5005   */\n    tag_247:\n        /* \"#utility.yul\":4873:5011   */\n      pop\n      jump\t// out\n        /* \"#utility.yul\":5017:5172   */\n    tag_157:\n        /* \"#utility.yul\":5071:5076   */\n      0x00\n        /* \"#utility.yul\":5109:5115   */\n      dup2\n        /* \"#utility.yul\":5096:5116   */\n      calldataload\n        /* \"#utility.yul\":5087:5116   */\n      swap1\n      pop\n        /* \"#utility.yul\":5125:5166   */\n      tag_249\n        /* \"#utility.yul\":5160:5165   */\n      dup2\n        /* \"#utility.yul\":5125:5166   */\n      tag_156\n      jump\t// in\n    tag_249:\n        /* \"#utility.yul\":5017:5172   */\n      swap3\n      swap2\n      pop\n      pop\n      jump\t// out\n        /* \"#utility.yul\":5178:5668   */\n    tag_44:\n        /* \"#utility.yul\":5254:5260   */\n      0x00\n        /* \"#utility.yul\":5262:5268   */\n      0x00\n        /* \"#utility.yul\":5311:5313   */\n      0x40\n        /* \"#utility.yul\":5299:5308   */\n      dup4\n        /* \"#utility.yul\":5290:5297   */\n      dup6\n        /* \"#utility.yul\":5286:5309   */\n      sub\n        /* \"#utility.yul\":5282:5314   */\n      slt\n        /* \"#utility.yul\":5279:5398   */\n      iszero\n      tag_251\n      jumpi\n        /* \"#utility.yul\":5317:5396   */\n      tag_252\n      tag_136\n      jump\t// in\n    tag_252:\n        /* \"#utility.yul\":5279:5398   */\n    tag_251:\n        /* \"#utility.yul\":5437:5438   */\n      0x00\n        /* \"#utility.yul\":5462:5523   */\n      tag_253\n        /* \"#utility.yul\":5515:5522   */\n      dup6\n        /* \"#utility.yul\":5506:5512   */\n      dup3\n        /* \"#utility.yul\":5495:5504   */\n      dup7\n        /* \"#utility.yul\":5491:5513   */\n      add\n        /* \"#utility.yul\":5462:5523   */\n      tag_157\n      jump\t// in\n    tag_253:\n        /* \"#utility.yul\":5452:5523   */\n      swap3\n      pop\n        /* \"#utility.yul\":5408:5533   */\n      pop\n        /* \"#utility.yul\":5572:5574   */\n      0x20\n        /* \"#utility.yul\":5598:5651   */\n      tag_254\n        /* \"#utility.yul\":5643:5650   */\n      dup6\n        /* \"#utility.yul\":5634:5640   */\n      dup3\n        /* \"#utility.yul\":5623:5632   */\n      dup7\n        /* \"#utility.yul\":5619:5641   */\n      add\n        /* \"#utility.yul\":5598:5651   */\n      tag_140\n      jump\t// in\n    tag_254:\n        /* \"#utility.yul\":5588:5651   */\n      swap2\n      pop\n        /* \"#utility.yul\":5543:5661   */\n      pop\n        /* \"#utility.yul\":5178:5668   */\n      swap3\n      pop\n      swap3\n      swap1\n      pop\n      jump\t// out\n        /* \"#utility.yul\":5674:5792   */\n    tag_158:\n        /* \"#utility.yul\":5761:5785   */\n      tag_256\n        /* \"#utility.yul\":5779:5784   */\n      dup2\n        /* \"#utility.yul\":5761:5785   */\n      tag_142\n      jump\t// in\n    tag_256:\n        /* \"#utility.yul\":5756:5759   */\n      dup3\n        /* \"#utility.yul\":5749:5786   */\n      mstore\n        /* \"#utility.yul\":5674:5792   */\n      pop\n      pop\n      jump\t// out\n        /* \"#utility.yul\":5798:6020   */\n    tag_50:\n        /* \"#utility.yul\":5891:5895   */\n      0x00\n        /* \"#utility.yul\":5929:5931   */\n      0x20\n        /* \"#utility.yul\":5918:5927   */\n      dup3\n        /* \"#utility.yul\":5914:5932   */\n      add\n        /* \"#utility.yul\":5906:5932   */\n      swap1\n      pop\n        /* \"#utility.yul\":5942:6013   */\n      tag_258\n        /* \"#utility.yul\":6010:6011   */\n      0x00\n        /* \"#utility.yul\":5999:6008   */\n      dup4\n        /* \"#utility.yul\":5995:6012   */\n      add\n        /* \"#utility.yul\":5986:5992   */\n      dup5\n        /* \"#utility.yul\":5942:6013   */\n      tag_158\n      jump\t// in\n    tag_258:\n        /* \"#utility.yul\":5798:6020   */\n      swap3\n      swap2\n      pop\n      pop\n      jump\t// out\n        /* \"#utility.yul\":6026:6141   */\n    tag_159:\n        /* \"#utility.yul\":6109:6110   */\n      0x03\n        /* \"#utility.yul\":6102:6107   */\n      dup2\n        /* \"#utility.yul\":6099:6111   */\n      lt\n        /* \"#utility.yul\":6089:6135   */\n      tag_260\n      jumpi\n        /* \"#utility.yul\":6115:6133   */\n      tag_261\n      tag_60\n      jump\t// in\n    tag_261:\n        /* \"#utility.yul\":6089:6135   */\n    tag_260:\n        /* \"#utility.yul\":6026:6141   */\n      pop\n      jump\t// out\n        /* \"#utility.yul\":6147:6278   */\n    tag_160:\n        /* \"#utility.yul\":6194:6201   */\n      0x00\n        /* \"#utility.yul\":6223:6228   */\n      dup2\n        /* \"#utility.yul\":6212:6228   */\n      swap1\n      pop\n        /* \"#utility.yul\":6229:6272   */\n      tag_263\n        /* \"#utility.yul\":6266:6271   */\n      dup3\n        /* \"#utility.yul\":6229:6272   */\n      tag_159\n      jump\t// in\n    tag_263:\n        /* \"#utility.yul\":6147:6278   */\n      swap2\n      swap1\n      pop\n      jump\t// out\n        /* \"#utility.yul\":6284:6415   */\n    tag_161:\n        /* \"#utility.yul\":6342:6351   */\n      0x00\n        /* \"#utility.yul\":6375:6409   */\n      tag_265\n        /* \"#utility.yul\":6403:6408   */\n      dup3\n        /* \"#utility.yul\":6375:6409   */\n      tag_160\n      jump\t// in\n    tag_265:\n        /* \"#utility.yul\":6362:6409   */\n      swap1\n      pop\n        /* \"#utility.yul\":6284:6415   */\n      swap2\n      swap1\n      pop\n      jump\t// out\n        /* \"#utility.yul\":6421:6568   */\n    tag_162:\n        /* \"#utility.yul\":6516:6561   */\n      tag_267\n        /* \"#utility.yul\":6555:6560   */\n      dup2\n        /* \"#utility.yul\":6516:6561   */\n      tag_161\n      jump\t// in\n    tag_267:\n        /* \"#utility.yul\":6511:6514   */\n      dup3\n        /* \"#utility.yul\":6504:6562   */\n      mstore\n        /* \"#utility.yul\":6421:6568   */\n      pop\n      pop\n      jump\t// out\n        /* \"#utility.yul\":6574:6812   */\n    tag_56:\n        /* \"#utility.yul\":6675:6679   */\n      0x00\n        /* \"#utility.yul\":6713:6715   */\n      0x20\n        /* \"#utility.yul\":6702:6711   */\n      dup3\n        /* \"#utility.yul\":6698:6716   */\n      add\n        /* \"#utility.yul\":6690:6716   */\n      swap1\n      pop\n        /* \"#utility.yul\":6726:6805   */\n      tag_269\n        /* \"#utility.yul\":6802:6803   */\n      0x00\n        /* \"#utility.yul\":6791:6800   */\n      dup4\n        /* \"#utility.yul\":6787:6804   */\n      add\n        /* \"#utility.yul\":6778:6784   */\n      dup5\n        /* \"#utility.yul\":6726:6805   */\n      tag_162\n      jump\t// in\n    tag_269:\n        /* \"#utility.yul\":6574:6812   */\n      swap3\n      swap2\n      pop\n      pop\n      jump\t// out\n        /* \"#utility.yul\":6818:6987   */\n    tag_163:\n        /* \"#utility.yul\":6902:6913   */\n      0x00\n        /* \"#utility.yul\":6936:6942   */\n      dup3\n        /* \"#utility.yul\":6931:6934   */\n      dup3\n        /* \"#utility.yul\":6924:6943   */\n      mstore\n        /* \"#utility.yul\":6976:6980   */\n      0x20\n        /* \"#utility.yul\":6971:6974   */\n      dup3\n        /* \"#utility.yul\":6967:6981   */\n      add\n        /* \"#utility.yul\":6952:6981   */\n      swap1\n      pop\n        /* \"#utility.yul\":6818:6987   */\n      swap3\n      swap2\n      pop\n      pop\n      jump\t// out\n        /* \"#utility.yul\":6993:7158   */\n    tag_164:\n        /* \"#utility.yul\":7133:7150   */\n      0x5472616e73666572207061757365640000000000000000000000000000000000\n        /* \"#utility.yul\":7129:7130   */\n      0x00\n        /* \"#utility.yul\":7121:7127   */\n      dup3\n        /* \"#utility.yul\":7117:7131   */\n      add\n        /* \"#utility.yul\":7110:7151   */\n      mstore\n        /* \"#utility.yul\":6993:7158   */\n      pop\n      jump\t// out\n        /* \"#utility.yul\":7164:7530   */\n    tag_165:\n        /* \"#utility.yul\":7306:7309   */\n      0x00\n        /* \"#utility.yul\":7327:7394   */\n      tag_273\n        /* \"#utility.yul\":7391:7393   */\n      0x0f\n        /* \"#utility.yul\":7386:7389   */\n      dup4\n        /* \"#utility.yul\":7327:7394   */\n      tag_163\n      jump\t// in\n    tag_273:\n        /* \"#utility.yul\":7320:7394   */\n      swap2\n      pop\n        /* \"#utility.yul\":7403:7496   */\n      tag_274\n        /* \"#utility.yul\":7492:7495   */\n      dup3\n        /* \"#utility.yul\":7403:7496   */\n      tag_164\n      jump\t// in\n    tag_274:\n        /* \"#utility.yul\":7521:7523   */\n      0x20\n        /* \"#utility.yul\":7516:7519   */\n      dup3\n        /* \"#utility.yul\":7512:7524   */\n      add\n        /* \"#utility.yul\":7505:7524   */\n      swap1\n      pop\n        /* \"#utility.yul\":7164:7530   */\n      swap2\n      swap1\n      pop\n      jump\t// out\n        /* \"#utility.yul\":7536:7955   */\n    tag_65:\n        /* \"#utility.yul\":7702:7706   */\n      0x00\n        /* \"#utility.yul\":7740:7742   */\n      0x20\n        /* \"#utility.yul\":7729:7738   */\n      dup3\n        /* \"#utility.yul\":7725:7743   */\n      add\n        /* \"#utility.yul\":7717:7743   */\n      swap1\n      pop\n        /* \"#utility.yul\":7789:7798   */\n      dup2\n        /* \"#utility.yul\":7783:7787   */\n      dup2\n        /* \"#utility.yul\":7779:7799   */\n      sub\n        /* \"#utility.yul\":7775:7776   */\n      0x00\n        /* \"#utility.yul\":7764:7773   */\n      dup4\n        /* \"#utility.yul\":7760:7777   */\n      add\n        /* \"#utility.yul\":7753:7800   */\n      mstore\n        /* \"#utility.yul\":7817:7948   */\n      tag_276\n        /* \"#utility.yul\":7943:7947   */\n      dup2\n        /* \"#utility.yul\":7817:7948   */\n      tag_165\n      jump\t// in\n    tag_276:\n        /* \"#utility.yul\":7809:7948   */\n      swap1\n      pop\n        /* \"#utility.yul\":7536:7955   */\n      swap2\n      swap1\n      pop\n      jump\t// out\n        /* \"#utility.yul\":7961:8128   */\n    tag_166:\n        /* \"#utility.yul\":8101:8120   */\n      0x496e73756666696369656e742066756e64000000000000000000000000000000\n        /* \"#utility.yul\":8097:8098   */\n      0x00\n        /* \"#utility.yul\":8089:8095   */\n      dup3\n        /* \"#utility.yul\":8085:8099   */\n      add\n        /* \"#utility.yul\":8078:8121   */\n      mstore\n        /* \"#utility.yul\":7961:8128   */\n      pop\n      jump\t// out\n        /* \"#utility.yul\":8134:8500   */\n    tag_167:\n        /* \"#utility.yul\":8276:8279   */\n      0x00\n        /* \"#utility.yul\":8297:8364   */\n      tag_279\n        /* \"#utility.yul\":8361:8363   */\n      0x11\n        /* \"#utility.yul\":8356:8359   */\n      dup4\n        /* \"#utility.yul\":8297:8364   */\n      tag_163\n      jump\t// in\n    tag_279:\n        /* \"#utility.yul\":8290:8364   */\n      swap2\n      pop\n        /* \"#utility.yul\":8373:8466   */\n      tag_280\n        /* \"#utility.yul\":8462:8465   */\n      dup3\n        /* \"#utility.yul\":8373:8466   */\n      tag_166\n      jump\t// in\n    tag_280:\n        /* \"#utility.yul\":8491:8493   */\n      0x20\n        /* \"#utility.yul\":8486:8489   */\n      dup3\n        /* \"#utility.yul\":8482:8494   */\n      add\n        /* \"#utility.yul\":8475:8494   */\n      swap1\n      pop\n        /* \"#utility.yul\":8134:8500   */\n      swap2\n      swap1\n      pop\n      jump\t// out\n        /* \"#utility.yul\":8506:8925   */\n    tag_73:\n        /* \"#utility.yul\":8672:8676   */\n      0x00\n        /* \"#utility.yul\":8710:8712   */\n      0x20\n        /* \"#utility.yul\":8699:8708   */\n      dup3\n        /* \"#utility.yul\":8695:8713   */\n      add\n        /* \"#utility.yul\":8687:8713   */\n      swap1\n      pop\n        /* \"#utility.yul\":8759:8768   */\n      dup2\n        /* \"#utility.yul\":8753:8757   */\n      dup2\n        /* \"#utility.yul\":8749:8769   */\n      sub\n        /* \"#utility.yul\":8745:8746   */\n      0x00\n        /* \"#utility.yul\":8734:8743   */\n      dup4\n        /* \"#utility.yul\":8730:8747   */\n      add\n        /* \"#utility.yul\":8723:8770   */\n      mstore\n        /* \"#utility.yul\":8787:8918   */\n      tag_282\n        /* \"#utility.yul\":8913:8917   */\n      dup2\n        /* \"#utility.yul\":8787:8918   */\n      tag_167\n      jump\t// in\n    tag_282:\n        /* \"#utility.yul\":8779:8918   */\n      swap1\n      pop\n        /* \"#utility.yul\":8506:8925   */\n      swap2\n      swap1\n      pop\n      jump\t// out\n        /* \"#utility.yul\":8931:9110   */\n    tag_168:\n        /* \"#utility.yul\":9071:9102   */\n      0x496e73696666696369656e7420636f6e74726163742062616c616e6365000000\n        /* \"#utility.yul\":9067:9068   */\n      0x00\n        /* \"#utility.yul\":9059:9065   */\n      dup3\n        /* \"#utility.yul\":9055:9069   */\n      add\n        /* \"#utility.yul\":9048:9103   */\n      mstore\n        /* \"#utility.yul\":8931:9110   */\n      pop\n      jump\t// out\n        /* \"#utility.yul\":9116:9482   */\n    tag_169:\n        /* \"#utility.yul\":9258:9261   */\n      0x00\n        /* \"#utility.yul\":9279:9346   */\n      tag_285\n        /* \"#utility.yul\":9343:9345   */\n      0x1d\n        /* \"#utility.yul\":9338:9341   */\n      dup4\n        /* \"#utility.yul\":9279:9346   */\n      tag_163\n      jump\t// in\n    tag_285:\n        /* \"#utility.yul\":9272:9346   */\n      swap2\n      pop\n        /* \"#utility.yul\":9355:9448   */\n      tag_286\n        /* \"#utility.yul\":9444:9447   */\n      dup3\n        /* \"#utility.yul\":9355:9448   */\n      tag_168\n      jump\t// in\n    tag_286:\n        /* \"#utility.yul\":9473:9475   */\n      0x20\n        /* \"#utility.yul\":9468:9471   */\n      dup3\n        /* \"#utility.yul\":9464:9476   */\n      add\n        /* \"#utility.yul\":9457:9476   */\n      swap1\n      pop\n        /* \"#utility.yul\":9116:9482   */\n      swap2\n      swap1\n      pop\n      jump\t// out\n        /* \"#utility.yul\":9488:9907   */\n    tag_77:\n        /* \"#utility.yul\":9654:9658   */\n      0x00\n        /* \"#utility.yul\":9692:9694   */\n      0x20\n        /* \"#utility.yul\":9681:9690   */\n      dup3\n        /* \"#utility.yul\":9677:9695   */\n      add\n        /* \"#utility.yul\":9669:9695   */\n      swap1\n      pop\n        /* \"#utility.yul\":9741:9750   */\n      dup2\n        /* \"#utility.yul\":9735:9739   */\n      dup2\n        /* \"#utility.yul\":9731:9751   */\n      sub\n        /* \"#utility.yul\":9727:9728   */\n      0x00\n        /* \"#utility.yul\":9716:9725   */\n      dup4\n        /* \"#utility.yul\":9712:9729   */\n      add\n        /* \"#utility.yul\":9705:9752   */\n      mstore\n        /* \"#utility.yul\":9769:9900   */\n      tag_288\n        /* \"#utility.yul\":9895:9899   */\n      dup2\n        /* \"#utility.yul\":9769:9900   */\n      tag_169\n      jump\t// in\n    tag_288:\n        /* \"#utility.yul\":9761:9900   */\n      swap1\n      pop\n        /* \"#utility.yul\":9488:9907   */\n      swap2\n      swap1\n      pop\n      jump\t// out\n        /* \"#utility.yul\":9913:10060   */\n    tag_170:\n        /* \"#utility.yul\":10014:10025   */\n      0x00\n        /* \"#utility.yul\":10051:10054   */\n      dup2\n        /* \"#utility.yul\":10036:10054   */\n      swap1\n      pop\n        /* \"#utility.yul\":9913:10060   */\n      swap3\n      swap2\n      pop\n      pop\n      jump\t// out\n        /* \"#utility.yul\":10066:10180   */\n    tag_171:\n      pop\n      jump\t// out\n        /* \"#utility.yul\":10186:10584   */\n    tag_172:\n        /* \"#utility.yul\":10345:10348   */\n      0x00\n        /* \"#utility.yul\":10366:10449   */\n      tag_292\n        /* \"#utility.yul\":10447:10448   */\n      0x00\n        /* \"#utility.yul\":10442:10445   */\n      dup4\n        /* \"#utility.yul\":10366:10449   */\n      tag_170\n      jump\t// in\n    tag_292:\n        /* \"#utility.yul\":10359:10449   */\n      swap2\n      pop\n        /* \"#utility.yul\":10458:10551   */\n      tag_293\n        /* \"#utility.yul\":10547:10550   */\n      dup3\n        /* \"#utility.yul\":10458:10551   */\n      tag_171\n      jump\t// in\n    tag_293:\n        /* \"#utility.yul\":10576:10577   */\n      0x00\n        /* \"#utility.yul\":10571:10574   */\n      dup3\n        /* \"#utility.yul\":10567:10578   */\n      add\n        /* \"#utility.yul\":10560:10578   */\n      swap1\n      pop\n        /* \"#utility.yul\":10186:10584   */\n      swap2\n      swap1\n      pop\n      jump\t// out\n        /* \"#utility.yul\":10590:10969   */\n    tag_79:\n        /* \"#utility.yul\":10774:10777   */\n      0x00\n        /* \"#utility.yul\":10796:10943   */\n      tag_295\n        /* \"#utility.yul\":10939:10942   */\n      dup3\n        /* \"#utility.yul\":10796:10943   */\n      tag_172\n      jump\t// in\n    tag_295:\n        /* \"#utility.yul\":10789:10943   */\n      swap2\n      pop\n        /* \"#utility.yul\":10960:10963   */\n      dup2\n        /* \"#utility.yul\":10953:10963   */\n      swap1\n      pop\n        /* \"#utility.yul\":10590:10969   */\n      swap2\n      swap1\n      pop\n      jump\t// out\n        /* \"#utility.yul\":10975:11142   */\n    tag_173:\n        /* \"#utility.yul\":11115:11134   */\n      0x5769746864726177616c206661696c6564000000000000000000000000000000\n        /* \"#utility.yul\":11111:11112   */\n      0x00\n        /* \"#utility.yul\":11103:11109   */\n      dup3\n        /* \"#utility.yul\":11099:11113   */\n      add\n        /* \"#utility.yul\":11092:11135   */\n      mstore\n        /* \"#utility.yul\":10975:11142   */\n      pop\n      jump\t// out\n        /* \"#utility.yul\":11148:11514   */\n    tag_174:\n        /* \"#utility.yul\":11290:11293   */\n      0x00\n        /* \"#utility.yul\":11311:11378   */\n      tag_298\n        /* \"#utility.yul\":11375:11377   */\n      0x11\n        /* \"#utility.yul\":11370:11373   */\n      dup4\n        /* \"#utility.yul\":11311:11378   */\n      tag_163\n      jump\t// in\n    tag_298:\n        /* \"#utility.yul\":11304:11378   */\n      swap2\n      pop\n        /* \"#utility.yul\":11387:11480   */\n      tag_299\n        /* \"#utility.yul\":11476:11479   */\n      dup3\n        /* \"#utility.yul\":11387:11480   */\n      tag_173\n      jump\t// in\n    tag_299:\n        /* \"#utility.yul\":11505:11507   */\n      0x20\n        /* \"#utility.yul\":11500:11503   */\n      dup3\n        /* \"#utility.yul\":11496:11508   */\n      add\n        /* \"#utility.yul\":11489:11508   */\n      swap1\n      pop\n        /* \"#utility.yul\":11148:11514   */\n      swap2\n      swap1\n      pop\n      jump\t// out\n        /* \"#utility.yul\":11520:11939   */\n    tag_85:\n        /* \"#utility.yul\":11686:11690   */\n      0x00\n        /* \"#utility.yul\":11724:11726   */\n      0x20\n        /* \"#utility.yul\":11713:11722   */\n      dup3\n        /* \"#utility.yul\":11709:11727   */\n      add\n        /* \"#utility.yul\":11701:11727   */\n      swap1\n      pop\n        /* \"#utility.yul\":11773:11782   */\n      dup2\n        /* \"#utility.yul\":11767:11771   */\n      dup2\n        /* \"#utility.yul\":11763:11783   */\n      sub\n        /* \"#utility.yul\":11759:11760   */\n      0x00\n        /* \"#utility.yul\":11748:11757   */\n      dup4\n        /* \"#utility.yul\":11744:11761   */\n      add\n        /* \"#utility.yul\":11737:11784   */\n      mstore\n        /* \"#utility.yul\":11801:11932   */\n      tag_301\n        /* \"#utility.yul\":11927:11931   */\n      dup2\n        /* \"#utility.yul\":11801:11932   */\n      tag_174\n      jump\t// in\n    tag_301:\n        /* \"#utility.yul\":11793:11932   */\n      swap1\n      pop\n        /* \"#utility.yul\":11520:11939   */\n      swap2\n      swap1\n      pop\n      jump\t// out\n        /* \"#utility.yul\":11945:12107   */\n    tag_175:\n        /* \"#utility.yul\":12085:12099   */\n      0x4e6f7420616e2041646d696e0000000000000000000000000000000000000000\n        /* \"#utility.yul\":12081:12082   */\n      0x00\n        /* \"#utility.yul\":12073:12079   */\n      dup3\n        /* \"#utility.yul\":12069:12083   */\n      add\n        /* \"#utility.yul\":12062:12100   */\n      mstore\n        /* \"#utility.yul\":11945:12107   */\n      pop\n      jump\t// out\n        /* \"#utility.yul\":12113:12479   */\n    tag_176:\n        /* \"#utility.yul\":12255:12258   */\n      0x00\n        /* \"#utility.yul\":12276:12343   */\n      tag_304\n        /* \"#utility.yul\":12340:12342   */\n      0x0c\n        /* \"#utility.yul\":12335:12338   */\n      dup4\n        /* \"#utility.yul\":12276:12343   */\n      tag_163\n      jump\t// in\n    tag_304:\n        /* \"#utility.yul\":12269:12343   */\n      swap2\n      pop\n        /* \"#utility.yul\":12352:12445   */\n      tag_305\n        /* \"#utility.yul\":12441:12444   */\n      dup3\n        /* \"#utility.yul\":12352:12445   */\n      tag_175\n      jump\t// in\n    tag_305:\n        /* \"#utility.yul\":12470:12472   */\n      0x20\n        /* \"#utility.yul\":12465:12468   */\n      dup3\n        /* \"#utility.yul\":12461:12473   */\n      add\n        /* \"#utility.yul\":12454:12473   */\n      swap1\n      pop\n        /* \"#utility.yul\":12113:12479   */\n      swap2\n      swap1\n      pop\n      jump\t// out\n        /* \"#utility.yul\":12485:12904   */\n    tag_93:\n        /* \"#utility.yul\":12651:12655   */\n      0x00\n        /* \"#utility.yul\":12689:12691   */\n      0x20\n        /* \"#utility.yul\":12678:12687   */\n      dup3\n        /* \"#utility.yul\":12674:12692   */\n      add\n        /* \"#utility.yul\":12666:12692   */\n      swap1\n      pop\n        /* \"#utility.yul\":12738:12747   */\n      dup2\n        /* \"#utility.yul\":12732:12736   */\n      dup2\n        /* \"#utility.yul\":12728:12748   */\n      sub\n        /* \"#utility.yul\":12724:12725   */\n      0x00\n        /* \"#utility.yul\":12713:12722   */\n      dup4\n        /* \"#utility.yul\":12709:12726   */\n      add\n        /* \"#utility.yul\":12702:12749   */\n      mstore\n        /* \"#utility.yul\":12766:12897   */\n      tag_307\n        /* \"#utility.yul\":12892:12896   */\n      dup2\n        /* \"#utility.yul\":12766:12897   */\n      tag_176\n      jump\t// in\n    tag_307:\n        /* \"#utility.yul\":12758:12897   */\n      swap1\n      pop\n        /* \"#utility.yul\":12485:12904   */\n      swap2\n      swap1\n      pop\n      jump\t// out\n        /* \"#utility.yul\":12910:13075   */\n    tag_177:\n        /* \"#utility.yul\":13050:13067   */\n      0x5472616e73666572206661696c65640000000000000000000000000000000000\n        /* \"#utility.yul\":13046:13047   */\n      0x00\n        /* \"#utility.yul\":13038:13044   */\n      dup3\n        /* \"#utility.yul\":13034:13048   */\n      add\n        /* \"#utility.yul\":13027:13068   */\n      mstore\n        /* \"#utility.yul\":12910:13075   */\n      pop\n      jump\t// out\n        /* \"#utility.yul\":13081:13447   */\n    tag_178:\n        /* \"#utility.yul\":13223:13226   */\n      0x00\n        /* \"#utility.yul\":13244:13311   */\n      tag_310\n        /* \"#utility.yul\":13308:13310   */\n      0x0f\n        /* \"#utility.yul\":13303:13306   */\n      dup4\n        /* \"#utility.yul\":13244:13311   */\n      tag_163\n      jump\t// in\n    tag_310:\n        /* \"#utility.yul\":13237:13311   */\n      swap2\n      pop\n        /* \"#utility.yul\":13320:13413   */\n      tag_311\n        /* \"#utility.yul\":13409:13412   */\n      dup3\n        /* \"#utility.yul\":13320:13413   */\n      tag_177\n      jump\t// in\n    tag_311:\n        /* \"#utility.yul\":13438:13440   */\n      0x20\n        /* \"#utility.yul\":13433:13436   */\n      dup3\n        /* \"#utility.yul\":13429:13441   */\n      add\n        /* \"#utility.yul\":13422:13441   */\n      swap1\n      pop\n        /* \"#utility.yul\":13081:13447   */\n      swap2\n      swap1\n      pop\n      jump\t// out\n        /* \"#utility.yul\":13453:13872   */\n    tag_132:\n        /* \"#utility.yul\":13619:13623   */\n      0x00\n        /* \"#utility.yul\":13657:13659   */\n      0x20\n        /* \"#utility.yul\":13646:13655   */\n      dup3\n        /* \"#utility.yul\":13642:13660   */\n      add\n        /* \"#utility.yul\":13634:13660   */\n      swap1\n      pop\n        /* \"#utility.yul\":13706:13715   */\n      dup2\n        /* \"#utility.yul\":13700:13704   */\n      dup2\n        /* \"#utility.yul\":13696:13716   */\n      sub\n        /* \"#utility.yul\":13692:13693   */\n      0x00\n        /* \"#utility.yul\":13681:13690   */\n      dup4\n        /* \"#utility.yul\":13677:13694   */\n      add\n        /* \"#utility.yul\":13670:13717   */\n      mstore\n        /* \"#utility.yul\":13734:13865   */\n      tag_313\n        /* \"#utility.yul\":13860:13864   */\n      dup2\n        /* \"#utility.yul\":13734:13865   */\n      tag_178\n      jump\t// in\n    tag_313:\n        /* \"#utility.yul\":13726:13865   */\n      swap1\n      pop\n        /* \"#utility.yul\":13453:13872   */\n      swap2\n      swap1\n      pop\n      jump\t// out\n\n    auxdata: 0xa26469706673582212200bdf3321eb98e4d4a854616399fd5275619f9be4937bfea7a6c27fb12769713564736f6c634300081f0033\n}\n",
				"bytecode": {
					"linkReferences": {},
					"object": "6080604052348015600e575f5ffd5b50335f5f6101000a81548173ffffffffffffffffffffffffffffffffffffffff021916908373ffffffffffffffffffffffffffffffffffffffff1602179055506110448061005b5f395ff3fe608060405260043610610085575f3560e01c8063645b8b1b11610058578063645b8b1b14610113578063993746421461014f578063a9059cbb1461018b578063d5f39488146101a7578063e3d670d7146101d157610085565b8063246b80cf146100895780632e1a7d4d146100b35780634b0bddd2146100cf5780634b3582eb146100eb575b5f5ffd5b348015610094575f5ffd5b5061009d61020d565b6040516100aa91906109fa565b60405180910390f35b6100cd60048036038101906100c89190610a4a565b61021f565b005b6100e960048036038101906100e49190610af9565b61046c565b005b3480156100f6575f5ffd5b50610111600480360381019061010c9190610b37565b6106b0565b005b34801561011e575f5ffd5b5061013960048036038101906101349190610b37565b6107c6565b6040516101469190610bd5565b60405180910390f35b34801561015a575f5ffd5b5061017560048036038101906101709190610b37565b6107e3565b6040516101829190610c34565b60405180910390f35b6101a560048036038101906101a09190610c88565b610800565b005b3480156101b2575f5ffd5b506101bb61099f565b6040516101c89190610cd5565b60405180910390f35b3480156101dc575f5ffd5b506101f760048036038101906101f29190610b37565b6109c3565b6040516102049190610d34565b60405180910390f35b60045f9054906101000a900460ff1681565b60018081111561023257610231610b62565b5b60025f3373ffffffffffffffffffffffffffffffffffffffff1673ffffffffffffffffffffffffffffffffffffffff1681526020019081526020015f205f9054906101000a900460ff16600181111561028e5761028d610b62565b5b146102ce576040517f08c379a00000000000000000000000000000000000000000000000000000000081526004016102c590610da7565b60405180910390fd5b6002808111156102e1576102e0610b62565b5b60035f3373ffffffffffffffffffffffffffffffffffffffff1673ffffffffffffffffffffffffffffffffffffffff1681526020019081526020015f205f9054906101000a900460ff16600281111561033d5761033c610b62565b5b1461037d576040517f08c379a000000000000000000000000000000000000000000000000000000000815260040161037490610e0f565b60405180910390fd5b804710156103c0576040517f08c379a00000000000000000000000000000000000000000000000000000000081526004016103b790610e77565b60405180910390fd5b5f3373ffffffffffffffffffffffffffffffffffffffff16826040516103e590610ec2565b5f6040518083038185875af1925050503d805f811461041f576040519150601f19603f3d011682016040523d82523d5f602084013e610424565b606091505b5050905080610468576040517f08c379a000000000000000000000000000000000000000000000000000000000815260040161045f90610f20565b60405180910390fd5b5050565b5f600181111561047f5761047e610b62565b5b60015f3373ffffffffffffffffffffffffffffffffffffffff1673ffffffffffffffffffffffffffffffffffffffff1681526020019081526020015f205f9054906101000a900460ff1660018111156104db576104da610b62565b5b0361051b576040517f08c379a000000000000000000000000000000000000000000000000000000000815260040161051290610f88565b60405180910390fd5b60028081111561052e5761052d610b62565b5b60035f3373ffffffffffffffffffffffffffffffffffffffff1673ffffffffffffffffffffffffffffffffffffffff1681526020019081526020015f205f9054906101000a900460ff16600281111561058a57610589610b62565b5b146105ca576040517f08c379a00000000000000000000000000000000000000000000000000000000081526004016105c190610e0f565b60405180910390fd5b6001805f3373ffffffffffffffffffffffffffffffffffffffff1673ffffffffffffffffffffffffffffffffffffffff1681526020019081526020015f205f6101000a81548160ff0219169083600181111561062957610628610b62565b5b02179055506001805f8473ffffffffffffffffffffffffffffffffffffffff1673ffffffffffffffffffffffffffffffffffffffff1681526020019081526020015f205f6101000a81548160ff0219169083600181111561068d5761068c610b62565b5b0217905550801560045f6101000a81548160ff0219169083151502179055505050565b5f60018111156106c3576106c2610b62565b5b60015f3373ffffffffffffffffffffffffffffffffffffffff1673ffffffffffffffffffffffffffffffffffffffff1681526020019081526020015f205f9054906101000a900460ff16600181111561071f5761071e610b62565b5b0361075f576040517f08c379a000000000000000000000000000000000000000000000000000000000815260040161075690610f88565b60405180910390fd5b5f60015f8373ffffffffffffffffffffffffffffffffffffffff1673ffffffffffffffffffffffffffffffffffffffff1681526020019081526020015f205f6101000a81548160ff021916908360018111156107be576107bd610b62565b5b021790555050565b6002602052805f5260405f205f915054906101000a900460ff1681565b6001602052805f5260405f205f915054906101000a900460ff1681565b60018081111561081357610812610b62565b5b60025f3373ffffffffffffffffffffffffffffffffffffffff1673ffffffffffffffffffffffffffffffffffffffff1681526020019081526020015f205f9054906101000a900460ff16600181111561086f5761086e610b62565b5b146108af576040517f08c379a00000000000000000000000000000000000000000000000000000000081526004016108a690610da7565b60405180910390fd5b804710156108f2576040517f08c379a00000000000000000000000000000000000000000000000000000000081526004016108e990610e77565b60405180910390fd5b5f8273ffffffffffffffffffffffffffffffffffffffff168260405161091790610ec2565b5f6040518083038185875af1925050503d805f8114610951576040519150601f19603f3d011682016040523d82523d5f602084013e610956565b606091505b505090508061099a576040517f08c379a000000000000000000000000000000000000000000000000000000000815260040161099190610ff0565b60405180910390fd5b505050565b5f5f9054906101000a900473ffffffffffffffffffffffffffffffffffffffff1681565b6003602052805f5260405f205f915054906101000a900460ff1681565b5f8115159050919050565b6109f4816109e0565b82525050565b5f602082019050610a0d5f8301846109eb565b92915050565b5f5ffd5b5f819050919050565b610a2981610a17565b8114610a33575f5ffd5b50565b5f81359050610a4481610a20565b92915050565b5f60208284031215610a5f57610a5e610a13565b5b5f610a6c84828501610a36565b91505092915050565b5f73ffffffffffffffffffffffffffffffffffffffff82169050919050565b5f610a9e82610a75565b9050919050565b610aae81610a94565b8114610ab8575f5ffd5b50565b5f81359050610ac981610aa5565b92915050565b610ad8816109e0565b8114610ae2575f5ffd5b50565b5f81359050610af381610acf565b92915050565b5f5f60408385031215610b0f57610b0e610a13565b5b5f610b1c85828601610abb565b9250506020610b2d85828601610ae5565b9150509250929050565b5f60208284031215610b4c57610b4b610a13565b5b5f610b5984828501610abb565b91505092915050565b7f4e487b71000000000000000000000000000000000000000000000000000000005f52602160045260245ffd5b60028110610ba057610b9f610b62565b5b50565b5f819050610bb082610b8f565b919050565b5f610bbf82610ba3565b9050919050565b610bcf81610bb5565b82525050565b5f602082019050610be85f830184610bc6565b92915050565b60028110610bff57610bfe610b62565b5b50565b5f819050610c0f82610bee565b919050565b5f610c1e82610c02565b9050919050565b610c2e81610c14565b82525050565b5f602082019050610c475f830184610c25565b92915050565b5f610c5782610a75565b9050919050565b610c6781610c4d565b8114610c71575f5ffd5b50565b5f81359050610c8281610c5e565b92915050565b5f5f60408385031215610c9e57610c9d610a13565b5b5f610cab85828601610c74565b9250506020610cbc85828601610a36565b9150509250929050565b610ccf81610a94565b82525050565b5f602082019050610ce85f830184610cc6565b92915050565b60038110610cff57610cfe610b62565b5b50565b5f819050610d0f82610cee565b919050565b5f610d1e82610d02565b9050919050565b610d2e81610d14565b82525050565b5f602082019050610d475f830184610d25565b92915050565b5f82825260208201905092915050565b7f5472616e736665722070617573656400000000000000000000000000000000005f82015250565b5f610d91600f83610d4d565b9150610d9c82610d5d565b602082019050919050565b5f6020820190508181035f830152610dbe81610d85565b9050919050565b7f496e73756666696369656e742066756e640000000000000000000000000000005f82015250565b5f610df9601183610d4d565b9150610e0482610dc5565b602082019050919050565b5f6020820190508181035f830152610e2681610ded565b9050919050565b7f496e73696666696369656e7420636f6e74726163742062616c616e63650000005f82015250565b5f610e61601d83610d4d565b9150610e6c82610e2d565b602082019050919050565b5f6020820190508181035f830152610e8e81610e55565b9050919050565b5f81905092915050565b50565b5f610ead5f83610e95565b9150610eb882610e9f565b5f82019050919050565b5f610ecc82610ea2565b9150819050919050565b7f5769746864726177616c206661696c65640000000000000000000000000000005f82015250565b5f610f0a601183610d4d565b9150610f1582610ed6565b602082019050919050565b5f6020820190508181035f830152610f3781610efe565b9050919050565b7f4e6f7420616e2041646d696e00000000000000000000000000000000000000005f82015250565b5f610f72600c83610d4d565b9150610f7d82610f3e565b602082019050919050565b5f6020820190508181035f830152610f9f81610f66565b9050919050565b7f5472616e73666572206661696c656400000000000000000000000000000000005f82015250565b5f610fda600f83610d4d565b9150610fe582610fa6565b602082019050919050565b5f6020820190508181035f83015261100781610fce565b905091905056fea26469706673582212200bdf3321eb98e4d4a854616399fd5275619f9be4937bfea7a6c27fb12769713564736f6c634300081f0033",
					"opcodes": "PUSH1 0x80 PUSH1 0x40 MSTORE CALLVALUE DUP1 ISZERO PUSH1 0xE JUMPI PUSH0 PUSH0 REVERT JUMPDEST POP CALLER PUSH0 PUSH0 PUSH2 0x100 EXP DUP2 SLOAD DUP2 PUSH20 0xFFFFFFFFFFFFFFFFFFFFFFFFFFFFFFFFFFFFFFFF MUL NOT AND SWAP1 DUP4 PUSH20 0xFFFFFFFFFFFFFFFFFFFFFFFFFFFFFFFFFFFFFFFF AND MUL OR SWAP1 SSTORE POP PUSH2 0x1044 DUP1 PUSH2 0x5B PUSH0 CODECOPY PUSH0 RETURN INVALID PUSH1 0x80 PUSH1 0x40 MSTORE PUSH1 0x4 CALLDATASIZE LT PUSH2 0x85 JUMPI PUSH0 CALLDATALOAD PUSH1 0xE0 SHR DUP1 PUSH4 0x645B8B1B GT PUSH2 0x58 JUMPI DUP1 PUSH4 0x645B8B1B EQ PUSH2 0x113 JUMPI DUP1 PUSH4 0x99374642 EQ PUSH2 0x14F JUMPI DUP1 PUSH4 0xA9059CBB EQ PUSH2 0x18B JUMPI DUP1 PUSH4 0xD5F39488 EQ PUSH2 0x1A7 JUMPI DUP1 PUSH4 0xE3D670D7 EQ PUSH2 0x1D1 JUMPI PUSH2 0x85 JUMP JUMPDEST DUP1 PUSH4 0x246B80CF EQ PUSH2 0x89 JUMPI DUP1 PUSH4 0x2E1A7D4D EQ PUSH2 0xB3 JUMPI DUP1 PUSH4 0x4B0BDDD2 EQ PUSH2 0xCF JUMPI DUP1 PUSH4 0x4B3582EB EQ PUSH2 0xEB JUMPI JUMPDEST PUSH0 PUSH0 REVERT JUMPDEST CALLVALUE DUP1 ISZERO PUSH2 0x94 JUMPI PUSH0 PUSH0 REVERT JUMPDEST POP PUSH2 0x9D PUSH2 0x20D JUMP JUMPDEST PUSH1 0x40 MLOAD PUSH2 0xAA SWAP2 SWAP1 PUSH2 0x9FA JUMP JUMPDEST PUSH1 0x40 MLOAD DUP1 SWAP2 SUB SWAP1 RETURN JUMPDEST PUSH2 0xCD PUSH1 0x4 DUP1 CALLDATASIZE SUB DUP2 ADD SWAP1 PUSH2 0xC8 SWAP2 SWAP1 PUSH2 0xA4A JUMP JUMPDEST PUSH2 0x21F JUMP JUMPDEST STOP JUMPDEST PUSH2 0xE9 PUSH1 0x4 DUP1 CALLDATASIZE SUB DUP2 ADD SWAP1 PUSH2 0xE4 SWAP2 SWAP1 PUSH2 0xAF9 JUMP JUMPDEST PUSH2 0x46C JUMP JUMPDEST STOP JUMPDEST CALLVALUE DUP1 ISZERO PUSH2 0xF6 JUMPI PUSH0 PUSH0 REVERT JUMPDEST POP PUSH2 0x111 PUSH1 0x4 DUP1 CALLDATASIZE SUB DUP2 ADD SWAP1 PUSH2 0x10C SWAP2 SWAP1 PUSH2 0xB37 JUMP JUMPDEST PUSH2 0x6B0 JUMP JUMPDEST STOP JUMPDEST CALLVALUE DUP1 ISZERO PUSH2 0x11E JUMPI PUSH0 PUSH0 REVERT JUMPDEST POP PUSH2 0x139 PUSH1 0x4 DUP1 CALLDATASIZE SUB DUP2 ADD SWAP1 PUSH2 0x134 SWAP2 SWAP1 PUSH2 0xB37 JUMP JUMPDEST PUSH2 0x7C6 JUMP JUMPDEST PUSH1 0x40 MLOAD PUSH2 0x146 SWAP2 SWAP1 PUSH2 0xBD5 JUMP JUMPDEST PUSH1 0x40 MLOAD DUP1 SWAP2 SUB SWAP1 RETURN JUMPDEST CALLVALUE DUP1 ISZERO PUSH2 0x15A JUMPI PUSH0 PUSH0 REVERT JUMPDEST POP PUSH2 0x175 PUSH1 0x4 DUP1 CALLDATASIZE SUB DUP2 ADD SWAP1 PUSH2 0x170 SWAP2 SWAP1 PUSH2 0xB37 JUMP JUMPDEST PUSH2 0x7E3 JUMP JUMPDEST PUSH1 0x40 MLOAD PUSH2 0x182 SWAP2 SWAP1 PUSH2 0xC34 JUMP JUMPDEST PUSH1 0x40 MLOAD DUP1 SWAP2 SUB SWAP1 RETURN JUMPDEST PUSH2 0x1A5 PUSH1 0x4 DUP1 CALLDATASIZE SUB DUP2 ADD SWAP1 PUSH2 0x1A0 SWAP2 SWAP1 PUSH2 0xC88 JUMP JUMPDEST PUSH2 0x800 JUMP JUMPDEST STOP JUMPDEST CALLVALUE DUP1 ISZERO PUSH2 0x1B2 JUMPI PUSH0 PUSH0 REVERT JUMPDEST POP PUSH2 0x1BB PUSH2 0x99F JUMP JUMPDEST PUSH1 0x40 MLOAD PUSH2 0x1C8 SWAP2 SWAP1 PUSH2 0xCD5 JUMP JUMPDEST PUSH1 0x40 MLOAD DUP1 SWAP2 SUB SWAP1 RETURN JUMPDEST CALLVALUE DUP1 ISZERO PUSH2 0x1DC JUMPI PUSH0 PUSH0 REVERT JUMPDEST POP PUSH2 0x1F7 PUSH1 0x4 DUP1 CALLDATASIZE SUB DUP2 ADD SWAP1 PUSH2 0x1F2 SWAP2 SWAP1 PUSH2 0xB37 JUMP JUMPDEST PUSH2 0x9C3 JUMP JUMPDEST PUSH1 0x40 MLOAD PUSH2 0x204 SWAP2 SWAP1 PUSH2 0xD34 JUMP JUMPDEST PUSH1 0x40 MLOAD DUP1 SWAP2 SUB SWAP1 RETURN JUMPDEST PUSH1 0x4 PUSH0 SWAP1 SLOAD SWAP1 PUSH2 0x100 EXP SWAP1 DIV PUSH1 0xFF AND DUP2 JUMP JUMPDEST PUSH1 0x1 DUP1 DUP2 GT ISZERO PUSH2 0x232 JUMPI PUSH2 0x231 PUSH2 0xB62 JUMP JUMPDEST JUMPDEST PUSH1 0x2 PUSH0 CALLER PUSH20 0xFFFFFFFFFFFFFFFFFFFFFFFFFFFFFFFFFFFFFFFF AND PUSH20 0xFFFFFFFFFFFFFFFFFFFFFFFFFFFFFFFFFFFFFFFF AND DUP2 MSTORE PUSH1 0x20 ADD SWAP1 DUP2 MSTORE PUSH1 0x20 ADD PUSH0 KECCAK256 PUSH0 SWAP1 SLOAD SWAP1 PUSH2 0x100 EXP SWAP1 DIV PUSH1 0xFF AND PUSH1 0x1 DUP2 GT ISZERO PUSH2 0x28E JUMPI PUSH2 0x28D PUSH2 0xB62 JUMP JUMPDEST JUMPDEST EQ PUSH2 0x2CE JUMPI PUSH1 0x40 MLOAD PUSH32 0x8C379A000000000000000000000000000000000000000000000000000000000 DUP2 MSTORE PUSH1 0x4 ADD PUSH2 0x2C5 SWAP1 PUSH2 0xDA7 JUMP JUMPDEST PUSH1 0x40 MLOAD DUP1 SWAP2 SUB SWAP1 REVERT JUMPDEST PUSH1 0x2 DUP1 DUP2 GT ISZERO PUSH2 0x2E1 JUMPI PUSH2 0x2E0 PUSH2 0xB62 JUMP JUMPDEST JUMPDEST PUSH1 0x3 PUSH0 CALLER PUSH20 0xFFFFFFFFFFFFFFFFFFFFFFFFFFFFFFFFFFFFFFFF AND PUSH20 0xFFFFFFFFFFFFFFFFFFFFFFFFFFFFFFFFFFFFFFFF AND DUP2 MSTORE PUSH1 0x20 ADD SWAP1 DUP2 MSTORE PUSH1 0x20 ADD PUSH0 KECCAK256 PUSH0 SWAP1 SLOAD SWAP1 PUSH2 0x100 EXP SWAP1 DIV PUSH1 0xFF AND PUSH1 0x2 DUP2 GT ISZERO PUSH2 0x33D JUMPI PUSH2 0x33C PUSH2 0xB62 JUMP JUMPDEST JUMPDEST EQ PUSH2 0x37D JUMPI PUSH1 0x40 MLOAD PUSH32 0x8C379A000000000000000000000000000000000000000000000000000000000 DUP2 MSTORE PUSH1 0x4 ADD PUSH2 0x374 SWAP1 PUSH2 0xE0F JUMP JUMPDEST PUSH1 0x40 MLOAD DUP1 SWAP2 SUB SWAP1 REVERT JUMPDEST DUP1 SELFBALANCE LT ISZERO PUSH2 0x3C0 JUMPI PUSH1 0x40 MLOAD PUSH32 0x8C379A000000000000000000000000000000000000000000000000000000000 DUP2 MSTORE PUSH1 0x4 ADD PUSH2 0x3B7 SWAP1 PUSH2 0xE77 JUMP JUMPDEST PUSH1 0x40 MLOAD DUP1 SWAP2 SUB SWAP1 REVERT JUMPDEST PUSH0 CALLER PUSH20 0xFFFFFFFFFFFFFFFFFFFFFFFFFFFFFFFFFFFFFFFF AND DUP3 PUSH1 0x40 MLOAD PUSH2 0x3E5 SWAP1 PUSH2 0xEC2 JUMP JUMPDEST PUSH0 PUSH1 0x40 MLOAD DUP1 DUP4 SUB DUP2 DUP6 DUP8 GAS CALL SWAP3 POP POP POP RETURNDATASIZE DUP1 PUSH0 DUP2 EQ PUSH2 0x41F JUMPI PUSH1 0x40 MLOAD SWAP2 POP PUSH1 0x1F NOT PUSH1 0x3F RETURNDATASIZE ADD AND DUP3 ADD PUSH1 0x40 MSTORE RETURNDATASIZE DUP3 MSTORE RETURNDATASIZE PUSH0 PUSH1 0x20 DUP5 ADD RETURNDATACOPY PUSH2 0x424 JUMP JUMPDEST PUSH1 0x60 SWAP2 POP JUMPDEST POP POP SWAP1 POP DUP1 PUSH2 0x468 JUMPI PUSH1 0x40 MLOAD PUSH32 0x8C379A000000000000000000000000000000000000000000000000000000000 DUP2 MSTORE PUSH1 0x4 ADD PUSH2 0x45F SWAP1 PUSH2 0xF20 JUMP JUMPDEST PUSH1 0x40 MLOAD DUP1 SWAP2 SUB SWAP1 REVERT JUMPDEST POP POP JUMP JUMPDEST PUSH0 PUSH1 0x1 DUP2 GT ISZERO PUSH2 0x47F JUMPI PUSH2 0x47E PUSH2 0xB62 JUMP JUMPDEST JUMPDEST PUSH1 0x1 PUSH0 CALLER PUSH20 0xFFFFFFFFFFFFFFFFFFFFFFFFFFFFFFFFFFFFFFFF AND PUSH20 0xFFFFFFFFFFFFFFFFFFFFFFFFFFFFFFFFFFFFFFFF AND DUP2 MSTORE PUSH1 0x20 ADD SWAP1 DUP2 MSTORE PUSH1 0x20 ADD PUSH0 KECCAK256 PUSH0 SWAP1 SLOAD SWAP1 PUSH2 0x100 EXP SWAP1 DIV PUSH1 0xFF AND PUSH1 0x1 DUP2 GT ISZERO PUSH2 0x4DB JUMPI PUSH2 0x4DA PUSH2 0xB62 JUMP JUMPDEST JUMPDEST SUB PUSH2 0x51B JUMPI PUSH1 0x40 MLOAD PUSH32 0x8C379A000000000000000000000000000000000000000000000000000000000 DUP2 MSTORE PUSH1 0x4 ADD PUSH2 0x512 SWAP1 PUSH2 0xF88 JUMP JUMPDEST PUSH1 0x40 MLOAD DUP1 SWAP2 SUB SWAP1 REVERT JUMPDEST PUSH1 0x2 DUP1 DUP2 GT ISZERO PUSH2 0x52E JUMPI PUSH2 0x52D PUSH2 0xB62 JUMP JUMPDEST JUMPDEST PUSH1 0x3 PUSH0 CALLER PUSH20 0xFFFFFFFFFFFFFFFFFFFFFFFFFFFFFFFFFFFFFFFF AND PUSH20 0xFFFFFFFFFFFFFFFFFFFFFFFFFFFFFFFFFFFFFFFF AND DUP2 MSTORE PUSH1 0x20 ADD SWAP1 DUP2 MSTORE PUSH1 0x20 ADD PUSH0 KECCAK256 PUSH0 SWAP1 SLOAD SWAP1 PUSH2 0x100 EXP SWAP1 DIV PUSH1 0xFF AND PUSH1 0x2 DUP2 GT ISZERO PUSH2 0x58A JUMPI PUSH2 0x589 PUSH2 0xB62 JUMP JUMPDEST JUMPDEST EQ PUSH2 0x5CA JUMPI PUSH1 0x40 MLOAD PUSH32 0x8C379A000000000000000000000000000000000000000000000000000000000 DUP2 MSTORE PUSH1 0x4 ADD PUSH2 0x5C1 SWAP1 PUSH2 0xE0F JUMP JUMPDEST PUSH1 0x40 MLOAD DUP1 SWAP2 SUB SWAP1 REVERT JUMPDEST PUSH1 0x1 DUP1 PUSH0 CALLER PUSH20 0xFFFFFFFFFFFFFFFFFFFFFFFFFFFFFFFFFFFFFFFF AND PUSH20 0xFFFFFFFFFFFFFFFFFFFFFFFFFFFFFFFFFFFFFFFF AND DUP2 MSTORE PUSH1 0x20 ADD SWAP1 DUP2 MSTORE PUSH1 0x20 ADD PUSH0 KECCAK256 PUSH0 PUSH2 0x100 EXP DUP2 SLOAD DUP2 PUSH1 0xFF MUL NOT AND SWAP1 DUP4 PUSH1 0x1 DUP2 GT ISZERO PUSH2 0x629 JUMPI PUSH2 0x628 PUSH2 0xB62 JUMP JUMPDEST JUMPDEST MUL OR SWAP1 SSTORE POP PUSH1 0x1 DUP1 PUSH0 DUP5 PUSH20 0xFFFFFFFFFFFFFFFFFFFFFFFFFFFFFFFFFFFFFFFF AND PUSH20 0xFFFFFFFFFFFFFFFFFFFFFFFFFFFFFFFFFFFFFFFF AND DUP2 MSTORE PUSH1 0x20 ADD SWAP1 DUP2 MSTORE PUSH1 0x20 ADD PUSH0 KECCAK256 PUSH0 PUSH2 0x100 EXP DUP2 SLOAD DUP2 PUSH1 0xFF MUL NOT AND SWAP1 DUP4 PUSH1 0x1 DUP2 GT ISZERO PUSH2 0x68D JUMPI PUSH2 0x68C PUSH2 0xB62 JUMP JUMPDEST JUMPDEST MUL OR SWAP1 SSTORE POP DUP1 ISZERO PUSH1 0x4 PUSH0 PUSH2 0x100 EXP DUP2 SLOAD DUP2 PUSH1 0xFF MUL NOT AND SWAP1 DUP4 ISZERO ISZERO MUL OR SWAP1 SSTORE POP POP POP JUMP JUMPDEST PUSH0 PUSH1 0x1 DUP2 GT ISZERO PUSH2 0x6C3 JUMPI PUSH2 0x6C2 PUSH2 0xB62 JUMP JUMPDEST JUMPDEST PUSH1 0x1 PUSH0 CALLER PUSH20 0xFFFFFFFFFFFFFFFFFFFFFFFFFFFFFFFFFFFFFFFF AND PUSH20 0xFFFFFFFFFFFFFFFFFFFFFFFFFFFFFFFFFFFFFFFF AND DUP2 MSTORE PUSH1 0x20 ADD SWAP1 DUP2 MSTORE PUSH1 0x20 ADD PUSH0 KECCAK256 PUSH0 SWAP1 SLOAD SWAP1 PUSH2 0x100 EXP SWAP1 DIV PUSH1 0xFF AND PUSH1 0x1 DUP2 GT ISZERO PUSH2 0x71F JUMPI PUSH2 0x71E PUSH2 0xB62 JUMP JUMPDEST JUMPDEST SUB PUSH2 0x75F JUMPI PUSH1 0x40 MLOAD PUSH32 0x8C379A000000000000000000000000000000000000000000000000000000000 DUP2 MSTORE PUSH1 0x4 ADD PUSH2 0x756 SWAP1 PUSH2 0xF88 JUMP JUMPDEST PUSH1 0x40 MLOAD DUP1 SWAP2 SUB SWAP1 REVERT JUMPDEST PUSH0 PUSH1 0x1 PUSH0 DUP4 PUSH20 0xFFFFFFFFFFFFFFFFFFFFFFFFFFFFFFFFFFFFFFFF AND PUSH20 0xFFFFFFFFFFFFFFFFFFFFFFFFFFFFFFFFFFFFFFFF AND DUP2 MSTORE PUSH1 0x20 ADD SWAP1 DUP2 MSTORE PUSH1 0x20 ADD PUSH0 KECCAK256 PUSH0 PUSH2 0x100 EXP DUP2 SLOAD DUP2 PUSH1 0xFF MUL NOT AND SWAP1 DUP4 PUSH1 0x1 DUP2 GT ISZERO PUSH2 0x7BE JUMPI PUSH2 0x7BD PUSH2 0xB62 JUMP JUMPDEST JUMPDEST MUL OR SWAP1 SSTORE POP POP JUMP JUMPDEST PUSH1 0x2 PUSH1 0x20 MSTORE DUP1 PUSH0 MSTORE PUSH1 0x40 PUSH0 KECCAK256 PUSH0 SWAP2 POP SLOAD SWAP1 PUSH2 0x100 EXP SWAP1 DIV PUSH1 0xFF AND DUP2 JUMP JUMPDEST PUSH1 0x1 PUSH1 0x20 MSTORE DUP1 PUSH0 MSTORE PUSH1 0x40 PUSH0 KECCAK256 PUSH0 SWAP2 POP SLOAD SWAP1 PUSH2 0x100 EXP SWAP1 DIV PUSH1 0xFF AND DUP2 JUMP JUMPDEST PUSH1 0x1 DUP1 DUP2 GT ISZERO PUSH2 0x813 JUMPI PUSH2 0x812 PUSH2 0xB62 JUMP JUMPDEST JUMPDEST PUSH1 0x2 PUSH0 CALLER PUSH20 0xFFFFFFFFFFFFFFFFFFFFFFFFFFFFFFFFFFFFFFFF AND PUSH20 0xFFFFFFFFFFFFFFFFFFFFFFFFFFFFFFFFFFFFFFFF AND DUP2 MSTORE PUSH1 0x20 ADD SWAP1 DUP2 MSTORE PUSH1 0x20 ADD PUSH0 KECCAK256 PUSH0 SWAP1 SLOAD SWAP1 PUSH2 0x100 EXP SWAP1 DIV PUSH1 0xFF AND PUSH1 0x1 DUP2 GT ISZERO PUSH2 0x86F JUMPI PUSH2 0x86E PUSH2 0xB62 JUMP JUMPDEST JUMPDEST EQ PUSH2 0x8AF JUMPI PUSH1 0x40 MLOAD PUSH32 0x8C379A000000000000000000000000000000000000000000000000000000000 DUP2 MSTORE PUSH1 0x4 ADD PUSH2 0x8A6 SWAP1 PUSH2 0xDA7 JUMP JUMPDEST PUSH1 0x40 MLOAD DUP1 SWAP2 SUB SWAP1 REVERT JUMPDEST DUP1 SELFBALANCE LT ISZERO PUSH2 0x8F2 JUMPI PUSH1 0x40 MLOAD PUSH32 0x8C379A000000000000000000000000000000000000000000000000000000000 DUP2 MSTORE PUSH1 0x4 ADD PUSH2 0x8E9 SWAP1 PUSH2 0xE77 JUMP JUMPDEST PUSH1 0x40 MLOAD DUP1 SWAP2 SUB SWAP1 REVERT JUMPDEST PUSH0 DUP3 PUSH20 0xFFFFFFFFFFFFFFFFFFFFFFFFFFFFFFFFFFFFFFFF AND DUP3 PUSH1 0x40 MLOAD PUSH2 0x917 SWAP1 PUSH2 0xEC2 JUMP JUMPDEST PUSH0 PUSH1 0x40 MLOAD DUP1 DUP4 SUB DUP2 DUP6 DUP8 GAS CALL SWAP3 POP POP POP RETURNDATASIZE DUP1 PUSH0 DUP2 EQ PUSH2 0x951 JUMPI PUSH1 0x40 MLOAD SWAP2 POP PUSH1 0x1F NOT PUSH1 0x3F RETURNDATASIZE ADD AND DUP3 ADD PUSH1 0x40 MSTORE RETURNDATASIZE DUP3 MSTORE RETURNDATASIZE PUSH0 PUSH1 0x20 DUP5 ADD RETURNDATACOPY PUSH2 0x956 JUMP JUMPDEST PUSH1 0x60 SWAP2 POP JUMPDEST POP POP SWAP1 POP DUP1 PUSH2 0x99A JUMPI PUSH1 0x40 MLOAD PUSH32 0x8C379A000000000000000000000000000000000000000000000000000000000 DUP2 MSTORE PUSH1 0x4 ADD PUSH2 0x991 SWAP1 PUSH2 0xFF0 JUMP JUMPDEST PUSH1 0x40 MLOAD DUP1 SWAP2 SUB SWAP1 REVERT JUMPDEST POP POP POP JUMP JUMPDEST PUSH0 PUSH0 SWAP1 SLOAD SWAP1 PUSH2 0x100 EXP SWAP1 DIV PUSH20 0xFFFFFFFFFFFFFFFFFFFFFFFFFFFFFFFFFFFFFFFF AND DUP2 JUMP JUMPDEST PUSH1 0x3 PUSH1 0x20 MSTORE DUP1 PUSH0 MSTORE PUSH1 0x40 PUSH0 KECCAK256 PUSH0 SWAP2 POP SLOAD SWAP1 PUSH2 0x100 EXP SWAP1 DIV PUSH1 0xFF AND DUP2 JUMP JUMPDEST PUSH0 DUP2 ISZERO ISZERO SWAP1 POP SWAP2 SWAP1 POP JUMP JUMPDEST PUSH2 0x9F4 DUP2 PUSH2 0x9E0 JUMP JUMPDEST DUP3 MSTORE POP POP JUMP JUMPDEST PUSH0 PUSH1 0x20 DUP3 ADD SWAP1 POP PUSH2 0xA0D PUSH0 DUP4 ADD DUP5 PUSH2 0x9EB JUMP JUMPDEST SWAP3 SWAP2 POP POP JUMP JUMPDEST PUSH0 PUSH0 REVERT JUMPDEST PUSH0 DUP2 SWAP1 POP SWAP2 SWAP1 POP JUMP JUMPDEST PUSH2 0xA29 DUP2 PUSH2 0xA17 JUMP JUMPDEST DUP2 EQ PUSH2 0xA33 JUMPI PUSH0 PUSH0 REVERT JUMPDEST POP JUMP JUMPDEST PUSH0 DUP2 CALLDATALOAD SWAP1 POP PUSH2 0xA44 DUP2 PUSH2 0xA20 JUMP JUMPDEST SWAP3 SWAP2 POP POP JUMP JUMPDEST PUSH0 PUSH1 0x20 DUP3 DUP5 SUB SLT ISZERO PUSH2 0xA5F JUMPI PUSH2 0xA5E PUSH2 0xA13 JUMP JUMPDEST JUMPDEST PUSH0 PUSH2 0xA6C DUP5 DUP3 DUP6 ADD PUSH2 0xA36 JUMP JUMPDEST SWAP2 POP POP SWAP3 SWAP2 POP POP JUMP JUMPDEST PUSH0 PUSH20 0xFFFFFFFFFFFFFFFFFFFFFFFFFFFFFFFFFFFFFFFF DUP3 AND SWAP1 POP SWAP2 SWAP1 POP JUMP JUMPDEST PUSH0 PUSH2 0xA9E DUP3 PUSH2 0xA75 JUMP JUMPDEST SWAP1 POP SWAP2 SWAP1 POP JUMP JUMPDEST PUSH2 0xAAE DUP2 PUSH2 0xA94 JUMP JUMPDEST DUP2 EQ PUSH2 0xAB8 JUMPI PUSH0 PUSH0 REVERT JUMPDEST POP JUMP JUMPDEST PUSH0 DUP2 CALLDATALOAD SWAP1 POP PUSH2 0xAC9 DUP2 PUSH2 0xAA5 JUMP JUMPDEST SWAP3 SWAP2 POP POP JUMP JUMPDEST PUSH2 0xAD8 DUP2 PUSH2 0x9E0 JUMP JUMPDEST DUP2 EQ PUSH2 0xAE2 JUMPI PUSH0 PUSH0 REVERT JUMPDEST POP JUMP JUMPDEST PUSH0 DUP2 CALLDATALOAD SWAP1 POP PUSH2 0xAF3 DUP2 PUSH2 0xACF JUMP JUMPDEST SWAP3 SWAP2 POP POP JUMP JUMPDEST PUSH0 PUSH0 PUSH1 0x40 DUP4 DUP6 SUB SLT ISZERO PUSH2 0xB0F JUMPI PUSH2 0xB0E PUSH2 0xA13 JUMP JUMPDEST JUMPDEST PUSH0 PUSH2 0xB1C DUP6 DUP3 DUP7 ADD PUSH2 0xABB JUMP JUMPDEST SWAP3 POP POP PUSH1 0x20 PUSH2 0xB2D DUP6 DUP3 DUP7 ADD PUSH2 0xAE5 JUMP JUMPDEST SWAP2 POP POP SWAP3 POP SWAP3 SWAP1 POP JUMP JUMPDEST PUSH0 PUSH1 0x20 DUP3 DUP5 SUB SLT ISZERO PUSH2 0xB4C JUMPI PUSH2 0xB4B PUSH2 0xA13 JUMP JUMPDEST JUMPDEST PUSH0 PUSH2 0xB59 DUP5 DUP3 DUP6 ADD PUSH2 0xABB JUMP JUMPDEST SWAP2 POP POP SWAP3 SWAP2 POP POP JUMP JUMPDEST PUSH32 0x4E487B7100000000000000000000000000000000000000000000000000000000 PUSH0 MSTORE PUSH1 0x21 PUSH1 0x4 MSTORE PUSH1 0x24 PUSH0 REVERT JUMPDEST PUSH1 0x2 DUP2 LT PUSH2 0xBA0 JUMPI PUSH2 0xB9F PUSH2 0xB62 JUMP JUMPDEST JUMPDEST POP JUMP JUMPDEST PUSH0 DUP2 SWAP1 POP PUSH2 0xBB0 DUP3 PUSH2 0xB8F JUMP JUMPDEST SWAP2 SWAP1 POP JUMP JUMPDEST PUSH0 PUSH2 0xBBF DUP3 PUSH2 0xBA3 JUMP JUMPDEST SWAP1 POP SWAP2 SWAP1 POP JUMP JUMPDEST PUSH2 0xBCF DUP2 PUSH2 0xBB5 JUMP JUMPDEST DUP3 MSTORE POP POP JUMP JUMPDEST PUSH0 PUSH1 0x20 DUP3 ADD SWAP1 POP PUSH2 0xBE8 PUSH0 DUP4 ADD DUP5 PUSH2 0xBC6 JUMP JUMPDEST SWAP3 SWAP2 POP POP JUMP JUMPDEST PUSH1 0x2 DUP2 LT PUSH2 0xBFF JUMPI PUSH2 0xBFE PUSH2 0xB62 JUMP JUMPDEST JUMPDEST POP JUMP JUMPDEST PUSH0 DUP2 SWAP1 POP PUSH2 0xC0F DUP3 PUSH2 0xBEE JUMP JUMPDEST SWAP2 SWAP1 POP JUMP JUMPDEST PUSH0 PUSH2 0xC1E DUP3 PUSH2 0xC02 JUMP JUMPDEST SWAP1 POP SWAP2 SWAP1 POP JUMP JUMPDEST PUSH2 0xC2E DUP2 PUSH2 0xC14 JUMP JUMPDEST DUP3 MSTORE POP POP JUMP JUMPDEST PUSH0 PUSH1 0x20 DUP3 ADD SWAP1 POP PUSH2 0xC47 PUSH0 DUP4 ADD DUP5 PUSH2 0xC25 JUMP JUMPDEST SWAP3 SWAP2 POP POP JUMP JUMPDEST PUSH0 PUSH2 0xC57 DUP3 PUSH2 0xA75 JUMP JUMPDEST SWAP1 POP SWAP2 SWAP1 POP JUMP JUMPDEST PUSH2 0xC67 DUP2 PUSH2 0xC4D JUMP JUMPDEST DUP2 EQ PUSH2 0xC71 JUMPI PUSH0 PUSH0 REVERT JUMPDEST POP JUMP JUMPDEST PUSH0 DUP2 CALLDATALOAD SWAP1 POP PUSH2 0xC82 DUP2 PUSH2 0xC5E JUMP JUMPDEST SWAP3 SWAP2 POP POP JUMP JUMPDEST PUSH0 PUSH0 PUSH1 0x40 DUP4 DUP6 SUB SLT ISZERO PUSH2 0xC9E JUMPI PUSH2 0xC9D PUSH2 0xA13 JUMP JUMPDEST JUMPDEST PUSH0 PUSH2 0xCAB DUP6 DUP3 DUP7 ADD PUSH2 0xC74 JUMP JUMPDEST SWAP3 POP POP PUSH1 0x20 PUSH2 0xCBC DUP6 DUP3 DUP7 ADD PUSH2 0xA36 JUMP JUMPDEST SWAP2 POP POP SWAP3 POP SWAP3 SWAP1 POP JUMP JUMPDEST PUSH2 0xCCF DUP2 PUSH2 0xA94 JUMP JUMPDEST DUP3 MSTORE POP POP JUMP JUMPDEST PUSH0 PUSH1 0x20 DUP3 ADD SWAP1 POP PUSH2 0xCE8 PUSH0 DUP4 ADD DUP5 PUSH2 0xCC6 JUMP JUMPDEST SWAP3 SWAP2 POP POP JUMP JUMPDEST PUSH1 0x3 DUP2 LT PUSH2 0xCFF JUMPI PUSH2 0xCFE PUSH2 0xB62 JUMP JUMPDEST JUMPDEST POP JUMP JUMPDEST PUSH0 DUP2 SWAP1 POP PUSH2 0xD0F DUP3 PUSH2 0xCEE JUMP JUMPDEST SWAP2 SWAP1 POP JUMP JUMPDEST PUSH0 PUSH2 0xD1E DUP3 PUSH2 0xD02 JUMP JUMPDEST SWAP1 POP SWAP2 SWAP1 POP JUMP JUMPDEST PUSH2 0xD2E DUP2 PUSH2 0xD14 JUMP JUMPDEST DUP3 MSTORE POP POP JUMP JUMPDEST PUSH0 PUSH1 0x20 DUP3 ADD SWAP1 POP PUSH2 0xD47 PUSH0 DUP4 ADD DUP5 PUSH2 0xD25 JUMP JUMPDEST SWAP3 SWAP2 POP POP JUMP JUMPDEST PUSH0 DUP3 DUP3 MSTORE PUSH1 0x20 DUP3 ADD SWAP1 POP SWAP3 SWAP2 POP POP JUMP JUMPDEST PUSH32 0x5472616E73666572207061757365640000000000000000000000000000000000 PUSH0 DUP3 ADD MSTORE POP JUMP JUMPDEST PUSH0 PUSH2 0xD91 PUSH1 0xF DUP4 PUSH2 0xD4D JUMP JUMPDEST SWAP2 POP PUSH2 0xD9C DUP3 PUSH2 0xD5D JUMP JUMPDEST PUSH1 0x20 DUP3 ADD SWAP1 POP SWAP2 SWAP1 POP JUMP JUMPDEST PUSH0 PUSH1 0x20 DUP3 ADD SWAP1 POP DUP2 DUP2 SUB PUSH0 DUP4 ADD MSTORE PUSH2 0xDBE DUP2 PUSH2 0xD85 JUMP JUMPDEST SWAP1 POP SWAP2 SWAP1 POP JUMP JUMPDEST PUSH32 0x496E73756666696369656E742066756E64000000000000000000000000000000 PUSH0 DUP3 ADD MSTORE POP JUMP JUMPDEST PUSH0 PUSH2 0xDF9 PUSH1 0x11 DUP4 PUSH2 0xD4D JUMP JUMPDEST SWAP2 POP PUSH2 0xE04 DUP3 PUSH2 0xDC5 JUMP JUMPDEST PUSH1 0x20 DUP3 ADD SWAP1 POP SWAP2 SWAP1 POP JUMP JUMPDEST PUSH0 PUSH1 0x20 DUP3 ADD SWAP1 POP DUP2 DUP2 SUB PUSH0 DUP4 ADD MSTORE PUSH2 0xE26 DUP2 PUSH2 0xDED JUMP JUMPDEST SWAP1 POP SWAP2 SWAP1 POP JUMP JUMPDEST PUSH32 0x496E73696666696369656E7420636F6E74726163742062616C616E6365000000 PUSH0 DUP3 ADD MSTORE POP JUMP JUMPDEST PUSH0 PUSH2 0xE61 PUSH1 0x1D DUP4 PUSH2 0xD4D JUMP JUMPDEST SWAP2 POP PUSH2 0xE6C DUP3 PUSH2 0xE2D JUMP JUMPDEST PUSH1 0x20 DUP3 ADD SWAP1 POP SWAP2 SWAP1 POP JUMP JUMPDEST PUSH0 PUSH1 0x20 DUP3 ADD SWAP1 POP DUP2 DUP2 SUB PUSH0 DUP4 ADD MSTORE PUSH2 0xE8E DUP2 PUSH2 0xE55 JUMP JUMPDEST SWAP1 POP SWAP2 SWAP1 POP JUMP JUMPDEST PUSH0 DUP2 SWAP1 POP SWAP3 SWAP2 POP POP JUMP JUMPDEST POP JUMP JUMPDEST PUSH0 PUSH2 0xEAD PUSH0 DUP4 PUSH2 0xE95 JUMP JUMPDEST SWAP2 POP PUSH2 0xEB8 DUP3 PUSH2 0xE9F JUMP JUMPDEST PUSH0 DUP3 ADD SWAP1 POP SWAP2 SWAP1 POP JUMP JUMPDEST PUSH0 PUSH2 0xECC DUP3 PUSH2 0xEA2 JUMP JUMPDEST SWAP2 POP DUP2 SWAP1 POP SWAP2 SWAP1 POP JUMP JUMPDEST PUSH32 0x5769746864726177616C206661696C6564000000000000000000000000000000 PUSH0 DUP3 ADD MSTORE POP JUMP JUMPDEST PUSH0 PUSH2 0xF0A PUSH1 0x11 DUP4 PUSH2 0xD4D JUMP JUMPDEST SWAP2 POP PUSH2 0xF15 DUP3 PUSH2 0xED6 JUMP JUMPDEST PUSH1 0x20 DUP3 ADD SWAP1 POP SWAP2 SWAP1 POP JUMP JUMPDEST PUSH0 PUSH1 0x20 DUP3 ADD SWAP1 POP DUP2 DUP2 SUB PUSH0 DUP4 ADD MSTORE PUSH2 0xF37 DUP2 PUSH2 0xEFE JUMP JUMPDEST SWAP1 POP SWAP2 SWAP1 POP JUMP JUMPDEST PUSH32 0x4E6F7420616E2041646D696E0000000000000000000000000000000000000000 PUSH0 DUP3 ADD MSTORE POP JUMP JUMPDEST PUSH0 PUSH2 0xF72 PUSH1 0xC DUP4 PUSH2 0xD4D JUMP JUMPDEST SWAP2 POP PUSH2 0xF7D DUP3 PUSH2 0xF3E JUMP JUMPDEST PUSH1 0x20 DUP3 ADD SWAP1 POP SWAP2 SWAP1 POP JUMP JUMPDEST PUSH0 PUSH1 0x20 DUP3 ADD SWAP1 POP DUP2 DUP2 SUB PUSH0 DUP4 ADD MSTORE PUSH2 0xF9F DUP2 PUSH2 0xF66 JUMP JUMPDEST SWAP1 POP SWAP2 SWAP1 POP JUMP JUMPDEST PUSH32 0x5472616E73666572206661696C65640000000000000000000000000000000000 PUSH0 DUP3 ADD MSTORE POP JUMP JUMPDEST PUSH0 PUSH2 0xFDA PUSH1 0xF DUP4 PUSH2 0xD4D JUMP JUMPDEST SWAP2 POP PUSH2 0xFE5 DUP3 PUSH2 0xFA6 JUMP JUMPDEST PUSH1 0x20 DUP3 ADD SWAP1 POP SWAP2 SWAP1 POP JUMP JUMPDEST PUSH0 PUSH1 0x20 DUP3 ADD SWAP1 POP DUP2 DUP2 SUB PUSH0 DUP4 ADD MSTORE PUSH2 0x1007 DUP2 PUSH2 0xFCE JUMP JUMPDEST SWAP1 POP SWAP2 SWAP1 POP JUMP INVALID LOG2 PUSH5 0x6970667358 0x22 SLT KECCAK256 SIGNEXTEND 0xDF CALLER 0x21 0xEB SWAP9 RETF 0xD4 0xA8 SLOAD PUSH2 0x6399 REVERT MSTORE PUSH22 0x619F9BE4937BFEA7A6C27FB12769713564736F6C6343 STOP ADDMOD 0x1F STOP CALLER "
				},
				"gasEstimates": {
					"creation": {
						"codeDepositCost": "832800",
						"executionCost": "25132",
						"totalCost": "857932"
					},
					"external": {
						"balance(address)": "3009",
						"canDelete()": "2467",
						"deployer()": "2573",
						"roles(address)": "2943",
						"sackAdmin(address)": "27185",
						"setAdmin(address,bool)": "78255",
						"status(address)": "2921",
						"transfer(address,uint256)": "infinite",
						"withdraw(uint256)": "infinite"
					}
				},
				"methodIdentifiers": {
					"balance(address)": "e3d670d7",
					"canDelete()": "246b80cf",
					"deployer()": "d5f39488",
					"roles(address)": "99374642",
					"sackAdmin(address)": "4b3582eb",
					"setAdmin(address,bool)": "4b0bddd2",
					"status(address)": "645b8b1b",
					"transfer(address,uint256)": "a9059cbb",
					"withdraw(uint256)": "2e1a7d4d"
				}
			},
			"storageLayout": {
				"storage": [
					{
						"astId": 37,
						"contract": "W3day3.sol:ProfileModifier",
						"label": "deployer",
						"offset": 0,
						"slot": "0",
						"type": "t_address"
					},
					{
						"astId": 42,
						"contract": "W3day3.sol:ProfileModifier",
						"label": "roles",
						"offset": 0,
						"slot": "1",
						"type": "t_mapping(t_address,t_enum(Role)28)"
					},
					{
						"astId": 47,
						"contract": "W3day3.sol:ProfileModifier",
						"label": "status",
						"offset": 0,
						"slot": "2",
						"type": "t_mapping(t_address,t_enum(Status)31)"
					},
					{
						"astId": 52,
						"contract": "W3day3.sol:ProfileModifier",
						"label": "balance",
						"offset": 0,
						"slot": "3",
						"type": "t_mapping(t_address,t_enum(Balance)35)"
					},
					{
						"astId": 54,
						"contract": "W3day3.sol:ProfileModifier",
						"label": "canDelete",
						"offset": 0,
						"slot": "4",
						"type": "t_bool"
					}
				],
				"types": {
					"t_address": {
						"encoding": "inplace",
						"label": "address",
						"numberOfBytes": "20"
					},
					"t_bool": {
						"encoding": "inplace",
						"label": "bool",
						"numberOfBytes": "1"
					},
					"t_enum(Balance)35": {
						"encoding": "inplace",
						"label": "enum ProfileModifier.Balance",
						"numberOfBytes": "1"
					},
					"t_enum(Role)28": {
						"encoding": "inplace",
						"label": "enum ProfileModifier.Role",
						"numberOfBytes": "1"
					},
					"t_enum(Status)31": {
						"encoding": "inplace",
						"label": "enum ProfileModifier.Status",
						"numberOfBytes": "1"
					},
					"t_mapping(t_address,t_enum(Balance)35)": {
						"encoding": "mapping",
						"key": "t_address",
						"label": "mapping(address => enum ProfileModifier.Balance)",
						"numberOfBytes": "32",
						"value": "t_enum(Balance)35"
					},
					"t_mapping(t_address,t_enum(Role)28)": {
						"encoding": "mapping",
						"key": "t_address",
						"label": "mapping(address => enum ProfileModifier.Role)",
						"numberOfBytes": "32",
						"value": "t_enum(Role)28"
					},
					"t_mapping(t_address,t_enum(Status)31)": {
						"encoding": "mapping",
						"key": "t_address",
						"label": "mapping(address => enum ProfileModifier.Status)",
						"numberOfBytes": "32",
						"value": "t_enum(Status)31"
					}
				}
			},
			"userdoc": {
				"kind": "user",
				"methods": {},
				"version": 1
			}
		}
	}
}