{
	"AdminControlledRegistry.sol": {
		"AdminControlledRegistry": {
			"abi": [
				{
					"inputs": [],
					"stateMutability": "nonpayable",
					"type": "constructor"
				},
				{
					"inputs": [],
					"name": "notAnAdmin",
					"type": "error"
				},
				{
					"anonymous": false,
					"inputs": [
						{
							"indexed": false,
							"internalType": "string",
							"name": "_fullName",
							"type": "string"
						},
						{
							"indexed": false,
							"internalType": "uint256",
							"name": "YOB",
							"type": "uint256"
						},
						{
							"indexed": false,
							"internalType": "enum AdminControlledRegistry.Gender",
							"name": "gender",
							"type": "uint8"
						},
						{
							"indexed": false,
							"internalType": "string",
							"name": "emailAddress",
							"type": "string"
						}
					],
					"name": "DataSubmitted",
					"type": "event"
				},
				{
					"inputs": [
						{
							"internalType": "address",
							"name": "",
							"type": "address"
						}
					],
					"name": "genders",
					"outputs": [
						{
							"internalType": "enum AdminControlledRegistry.Gender",
							"name": "",
							"type": "uint8"
						}
					],
					"stateMutability": "view",
					"type": "function"
				},
				{
					"inputs": [],
					"name": "owner",
					"outputs": [
						{
							"internalType": "address",
							"name": "",
							"type": "address"
						}
					],
					"stateMutability": "view",
					"type": "function"
				},
				{
					"inputs": [
						{
							"internalType": "address",
							"name": "",
							"type": "address"
						}
					],
					"name": "roles",
					"outputs": [
						{
							"internalType": "enum AdminControlledRegistry.Role",
							"name": "",
							"type": "uint8"
						}
					],
					"stateMutability": "view",
					"type": "function"
				},
				{
					"inputs": [
						{
							"internalType": "string",
							"name": "_fullName",
							"type": "string"
						},
						{
							"internalType": "enum AdminControlledRegistry.Gender",
							"name": "_gender",
							"type": "uint8"
						},
						{
							"internalType": "uint256",
							"name": "_YOB",
							"type": "uint256"
						},
						{
							"internalType": "string",
							"name": "_email",
							"type": "string"
						}
					],
					"name": "submitData",
					"outputs": [],
					"stateMutability": "nonpayable",
					"type": "function"
				},
				{
					"inputs": [
						{
							"internalType": "address",
							"name": "",
							"type": "address"
						}
					],
					"name": "users",
					"outputs": [
						{
							"components": [
								{
									"internalType": "string",
									"name": "fullName",
									"type": "string"
								},
								{
									"internalType": "uint256",
									"name": "YOB",
									"type": "uint256"
								},
								{
									"internalType": "enum AdminControlledRegistry.Gender",
									"name": "gender",
									"type": "uint8"
								},
								{
									"internalType": "string",
									"name": "emailAddress",
									"type": "string"
								}
							],
							"internalType": "struct AdminControlledRegistry.UserInformation",
							"name": "userInformation",
							"type": "tuple"
						},
						{
							"components": [
								{
									"internalType": "enum AdminControlledRegistry.RequestType",
									"name": "typeRequest",
									"type": "uint8"
								},
								{
									"internalType": "string",
									"name": "purpose",
									"type": "string"
								},
								{
									"internalType": "uint256",
									"name": "idN",
									"type": "uint256"
								}
							],
							"internalType": "struct AdminControlledRegistry.RegistrationDetails",
							"name": "regDetails",
							"type": "tuple"
						}
					],
					"stateMutability": "view",
					"type": "function"
				}
			],
			"devdoc": {
				"kind": "dev",
				"methods": {},
				"version": 1
			},
			"evm": {
				"assembly": "    /* \"AdminControlledRegistry.sol\":309:1781  contract AdminControlledRegistry{... */\n  mstore(0x40, 0x80)\n    /* \"AdminControlledRegistry.sol\":379:430  constructor() {... */\n  callvalue\n  dup1\n  iszero\n  tag_1\n  jumpi\n  revert(0x00, 0x00)\ntag_1:\n  pop\n    /* \"AdminControlledRegistry.sol\":412:422  msg.sender */\n  caller\n    /* \"AdminControlledRegistry.sol\":404:409  owner */\n  0x00\n  0x00\n    /* \"AdminControlledRegistry.sol\":404:422  owner = msg.sender */\n  0x0100\n  exp\n  dup2\n  sload\n  dup2\n  0xffffffffffffffffffffffffffffffffffffffff\n  mul\n  not\n  and\n  swap1\n  dup4\n  0xffffffffffffffffffffffffffffffffffffffff\n  and\n  mul\n  or\n  swap1\n  sstore\n  pop\n    /* \"AdminControlledRegistry.sol\":309:1781  contract AdminControlledRegistry{... */\n  dataSize(sub_0)\n  dup1\n  dataOffset(sub_0)\n  0x00\n  codecopy\n  0x00\n  return\nstop\n\nsub_0: assembly {\n        /* \"AdminControlledRegistry.sol\":309:1781  contract AdminControlledRegistry{... */\n      mstore(0x40, 0x80)\n      callvalue\n      dup1\n      iszero\n      tag_1\n      jumpi\n      revert(0x00, 0x00)\n    tag_1:\n      pop\n      jumpi(tag_2, lt(calldatasize, 0x04))\n      shr(0xe0, calldataload(0x00))\n      dup1\n      0x07d2a101\n      eq\n      tag_3\n      jumpi\n      dup1\n      0x8da5cb5b\n      eq\n      tag_4\n      jumpi\n      dup1\n      0x99374642\n      eq\n      tag_5\n      jumpi\n      dup1\n      0xa87430ba\n      eq\n      tag_6\n      jumpi\n      dup1\n      0xe482656d\n      eq\n      tag_7\n      jumpi\n    tag_2:\n      revert(0x00, 0x00)\n        /* \"AdminControlledRegistry.sol\":1144:1185  mapping(address => Gender) public genders */\n    tag_3:\n      tag_8\n      0x04\n      dup1\n      calldatasize\n      sub\n      dup2\n      add\n      swap1\n      tag_9\n      swap2\n      swap1\n      tag_10\n      jump\t// in\n    tag_9:\n      tag_11\n      jump\t// in\n    tag_8:\n      mload(0x40)\n      tag_12\n      swap2\n      swap1\n      tag_13\n      jump\t// in\n    tag_12:\n      mload(0x40)\n      dup1\n      swap2\n      sub\n      swap1\n      return\n        /* \"AdminControlledRegistry.sol\":350:370  address public owner */\n    tag_4:\n      tag_14\n      tag_15\n      jump\t// in\n    tag_14:\n      mload(0x40)\n      tag_16\n      swap2\n      swap1\n      tag_17\n      jump\t// in\n    tag_16:\n      mload(0x40)\n      dup1\n      swap2\n      sub\n      swap1\n      return\n        /* \"AdminControlledRegistry.sol\":1100:1137  mapping(address => Role) public roles */\n    tag_5:\n      tag_18\n      0x04\n      dup1\n      calldatasize\n      sub\n      dup2\n      add\n      swap1\n      tag_19\n      swap2\n      swap1\n      tag_10\n      jump\t// in\n    tag_19:\n      tag_20\n      jump\t// in\n    tag_18:\n      mload(0x40)\n      tag_21\n      swap2\n      swap1\n      tag_22\n      jump\t// in\n    tag_21:\n      mload(0x40)\n      dup1\n      swap2\n      sub\n      swap1\n      return\n        /* \"AdminControlledRegistry.sol\":1056:1093  mapping(address => User) public users */\n    tag_6:\n      tag_23\n      0x04\n      dup1\n      calldatasize\n      sub\n      dup2\n      add\n      swap1\n      tag_24\n      swap2\n      swap1\n      tag_10\n      jump\t// in\n    tag_24:\n      tag_25\n      jump\t// in\n    tag_23:\n      mload(0x40)\n      tag_26\n      swap3\n      swap2\n      swap1\n      tag_27\n      jump\t// in\n    tag_26:\n      mload(0x40)\n      dup1\n      swap2\n      sub\n      swap1\n      return\n        /* \"AdminControlledRegistry.sol\":1417:1776  function submitData(string memory _fullName, Gender _gender, uint256 _YOB, string memory _email) public {... */\n    tag_7:\n      tag_28\n      0x04\n      dup1\n      calldatasize\n      sub\n      dup2\n      add\n      swap1\n      tag_29\n      swap2\n      swap1\n      tag_30\n      jump\t// in\n    tag_29:\n      tag_31\n      jump\t// in\n    tag_28:\n      stop\n        /* \"AdminControlledRegistry.sol\":1144:1185  mapping(address => Gender) public genders */\n    tag_11:\n      mstore(0x20, 0x03)\n      dup1\n      0x00\n      mstore\n      keccak256(0x00, 0x40)\n      0x00\n      swap2\n      pop\n      sload\n      swap1\n      0x0100\n      exp\n      swap1\n      div\n      0xff\n      and\n      dup2\n      jump\t// out\n        /* \"AdminControlledRegistry.sol\":350:370  address public owner */\n    tag_15:\n      0x00\n      0x00\n      swap1\n      sload\n      swap1\n      0x0100\n      exp\n      swap1\n      div\n      0xffffffffffffffffffffffffffffffffffffffff\n      and\n      dup2\n      jump\t// out\n        /* \"AdminControlledRegistry.sol\":1100:1137  mapping(address => Role) public roles */\n    tag_20:\n      mstore(0x20, 0x02)\n      dup1\n      0x00\n      mstore\n      keccak256(0x00, 0x40)\n      0x00\n      swap2\n      pop\n      sload\n      swap1\n      0x0100\n      exp\n      swap1\n      div\n      0xff\n      and\n      dup2\n      jump\t// out\n        /* \"AdminControlledRegistry.sol\":1056:1093  mapping(address => User) public users */\n    tag_25:\n      mstore(0x20, 0x01)\n      dup1\n      0x00\n      mstore\n      keccak256(0x00, 0x40)\n      0x00\n      swap2\n      pop\n      swap1\n      pop\n      dup1\n      0x00\n      add\n      mload(0x40)\n      dup1\n      0x80\n      add\n      0x40\n      mstore\n      swap1\n      dup2\n      0x00\n      dup3\n      add\n      dup1\n      sload\n      tag_32\n      swap1\n      tag_33\n      jump\t// in\n    tag_32:\n      dup1\n      0x1f\n      add\n      0x20\n      dup1\n      swap2\n      div\n      mul\n      0x20\n      add\n      mload(0x40)\n      swap1\n      dup2\n      add\n      0x40\n      mstore\n      dup1\n      swap3\n      swap2\n      swap1\n      dup2\n      dup2\n      mstore\n      0x20\n      add\n      dup3\n      dup1\n      sload\n      tag_34\n      swap1\n      tag_33\n      jump\t// in\n    tag_34:\n      dup1\n      iszero\n      tag_35\n      jumpi\n      dup1\n      0x1f\n      lt\n      tag_36\n      jumpi\n      0x0100\n      dup1\n      dup4\n      sload\n      div\n      mul\n      dup4\n      mstore\n      swap2\n      0x20\n      add\n      swap2\n      jump(tag_35)\n    tag_36:\n      dup3\n      add\n      swap2\n      swap1\n      0x00\n      mstore\n      keccak256(0x00, 0x20)\n      swap1\n    tag_37:\n      dup2\n      sload\n      dup2\n      mstore\n      swap1\n      0x01\n      add\n      swap1\n      0x20\n      add\n      dup1\n      dup4\n      gt\n      tag_37\n      jumpi\n      dup3\n      swap1\n      sub\n      0x1f\n      and\n      dup3\n      add\n      swap2\n    tag_35:\n      pop\n      pop\n      pop\n      pop\n      pop\n      dup2\n      mstore\n      0x20\n      add\n      0x01\n      dup3\n      add\n      sload\n      dup2\n      mstore\n      0x20\n      add\n      0x02\n      dup3\n      add\n      0x00\n      swap1\n      sload\n      swap1\n      0x0100\n      exp\n      swap1\n      div\n      0xff\n      and\n      0x01\n      dup2\n      gt\n      iszero\n      tag_38\n      jumpi\n      tag_39\n      tag_40\n      jump\t// in\n    tag_39:\n    tag_38:\n      0x01\n      dup2\n      gt\n      iszero\n      tag_41\n      jumpi\n      tag_42\n      tag_40\n      jump\t// in\n    tag_42:\n    tag_41:\n      dup2\n      mstore\n      0x20\n      add\n      0x03\n      dup3\n      add\n      dup1\n      sload\n      tag_43\n      swap1\n      tag_33\n      jump\t// in\n    tag_43:\n      dup1\n      0x1f\n      add\n      0x20\n      dup1\n      swap2\n      div\n      mul\n      0x20\n      add\n      mload(0x40)\n      swap1\n      dup2\n      add\n      0x40\n      mstore\n      dup1\n      swap3\n      swap2\n      swap1\n      dup2\n      dup2\n      mstore\n      0x20\n      add\n      dup3\n      dup1\n      sload\n      tag_44\n      swap1\n      tag_33\n      jump\t// in\n    tag_44:\n      dup1\n      iszero\n      tag_45\n      jumpi\n      dup1\n      0x1f\n      lt\n      tag_46\n      jumpi\n      0x0100\n      dup1\n      dup4\n      sload\n      div\n      mul\n      dup4\n      mstore\n      swap2\n      0x20\n      add\n      swap2\n      jump(tag_45)\n    tag_46:\n      dup3\n      add\n      swap2\n      swap1\n      0x00\n      mstore\n      keccak256(0x00, 0x20)\n      swap1\n    tag_47:\n      dup2\n      sload\n      dup2\n      mstore\n      swap1\n      0x01\n      add\n      swap1\n      0x20\n      add\n      dup1\n      dup4\n      gt\n      tag_47\n      jumpi\n      dup3\n      swap1\n      sub\n      0x1f\n      and\n      dup3\n      add\n      swap2\n    tag_45:\n      pop\n      pop\n      pop\n      pop\n      pop\n      dup2\n      mstore\n      pop\n      pop\n      swap1\n      dup1\n      0x04\n      add\n      mload(0x40)\n      dup1\n      0x60\n      add\n      0x40\n      mstore\n      swap1\n      dup2\n      0x00\n      dup3\n      add\n      0x00\n      swap1\n      sload\n      swap1\n      0x0100\n      exp\n      swap1\n      div\n      0xff\n      and\n      0x02\n      dup2\n      gt\n      iszero\n      tag_48\n      jumpi\n      tag_49\n      tag_40\n      jump\t// in\n    tag_49:\n    tag_48:\n      0x02\n      dup2\n      gt\n      iszero\n      tag_50\n      jumpi\n      tag_51\n      tag_40\n      jump\t// in\n    tag_51:\n    tag_50:\n      dup2\n      mstore\n      0x20\n      add\n      0x01\n      dup3\n      add\n      dup1\n      sload\n      tag_52\n      swap1\n      tag_33\n      jump\t// in\n    tag_52:\n      dup1\n      0x1f\n      add\n      0x20\n      dup1\n      swap2\n      div\n      mul\n      0x20\n      add\n      mload(0x40)\n      swap1\n      dup2\n      add\n      0x40\n      mstore\n      dup1\n      swap3\n      swap2\n      swap1\n      dup2\n      dup2\n      mstore\n      0x20\n      add\n      dup3\n      dup1\n      sload\n      tag_53\n      swap1\n      tag_33\n      jump\t// in\n    tag_53:\n      dup1\n      iszero\n      tag_54\n      jumpi\n      dup1\n      0x1f\n      lt\n      tag_55\n      jumpi\n      0x0100\n      dup1\n      dup4\n      sload\n      div\n      mul\n      dup4\n      mstore\n      swap2\n      0x20\n      add\n      swap2\n      jump(tag_54)\n    tag_55:\n      dup3\n      add\n      swap2\n      swap1\n      0x00\n      mstore\n      keccak256(0x00, 0x20)\n      swap1\n    tag_56:\n      dup2\n      sload\n      dup2\n      mstore\n      swap1\n      0x01\n      add\n      swap1\n      0x20\n      add\n      dup1\n      dup4\n      gt\n      tag_56\n      jumpi\n      dup3\n      swap1\n      sub\n      0x1f\n      and\n      dup3\n      add\n      swap2\n    tag_54:\n      pop\n      pop\n      pop\n      pop\n      pop\n      dup2\n      mstore\n      0x20\n      add\n      0x02\n      dup3\n      add\n      sload\n      dup2\n      mstore\n      pop\n      pop\n      swap1\n      pop\n      dup3\n      jump\t// out\n        /* \"AdminControlledRegistry.sol\":1417:1776  function submitData(string memory _fullName, Gender _gender, uint256 _YOB, string memory _email) public {... */\n    tag_31:\n        /* \"AdminControlledRegistry.sol\":1568:1703  UserInformation({... */\n      mload(0x40)\n      dup1\n      0x80\n      add\n      0x40\n      mstore\n      dup1\n        /* \"AdminControlledRegistry.sol\":1605:1614  _fullName */\n      dup6\n        /* \"AdminControlledRegistry.sol\":1568:1703  UserInformation({... */\n      dup2\n      mstore\n      0x20\n      add\n        /* \"AdminControlledRegistry.sol\":1630:1634  _YOB */\n      dup4\n        /* \"AdminControlledRegistry.sol\":1568:1703  UserInformation({... */\n      dup2\n      mstore\n      0x20\n      add\n        /* \"AdminControlledRegistry.sol\":1653:1660  _gender */\n      dup5\n        /* \"AdminControlledRegistry.sol\":1568:1703  UserInformation({... */\n      0x01\n      dup2\n      gt\n      iszero\n      tag_58\n      jumpi\n      tag_59\n      tag_40\n      jump\t// in\n    tag_59:\n    tag_58:\n      dup2\n      mstore\n      0x20\n      add\n        /* \"AdminControlledRegistry.sol\":1685:1691  _email */\n      dup3\n        /* \"AdminControlledRegistry.sol\":1568:1703  UserInformation({... */\n      dup2\n      mstore\n      pop\n        /* \"AdminControlledRegistry.sol\":1532:1537  users */\n      0x01\n        /* \"AdminControlledRegistry.sol\":1532:1549  users[msg.sender] */\n      0x00\n        /* \"AdminControlledRegistry.sol\":1538:1548  msg.sender */\n      caller\n        /* \"AdminControlledRegistry.sol\":1532:1549  users[msg.sender] */\n      0xffffffffffffffffffffffffffffffffffffffff\n      and\n      0xffffffffffffffffffffffffffffffffffffffff\n      and\n      dup2\n      mstore\n      0x20\n      add\n      swap1\n      dup2\n      mstore\n      0x20\n      add\n      0x00\n      keccak256\n        /* \"AdminControlledRegistry.sol\":1532:1565  users[msg.sender].userInformation */\n      0x00\n      add\n        /* \"AdminControlledRegistry.sol\":1532:1703  users[msg.sender].userInformation = UserInformation({... */\n      0x00\n      dup3\n      add\n      mload\n      dup2\n      0x00\n      add\n      swap1\n      dup2\n      tag_60\n      swap2\n      swap1\n      tag_61\n      jump\t// in\n    tag_60:\n      pop\n      0x20\n      dup3\n      add\n      mload\n      dup2\n      0x01\n      add\n      sstore\n      0x40\n      dup3\n      add\n      mload\n      dup2\n      0x02\n      add\n      exp(0x0100, 0x00)\n      dup2\n      sload\n      dup2\n      0xff\n      mul\n      not\n      and\n      swap1\n      dup4\n      0x01\n      dup2\n      gt\n      iszero\n      tag_62\n      jumpi\n      tag_63\n      tag_40\n      jump\t// in\n    tag_63:\n    tag_62:\n      mul\n      or\n      swap1\n      sstore\n      pop\n      0x60\n      dup3\n      add\n      mload\n      dup2\n      0x03\n      add\n      swap1\n      dup2\n      tag_64\n      swap2\n      swap1\n      tag_61\n      jump\t// in\n    tag_64:\n      pop\n      swap1\n      pop\n      pop\n        /* \"AdminControlledRegistry.sol\":1721:1768  DataSubmitted(_fullName, _YOB, _gender, _email) */\n      0xb578f66e00dd5ce37b5eb9655026c617e4051d69a28c6f3145b3dac4f34ab985\n        /* \"AdminControlledRegistry.sol\":1735:1744  _fullName */\n      dup5\n        /* \"AdminControlledRegistry.sol\":1746:1750  _YOB */\n      dup4\n        /* \"AdminControlledRegistry.sol\":1752:1759  _gender */\n      dup6\n        /* \"AdminControlledRegistry.sol\":1761:1767  _email */\n      dup5\n        /* \"AdminControlledRegistry.sol\":1721:1768  DataSubmitted(_fullName, _YOB, _gender, _email) */\n      mload(0x40)\n      tag_65\n      swap5\n      swap4\n      swap3\n      swap2\n      swap1\n      tag_66\n      jump\t// in\n    tag_65:\n      mload(0x40)\n      dup1\n      swap2\n      sub\n      swap1\n      log1\n        /* \"AdminControlledRegistry.sol\":1417:1776  function submitData(string memory _fullName, Gender _gender, uint256 _YOB, string memory _email) public {... */\n      pop\n      pop\n      pop\n      pop\n      jump\t// out\n        /* \"#utility.yul\":7:82   */\n    tag_67:\n        /* \"#utility.yul\":40:46   */\n      0x00\n        /* \"#utility.yul\":73:75   */\n      0x40\n        /* \"#utility.yul\":67:76   */\n      mload\n        /* \"#utility.yul\":57:76   */\n      swap1\n      pop\n        /* \"#utility.yul\":7:82   */\n      swap1\n      jump\t// out\n        /* \"#utility.yul\":88:205   */\n    tag_68:\n        /* \"#utility.yul\":197:198   */\n      0x00\n        /* \"#utility.yul\":194:195   */\n      0x00\n        /* \"#utility.yul\":187:199   */\n      revert\n        /* \"#utility.yul\":211:328   */\n    tag_69:\n        /* \"#utility.yul\":320:321   */\n      0x00\n        /* \"#utility.yul\":317:318   */\n      0x00\n        /* \"#utility.yul\":310:322   */\n      revert\n        /* \"#utility.yul\":334:460   */\n    tag_70:\n        /* \"#utility.yul\":371:378   */\n      0x00\n        /* \"#utility.yul\":411:453   */\n      0xffffffffffffffffffffffffffffffffffffffff\n        /* \"#utility.yul\":404:409   */\n      dup3\n        /* \"#utility.yul\":400:454   */\n      and\n        /* \"#utility.yul\":389:454   */\n      swap1\n      pop\n        /* \"#utility.yul\":334:460   */\n      swap2\n      swap1\n      pop\n      jump\t// out\n        /* \"#utility.yul\":466:562   */\n    tag_71:\n        /* \"#utility.yul\":503:510   */\n      0x00\n        /* \"#utility.yul\":532:556   */\n      tag_135\n        /* \"#utility.yul\":550:555   */\n      dup3\n        /* \"#utility.yul\":532:556   */\n      tag_70\n      jump\t// in\n    tag_135:\n        /* \"#utility.yul\":521:556   */\n      swap1\n      pop\n        /* \"#utility.yul\":466:562   */\n      swap2\n      swap1\n      pop\n      jump\t// out\n        /* \"#utility.yul\":568:690   */\n    tag_72:\n        /* \"#utility.yul\":641:665   */\n      tag_137\n        /* \"#utility.yul\":659:664   */\n      dup2\n        /* \"#utility.yul\":641:665   */\n      tag_71\n      jump\t// in\n    tag_137:\n        /* \"#utility.yul\":634:639   */\n      dup2\n        /* \"#utility.yul\":631:666   */\n      eq\n        /* \"#utility.yul\":621:684   */\n      tag_138\n      jumpi\n        /* \"#utility.yul\":680:681   */\n      0x00\n        /* \"#utility.yul\":677:678   */\n      0x00\n        /* \"#utility.yul\":670:682   */\n      revert\n        /* \"#utility.yul\":621:684   */\n    tag_138:\n        /* \"#utility.yul\":568:690   */\n      pop\n      jump\t// out\n        /* \"#utility.yul\":696:835   */\n    tag_73:\n        /* \"#utility.yul\":742:747   */\n      0x00\n        /* \"#utility.yul\":780:786   */\n      dup2\n        /* \"#utility.yul\":767:787   */\n      calldataload\n        /* \"#utility.yul\":758:787   */\n      swap1\n      pop\n        /* \"#utility.yul\":796:829   */\n      tag_140\n        /* \"#utility.yul\":823:828   */\n      dup2\n        /* \"#utility.yul\":796:829   */\n      tag_72\n      jump\t// in\n    tag_140:\n        /* \"#utility.yul\":696:835   */\n      swap3\n      swap2\n      pop\n      pop\n      jump\t// out\n        /* \"#utility.yul\":841:1170   */\n    tag_10:\n        /* \"#utility.yul\":900:906   */\n      0x00\n        /* \"#utility.yul\":949:951   */\n      0x20\n        /* \"#utility.yul\":937:946   */\n      dup3\n        /* \"#utility.yul\":928:935   */\n      dup5\n        /* \"#utility.yul\":924:947   */\n      sub\n        /* \"#utility.yul\":920:952   */\n      slt\n        /* \"#utility.yul\":917:1036   */\n      iszero\n      tag_142\n      jumpi\n        /* \"#utility.yul\":955:1034   */\n      tag_143\n      tag_68\n      jump\t// in\n    tag_143:\n        /* \"#utility.yul\":917:1036   */\n    tag_142:\n        /* \"#utility.yul\":1075:1076   */\n      0x00\n        /* \"#utility.yul\":1100:1153   */\n      tag_144\n        /* \"#utility.yul\":1145:1152   */\n      dup5\n        /* \"#utility.yul\":1136:1142   */\n      dup3\n        /* \"#utility.yul\":1125:1134   */\n      dup6\n        /* \"#utility.yul\":1121:1143   */\n      add\n        /* \"#utility.yul\":1100:1153   */\n      tag_73\n      jump\t// in\n    tag_144:\n        /* \"#utility.yul\":1090:1153   */\n      swap2\n      pop\n        /* \"#utility.yul\":1046:1163   */\n      pop\n        /* \"#utility.yul\":841:1170   */\n      swap3\n      swap2\n      pop\n      pop\n      jump\t// out\n        /* \"#utility.yul\":1176:1356   */\n    tag_40:\n        /* \"#utility.yul\":1224:1301   */\n      0x4e487b7100000000000000000000000000000000000000000000000000000000\n        /* \"#utility.yul\":1221:1222   */\n      0x00\n        /* \"#utility.yul\":1214:1302   */\n      mstore\n        /* \"#utility.yul\":1321:1325   */\n      0x21\n        /* \"#utility.yul\":1318:1319   */\n      0x04\n        /* \"#utility.yul\":1311:1326   */\n      mstore\n        /* \"#utility.yul\":1345:1349   */\n      0x24\n        /* \"#utility.yul\":1342:1343   */\n      0x00\n        /* \"#utility.yul\":1335:1350   */\n      revert\n        /* \"#utility.yul\":1362:1476   */\n    tag_74:\n        /* \"#utility.yul\":1444:1445   */\n      0x02\n        /* \"#utility.yul\":1437:1442   */\n      dup2\n        /* \"#utility.yul\":1434:1446   */\n      lt\n        /* \"#utility.yul\":1424:1470   */\n      tag_147\n      jumpi\n        /* \"#utility.yul\":1450:1468   */\n      tag_148\n      tag_40\n      jump\t// in\n    tag_148:\n        /* \"#utility.yul\":1424:1470   */\n    tag_147:\n        /* \"#utility.yul\":1362:1476   */\n      pop\n      jump\t// out\n        /* \"#utility.yul\":1482:1611   */\n    tag_75:\n        /* \"#utility.yul\":1528:1535   */\n      0x00\n        /* \"#utility.yul\":1557:1562   */\n      dup2\n        /* \"#utility.yul\":1546:1562   */\n      swap1\n      pop\n        /* \"#utility.yul\":1563:1605   */\n      tag_150\n        /* \"#utility.yul\":1599:1604   */\n      dup3\n        /* \"#utility.yul\":1563:1605   */\n      tag_74\n      jump\t// in\n    tag_150:\n        /* \"#utility.yul\":1482:1611   */\n      swap2\n      swap1\n      pop\n      jump\t// out\n        /* \"#utility.yul\":1617:1746   */\n    tag_76:\n        /* \"#utility.yul\":1674:1683   */\n      0x00\n        /* \"#utility.yul\":1707:1740   */\n      tag_152\n        /* \"#utility.yul\":1734:1739   */\n      dup3\n        /* \"#utility.yul\":1707:1740   */\n      tag_75\n      jump\t// in\n    tag_152:\n        /* \"#utility.yul\":1694:1740   */\n      swap1\n      pop\n        /* \"#utility.yul\":1617:1746   */\n      swap2\n      swap1\n      pop\n      jump\t// out\n        /* \"#utility.yul\":1752:1897   */\n    tag_77:\n        /* \"#utility.yul\":1846:1890   */\n      tag_154\n        /* \"#utility.yul\":1884:1889   */\n      dup2\n        /* \"#utility.yul\":1846:1890   */\n      tag_76\n      jump\t// in\n    tag_154:\n        /* \"#utility.yul\":1841:1844   */\n      dup3\n        /* \"#utility.yul\":1834:1891   */\n      mstore\n        /* \"#utility.yul\":1752:1897   */\n      pop\n      pop\n      jump\t// out\n        /* \"#utility.yul\":1903:2139   */\n    tag_13:\n        /* \"#utility.yul\":2003:2007   */\n      0x00\n        /* \"#utility.yul\":2041:2043   */\n      0x20\n        /* \"#utility.yul\":2030:2039   */\n      dup3\n        /* \"#utility.yul\":2026:2044   */\n      add\n        /* \"#utility.yul\":2018:2044   */\n      swap1\n      pop\n        /* \"#utility.yul\":2054:2132   */\n      tag_156\n        /* \"#utility.yul\":2129:2130   */\n      0x00\n        /* \"#utility.yul\":2118:2127   */\n      dup4\n        /* \"#utility.yul\":2114:2131   */\n      add\n        /* \"#utility.yul\":2105:2111   */\n      dup5\n        /* \"#utility.yul\":2054:2132   */\n      tag_77\n      jump\t// in\n    tag_156:\n        /* \"#utility.yul\":1903:2139   */\n      swap3\n      swap2\n      pop\n      pop\n      jump\t// out\n        /* \"#utility.yul\":2145:2263   */\n    tag_78:\n        /* \"#utility.yul\":2232:2256   */\n      tag_158\n        /* \"#utility.yul\":2250:2255   */\n      dup2\n        /* \"#utility.yul\":2232:2256   */\n      tag_71\n      jump\t// in\n    tag_158:\n        /* \"#utility.yul\":2227:2230   */\n      dup3\n        /* \"#utility.yul\":2220:2257   */\n      mstore\n        /* \"#utility.yul\":2145:2263   */\n      pop\n      pop\n      jump\t// out\n        /* \"#utility.yul\":2269:2491   */\n    tag_17:\n        /* \"#utility.yul\":2362:2366   */\n      0x00\n        /* \"#utility.yul\":2400:2402   */\n      0x20\n        /* \"#utility.yul\":2389:2398   */\n      dup3\n        /* \"#utility.yul\":2385:2403   */\n      add\n        /* \"#utility.yul\":2377:2403   */\n      swap1\n      pop\n        /* \"#utility.yul\":2413:2484   */\n      tag_160\n        /* \"#utility.yul\":2481:2482   */\n      0x00\n        /* \"#utility.yul\":2470:2479   */\n      dup4\n        /* \"#utility.yul\":2466:2483   */\n      add\n        /* \"#utility.yul\":2457:2463   */\n      dup5\n        /* \"#utility.yul\":2413:2484   */\n      tag_78\n      jump\t// in\n    tag_160:\n        /* \"#utility.yul\":2269:2491   */\n      swap3\n      swap2\n      pop\n      pop\n      jump\t// out\n        /* \"#utility.yul\":2497:2609   */\n    tag_79:\n        /* \"#utility.yul\":2577:2578   */\n      0x03\n        /* \"#utility.yul\":2570:2575   */\n      dup2\n        /* \"#utility.yul\":2567:2579   */\n      lt\n        /* \"#utility.yul\":2557:2603   */\n      tag_162\n      jumpi\n        /* \"#utility.yul\":2583:2601   */\n      tag_163\n      tag_40\n      jump\t// in\n    tag_163:\n        /* \"#utility.yul\":2557:2603   */\n    tag_162:\n        /* \"#utility.yul\":2497:2609   */\n      pop\n      jump\t// out\n        /* \"#utility.yul\":2615:2740   */\n    tag_80:\n        /* \"#utility.yul\":2659:2666   */\n      0x00\n        /* \"#utility.yul\":2688:2693   */\n      dup2\n        /* \"#utility.yul\":2677:2693   */\n      swap1\n      pop\n        /* \"#utility.yul\":2694:2734   */\n      tag_165\n        /* \"#utility.yul\":2728:2733   */\n      dup3\n        /* \"#utility.yul\":2694:2734   */\n      tag_79\n      jump\t// in\n    tag_165:\n        /* \"#utility.yul\":2615:2740   */\n      swap2\n      swap1\n      pop\n      jump\t// out\n        /* \"#utility.yul\":2746:2871   */\n    tag_81:\n        /* \"#utility.yul\":2801:2810   */\n      0x00\n        /* \"#utility.yul\":2834:2865   */\n      tag_167\n        /* \"#utility.yul\":2859:2864   */\n      dup3\n        /* \"#utility.yul\":2834:2865   */\n      tag_80\n      jump\t// in\n    tag_167:\n        /* \"#utility.yul\":2821:2865   */\n      swap1\n      pop\n        /* \"#utility.yul\":2746:2871   */\n      swap2\n      swap1\n      pop\n      jump\t// out\n        /* \"#utility.yul\":2877:3018   */\n    tag_82:\n        /* \"#utility.yul\":2969:3011   */\n      tag_169\n        /* \"#utility.yul\":3005:3010   */\n      dup2\n        /* \"#utility.yul\":2969:3011   */\n      tag_81\n      jump\t// in\n    tag_169:\n        /* \"#utility.yul\":2964:2967   */\n      dup3\n        /* \"#utility.yul\":2957:3012   */\n      mstore\n        /* \"#utility.yul\":2877:3018   */\n      pop\n      pop\n      jump\t// out\n        /* \"#utility.yul\":3024:3256   */\n    tag_22:\n        /* \"#utility.yul\":3122:3126   */\n      0x00\n        /* \"#utility.yul\":3160:3162   */\n      0x20\n        /* \"#utility.yul\":3149:3158   */\n      dup3\n        /* \"#utility.yul\":3145:3163   */\n      add\n        /* \"#utility.yul\":3137:3163   */\n      swap1\n      pop\n        /* \"#utility.yul\":3173:3249   */\n      tag_171\n        /* \"#utility.yul\":3246:3247   */\n      0x00\n        /* \"#utility.yul\":3235:3244   */\n      dup4\n        /* \"#utility.yul\":3231:3248   */\n      add\n        /* \"#utility.yul\":3222:3228   */\n      dup5\n        /* \"#utility.yul\":3173:3249   */\n      tag_82\n      jump\t// in\n    tag_171:\n        /* \"#utility.yul\":3024:3256   */\n      swap3\n      swap2\n      pop\n      pop\n      jump\t// out\n        /* \"#utility.yul\":3262:3361   */\n    tag_83:\n        /* \"#utility.yul\":3314:3320   */\n      0x00\n        /* \"#utility.yul\":3348:3353   */\n      dup2\n        /* \"#utility.yul\":3342:3354   */\n      mload\n        /* \"#utility.yul\":3332:3354   */\n      swap1\n      pop\n        /* \"#utility.yul\":3262:3361   */\n      swap2\n      swap1\n      pop\n      jump\t// out\n        /* \"#utility.yul\":3367:3526   */\n    tag_84:\n        /* \"#utility.yul\":3441:3452   */\n      0x00\n        /* \"#utility.yul\":3475:3481   */\n      dup3\n        /* \"#utility.yul\":3470:3473   */\n      dup3\n        /* \"#utility.yul\":3463:3482   */\n      mstore\n        /* \"#utility.yul\":3515:3519   */\n      0x20\n        /* \"#utility.yul\":3510:3513   */\n      dup3\n        /* \"#utility.yul\":3506:3520   */\n      add\n        /* \"#utility.yul\":3491:3520   */\n      swap1\n      pop\n        /* \"#utility.yul\":3367:3526   */\n      swap3\n      swap2\n      pop\n      pop\n      jump\t// out\n        /* \"#utility.yul\":3532:3671   */\n    tag_85:\n        /* \"#utility.yul\":3621:3627   */\n      dup3\n        /* \"#utility.yul\":3616:3619   */\n      dup2\n        /* \"#utility.yul\":3611:3614   */\n      dup4\n        /* \"#utility.yul\":3605:3628   */\n      mcopy\n        /* \"#utility.yul\":3662:3663   */\n      0x00\n        /* \"#utility.yul\":3653:3659   */\n      dup4\n        /* \"#utility.yul\":3648:3651   */\n      dup4\n        /* \"#utility.yul\":3644:3660   */\n      add\n        /* \"#utility.yul\":3637:3664   */\n      mstore\n        /* \"#utility.yul\":3532:3671   */\n      pop\n      pop\n      pop\n      jump\t// out\n        /* \"#utility.yul\":3677:3779   */\n    tag_86:\n        /* \"#utility.yul\":3718:3724   */\n      0x00\n        /* \"#utility.yul\":3769:3771   */\n      0x1f\n        /* \"#utility.yul\":3765:3772   */\n      not\n        /* \"#utility.yul\":3760:3762   */\n      0x1f\n        /* \"#utility.yul\":3753:3758   */\n      dup4\n        /* \"#utility.yul\":3749:3763   */\n      add\n        /* \"#utility.yul\":3745:3773   */\n      and\n        /* \"#utility.yul\":3735:3773   */\n      swap1\n      pop\n        /* \"#utility.yul\":3677:3779   */\n      swap2\n      swap1\n      pop\n      jump\t// out\n        /* \"#utility.yul\":3785:4142   */\n    tag_87:\n        /* \"#utility.yul\":3863:3866   */\n      0x00\n        /* \"#utility.yul\":3891:3930   */\n      tag_177\n        /* \"#utility.yul\":3924:3929   */\n      dup3\n        /* \"#utility.yul\":3891:3930   */\n      tag_83\n      jump\t// in\n    tag_177:\n        /* \"#utility.yul\":3946:4007   */\n      tag_178\n        /* \"#utility.yul\":4000:4006   */\n      dup2\n        /* \"#utility.yul\":3995:3998   */\n      dup6\n        /* \"#utility.yul\":3946:4007   */\n      tag_84\n      jump\t// in\n    tag_178:\n        /* \"#utility.yul\":3939:4007   */\n      swap4\n      pop\n        /* \"#utility.yul\":4016:4081   */\n      tag_179\n        /* \"#utility.yul\":4074:4080   */\n      dup2\n        /* \"#utility.yul\":4069:4072   */\n      dup6\n        /* \"#utility.yul\":4062:4066   */\n      0x20\n        /* \"#utility.yul\":4055:4060   */\n      dup7\n        /* \"#utility.yul\":4051:4067   */\n      add\n        /* \"#utility.yul\":4016:4081   */\n      tag_85\n      jump\t// in\n    tag_179:\n        /* \"#utility.yul\":4106:4135   */\n      tag_180\n        /* \"#utility.yul\":4128:4134   */\n      dup2\n        /* \"#utility.yul\":4106:4135   */\n      tag_86\n      jump\t// in\n    tag_180:\n        /* \"#utility.yul\":4101:4104   */\n      dup5\n        /* \"#utility.yul\":4097:4136   */\n      add\n        /* \"#utility.yul\":4090:4136   */\n      swap2\n      pop\n        /* \"#utility.yul\":3867:4142   */\n      pop\n        /* \"#utility.yul\":3785:4142   */\n      swap3\n      swap2\n      pop\n      pop\n      jump\t// out\n        /* \"#utility.yul\":4148:4225   */\n    tag_88:\n        /* \"#utility.yul\":4185:4192   */\n      0x00\n        /* \"#utility.yul\":4214:4219   */\n      dup2\n        /* \"#utility.yul\":4203:4219   */\n      swap1\n      pop\n        /* \"#utility.yul\":4148:4225   */\n      swap2\n      swap1\n      pop\n      jump\t// out\n        /* \"#utility.yul\":4231:4339   */\n    tag_89:\n        /* \"#utility.yul\":4308:4332   */\n      tag_183\n        /* \"#utility.yul\":4326:4331   */\n      dup2\n        /* \"#utility.yul\":4308:4332   */\n      tag_88\n      jump\t// in\n    tag_183:\n        /* \"#utility.yul\":4303:4306   */\n      dup3\n        /* \"#utility.yul\":4296:4333   */\n      mstore\n        /* \"#utility.yul\":4231:4339   */\n      pop\n      pop\n      jump\t// out\n        /* \"#utility.yul\":4345:4480   */\n    tag_90:\n        /* \"#utility.yul\":4429:4473   */\n      tag_185\n        /* \"#utility.yul\":4467:4472   */\n      dup2\n        /* \"#utility.yul\":4429:4473   */\n      tag_76\n      jump\t// in\n    tag_185:\n        /* \"#utility.yul\":4424:4427   */\n      dup3\n        /* \"#utility.yul\":4417:4474   */\n      mstore\n        /* \"#utility.yul\":4345:4480   */\n      pop\n      pop\n      jump\t// out\n        /* \"#utility.yul\":4590:5647   */\n    tag_91:\n        /* \"#utility.yul\":4721:4724   */\n      0x00\n        /* \"#utility.yul\":4757:4761   */\n      0x80\n        /* \"#utility.yul\":4752:4755   */\n      dup4\n        /* \"#utility.yul\":4748:4762   */\n      add\n        /* \"#utility.yul\":4848:4852   */\n      0x00\n        /* \"#utility.yul\":4841:4846   */\n      dup4\n        /* \"#utility.yul\":4837:4853   */\n      add\n        /* \"#utility.yul\":4831:4854   */\n      mload\n        /* \"#utility.yul\":4901:4904   */\n      dup5\n        /* \"#utility.yul\":4895:4899   */\n      dup3\n        /* \"#utility.yul\":4891:4905   */\n      sub\n        /* \"#utility.yul\":4884:4888   */\n      0x00\n        /* \"#utility.yul\":4879:4882   */\n      dup7\n        /* \"#utility.yul\":4875:4889   */\n      add\n        /* \"#utility.yul\":4868:4906   */\n      mstore\n        /* \"#utility.yul\":4927:5000   */\n      tag_187\n        /* \"#utility.yul\":4995:4999   */\n      dup3\n        /* \"#utility.yul\":4981:4993   */\n      dup3\n        /* \"#utility.yul\":4927:5000   */\n      tag_87\n      jump\t// in\n    tag_187:\n        /* \"#utility.yul\":4919:5000   */\n      swap2\n      pop\n        /* \"#utility.yul\":4772:5011   */\n      pop\n        /* \"#utility.yul\":5092:5096   */\n      0x20\n        /* \"#utility.yul\":5085:5090   */\n      dup4\n        /* \"#utility.yul\":5081:5097   */\n      add\n        /* \"#utility.yul\":5075:5098   */\n      mload\n        /* \"#utility.yul\":5111:5174   */\n      tag_188\n        /* \"#utility.yul\":5168:5172   */\n      0x20\n        /* \"#utility.yul\":5163:5166   */\n      dup7\n        /* \"#utility.yul\":5159:5173   */\n      add\n        /* \"#utility.yul\":5145:5157   */\n      dup3\n        /* \"#utility.yul\":5111:5174   */\n      tag_89\n      jump\t// in\n    tag_188:\n        /* \"#utility.yul\":5021:5184   */\n      pop\n        /* \"#utility.yul\":5268:5272   */\n      0x40\n        /* \"#utility.yul\":5261:5266   */\n      dup4\n        /* \"#utility.yul\":5257:5273   */\n      add\n        /* \"#utility.yul\":5251:5274   */\n      mload\n        /* \"#utility.yul\":5287:5357   */\n      tag_189\n        /* \"#utility.yul\":5351:5355   */\n      0x40\n        /* \"#utility.yul\":5346:5349   */\n      dup7\n        /* \"#utility.yul\":5342:5356   */\n      add\n        /* \"#utility.yul\":5328:5340   */\n      dup3\n        /* \"#utility.yul\":5287:5357   */\n      tag_90\n      jump\t// in\n    tag_189:\n        /* \"#utility.yul\":5194:5367   */\n      pop\n        /* \"#utility.yul\":5457:5461   */\n      0x60\n        /* \"#utility.yul\":5450:5455   */\n      dup4\n        /* \"#utility.yul\":5446:5462   */\n      add\n        /* \"#utility.yul\":5440:5463   */\n      mload\n        /* \"#utility.yul\":5510:5513   */\n      dup5\n        /* \"#utility.yul\":5504:5508   */\n      dup3\n        /* \"#utility.yul\":5500:5514   */\n      sub\n        /* \"#utility.yul\":5493:5497   */\n      0x60\n        /* \"#utility.yul\":5488:5491   */\n      dup7\n        /* \"#utility.yul\":5484:5498   */\n      add\n        /* \"#utility.yul\":5477:5515   */\n      mstore\n        /* \"#utility.yul\":5536:5609   */\n      tag_190\n        /* \"#utility.yul\":5604:5608   */\n      dup3\n        /* \"#utility.yul\":5590:5602   */\n      dup3\n        /* \"#utility.yul\":5536:5609   */\n      tag_87\n      jump\t// in\n    tag_190:\n        /* \"#utility.yul\":5528:5609   */\n      swap2\n      pop\n        /* \"#utility.yul\":5377:5620   */\n      pop\n        /* \"#utility.yul\":5637:5641   */\n      dup1\n        /* \"#utility.yul\":5630:5641   */\n      swap2\n      pop\n        /* \"#utility.yul\":4726:5647   */\n      pop\n        /* \"#utility.yul\":4590:5647   */\n      swap3\n      swap2\n      pop\n      pop\n      jump\t// out\n        /* \"#utility.yul\":5653:5772   */\n    tag_92:\n        /* \"#utility.yul\":5740:5741   */\n      0x03\n        /* \"#utility.yul\":5733:5738   */\n      dup2\n        /* \"#utility.yul\":5730:5742   */\n      lt\n        /* \"#utility.yul\":5720:5766   */\n      tag_192\n      jumpi\n        /* \"#utility.yul\":5746:5764   */\n      tag_193\n      tag_40\n      jump\t// in\n    tag_193:\n        /* \"#utility.yul\":5720:5766   */\n    tag_192:\n        /* \"#utility.yul\":5653:5772   */\n      pop\n      jump\t// out\n        /* \"#utility.yul\":5778:5917   */\n    tag_93:\n        /* \"#utility.yul\":5829:5836   */\n      0x00\n        /* \"#utility.yul\":5858:5863   */\n      dup2\n        /* \"#utility.yul\":5847:5863   */\n      swap1\n      pop\n        /* \"#utility.yul\":5864:5911   */\n      tag_195\n        /* \"#utility.yul\":5905:5910   */\n      dup3\n        /* \"#utility.yul\":5864:5911   */\n      tag_92\n      jump\t// in\n    tag_195:\n        /* \"#utility.yul\":5778:5917   */\n      swap2\n      swap1\n      pop\n      jump\t// out\n        /* \"#utility.yul\":5923:6062   */\n    tag_94:\n        /* \"#utility.yul\":5985:5994   */\n      0x00\n        /* \"#utility.yul\":6018:6056   */\n      tag_197\n        /* \"#utility.yul\":6050:6055   */\n      dup3\n        /* \"#utility.yul\":6018:6056   */\n      tag_93\n      jump\t// in\n    tag_197:\n        /* \"#utility.yul\":6005:6056   */\n      swap1\n      pop\n        /* \"#utility.yul\":5923:6062   */\n      swap2\n      swap1\n      pop\n      jump\t// out\n        /* \"#utility.yul\":6068:6213   */\n    tag_95:\n        /* \"#utility.yul\":6157:6206   */\n      tag_199\n        /* \"#utility.yul\":6200:6205   */\n      dup2\n        /* \"#utility.yul\":6157:6206   */\n      tag_94\n      jump\t// in\n    tag_199:\n        /* \"#utility.yul\":6152:6155   */\n      dup3\n        /* \"#utility.yul\":6145:6207   */\n      mstore\n        /* \"#utility.yul\":6068:6213   */\n      pop\n      pop\n      jump\t// out\n        /* \"#utility.yul\":6331:7152   */\n    tag_96:\n        /* \"#utility.yul\":6470:6473   */\n      0x00\n        /* \"#utility.yul\":6506:6510   */\n      0x60\n        /* \"#utility.yul\":6501:6504   */\n      dup4\n        /* \"#utility.yul\":6497:6511   */\n      add\n        /* \"#utility.yul\":6600:6604   */\n      0x00\n        /* \"#utility.yul\":6593:6598   */\n      dup4\n        /* \"#utility.yul\":6589:6605   */\n      add\n        /* \"#utility.yul\":6583:6606   */\n      mload\n        /* \"#utility.yul\":6619:6694   */\n      tag_201\n        /* \"#utility.yul\":6688:6692   */\n      0x00\n        /* \"#utility.yul\":6683:6686   */\n      dup7\n        /* \"#utility.yul\":6679:6693   */\n      add\n        /* \"#utility.yul\":6665:6677   */\n      dup3\n        /* \"#utility.yul\":6619:6694   */\n      tag_95\n      jump\t// in\n    tag_201:\n        /* \"#utility.yul\":6521:6704   */\n      pop\n        /* \"#utility.yul\":6789:6793   */\n      0x20\n        /* \"#utility.yul\":6782:6787   */\n      dup4\n        /* \"#utility.yul\":6778:6794   */\n      add\n        /* \"#utility.yul\":6772:6795   */\n      mload\n        /* \"#utility.yul\":6842:6845   */\n      dup5\n        /* \"#utility.yul\":6836:6840   */\n      dup3\n        /* \"#utility.yul\":6832:6846   */\n      sub\n        /* \"#utility.yul\":6825:6829   */\n      0x20\n        /* \"#utility.yul\":6820:6823   */\n      dup7\n        /* \"#utility.yul\":6816:6830   */\n      add\n        /* \"#utility.yul\":6809:6847   */\n      mstore\n        /* \"#utility.yul\":6868:6941   */\n      tag_202\n        /* \"#utility.yul\":6936:6940   */\n      dup3\n        /* \"#utility.yul\":6922:6934   */\n      dup3\n        /* \"#utility.yul\":6868:6941   */\n      tag_87\n      jump\t// in\n    tag_202:\n        /* \"#utility.yul\":6860:6941   */\n      swap2\n      pop\n        /* \"#utility.yul\":6714:6952   */\n      pop\n        /* \"#utility.yul\":7033:7037   */\n      0x40\n        /* \"#utility.yul\":7026:7031   */\n      dup4\n        /* \"#utility.yul\":7022:7038   */\n      add\n        /* \"#utility.yul\":7016:7039   */\n      mload\n        /* \"#utility.yul\":7052:7115   */\n      tag_203\n        /* \"#utility.yul\":7109:7113   */\n      0x40\n        /* \"#utility.yul\":7104:7107   */\n      dup7\n        /* \"#utility.yul\":7100:7114   */\n      add\n        /* \"#utility.yul\":7086:7098   */\n      dup3\n        /* \"#utility.yul\":7052:7115   */\n      tag_89\n      jump\t// in\n    tag_203:\n        /* \"#utility.yul\":6962:7125   */\n      pop\n        /* \"#utility.yul\":7142:7146   */\n      dup1\n        /* \"#utility.yul\":7135:7146   */\n      swap2\n      pop\n        /* \"#utility.yul\":6475:7152   */\n      pop\n        /* \"#utility.yul\":6331:7152   */\n      swap3\n      swap2\n      pop\n      pop\n      jump\t// out\n        /* \"#utility.yul\":7158:7856   */\n    tag_27:\n        /* \"#utility.yul\":7411:7415   */\n      0x00\n        /* \"#utility.yul\":7449:7451   */\n      0x40\n        /* \"#utility.yul\":7438:7447   */\n      dup3\n        /* \"#utility.yul\":7434:7452   */\n      add\n        /* \"#utility.yul\":7426:7452   */\n      swap1\n      pop\n        /* \"#utility.yul\":7498:7507   */\n      dup2\n        /* \"#utility.yul\":7492:7496   */\n      dup2\n        /* \"#utility.yul\":7488:7508   */\n      sub\n        /* \"#utility.yul\":7484:7485   */\n      0x00\n        /* \"#utility.yul\":7473:7482   */\n      dup4\n        /* \"#utility.yul\":7469:7486   */\n      add\n        /* \"#utility.yul\":7462:7509   */\n      mstore\n        /* \"#utility.yul\":7526:7646   */\n      tag_205\n        /* \"#utility.yul\":7641:7645   */\n      dup2\n        /* \"#utility.yul\":7632:7638   */\n      dup6\n        /* \"#utility.yul\":7526:7646   */\n      tag_91\n      jump\t// in\n    tag_205:\n        /* \"#utility.yul\":7518:7646   */\n      swap1\n      pop\n        /* \"#utility.yul\":7693:7702   */\n      dup2\n        /* \"#utility.yul\":7687:7691   */\n      dup2\n        /* \"#utility.yul\":7683:7703   */\n      sub\n        /* \"#utility.yul\":7678:7680   */\n      0x20\n        /* \"#utility.yul\":7667:7676   */\n      dup4\n        /* \"#utility.yul\":7663:7681   */\n      add\n        /* \"#utility.yul\":7656:7704   */\n      mstore\n        /* \"#utility.yul\":7721:7849   */\n      tag_206\n        /* \"#utility.yul\":7844:7848   */\n      dup2\n        /* \"#utility.yul\":7835:7841   */\n      dup5\n        /* \"#utility.yul\":7721:7849   */\n      tag_96\n      jump\t// in\n    tag_206:\n        /* \"#utility.yul\":7713:7849   */\n      swap1\n      pop\n        /* \"#utility.yul\":7158:7856   */\n      swap4\n      swap3\n      pop\n      pop\n      pop\n      jump\t// out\n        /* \"#utility.yul\":7862:7979   */\n    tag_97:\n        /* \"#utility.yul\":7971:7972   */\n      0x00\n        /* \"#utility.yul\":7968:7969   */\n      0x00\n        /* \"#utility.yul\":7961:7973   */\n      revert\n        /* \"#utility.yul\":7985:8102   */\n    tag_98:\n        /* \"#utility.yul\":8094:8095   */\n      0x00\n        /* \"#utility.yul\":8091:8092   */\n      0x00\n        /* \"#utility.yul\":8084:8096   */\n      revert\n        /* \"#utility.yul\":8108:8288   */\n    tag_99:\n        /* \"#utility.yul\":8156:8233   */\n      0x4e487b7100000000000000000000000000000000000000000000000000000000\n        /* \"#utility.yul\":8153:8154   */\n      0x00\n        /* \"#utility.yul\":8146:8234   */\n      mstore\n        /* \"#utility.yul\":8253:8257   */\n      0x41\n        /* \"#utility.yul\":8250:8251   */\n      0x04\n        /* \"#utility.yul\":8243:8258   */\n      mstore\n        /* \"#utility.yul\":8277:8281   */\n      0x24\n        /* \"#utility.yul\":8274:8275   */\n      0x00\n        /* \"#utility.yul\":8267:8282   */\n      revert\n        /* \"#utility.yul\":8294:8575   */\n    tag_100:\n        /* \"#utility.yul\":8377:8404   */\n      tag_211\n        /* \"#utility.yul\":8399:8403   */\n      dup3\n        /* \"#utility.yul\":8377:8404   */\n      tag_86\n      jump\t// in\n    tag_211:\n        /* \"#utility.yul\":8369:8375   */\n      dup2\n        /* \"#utility.yul\":8365:8405   */\n      add\n        /* \"#utility.yul\":8507:8513   */\n      dup2\n        /* \"#utility.yul\":8495:8505   */\n      dup2\n        /* \"#utility.yul\":8492:8514   */\n      lt\n        /* \"#utility.yul\":8471:8489   */\n      0xffffffffffffffff\n        /* \"#utility.yul\":8459:8469   */\n      dup3\n        /* \"#utility.yul\":8456:8490   */\n      gt\n        /* \"#utility.yul\":8453:8515   */\n      or\n        /* \"#utility.yul\":8450:8538   */\n      iszero\n      tag_212\n      jumpi\n        /* \"#utility.yul\":8518:8536   */\n      tag_213\n      tag_99\n      jump\t// in\n    tag_213:\n        /* \"#utility.yul\":8450:8538   */\n    tag_212:\n        /* \"#utility.yul\":8558:8568   */\n      dup1\n        /* \"#utility.yul\":8554:8556   */\n      0x40\n        /* \"#utility.yul\":8547:8569   */\n      mstore\n        /* \"#utility.yul\":8337:8575   */\n      pop\n        /* \"#utility.yul\":8294:8575   */\n      pop\n      pop\n      jump\t// out\n        /* \"#utility.yul\":8581:8710   */\n    tag_101:\n        /* \"#utility.yul\":8615:8621   */\n      0x00\n        /* \"#utility.yul\":8642:8662   */\n      tag_215\n      tag_67\n      jump\t// in\n    tag_215:\n        /* \"#utility.yul\":8632:8662   */\n      swap1\n      pop\n        /* \"#utility.yul\":8671:8704   */\n      tag_216\n        /* \"#utility.yul\":8699:8703   */\n      dup3\n        /* \"#utility.yul\":8691:8697   */\n      dup3\n        /* \"#utility.yul\":8671:8704   */\n      tag_100\n      jump\t// in\n    tag_216:\n        /* \"#utility.yul\":8581:8710   */\n      swap2\n      swap1\n      pop\n      jump\t// out\n        /* \"#utility.yul\":8716:9024   */\n    tag_102:\n        /* \"#utility.yul\":8778:8782   */\n      0x00\n        /* \"#utility.yul\":8868:8886   */\n      0xffffffffffffffff\n        /* \"#utility.yul\":8860:8866   */\n      dup3\n        /* \"#utility.yul\":8857:8887   */\n      gt\n        /* \"#utility.yul\":8854:8910   */\n      iszero\n      tag_218\n      jumpi\n        /* \"#utility.yul\":8890:8908   */\n      tag_219\n      tag_99\n      jump\t// in\n    tag_219:\n        /* \"#utility.yul\":8854:8910   */\n    tag_218:\n        /* \"#utility.yul\":8928:8957   */\n      tag_220\n        /* \"#utility.yul\":8950:8956   */\n      dup3\n        /* \"#utility.yul\":8928:8957   */\n      tag_86\n      jump\t// in\n    tag_220:\n        /* \"#utility.yul\":8920:8957   */\n      swap1\n      pop\n        /* \"#utility.yul\":9012:9016   */\n      0x20\n        /* \"#utility.yul\":9006:9010   */\n      dup2\n        /* \"#utility.yul\":9002:9017   */\n      add\n        /* \"#utility.yul\":8994:9017   */\n      swap1\n      pop\n        /* \"#utility.yul\":8716:9024   */\n      swap2\n      swap1\n      pop\n      jump\t// out\n        /* \"#utility.yul\":9030:9178   */\n    tag_103:\n        /* \"#utility.yul\":9128:9134   */\n      dup3\n        /* \"#utility.yul\":9123:9126   */\n      dup2\n        /* \"#utility.yul\":9118:9121   */\n      dup4\n        /* \"#utility.yul\":9105:9135   */\n      calldatacopy\n        /* \"#utility.yul\":9169:9170   */\n      0x00\n        /* \"#utility.yul\":9160:9166   */\n      dup4\n        /* \"#utility.yul\":9155:9158   */\n      dup4\n        /* \"#utility.yul\":9151:9167   */\n      add\n        /* \"#utility.yul\":9144:9171   */\n      mstore\n        /* \"#utility.yul\":9030:9178   */\n      pop\n      pop\n      pop\n      jump\t// out\n        /* \"#utility.yul\":9184:9609   */\n    tag_104:\n        /* \"#utility.yul\":9262:9267   */\n      0x00\n        /* \"#utility.yul\":9287:9353   */\n      tag_223\n        /* \"#utility.yul\":9303:9352   */\n      tag_224\n        /* \"#utility.yul\":9345:9351   */\n      dup5\n        /* \"#utility.yul\":9303:9352   */\n      tag_102\n      jump\t// in\n    tag_224:\n        /* \"#utility.yul\":9287:9353   */\n      tag_101\n      jump\t// in\n    tag_223:\n        /* \"#utility.yul\":9278:9353   */\n      swap1\n      pop\n        /* \"#utility.yul\":9376:9382   */\n      dup3\n        /* \"#utility.yul\":9369:9374   */\n      dup2\n        /* \"#utility.yul\":9362:9383   */\n      mstore\n        /* \"#utility.yul\":9414:9418   */\n      0x20\n        /* \"#utility.yul\":9407:9412   */\n      dup2\n        /* \"#utility.yul\":9403:9419   */\n      add\n        /* \"#utility.yul\":9452:9455   */\n      dup5\n        /* \"#utility.yul\":9443:9449   */\n      dup5\n        /* \"#utility.yul\":9438:9441   */\n      dup5\n        /* \"#utility.yul\":9434:9450   */\n      add\n        /* \"#utility.yul\":9431:9456   */\n      gt\n        /* \"#utility.yul\":9428:9540   */\n      iszero\n      tag_225\n      jumpi\n        /* \"#utility.yul\":9459:9538   */\n      tag_226\n      tag_98\n      jump\t// in\n    tag_226:\n        /* \"#utility.yul\":9428:9540   */\n    tag_225:\n        /* \"#utility.yul\":9549:9603   */\n      tag_227\n        /* \"#utility.yul\":9596:9602   */\n      dup5\n        /* \"#utility.yul\":9591:9594   */\n      dup3\n        /* \"#utility.yul\":9586:9589   */\n      dup6\n        /* \"#utility.yul\":9549:9603   */\n      tag_103\n      jump\t// in\n    tag_227:\n        /* \"#utility.yul\":9268:9609   */\n      pop\n        /* \"#utility.yul\":9184:9609   */\n      swap4\n      swap3\n      pop\n      pop\n      pop\n      jump\t// out\n        /* \"#utility.yul\":9629:9969   */\n    tag_105:\n        /* \"#utility.yul\":9685:9690   */\n      0x00\n        /* \"#utility.yul\":9734:9737   */\n      dup3\n        /* \"#utility.yul\":9727:9731   */\n      0x1f\n        /* \"#utility.yul\":9719:9725   */\n      dup4\n        /* \"#utility.yul\":9715:9732   */\n      add\n        /* \"#utility.yul\":9711:9738   */\n      slt\n        /* \"#utility.yul\":9701:9823   */\n      tag_229\n      jumpi\n        /* \"#utility.yul\":9742:9821   */\n      tag_230\n      tag_97\n      jump\t// in\n    tag_230:\n        /* \"#utility.yul\":9701:9823   */\n    tag_229:\n        /* \"#utility.yul\":9859:9865   */\n      dup2\n        /* \"#utility.yul\":9846:9866   */\n      calldataload\n        /* \"#utility.yul\":9884:9963   */\n      tag_231\n        /* \"#utility.yul\":9959:9962   */\n      dup5\n        /* \"#utility.yul\":9951:9957   */\n      dup3\n        /* \"#utility.yul\":9944:9948   */\n      0x20\n        /* \"#utility.yul\":9936:9942   */\n      dup7\n        /* \"#utility.yul\":9932:9949   */\n      add\n        /* \"#utility.yul\":9884:9963   */\n      tag_104\n      jump\t// in\n    tag_231:\n        /* \"#utility.yul\":9875:9963   */\n      swap2\n      pop\n        /* \"#utility.yul\":9691:9969   */\n      pop\n        /* \"#utility.yul\":9629:9969   */\n      swap3\n      swap2\n      pop\n      pop\n      jump\t// out\n        /* \"#utility.yul\":9975:10083   */\n    tag_106:\n        /* \"#utility.yul\":10057:10058   */\n      0x02\n        /* \"#utility.yul\":10050:10055   */\n      dup2\n        /* \"#utility.yul\":10047:10059   */\n      lt\n        /* \"#utility.yul\":10037:10077   */\n      tag_233\n      jumpi\n        /* \"#utility.yul\":10073:10074   */\n      0x00\n        /* \"#utility.yul\":10070:10071   */\n      0x00\n        /* \"#utility.yul\":10063:10075   */\n      revert\n        /* \"#utility.yul\":10037:10077   */\n    tag_233:\n        /* \"#utility.yul\":9975:10083   */\n      pop\n      jump\t// out\n        /* \"#utility.yul\":10089:10246   */\n    tag_107:\n        /* \"#utility.yul\":10144:10149   */\n      0x00\n        /* \"#utility.yul\":10182:10188   */\n      dup2\n        /* \"#utility.yul\":10169:10189   */\n      calldataload\n        /* \"#utility.yul\":10160:10189   */\n      swap1\n      pop\n        /* \"#utility.yul\":10198:10240   */\n      tag_235\n        /* \"#utility.yul\":10234:10239   */\n      dup2\n        /* \"#utility.yul\":10198:10240   */\n      tag_106\n      jump\t// in\n    tag_235:\n        /* \"#utility.yul\":10089:10246   */\n      swap3\n      swap2\n      pop\n      pop\n      jump\t// out\n        /* \"#utility.yul\":10252:10374   */\n    tag_108:\n        /* \"#utility.yul\":10325:10349   */\n      tag_237\n        /* \"#utility.yul\":10343:10348   */\n      dup2\n        /* \"#utility.yul\":10325:10349   */\n      tag_88\n      jump\t// in\n    tag_237:\n        /* \"#utility.yul\":10318:10323   */\n      dup2\n        /* \"#utility.yul\":10315:10350   */\n      eq\n        /* \"#utility.yul\":10305:10368   */\n      tag_238\n      jumpi\n        /* \"#utility.yul\":10364:10365   */\n      0x00\n        /* \"#utility.yul\":10361:10362   */\n      0x00\n        /* \"#utility.yul\":10354:10366   */\n      revert\n        /* \"#utility.yul\":10305:10368   */\n    tag_238:\n        /* \"#utility.yul\":10252:10374   */\n      pop\n      jump\t// out\n        /* \"#utility.yul\":10380:10519   */\n    tag_109:\n        /* \"#utility.yul\":10426:10431   */\n      0x00\n        /* \"#utility.yul\":10464:10470   */\n      dup2\n        /* \"#utility.yul\":10451:10471   */\n      calldataload\n        /* \"#utility.yul\":10442:10471   */\n      swap1\n      pop\n        /* \"#utility.yul\":10480:10513   */\n      tag_240\n        /* \"#utility.yul\":10507:10512   */\n      dup2\n        /* \"#utility.yul\":10480:10513   */\n      tag_108\n      jump\t// in\n    tag_240:\n        /* \"#utility.yul\":10380:10519   */\n      swap3\n      swap2\n      pop\n      pop\n      jump\t// out\n        /* \"#utility.yul\":10525:11668   */\n    tag_30:\n        /* \"#utility.yul\":10640:10646   */\n      0x00\n        /* \"#utility.yul\":10648:10654   */\n      0x00\n        /* \"#utility.yul\":10656:10662   */\n      0x00\n        /* \"#utility.yul\":10664:10670   */\n      0x00\n        /* \"#utility.yul\":10713:10716   */\n      0x80\n        /* \"#utility.yul\":10701:10710   */\n      dup6\n        /* \"#utility.yul\":10692:10699   */\n      dup8\n        /* \"#utility.yul\":10688:10711   */\n      sub\n        /* \"#utility.yul\":10684:10717   */\n      slt\n        /* \"#utility.yul\":10681:10801   */\n      iszero\n      tag_242\n      jumpi\n        /* \"#utility.yul\":10720:10799   */\n      tag_243\n      tag_68\n      jump\t// in\n    tag_243:\n        /* \"#utility.yul\":10681:10801   */\n    tag_242:\n        /* \"#utility.yul\":10868:10869   */\n      0x00\n        /* \"#utility.yul\":10857:10866   */\n      dup6\n        /* \"#utility.yul\":10853:10870   */\n      add\n        /* \"#utility.yul\":10840:10871   */\n      calldataload\n        /* \"#utility.yul\":10898:10916   */\n      0xffffffffffffffff\n        /* \"#utility.yul\":10890:10896   */\n      dup2\n        /* \"#utility.yul\":10887:10917   */\n      gt\n        /* \"#utility.yul\":10884:11001   */\n      iszero\n      tag_244\n      jumpi\n        /* \"#utility.yul\":10920:10999   */\n      tag_245\n      tag_69\n      jump\t// in\n    tag_245:\n        /* \"#utility.yul\":10884:11001   */\n    tag_244:\n        /* \"#utility.yul\":11025:11088   */\n      tag_246\n        /* \"#utility.yul\":11080:11087   */\n      dup8\n        /* \"#utility.yul\":11071:11077   */\n      dup3\n        /* \"#utility.yul\":11060:11069   */\n      dup9\n        /* \"#utility.yul\":11056:11078   */\n      add\n        /* \"#utility.yul\":11025:11088   */\n      tag_105\n      jump\t// in\n    tag_246:\n        /* \"#utility.yul\":11015:11088   */\n      swap5\n      pop\n        /* \"#utility.yul\":10811:11098   */\n      pop\n        /* \"#utility.yul\":11137:11139   */\n      0x20\n        /* \"#utility.yul\":11163:11225   */\n      tag_247\n        /* \"#utility.yul\":11217:11224   */\n      dup8\n        /* \"#utility.yul\":11208:11214   */\n      dup3\n        /* \"#utility.yul\":11197:11206   */\n      dup9\n        /* \"#utility.yul\":11193:11215   */\n      add\n        /* \"#utility.yul\":11163:11225   */\n      tag_107\n      jump\t// in\n    tag_247:\n        /* \"#utility.yul\":11153:11225   */\n      swap4\n      pop\n        /* \"#utility.yul\":11108:11235   */\n      pop\n        /* \"#utility.yul\":11274:11276   */\n      0x40\n        /* \"#utility.yul\":11300:11353   */\n      tag_248\n        /* \"#utility.yul\":11345:11352   */\n      dup8\n        /* \"#utility.yul\":11336:11342   */\n      dup3\n        /* \"#utility.yul\":11325:11334   */\n      dup9\n        /* \"#utility.yul\":11321:11343   */\n      add\n        /* \"#utility.yul\":11300:11353   */\n      tag_109\n      jump\t// in\n    tag_248:\n        /* \"#utility.yul\":11290:11353   */\n      swap3\n      pop\n        /* \"#utility.yul\":11245:11363   */\n      pop\n        /* \"#utility.yul\":11430:11432   */\n      0x60\n        /* \"#utility.yul\":11419:11428   */\n      dup6\n        /* \"#utility.yul\":11415:11433   */\n      add\n        /* \"#utility.yul\":11402:11434   */\n      calldataload\n        /* \"#utility.yul\":11461:11479   */\n      0xffffffffffffffff\n        /* \"#utility.yul\":11453:11459   */\n      dup2\n        /* \"#utility.yul\":11450:11480   */\n      gt\n        /* \"#utility.yul\":11447:11564   */\n      iszero\n      tag_249\n      jumpi\n        /* \"#utility.yul\":11483:11562   */\n      tag_250\n      tag_69\n      jump\t// in\n    tag_250:\n        /* \"#utility.yul\":11447:11564   */\n    tag_249:\n        /* \"#utility.yul\":11588:11651   */\n      tag_251\n        /* \"#utility.yul\":11643:11650   */\n      dup8\n        /* \"#utility.yul\":11634:11640   */\n      dup3\n        /* \"#utility.yul\":11623:11632   */\n      dup9\n        /* \"#utility.yul\":11619:11641   */\n      add\n        /* \"#utility.yul\":11588:11651   */\n      tag_105\n      jump\t// in\n    tag_251:\n        /* \"#utility.yul\":11578:11651   */\n      swap2\n      pop\n        /* \"#utility.yul\":11373:11661   */\n      pop\n        /* \"#utility.yul\":10525:11668   */\n      swap3\n      swap6\n      swap2\n      swap5\n      pop\n      swap3\n      pop\n      jump\t// out\n        /* \"#utility.yul\":11674:11854   */\n    tag_110:\n        /* \"#utility.yul\":11722:11799   */\n      0x4e487b7100000000000000000000000000000000000000000000000000000000\n        /* \"#utility.yul\":11719:11720   */\n      0x00\n        /* \"#utility.yul\":11712:11800   */\n      mstore\n        /* \"#utility.yul\":11819:11823   */\n      0x22\n        /* \"#utility.yul\":11816:11817   */\n      0x04\n        /* \"#utility.yul\":11809:11824   */\n      mstore\n        /* \"#utility.yul\":11843:11847   */\n      0x24\n        /* \"#utility.yul\":11840:11841   */\n      0x00\n        /* \"#utility.yul\":11833:11848   */\n      revert\n        /* \"#utility.yul\":11860:12180   */\n    tag_33:\n        /* \"#utility.yul\":11904:11910   */\n      0x00\n        /* \"#utility.yul\":11941:11942   */\n      0x02\n        /* \"#utility.yul\":11935:11939   */\n      dup3\n        /* \"#utility.yul\":11931:11943   */\n      div\n        /* \"#utility.yul\":11921:11943   */\n      swap1\n      pop\n        /* \"#utility.yul\":11988:11989   */\n      0x01\n        /* \"#utility.yul\":11982:11986   */\n      dup3\n        /* \"#utility.yul\":11978:11990   */\n      and\n        /* \"#utility.yul\":12009:12027   */\n      dup1\n        /* \"#utility.yul\":11999:12080   */\n      tag_254\n      jumpi\n        /* \"#utility.yul\":12065:12069   */\n      0x7f\n        /* \"#utility.yul\":12057:12063   */\n      dup3\n        /* \"#utility.yul\":12053:12070   */\n      and\n        /* \"#utility.yul\":12043:12070   */\n      swap2\n      pop\n        /* \"#utility.yul\":11999:12080   */\n    tag_254:\n        /* \"#utility.yul\":12127:12129   */\n      0x20\n        /* \"#utility.yul\":12119:12125   */\n      dup3\n        /* \"#utility.yul\":12116:12130   */\n      lt\n        /* \"#utility.yul\":12096:12114   */\n      dup2\n        /* \"#utility.yul\":12093:12131   */\n      sub\n        /* \"#utility.yul\":12090:12174   */\n      tag_255\n      jumpi\n        /* \"#utility.yul\":12146:12164   */\n      tag_256\n      tag_110\n      jump\t// in\n    tag_256:\n        /* \"#utility.yul\":12090:12174   */\n    tag_255:\n        /* \"#utility.yul\":11911:12180   */\n      pop\n        /* \"#utility.yul\":11860:12180   */\n      swap2\n      swap1\n      pop\n      jump\t// out\n        /* \"#utility.yul\":12186:12327   */\n    tag_111:\n        /* \"#utility.yul\":12235:12239   */\n      0x00\n        /* \"#utility.yul\":12258:12261   */\n      dup2\n        /* \"#utility.yul\":12250:12261   */\n      swap1\n      pop\n        /* \"#utility.yul\":12281:12284   */\n      dup2\n        /* \"#utility.yul\":12278:12279   */\n      0x00\n        /* \"#utility.yul\":12271:12285   */\n      mstore\n        /* \"#utility.yul\":12315:12319   */\n      0x20\n        /* \"#utility.yul\":12312:12313   */\n      0x00\n        /* \"#utility.yul\":12302:12320   */\n      keccak256\n        /* \"#utility.yul\":12294:12320   */\n      swap1\n      pop\n        /* \"#utility.yul\":12186:12327   */\n      swap2\n      swap1\n      pop\n      jump\t// out\n        /* \"#utility.yul\":12333:12426   */\n    tag_112:\n        /* \"#utility.yul\":12370:12376   */\n      0x00\n        /* \"#utility.yul\":12417:12419   */\n      0x20\n        /* \"#utility.yul\":12412:12414   */\n      0x1f\n        /* \"#utility.yul\":12405:12410   */\n      dup4\n        /* \"#utility.yul\":12401:12415   */\n      add\n        /* \"#utility.yul\":12397:12420   */\n      div\n        /* \"#utility.yul\":12387:12420   */\n      swap1\n      pop\n        /* \"#utility.yul\":12333:12426   */\n      swap2\n      swap1\n      pop\n      jump\t// out\n        /* \"#utility.yul\":12432:12539   */\n    tag_113:\n        /* \"#utility.yul\":12476:12484   */\n      0x00\n        /* \"#utility.yul\":12526:12531   */\n      dup3\n        /* \"#utility.yul\":12520:12524   */\n      dup3\n        /* \"#utility.yul\":12516:12532   */\n      shl\n        /* \"#utility.yul\":12495:12532   */\n      swap1\n      pop\n        /* \"#utility.yul\":12432:12539   */\n      swap3\n      swap2\n      pop\n      pop\n      jump\t// out\n        /* \"#utility.yul\":12545:12938   */\n    tag_114:\n        /* \"#utility.yul\":12614:12620   */\n      0x00\n        /* \"#utility.yul\":12664:12665   */\n      0x08\n        /* \"#utility.yul\":12652:12662   */\n      dup4\n        /* \"#utility.yul\":12648:12666   */\n      mul\n        /* \"#utility.yul\":12687:12784   */\n      tag_261\n        /* \"#utility.yul\":12717:12783   */\n      0xffffffffffffffffffffffffffffffffffffffffffffffffffffffffffffffff\n        /* \"#utility.yul\":12706:12715   */\n      dup3\n        /* \"#utility.yul\":12687:12784   */\n      tag_113\n      jump\t// in\n    tag_261:\n        /* \"#utility.yul\":12805:12844   */\n      tag_262\n        /* \"#utility.yul\":12835:12843   */\n      dup7\n        /* \"#utility.yul\":12824:12833   */\n      dup4\n        /* \"#utility.yul\":12805:12844   */\n      tag_113\n      jump\t// in\n    tag_262:\n        /* \"#utility.yul\":12793:12844   */\n      swap6\n      pop\n        /* \"#utility.yul\":12877:12881   */\n      dup1\n        /* \"#utility.yul\":12873:12882   */\n      not\n        /* \"#utility.yul\":12866:12871   */\n      dup5\n        /* \"#utility.yul\":12862:12883   */\n      and\n        /* \"#utility.yul\":12853:12883   */\n      swap4\n      pop\n        /* \"#utility.yul\":12926:12930   */\n      dup1\n        /* \"#utility.yul\":12916:12924   */\n      dup7\n        /* \"#utility.yul\":12912:12931   */\n      and\n        /* \"#utility.yul\":12905:12910   */\n      dup5\n        /* \"#utility.yul\":12902:12932   */\n      or\n        /* \"#utility.yul\":12892:12932   */\n      swap3\n      pop\n        /* \"#utility.yul\":12621:12938   */\n      pop\n      pop\n        /* \"#utility.yul\":12545:12938   */\n      swap4\n      swap3\n      pop\n      pop\n      pop\n      jump\t// out\n        /* \"#utility.yul\":12944:13004   */\n    tag_115:\n        /* \"#utility.yul\":12972:12975   */\n      0x00\n        /* \"#utility.yul\":12993:12998   */\n      dup2\n        /* \"#utility.yul\":12986:12998   */\n      swap1\n      pop\n        /* \"#utility.yul\":12944:13004   */\n      swap2\n      swap1\n      pop\n      jump\t// out\n        /* \"#utility.yul\":13010:13152   */\n    tag_116:\n        /* \"#utility.yul\":13060:13069   */\n      0x00\n        /* \"#utility.yul\":13093:13146   */\n      tag_265\n        /* \"#utility.yul\":13111:13145   */\n      tag_266\n        /* \"#utility.yul\":13120:13144   */\n      tag_267\n        /* \"#utility.yul\":13138:13143   */\n      dup5\n        /* \"#utility.yul\":13120:13144   */\n      tag_88\n      jump\t// in\n    tag_267:\n        /* \"#utility.yul\":13111:13145   */\n      tag_115\n      jump\t// in\n    tag_266:\n        /* \"#utility.yul\":13093:13146   */\n      tag_88\n      jump\t// in\n    tag_265:\n        /* \"#utility.yul\":13080:13146   */\n      swap1\n      pop\n        /* \"#utility.yul\":13010:13152   */\n      swap2\n      swap1\n      pop\n      jump\t// out\n        /* \"#utility.yul\":13158:13233   */\n    tag_117:\n        /* \"#utility.yul\":13201:13204   */\n      0x00\n        /* \"#utility.yul\":13222:13227   */\n      dup2\n        /* \"#utility.yul\":13215:13227   */\n      swap1\n      pop\n        /* \"#utility.yul\":13158:13233   */\n      swap2\n      swap1\n      pop\n      jump\t// out\n        /* \"#utility.yul\":13239:13508   */\n    tag_118:\n        /* \"#utility.yul\":13349:13388   */\n      tag_270\n        /* \"#utility.yul\":13380:13387   */\n      dup4\n        /* \"#utility.yul\":13349:13388   */\n      tag_116\n      jump\t// in\n    tag_270:\n        /* \"#utility.yul\":13410:13501   */\n      tag_271\n        /* \"#utility.yul\":13459:13500   */\n      tag_272\n        /* \"#utility.yul\":13483:13499   */\n      dup3\n        /* \"#utility.yul\":13459:13500   */\n      tag_117\n      jump\t// in\n    tag_272:\n        /* \"#utility.yul\":13451:13457   */\n      dup5\n        /* \"#utility.yul\":13444:13448   */\n      dup5\n        /* \"#utility.yul\":13438:13449   */\n      sload\n        /* \"#utility.yul\":13410:13501   */\n      tag_114\n      jump\t// in\n    tag_271:\n        /* \"#utility.yul\":13404:13408   */\n      dup3\n        /* \"#utility.yul\":13397:13502   */\n      sstore\n        /* \"#utility.yul\":13315:13508   */\n      pop\n        /* \"#utility.yul\":13239:13508   */\n      pop\n      pop\n      pop\n      jump\t// out\n        /* \"#utility.yul\":13514:13587   */\n    tag_119:\n        /* \"#utility.yul\":13559:13562   */\n      0x00\n        /* \"#utility.yul\":13580:13581   */\n      0x00\n        /* \"#utility.yul\":13573:13581   */\n      swap1\n      pop\n        /* \"#utility.yul\":13514:13587   */\n      swap1\n      jump\t// out\n        /* \"#utility.yul\":13593:13782   */\n    tag_120:\n        /* \"#utility.yul\":13670:13702   */\n      tag_275\n      tag_119\n      jump\t// in\n    tag_275:\n        /* \"#utility.yul\":13711:13776   */\n      tag_276\n        /* \"#utility.yul\":13769:13775   */\n      dup2\n        /* \"#utility.yul\":13761:13767   */\n      dup5\n        /* \"#utility.yul\":13755:13759   */\n      dup5\n        /* \"#utility.yul\":13711:13776   */\n      tag_118\n      jump\t// in\n    tag_276:\n        /* \"#utility.yul\":13646:13782   */\n      pop\n        /* \"#utility.yul\":13593:13782   */\n      pop\n      pop\n      jump\t// out\n        /* \"#utility.yul\":13788:13974   */\n    tag_121:\n        /* \"#utility.yul\":13848:13968   */\n    tag_278:\n        /* \"#utility.yul\":13865:13868   */\n      dup2\n        /* \"#utility.yul\":13858:13863   */\n      dup2\n        /* \"#utility.yul\":13855:13869   */\n      lt\n        /* \"#utility.yul\":13848:13968   */\n      iszero\n      tag_280\n      jumpi\n        /* \"#utility.yul\":13919:13958   */\n      tag_281\n        /* \"#utility.yul\":13956:13957   */\n      0x00\n        /* \"#utility.yul\":13949:13954   */\n      dup3\n        /* \"#utility.yul\":13919:13958   */\n      tag_120\n      jump\t// in\n    tag_281:\n        /* \"#utility.yul\":13892:13893   */\n      0x01\n        /* \"#utility.yul\":13885:13890   */\n      dup2\n        /* \"#utility.yul\":13881:13894   */\n      add\n        /* \"#utility.yul\":13872:13894   */\n      swap1\n      pop\n        /* \"#utility.yul\":13848:13968   */\n      jump(tag_278)\n    tag_280:\n        /* \"#utility.yul\":13788:13974   */\n      pop\n      pop\n      jump\t// out\n        /* \"#utility.yul\":13980:14523   */\n    tag_122:\n        /* \"#utility.yul\":14081:14083   */\n      0x1f\n        /* \"#utility.yul\":14076:14079   */\n      dup3\n        /* \"#utility.yul\":14073:14084   */\n      gt\n        /* \"#utility.yul\":14070:14516   */\n      iszero\n      tag_283\n      jumpi\n        /* \"#utility.yul\":14115:14153   */\n      tag_284\n        /* \"#utility.yul\":14147:14152   */\n      dup2\n        /* \"#utility.yul\":14115:14153   */\n      tag_111\n      jump\t// in\n    tag_284:\n        /* \"#utility.yul\":14199:14228   */\n      tag_285\n        /* \"#utility.yul\":14217:14227   */\n      dup5\n        /* \"#utility.yul\":14199:14228   */\n      tag_112\n      jump\t// in\n    tag_285:\n        /* \"#utility.yul\":14189:14197   */\n      dup2\n        /* \"#utility.yul\":14185:14229   */\n      add\n        /* \"#utility.yul\":14382:14384   */\n      0x20\n        /* \"#utility.yul\":14370:14380   */\n      dup6\n        /* \"#utility.yul\":14367:14385   */\n      lt\n        /* \"#utility.yul\":14364:14413   */\n      iszero\n      tag_286\n      jumpi\n        /* \"#utility.yul\":14403:14411   */\n      dup2\n        /* \"#utility.yul\":14388:14411   */\n      swap1\n      pop\n        /* \"#utility.yul\":14364:14413   */\n    tag_286:\n        /* \"#utility.yul\":14426:14506   */\n      tag_287\n        /* \"#utility.yul\":14482:14504   */\n      tag_288\n        /* \"#utility.yul\":14500:14503   */\n      dup6\n        /* \"#utility.yul\":14482:14504   */\n      tag_112\n      jump\t// in\n    tag_288:\n        /* \"#utility.yul\":14472:14480   */\n      dup4\n        /* \"#utility.yul\":14468:14505   */\n      add\n        /* \"#utility.yul\":14455:14466   */\n      dup3\n        /* \"#utility.yul\":14426:14506   */\n      tag_121\n      jump\t// in\n    tag_287:\n        /* \"#utility.yul\":14085:14516   */\n      pop\n      pop\n        /* \"#utility.yul\":14070:14516   */\n    tag_283:\n        /* \"#utility.yul\":13980:14523   */\n      pop\n      pop\n      pop\n      jump\t// out\n        /* \"#utility.yul\":14529:14646   */\n    tag_123:\n        /* \"#utility.yul\":14583:14591   */\n      0x00\n        /* \"#utility.yul\":14633:14638   */\n      dup3\n        /* \"#utility.yul\":14627:14631   */\n      dup3\n        /* \"#utility.yul\":14623:14639   */\n      shr\n        /* \"#utility.yul\":14602:14639   */\n      swap1\n      pop\n        /* \"#utility.yul\":14529:14646   */\n      swap3\n      swap2\n      pop\n      pop\n      jump\t// out\n        /* \"#utility.yul\":14652:14821   */\n    tag_124:\n        /* \"#utility.yul\":14696:14702   */\n      0x00\n        /* \"#utility.yul\":14729:14780   */\n      tag_291\n        /* \"#utility.yul\":14777:14778   */\n      0x00\n        /* \"#utility.yul\":14773:14779   */\n      not\n        /* \"#utility.yul\":14765:14770   */\n      dup5\n        /* \"#utility.yul\":14762:14763   */\n      0x08\n        /* \"#utility.yul\":14758:14771   */\n      mul\n        /* \"#utility.yul\":14729:14780   */\n      tag_123\n      jump\t// in\n    tag_291:\n        /* \"#utility.yul\":14725:14781   */\n      not\n        /* \"#utility.yul\":14810:14814   */\n      dup1\n        /* \"#utility.yul\":14804:14808   */\n      dup4\n        /* \"#utility.yul\":14800:14815   */\n      and\n        /* \"#utility.yul\":14790:14815   */\n      swap2\n      pop\n        /* \"#utility.yul\":14703:14821   */\n      pop\n        /* \"#utility.yul\":14652:14821   */\n      swap3\n      swap2\n      pop\n      pop\n      jump\t// out\n        /* \"#utility.yul\":14826:15121   */\n    tag_125:\n        /* \"#utility.yul\":14902:14906   */\n      0x00\n        /* \"#utility.yul\":15048:15077   */\n      tag_293\n        /* \"#utility.yul\":15073:15076   */\n      dup4\n        /* \"#utility.yul\":15067:15071   */\n      dup4\n        /* \"#utility.yul\":15048:15077   */\n      tag_124\n      jump\t// in\n    tag_293:\n        /* \"#utility.yul\":15040:15077   */\n      swap2\n      pop\n        /* \"#utility.yul\":15110:15113   */\n      dup3\n        /* \"#utility.yul\":15107:15108   */\n      0x02\n        /* \"#utility.yul\":15103:15114   */\n      mul\n        /* \"#utility.yul\":15097:15101   */\n      dup3\n        /* \"#utility.yul\":15094:15115   */\n      or\n        /* \"#utility.yul\":15086:15115   */\n      swap1\n      pop\n        /* \"#utility.yul\":14826:15121   */\n      swap3\n      swap2\n      pop\n      pop\n      jump\t// out\n        /* \"#utility.yul\":15126:16521   */\n    tag_61:\n        /* \"#utility.yul\":15243:15280   */\n      tag_295\n        /* \"#utility.yul\":15276:15279   */\n      dup3\n        /* \"#utility.yul\":15243:15280   */\n      tag_83\n      jump\t// in\n    tag_295:\n        /* \"#utility.yul\":15345:15363   */\n      0xffffffffffffffff\n        /* \"#utility.yul\":15337:15343   */\n      dup2\n        /* \"#utility.yul\":15334:15364   */\n      gt\n        /* \"#utility.yul\":15331:15387   */\n      iszero\n      tag_296\n      jumpi\n        /* \"#utility.yul\":15367:15385   */\n      tag_297\n      tag_99\n      jump\t// in\n    tag_297:\n        /* \"#utility.yul\":15331:15387   */\n    tag_296:\n        /* \"#utility.yul\":15411:15449   */\n      tag_298\n        /* \"#utility.yul\":15443:15447   */\n      dup3\n        /* \"#utility.yul\":15437:15448   */\n      sload\n        /* \"#utility.yul\":15411:15449   */\n      tag_33\n      jump\t// in\n    tag_298:\n        /* \"#utility.yul\":15496:15563   */\n      tag_299\n        /* \"#utility.yul\":15556:15562   */\n      dup3\n        /* \"#utility.yul\":15548:15554   */\n      dup3\n        /* \"#utility.yul\":15542:15546   */\n      dup6\n        /* \"#utility.yul\":15496:15563   */\n      tag_122\n      jump\t// in\n    tag_299:\n        /* \"#utility.yul\":15590:15591   */\n      0x00\n        /* \"#utility.yul\":15614:15618   */\n      0x20\n        /* \"#utility.yul\":15601:15618   */\n      swap1\n      pop\n        /* \"#utility.yul\":15646:15648   */\n      0x1f\n        /* \"#utility.yul\":15638:15644   */\n      dup4\n        /* \"#utility.yul\":15635:15649   */\n      gt\n        /* \"#utility.yul\":15663:15664   */\n      0x01\n        /* \"#utility.yul\":15658:16276   */\n      dup2\n      eq\n      tag_301\n      jumpi\n        /* \"#utility.yul\":16320:16321   */\n      0x00\n        /* \"#utility.yul\":16337:16343   */\n      dup5\n        /* \"#utility.yul\":16334:16411   */\n      iszero\n      tag_302\n      jumpi\n        /* \"#utility.yul\":16386:16395   */\n      dup3\n        /* \"#utility.yul\":16381:16384   */\n      dup8\n        /* \"#utility.yul\":16377:16396   */\n      add\n        /* \"#utility.yul\":16371:16397   */\n      mload\n        /* \"#utility.yul\":16362:16397   */\n      swap1\n      pop\n        /* \"#utility.yul\":16334:16411   */\n    tag_302:\n        /* \"#utility.yul\":16437:16504   */\n      tag_303\n        /* \"#utility.yul\":16497:16503   */\n      dup6\n        /* \"#utility.yul\":16490:16495   */\n      dup3\n        /* \"#utility.yul\":16437:16504   */\n      tag_125\n      jump\t// in\n    tag_303:\n        /* \"#utility.yul\":16431:16435   */\n      dup7\n        /* \"#utility.yul\":16424:16505   */\n      sstore\n        /* \"#utility.yul\":16293:16515   */\n      pop\n        /* \"#utility.yul\":15628:16515   */\n      jump(tag_300)\n        /* \"#utility.yul\":15658:16276   */\n    tag_301:\n        /* \"#utility.yul\":15710:15714   */\n      0x1f\n        /* \"#utility.yul\":15706:15715   */\n      not\n        /* \"#utility.yul\":15698:15704   */\n      dup5\n        /* \"#utility.yul\":15694:15716   */\n      and\n        /* \"#utility.yul\":15744:15781   */\n      tag_304\n        /* \"#utility.yul\":15776:15780   */\n      dup7\n        /* \"#utility.yul\":15744:15781   */\n      tag_111\n      jump\t// in\n    tag_304:\n        /* \"#utility.yul\":15803:15804   */\n      0x00\n        /* \"#utility.yul\":15817:16025   */\n    tag_305:\n        /* \"#utility.yul\":15831:15838   */\n      dup3\n        /* \"#utility.yul\":15828:15829   */\n      dup2\n        /* \"#utility.yul\":15825:15839   */\n      lt\n        /* \"#utility.yul\":15817:16025   */\n      iszero\n      tag_307\n      jumpi\n        /* \"#utility.yul\":15910:15919   */\n      dup5\n        /* \"#utility.yul\":15905:15908   */\n      dup10\n        /* \"#utility.yul\":15901:15920   */\n      add\n        /* \"#utility.yul\":15895:15921   */\n      mload\n        /* \"#utility.yul\":15887:15893   */\n      dup3\n        /* \"#utility.yul\":15880:15922   */\n      sstore\n        /* \"#utility.yul\":15961:15962   */\n      0x01\n        /* \"#utility.yul\":15953:15959   */\n      dup3\n        /* \"#utility.yul\":15949:15963   */\n      add\n        /* \"#utility.yul\":15939:15963   */\n      swap2\n      pop\n        /* \"#utility.yul\":16008:16010   */\n      0x20\n        /* \"#utility.yul\":15997:16006   */\n      dup6\n        /* \"#utility.yul\":15993:16011   */\n      add\n        /* \"#utility.yul\":15980:16011   */\n      swap5\n      pop\n        /* \"#utility.yul\":15854:15858   */\n      0x20\n        /* \"#utility.yul\":15851:15852   */\n      dup2\n        /* \"#utility.yul\":15847:15859   */\n      add\n        /* \"#utility.yul\":15842:15859   */\n      swap1\n      pop\n        /* \"#utility.yul\":15817:16025   */\n      jump(tag_305)\n    tag_307:\n        /* \"#utility.yul\":16053:16059   */\n      dup7\n        /* \"#utility.yul\":16044:16051   */\n      dup4\n        /* \"#utility.yul\":16041:16060   */\n      lt\n        /* \"#utility.yul\":16038:16217   */\n      iszero\n      tag_308\n      jumpi\n        /* \"#utility.yul\":16111:16120   */\n      dup5\n        /* \"#utility.yul\":16106:16109   */\n      dup10\n        /* \"#utility.yul\":16102:16121   */\n      add\n        /* \"#utility.yul\":16096:16122   */\n      mload\n        /* \"#utility.yul\":16154:16202   */\n      tag_309\n        /* \"#utility.yul\":16196:16200   */\n      0x1f\n        /* \"#utility.yul\":16188:16194   */\n      dup10\n        /* \"#utility.yul\":16184:16201   */\n      and\n        /* \"#utility.yul\":16173:16182   */\n      dup3\n        /* \"#utility.yul\":16154:16202   */\n      tag_124\n      jump\t// in\n    tag_309:\n        /* \"#utility.yul\":16146:16152   */\n      dup4\n        /* \"#utility.yul\":16139:16203   */\n      sstore\n        /* \"#utility.yul\":16061:16217   */\n      pop\n        /* \"#utility.yul\":16038:16217   */\n    tag_308:\n        /* \"#utility.yul\":16263:16264   */\n      0x01\n        /* \"#utility.yul\":16259:16260   */\n      0x02\n        /* \"#utility.yul\":16251:16257   */\n      dup9\n        /* \"#utility.yul\":16247:16261   */\n      mul\n        /* \"#utility.yul\":16243:16265   */\n      add\n        /* \"#utility.yul\":16237:16241   */\n      dup9\n        /* \"#utility.yul\":16230:16266   */\n      sstore\n        /* \"#utility.yul\":15665:16276   */\n      pop\n      pop\n      pop\n        /* \"#utility.yul\":15628:16515   */\n    tag_300:\n      pop\n        /* \"#utility.yul\":15218:16521   */\n      pop\n      pop\n      pop\n        /* \"#utility.yul\":15126:16521   */\n      pop\n      pop\n      jump\t// out\n        /* \"#utility.yul\":16527:16696   */\n    tag_126:\n        /* \"#utility.yul\":16611:16622   */\n      0x00\n        /* \"#utility.yul\":16645:16651   */\n      dup3\n        /* \"#utility.yul\":16640:16643   */\n      dup3\n        /* \"#utility.yul\":16633:16652   */\n      mstore\n        /* \"#utility.yul\":16685:16689   */\n      0x20\n        /* \"#utility.yul\":16680:16683   */\n      dup3\n        /* \"#utility.yul\":16676:16690   */\n      add\n        /* \"#utility.yul\":16661:16690   */\n      swap1\n      pop\n        /* \"#utility.yul\":16527:16696   */\n      swap3\n      swap2\n      pop\n      pop\n      jump\t// out\n        /* \"#utility.yul\":16702:17079   */\n    tag_127:\n        /* \"#utility.yul\":16790:16793   */\n      0x00\n        /* \"#utility.yul\":16818:16857   */\n      tag_312\n        /* \"#utility.yul\":16851:16856   */\n      dup3\n        /* \"#utility.yul\":16818:16857   */\n      tag_83\n      jump\t// in\n    tag_312:\n        /* \"#utility.yul\":16873:16944   */\n      tag_313\n        /* \"#utility.yul\":16937:16943   */\n      dup2\n        /* \"#utility.yul\":16932:16935   */\n      dup6\n        /* \"#utility.yul\":16873:16944   */\n      tag_126\n      jump\t// in\n    tag_313:\n        /* \"#utility.yul\":16866:16944   */\n      swap4\n      pop\n        /* \"#utility.yul\":16953:17018   */\n      tag_314\n        /* \"#utility.yul\":17011:17017   */\n      dup2\n        /* \"#utility.yul\":17006:17009   */\n      dup6\n        /* \"#utility.yul\":16999:17003   */\n      0x20\n        /* \"#utility.yul\":16992:16997   */\n      dup7\n        /* \"#utility.yul\":16988:17004   */\n      add\n        /* \"#utility.yul\":16953:17018   */\n      tag_85\n      jump\t// in\n    tag_314:\n        /* \"#utility.yul\":17043:17072   */\n      tag_315\n        /* \"#utility.yul\":17065:17071   */\n      dup2\n        /* \"#utility.yul\":17043:17072   */\n      tag_86\n      jump\t// in\n    tag_315:\n        /* \"#utility.yul\":17038:17041   */\n      dup5\n        /* \"#utility.yul\":17034:17073   */\n      add\n        /* \"#utility.yul\":17027:17073   */\n      swap2\n      pop\n        /* \"#utility.yul\":16794:17079   */\n      pop\n        /* \"#utility.yul\":16702:17079   */\n      swap3\n      swap2\n      pop\n      pop\n      jump\t// out\n        /* \"#utility.yul\":17085:17203   */\n    tag_128:\n        /* \"#utility.yul\":17172:17196   */\n      tag_317\n        /* \"#utility.yul\":17190:17195   */\n      dup2\n        /* \"#utility.yul\":17172:17196   */\n      tag_88\n      jump\t// in\n    tag_317:\n        /* \"#utility.yul\":17167:17170   */\n      dup3\n        /* \"#utility.yul\":17160:17197   */\n      mstore\n        /* \"#utility.yul\":17085:17203   */\n      pop\n      pop\n      jump\t// out\n        /* \"#utility.yul\":17209:17958   */\n    tag_66:\n        /* \"#utility.yul\":17433:17437   */\n      0x00\n        /* \"#utility.yul\":17471:17474   */\n      0x80\n        /* \"#utility.yul\":17460:17469   */\n      dup3\n        /* \"#utility.yul\":17456:17475   */\n      add\n        /* \"#utility.yul\":17448:17475   */\n      swap1\n      pop\n        /* \"#utility.yul\":17521:17530   */\n      dup2\n        /* \"#utility.yul\":17515:17519   */\n      dup2\n        /* \"#utility.yul\":17511:17531   */\n      sub\n        /* \"#utility.yul\":17507:17508   */\n      0x00\n        /* \"#utility.yul\":17496:17505   */\n      dup4\n        /* \"#utility.yul\":17492:17509   */\n      add\n        /* \"#utility.yul\":17485:17532   */\n      mstore\n        /* \"#utility.yul\":17549:17627   */\n      tag_319\n        /* \"#utility.yul\":17622:17626   */\n      dup2\n        /* \"#utility.yul\":17613:17619   */\n      dup8\n        /* \"#utility.yul\":17549:17627   */\n      tag_127\n      jump\t// in\n    tag_319:\n        /* \"#utility.yul\":17541:17627   */\n      swap1\n      pop\n        /* \"#utility.yul\":17637:17709   */\n      tag_320\n        /* \"#utility.yul\":17705:17707   */\n      0x20\n        /* \"#utility.yul\":17694:17703   */\n      dup4\n        /* \"#utility.yul\":17690:17708   */\n      add\n        /* \"#utility.yul\":17681:17687   */\n      dup7\n        /* \"#utility.yul\":17637:17709   */\n      tag_128\n      jump\t// in\n    tag_320:\n        /* \"#utility.yul\":17719:17798   */\n      tag_321\n        /* \"#utility.yul\":17794:17796   */\n      0x40\n        /* \"#utility.yul\":17783:17792   */\n      dup4\n        /* \"#utility.yul\":17779:17797   */\n      add\n        /* \"#utility.yul\":17770:17776   */\n      dup6\n        /* \"#utility.yul\":17719:17798   */\n      tag_77\n      jump\t// in\n    tag_321:\n        /* \"#utility.yul\":17845:17854   */\n      dup2\n        /* \"#utility.yul\":17839:17843   */\n      dup2\n        /* \"#utility.yul\":17835:17855   */\n      sub\n        /* \"#utility.yul\":17830:17832   */\n      0x60\n        /* \"#utility.yul\":17819:17828   */\n      dup4\n        /* \"#utility.yul\":17815:17833   */\n      add\n        /* \"#utility.yul\":17808:17856   */\n      mstore\n        /* \"#utility.yul\":17873:17951   */\n      tag_322\n        /* \"#utility.yul\":17946:17950   */\n      dup2\n        /* \"#utility.yul\":17937:17943   */\n      dup5\n        /* \"#utility.yul\":17873:17951   */\n      tag_127\n      jump\t// in\n    tag_322:\n        /* \"#utility.yul\":17865:17951   */\n      swap1\n      pop\n        /* \"#utility.yul\":17209:17958   */\n      swap6\n      swap5\n      pop\n      pop\n      pop\n      pop\n      pop\n      jump\t// out\n\n    auxdata: 0xa26469706673582212205a2904b717c7efd2329f4ba4c013a9257e9199467ee28bbbee870e96431978b064736f6c634300081f0033\n}\n",
				"bytecode": {
					"linkReferences": {},
					"object": "6080604052348015600e575f5ffd5b50335f5f6101000a81548173ffffffffffffffffffffffffffffffffffffffff021916908373ffffffffffffffffffffffffffffffffffffffff160217905550610e358061005b5f395ff3fe608060405234801561000f575f5ffd5b5060043610610055575f3560e01c806307d2a101146100595780638da5cb5b1461008957806399374642146100a7578063a87430ba146100d7578063e482656d14610108575b5f5ffd5b610073600480360381019061006e9190610572565b610124565b6040516100809190610610565b60405180910390f35b610091610141565b60405161009e9190610638565b60405180910390f35b6100c160048036038101906100bc9190610572565b610165565b6040516100ce9190610697565b60405180910390f35b6100f160048036038101906100ec9190610572565b610182565b6040516100ff929190610841565b60405180910390f35b610122600480360381019061011d91906109ef565b6103ec565b005b6003602052805f5260405f205f915054906101000a900460ff1681565b5f5f9054906101000a900473ffffffffffffffffffffffffffffffffffffffff1681565b6002602052805f5260405f205f915054906101000a900460ff1681565b6001602052805f5260405f205f91509050805f016040518060800160405290815f820180546101b090610ab8565b80601f01602080910402602001604051908101604052809291908181526020018280546101dc90610ab8565b80156102275780601f106101fe57610100808354040283529160200191610227565b820191905f5260205f20905b81548152906001019060200180831161020a57829003601f168201915b5050505050815260200160018201548152602001600282015f9054906101000a900460ff16600181111561025e5761025d61059d565b5b60018111156102705761026f61059d565b5b815260200160038201805461028490610ab8565b80601f01602080910402602001604051908101604052809291908181526020018280546102b090610ab8565b80156102fb5780601f106102d2576101008083540402835291602001916102fb565b820191905f5260205f20905b8154815290600101906020018083116102de57829003601f168201915b50505050508152505090806004016040518060600160405290815f82015f9054906101000a900460ff1660028111156103375761033661059d565b5b60028111156103495761034861059d565b5b815260200160018201805461035d90610ab8565b80601f016020809104026020016040519081016040528092919081815260200182805461038990610ab8565b80156103d45780601f106103ab576101008083540402835291602001916103d4565b820191905f5260205f20905b8154815290600101906020018083116103b757829003601f168201915b50505050508152602001600282015481525050905082565b60405180608001604052808581526020018381526020018460018111156104165761041561059d565b5b81526020018281525060015f3373ffffffffffffffffffffffffffffffffffffffff1673ffffffffffffffffffffffffffffffffffffffff1681526020019081526020015f205f015f820151815f0190816104719190610c88565b50602082015181600101556040820151816002015f6101000a81548160ff021916908360018111156104a6576104a561059d565b5b021790555060608201518160030190816104c09190610c88565b509050507fb578f66e00dd5ce37b5eb9655026c617e4051d69a28c6f3145b3dac4f34ab985848385846040516104f99493929190610dae565b60405180910390a150505050565b5f604051905090565b5f5ffd5b5f5ffd5b5f73ffffffffffffffffffffffffffffffffffffffff82169050919050565b5f61054182610518565b9050919050565b61055181610537565b811461055b575f5ffd5b50565b5f8135905061056c81610548565b92915050565b5f6020828403121561058757610586610510565b5b5f6105948482850161055e565b91505092915050565b7f4e487b71000000000000000000000000000000000000000000000000000000005f52602160045260245ffd5b600281106105db576105da61059d565b5b50565b5f8190506105eb826105ca565b919050565b5f6105fa826105de565b9050919050565b61060a816105f0565b82525050565b5f6020820190506106235f830184610601565b92915050565b61063281610537565b82525050565b5f60208201905061064b5f830184610629565b92915050565b600381106106625761066161059d565b5b50565b5f81905061067282610651565b919050565b5f61068182610665565b9050919050565b61069181610677565b82525050565b5f6020820190506106aa5f830184610688565b92915050565b5f81519050919050565b5f82825260208201905092915050565b8281835e5f83830152505050565b5f601f19601f8301169050919050565b5f6106f2826106b0565b6106fc81856106ba565b935061070c8185602086016106ca565b610715816106d8565b840191505092915050565b5f819050919050565b61073281610720565b82525050565b610741816105f0565b82525050565b5f608083015f8301518482035f86015261076182826106e8565b91505060208301516107766020860182610729565b5060408301516107896040860182610738565b50606083015184820360608601526107a182826106e8565b9150508091505092915050565b600381106107bf576107be61059d565b5b50565b5f8190506107cf826107ae565b919050565b5f6107de826107c2565b9050919050565b6107ee816107d4565b82525050565b5f606083015f8301516108095f8601826107e5565b506020830151848203602086015261082182826106e8565b91505060408301516108366040860182610729565b508091505092915050565b5f6040820190508181035f8301526108598185610747565b9050818103602083015261086d81846107f4565b90509392505050565b5f5ffd5b5f5ffd5b7f4e487b71000000000000000000000000000000000000000000000000000000005f52604160045260245ffd5b6108b4826106d8565b810181811067ffffffffffffffff821117156108d3576108d261087e565b5b80604052505050565b5f6108e5610507565b90506108f182826108ab565b919050565b5f67ffffffffffffffff8211156109105761090f61087e565b5b610919826106d8565b9050602081019050919050565b828183375f83830152505050565b5f610946610941846108f6565b6108dc565b9050828152602081018484840111156109625761096161087a565b5b61096d848285610926565b509392505050565b5f82601f83011261098957610988610876565b5b8135610999848260208601610934565b91505092915050565b600281106109ae575f5ffd5b50565b5f813590506109bf816109a2565b92915050565b6109ce81610720565b81146109d8575f5ffd5b50565b5f813590506109e9816109c5565b92915050565b5f5f5f5f60808587031215610a0757610a06610510565b5b5f85013567ffffffffffffffff811115610a2457610a23610514565b5b610a3087828801610975565b9450506020610a41878288016109b1565b9350506040610a52878288016109db565b925050606085013567ffffffffffffffff811115610a7357610a72610514565b5b610a7f87828801610975565b91505092959194509250565b7f4e487b71000000000000000000000000000000000000000000000000000000005f52602260045260245ffd5b5f6002820490506001821680610acf57607f821691505b602082108103610ae257610ae1610a8b565b5b50919050565b5f819050815f5260205f209050919050565b5f6020601f8301049050919050565b5f82821b905092915050565b5f60088302610b447fffffffffffffffffffffffffffffffffffffffffffffffffffffffffffffffff82610b09565b610b4e8683610b09565b95508019841693508086168417925050509392505050565b5f819050919050565b5f610b89610b84610b7f84610720565b610b66565b610720565b9050919050565b5f819050919050565b610ba283610b6f565b610bb6610bae82610b90565b848454610b15565b825550505050565b5f5f905090565b610bcd610bbe565b610bd8818484610b99565b505050565b5b81811015610bfb57610bf05f82610bc5565b600181019050610bde565b5050565b601f821115610c4057610c1181610ae8565b610c1a84610afa565b81016020851015610c29578190505b610c3d610c3585610afa565b830182610bdd565b50505b505050565b5f82821c905092915050565b5f610c605f1984600802610c45565b1980831691505092915050565b5f610c788383610c51565b9150826002028217905092915050565b610c91826106b0565b67ffffffffffffffff811115610caa57610ca961087e565b5b610cb48254610ab8565b610cbf828285610bff565b5f60209050601f831160018114610cf0575f8415610cde578287015190505b610ce88582610c6d565b865550610d4f565b601f198416610cfe86610ae8565b5f5b82811015610d2557848901518255600182019150602085019450602081019050610d00565b86831015610d425784890151610d3e601f891682610c51565b8355505b6001600288020188555050505b505050505050565b5f82825260208201905092915050565b5f610d71826106b0565b610d7b8185610d57565b9350610d8b8185602086016106ca565b610d94816106d8565b840191505092915050565b610da881610720565b82525050565b5f6080820190508181035f830152610dc68187610d67565b9050610dd56020830186610d9f565b610de26040830185610601565b8181036060830152610df48184610d67565b90509594505050505056fea26469706673582212205a2904b717c7efd2329f4ba4c013a9257e9199467ee28bbbee870e96431978b064736f6c634300081f0033",
					"opcodes": "PUSH1 0x80 PUSH1 0x40 MSTORE CALLVALUE DUP1 ISZERO PUSH1 0xE JUMPI PUSH0 PUSH0 REVERT JUMPDEST POP CALLER PUSH0 PUSH0 PUSH2 0x100 EXP DUP2 SLOAD DUP2 PUSH20 0xFFFFFFFFFFFFFFFFFFFFFFFFFFFFFFFFFFFFFFFF MUL NOT AND SWAP1 DUP4 PUSH20 0xFFFFFFFFFFFFFFFFFFFFFFFFFFFFFFFFFFFFFFFF AND MUL OR SWAP1 SSTORE POP PUSH2 0xE35 DUP1 PUSH2 0x5B PUSH0 CODECOPY PUSH0 RETURN INVALID PUSH1 0x80 PUSH1 0x40 MSTORE CALLVALUE DUP1 ISZERO PUSH2 0xF JUMPI PUSH0 PUSH0 REVERT JUMPDEST POP PUSH1 0x4 CALLDATASIZE LT PUSH2 0x55 JUMPI PUSH0 CALLDATALOAD PUSH1 0xE0 SHR DUP1 PUSH4 0x7D2A101 EQ PUSH2 0x59 JUMPI DUP1 PUSH4 0x8DA5CB5B EQ PUSH2 0x89 JUMPI DUP1 PUSH4 0x99374642 EQ PUSH2 0xA7 JUMPI DUP1 PUSH4 0xA87430BA EQ PUSH2 0xD7 JUMPI DUP1 PUSH4 0xE482656D EQ PUSH2 0x108 JUMPI JUMPDEST PUSH0 PUSH0 REVERT JUMPDEST PUSH2 0x73 PUSH1 0x4 DUP1 CALLDATASIZE SUB DUP2 ADD SWAP1 PUSH2 0x6E SWAP2 SWAP1 PUSH2 0x572 JUMP JUMPDEST PUSH2 0x124 JUMP JUMPDEST PUSH1 0x40 MLOAD PUSH2 0x80 SWAP2 SWAP1 PUSH2 0x610 JUMP JUMPDEST PUSH1 0x40 MLOAD DUP1 SWAP2 SUB SWAP1 RETURN JUMPDEST PUSH2 0x91 PUSH2 0x141 JUMP JUMPDEST PUSH1 0x40 MLOAD PUSH2 0x9E SWAP2 SWAP1 PUSH2 0x638 JUMP JUMPDEST PUSH1 0x40 MLOAD DUP1 SWAP2 SUB SWAP1 RETURN JUMPDEST PUSH2 0xC1 PUSH1 0x4 DUP1 CALLDATASIZE SUB DUP2 ADD SWAP1 PUSH2 0xBC SWAP2 SWAP1 PUSH2 0x572 JUMP JUMPDEST PUSH2 0x165 JUMP JUMPDEST PUSH1 0x40 MLOAD PUSH2 0xCE SWAP2 SWAP1 PUSH2 0x697 JUMP JUMPDEST PUSH1 0x40 MLOAD DUP1 SWAP2 SUB SWAP1 RETURN JUMPDEST PUSH2 0xF1 PUSH1 0x4 DUP1 CALLDATASIZE SUB DUP2 ADD SWAP1 PUSH2 0xEC SWAP2 SWAP1 PUSH2 0x572 JUMP JUMPDEST PUSH2 0x182 JUMP JUMPDEST PUSH1 0x40 MLOAD PUSH2 0xFF SWAP3 SWAP2 SWAP1 PUSH2 0x841 JUMP JUMPDEST PUSH1 0x40 MLOAD DUP1 SWAP2 SUB SWAP1 RETURN JUMPDEST PUSH2 0x122 PUSH1 0x4 DUP1 CALLDATASIZE SUB DUP2 ADD SWAP1 PUSH2 0x11D SWAP2 SWAP1 PUSH2 0x9EF JUMP JUMPDEST PUSH2 0x3EC JUMP JUMPDEST STOP JUMPDEST PUSH1 0x3 PUSH1 0x20 MSTORE DUP1 PUSH0 MSTORE PUSH1 0x40 PUSH0 KECCAK256 PUSH0 SWAP2 POP SLOAD SWAP1 PUSH2 0x100 EXP SWAP1 DIV PUSH1 0xFF AND DUP2 JUMP JUMPDEST PUSH0 PUSH0 SWAP1 SLOAD SWAP1 PUSH2 0x100 EXP SWAP1 DIV PUSH20 0xFFFFFFFFFFFFFFFFFFFFFFFFFFFFFFFFFFFFFFFF AND DUP2 JUMP JUMPDEST PUSH1 0x2 PUSH1 0x20 MSTORE DUP1 PUSH0 MSTORE PUSH1 0x40 PUSH0 KECCAK256 PUSH0 SWAP2 POP SLOAD SWAP1 PUSH2 0x100 EXP SWAP1 DIV PUSH1 0xFF AND DUP2 JUMP JUMPDEST PUSH1 0x1 PUSH1 0x20 MSTORE DUP1 PUSH0 MSTORE PUSH1 0x40 PUSH0 KECCAK256 PUSH0 SWAP2 POP SWAP1 POP DUP1 PUSH0 ADD PUSH1 0x40 MLOAD DUP1 PUSH1 0x80 ADD PUSH1 0x40 MSTORE SWAP1 DUP2 PUSH0 DUP3 ADD DUP1 SLOAD PUSH2 0x1B0 SWAP1 PUSH2 0xAB8 JUMP JUMPDEST DUP1 PUSH1 0x1F ADD PUSH1 0x20 DUP1 SWAP2 DIV MUL PUSH1 0x20 ADD PUSH1 0x40 MLOAD SWAP1 DUP2 ADD PUSH1 0x40 MSTORE DUP1 SWAP3 SWAP2 SWAP1 DUP2 DUP2 MSTORE PUSH1 0x20 ADD DUP3 DUP1 SLOAD PUSH2 0x1DC SWAP1 PUSH2 0xAB8 JUMP JUMPDEST DUP1 ISZERO PUSH2 0x227 JUMPI DUP1 PUSH1 0x1F LT PUSH2 0x1FE JUMPI PUSH2 0x100 DUP1 DUP4 SLOAD DIV MUL DUP4 MSTORE SWAP2 PUSH1 0x20 ADD SWAP2 PUSH2 0x227 JUMP JUMPDEST DUP3 ADD SWAP2 SWAP1 PUSH0 MSTORE PUSH1 0x20 PUSH0 KECCAK256 SWAP1 JUMPDEST DUP2 SLOAD DUP2 MSTORE SWAP1 PUSH1 0x1 ADD SWAP1 PUSH1 0x20 ADD DUP1 DUP4 GT PUSH2 0x20A JUMPI DUP3 SWAP1 SUB PUSH1 0x1F AND DUP3 ADD SWAP2 JUMPDEST POP POP POP POP POP DUP2 MSTORE PUSH1 0x20 ADD PUSH1 0x1 DUP3 ADD SLOAD DUP2 MSTORE PUSH1 0x20 ADD PUSH1 0x2 DUP3 ADD PUSH0 SWAP1 SLOAD SWAP1 PUSH2 0x100 EXP SWAP1 DIV PUSH1 0xFF AND PUSH1 0x1 DUP2 GT ISZERO PUSH2 0x25E JUMPI PUSH2 0x25D PUSH2 0x59D JUMP JUMPDEST JUMPDEST PUSH1 0x1 DUP2 GT ISZERO PUSH2 0x270 JUMPI PUSH2 0x26F PUSH2 0x59D JUMP JUMPDEST JUMPDEST DUP2 MSTORE PUSH1 0x20 ADD PUSH1 0x3 DUP3 ADD DUP1 SLOAD PUSH2 0x284 SWAP1 PUSH2 0xAB8 JUMP JUMPDEST DUP1 PUSH1 0x1F ADD PUSH1 0x20 DUP1 SWAP2 DIV MUL PUSH1 0x20 ADD PUSH1 0x40 MLOAD SWAP1 DUP2 ADD PUSH1 0x40 MSTORE DUP1 SWAP3 SWAP2 SWAP1 DUP2 DUP2 MSTORE PUSH1 0x20 ADD DUP3 DUP1 SLOAD PUSH2 0x2B0 SWAP1 PUSH2 0xAB8 JUMP JUMPDEST DUP1 ISZERO PUSH2 0x2FB JUMPI DUP1 PUSH1 0x1F LT PUSH2 0x2D2 JUMPI PUSH2 0x100 DUP1 DUP4 SLOAD DIV MUL DUP4 MSTORE SWAP2 PUSH1 0x20 ADD SWAP2 PUSH2 0x2FB JUMP JUMPDEST DUP3 ADD SWAP2 SWAP1 PUSH0 MSTORE PUSH1 0x20 PUSH0 KECCAK256 SWAP1 JUMPDEST DUP2 SLOAD DUP2 MSTORE SWAP1 PUSH1 0x1 ADD SWAP1 PUSH1 0x20 ADD DUP1 DUP4 GT PUSH2 0x2DE JUMPI DUP3 SWAP1 SUB PUSH1 0x1F AND DUP3 ADD SWAP2 JUMPDEST POP POP POP POP POP DUP2 MSTORE POP POP SWAP1 DUP1 PUSH1 0x4 ADD PUSH1 0x40 MLOAD DUP1 PUSH1 0x60 ADD PUSH1 0x40 MSTORE SWAP1 DUP2 PUSH0 DUP3 ADD PUSH0 SWAP1 SLOAD SWAP1 PUSH2 0x100 EXP SWAP1 DIV PUSH1 0xFF AND PUSH1 0x2 DUP2 GT ISZERO PUSH2 0x337 JUMPI PUSH2 0x336 PUSH2 0x59D JUMP JUMPDEST JUMPDEST PUSH1 0x2 DUP2 GT ISZERO PUSH2 0x349 JUMPI PUSH2 0x348 PUSH2 0x59D JUMP JUMPDEST JUMPDEST DUP2 MSTORE PUSH1 0x20 ADD PUSH1 0x1 DUP3 ADD DUP1 SLOAD PUSH2 0x35D SWAP1 PUSH2 0xAB8 JUMP JUMPDEST DUP1 PUSH1 0x1F ADD PUSH1 0x20 DUP1 SWAP2 DIV MUL PUSH1 0x20 ADD PUSH1 0x40 MLOAD SWAP1 DUP2 ADD PUSH1 0x40 MSTORE DUP1 SWAP3 SWAP2 SWAP1 DUP2 DUP2 MSTORE PUSH1 0x20 ADD DUP3 DUP1 SLOAD PUSH2 0x389 SWAP1 PUSH2 0xAB8 JUMP JUMPDEST DUP1 ISZERO PUSH2 0x3D4 JUMPI DUP1 PUSH1 0x1F LT PUSH2 0x3AB JUMPI PUSH2 0x100 DUP1 DUP4 SLOAD DIV MUL DUP4 MSTORE SWAP2 PUSH1 0x20 ADD SWAP2 PUSH2 0x3D4 JUMP JUMPDEST DUP3 ADD SWAP2 SWAP1 PUSH0 MSTORE PUSH1 0x20 PUSH0 KECCAK256 SWAP1 JUMPDEST DUP2 SLOAD DUP2 MSTORE SWAP1 PUSH1 0x1 ADD SWAP1 PUSH1 0x20 ADD DUP1 DUP4 GT PUSH2 0x3B7 JUMPI DUP3 SWAP1 SUB PUSH1 0x1F AND DUP3 ADD SWAP2 JUMPDEST POP POP POP POP POP DUP2 MSTORE PUSH1 0x20 ADD PUSH1 0x2 DUP3 ADD SLOAD DUP2 MSTORE POP POP SWAP1 POP DUP3 JUMP JUMPDEST PUSH1 0x40 MLOAD DUP1 PUSH1 0x80 ADD PUSH1 0x40 MSTORE DUP1 DUP6 DUP2 MSTORE PUSH1 0x20 ADD DUP4 DUP2 MSTORE PUSH1 0x20 ADD DUP5 PUSH1 0x1 DUP2 GT ISZERO PUSH2 0x416 JUMPI PUSH2 0x415 PUSH2 0x59D JUMP JUMPDEST JUMPDEST DUP2 MSTORE PUSH1 0x20 ADD DUP3 DUP2 MSTORE POP PUSH1 0x1 PUSH0 CALLER PUSH20 0xFFFFFFFFFFFFFFFFFFFFFFFFFFFFFFFFFFFFFFFF AND PUSH20 0xFFFFFFFFFFFFFFFFFFFFFFFFFFFFFFFFFFFFFFFF AND DUP2 MSTORE PUSH1 0x20 ADD SWAP1 DUP2 MSTORE PUSH1 0x20 ADD PUSH0 KECCAK256 PUSH0 ADD PUSH0 DUP3 ADD MLOAD DUP2 PUSH0 ADD SWAP1 DUP2 PUSH2 0x471 SWAP2 SWAP1 PUSH2 0xC88 JUMP JUMPDEST POP PUSH1 0x20 DUP3 ADD MLOAD DUP2 PUSH1 0x1 ADD SSTORE PUSH1 0x40 DUP3 ADD MLOAD DUP2 PUSH1 0x2 ADD PUSH0 PUSH2 0x100 EXP DUP2 SLOAD DUP2 PUSH1 0xFF MUL NOT AND SWAP1 DUP4 PUSH1 0x1 DUP2 GT ISZERO PUSH2 0x4A6 JUMPI PUSH2 0x4A5 PUSH2 0x59D JUMP JUMPDEST JUMPDEST MUL OR SWAP1 SSTORE POP PUSH1 0x60 DUP3 ADD MLOAD DUP2 PUSH1 0x3 ADD SWAP1 DUP2 PUSH2 0x4C0 SWAP2 SWAP1 PUSH2 0xC88 JUMP JUMPDEST POP SWAP1 POP POP PUSH32 0xB578F66E00DD5CE37B5EB9655026C617E4051D69A28C6F3145B3DAC4F34AB985 DUP5 DUP4 DUP6 DUP5 PUSH1 0x40 MLOAD PUSH2 0x4F9 SWAP5 SWAP4 SWAP3 SWAP2 SWAP1 PUSH2 0xDAE JUMP JUMPDEST PUSH1 0x40 MLOAD DUP1 SWAP2 SUB SWAP1 LOG1 POP POP POP POP JUMP JUMPDEST PUSH0 PUSH1 0x40 MLOAD SWAP1 POP SWAP1 JUMP JUMPDEST PUSH0 PUSH0 REVERT JUMPDEST PUSH0 PUSH0 REVERT JUMPDEST PUSH0 PUSH20 0xFFFFFFFFFFFFFFFFFFFFFFFFFFFFFFFFFFFFFFFF DUP3 AND SWAP1 POP SWAP2 SWAP1 POP JUMP JUMPDEST PUSH0 PUSH2 0x541 DUP3 PUSH2 0x518 JUMP JUMPDEST SWAP1 POP SWAP2 SWAP1 POP JUMP JUMPDEST PUSH2 0x551 DUP2 PUSH2 0x537 JUMP JUMPDEST DUP2 EQ PUSH2 0x55B JUMPI PUSH0 PUSH0 REVERT JUMPDEST POP JUMP JUMPDEST PUSH0 DUP2 CALLDATALOAD SWAP1 POP PUSH2 0x56C DUP2 PUSH2 0x548 JUMP JUMPDEST SWAP3 SWAP2 POP POP JUMP JUMPDEST PUSH0 PUSH1 0x20 DUP3 DUP5 SUB SLT ISZERO PUSH2 0x587 JUMPI PUSH2 0x586 PUSH2 0x510 JUMP JUMPDEST JUMPDEST PUSH0 PUSH2 0x594 DUP5 DUP3 DUP6 ADD PUSH2 0x55E JUMP JUMPDEST SWAP2 POP POP SWAP3 SWAP2 POP POP JUMP JUMPDEST PUSH32 0x4E487B7100000000000000000000000000000000000000000000000000000000 PUSH0 MSTORE PUSH1 0x21 PUSH1 0x4 MSTORE PUSH1 0x24 PUSH0 REVERT JUMPDEST PUSH1 0x2 DUP2 LT PUSH2 0x5DB JUMPI PUSH2 0x5DA PUSH2 0x59D JUMP JUMPDEST JUMPDEST POP JUMP JUMPDEST PUSH0 DUP2 SWAP1 POP PUSH2 0x5EB DUP3 PUSH2 0x5CA JUMP JUMPDEST SWAP2 SWAP1 POP JUMP JUMPDEST PUSH0 PUSH2 0x5FA DUP3 PUSH2 0x5DE JUMP JUMPDEST SWAP1 POP SWAP2 SWAP1 POP JUMP JUMPDEST PUSH2 0x60A DUP2 PUSH2 0x5F0 JUMP JUMPDEST DUP3 MSTORE POP POP JUMP JUMPDEST PUSH0 PUSH1 0x20 DUP3 ADD SWAP1 POP PUSH2 0x623 PUSH0 DUP4 ADD DUP5 PUSH2 0x601 JUMP JUMPDEST SWAP3 SWAP2 POP POP JUMP JUMPDEST PUSH2 0x632 DUP2 PUSH2 0x537 JUMP JUMPDEST DUP3 MSTORE POP POP JUMP JUMPDEST PUSH0 PUSH1 0x20 DUP3 ADD SWAP1 POP PUSH2 0x64B PUSH0 DUP4 ADD DUP5 PUSH2 0x629 JUMP JUMPDEST SWAP3 SWAP2 POP POP JUMP JUMPDEST PUSH1 0x3 DUP2 LT PUSH2 0x662 JUMPI PUSH2 0x661 PUSH2 0x59D JUMP JUMPDEST JUMPDEST POP JUMP JUMPDEST PUSH0 DUP2 SWAP1 POP PUSH2 0x672 DUP3 PUSH2 0x651 JUMP JUMPDEST SWAP2 SWAP1 POP JUMP JUMPDEST PUSH0 PUSH2 0x681 DUP3 PUSH2 0x665 JUMP JUMPDEST SWAP1 POP SWAP2 SWAP1 POP JUMP JUMPDEST PUSH2 0x691 DUP2 PUSH2 0x677 JUMP JUMPDEST DUP3 MSTORE POP POP JUMP JUMPDEST PUSH0 PUSH1 0x20 DUP3 ADD SWAP1 POP PUSH2 0x6AA PUSH0 DUP4 ADD DUP5 PUSH2 0x688 JUMP JUMPDEST SWAP3 SWAP2 POP POP JUMP JUMPDEST PUSH0 DUP2 MLOAD SWAP1 POP SWAP2 SWAP1 POP JUMP JUMPDEST PUSH0 DUP3 DUP3 MSTORE PUSH1 0x20 DUP3 ADD SWAP1 POP SWAP3 SWAP2 POP POP JUMP JUMPDEST DUP3 DUP2 DUP4 MCOPY PUSH0 DUP4 DUP4 ADD MSTORE POP POP POP JUMP JUMPDEST PUSH0 PUSH1 0x1F NOT PUSH1 0x1F DUP4 ADD AND SWAP1 POP SWAP2 SWAP1 POP JUMP JUMPDEST PUSH0 PUSH2 0x6F2 DUP3 PUSH2 0x6B0 JUMP JUMPDEST PUSH2 0x6FC DUP2 DUP6 PUSH2 0x6BA JUMP JUMPDEST SWAP4 POP PUSH2 0x70C DUP2 DUP6 PUSH1 0x20 DUP7 ADD PUSH2 0x6CA JUMP JUMPDEST PUSH2 0x715 DUP2 PUSH2 0x6D8 JUMP JUMPDEST DUP5 ADD SWAP2 POP POP SWAP3 SWAP2 POP POP JUMP JUMPDEST PUSH0 DUP2 SWAP1 POP SWAP2 SWAP1 POP JUMP JUMPDEST PUSH2 0x732 DUP2 PUSH2 0x720 JUMP JUMPDEST DUP3 MSTORE POP POP JUMP JUMPDEST PUSH2 0x741 DUP2 PUSH2 0x5F0 JUMP JUMPDEST DUP3 MSTORE POP POP JUMP JUMPDEST PUSH0 PUSH1 0x80 DUP4 ADD PUSH0 DUP4 ADD MLOAD DUP5 DUP3 SUB PUSH0 DUP7 ADD MSTORE PUSH2 0x761 DUP3 DUP3 PUSH2 0x6E8 JUMP JUMPDEST SWAP2 POP POP PUSH1 0x20 DUP4 ADD MLOAD PUSH2 0x776 PUSH1 0x20 DUP7 ADD DUP3 PUSH2 0x729 JUMP JUMPDEST POP PUSH1 0x40 DUP4 ADD MLOAD PUSH2 0x789 PUSH1 0x40 DUP7 ADD DUP3 PUSH2 0x738 JUMP JUMPDEST POP PUSH1 0x60 DUP4 ADD MLOAD DUP5 DUP3 SUB PUSH1 0x60 DUP7 ADD MSTORE PUSH2 0x7A1 DUP3 DUP3 PUSH2 0x6E8 JUMP JUMPDEST SWAP2 POP POP DUP1 SWAP2 POP POP SWAP3 SWAP2 POP POP JUMP JUMPDEST PUSH1 0x3 DUP2 LT PUSH2 0x7BF JUMPI PUSH2 0x7BE PUSH2 0x59D JUMP JUMPDEST JUMPDEST POP JUMP JUMPDEST PUSH0 DUP2 SWAP1 POP PUSH2 0x7CF DUP3 PUSH2 0x7AE JUMP JUMPDEST SWAP2 SWAP1 POP JUMP JUMPDEST PUSH0 PUSH2 0x7DE DUP3 PUSH2 0x7C2 JUMP JUMPDEST SWAP1 POP SWAP2 SWAP1 POP JUMP JUMPDEST PUSH2 0x7EE DUP2 PUSH2 0x7D4 JUMP JUMPDEST DUP3 MSTORE POP POP JUMP JUMPDEST PUSH0 PUSH1 0x60 DUP4 ADD PUSH0 DUP4 ADD MLOAD PUSH2 0x809 PUSH0 DUP7 ADD DUP3 PUSH2 0x7E5 JUMP JUMPDEST POP PUSH1 0x20 DUP4 ADD MLOAD DUP5 DUP3 SUB PUSH1 0x20 DUP7 ADD MSTORE PUSH2 0x821 DUP3 DUP3 PUSH2 0x6E8 JUMP JUMPDEST SWAP2 POP POP PUSH1 0x40 DUP4 ADD MLOAD PUSH2 0x836 PUSH1 0x40 DUP7 ADD DUP3 PUSH2 0x729 JUMP JUMPDEST POP DUP1 SWAP2 POP POP SWAP3 SWAP2 POP POP JUMP JUMPDEST PUSH0 PUSH1 0x40 DUP3 ADD SWAP1 POP DUP2 DUP2 SUB PUSH0 DUP4 ADD MSTORE PUSH2 0x859 DUP2 DUP6 PUSH2 0x747 JUMP JUMPDEST SWAP1 POP DUP2 DUP2 SUB PUSH1 0x20 DUP4 ADD MSTORE PUSH2 0x86D DUP2 DUP5 PUSH2 0x7F4 JUMP JUMPDEST SWAP1 POP SWAP4 SWAP3 POP POP POP JUMP JUMPDEST PUSH0 PUSH0 REVERT JUMPDEST PUSH0 PUSH0 REVERT JUMPDEST PUSH32 0x4E487B7100000000000000000000000000000000000000000000000000000000 PUSH0 MSTORE PUSH1 0x41 PUSH1 0x4 MSTORE PUSH1 0x24 PUSH0 REVERT JUMPDEST PUSH2 0x8B4 DUP3 PUSH2 0x6D8 JUMP JUMPDEST DUP2 ADD DUP2 DUP2 LT PUSH8 0xFFFFFFFFFFFFFFFF DUP3 GT OR ISZERO PUSH2 0x8D3 JUMPI PUSH2 0x8D2 PUSH2 0x87E JUMP JUMPDEST JUMPDEST DUP1 PUSH1 0x40 MSTORE POP POP POP JUMP JUMPDEST PUSH0 PUSH2 0x8E5 PUSH2 0x507 JUMP JUMPDEST SWAP1 POP PUSH2 0x8F1 DUP3 DUP3 PUSH2 0x8AB JUMP JUMPDEST SWAP2 SWAP1 POP JUMP JUMPDEST PUSH0 PUSH8 0xFFFFFFFFFFFFFFFF DUP3 GT ISZERO PUSH2 0x910 JUMPI PUSH2 0x90F PUSH2 0x87E JUMP JUMPDEST JUMPDEST PUSH2 0x919 DUP3 PUSH2 0x6D8 JUMP JUMPDEST SWAP1 POP PUSH1 0x20 DUP2 ADD SWAP1 POP SWAP2 SWAP1 POP JUMP JUMPDEST DUP3 DUP2 DUP4 CALLDATACOPY PUSH0 DUP4 DUP4 ADD MSTORE POP POP POP JUMP JUMPDEST PUSH0 PUSH2 0x946 PUSH2 0x941 DUP5 PUSH2 0x8F6 JUMP JUMPDEST PUSH2 0x8DC JUMP JUMPDEST SWAP1 POP DUP3 DUP2 MSTORE PUSH1 0x20 DUP2 ADD DUP5 DUP5 DUP5 ADD GT ISZERO PUSH2 0x962 JUMPI PUSH2 0x961 PUSH2 0x87A JUMP JUMPDEST JUMPDEST PUSH2 0x96D DUP5 DUP3 DUP6 PUSH2 0x926 JUMP JUMPDEST POP SWAP4 SWAP3 POP POP POP JUMP JUMPDEST PUSH0 DUP3 PUSH1 0x1F DUP4 ADD SLT PUSH2 0x989 JUMPI PUSH2 0x988 PUSH2 0x876 JUMP JUMPDEST JUMPDEST DUP2 CALLDATALOAD PUSH2 0x999 DUP5 DUP3 PUSH1 0x20 DUP7 ADD PUSH2 0x934 JUMP JUMPDEST SWAP2 POP POP SWAP3 SWAP2 POP POP JUMP JUMPDEST PUSH1 0x2 DUP2 LT PUSH2 0x9AE JUMPI PUSH0 PUSH0 REVERT JUMPDEST POP JUMP JUMPDEST PUSH0 DUP2 CALLDATALOAD SWAP1 POP PUSH2 0x9BF DUP2 PUSH2 0x9A2 JUMP JUMPDEST SWAP3 SWAP2 POP POP JUMP JUMPDEST PUSH2 0x9CE DUP2 PUSH2 0x720 JUMP JUMPDEST DUP2 EQ PUSH2 0x9D8 JUMPI PUSH0 PUSH0 REVERT JUMPDEST POP JUMP JUMPDEST PUSH0 DUP2 CALLDATALOAD SWAP1 POP PUSH2 0x9E9 DUP2 PUSH2 0x9C5 JUMP JUMPDEST SWAP3 SWAP2 POP POP JUMP JUMPDEST PUSH0 PUSH0 PUSH0 PUSH0 PUSH1 0x80 DUP6 DUP8 SUB SLT ISZERO PUSH2 0xA07 JUMPI PUSH2 0xA06 PUSH2 0x510 JUMP JUMPDEST JUMPDEST PUSH0 DUP6 ADD CALLDATALOAD PUSH8 0xFFFFFFFFFFFFFFFF DUP2 GT ISZERO PUSH2 0xA24 JUMPI PUSH2 0xA23 PUSH2 0x514 JUMP JUMPDEST JUMPDEST PUSH2 0xA30 DUP8 DUP3 DUP9 ADD PUSH2 0x975 JUMP JUMPDEST SWAP5 POP POP PUSH1 0x20 PUSH2 0xA41 DUP8 DUP3 DUP9 ADD PUSH2 0x9B1 JUMP JUMPDEST SWAP4 POP POP PUSH1 0x40 PUSH2 0xA52 DUP8 DUP3 DUP9 ADD PUSH2 0x9DB JUMP JUMPDEST SWAP3 POP POP PUSH1 0x60 DUP6 ADD CALLDATALOAD PUSH8 0xFFFFFFFFFFFFFFFF DUP2 GT ISZERO PUSH2 0xA73 JUMPI PUSH2 0xA72 PUSH2 0x514 JUMP JUMPDEST JUMPDEST PUSH2 0xA7F DUP8 DUP3 DUP9 ADD PUSH2 0x975 JUMP JUMPDEST SWAP2 POP POP SWAP3 SWAP6 SWAP2 SWAP5 POP SWAP3 POP JUMP JUMPDEST PUSH32 0x4E487B7100000000000000000000000000000000000000000000000000000000 PUSH0 MSTORE PUSH1 0x22 PUSH1 0x4 MSTORE PUSH1 0x24 PUSH0 REVERT JUMPDEST PUSH0 PUSH1 0x2 DUP3 DIV SWAP1 POP PUSH1 0x1 DUP3 AND DUP1 PUSH2 0xACF JUMPI PUSH1 0x7F DUP3 AND SWAP2 POP JUMPDEST PUSH1 0x20 DUP3 LT DUP2 SUB PUSH2 0xAE2 JUMPI PUSH2 0xAE1 PUSH2 0xA8B JUMP JUMPDEST JUMPDEST POP SWAP2 SWAP1 POP JUMP JUMPDEST PUSH0 DUP2 SWAP1 POP DUP2 PUSH0 MSTORE PUSH1 0x20 PUSH0 KECCAK256 SWAP1 POP SWAP2 SWAP1 POP JUMP JUMPDEST PUSH0 PUSH1 0x20 PUSH1 0x1F DUP4 ADD DIV SWAP1 POP SWAP2 SWAP1 POP JUMP JUMPDEST PUSH0 DUP3 DUP3 SHL SWAP1 POP SWAP3 SWAP2 POP POP JUMP JUMPDEST PUSH0 PUSH1 0x8 DUP4 MUL PUSH2 0xB44 PUSH32 0xFFFFFFFFFFFFFFFFFFFFFFFFFFFFFFFFFFFFFFFFFFFFFFFFFFFFFFFFFFFFFFFF DUP3 PUSH2 0xB09 JUMP JUMPDEST PUSH2 0xB4E DUP7 DUP4 PUSH2 0xB09 JUMP JUMPDEST SWAP6 POP DUP1 NOT DUP5 AND SWAP4 POP DUP1 DUP7 AND DUP5 OR SWAP3 POP POP POP SWAP4 SWAP3 POP POP POP JUMP JUMPDEST PUSH0 DUP2 SWAP1 POP SWAP2 SWAP1 POP JUMP JUMPDEST PUSH0 PUSH2 0xB89 PUSH2 0xB84 PUSH2 0xB7F DUP5 PUSH2 0x720 JUMP JUMPDEST PUSH2 0xB66 JUMP JUMPDEST PUSH2 0x720 JUMP JUMPDEST SWAP1 POP SWAP2 SWAP1 POP JUMP JUMPDEST PUSH0 DUP2 SWAP1 POP SWAP2 SWAP1 POP JUMP JUMPDEST PUSH2 0xBA2 DUP4 PUSH2 0xB6F JUMP JUMPDEST PUSH2 0xBB6 PUSH2 0xBAE DUP3 PUSH2 0xB90 JUMP JUMPDEST DUP5 DUP5 SLOAD PUSH2 0xB15 JUMP JUMPDEST DUP3 SSTORE POP POP POP POP JUMP JUMPDEST PUSH0 PUSH0 SWAP1 POP SWAP1 JUMP JUMPDEST PUSH2 0xBCD PUSH2 0xBBE JUMP JUMPDEST PUSH2 0xBD8 DUP2 DUP5 DUP5 PUSH2 0xB99 JUMP JUMPDEST POP POP POP JUMP JUMPDEST JUMPDEST DUP2 DUP2 LT ISZERO PUSH2 0xBFB JUMPI PUSH2 0xBF0 PUSH0 DUP3 PUSH2 0xBC5 JUMP JUMPDEST PUSH1 0x1 DUP2 ADD SWAP1 POP PUSH2 0xBDE JUMP JUMPDEST POP POP JUMP JUMPDEST PUSH1 0x1F DUP3 GT ISZERO PUSH2 0xC40 JUMPI PUSH2 0xC11 DUP2 PUSH2 0xAE8 JUMP JUMPDEST PUSH2 0xC1A DUP5 PUSH2 0xAFA JUMP JUMPDEST DUP2 ADD PUSH1 0x20 DUP6 LT ISZERO PUSH2 0xC29 JUMPI DUP2 SWAP1 POP JUMPDEST PUSH2 0xC3D PUSH2 0xC35 DUP6 PUSH2 0xAFA JUMP JUMPDEST DUP4 ADD DUP3 PUSH2 0xBDD JUMP JUMPDEST POP POP JUMPDEST POP POP POP JUMP JUMPDEST PUSH0 DUP3 DUP3 SHR SWAP1 POP SWAP3 SWAP2 POP POP JUMP JUMPDEST PUSH0 PUSH2 0xC60 PUSH0 NOT DUP5 PUSH1 0x8 MUL PUSH2 0xC45 JUMP JUMPDEST NOT DUP1 DUP4 AND SWAP2 POP POP SWAP3 SWAP2 POP POP JUMP JUMPDEST PUSH0 PUSH2 0xC78 DUP4 DUP4 PUSH2 0xC51 JUMP JUMPDEST SWAP2 POP DUP3 PUSH1 0x2 MUL DUP3 OR SWAP1 POP SWAP3 SWAP2 POP POP JUMP JUMPDEST PUSH2 0xC91 DUP3 PUSH2 0x6B0 JUMP JUMPDEST PUSH8 0xFFFFFFFFFFFFFFFF DUP2 GT ISZERO PUSH2 0xCAA JUMPI PUSH2 0xCA9 PUSH2 0x87E JUMP JUMPDEST JUMPDEST PUSH2 0xCB4 DUP3 SLOAD PUSH2 0xAB8 JUMP JUMPDEST PUSH2 0xCBF DUP3 DUP3 DUP6 PUSH2 0xBFF JUMP JUMPDEST PUSH0 PUSH1 0x20 SWAP1 POP PUSH1 0x1F DUP4 GT PUSH1 0x1 DUP2 EQ PUSH2 0xCF0 JUMPI PUSH0 DUP5 ISZERO PUSH2 0xCDE JUMPI DUP3 DUP8 ADD MLOAD SWAP1 POP JUMPDEST PUSH2 0xCE8 DUP6 DUP3 PUSH2 0xC6D JUMP JUMPDEST DUP7 SSTORE POP PUSH2 0xD4F JUMP JUMPDEST PUSH1 0x1F NOT DUP5 AND PUSH2 0xCFE DUP7 PUSH2 0xAE8 JUMP JUMPDEST PUSH0 JUMPDEST DUP3 DUP2 LT ISZERO PUSH2 0xD25 JUMPI DUP5 DUP10 ADD MLOAD DUP3 SSTORE PUSH1 0x1 DUP3 ADD SWAP2 POP PUSH1 0x20 DUP6 ADD SWAP5 POP PUSH1 0x20 DUP2 ADD SWAP1 POP PUSH2 0xD00 JUMP JUMPDEST DUP7 DUP4 LT ISZERO PUSH2 0xD42 JUMPI DUP5 DUP10 ADD MLOAD PUSH2 0xD3E PUSH1 0x1F DUP10 AND DUP3 PUSH2 0xC51 JUMP JUMPDEST DUP4 SSTORE POP JUMPDEST PUSH1 0x1 PUSH1 0x2 DUP9 MUL ADD DUP9 SSTORE POP POP POP JUMPDEST POP POP POP POP POP POP JUMP JUMPDEST PUSH0 DUP3 DUP3 MSTORE PUSH1 0x20 DUP3 ADD SWAP1 POP SWAP3 SWAP2 POP POP JUMP JUMPDEST PUSH0 PUSH2 0xD71 DUP3 PUSH2 0x6B0 JUMP JUMPDEST PUSH2 0xD7B DUP2 DUP6 PUSH2 0xD57 JUMP JUMPDEST SWAP4 POP PUSH2 0xD8B DUP2 DUP6 PUSH1 0x20 DUP7 ADD PUSH2 0x6CA JUMP JUMPDEST PUSH2 0xD94 DUP2 PUSH2 0x6D8 JUMP JUMPDEST DUP5 ADD SWAP2 POP POP SWAP3 SWAP2 POP POP JUMP JUMPDEST PUSH2 0xDA8 DUP2 PUSH2 0x720 JUMP JUMPDEST DUP3 MSTORE POP POP JUMP JUMPDEST PUSH0 PUSH1 0x80 DUP3 ADD SWAP1 POP DUP2 DUP2 SUB PUSH0 DUP4 ADD MSTORE PUSH2 0xDC6 DUP2 DUP8 PUSH2 0xD67 JUMP JUMPDEST SWAP1 POP PUSH2 0xDD5 PUSH1 0x20 DUP4 ADD DUP7 PUSH2 0xD9F JUMP JUMPDEST PUSH2 0xDE2 PUSH1 0x40 DUP4 ADD DUP6 PUSH2 0x601 JUMP JUMPDEST DUP2 DUP2 SUB PUSH1 0x60 DUP4 ADD MSTORE PUSH2 0xDF4 DUP2 DUP5 PUSH2 0xD67 JUMP JUMPDEST SWAP1 POP SWAP6 SWAP5 POP POP POP POP POP JUMP INVALID LOG2 PUSH5 0x6970667358 0x22 SLT KECCAK256 GAS 0x29 DIV 0xB7 OR 0xC7 0xEF 0xD2 ORIGIN SWAP16 0x4B LOG4 0xC0 SGT 0xA9 0x25 PUSH31 0x9199467EE28BBBEE870E96431978B064736F6C634300081F00330000000000 "
				},
				"gasEstimates": {
					"creation": {
						"codeDepositCost": "727400",
						"executionCost": "25022",
						"totalCost": "752422"
					},
					"external": {
						"genders(address)": "2899",
						"owner()": "2507",
						"roles(address)": "2943",
						"submitData(string,uint8,uint256,string)": "infinite",
						"users(address)": "infinite"
					}
				},
				"methodIdentifiers": {
					"genders(address)": "07d2a101",
					"owner()": "8da5cb5b",
					"roles(address)": "99374642",
					"submitData(string,uint8,uint256,string)": "e482656d",
					"users(address)": "a87430ba"
				}
			},
			"storageLayout": {
				"storage": [
					{
						"astId": 3,
						"contract": "AdminControlledRegistry.sol:AdminControlledRegistry",
						"label": "owner",
						"offset": 0,
						"slot": "0",
						"type": "t_address"
					},
					{
						"astId": 53,
						"contract": "AdminControlledRegistry.sol:AdminControlledRegistry",
						"label": "users",
						"offset": 0,
						"slot": "1",
						"type": "t_mapping(t_address,t_struct(User)44_storage)"
					},
					{
						"astId": 58,
						"contract": "AdminControlledRegistry.sol:AdminControlledRegistry",
						"label": "roles",
						"offset": 0,
						"slot": "2",
						"type": "t_mapping(t_address,t_enum(Role)48)"
					},
					{
						"astId": 63,
						"contract": "AdminControlledRegistry.sol:AdminControlledRegistry",
						"label": "genders",
						"offset": 0,
						"slot": "3",
						"type": "t_mapping(t_address,t_enum(Gender)19)"
					}
				],
				"types": {
					"t_address": {
						"encoding": "inplace",
						"label": "address",
						"numberOfBytes": "20"
					},
					"t_enum(Gender)19": {
						"encoding": "inplace",
						"label": "enum AdminControlledRegistry.Gender",
						"numberOfBytes": "1"
					},
					"t_enum(RequestType)16": {
						"encoding": "inplace",
						"label": "enum AdminControlledRegistry.RequestType",
						"numberOfBytes": "1"
					},
					"t_enum(Role)48": {
						"encoding": "inplace",
						"label": "enum AdminControlledRegistry.Role",
						"numberOfBytes": "1"
					},
					"t_mapping(t_address,t_enum(Gender)19)": {
						"encoding": "mapping",
						"key": "t_address",
						"label": "mapping(address => enum AdminControlledRegistry.Gender)",
						"numberOfBytes": "32",
						"value": "t_enum(Gender)19"
					},
					"t_mapping(t_address,t_enum(Role)48)": {
						"encoding": "mapping",
						"key": "t_address",
						"label": "mapping(address => enum AdminControlledRegistry.Role)",
						"numberOfBytes": "32",
						"value": "t_enum(Role)48"
					},
					"t_mapping(t_address,t_struct(User)44_storage)": {
						"encoding": "mapping",
						"key": "t_address",
						"label": "mapping(address => struct AdminControlledRegistry.User)",
						"numberOfBytes": "32",
						"value": "t_struct(User)44_storage"
					},
					"t_string_storage": {
						"encoding": "bytes",
						"label": "string",
						"numberOfBytes": "32"
					},
					"t_struct(RegistrationDetails)37_storage": {
						"encoding": "inplace",
						"label": "struct AdminControlledRegistry.RegistrationDetails",
						"members": [
							{
								"astId": 32,
								"contract": "AdminControlledRegistry.sol:AdminControlledRegistry",
								"label": "typeRequest",
								"offset": 0,
								"slot": "0",
								"type": "t_enum(RequestType)16"
							},
							{
								"astId": 34,
								"contract": "AdminControlledRegistry.sol:AdminControlledRegistry",
								"label": "purpose",
								"offset": 0,
								"slot": "1",
								"type": "t_string_storage"
							},
							{
								"astId": 36,
								"contract": "AdminControlledRegistry.sol:AdminControlledRegistry",
								"label": "idN",
								"offset": 0,
								"slot": "2",
								"type": "t_uint256"
							}
						],
						"numberOfBytes": "96"
					},
					"t_struct(User)44_storage": {
						"encoding": "inplace",
						"label": "struct AdminControlledRegistry.User",
						"members": [
							{
								"astId": 40,
								"contract": "AdminControlledRegistry.sol:AdminControlledRegistry",
								"label": "userInformation",
								"offset": 0,
								"slot": "0",
								"type": "t_struct(UserInformation)29_storage"
							},
							{
								"astId": 43,
								"contract": "AdminControlledRegistry.sol:AdminControlledRegistry",
								"label": "regDetails",
								"offset": 0,
								"slot": "4",
								"type": "t_struct(RegistrationDetails)37_storage"
							}
						],
						"numberOfBytes": "224"
					},
					"t_struct(UserInformation)29_storage": {
						"encoding": "inplace",
						"label": "struct AdminControlledRegistry.UserInformation",
						"members": [
							{
								"astId": 21,
								"contract": "AdminControlledRegistry.sol:AdminControlledRegistry",
								"label": "fullName",
								"offset": 0,
								"slot": "0",
								"type": "t_string_storage"
							},
							{
								"astId": 23,
								"contract": "AdminControlledRegistry.sol:AdminControlledRegistry",
								"label": "YOB",
								"offset": 0,
								"slot": "1",
								"type": "t_uint256"
							},
							{
								"astId": 26,
								"contract": "AdminControlledRegistry.sol:AdminControlledRegistry",
								"label": "gender",
								"offset": 0,
								"slot": "2",
								"type": "t_enum(Gender)19"
							},
							{
								"astId": 28,
								"contract": "AdminControlledRegistry.sol:AdminControlledRegistry",
								"label": "emailAddress",
								"offset": 0,
								"slot": "3",
								"type": "t_string_storage"
							}
						],
						"numberOfBytes": "128"
					},
					"t_uint256": {
						"encoding": "inplace",
						"label": "uint256",
						"numberOfBytes": "32"
					}
				}
			},
			"userdoc": {
				"kind": "user",
				"methods": {},
				"version": 1
			}
		}
	}
}