{
	"W3day3.sol": {
		"ProfileModifier": {
			"abi": [
				{
					"inputs": [],
					"stateMutability": "nonpayable",
					"type": "constructor"
				},
				{
					"inputs": [],
					"name": "admin",
					"outputs": [],
					"stateMutability": "nonpayable",
					"type": "function"
				},
				{
					"inputs": [],
					"name": "canDelete",
					"outputs": [
						{
							"internalType": "bool",
							"name": "",
							"type": "bool"
						}
					],
					"stateMutability": "view",
					"type": "function"
				},
				{
					"inputs": [],
					"name": "deployer",
					"outputs": [
						{
							"internalType": "address",
							"name": "",
							"type": "address"
						}
					],
					"stateMutability": "view",
					"type": "function"
				},
				{
					"inputs": [
						{
							"internalType": "address",
							"name": "",
							"type": "address"
						}
					],
					"name": "roles",
					"outputs": [
						{
							"internalType": "enum ProfileModifier.Role",
							"name": "",
							"type": "uint8"
						}
					],
					"stateMutability": "view",
					"type": "function"
				},
				{
					"inputs": [
						{
							"internalType": "address",
							"name": "_addr",
							"type": "address"
						}
					],
					"name": "sackAdmin",
					"outputs": [],
					"stateMutability": "nonpayable",
					"type": "function"
				},
				{
					"inputs": [
						{
							"internalType": "address",
							"name": "_addr",
							"type": "address"
						}
					],
					"name": "setAdmin",
					"outputs": [],
					"stateMutability": "payable",
					"type": "function"
				},
				{
					"inputs": [
						{
							"internalType": "uint256",
							"name": "amount",
							"type": "uint256"
						}
					],
					"name": "transfer",
					"outputs": [
						{
							"internalType": "uint256",
							"name": "",
							"type": "uint256"
						}
					],
					"stateMutability": "payable",
					"type": "function"
				},
				{
					"inputs": [
						{
							"internalType": "uint256",
							"name": "amount",
							"type": "uint256"
						}
					],
					"name": "withdraw",
					"outputs": [],
					"stateMutability": "payable",
					"type": "function"
				}
			],
			"devdoc": {
				"kind": "dev",
				"methods": {},
				"version": 1
			},
			"evm": {
				"assembly": "    /* \"W3day3.sol\":240:1437  contract ProfileModifier {... */\n  mstore(0x40, 0x80)\n    /* \"W3day3.sol\":437:491  constructor (){... */\n  callvalue\n  dup1\n  iszero\n  tag_1\n  jumpi\n  revert(0x00, 0x00)\ntag_1:\n  pop\n    /* \"W3day3.sol\":473:483  msg.sender */\n  caller\n    /* \"W3day3.sol\":462:470  deployer */\n  0x00\n  0x00\n    /* \"W3day3.sol\":462:483  deployer = msg.sender */\n  0x0100\n  exp\n  dup2\n  sload\n  dup2\n  0xffffffffffffffffffffffffffffffffffffffff\n  mul\n  not\n  and\n  swap1\n  dup4\n  0xffffffffffffffffffffffffffffffffffffffff\n  and\n  mul\n  or\n  swap1\n  sstore\n  pop\n    /* \"W3day3.sol\":240:1437  contract ProfileModifier {... */\n  dataSize(sub_0)\n  dup1\n  dataOffset(sub_0)\n  0x00\n  codecopy\n  0x00\n  return\nstop\n\nsub_0: assembly {\n        /* \"W3day3.sol\":240:1437  contract ProfileModifier {... */\n      mstore(0x40, 0x80)\n      jumpi(tag_1, lt(calldatasize, 0x04))\n      shr(0xe0, calldataload(0x00))\n      dup1\n      0x704b6c02\n      gt\n      tag_10\n      jumpi\n      dup1\n      0x704b6c02\n      eq\n      tag_6\n      jumpi\n      dup1\n      0x99374642\n      eq\n      tag_7\n      jumpi\n      dup1\n      0xd5f39488\n      eq\n      tag_8\n      jumpi\n      dup1\n      0xf851a440\n      eq\n      tag_9\n      jumpi\n      jump(tag_1)\n    tag_10:\n      dup1\n      0x12514bba\n      eq\n      tag_2\n      jumpi\n      dup1\n      0x246b80cf\n      eq\n      tag_3\n      jumpi\n      dup1\n      0x2e1a7d4d\n      eq\n      tag_4\n      jumpi\n      dup1\n      0x4b3582eb\n      eq\n      tag_5\n      jumpi\n    tag_1:\n      revert(0x00, 0x00)\n        /* \"W3day3.sol\":1191:1309  function transfer(uint256 amount)public payable notPaused returns(uint256){... */\n    tag_2:\n      tag_11\n      0x04\n      dup1\n      calldatasize\n      sub\n      dup2\n      add\n      swap1\n      tag_12\n      swap2\n      swap1\n      tag_13\n      jump\t// in\n    tag_12:\n      tag_14\n      jump\t// in\n    tag_11:\n      mload(0x40)\n      tag_15\n      swap2\n      swap1\n      tag_16\n      jump\t// in\n    tag_15:\n      mload(0x40)\n      dup1\n      swap2\n      sub\n      swap1\n      return\n        /* \"W3day3.sol\":407:428  bool public canDelete */\n    tag_3:\n      callvalue\n      dup1\n      iszero\n      tag_17\n      jumpi\n      revert(0x00, 0x00)\n    tag_17:\n      pop\n      tag_18\n      tag_19\n      jump\t// in\n    tag_18:\n      mload(0x40)\n      tag_20\n      swap2\n      swap1\n      tag_21\n      jump\t// in\n    tag_20:\n      mload(0x40)\n      dup1\n      swap2\n      sub\n      swap1\n      return\n        /* \"W3day3.sol\":1333:1434  function withdraw(uint256 amount) public payable minimumBalance {... */\n    tag_4:\n      tag_22\n      0x04\n      dup1\n      calldatasize\n      sub\n      dup2\n      add\n      swap1\n      tag_23\n      swap2\n      swap1\n      tag_13\n      jump\t// in\n    tag_23:\n      tag_24\n      jump\t// in\n    tag_22:\n      stop\n        /* \"W3day3.sol\":994:1091  function sackAdmin(address _addr) public onlyAdmin{... */\n    tag_5:\n      callvalue\n      dup1\n      iszero\n      tag_25\n      jumpi\n      revert(0x00, 0x00)\n    tag_25:\n      pop\n      tag_26\n      0x04\n      dup1\n      calldatasize\n      sub\n      dup2\n      add\n      swap1\n      tag_27\n      swap2\n      swap1\n      tag_28\n      jump\t// in\n    tag_27:\n      tag_29\n      jump\t// in\n    tag_26:\n      stop\n        /* \"W3day3.sol\":870:986  function setAdmin(address _addr) public onlyAdmin payable minimumBalance{... */\n    tag_6:\n      tag_30\n      0x04\n      dup1\n      calldatasize\n      sub\n      dup2\n      add\n      swap1\n      tag_31\n      swap2\n      swap1\n      tag_28\n      jump\t// in\n    tag_31:\n      tag_32\n      jump\t// in\n    tag_30:\n      stop\n        /* \"W3day3.sol\":363:400  mapping(address => Role) public roles */\n    tag_7:\n      callvalue\n      dup1\n      iszero\n      tag_33\n      jumpi\n      revert(0x00, 0x00)\n    tag_33:\n      pop\n      tag_34\n      0x04\n      dup1\n      calldatasize\n      sub\n      dup2\n      add\n      swap1\n      tag_35\n      swap2\n      swap1\n      tag_28\n      jump\t// in\n    tag_35:\n      tag_36\n      jump\t// in\n    tag_34:\n      mload(0x40)\n      tag_37\n      swap2\n      swap1\n      tag_38\n      jump\t// in\n    tag_37:\n      mload(0x40)\n      dup1\n      swap2\n      sub\n      swap1\n      return\n        /* \"W3day3.sol\":333:356  address public deployer */\n    tag_8:\n      callvalue\n      dup1\n      iszero\n      tag_39\n      jumpi\n      revert(0x00, 0x00)\n    tag_39:\n      pop\n      tag_40\n      tag_41\n      jump\t// in\n    tag_40:\n      mload(0x40)\n      tag_42\n      swap2\n      swap1\n      tag_43\n      jump\t// in\n    tag_42:\n      mload(0x40)\n      dup1\n      swap2\n      sub\n      swap1\n      return\n        /* \"W3day3.sol\":1099:1167  function admin() public onlyAdmin{... */\n    tag_9:\n      callvalue\n      dup1\n      iszero\n      tag_44\n      jumpi\n      revert(0x00, 0x00)\n    tag_44:\n      pop\n      tag_45\n      tag_46\n      jump\t// in\n    tag_45:\n      stop\n        /* \"W3day3.sol\":1191:1309  function transfer(uint256 amount)public payable notPaused returns(uint256){... */\n    tag_14:\n        /* \"W3day3.sol\":1257:1264  uint256 */\n      0x00\n        /* \"W3day3.sol\":693:694  0 */\n      0x00\n        /* \"W3day3.sol\":681:690  msg.value */\n      callvalue\n        /* \"W3day3.sol\":681:694  msg.value > 0 */\n      gt\n        /* \"W3day3.sol\":673:714  require(msg.value > 0, \"Transfer paused\") */\n      tag_48\n      jumpi\n      mload(0x40)\n      0x08c379a000000000000000000000000000000000000000000000000000000000\n      dup2\n      mstore\n      0x04\n      add\n      tag_49\n      swap1\n      tag_50\n      jump\t// in\n    tag_49:\n      mload(0x40)\n      dup1\n      swap2\n      sub\n      swap1\n      revert\n    tag_48:\n        /* \"W3day3.sol\":1292:1301  msg.value */\n      callvalue\n        /* \"W3day3.sol\":1282:1301  amount -= msg.value */\n      dup3\n      tag_52\n      swap2\n      swap1\n      tag_53\n      jump\t// in\n    tag_52:\n      swap2\n      pop\n      dup2\n        /* \"W3day3.sol\":1275:1301  return amount -= msg.value */\n      swap1\n      pop\n        /* \"W3day3.sol\":1191:1309  function transfer(uint256 amount)public payable notPaused returns(uint256){... */\n      swap2\n      swap1\n      pop\n      jump\t// out\n        /* \"W3day3.sol\":407:428  bool public canDelete */\n    tag_19:\n      0x02\n      0x00\n      swap1\n      sload\n      swap1\n      0x0100\n      exp\n      swap1\n      div\n      0xff\n      and\n      dup2\n      jump\t// out\n        /* \"W3day3.sol\":1333:1434  function withdraw(uint256 amount) public payable minimumBalance {... */\n    tag_24:\n        /* \"W3day3.sol\":796:797  0 */\n      0x00\n        /* \"W3day3.sol\":784:793  msg.value */\n      callvalue\n        /* \"W3day3.sol\":784:797  msg.value > 0 */\n      gt\n        /* \"W3day3.sol\":776:819  require(msg.value > 0, \"Insufficient fund\") */\n      tag_55\n      jumpi\n      mload(0x40)\n      0x08c379a000000000000000000000000000000000000000000000000000000000\n      dup2\n      mstore\n      0x04\n      add\n      tag_56\n      swap1\n      tag_57\n      jump\t// in\n    tag_56:\n      mload(0x40)\n      dup1\n      swap2\n      sub\n      swap1\n      revert\n    tag_55:\n        /* \"W3day3.sol\":1417:1426  msg.value */\n      callvalue\n        /* \"W3day3.sol\":1408:1426  amount -=msg.value */\n      dup2\n      tag_59\n      swap2\n      swap1\n      tag_53\n      jump\t// in\n    tag_59:\n      swap1\n      pop\n        /* \"W3day3.sol\":1333:1434  function withdraw(uint256 amount) public payable minimumBalance {... */\n      pop\n      jump\t// out\n        /* \"W3day3.sol\":994:1091  function sackAdmin(address _addr) public onlyAdmin{... */\n    tag_29:\n        /* \"W3day3.sol\":554:567  Role.notAdmin */\n      0x00\n        /* \"W3day3.sol\":533:567  roles[msg.sender] == Role.notAdmin */\n      0x01\n      dup2\n      gt\n      iszero\n      tag_61\n      jumpi\n      tag_62\n      tag_63\n      jump\t// in\n    tag_62:\n    tag_61:\n        /* \"W3day3.sol\":533:538  roles */\n      0x01\n        /* \"W3day3.sol\":533:550  roles[msg.sender] */\n      0x00\n        /* \"W3day3.sol\":539:549  msg.sender */\n      caller\n        /* \"W3day3.sol\":533:550  roles[msg.sender] */\n      0xffffffffffffffffffffffffffffffffffffffff\n      and\n      0xffffffffffffffffffffffffffffffffffffffff\n      and\n      dup2\n      mstore\n      0x20\n      add\n      swap1\n      dup2\n      mstore\n      0x20\n      add\n      0x00\n      keccak256\n      0x00\n      swap1\n      sload\n      swap1\n      0x0100\n      exp\n      swap1\n      div\n      0xff\n      and\n        /* \"W3day3.sol\":533:567  roles[msg.sender] == Role.notAdmin */\n      0x01\n      dup2\n      gt\n      iszero\n      tag_64\n      jumpi\n      tag_65\n      tag_63\n      jump\t// in\n    tag_65:\n    tag_64:\n      sub\n        /* \"W3day3.sol\":530:617  if(roles[msg.sender] == Role.notAdmin){... */\n      tag_66\n      jumpi\n        /* \"W3day3.sol\":583:605  revert(\"Not an Admin\") */\n      mload(0x40)\n      0x08c379a000000000000000000000000000000000000000000000000000000000\n      dup2\n      mstore\n      0x04\n      add\n      tag_67\n      swap1\n      tag_68\n      jump\t// in\n    tag_67:\n      mload(0x40)\n      dup1\n      swap2\n      sub\n      swap1\n      revert\n        /* \"W3day3.sol\":530:617  if(roles[msg.sender] == Role.notAdmin){... */\n    tag_66:\n        /* \"W3day3.sol\":1070:1083  Role.notAdmin */\n      0x00\n        /* \"W3day3.sol\":1055:1060  roles */\n      0x01\n        /* \"W3day3.sol\":1055:1067  roles[_addr] */\n      0x00\n        /* \"W3day3.sol\":1061:1066  _addr */\n      dup4\n        /* \"W3day3.sol\":1055:1067  roles[_addr] */\n      0xffffffffffffffffffffffffffffffffffffffff\n      and\n      0xffffffffffffffffffffffffffffffffffffffff\n      and\n      dup2\n      mstore\n      0x20\n      add\n      swap1\n      dup2\n      mstore\n      0x20\n      add\n      0x00\n      keccak256\n      0x00\n        /* \"W3day3.sol\":1055:1083  roles[_addr] = Role.notAdmin */\n      0x0100\n      exp\n      dup2\n      sload\n      dup2\n      0xff\n      mul\n      not\n      and\n      swap1\n      dup4\n      0x01\n      dup2\n      gt\n      iszero\n      tag_70\n      jumpi\n      tag_71\n      tag_63\n      jump\t// in\n    tag_71:\n    tag_70:\n      mul\n      or\n      swap1\n      sstore\n      pop\n        /* \"W3day3.sol\":994:1091  function sackAdmin(address _addr) public onlyAdmin{... */\n      pop\n      jump\t// out\n        /* \"W3day3.sol\":870:986  function setAdmin(address _addr) public onlyAdmin payable minimumBalance{... */\n    tag_32:\n        /* \"W3day3.sol\":554:567  Role.notAdmin */\n      0x00\n        /* \"W3day3.sol\":533:567  roles[msg.sender] == Role.notAdmin */\n      0x01\n      dup2\n      gt\n      iszero\n      tag_73\n      jumpi\n      tag_74\n      tag_63\n      jump\t// in\n    tag_74:\n    tag_73:\n        /* \"W3day3.sol\":533:538  roles */\n      0x01\n        /* \"W3day3.sol\":533:550  roles[msg.sender] */\n      0x00\n        /* \"W3day3.sol\":539:549  msg.sender */\n      caller\n        /* \"W3day3.sol\":533:550  roles[msg.sender] */\n      0xffffffffffffffffffffffffffffffffffffffff\n      and\n      0xffffffffffffffffffffffffffffffffffffffff\n      and\n      dup2\n      mstore\n      0x20\n      add\n      swap1\n      dup2\n      mstore\n      0x20\n      add\n      0x00\n      keccak256\n      0x00\n      swap1\n      sload\n      swap1\n      0x0100\n      exp\n      swap1\n      div\n      0xff\n      and\n        /* \"W3day3.sol\":533:567  roles[msg.sender] == Role.notAdmin */\n      0x01\n      dup2\n      gt\n      iszero\n      tag_75\n      jumpi\n      tag_76\n      tag_63\n      jump\t// in\n    tag_76:\n    tag_75:\n      sub\n        /* \"W3day3.sol\":530:617  if(roles[msg.sender] == Role.notAdmin){... */\n      tag_77\n      jumpi\n        /* \"W3day3.sol\":583:605  revert(\"Not an Admin\") */\n      mload(0x40)\n      0x08c379a000000000000000000000000000000000000000000000000000000000\n      dup2\n      mstore\n      0x04\n      add\n      tag_78\n      swap1\n      tag_68\n      jump\t// in\n    tag_78:\n      mload(0x40)\n      dup1\n      swap2\n      sub\n      swap1\n      revert\n        /* \"W3day3.sol\":530:617  if(roles[msg.sender] == Role.notAdmin){... */\n    tag_77:\n        /* \"W3day3.sol\":796:797  0 */\n      0x00\n        /* \"W3day3.sol\":784:793  msg.value */\n      callvalue\n        /* \"W3day3.sol\":784:797  msg.value > 0 */\n      gt\n        /* \"W3day3.sol\":776:819  require(msg.value > 0, \"Insufficient fund\") */\n      tag_80\n      jumpi\n      mload(0x40)\n      0x08c379a000000000000000000000000000000000000000000000000000000000\n      dup2\n      mstore\n      0x04\n      add\n      tag_81\n      swap1\n      tag_57\n      jump\t// in\n    tag_81:\n      mload(0x40)\n      dup1\n      swap2\n      sub\n      swap1\n      revert\n    tag_80:\n        /* \"W3day3.sol\":968:978  Role.Admin */\n      0x01\n        /* \"W3day3.sol\":953:958  roles */\n      dup1\n        /* \"W3day3.sol\":953:965  roles[_addr] */\n      0x00\n        /* \"W3day3.sol\":959:964  _addr */\n      dup4\n        /* \"W3day3.sol\":953:965  roles[_addr] */\n      0xffffffffffffffffffffffffffffffffffffffff\n      and\n      0xffffffffffffffffffffffffffffffffffffffff\n      and\n      dup2\n      mstore\n      0x20\n      add\n      swap1\n      dup2\n      mstore\n      0x20\n      add\n      0x00\n      keccak256\n      0x00\n        /* \"W3day3.sol\":953:978  roles[_addr] = Role.Admin */\n      0x0100\n      exp\n      dup2\n      sload\n      dup2\n      0xff\n      mul\n      not\n      and\n      swap1\n      dup4\n      0x01\n      dup2\n      gt\n      iszero\n      tag_83\n      jumpi\n      tag_84\n      tag_63\n      jump\t// in\n    tag_84:\n    tag_83:\n      mul\n      or\n      swap1\n      sstore\n      pop\n        /* \"W3day3.sol\":870:986  function setAdmin(address _addr) public onlyAdmin payable minimumBalance{... */\n      pop\n      jump\t// out\n        /* \"W3day3.sol\":363:400  mapping(address => Role) public roles */\n    tag_36:\n      mstore(0x20, 0x01)\n      dup1\n      0x00\n      mstore\n      keccak256(0x00, 0x40)\n      0x00\n      swap2\n      pop\n      sload\n      swap1\n      0x0100\n      exp\n      swap1\n      div\n      0xff\n      and\n      dup2\n      jump\t// out\n        /* \"W3day3.sol\":333:356  address public deployer */\n    tag_41:\n      0x00\n      0x00\n      swap1\n      sload\n      swap1\n      0x0100\n      exp\n      swap1\n      div\n      0xffffffffffffffffffffffffffffffffffffffff\n      and\n      dup2\n      jump\t// out\n        /* \"W3day3.sol\":1099:1167  function admin() public onlyAdmin{... */\n    tag_46:\n        /* \"W3day3.sol\":554:567  Role.notAdmin */\n      0x00\n        /* \"W3day3.sol\":533:567  roles[msg.sender] == Role.notAdmin */\n      0x01\n      dup2\n      gt\n      iszero\n      tag_86\n      jumpi\n      tag_87\n      tag_63\n      jump\t// in\n    tag_87:\n    tag_86:\n        /* \"W3day3.sol\":533:538  roles */\n      0x01\n        /* \"W3day3.sol\":533:550  roles[msg.sender] */\n      0x00\n        /* \"W3day3.sol\":539:549  msg.sender */\n      caller\n        /* \"W3day3.sol\":533:550  roles[msg.sender] */\n      0xffffffffffffffffffffffffffffffffffffffff\n      and\n      0xffffffffffffffffffffffffffffffffffffffff\n      and\n      dup2\n      mstore\n      0x20\n      add\n      swap1\n      dup2\n      mstore\n      0x20\n      add\n      0x00\n      keccak256\n      0x00\n      swap1\n      sload\n      swap1\n      0x0100\n      exp\n      swap1\n      div\n      0xff\n      and\n        /* \"W3day3.sol\":533:567  roles[msg.sender] == Role.notAdmin */\n      0x01\n      dup2\n      gt\n      iszero\n      tag_88\n      jumpi\n      tag_89\n      tag_63\n      jump\t// in\n    tag_89:\n    tag_88:\n      sub\n        /* \"W3day3.sol\":530:617  if(roles[msg.sender] == Role.notAdmin){... */\n      tag_90\n      jumpi\n        /* \"W3day3.sol\":583:605  revert(\"Not an Admin\") */\n      mload(0x40)\n      0x08c379a000000000000000000000000000000000000000000000000000000000\n      dup2\n      mstore\n      0x04\n      add\n      tag_91\n      swap1\n      tag_68\n      jump\t// in\n    tag_91:\n      mload(0x40)\n      dup1\n      swap2\n      sub\n      swap1\n      revert\n        /* \"W3day3.sol\":530:617  if(roles[msg.sender] == Role.notAdmin){... */\n    tag_90:\n        /* \"W3day3.sol\":1155:1159  true */\n      0x01\n        /* \"W3day3.sol\":1143:1152  canDelete */\n      0x02\n      0x00\n        /* \"W3day3.sol\":1143:1159  canDelete = true */\n      0x0100\n      exp\n      dup2\n      sload\n      dup2\n      0xff\n      mul\n      not\n      and\n      swap1\n      dup4\n      iszero\n      iszero\n      mul\n      or\n      swap1\n      sstore\n      pop\n        /* \"W3day3.sol\":1099:1167  function admin() public onlyAdmin{... */\n      jump\t// out\n        /* \"#utility.yul\":88:205   */\n    tag_94:\n        /* \"#utility.yul\":197:198   */\n      0x00\n        /* \"#utility.yul\":194:195   */\n      0x00\n        /* \"#utility.yul\":187:199   */\n      revert\n        /* \"#utility.yul\":334:411   */\n    tag_96:\n        /* \"#utility.yul\":371:378   */\n      0x00\n        /* \"#utility.yul\":400:405   */\n      dup2\n        /* \"#utility.yul\":389:405   */\n      swap1\n      pop\n        /* \"#utility.yul\":334:411   */\n      swap2\n      swap1\n      pop\n      jump\t// out\n        /* \"#utility.yul\":417:539   */\n    tag_97:\n        /* \"#utility.yul\":490:514   */\n      tag_125\n        /* \"#utility.yul\":508:513   */\n      dup2\n        /* \"#utility.yul\":490:514   */\n      tag_96\n      jump\t// in\n    tag_125:\n        /* \"#utility.yul\":483:488   */\n      dup2\n        /* \"#utility.yul\":480:515   */\n      eq\n        /* \"#utility.yul\":470:533   */\n      tag_126\n      jumpi\n        /* \"#utility.yul\":529:530   */\n      0x00\n        /* \"#utility.yul\":526:527   */\n      0x00\n        /* \"#utility.yul\":519:531   */\n      revert\n        /* \"#utility.yul\":470:533   */\n    tag_126:\n        /* \"#utility.yul\":417:539   */\n      pop\n      jump\t// out\n        /* \"#utility.yul\":545:684   */\n    tag_98:\n        /* \"#utility.yul\":591:596   */\n      0x00\n        /* \"#utility.yul\":629:635   */\n      dup2\n        /* \"#utility.yul\":616:636   */\n      calldataload\n        /* \"#utility.yul\":607:636   */\n      swap1\n      pop\n        /* \"#utility.yul\":645:678   */\n      tag_128\n        /* \"#utility.yul\":672:677   */\n      dup2\n        /* \"#utility.yul\":645:678   */\n      tag_97\n      jump\t// in\n    tag_128:\n        /* \"#utility.yul\":545:684   */\n      swap3\n      swap2\n      pop\n      pop\n      jump\t// out\n        /* \"#utility.yul\":690:1019   */\n    tag_13:\n        /* \"#utility.yul\":749:755   */\n      0x00\n        /* \"#utility.yul\":798:800   */\n      0x20\n        /* \"#utility.yul\":786:795   */\n      dup3\n        /* \"#utility.yul\":777:784   */\n      dup5\n        /* \"#utility.yul\":773:796   */\n      sub\n        /* \"#utility.yul\":769:801   */\n      slt\n        /* \"#utility.yul\":766:885   */\n      iszero\n      tag_130\n      jumpi\n        /* \"#utility.yul\":804:883   */\n      tag_131\n      tag_94\n      jump\t// in\n    tag_131:\n        /* \"#utility.yul\":766:885   */\n    tag_130:\n        /* \"#utility.yul\":924:925   */\n      0x00\n        /* \"#utility.yul\":949:1002   */\n      tag_132\n        /* \"#utility.yul\":994:1001   */\n      dup5\n        /* \"#utility.yul\":985:991   */\n      dup3\n        /* \"#utility.yul\":974:983   */\n      dup6\n        /* \"#utility.yul\":970:992   */\n      add\n        /* \"#utility.yul\":949:1002   */\n      tag_98\n      jump\t// in\n    tag_132:\n        /* \"#utility.yul\":939:1002   */\n      swap2\n      pop\n        /* \"#utility.yul\":895:1012   */\n      pop\n        /* \"#utility.yul\":690:1019   */\n      swap3\n      swap2\n      pop\n      pop\n      jump\t// out\n        /* \"#utility.yul\":1025:1143   */\n    tag_99:\n        /* \"#utility.yul\":1112:1136   */\n      tag_134\n        /* \"#utility.yul\":1130:1135   */\n      dup2\n        /* \"#utility.yul\":1112:1136   */\n      tag_96\n      jump\t// in\n    tag_134:\n        /* \"#utility.yul\":1107:1110   */\n      dup3\n        /* \"#utility.yul\":1100:1137   */\n      mstore\n        /* \"#utility.yul\":1025:1143   */\n      pop\n      pop\n      jump\t// out\n        /* \"#utility.yul\":1149:1371   */\n    tag_16:\n        /* \"#utility.yul\":1242:1246   */\n      0x00\n        /* \"#utility.yul\":1280:1282   */\n      0x20\n        /* \"#utility.yul\":1269:1278   */\n      dup3\n        /* \"#utility.yul\":1265:1283   */\n      add\n        /* \"#utility.yul\":1257:1283   */\n      swap1\n      pop\n        /* \"#utility.yul\":1293:1364   */\n      tag_136\n        /* \"#utility.yul\":1361:1362   */\n      0x00\n        /* \"#utility.yul\":1350:1359   */\n      dup4\n        /* \"#utility.yul\":1346:1363   */\n      add\n        /* \"#utility.yul\":1337:1343   */\n      dup5\n        /* \"#utility.yul\":1293:1364   */\n      tag_99\n      jump\t// in\n    tag_136:\n        /* \"#utility.yul\":1149:1371   */\n      swap3\n      swap2\n      pop\n      pop\n      jump\t// out\n        /* \"#utility.yul\":1377:1467   */\n    tag_100:\n        /* \"#utility.yul\":1411:1418   */\n      0x00\n        /* \"#utility.yul\":1454:1459   */\n      dup2\n        /* \"#utility.yul\":1447:1460   */\n      iszero\n        /* \"#utility.yul\":1440:1461   */\n      iszero\n        /* \"#utility.yul\":1429:1461   */\n      swap1\n      pop\n        /* \"#utility.yul\":1377:1467   */\n      swap2\n      swap1\n      pop\n      jump\t// out\n        /* \"#utility.yul\":1473:1582   */\n    tag_101:\n        /* \"#utility.yul\":1554:1575   */\n      tag_139\n        /* \"#utility.yul\":1569:1574   */\n      dup2\n        /* \"#utility.yul\":1554:1575   */\n      tag_100\n      jump\t// in\n    tag_139:\n        /* \"#utility.yul\":1549:1552   */\n      dup3\n        /* \"#utility.yul\":1542:1576   */\n      mstore\n        /* \"#utility.yul\":1473:1582   */\n      pop\n      pop\n      jump\t// out\n        /* \"#utility.yul\":1588:1798   */\n    tag_21:\n        /* \"#utility.yul\":1675:1679   */\n      0x00\n        /* \"#utility.yul\":1713:1715   */\n      0x20\n        /* \"#utility.yul\":1702:1711   */\n      dup3\n        /* \"#utility.yul\":1698:1716   */\n      add\n        /* \"#utility.yul\":1690:1716   */\n      swap1\n      pop\n        /* \"#utility.yul\":1726:1791   */\n      tag_141\n        /* \"#utility.yul\":1788:1789   */\n      0x00\n        /* \"#utility.yul\":1777:1786   */\n      dup4\n        /* \"#utility.yul\":1773:1790   */\n      add\n        /* \"#utility.yul\":1764:1770   */\n      dup5\n        /* \"#utility.yul\":1726:1791   */\n      tag_101\n      jump\t// in\n    tag_141:\n        /* \"#utility.yul\":1588:1798   */\n      swap3\n      swap2\n      pop\n      pop\n      jump\t// out\n        /* \"#utility.yul\":1804:1930   */\n    tag_102:\n        /* \"#utility.yul\":1841:1848   */\n      0x00\n        /* \"#utility.yul\":1881:1923   */\n      0xffffffffffffffffffffffffffffffffffffffff\n        /* \"#utility.yul\":1874:1879   */\n      dup3\n        /* \"#utility.yul\":1870:1924   */\n      and\n        /* \"#utility.yul\":1859:1924   */\n      swap1\n      pop\n        /* \"#utility.yul\":1804:1930   */\n      swap2\n      swap1\n      pop\n      jump\t// out\n        /* \"#utility.yul\":1936:2032   */\n    tag_103:\n        /* \"#utility.yul\":1973:1980   */\n      0x00\n        /* \"#utility.yul\":2002:2026   */\n      tag_144\n        /* \"#utility.yul\":2020:2025   */\n      dup3\n        /* \"#utility.yul\":2002:2026   */\n      tag_102\n      jump\t// in\n    tag_144:\n        /* \"#utility.yul\":1991:2026   */\n      swap1\n      pop\n        /* \"#utility.yul\":1936:2032   */\n      swap2\n      swap1\n      pop\n      jump\t// out\n        /* \"#utility.yul\":2038:2160   */\n    tag_104:\n        /* \"#utility.yul\":2111:2135   */\n      tag_146\n        /* \"#utility.yul\":2129:2134   */\n      dup2\n        /* \"#utility.yul\":2111:2135   */\n      tag_103\n      jump\t// in\n    tag_146:\n        /* \"#utility.yul\":2104:2109   */\n      dup2\n        /* \"#utility.yul\":2101:2136   */\n      eq\n        /* \"#utility.yul\":2091:2154   */\n      tag_147\n      jumpi\n        /* \"#utility.yul\":2150:2151   */\n      0x00\n        /* \"#utility.yul\":2147:2148   */\n      0x00\n        /* \"#utility.yul\":2140:2152   */\n      revert\n        /* \"#utility.yul\":2091:2154   */\n    tag_147:\n        /* \"#utility.yul\":2038:2160   */\n      pop\n      jump\t// out\n        /* \"#utility.yul\":2166:2305   */\n    tag_105:\n        /* \"#utility.yul\":2212:2217   */\n      0x00\n        /* \"#utility.yul\":2250:2256   */\n      dup2\n        /* \"#utility.yul\":2237:2257   */\n      calldataload\n        /* \"#utility.yul\":2228:2257   */\n      swap1\n      pop\n        /* \"#utility.yul\":2266:2299   */\n      tag_149\n        /* \"#utility.yul\":2293:2298   */\n      dup2\n        /* \"#utility.yul\":2266:2299   */\n      tag_104\n      jump\t// in\n    tag_149:\n        /* \"#utility.yul\":2166:2305   */\n      swap3\n      swap2\n      pop\n      pop\n      jump\t// out\n        /* \"#utility.yul\":2311:2640   */\n    tag_28:\n        /* \"#utility.yul\":2370:2376   */\n      0x00\n        /* \"#utility.yul\":2419:2421   */\n      0x20\n        /* \"#utility.yul\":2407:2416   */\n      dup3\n        /* \"#utility.yul\":2398:2405   */\n      dup5\n        /* \"#utility.yul\":2394:2417   */\n      sub\n        /* \"#utility.yul\":2390:2422   */\n      slt\n        /* \"#utility.yul\":2387:2506   */\n      iszero\n      tag_151\n      jumpi\n        /* \"#utility.yul\":2425:2504   */\n      tag_152\n      tag_94\n      jump\t// in\n    tag_152:\n        /* \"#utility.yul\":2387:2506   */\n    tag_151:\n        /* \"#utility.yul\":2545:2546   */\n      0x00\n        /* \"#utility.yul\":2570:2623   */\n      tag_153\n        /* \"#utility.yul\":2615:2622   */\n      dup5\n        /* \"#utility.yul\":2606:2612   */\n      dup3\n        /* \"#utility.yul\":2595:2604   */\n      dup6\n        /* \"#utility.yul\":2591:2613   */\n      add\n        /* \"#utility.yul\":2570:2623   */\n      tag_105\n      jump\t// in\n    tag_153:\n        /* \"#utility.yul\":2560:2623   */\n      swap2\n      pop\n        /* \"#utility.yul\":2516:2633   */\n      pop\n        /* \"#utility.yul\":2311:2640   */\n      swap3\n      swap2\n      pop\n      pop\n      jump\t// out\n        /* \"#utility.yul\":2646:2826   */\n    tag_63:\n        /* \"#utility.yul\":2694:2771   */\n      0x4e487b7100000000000000000000000000000000000000000000000000000000\n        /* \"#utility.yul\":2691:2692   */\n      0x00\n        /* \"#utility.yul\":2684:2772   */\n      mstore\n        /* \"#utility.yul\":2791:2795   */\n      0x21\n        /* \"#utility.yul\":2788:2789   */\n      0x04\n        /* \"#utility.yul\":2781:2796   */\n      mstore\n        /* \"#utility.yul\":2815:2819   */\n      0x24\n        /* \"#utility.yul\":2812:2813   */\n      0x00\n        /* \"#utility.yul\":2805:2820   */\n      revert\n        /* \"#utility.yul\":2832:2944   */\n    tag_106:\n        /* \"#utility.yul\":2912:2913   */\n      0x02\n        /* \"#utility.yul\":2905:2910   */\n      dup2\n        /* \"#utility.yul\":2902:2914   */\n      lt\n        /* \"#utility.yul\":2892:2938   */\n      tag_156\n      jumpi\n        /* \"#utility.yul\":2918:2936   */\n      tag_157\n      tag_63\n      jump\t// in\n    tag_157:\n        /* \"#utility.yul\":2892:2938   */\n    tag_156:\n        /* \"#utility.yul\":2832:2944   */\n      pop\n      jump\t// out\n        /* \"#utility.yul\":2950:3075   */\n    tag_107:\n        /* \"#utility.yul\":2994:3001   */\n      0x00\n        /* \"#utility.yul\":3023:3028   */\n      dup2\n        /* \"#utility.yul\":3012:3028   */\n      swap1\n      pop\n        /* \"#utility.yul\":3029:3069   */\n      tag_159\n        /* \"#utility.yul\":3063:3068   */\n      dup3\n        /* \"#utility.yul\":3029:3069   */\n      tag_106\n      jump\t// in\n    tag_159:\n        /* \"#utility.yul\":2950:3075   */\n      swap2\n      swap1\n      pop\n      jump\t// out\n        /* \"#utility.yul\":3081:3206   */\n    tag_108:\n        /* \"#utility.yul\":3136:3145   */\n      0x00\n        /* \"#utility.yul\":3169:3200   */\n      tag_161\n        /* \"#utility.yul\":3194:3199   */\n      dup3\n        /* \"#utility.yul\":3169:3200   */\n      tag_107\n      jump\t// in\n    tag_161:\n        /* \"#utility.yul\":3156:3200   */\n      swap1\n      pop\n        /* \"#utility.yul\":3081:3206   */\n      swap2\n      swap1\n      pop\n      jump\t// out\n        /* \"#utility.yul\":3212:3353   */\n    tag_109:\n        /* \"#utility.yul\":3304:3346   */\n      tag_163\n        /* \"#utility.yul\":3340:3345   */\n      dup2\n        /* \"#utility.yul\":3304:3346   */\n      tag_108\n      jump\t// in\n    tag_163:\n        /* \"#utility.yul\":3299:3302   */\n      dup3\n        /* \"#utility.yul\":3292:3347   */\n      mstore\n        /* \"#utility.yul\":3212:3353   */\n      pop\n      pop\n      jump\t// out\n        /* \"#utility.yul\":3359:3591   */\n    tag_38:\n        /* \"#utility.yul\":3457:3461   */\n      0x00\n        /* \"#utility.yul\":3495:3497   */\n      0x20\n        /* \"#utility.yul\":3484:3493   */\n      dup3\n        /* \"#utility.yul\":3480:3498   */\n      add\n        /* \"#utility.yul\":3472:3498   */\n      swap1\n      pop\n        /* \"#utility.yul\":3508:3584   */\n      tag_165\n        /* \"#utility.yul\":3581:3582   */\n      0x00\n        /* \"#utility.yul\":3570:3579   */\n      dup4\n        /* \"#utility.yul\":3566:3583   */\n      add\n        /* \"#utility.yul\":3557:3563   */\n      dup5\n        /* \"#utility.yul\":3508:3584   */\n      tag_109\n      jump\t// in\n    tag_165:\n        /* \"#utility.yul\":3359:3591   */\n      swap3\n      swap2\n      pop\n      pop\n      jump\t// out\n        /* \"#utility.yul\":3597:3715   */\n    tag_110:\n        /* \"#utility.yul\":3684:3708   */\n      tag_167\n        /* \"#utility.yul\":3702:3707   */\n      dup2\n        /* \"#utility.yul\":3684:3708   */\n      tag_103\n      jump\t// in\n    tag_167:\n        /* \"#utility.yul\":3679:3682   */\n      dup3\n        /* \"#utility.yul\":3672:3709   */\n      mstore\n        /* \"#utility.yul\":3597:3715   */\n      pop\n      pop\n      jump\t// out\n        /* \"#utility.yul\":3721:3943   */\n    tag_43:\n        /* \"#utility.yul\":3814:3818   */\n      0x00\n        /* \"#utility.yul\":3852:3854   */\n      0x20\n        /* \"#utility.yul\":3841:3850   */\n      dup3\n        /* \"#utility.yul\":3837:3855   */\n      add\n        /* \"#utility.yul\":3829:3855   */\n      swap1\n      pop\n        /* \"#utility.yul\":3865:3936   */\n      tag_169\n        /* \"#utility.yul\":3933:3934   */\n      0x00\n        /* \"#utility.yul\":3922:3931   */\n      dup4\n        /* \"#utility.yul\":3918:3935   */\n      add\n        /* \"#utility.yul\":3909:3915   */\n      dup5\n        /* \"#utility.yul\":3865:3936   */\n      tag_110\n      jump\t// in\n    tag_169:\n        /* \"#utility.yul\":3721:3943   */\n      swap3\n      swap2\n      pop\n      pop\n      jump\t// out\n        /* \"#utility.yul\":3949:4118   */\n    tag_111:\n        /* \"#utility.yul\":4033:4044   */\n      0x00\n        /* \"#utility.yul\":4067:4073   */\n      dup3\n        /* \"#utility.yul\":4062:4065   */\n      dup3\n        /* \"#utility.yul\":4055:4074   */\n      mstore\n        /* \"#utility.yul\":4107:4111   */\n      0x20\n        /* \"#utility.yul\":4102:4105   */\n      dup3\n        /* \"#utility.yul\":4098:4112   */\n      add\n        /* \"#utility.yul\":4083:4112   */\n      swap1\n      pop\n        /* \"#utility.yul\":3949:4118   */\n      swap3\n      swap2\n      pop\n      pop\n      jump\t// out\n        /* \"#utility.yul\":4124:4289   */\n    tag_112:\n        /* \"#utility.yul\":4264:4281   */\n      0x5472616e73666572207061757365640000000000000000000000000000000000\n        /* \"#utility.yul\":4260:4261   */\n      0x00\n        /* \"#utility.yul\":4252:4258   */\n      dup3\n        /* \"#utility.yul\":4248:4262   */\n      add\n        /* \"#utility.yul\":4241:4282   */\n      mstore\n        /* \"#utility.yul\":4124:4289   */\n      pop\n      jump\t// out\n        /* \"#utility.yul\":4295:4661   */\n    tag_113:\n        /* \"#utility.yul\":4437:4440   */\n      0x00\n        /* \"#utility.yul\":4458:4525   */\n      tag_173\n        /* \"#utility.yul\":4522:4524   */\n      0x0f\n        /* \"#utility.yul\":4517:4520   */\n      dup4\n        /* \"#utility.yul\":4458:4525   */\n      tag_111\n      jump\t// in\n    tag_173:\n        /* \"#utility.yul\":4451:4525   */\n      swap2\n      pop\n        /* \"#utility.yul\":4534:4627   */\n      tag_174\n        /* \"#utility.yul\":4623:4626   */\n      dup3\n        /* \"#utility.yul\":4534:4627   */\n      tag_112\n      jump\t// in\n    tag_174:\n        /* \"#utility.yul\":4652:4654   */\n      0x20\n        /* \"#utility.yul\":4647:4650   */\n      dup3\n        /* \"#utility.yul\":4643:4655   */\n      add\n        /* \"#utility.yul\":4636:4655   */\n      swap1\n      pop\n        /* \"#utility.yul\":4295:4661   */\n      swap2\n      swap1\n      pop\n      jump\t// out\n        /* \"#utility.yul\":4667:5086   */\n    tag_50:\n        /* \"#utility.yul\":4833:4837   */\n      0x00\n        /* \"#utility.yul\":4871:4873   */\n      0x20\n        /* \"#utility.yul\":4860:4869   */\n      dup3\n        /* \"#utility.yul\":4856:4874   */\n      add\n        /* \"#utility.yul\":4848:4874   */\n      swap1\n      pop\n        /* \"#utility.yul\":4920:4929   */\n      dup2\n        /* \"#utility.yul\":4914:4918   */\n      dup2\n        /* \"#utility.yul\":4910:4930   */\n      sub\n        /* \"#utility.yul\":4906:4907   */\n      0x00\n        /* \"#utility.yul\":4895:4904   */\n      dup4\n        /* \"#utility.yul\":4891:4908   */\n      add\n        /* \"#utility.yul\":4884:4931   */\n      mstore\n        /* \"#utility.yul\":4948:5079   */\n      tag_176\n        /* \"#utility.yul\":5074:5078   */\n      dup2\n        /* \"#utility.yul\":4948:5079   */\n      tag_113\n      jump\t// in\n    tag_176:\n        /* \"#utility.yul\":4940:5079   */\n      swap1\n      pop\n        /* \"#utility.yul\":4667:5086   */\n      swap2\n      swap1\n      pop\n      jump\t// out\n        /* \"#utility.yul\":5092:5272   */\n    tag_114:\n        /* \"#utility.yul\":5140:5217   */\n      0x4e487b7100000000000000000000000000000000000000000000000000000000\n        /* \"#utility.yul\":5137:5138   */\n      0x00\n        /* \"#utility.yul\":5130:5218   */\n      mstore\n        /* \"#utility.yul\":5237:5241   */\n      0x11\n        /* \"#utility.yul\":5234:5235   */\n      0x04\n        /* \"#utility.yul\":5227:5242   */\n      mstore\n        /* \"#utility.yul\":5261:5265   */\n      0x24\n        /* \"#utility.yul\":5258:5259   */\n      0x00\n        /* \"#utility.yul\":5251:5266   */\n      revert\n        /* \"#utility.yul\":5278:5472   */\n    tag_53:\n        /* \"#utility.yul\":5318:5322   */\n      0x00\n        /* \"#utility.yul\":5338:5358   */\n      tag_179\n        /* \"#utility.yul\":5356:5357   */\n      dup3\n        /* \"#utility.yul\":5338:5358   */\n      tag_96\n      jump\t// in\n    tag_179:\n        /* \"#utility.yul\":5333:5358   */\n      swap2\n      pop\n        /* \"#utility.yul\":5372:5392   */\n      tag_180\n        /* \"#utility.yul\":5390:5391   */\n      dup4\n        /* \"#utility.yul\":5372:5392   */\n      tag_96\n      jump\t// in\n    tag_180:\n        /* \"#utility.yul\":5367:5392   */\n      swap3\n      pop\n        /* \"#utility.yul\":5416:5417   */\n      dup3\n        /* \"#utility.yul\":5413:5414   */\n      dup3\n        /* \"#utility.yul\":5409:5418   */\n      sub\n        /* \"#utility.yul\":5401:5418   */\n      swap1\n      pop\n        /* \"#utility.yul\":5440:5441   */\n      dup2\n        /* \"#utility.yul\":5434:5438   */\n      dup2\n        /* \"#utility.yul\":5431:5442   */\n      gt\n        /* \"#utility.yul\":5428:5465   */\n      iszero\n      tag_181\n      jumpi\n        /* \"#utility.yul\":5445:5463   */\n      tag_182\n      tag_114\n      jump\t// in\n    tag_182:\n        /* \"#utility.yul\":5428:5465   */\n    tag_181:\n        /* \"#utility.yul\":5278:5472   */\n      swap3\n      swap2\n      pop\n      pop\n      jump\t// out\n        /* \"#utility.yul\":5478:5645   */\n    tag_115:\n        /* \"#utility.yul\":5618:5637   */\n      0x496e73756666696369656e742066756e64000000000000000000000000000000\n        /* \"#utility.yul\":5614:5615   */\n      0x00\n        /* \"#utility.yul\":5606:5612   */\n      dup3\n        /* \"#utility.yul\":5602:5616   */\n      add\n        /* \"#utility.yul\":5595:5638   */\n      mstore\n        /* \"#utility.yul\":5478:5645   */\n      pop\n      jump\t// out\n        /* \"#utility.yul\":5651:6017   */\n    tag_116:\n        /* \"#utility.yul\":5793:5796   */\n      0x00\n        /* \"#utility.yul\":5814:5881   */\n      tag_185\n        /* \"#utility.yul\":5878:5880   */\n      0x11\n        /* \"#utility.yul\":5873:5876   */\n      dup4\n        /* \"#utility.yul\":5814:5881   */\n      tag_111\n      jump\t// in\n    tag_185:\n        /* \"#utility.yul\":5807:5881   */\n      swap2\n      pop\n        /* \"#utility.yul\":5890:5983   */\n      tag_186\n        /* \"#utility.yul\":5979:5982   */\n      dup3\n        /* \"#utility.yul\":5890:5983   */\n      tag_115\n      jump\t// in\n    tag_186:\n        /* \"#utility.yul\":6008:6010   */\n      0x20\n        /* \"#utility.yul\":6003:6006   */\n      dup3\n        /* \"#utility.yul\":5999:6011   */\n      add\n        /* \"#utility.yul\":5992:6011   */\n      swap1\n      pop\n        /* \"#utility.yul\":5651:6017   */\n      swap2\n      swap1\n      pop\n      jump\t// out\n        /* \"#utility.yul\":6023:6442   */\n    tag_57:\n        /* \"#utility.yul\":6189:6193   */\n      0x00\n        /* \"#utility.yul\":6227:6229   */\n      0x20\n        /* \"#utility.yul\":6216:6225   */\n      dup3\n        /* \"#utility.yul\":6212:6230   */\n      add\n        /* \"#utility.yul\":6204:6230   */\n      swap1\n      pop\n        /* \"#utility.yul\":6276:6285   */\n      dup2\n        /* \"#utility.yul\":6270:6274   */\n      dup2\n        /* \"#utility.yul\":6266:6286   */\n      sub\n        /* \"#utility.yul\":6262:6263   */\n      0x00\n        /* \"#utility.yul\":6251:6260   */\n      dup4\n        /* \"#utility.yul\":6247:6264   */\n      add\n        /* \"#utility.yul\":6240:6287   */\n      mstore\n        /* \"#utility.yul\":6304:6435   */\n      tag_188\n        /* \"#utility.yul\":6430:6434   */\n      dup2\n        /* \"#utility.yul\":6304:6435   */\n      tag_116\n      jump\t// in\n    tag_188:\n        /* \"#utility.yul\":6296:6435   */\n      swap1\n      pop\n        /* \"#utility.yul\":6023:6442   */\n      swap2\n      swap1\n      pop\n      jump\t// out\n        /* \"#utility.yul\":6448:6610   */\n    tag_117:\n        /* \"#utility.yul\":6588:6602   */\n      0x4e6f7420616e2041646d696e0000000000000000000000000000000000000000\n        /* \"#utility.yul\":6584:6585   */\n      0x00\n        /* \"#utility.yul\":6576:6582   */\n      dup3\n        /* \"#utility.yul\":6572:6586   */\n      add\n        /* \"#utility.yul\":6565:6603   */\n      mstore\n        /* \"#utility.yul\":6448:6610   */\n      pop\n      jump\t// out\n        /* \"#utility.yul\":6616:6982   */\n    tag_118:\n        /* \"#utility.yul\":6758:6761   */\n      0x00\n        /* \"#utility.yul\":6779:6846   */\n      tag_191\n        /* \"#utility.yul\":6843:6845   */\n      0x0c\n        /* \"#utility.yul\":6838:6841   */\n      dup4\n        /* \"#utility.yul\":6779:6846   */\n      tag_111\n      jump\t// in\n    tag_191:\n        /* \"#utility.yul\":6772:6846   */\n      swap2\n      pop\n        /* \"#utility.yul\":6855:6948   */\n      tag_192\n        /* \"#utility.yul\":6944:6947   */\n      dup3\n        /* \"#utility.yul\":6855:6948   */\n      tag_117\n      jump\t// in\n    tag_192:\n        /* \"#utility.yul\":6973:6975   */\n      0x20\n        /* \"#utility.yul\":6968:6971   */\n      dup3\n        /* \"#utility.yul\":6964:6976   */\n      add\n        /* \"#utility.yul\":6957:6976   */\n      swap1\n      pop\n        /* \"#utility.yul\":6616:6982   */\n      swap2\n      swap1\n      pop\n      jump\t// out\n        /* \"#utility.yul\":6988:7407   */\n    tag_68:\n        /* \"#utility.yul\":7154:7158   */\n      0x00\n        /* \"#utility.yul\":7192:7194   */\n      0x20\n        /* \"#utility.yul\":7181:7190   */\n      dup3\n        /* \"#utility.yul\":7177:7195   */\n      add\n        /* \"#utility.yul\":7169:7195   */\n      swap1\n      pop\n        /* \"#utility.yul\":7241:7250   */\n      dup2\n        /* \"#utility.yul\":7235:7239   */\n      dup2\n        /* \"#utility.yul\":7231:7251   */\n      sub\n        /* \"#utility.yul\":7227:7228   */\n      0x00\n        /* \"#utility.yul\":7216:7225   */\n      dup4\n        /* \"#utility.yul\":7212:7229   */\n      add\n        /* \"#utility.yul\":7205:7252   */\n      mstore\n        /* \"#utility.yul\":7269:7400   */\n      tag_194\n        /* \"#utility.yul\":7395:7399   */\n      dup2\n        /* \"#utility.yul\":7269:7400   */\n      tag_118\n      jump\t// in\n    tag_194:\n        /* \"#utility.yul\":7261:7400   */\n      swap1\n      pop\n        /* \"#utility.yul\":6988:7407   */\n      swap2\n      swap1\n      pop\n      jump\t// out\n\n    auxdata: 0xa264697066735822122083a09423cb2d3ba0a26b69e872f60dbba2108c98fa98f7f6dc2158417c4e915664736f6c634300081f0033\n}\n",
				"bytecode": {
					"linkReferences": {},
					"object": "6080604052348015600e575f5ffd5b50335f5f6101000a81548173ffffffffffffffffffffffffffffffffffffffff021916908373ffffffffffffffffffffffffffffffffffffffff1602179055506109c08061005b5f395ff3fe60806040526004361061007a575f3560e01c8063704b6c021161004d578063704b6c021461011c5780639937464214610138578063d5f3948814610174578063f851a4401461019e5761007a565b806312514bba1461007e578063246b80cf146100ae5780632e1a7d4d146100d85780634b3582eb146100f4575b5f5ffd5b61009860048036038101906100939190610623565b6101b4565b6040516100a5919061065d565b60405180910390f35b3480156100b9575f5ffd5b506100c261020d565b6040516100cf9190610690565b60405180910390f35b6100f260048036038101906100ed9190610623565b61021f565b005b3480156100ff575f5ffd5b5061011a60048036038101906101159190610703565b610272565b005b61013660048036038101906101319190610703565b610388565b005b348015610143575f5ffd5b5061015e60048036038101906101599190610703565b6104e0565b60405161016b91906107a1565b60405180910390f35b34801561017f575f5ffd5b506101886104fd565b60405161019591906107c9565b60405180910390f35b3480156101a9575f5ffd5b506101b2610521565b005b5f5f34116101f7576040517f08c379a00000000000000000000000000000000000000000000000000000000081526004016101ee9061083c565b60405180910390fd5b34826102039190610887565b9150819050919050565b60025f9054906101000a900460ff1681565b5f3411610261576040517f08c379a000000000000000000000000000000000000000000000000000000000815260040161025890610904565b60405180910390fd5b348161026d9190610887565b905050565b5f60018111156102855761028461072e565b5b60015f3373ffffffffffffffffffffffffffffffffffffffff1673ffffffffffffffffffffffffffffffffffffffff1681526020019081526020015f205f9054906101000a900460ff1660018111156102e1576102e061072e565b5b03610321576040517f08c379a00000000000000000000000000000000000000000000000000000000081526004016103189061096c565b60405180910390fd5b5f60015f8373ffffffffffffffffffffffffffffffffffffffff1673ffffffffffffffffffffffffffffffffffffffff1681526020019081526020015f205f6101000a81548160ff021916908360018111156103805761037f61072e565b5b021790555050565b5f600181111561039b5761039a61072e565b5b60015f3373ffffffffffffffffffffffffffffffffffffffff1673ffffffffffffffffffffffffffffffffffffffff1681526020019081526020015f205f9054906101000a900460ff1660018111156103f7576103f661072e565b5b03610437576040517f08c379a000000000000000000000000000000000000000000000000000000000815260040161042e9061096c565b60405180910390fd5b5f3411610479576040517f08c379a000000000000000000000000000000000000000000000000000000000815260040161047090610904565b60405180910390fd5b6001805f8373ffffffffffffffffffffffffffffffffffffffff1673ffffffffffffffffffffffffffffffffffffffff1681526020019081526020015f205f6101000a81548160ff021916908360018111156104d8576104d761072e565b5b021790555050565b6001602052805f5260405f205f915054906101000a900460ff1681565b5f5f9054906101000a900473ffffffffffffffffffffffffffffffffffffffff1681565b5f60018111156105345761053361072e565b5b60015f3373ffffffffffffffffffffffffffffffffffffffff1673ffffffffffffffffffffffffffffffffffffffff1681526020019081526020015f205f9054906101000a900460ff1660018111156105905761058f61072e565b5b036105d0576040517f08c379a00000000000000000000000000000000000000000000000000000000081526004016105c79061096c565b60405180910390fd5b600160025f6101000a81548160ff021916908315150217905550565b5f5ffd5b5f819050919050565b610602816105f0565b811461060c575f5ffd5b50565b5f8135905061061d816105f9565b92915050565b5f60208284031215610638576106376105ec565b5b5f6106458482850161060f565b91505092915050565b610657816105f0565b82525050565b5f6020820190506106705f83018461064e565b92915050565b5f8115159050919050565b61068a81610676565b82525050565b5f6020820190506106a35f830184610681565b92915050565b5f73ffffffffffffffffffffffffffffffffffffffff82169050919050565b5f6106d2826106a9565b9050919050565b6106e2816106c8565b81146106ec575f5ffd5b50565b5f813590506106fd816106d9565b92915050565b5f60208284031215610718576107176105ec565b5b5f610725848285016106ef565b91505092915050565b7f4e487b71000000000000000000000000000000000000000000000000000000005f52602160045260245ffd5b6002811061076c5761076b61072e565b5b50565b5f81905061077c8261075b565b919050565b5f61078b8261076f565b9050919050565b61079b81610781565b82525050565b5f6020820190506107b45f830184610792565b92915050565b6107c3816106c8565b82525050565b5f6020820190506107dc5f8301846107ba565b92915050565b5f82825260208201905092915050565b7f5472616e736665722070617573656400000000000000000000000000000000005f82015250565b5f610826600f836107e2565b9150610831826107f2565b602082019050919050565b5f6020820190508181035f8301526108538161081a565b9050919050565b7f4e487b71000000000000000000000000000000000000000000000000000000005f52601160045260245ffd5b5f610891826105f0565b915061089c836105f0565b92508282039050818111156108b4576108b361085a565b5b92915050565b7f496e73756666696369656e742066756e640000000000000000000000000000005f82015250565b5f6108ee6011836107e2565b91506108f9826108ba565b602082019050919050565b5f6020820190508181035f83015261091b816108e2565b9050919050565b7f4e6f7420616e2041646d696e00000000000000000000000000000000000000005f82015250565b5f610956600c836107e2565b915061096182610922565b602082019050919050565b5f6020820190508181035f8301526109838161094a565b905091905056fea264697066735822122083a09423cb2d3ba0a26b69e872f60dbba2108c98fa98f7f6dc2158417c4e915664736f6c634300081f0033",
					"opcodes": "PUSH1 0x80 PUSH1 0x40 MSTORE CALLVALUE DUP1 ISZERO PUSH1 0xE JUMPI PUSH0 PUSH0 REVERT JUMPDEST POP CALLER PUSH0 PUSH0 PUSH2 0x100 EXP DUP2 SLOAD DUP2 PUSH20 0xFFFFFFFFFFFFFFFFFFFFFFFFFFFFFFFFFFFFFFFF MUL NOT AND SWAP1 DUP4 PUSH20 0xFFFFFFFFFFFFFFFFFFFFFFFFFFFFFFFFFFFFFFFF AND MUL OR SWAP1 SSTORE POP PUSH2 0x9C0 DUP1 PUSH2 0x5B PUSH0 CODECOPY PUSH0 RETURN INVALID PUSH1 0x80 PUSH1 0x40 MSTORE PUSH1 0x4 CALLDATASIZE LT PUSH2 0x7A JUMPI PUSH0 CALLDATALOAD PUSH1 0xE0 SHR DUP1 PUSH4 0x704B6C02 GT PUSH2 0x4D JUMPI DUP1 PUSH4 0x704B6C02 EQ PUSH2 0x11C JUMPI DUP1 PUSH4 0x99374642 EQ PUSH2 0x138 JUMPI DUP1 PUSH4 0xD5F39488 EQ PUSH2 0x174 JUMPI DUP1 PUSH4 0xF851A440 EQ PUSH2 0x19E JUMPI PUSH2 0x7A JUMP JUMPDEST DUP1 PUSH4 0x12514BBA EQ PUSH2 0x7E JUMPI DUP1 PUSH4 0x246B80CF EQ PUSH2 0xAE JUMPI DUP1 PUSH4 0x2E1A7D4D EQ PUSH2 0xD8 JUMPI DUP1 PUSH4 0x4B3582EB EQ PUSH2 0xF4 JUMPI JUMPDEST PUSH0 PUSH0 REVERT JUMPDEST PUSH2 0x98 PUSH1 0x4 DUP1 CALLDATASIZE SUB DUP2 ADD SWAP1 PUSH2 0x93 SWAP2 SWAP1 PUSH2 0x623 JUMP JUMPDEST PUSH2 0x1B4 JUMP JUMPDEST PUSH1 0x40 MLOAD PUSH2 0xA5 SWAP2 SWAP1 PUSH2 0x65D JUMP JUMPDEST PUSH1 0x40 MLOAD DUP1 SWAP2 SUB SWAP1 RETURN JUMPDEST CALLVALUE DUP1 ISZERO PUSH2 0xB9 JUMPI PUSH0 PUSH0 REVERT JUMPDEST POP PUSH2 0xC2 PUSH2 0x20D JUMP JUMPDEST PUSH1 0x40 MLOAD PUSH2 0xCF SWAP2 SWAP1 PUSH2 0x690 JUMP JUMPDEST PUSH1 0x40 MLOAD DUP1 SWAP2 SUB SWAP1 RETURN JUMPDEST PUSH2 0xF2 PUSH1 0x4 DUP1 CALLDATASIZE SUB DUP2 ADD SWAP1 PUSH2 0xED SWAP2 SWAP1 PUSH2 0x623 JUMP JUMPDEST PUSH2 0x21F JUMP JUMPDEST STOP JUMPDEST CALLVALUE DUP1 ISZERO PUSH2 0xFF JUMPI PUSH0 PUSH0 REVERT JUMPDEST POP PUSH2 0x11A PUSH1 0x4 DUP1 CALLDATASIZE SUB DUP2 ADD SWAP1 PUSH2 0x115 SWAP2 SWAP1 PUSH2 0x703 JUMP JUMPDEST PUSH2 0x272 JUMP JUMPDEST STOP JUMPDEST PUSH2 0x136 PUSH1 0x4 DUP1 CALLDATASIZE SUB DUP2 ADD SWAP1 PUSH2 0x131 SWAP2 SWAP1 PUSH2 0x703 JUMP JUMPDEST PUSH2 0x388 JUMP JUMPDEST STOP JUMPDEST CALLVALUE DUP1 ISZERO PUSH2 0x143 JUMPI PUSH0 PUSH0 REVERT JUMPDEST POP PUSH2 0x15E PUSH1 0x4 DUP1 CALLDATASIZE SUB DUP2 ADD SWAP1 PUSH2 0x159 SWAP2 SWAP1 PUSH2 0x703 JUMP JUMPDEST PUSH2 0x4E0 JUMP JUMPDEST PUSH1 0x40 MLOAD PUSH2 0x16B SWAP2 SWAP1 PUSH2 0x7A1 JUMP JUMPDEST PUSH1 0x40 MLOAD DUP1 SWAP2 SUB SWAP1 RETURN JUMPDEST CALLVALUE DUP1 ISZERO PUSH2 0x17F JUMPI PUSH0 PUSH0 REVERT JUMPDEST POP PUSH2 0x188 PUSH2 0x4FD JUMP JUMPDEST PUSH1 0x40 MLOAD PUSH2 0x195 SWAP2 SWAP1 PUSH2 0x7C9 JUMP JUMPDEST PUSH1 0x40 MLOAD DUP1 SWAP2 SUB SWAP1 RETURN JUMPDEST CALLVALUE DUP1 ISZERO PUSH2 0x1A9 JUMPI PUSH0 PUSH0 REVERT JUMPDEST POP PUSH2 0x1B2 PUSH2 0x521 JUMP JUMPDEST STOP JUMPDEST PUSH0 PUSH0 CALLVALUE GT PUSH2 0x1F7 JUMPI PUSH1 0x40 MLOAD PUSH32 0x8C379A000000000000000000000000000000000000000000000000000000000 DUP2 MSTORE PUSH1 0x4 ADD PUSH2 0x1EE SWAP1 PUSH2 0x83C JUMP JUMPDEST PUSH1 0x40 MLOAD DUP1 SWAP2 SUB SWAP1 REVERT JUMPDEST CALLVALUE DUP3 PUSH2 0x203 SWAP2 SWAP1 PUSH2 0x887 JUMP JUMPDEST SWAP2 POP DUP2 SWAP1 POP SWAP2 SWAP1 POP JUMP JUMPDEST PUSH1 0x2 PUSH0 SWAP1 SLOAD SWAP1 PUSH2 0x100 EXP SWAP1 DIV PUSH1 0xFF AND DUP2 JUMP JUMPDEST PUSH0 CALLVALUE GT PUSH2 0x261 JUMPI PUSH1 0x40 MLOAD PUSH32 0x8C379A000000000000000000000000000000000000000000000000000000000 DUP2 MSTORE PUSH1 0x4 ADD PUSH2 0x258 SWAP1 PUSH2 0x904 JUMP JUMPDEST PUSH1 0x40 MLOAD DUP1 SWAP2 SUB SWAP1 REVERT JUMPDEST CALLVALUE DUP2 PUSH2 0x26D SWAP2 SWAP1 PUSH2 0x887 JUMP JUMPDEST SWAP1 POP POP JUMP JUMPDEST PUSH0 PUSH1 0x1 DUP2 GT ISZERO PUSH2 0x285 JUMPI PUSH2 0x284 PUSH2 0x72E JUMP JUMPDEST JUMPDEST PUSH1 0x1 PUSH0 CALLER PUSH20 0xFFFFFFFFFFFFFFFFFFFFFFFFFFFFFFFFFFFFFFFF AND PUSH20 0xFFFFFFFFFFFFFFFFFFFFFFFFFFFFFFFFFFFFFFFF AND DUP2 MSTORE PUSH1 0x20 ADD SWAP1 DUP2 MSTORE PUSH1 0x20 ADD PUSH0 KECCAK256 PUSH0 SWAP1 SLOAD SWAP1 PUSH2 0x100 EXP SWAP1 DIV PUSH1 0xFF AND PUSH1 0x1 DUP2 GT ISZERO PUSH2 0x2E1 JUMPI PUSH2 0x2E0 PUSH2 0x72E JUMP JUMPDEST JUMPDEST SUB PUSH2 0x321 JUMPI PUSH1 0x40 MLOAD PUSH32 0x8C379A000000000000000000000000000000000000000000000000000000000 DUP2 MSTORE PUSH1 0x4 ADD PUSH2 0x318 SWAP1 PUSH2 0x96C JUMP JUMPDEST PUSH1 0x40 MLOAD DUP1 SWAP2 SUB SWAP1 REVERT JUMPDEST PUSH0 PUSH1 0x1 PUSH0 DUP4 PUSH20 0xFFFFFFFFFFFFFFFFFFFFFFFFFFFFFFFFFFFFFFFF AND PUSH20 0xFFFFFFFFFFFFFFFFFFFFFFFFFFFFFFFFFFFFFFFF AND DUP2 MSTORE PUSH1 0x20 ADD SWAP1 DUP2 MSTORE PUSH1 0x20 ADD PUSH0 KECCAK256 PUSH0 PUSH2 0x100 EXP DUP2 SLOAD DUP2 PUSH1 0xFF MUL NOT AND SWAP1 DUP4 PUSH1 0x1 DUP2 GT ISZERO PUSH2 0x380 JUMPI PUSH2 0x37F PUSH2 0x72E JUMP JUMPDEST JUMPDEST MUL OR SWAP1 SSTORE POP POP JUMP JUMPDEST PUSH0 PUSH1 0x1 DUP2 GT ISZERO PUSH2 0x39B JUMPI PUSH2 0x39A PUSH2 0x72E JUMP JUMPDEST JUMPDEST PUSH1 0x1 PUSH0 CALLER PUSH20 0xFFFFFFFFFFFFFFFFFFFFFFFFFFFFFFFFFFFFFFFF AND PUSH20 0xFFFFFFFFFFFFFFFFFFFFFFFFFFFFFFFFFFFFFFFF AND DUP2 MSTORE PUSH1 0x20 ADD SWAP1 DUP2 MSTORE PUSH1 0x20 ADD PUSH0 KECCAK256 PUSH0 SWAP1 SLOAD SWAP1 PUSH2 0x100 EXP SWAP1 DIV PUSH1 0xFF AND PUSH1 0x1 DUP2 GT ISZERO PUSH2 0x3F7 JUMPI PUSH2 0x3F6 PUSH2 0x72E JUMP JUMPDEST JUMPDEST SUB PUSH2 0x437 JUMPI PUSH1 0x40 MLOAD PUSH32 0x8C379A000000000000000000000000000000000000000000000000000000000 DUP2 MSTORE PUSH1 0x4 ADD PUSH2 0x42E SWAP1 PUSH2 0x96C JUMP JUMPDEST PUSH1 0x40 MLOAD DUP1 SWAP2 SUB SWAP1 REVERT JUMPDEST PUSH0 CALLVALUE GT PUSH2 0x479 JUMPI PUSH1 0x40 MLOAD PUSH32 0x8C379A000000000000000000000000000000000000000000000000000000000 DUP2 MSTORE PUSH1 0x4 ADD PUSH2 0x470 SWAP1 PUSH2 0x904 JUMP JUMPDEST PUSH1 0x40 MLOAD DUP1 SWAP2 SUB SWAP1 REVERT JUMPDEST PUSH1 0x1 DUP1 PUSH0 DUP4 PUSH20 0xFFFFFFFFFFFFFFFFFFFFFFFFFFFFFFFFFFFFFFFF AND PUSH20 0xFFFFFFFFFFFFFFFFFFFFFFFFFFFFFFFFFFFFFFFF AND DUP2 MSTORE PUSH1 0x20 ADD SWAP1 DUP2 MSTORE PUSH1 0x20 ADD PUSH0 KECCAK256 PUSH0 PUSH2 0x100 EXP DUP2 SLOAD DUP2 PUSH1 0xFF MUL NOT AND SWAP1 DUP4 PUSH1 0x1 DUP2 GT ISZERO PUSH2 0x4D8 JUMPI PUSH2 0x4D7 PUSH2 0x72E JUMP JUMPDEST JUMPDEST MUL OR SWAP1 SSTORE POP POP JUMP JUMPDEST PUSH1 0x1 PUSH1 0x20 MSTORE DUP1 PUSH0 MSTORE PUSH1 0x40 PUSH0 KECCAK256 PUSH0 SWAP2 POP SLOAD SWAP1 PUSH2 0x100 EXP SWAP1 DIV PUSH1 0xFF AND DUP2 JUMP JUMPDEST PUSH0 PUSH0 SWAP1 SLOAD SWAP1 PUSH2 0x100 EXP SWAP1 DIV PUSH20 0xFFFFFFFFFFFFFFFFFFFFFFFFFFFFFFFFFFFFFFFF AND DUP2 JUMP JUMPDEST PUSH0 PUSH1 0x1 DUP2 GT ISZERO PUSH2 0x534 JUMPI PUSH2 0x533 PUSH2 0x72E JUMP JUMPDEST JUMPDEST PUSH1 0x1 PUSH0 CALLER PUSH20 0xFFFFFFFFFFFFFFFFFFFFFFFFFFFFFFFFFFFFFFFF AND PUSH20 0xFFFFFFFFFFFFFFFFFFFFFFFFFFFFFFFFFFFFFFFF AND DUP2 MSTORE PUSH1 0x20 ADD SWAP1 DUP2 MSTORE PUSH1 0x20 ADD PUSH0 KECCAK256 PUSH0 SWAP1 SLOAD SWAP1 PUSH2 0x100 EXP SWAP1 DIV PUSH1 0xFF AND PUSH1 0x1 DUP2 GT ISZERO PUSH2 0x590 JUMPI PUSH2 0x58F PUSH2 0x72E JUMP JUMPDEST JUMPDEST SUB PUSH2 0x5D0 JUMPI PUSH1 0x40 MLOAD PUSH32 0x8C379A000000000000000000000000000000000000000000000000000000000 DUP2 MSTORE PUSH1 0x4 ADD PUSH2 0x5C7 SWAP1 PUSH2 0x96C JUMP JUMPDEST PUSH1 0x40 MLOAD DUP1 SWAP2 SUB SWAP1 REVERT JUMPDEST PUSH1 0x1 PUSH1 0x2 PUSH0 PUSH2 0x100 EXP DUP2 SLOAD DUP2 PUSH1 0xFF MUL NOT AND SWAP1 DUP4 ISZERO ISZERO MUL OR SWAP1 SSTORE POP JUMP JUMPDEST PUSH0 PUSH0 REVERT JUMPDEST PUSH0 DUP2 SWAP1 POP SWAP2 SWAP1 POP JUMP JUMPDEST PUSH2 0x602 DUP2 PUSH2 0x5F0 JUMP JUMPDEST DUP2 EQ PUSH2 0x60C JUMPI PUSH0 PUSH0 REVERT JUMPDEST POP JUMP JUMPDEST PUSH0 DUP2 CALLDATALOAD SWAP1 POP PUSH2 0x61D DUP2 PUSH2 0x5F9 JUMP JUMPDEST SWAP3 SWAP2 POP POP JUMP JUMPDEST PUSH0 PUSH1 0x20 DUP3 DUP5 SUB SLT ISZERO PUSH2 0x638 JUMPI PUSH2 0x637 PUSH2 0x5EC JUMP JUMPDEST JUMPDEST PUSH0 PUSH2 0x645 DUP5 DUP3 DUP6 ADD PUSH2 0x60F JUMP JUMPDEST SWAP2 POP POP SWAP3 SWAP2 POP POP JUMP JUMPDEST PUSH2 0x657 DUP2 PUSH2 0x5F0 JUMP JUMPDEST DUP3 MSTORE POP POP JUMP JUMPDEST PUSH0 PUSH1 0x20 DUP3 ADD SWAP1 POP PUSH2 0x670 PUSH0 DUP4 ADD DUP5 PUSH2 0x64E JUMP JUMPDEST SWAP3 SWAP2 POP POP JUMP JUMPDEST PUSH0 DUP2 ISZERO ISZERO SWAP1 POP SWAP2 SWAP1 POP JUMP JUMPDEST PUSH2 0x68A DUP2 PUSH2 0x676 JUMP JUMPDEST DUP3 MSTORE POP POP JUMP JUMPDEST PUSH0 PUSH1 0x20 DUP3 ADD SWAP1 POP PUSH2 0x6A3 PUSH0 DUP4 ADD DUP5 PUSH2 0x681 JUMP JUMPDEST SWAP3 SWAP2 POP POP JUMP JUMPDEST PUSH0 PUSH20 0xFFFFFFFFFFFFFFFFFFFFFFFFFFFFFFFFFFFFFFFF DUP3 AND SWAP1 POP SWAP2 SWAP1 POP JUMP JUMPDEST PUSH0 PUSH2 0x6D2 DUP3 PUSH2 0x6A9 JUMP JUMPDEST SWAP1 POP SWAP2 SWAP1 POP JUMP JUMPDEST PUSH2 0x6E2 DUP2 PUSH2 0x6C8 JUMP JUMPDEST DUP2 EQ PUSH2 0x6EC JUMPI PUSH0 PUSH0 REVERT JUMPDEST POP JUMP JUMPDEST PUSH0 DUP2 CALLDATALOAD SWAP1 POP PUSH2 0x6FD DUP2 PUSH2 0x6D9 JUMP JUMPDEST SWAP3 SWAP2 POP POP JUMP JUMPDEST PUSH0 PUSH1 0x20 DUP3 DUP5 SUB SLT ISZERO PUSH2 0x718 JUMPI PUSH2 0x717 PUSH2 0x5EC JUMP JUMPDEST JUMPDEST PUSH0 PUSH2 0x725 DUP5 DUP3 DUP6 ADD PUSH2 0x6EF JUMP JUMPDEST SWAP2 POP POP SWAP3 SWAP2 POP POP JUMP JUMPDEST PUSH32 0x4E487B7100000000000000000000000000000000000000000000000000000000 PUSH0 MSTORE PUSH1 0x21 PUSH1 0x4 MSTORE PUSH1 0x24 PUSH0 REVERT JUMPDEST PUSH1 0x2 DUP2 LT PUSH2 0x76C JUMPI PUSH2 0x76B PUSH2 0x72E JUMP JUMPDEST JUMPDEST POP JUMP JUMPDEST PUSH0 DUP2 SWAP1 POP PUSH2 0x77C DUP3 PUSH2 0x75B JUMP JUMPDEST SWAP2 SWAP1 POP JUMP JUMPDEST PUSH0 PUSH2 0x78B DUP3 PUSH2 0x76F JUMP JUMPDEST SWAP1 POP SWAP2 SWAP1 POP JUMP JUMPDEST PUSH2 0x79B DUP2 PUSH2 0x781 JUMP JUMPDEST DUP3 MSTORE POP POP JUMP JUMPDEST PUSH0 PUSH1 0x20 DUP3 ADD SWAP1 POP PUSH2 0x7B4 PUSH0 DUP4 ADD DUP5 PUSH2 0x792 JUMP JUMPDEST SWAP3 SWAP2 POP POP JUMP JUMPDEST PUSH2 0x7C3 DUP2 PUSH2 0x6C8 JUMP JUMPDEST DUP3 MSTORE POP POP JUMP JUMPDEST PUSH0 PUSH1 0x20 DUP3 ADD SWAP1 POP PUSH2 0x7DC PUSH0 DUP4 ADD DUP5 PUSH2 0x7BA JUMP JUMPDEST SWAP3 SWAP2 POP POP JUMP JUMPDEST PUSH0 DUP3 DUP3 MSTORE PUSH1 0x20 DUP3 ADD SWAP1 POP SWAP3 SWAP2 POP POP JUMP JUMPDEST PUSH32 0x5472616E73666572207061757365640000000000000000000000000000000000 PUSH0 DUP3 ADD MSTORE POP JUMP JUMPDEST PUSH0 PUSH2 0x826 PUSH1 0xF DUP4 PUSH2 0x7E2 JUMP JUMPDEST SWAP2 POP PUSH2 0x831 DUP3 PUSH2 0x7F2 JUMP JUMPDEST PUSH1 0x20 DUP3 ADD SWAP1 POP SWAP2 SWAP1 POP JUMP JUMPDEST PUSH0 PUSH1 0x20 DUP3 ADD SWAP1 POP DUP2 DUP2 SUB PUSH0 DUP4 ADD MSTORE PUSH2 0x853 DUP2 PUSH2 0x81A JUMP JUMPDEST SWAP1 POP SWAP2 SWAP1 POP JUMP JUMPDEST PUSH32 0x4E487B7100000000000000000000000000000000000000000000000000000000 PUSH0 MSTORE PUSH1 0x11 PUSH1 0x4 MSTORE PUSH1 0x24 PUSH0 REVERT JUMPDEST PUSH0 PUSH2 0x891 DUP3 PUSH2 0x5F0 JUMP JUMPDEST SWAP2 POP PUSH2 0x89C DUP4 PUSH2 0x5F0 JUMP JUMPDEST SWAP3 POP DUP3 DUP3 SUB SWAP1 POP DUP2 DUP2 GT ISZERO PUSH2 0x8B4 JUMPI PUSH2 0x8B3 PUSH2 0x85A JUMP JUMPDEST JUMPDEST SWAP3 SWAP2 POP POP JUMP JUMPDEST PUSH32 0x496E73756666696369656E742066756E64000000000000000000000000000000 PUSH0 DUP3 ADD MSTORE POP JUMP JUMPDEST PUSH0 PUSH2 0x8EE PUSH1 0x11 DUP4 PUSH2 0x7E2 JUMP JUMPDEST SWAP2 POP PUSH2 0x8F9 DUP3 PUSH2 0x8BA JUMP JUMPDEST PUSH1 0x20 DUP3 ADD SWAP1 POP SWAP2 SWAP1 POP JUMP JUMPDEST PUSH0 PUSH1 0x20 DUP3 ADD SWAP1 POP DUP2 DUP2 SUB PUSH0 DUP4 ADD MSTORE PUSH2 0x91B DUP2 PUSH2 0x8E2 JUMP JUMPDEST SWAP1 POP SWAP2 SWAP1 POP JUMP JUMPDEST PUSH32 0x4E6F7420616E2041646D696E0000000000000000000000000000000000000000 PUSH0 DUP3 ADD MSTORE POP JUMP JUMPDEST PUSH0 PUSH2 0x956 PUSH1 0xC DUP4 PUSH2 0x7E2 JUMP JUMPDEST SWAP2 POP PUSH2 0x961 DUP3 PUSH2 0x922 JUMP JUMPDEST PUSH1 0x20 DUP3 ADD SWAP1 POP SWAP2 SWAP1 POP JUMP JUMPDEST PUSH0 PUSH1 0x20 DUP3 ADD SWAP1 POP DUP2 DUP2 SUB PUSH0 DUP4 ADD MSTORE PUSH2 0x983 DUP2 PUSH2 0x94A JUMP JUMPDEST SWAP1 POP SWAP2 SWAP1 POP JUMP INVALID LOG2 PUSH5 0x6970667358 0x22 SLT KECCAK256 DUP4 LOG0 SWAP5 0x23 0xCB 0x2D EXTCODESIZE LOG0 LOG2 PUSH12 0x69E872F60DBBA2108C98FA98 0xF7 0xF6 0xDC 0x21 PC COINBASE PUSH29 0x4E915664736F6C634300081F0033000000000000000000000000000000 "
				},
				"gasEstimates": {
					"creation": {
						"codeDepositCost": "499200",
						"executionCost": "24792",
						"totalCost": "523992"
					},
					"external": {
						"admin()": "26771",
						"canDelete()": "2489",
						"deployer()": "2551",
						"roles(address)": "2943",
						"sackAdmin(address)": "27185",
						"setAdmin(address)": "27116",
						"transfer(uint256)": "infinite",
						"withdraw(uint256)": "infinite"
					}
				},
				"methodIdentifiers": {
					"admin()": "f851a440",
					"canDelete()": "246b80cf",
					"deployer()": "d5f39488",
					"roles(address)": "99374642",
					"sackAdmin(address)": "4b3582eb",
					"setAdmin(address)": "704b6c02",
					"transfer(uint256)": "12514bba",
					"withdraw(uint256)": "2e1a7d4d"
				}
			},
			"storageLayout": {
				"storage": [
					{
						"astId": 30,
						"contract": "W3day3.sol:ProfileModifier",
						"label": "deployer",
						"offset": 0,
						"slot": "0",
						"type": "t_address"
					},
					{
						"astId": 35,
						"contract": "W3day3.sol:ProfileModifier",
						"label": "roles",
						"offset": 0,
						"slot": "1",
						"type": "t_mapping(t_address,t_enum(Role)28)"
					},
					{
						"astId": 37,
						"contract": "W3day3.sol:ProfileModifier",
						"label": "canDelete",
						"offset": 0,
						"slot": "2",
						"type": "t_bool"
					}
				],
				"types": {
					"t_address": {
						"encoding": "inplace",
						"label": "address",
						"numberOfBytes": "20"
					},
					"t_bool": {
						"encoding": "inplace",
						"label": "bool",
						"numberOfBytes": "1"
					},
					"t_enum(Role)28": {
						"encoding": "inplace",
						"label": "enum ProfileModifier.Role",
						"numberOfBytes": "1"
					},
					"t_mapping(t_address,t_enum(Role)28)": {
						"encoding": "mapping",
						"key": "t_address",
						"label": "mapping(address => enum ProfileModifier.Role)",
						"numberOfBytes": "32",
						"value": "t_enum(Role)28"
					}
				}
			},
			"userdoc": {
				"kind": "user",
				"methods": {},
				"version": 1
			}
		}
	}
}