{
	"W3day4.sol": {
		"registration": {
			"abi": [
				{
					"anonymous": false,
					"inputs": [
						{
							"indexed": true,
							"internalType": "address",
							"name": "user",
							"type": "address"
						},
						{
							"indexed": false,
							"internalType": "uint256",
							"name": "amount",
							"type": "uint256"
						}
					],
					"name": "Balance",
					"type": "event"
				},
				{
					"anonymous": false,
					"inputs": [
						{
							"indexed": true,
							"internalType": "address",
							"name": "user",
							"type": "address"
						},
						{
							"indexed": true,
							"internalType": "uint256",
							"name": "uid",
							"type": "uint256"
						}
					],
					"name": "Register",
					"type": "event"
				},
				{
					"anonymous": false,
					"inputs": [
						{
							"indexed": true,
							"internalType": "address",
							"name": "user",
							"type": "address"
						},
						{
							"indexed": false,
							"internalType": "enum registration.Role",
							"name": "roles",
							"type": "uint8"
						}
					],
					"name": "Roole",
					"type": "event"
				},
				{
					"inputs": [
						{
							"internalType": "enum registration.Role",
							"name": "_roles",
							"type": "uint8"
						}
					],
					"name": "ChangeRole",
					"outputs": [],
					"stateMutability": "nonpayable",
					"type": "function"
				},
				{
					"inputs": [
						{
							"internalType": "string",
							"name": "_username",
							"type": "string"
						}
					],
					"name": "RegisterNow",
					"outputs": [],
					"stateMutability": "nonpayable",
					"type": "function"
				},
				{
					"inputs": [
						{
							"internalType": "address",
							"name": "",
							"type": "address"
						}
					],
					"name": "balance",
					"outputs": [
						{
							"internalType": "uint256",
							"name": "",
							"type": "uint256"
						}
					],
					"stateMutability": "view",
					"type": "function"
				},
				{
					"inputs": [
						{
							"internalType": "address",
							"name": "",
							"type": "address"
						}
					],
					"name": "isRegistered",
					"outputs": [
						{
							"internalType": "bool",
							"name": "",
							"type": "bool"
						}
					],
					"stateMutability": "view",
					"type": "function"
				},
				{
					"inputs": [
						{
							"internalType": "address",
							"name": "",
							"type": "address"
						}
					],
					"name": "roles",
					"outputs": [
						{
							"internalType": "enum registration.Role",
							"name": "",
							"type": "uint8"
						}
					],
					"stateMutability": "view",
					"type": "function"
				},
				{
					"inputs": [],
					"name": "username",
					"outputs": [
						{
							"internalType": "string",
							"name": "",
							"type": "string"
						}
					],
					"stateMutability": "view",
					"type": "function"
				}
			],
			"devdoc": {
				"kind": "dev",
				"methods": {},
				"version": 1
			},
			"evm": {
				"assembly": "    /* \"W3day4.sol\":1207:2106  contract registration{... */\n  mstore(0x40, 0x80)\n    /* \"W3day4.sol\":1356:1357  0 */\n  0x00\n    /* \"W3day4.sol\":1335:1357  uint256 private id = 0 */\n  0x02\n  sstore\n    /* \"W3day4.sol\":1207:2106  contract registration{... */\n  callvalue\n  dup1\n  iszero\n  tag_1\n  jumpi\n  revert(0x00, 0x00)\ntag_1:\n  pop\n  dataSize(sub_0)\n  dup1\n  dataOffset(sub_0)\n  0x00\n  codecopy\n  0x00\n  return\nstop\n\nsub_0: assembly {\n        /* \"W3day4.sol\":1207:2106  contract registration{... */\n      mstore(0x40, 0x80)\n      callvalue\n      dup1\n      iszero\n      tag_1\n      jumpi\n      revert(0x00, 0x00)\n    tag_1:\n      pop\n      jumpi(tag_2, lt(calldatasize, 0x04))\n      shr(0xe0, calldataload(0x00))\n      dup1\n      0x5b0025ad\n      eq\n      tag_3\n      jumpi\n      dup1\n      0x61fac54d\n      eq\n      tag_4\n      jumpi\n      dup1\n      0x99374642\n      eq\n      tag_5\n      jumpi\n      dup1\n      0xb331ce46\n      eq\n      tag_6\n      jumpi\n      dup1\n      0xc3c5a547\n      eq\n      tag_7\n      jumpi\n      dup1\n      0xe3d670d7\n      eq\n      tag_8\n      jumpi\n    tag_2:\n      revert(0x00, 0x00)\n        /* \"W3day4.sol\":1691:1969  function RegisterNow(string memory _username) external {... */\n    tag_3:\n      tag_9\n      0x04\n      dup1\n      calldatasize\n      sub\n      dup2\n      add\n      swap1\n      tag_10\n      swap2\n      swap1\n      tag_11\n      jump\t// in\n    tag_10:\n      tag_12\n      jump\t// in\n    tag_9:\n      stop\n        /* \"W3day4.sol\":1364:1386  string public username */\n    tag_4:\n      tag_13\n      tag_14\n      jump\t// in\n    tag_13:\n      mload(0x40)\n      tag_15\n      swap2\n      swap1\n      tag_16\n      jump\t// in\n    tag_15:\n      mload(0x40)\n      dup1\n      swap2\n      sub\n      swap1\n      return\n        /* \"W3day4.sol\":1469:1506  mapping(address => Role) public roles */\n    tag_5:\n      tag_17\n      0x04\n      dup1\n      calldatasize\n      sub\n      dup2\n      add\n      swap1\n      tag_18\n      swap2\n      swap1\n      tag_19\n      jump\t// in\n    tag_18:\n      tag_20\n      jump\t// in\n    tag_17:\n      mload(0x40)\n      tag_21\n      swap2\n      swap1\n      tag_22\n      jump\t// in\n    tag_21:\n      mload(0x40)\n      dup1\n      swap2\n      sub\n      swap1\n      return\n        /* \"W3day4.sol\":1977:2103  function ChangeRole(Role _roles) public {... */\n    tag_6:\n      tag_23\n      0x04\n      dup1\n      calldatasize\n      sub\n      dup2\n      add\n      swap1\n      tag_24\n      swap2\n      swap1\n      tag_25\n      jump\t// in\n    tag_24:\n      tag_26\n      jump\t// in\n    tag_23:\n      stop\n        /* \"W3day4.sol\":1284:1328  mapping(address => bool) public isRegistered */\n    tag_7:\n      tag_27\n      0x04\n      dup1\n      calldatasize\n      sub\n      dup2\n      add\n      swap1\n      tag_28\n      swap2\n      swap1\n      tag_19\n      jump\t// in\n    tag_28:\n      tag_29\n      jump\t// in\n    tag_27:\n      mload(0x40)\n      tag_30\n      swap2\n      swap1\n      tag_31\n      jump\t// in\n    tag_30:\n      mload(0x40)\n      dup1\n      swap2\n      sub\n      swap1\n      return\n        /* \"W3day4.sol\":1235:1277  mapping(address => uint256) public balance */\n    tag_8:\n      tag_32\n      0x04\n      dup1\n      calldatasize\n      sub\n      dup2\n      add\n      swap1\n      tag_33\n      swap2\n      swap1\n      tag_19\n      jump\t// in\n    tag_33:\n      tag_34\n      jump\t// in\n    tag_32:\n      mload(0x40)\n      tag_35\n      swap2\n      swap1\n      tag_36\n      jump\t// in\n    tag_35:\n      mload(0x40)\n      dup1\n      swap2\n      sub\n      swap1\n      return\n        /* \"W3day4.sol\":1691:1969  function RegisterNow(string memory _username) external {... */\n    tag_12:\n        /* \"W3day4.sol\":1766:1778  isRegistered */\n      0x01\n        /* \"W3day4.sol\":1766:1790  isRegistered[msg.sender] */\n      0x00\n        /* \"W3day4.sol\":1779:1789  msg.sender */\n      caller\n        /* \"W3day4.sol\":1766:1790  isRegistered[msg.sender] */\n      0xffffffffffffffffffffffffffffffffffffffff\n      and\n      0xffffffffffffffffffffffffffffffffffffffff\n      and\n      dup2\n      mstore\n      0x20\n      add\n      swap1\n      dup2\n      mstore\n      0x20\n      add\n      0x00\n      keccak256\n      0x00\n      swap1\n      sload\n      swap1\n      0x0100\n      exp\n      swap1\n      div\n      0xff\n      and\n        /* \"W3day4.sol\":1765:1790  !isRegistered[msg.sender] */\n      iszero\n        /* \"W3day4.sol\":1757:1816  require(!isRegistered[msg.sender], \"Account already exist\") */\n      tag_38\n      jumpi\n      mload(0x40)\n      0x08c379a000000000000000000000000000000000000000000000000000000000\n      dup2\n      mstore\n      0x04\n      add\n      tag_39\n      swap1\n      tag_40\n      jump\t// in\n    tag_39:\n      mload(0x40)\n      dup1\n      swap2\n      sub\n      swap1\n      revert\n    tag_38:\n        /* \"W3day4.sol\":1856:1860  true */\n      0x01\n        /* \"W3day4.sol\":1829:1841  isRegistered */\n      dup1\n        /* \"W3day4.sol\":1829:1853  isRegistered[msg.sender] */\n      0x00\n        /* \"W3day4.sol\":1842:1852  msg.sender */\n      caller\n        /* \"W3day4.sol\":1829:1853  isRegistered[msg.sender] */\n      0xffffffffffffffffffffffffffffffffffffffff\n      and\n      0xffffffffffffffffffffffffffffffffffffffff\n      and\n      dup2\n      mstore\n      0x20\n      add\n      swap1\n      dup2\n      mstore\n      0x20\n      add\n      0x00\n      keccak256\n      0x00\n        /* \"W3day4.sol\":1829:1860  isRegistered[msg.sender] = true */\n      0x0100\n      exp\n      dup2\n      sload\n      dup2\n      0xff\n      mul\n      not\n      and\n      swap1\n      dup4\n      iszero\n      iszero\n      mul\n      or\n      swap1\n      sstore\n      pop\n        /* \"W3day4.sol\":1882:1891  _username */\n      dup1\n        /* \"W3day4.sol\":1871:1879  username */\n      0x03\n        /* \"W3day4.sol\":1871:1891  username = _username */\n      swap1\n      dup2\n      tag_41\n      swap2\n      swap1\n      tag_42\n      jump\t// in\n    tag_41:\n      pop\n        /* \"W3day4.sol\":1902:1913  uint256 uid */\n      0x00\n        /* \"W3day4.sol\":1916:1918  id */\n      0x02\n      0x00\n        /* \"W3day4.sol\":1916:1920  id++ */\n      dup2\n      sload\n      dup1\n      swap3\n      swap2\n      swap1\n      tag_43\n      swap1\n      tag_44\n      jump\t// in\n    tag_43:\n      swap2\n      swap1\n      pop\n      sstore\n        /* \"W3day4.sol\":1902:1920  uint256 uid = id++ */\n      swap1\n      pop\n        /* \"W3day4.sol\":1957:1960  uid */\n      dup1\n        /* \"W3day4.sol\":1945:1955  msg.sender */\n      caller\n        /* \"W3day4.sol\":1936:1961  Register(msg.sender, uid) */\n      0xffffffffffffffffffffffffffffffffffffffff\n      and\n      0x7dc6ab80cc84c043b7b8d4fcafc802187470087f7ea7fccd2e17aecd0256a1\n      mload(0x40)\n      mload(0x40)\n      dup1\n      swap2\n      sub\n      swap1\n      log3\n        /* \"W3day4.sol\":1746:1969  {... */\n      pop\n        /* \"W3day4.sol\":1691:1969  function RegisterNow(string memory _username) external {... */\n      pop\n      jump\t// out\n        /* \"W3day4.sol\":1364:1386  string public username */\n    tag_14:\n      0x03\n      dup1\n      sload\n      tag_45\n      swap1\n      tag_46\n      jump\t// in\n    tag_45:\n      dup1\n      0x1f\n      add\n      0x20\n      dup1\n      swap2\n      div\n      mul\n      0x20\n      add\n      mload(0x40)\n      swap1\n      dup2\n      add\n      0x40\n      mstore\n      dup1\n      swap3\n      swap2\n      swap1\n      dup2\n      dup2\n      mstore\n      0x20\n      add\n      dup3\n      dup1\n      sload\n      tag_47\n      swap1\n      tag_46\n      jump\t// in\n    tag_47:\n      dup1\n      iszero\n      tag_48\n      jumpi\n      dup1\n      0x1f\n      lt\n      tag_49\n      jumpi\n      0x0100\n      dup1\n      dup4\n      sload\n      div\n      mul\n      dup4\n      mstore\n      swap2\n      0x20\n      add\n      swap2\n      jump(tag_48)\n    tag_49:\n      dup3\n      add\n      swap2\n      swap1\n      0x00\n      mstore\n      keccak256(0x00, 0x20)\n      swap1\n    tag_50:\n      dup2\n      sload\n      dup2\n      mstore\n      swap1\n      0x01\n      add\n      swap1\n      0x20\n      add\n      dup1\n      dup4\n      gt\n      tag_50\n      jumpi\n      dup3\n      swap1\n      sub\n      0x1f\n      and\n      dup3\n      add\n      swap2\n    tag_48:\n      pop\n      pop\n      pop\n      pop\n      pop\n      dup2\n      jump\t// out\n        /* \"W3day4.sol\":1469:1506  mapping(address => Role) public roles */\n    tag_20:\n      mstore(0x20, 0x04)\n      dup1\n      0x00\n      mstore\n      keccak256(0x00, 0x40)\n      0x00\n      swap2\n      pop\n      sload\n      swap1\n      0x0100\n      exp\n      swap1\n      div\n      0xff\n      and\n      dup2\n      jump\t// out\n        /* \"W3day4.sol\":1977:2103  function ChangeRole(Role _roles) public {... */\n    tag_26:\n        /* \"W3day4.sol\":2048:2054  _roles */\n      dup1\n        /* \"W3day4.sol\":2028:2033  roles */\n      0x04\n        /* \"W3day4.sol\":2028:2045  roles[msg.sender] */\n      0x00\n        /* \"W3day4.sol\":2034:2044  msg.sender */\n      caller\n        /* \"W3day4.sol\":2028:2045  roles[msg.sender] */\n      0xffffffffffffffffffffffffffffffffffffffff\n      and\n      0xffffffffffffffffffffffffffffffffffffffff\n      and\n      dup2\n      mstore\n      0x20\n      add\n      swap1\n      dup2\n      mstore\n      0x20\n      add\n      0x00\n      keccak256\n      0x00\n        /* \"W3day4.sol\":2028:2054  roles[msg.sender] = _roles */\n      0x0100\n      exp\n      dup2\n      sload\n      dup2\n      0xff\n      mul\n      not\n      and\n      swap1\n      dup4\n      0x02\n      dup2\n      gt\n      iszero\n      tag_52\n      jumpi\n      tag_53\n      tag_54\n      jump\t// in\n    tag_53:\n    tag_52:\n      mul\n      or\n      swap1\n      sstore\n      pop\n        /* \"W3day4.sol\":2076:2086  msg.sender */\n      caller\n        /* \"W3day4.sol\":2070:2095  Roole(msg.sender, _roles) */\n      0xffffffffffffffffffffffffffffffffffffffff\n      and\n      0xda4d41475ec50aa8531c242d7d7a0aad94df435c0be1f0cbf130f862bb38290e\n        /* \"W3day4.sol\":2088:2094  _roles */\n      dup3\n        /* \"W3day4.sol\":2070:2095  Roole(msg.sender, _roles) */\n      mload(0x40)\n      tag_55\n      swap2\n      swap1\n      tag_22\n      jump\t// in\n    tag_55:\n      mload(0x40)\n      dup1\n      swap2\n      sub\n      swap1\n      log2\n        /* \"W3day4.sol\":1977:2103  function ChangeRole(Role _roles) public {... */\n      pop\n      jump\t// out\n        /* \"W3day4.sol\":1284:1328  mapping(address => bool) public isRegistered */\n    tag_29:\n      mstore(0x20, 0x01)\n      dup1\n      0x00\n      mstore\n      keccak256(0x00, 0x40)\n      0x00\n      swap2\n      pop\n      sload\n      swap1\n      0x0100\n      exp\n      swap1\n      div\n      0xff\n      and\n      dup2\n      jump\t// out\n        /* \"W3day4.sol\":1235:1277  mapping(address => uint256) public balance */\n    tag_34:\n      mstore(0x20, 0x00)\n      dup1\n      0x00\n      mstore\n      keccak256(0x00, 0x40)\n      0x00\n      swap2\n      pop\n      swap1\n      pop\n      sload\n      dup2\n      jump\t// out\n        /* \"#utility.yul\":7:82   */\n    tag_56:\n        /* \"#utility.yul\":40:46   */\n      0x00\n        /* \"#utility.yul\":73:75   */\n      0x40\n        /* \"#utility.yul\":67:76   */\n      mload\n        /* \"#utility.yul\":57:76   */\n      swap1\n      pop\n        /* \"#utility.yul\":7:82   */\n      swap1\n      jump\t// out\n        /* \"#utility.yul\":88:205   */\n    tag_57:\n        /* \"#utility.yul\":197:198   */\n      0x00\n        /* \"#utility.yul\":194:195   */\n      0x00\n        /* \"#utility.yul\":187:199   */\n      revert\n        /* \"#utility.yul\":211:328   */\n    tag_58:\n        /* \"#utility.yul\":320:321   */\n      0x00\n        /* \"#utility.yul\":317:318   */\n      0x00\n        /* \"#utility.yul\":310:322   */\n      revert\n        /* \"#utility.yul\":334:451   */\n    tag_59:\n        /* \"#utility.yul\":443:444   */\n      0x00\n        /* \"#utility.yul\":440:441   */\n      0x00\n        /* \"#utility.yul\":433:445   */\n      revert\n        /* \"#utility.yul\":457:574   */\n    tag_60:\n        /* \"#utility.yul\":566:567   */\n      0x00\n        /* \"#utility.yul\":563:564   */\n      0x00\n        /* \"#utility.yul\":556:568   */\n      revert\n        /* \"#utility.yul\":580:682   */\n    tag_61:\n        /* \"#utility.yul\":621:627   */\n      0x00\n        /* \"#utility.yul\":672:674   */\n      0x1f\n        /* \"#utility.yul\":668:675   */\n      not\n        /* \"#utility.yul\":663:665   */\n      0x1f\n        /* \"#utility.yul\":656:661   */\n      dup4\n        /* \"#utility.yul\":652:666   */\n      add\n        /* \"#utility.yul\":648:676   */\n      and\n        /* \"#utility.yul\":638:676   */\n      swap1\n      pop\n        /* \"#utility.yul\":580:682   */\n      swap2\n      swap1\n      pop\n      jump\t// out\n        /* \"#utility.yul\":688:868   */\n    tag_62:\n        /* \"#utility.yul\":736:813   */\n      0x4e487b7100000000000000000000000000000000000000000000000000000000\n        /* \"#utility.yul\":733:734   */\n      0x00\n        /* \"#utility.yul\":726:814   */\n      mstore\n        /* \"#utility.yul\":833:837   */\n      0x41\n        /* \"#utility.yul\":830:831   */\n      0x04\n        /* \"#utility.yul\":823:838   */\n      mstore\n        /* \"#utility.yul\":857:861   */\n      0x24\n        /* \"#utility.yul\":854:855   */\n      0x00\n        /* \"#utility.yul\":847:862   */\n      revert\n        /* \"#utility.yul\":874:1155   */\n    tag_63:\n        /* \"#utility.yul\":957:984   */\n      tag_115\n        /* \"#utility.yul\":979:983   */\n      dup3\n        /* \"#utility.yul\":957:984   */\n      tag_61\n      jump\t// in\n    tag_115:\n        /* \"#utility.yul\":949:955   */\n      dup2\n        /* \"#utility.yul\":945:985   */\n      add\n        /* \"#utility.yul\":1087:1093   */\n      dup2\n        /* \"#utility.yul\":1075:1085   */\n      dup2\n        /* \"#utility.yul\":1072:1094   */\n      lt\n        /* \"#utility.yul\":1051:1069   */\n      0xffffffffffffffff\n        /* \"#utility.yul\":1039:1049   */\n      dup3\n        /* \"#utility.yul\":1036:1070   */\n      gt\n        /* \"#utility.yul\":1033:1095   */\n      or\n        /* \"#utility.yul\":1030:1118   */\n      iszero\n      tag_116\n      jumpi\n        /* \"#utility.yul\":1098:1116   */\n      tag_117\n      tag_62\n      jump\t// in\n    tag_117:\n        /* \"#utility.yul\":1030:1118   */\n    tag_116:\n        /* \"#utility.yul\":1138:1148   */\n      dup1\n        /* \"#utility.yul\":1134:1136   */\n      0x40\n        /* \"#utility.yul\":1127:1149   */\n      mstore\n        /* \"#utility.yul\":917:1155   */\n      pop\n        /* \"#utility.yul\":874:1155   */\n      pop\n      pop\n      jump\t// out\n        /* \"#utility.yul\":1161:1290   */\n    tag_64:\n        /* \"#utility.yul\":1195:1201   */\n      0x00\n        /* \"#utility.yul\":1222:1242   */\n      tag_119\n      tag_56\n      jump\t// in\n    tag_119:\n        /* \"#utility.yul\":1212:1242   */\n      swap1\n      pop\n        /* \"#utility.yul\":1251:1284   */\n      tag_120\n        /* \"#utility.yul\":1279:1283   */\n      dup3\n        /* \"#utility.yul\":1271:1277   */\n      dup3\n        /* \"#utility.yul\":1251:1284   */\n      tag_63\n      jump\t// in\n    tag_120:\n        /* \"#utility.yul\":1161:1290   */\n      swap2\n      swap1\n      pop\n      jump\t// out\n        /* \"#utility.yul\":1296:1604   */\n    tag_65:\n        /* \"#utility.yul\":1358:1362   */\n      0x00\n        /* \"#utility.yul\":1448:1466   */\n      0xffffffffffffffff\n        /* \"#utility.yul\":1440:1446   */\n      dup3\n        /* \"#utility.yul\":1437:1467   */\n      gt\n        /* \"#utility.yul\":1434:1490   */\n      iszero\n      tag_122\n      jumpi\n        /* \"#utility.yul\":1470:1488   */\n      tag_123\n      tag_62\n      jump\t// in\n    tag_123:\n        /* \"#utility.yul\":1434:1490   */\n    tag_122:\n        /* \"#utility.yul\":1508:1537   */\n      tag_124\n        /* \"#utility.yul\":1530:1536   */\n      dup3\n        /* \"#utility.yul\":1508:1537   */\n      tag_61\n      jump\t// in\n    tag_124:\n        /* \"#utility.yul\":1500:1537   */\n      swap1\n      pop\n        /* \"#utility.yul\":1592:1596   */\n      0x20\n        /* \"#utility.yul\":1586:1590   */\n      dup2\n        /* \"#utility.yul\":1582:1597   */\n      add\n        /* \"#utility.yul\":1574:1597   */\n      swap1\n      pop\n        /* \"#utility.yul\":1296:1604   */\n      swap2\n      swap1\n      pop\n      jump\t// out\n        /* \"#utility.yul\":1610:1758   */\n    tag_66:\n        /* \"#utility.yul\":1708:1714   */\n      dup3\n        /* \"#utility.yul\":1703:1706   */\n      dup2\n        /* \"#utility.yul\":1698:1701   */\n      dup4\n        /* \"#utility.yul\":1685:1715   */\n      calldatacopy\n        /* \"#utility.yul\":1749:1750   */\n      0x00\n        /* \"#utility.yul\":1740:1746   */\n      dup4\n        /* \"#utility.yul\":1735:1738   */\n      dup4\n        /* \"#utility.yul\":1731:1747   */\n      add\n        /* \"#utility.yul\":1724:1751   */\n      mstore\n        /* \"#utility.yul\":1610:1758   */\n      pop\n      pop\n      pop\n      jump\t// out\n        /* \"#utility.yul\":1764:2189   */\n    tag_67:\n        /* \"#utility.yul\":1842:1847   */\n      0x00\n        /* \"#utility.yul\":1867:1933   */\n      tag_127\n        /* \"#utility.yul\":1883:1932   */\n      tag_128\n        /* \"#utility.yul\":1925:1931   */\n      dup5\n        /* \"#utility.yul\":1883:1932   */\n      tag_65\n      jump\t// in\n    tag_128:\n        /* \"#utility.yul\":1867:1933   */\n      tag_64\n      jump\t// in\n    tag_127:\n        /* \"#utility.yul\":1858:1933   */\n      swap1\n      pop\n        /* \"#utility.yul\":1956:1962   */\n      dup3\n        /* \"#utility.yul\":1949:1954   */\n      dup2\n        /* \"#utility.yul\":1942:1963   */\n      mstore\n        /* \"#utility.yul\":1994:1998   */\n      0x20\n        /* \"#utility.yul\":1987:1992   */\n      dup2\n        /* \"#utility.yul\":1983:1999   */\n      add\n        /* \"#utility.yul\":2032:2035   */\n      dup5\n        /* \"#utility.yul\":2023:2029   */\n      dup5\n        /* \"#utility.yul\":2018:2021   */\n      dup5\n        /* \"#utility.yul\":2014:2030   */\n      add\n        /* \"#utility.yul\":2011:2036   */\n      gt\n        /* \"#utility.yul\":2008:2120   */\n      iszero\n      tag_129\n      jumpi\n        /* \"#utility.yul\":2039:2118   */\n      tag_130\n      tag_60\n      jump\t// in\n    tag_130:\n        /* \"#utility.yul\":2008:2120   */\n    tag_129:\n        /* \"#utility.yul\":2129:2183   */\n      tag_131\n        /* \"#utility.yul\":2176:2182   */\n      dup5\n        /* \"#utility.yul\":2171:2174   */\n      dup3\n        /* \"#utility.yul\":2166:2169   */\n      dup6\n        /* \"#utility.yul\":2129:2183   */\n      tag_66\n      jump\t// in\n    tag_131:\n        /* \"#utility.yul\":1848:2189   */\n      pop\n        /* \"#utility.yul\":1764:2189   */\n      swap4\n      swap3\n      pop\n      pop\n      pop\n      jump\t// out\n        /* \"#utility.yul\":2209:2549   */\n    tag_68:\n        /* \"#utility.yul\":2265:2270   */\n      0x00\n        /* \"#utility.yul\":2314:2317   */\n      dup3\n        /* \"#utility.yul\":2307:2311   */\n      0x1f\n        /* \"#utility.yul\":2299:2305   */\n      dup4\n        /* \"#utility.yul\":2295:2312   */\n      add\n        /* \"#utility.yul\":2291:2318   */\n      slt\n        /* \"#utility.yul\":2281:2403   */\n      tag_133\n      jumpi\n        /* \"#utility.yul\":2322:2401   */\n      tag_134\n      tag_59\n      jump\t// in\n    tag_134:\n        /* \"#utility.yul\":2281:2403   */\n    tag_133:\n        /* \"#utility.yul\":2439:2445   */\n      dup2\n        /* \"#utility.yul\":2426:2446   */\n      calldataload\n        /* \"#utility.yul\":2464:2543   */\n      tag_135\n        /* \"#utility.yul\":2539:2542   */\n      dup5\n        /* \"#utility.yul\":2531:2537   */\n      dup3\n        /* \"#utility.yul\":2524:2528   */\n      0x20\n        /* \"#utility.yul\":2516:2522   */\n      dup7\n        /* \"#utility.yul\":2512:2529   */\n      add\n        /* \"#utility.yul\":2464:2543   */\n      tag_67\n      jump\t// in\n    tag_135:\n        /* \"#utility.yul\":2455:2543   */\n      swap2\n      pop\n        /* \"#utility.yul\":2271:2549   */\n      pop\n        /* \"#utility.yul\":2209:2549   */\n      swap3\n      swap2\n      pop\n      pop\n      jump\t// out\n        /* \"#utility.yul\":2555:3064   */\n    tag_11:\n        /* \"#utility.yul\":2624:2630   */\n      0x00\n        /* \"#utility.yul\":2673:2675   */\n      0x20\n        /* \"#utility.yul\":2661:2670   */\n      dup3\n        /* \"#utility.yul\":2652:2659   */\n      dup5\n        /* \"#utility.yul\":2648:2671   */\n      sub\n        /* \"#utility.yul\":2644:2676   */\n      slt\n        /* \"#utility.yul\":2641:2760   */\n      iszero\n      tag_137\n      jumpi\n        /* \"#utility.yul\":2679:2758   */\n      tag_138\n      tag_57\n      jump\t// in\n    tag_138:\n        /* \"#utility.yul\":2641:2760   */\n    tag_137:\n        /* \"#utility.yul\":2827:2828   */\n      0x00\n        /* \"#utility.yul\":2816:2825   */\n      dup3\n        /* \"#utility.yul\":2812:2829   */\n      add\n        /* \"#utility.yul\":2799:2830   */\n      calldataload\n        /* \"#utility.yul\":2857:2875   */\n      0xffffffffffffffff\n        /* \"#utility.yul\":2849:2855   */\n      dup2\n        /* \"#utility.yul\":2846:2876   */\n      gt\n        /* \"#utility.yul\":2843:2960   */\n      iszero\n      tag_139\n      jumpi\n        /* \"#utility.yul\":2879:2958   */\n      tag_140\n      tag_58\n      jump\t// in\n    tag_140:\n        /* \"#utility.yul\":2843:2960   */\n    tag_139:\n        /* \"#utility.yul\":2984:3047   */\n      tag_141\n        /* \"#utility.yul\":3039:3046   */\n      dup5\n        /* \"#utility.yul\":3030:3036   */\n      dup3\n        /* \"#utility.yul\":3019:3028   */\n      dup6\n        /* \"#utility.yul\":3015:3037   */\n      add\n        /* \"#utility.yul\":2984:3047   */\n      tag_68\n      jump\t// in\n    tag_141:\n        /* \"#utility.yul\":2974:3047   */\n      swap2\n      pop\n        /* \"#utility.yul\":2770:3057   */\n      pop\n        /* \"#utility.yul\":2555:3064   */\n      swap3\n      swap2\n      pop\n      pop\n      jump\t// out\n        /* \"#utility.yul\":3070:3169   */\n    tag_69:\n        /* \"#utility.yul\":3122:3128   */\n      0x00\n        /* \"#utility.yul\":3156:3161   */\n      dup2\n        /* \"#utility.yul\":3150:3162   */\n      mload\n        /* \"#utility.yul\":3140:3162   */\n      swap1\n      pop\n        /* \"#utility.yul\":3070:3169   */\n      swap2\n      swap1\n      pop\n      jump\t// out\n        /* \"#utility.yul\":3175:3344   */\n    tag_70:\n        /* \"#utility.yul\":3259:3270   */\n      0x00\n        /* \"#utility.yul\":3293:3299   */\n      dup3\n        /* \"#utility.yul\":3288:3291   */\n      dup3\n        /* \"#utility.yul\":3281:3300   */\n      mstore\n        /* \"#utility.yul\":3333:3337   */\n      0x20\n        /* \"#utility.yul\":3328:3331   */\n      dup3\n        /* \"#utility.yul\":3324:3338   */\n      add\n        /* \"#utility.yul\":3309:3338   */\n      swap1\n      pop\n        /* \"#utility.yul\":3175:3344   */\n      swap3\n      swap2\n      pop\n      pop\n      jump\t// out\n        /* \"#utility.yul\":3350:3489   */\n    tag_71:\n        /* \"#utility.yul\":3439:3445   */\n      dup3\n        /* \"#utility.yul\":3434:3437   */\n      dup2\n        /* \"#utility.yul\":3429:3432   */\n      dup4\n        /* \"#utility.yul\":3423:3446   */\n      mcopy\n        /* \"#utility.yul\":3480:3481   */\n      0x00\n        /* \"#utility.yul\":3471:3477   */\n      dup4\n        /* \"#utility.yul\":3466:3469   */\n      dup4\n        /* \"#utility.yul\":3462:3478   */\n      add\n        /* \"#utility.yul\":3455:3482   */\n      mstore\n        /* \"#utility.yul\":3350:3489   */\n      pop\n      pop\n      pop\n      jump\t// out\n        /* \"#utility.yul\":3495:3872   */\n    tag_72:\n        /* \"#utility.yul\":3583:3586   */\n      0x00\n        /* \"#utility.yul\":3611:3650   */\n      tag_146\n        /* \"#utility.yul\":3644:3649   */\n      dup3\n        /* \"#utility.yul\":3611:3650   */\n      tag_69\n      jump\t// in\n    tag_146:\n        /* \"#utility.yul\":3666:3737   */\n      tag_147\n        /* \"#utility.yul\":3730:3736   */\n      dup2\n        /* \"#utility.yul\":3725:3728   */\n      dup6\n        /* \"#utility.yul\":3666:3737   */\n      tag_70\n      jump\t// in\n    tag_147:\n        /* \"#utility.yul\":3659:3737   */\n      swap4\n      pop\n        /* \"#utility.yul\":3746:3811   */\n      tag_148\n        /* \"#utility.yul\":3804:3810   */\n      dup2\n        /* \"#utility.yul\":3799:3802   */\n      dup6\n        /* \"#utility.yul\":3792:3796   */\n      0x20\n        /* \"#utility.yul\":3785:3790   */\n      dup7\n        /* \"#utility.yul\":3781:3797   */\n      add\n        /* \"#utility.yul\":3746:3811   */\n      tag_71\n      jump\t// in\n    tag_148:\n        /* \"#utility.yul\":3836:3865   */\n      tag_149\n        /* \"#utility.yul\":3858:3864   */\n      dup2\n        /* \"#utility.yul\":3836:3865   */\n      tag_61\n      jump\t// in\n    tag_149:\n        /* \"#utility.yul\":3831:3834   */\n      dup5\n        /* \"#utility.yul\":3827:3866   */\n      add\n        /* \"#utility.yul\":3820:3866   */\n      swap2\n      pop\n        /* \"#utility.yul\":3587:3872   */\n      pop\n        /* \"#utility.yul\":3495:3872   */\n      swap3\n      swap2\n      pop\n      pop\n      jump\t// out\n        /* \"#utility.yul\":3878:4191   */\n    tag_16:\n        /* \"#utility.yul\":3991:3995   */\n      0x00\n        /* \"#utility.yul\":4029:4031   */\n      0x20\n        /* \"#utility.yul\":4018:4027   */\n      dup3\n        /* \"#utility.yul\":4014:4032   */\n      add\n        /* \"#utility.yul\":4006:4032   */\n      swap1\n      pop\n        /* \"#utility.yul\":4078:4087   */\n      dup2\n        /* \"#utility.yul\":4072:4076   */\n      dup2\n        /* \"#utility.yul\":4068:4088   */\n      sub\n        /* \"#utility.yul\":4064:4065   */\n      0x00\n        /* \"#utility.yul\":4053:4062   */\n      dup4\n        /* \"#utility.yul\":4049:4066   */\n      add\n        /* \"#utility.yul\":4042:4089   */\n      mstore\n        /* \"#utility.yul\":4106:4184   */\n      tag_151\n        /* \"#utility.yul\":4179:4183   */\n      dup2\n        /* \"#utility.yul\":4170:4176   */\n      dup5\n        /* \"#utility.yul\":4106:4184   */\n      tag_72\n      jump\t// in\n    tag_151:\n        /* \"#utility.yul\":4098:4184   */\n      swap1\n      pop\n        /* \"#utility.yul\":3878:4191   */\n      swap3\n      swap2\n      pop\n      pop\n      jump\t// out\n        /* \"#utility.yul\":4197:4323   */\n    tag_73:\n        /* \"#utility.yul\":4234:4241   */\n      0x00\n        /* \"#utility.yul\":4274:4316   */\n      0xffffffffffffffffffffffffffffffffffffffff\n        /* \"#utility.yul\":4267:4272   */\n      dup3\n        /* \"#utility.yul\":4263:4317   */\n      and\n        /* \"#utility.yul\":4252:4317   */\n      swap1\n      pop\n        /* \"#utility.yul\":4197:4323   */\n      swap2\n      swap1\n      pop\n      jump\t// out\n        /* \"#utility.yul\":4329:4425   */\n    tag_74:\n        /* \"#utility.yul\":4366:4373   */\n      0x00\n        /* \"#utility.yul\":4395:4419   */\n      tag_154\n        /* \"#utility.yul\":4413:4418   */\n      dup3\n        /* \"#utility.yul\":4395:4419   */\n      tag_73\n      jump\t// in\n    tag_154:\n        /* \"#utility.yul\":4384:4419   */\n      swap1\n      pop\n        /* \"#utility.yul\":4329:4425   */\n      swap2\n      swap1\n      pop\n      jump\t// out\n        /* \"#utility.yul\":4431:4553   */\n    tag_75:\n        /* \"#utility.yul\":4504:4528   */\n      tag_156\n        /* \"#utility.yul\":4522:4527   */\n      dup2\n        /* \"#utility.yul\":4504:4528   */\n      tag_74\n      jump\t// in\n    tag_156:\n        /* \"#utility.yul\":4497:4502   */\n      dup2\n        /* \"#utility.yul\":4494:4529   */\n      eq\n        /* \"#utility.yul\":4484:4547   */\n      tag_157\n      jumpi\n        /* \"#utility.yul\":4543:4544   */\n      0x00\n        /* \"#utility.yul\":4540:4541   */\n      0x00\n        /* \"#utility.yul\":4533:4545   */\n      revert\n        /* \"#utility.yul\":4484:4547   */\n    tag_157:\n        /* \"#utility.yul\":4431:4553   */\n      pop\n      jump\t// out\n        /* \"#utility.yul\":4559:4698   */\n    tag_76:\n        /* \"#utility.yul\":4605:4610   */\n      0x00\n        /* \"#utility.yul\":4643:4649   */\n      dup2\n        /* \"#utility.yul\":4630:4650   */\n      calldataload\n        /* \"#utility.yul\":4621:4650   */\n      swap1\n      pop\n        /* \"#utility.yul\":4659:4692   */\n      tag_159\n        /* \"#utility.yul\":4686:4691   */\n      dup2\n        /* \"#utility.yul\":4659:4692   */\n      tag_75\n      jump\t// in\n    tag_159:\n        /* \"#utility.yul\":4559:4698   */\n      swap3\n      swap2\n      pop\n      pop\n      jump\t// out\n        /* \"#utility.yul\":4704:5033   */\n    tag_19:\n        /* \"#utility.yul\":4763:4769   */\n      0x00\n        /* \"#utility.yul\":4812:4814   */\n      0x20\n        /* \"#utility.yul\":4800:4809   */\n      dup3\n        /* \"#utility.yul\":4791:4798   */\n      dup5\n        /* \"#utility.yul\":4787:4810   */\n      sub\n        /* \"#utility.yul\":4783:4815   */\n      slt\n        /* \"#utility.yul\":4780:4899   */\n      iszero\n      tag_161\n      jumpi\n        /* \"#utility.yul\":4818:4897   */\n      tag_162\n      tag_57\n      jump\t// in\n    tag_162:\n        /* \"#utility.yul\":4780:4899   */\n    tag_161:\n        /* \"#utility.yul\":4938:4939   */\n      0x00\n        /* \"#utility.yul\":4963:5016   */\n      tag_163\n        /* \"#utility.yul\":5008:5015   */\n      dup5\n        /* \"#utility.yul\":4999:5005   */\n      dup3\n        /* \"#utility.yul\":4988:4997   */\n      dup6\n        /* \"#utility.yul\":4984:5006   */\n      add\n        /* \"#utility.yul\":4963:5016   */\n      tag_76\n      jump\t// in\n    tag_163:\n        /* \"#utility.yul\":4953:5016   */\n      swap2\n      pop\n        /* \"#utility.yul\":4909:5026   */\n      pop\n        /* \"#utility.yul\":4704:5033   */\n      swap3\n      swap2\n      pop\n      pop\n      jump\t// out\n        /* \"#utility.yul\":5039:5219   */\n    tag_54:\n        /* \"#utility.yul\":5087:5164   */\n      0x4e487b7100000000000000000000000000000000000000000000000000000000\n        /* \"#utility.yul\":5084:5085   */\n      0x00\n        /* \"#utility.yul\":5077:5165   */\n      mstore\n        /* \"#utility.yul\":5184:5188   */\n      0x21\n        /* \"#utility.yul\":5181:5182   */\n      0x04\n        /* \"#utility.yul\":5174:5189   */\n      mstore\n        /* \"#utility.yul\":5208:5212   */\n      0x24\n        /* \"#utility.yul\":5205:5206   */\n      0x00\n        /* \"#utility.yul\":5198:5213   */\n      revert\n        /* \"#utility.yul\":5225:5337   */\n    tag_77:\n        /* \"#utility.yul\":5305:5306   */\n      0x03\n        /* \"#utility.yul\":5298:5303   */\n      dup2\n        /* \"#utility.yul\":5295:5307   */\n      lt\n        /* \"#utility.yul\":5285:5331   */\n      tag_166\n      jumpi\n        /* \"#utility.yul\":5311:5329   */\n      tag_167\n      tag_54\n      jump\t// in\n    tag_167:\n        /* \"#utility.yul\":5285:5331   */\n    tag_166:\n        /* \"#utility.yul\":5225:5337   */\n      pop\n      jump\t// out\n        /* \"#utility.yul\":5343:5468   */\n    tag_78:\n        /* \"#utility.yul\":5387:5394   */\n      0x00\n        /* \"#utility.yul\":5416:5421   */\n      dup2\n        /* \"#utility.yul\":5405:5421   */\n      swap1\n      pop\n        /* \"#utility.yul\":5422:5462   */\n      tag_169\n        /* \"#utility.yul\":5456:5461   */\n      dup3\n        /* \"#utility.yul\":5422:5462   */\n      tag_77\n      jump\t// in\n    tag_169:\n        /* \"#utility.yul\":5343:5468   */\n      swap2\n      swap1\n      pop\n      jump\t// out\n        /* \"#utility.yul\":5474:5599   */\n    tag_79:\n        /* \"#utility.yul\":5529:5538   */\n      0x00\n        /* \"#utility.yul\":5562:5593   */\n      tag_171\n        /* \"#utility.yul\":5587:5592   */\n      dup3\n        /* \"#utility.yul\":5562:5593   */\n      tag_78\n      jump\t// in\n    tag_171:\n        /* \"#utility.yul\":5549:5593   */\n      swap1\n      pop\n        /* \"#utility.yul\":5474:5599   */\n      swap2\n      swap1\n      pop\n      jump\t// out\n        /* \"#utility.yul\":5605:5746   */\n    tag_80:\n        /* \"#utility.yul\":5697:5739   */\n      tag_173\n        /* \"#utility.yul\":5733:5738   */\n      dup2\n        /* \"#utility.yul\":5697:5739   */\n      tag_79\n      jump\t// in\n    tag_173:\n        /* \"#utility.yul\":5692:5695   */\n      dup3\n        /* \"#utility.yul\":5685:5740   */\n      mstore\n        /* \"#utility.yul\":5605:5746   */\n      pop\n      pop\n      jump\t// out\n        /* \"#utility.yul\":5752:5984   */\n    tag_22:\n        /* \"#utility.yul\":5850:5854   */\n      0x00\n        /* \"#utility.yul\":5888:5890   */\n      0x20\n        /* \"#utility.yul\":5877:5886   */\n      dup3\n        /* \"#utility.yul\":5873:5891   */\n      add\n        /* \"#utility.yul\":5865:5891   */\n      swap1\n      pop\n        /* \"#utility.yul\":5901:5977   */\n      tag_175\n        /* \"#utility.yul\":5974:5975   */\n      0x00\n        /* \"#utility.yul\":5963:5972   */\n      dup4\n        /* \"#utility.yul\":5959:5976   */\n      add\n        /* \"#utility.yul\":5950:5956   */\n      dup5\n        /* \"#utility.yul\":5901:5977   */\n      tag_80\n      jump\t// in\n    tag_175:\n        /* \"#utility.yul\":5752:5984   */\n      swap3\n      swap2\n      pop\n      pop\n      jump\t// out\n        /* \"#utility.yul\":5990:6096   */\n    tag_81:\n        /* \"#utility.yul\":6070:6071   */\n      0x03\n        /* \"#utility.yul\":6063:6068   */\n      dup2\n        /* \"#utility.yul\":6060:6072   */\n      lt\n        /* \"#utility.yul\":6050:6090   */\n      tag_177\n      jumpi\n        /* \"#utility.yul\":6086:6087   */\n      0x00\n        /* \"#utility.yul\":6083:6084   */\n      0x00\n        /* \"#utility.yul\":6076:6088   */\n      revert\n        /* \"#utility.yul\":6050:6090   */\n    tag_177:\n        /* \"#utility.yul\":5990:6096   */\n      pop\n      jump\t// out\n        /* \"#utility.yul\":6102:6255   */\n    tag_82:\n        /* \"#utility.yul\":6155:6160   */\n      0x00\n        /* \"#utility.yul\":6193:6199   */\n      dup2\n        /* \"#utility.yul\":6180:6200   */\n      calldataload\n        /* \"#utility.yul\":6171:6200   */\n      swap1\n      pop\n        /* \"#utility.yul\":6209:6249   */\n      tag_179\n        /* \"#utility.yul\":6243:6248   */\n      dup2\n        /* \"#utility.yul\":6209:6249   */\n      tag_81\n      jump\t// in\n    tag_179:\n        /* \"#utility.yul\":6102:6255   */\n      swap3\n      swap2\n      pop\n      pop\n      jump\t// out\n        /* \"#utility.yul\":6261:6604   */\n    tag_25:\n        /* \"#utility.yul\":6327:6333   */\n      0x00\n        /* \"#utility.yul\":6376:6378   */\n      0x20\n        /* \"#utility.yul\":6364:6373   */\n      dup3\n        /* \"#utility.yul\":6355:6362   */\n      dup5\n        /* \"#utility.yul\":6351:6374   */\n      sub\n        /* \"#utility.yul\":6347:6379   */\n      slt\n        /* \"#utility.yul\":6344:6463   */\n      iszero\n      tag_181\n      jumpi\n        /* \"#utility.yul\":6382:6461   */\n      tag_182\n      tag_57\n      jump\t// in\n    tag_182:\n        /* \"#utility.yul\":6344:6463   */\n    tag_181:\n        /* \"#utility.yul\":6502:6503   */\n      0x00\n        /* \"#utility.yul\":6527:6587   */\n      tag_183\n        /* \"#utility.yul\":6579:6586   */\n      dup5\n        /* \"#utility.yul\":6570:6576   */\n      dup3\n        /* \"#utility.yul\":6559:6568   */\n      dup6\n        /* \"#utility.yul\":6555:6577   */\n      add\n        /* \"#utility.yul\":6527:6587   */\n      tag_82\n      jump\t// in\n    tag_183:\n        /* \"#utility.yul\":6517:6587   */\n      swap2\n      pop\n        /* \"#utility.yul\":6473:6597   */\n      pop\n        /* \"#utility.yul\":6261:6604   */\n      swap3\n      swap2\n      pop\n      pop\n      jump\t// out\n        /* \"#utility.yul\":6610:6700   */\n    tag_83:\n        /* \"#utility.yul\":6644:6651   */\n      0x00\n        /* \"#utility.yul\":6687:6692   */\n      dup2\n        /* \"#utility.yul\":6680:6693   */\n      iszero\n        /* \"#utility.yul\":6673:6694   */\n      iszero\n        /* \"#utility.yul\":6662:6694   */\n      swap1\n      pop\n        /* \"#utility.yul\":6610:6700   */\n      swap2\n      swap1\n      pop\n      jump\t// out\n        /* \"#utility.yul\":6706:6815   */\n    tag_84:\n        /* \"#utility.yul\":6787:6808   */\n      tag_186\n        /* \"#utility.yul\":6802:6807   */\n      dup2\n        /* \"#utility.yul\":6787:6808   */\n      tag_83\n      jump\t// in\n    tag_186:\n        /* \"#utility.yul\":6782:6785   */\n      dup3\n        /* \"#utility.yul\":6775:6809   */\n      mstore\n        /* \"#utility.yul\":6706:6815   */\n      pop\n      pop\n      jump\t// out\n        /* \"#utility.yul\":6821:7031   */\n    tag_31:\n        /* \"#utility.yul\":6908:6912   */\n      0x00\n        /* \"#utility.yul\":6946:6948   */\n      0x20\n        /* \"#utility.yul\":6935:6944   */\n      dup3\n        /* \"#utility.yul\":6931:6949   */\n      add\n        /* \"#utility.yul\":6923:6949   */\n      swap1\n      pop\n        /* \"#utility.yul\":6959:7024   */\n      tag_188\n        /* \"#utility.yul\":7021:7022   */\n      0x00\n        /* \"#utility.yul\":7010:7019   */\n      dup4\n        /* \"#utility.yul\":7006:7023   */\n      add\n        /* \"#utility.yul\":6997:7003   */\n      dup5\n        /* \"#utility.yul\":6959:7024   */\n      tag_84\n      jump\t// in\n    tag_188:\n        /* \"#utility.yul\":6821:7031   */\n      swap3\n      swap2\n      pop\n      pop\n      jump\t// out\n        /* \"#utility.yul\":7037:7114   */\n    tag_85:\n        /* \"#utility.yul\":7074:7081   */\n      0x00\n        /* \"#utility.yul\":7103:7108   */\n      dup2\n        /* \"#utility.yul\":7092:7108   */\n      swap1\n      pop\n        /* \"#utility.yul\":7037:7114   */\n      swap2\n      swap1\n      pop\n      jump\t// out\n        /* \"#utility.yul\":7120:7238   */\n    tag_86:\n        /* \"#utility.yul\":7207:7231   */\n      tag_191\n        /* \"#utility.yul\":7225:7230   */\n      dup2\n        /* \"#utility.yul\":7207:7231   */\n      tag_85\n      jump\t// in\n    tag_191:\n        /* \"#utility.yul\":7202:7205   */\n      dup3\n        /* \"#utility.yul\":7195:7232   */\n      mstore\n        /* \"#utility.yul\":7120:7238   */\n      pop\n      pop\n      jump\t// out\n        /* \"#utility.yul\":7244:7466   */\n    tag_36:\n        /* \"#utility.yul\":7337:7341   */\n      0x00\n        /* \"#utility.yul\":7375:7377   */\n      0x20\n        /* \"#utility.yul\":7364:7373   */\n      dup3\n        /* \"#utility.yul\":7360:7378   */\n      add\n        /* \"#utility.yul\":7352:7378   */\n      swap1\n      pop\n        /* \"#utility.yul\":7388:7459   */\n      tag_193\n        /* \"#utility.yul\":7456:7457   */\n      0x00\n        /* \"#utility.yul\":7445:7454   */\n      dup4\n        /* \"#utility.yul\":7441:7458   */\n      add\n        /* \"#utility.yul\":7432:7438   */\n      dup5\n        /* \"#utility.yul\":7388:7459   */\n      tag_86\n      jump\t// in\n    tag_193:\n        /* \"#utility.yul\":7244:7466   */\n      swap3\n      swap2\n      pop\n      pop\n      jump\t// out\n        /* \"#utility.yul\":7472:7643   */\n    tag_87:\n        /* \"#utility.yul\":7612:7635   */\n      0x4163636f756e7420616c72656164792065786973740000000000000000000000\n        /* \"#utility.yul\":7608:7609   */\n      0x00\n        /* \"#utility.yul\":7600:7606   */\n      dup3\n        /* \"#utility.yul\":7596:7610   */\n      add\n        /* \"#utility.yul\":7589:7636   */\n      mstore\n        /* \"#utility.yul\":7472:7643   */\n      pop\n      jump\t// out\n        /* \"#utility.yul\":7649:8015   */\n    tag_88:\n        /* \"#utility.yul\":7791:7794   */\n      0x00\n        /* \"#utility.yul\":7812:7879   */\n      tag_196\n        /* \"#utility.yul\":7876:7878   */\n      0x15\n        /* \"#utility.yul\":7871:7874   */\n      dup4\n        /* \"#utility.yul\":7812:7879   */\n      tag_70\n      jump\t// in\n    tag_196:\n        /* \"#utility.yul\":7805:7879   */\n      swap2\n      pop\n        /* \"#utility.yul\":7888:7981   */\n      tag_197\n        /* \"#utility.yul\":7977:7980   */\n      dup3\n        /* \"#utility.yul\":7888:7981   */\n      tag_87\n      jump\t// in\n    tag_197:\n        /* \"#utility.yul\":8006:8008   */\n      0x20\n        /* \"#utility.yul\":8001:8004   */\n      dup3\n        /* \"#utility.yul\":7997:8009   */\n      add\n        /* \"#utility.yul\":7990:8009   */\n      swap1\n      pop\n        /* \"#utility.yul\":7649:8015   */\n      swap2\n      swap1\n      pop\n      jump\t// out\n        /* \"#utility.yul\":8021:8440   */\n    tag_40:\n        /* \"#utility.yul\":8187:8191   */\n      0x00\n        /* \"#utility.yul\":8225:8227   */\n      0x20\n        /* \"#utility.yul\":8214:8223   */\n      dup3\n        /* \"#utility.yul\":8210:8228   */\n      add\n        /* \"#utility.yul\":8202:8228   */\n      swap1\n      pop\n        /* \"#utility.yul\":8274:8283   */\n      dup2\n        /* \"#utility.yul\":8268:8272   */\n      dup2\n        /* \"#utility.yul\":8264:8284   */\n      sub\n        /* \"#utility.yul\":8260:8261   */\n      0x00\n        /* \"#utility.yul\":8249:8258   */\n      dup4\n        /* \"#utility.yul\":8245:8262   */\n      add\n        /* \"#utility.yul\":8238:8285   */\n      mstore\n        /* \"#utility.yul\":8302:8433   */\n      tag_199\n        /* \"#utility.yul\":8428:8432   */\n      dup2\n        /* \"#utility.yul\":8302:8433   */\n      tag_88\n      jump\t// in\n    tag_199:\n        /* \"#utility.yul\":8294:8433   */\n      swap1\n      pop\n        /* \"#utility.yul\":8021:8440   */\n      swap2\n      swap1\n      pop\n      jump\t// out\n        /* \"#utility.yul\":8446:8626   */\n    tag_89:\n        /* \"#utility.yul\":8494:8571   */\n      0x4e487b7100000000000000000000000000000000000000000000000000000000\n        /* \"#utility.yul\":8491:8492   */\n      0x00\n        /* \"#utility.yul\":8484:8572   */\n      mstore\n        /* \"#utility.yul\":8591:8595   */\n      0x22\n        /* \"#utility.yul\":8588:8589   */\n      0x04\n        /* \"#utility.yul\":8581:8596   */\n      mstore\n        /* \"#utility.yul\":8615:8619   */\n      0x24\n        /* \"#utility.yul\":8612:8613   */\n      0x00\n        /* \"#utility.yul\":8605:8620   */\n      revert\n        /* \"#utility.yul\":8632:8952   */\n    tag_46:\n        /* \"#utility.yul\":8676:8682   */\n      0x00\n        /* \"#utility.yul\":8713:8714   */\n      0x02\n        /* \"#utility.yul\":8707:8711   */\n      dup3\n        /* \"#utility.yul\":8703:8715   */\n      div\n        /* \"#utility.yul\":8693:8715   */\n      swap1\n      pop\n        /* \"#utility.yul\":8760:8761   */\n      0x01\n        /* \"#utility.yul\":8754:8758   */\n      dup3\n        /* \"#utility.yul\":8750:8762   */\n      and\n        /* \"#utility.yul\":8781:8799   */\n      dup1\n        /* \"#utility.yul\":8771:8852   */\n      tag_202\n      jumpi\n        /* \"#utility.yul\":8837:8841   */\n      0x7f\n        /* \"#utility.yul\":8829:8835   */\n      dup3\n        /* \"#utility.yul\":8825:8842   */\n      and\n        /* \"#utility.yul\":8815:8842   */\n      swap2\n      pop\n        /* \"#utility.yul\":8771:8852   */\n    tag_202:\n        /* \"#utility.yul\":8899:8901   */\n      0x20\n        /* \"#utility.yul\":8891:8897   */\n      dup3\n        /* \"#utility.yul\":8888:8902   */\n      lt\n        /* \"#utility.yul\":8868:8886   */\n      dup2\n        /* \"#utility.yul\":8865:8903   */\n      sub\n        /* \"#utility.yul\":8862:8946   */\n      tag_203\n      jumpi\n        /* \"#utility.yul\":8918:8936   */\n      tag_204\n      tag_89\n      jump\t// in\n    tag_204:\n        /* \"#utility.yul\":8862:8946   */\n    tag_203:\n        /* \"#utility.yul\":8683:8952   */\n      pop\n        /* \"#utility.yul\":8632:8952   */\n      swap2\n      swap1\n      pop\n      jump\t// out\n        /* \"#utility.yul\":8958:9099   */\n    tag_90:\n        /* \"#utility.yul\":9007:9011   */\n      0x00\n        /* \"#utility.yul\":9030:9033   */\n      dup2\n        /* \"#utility.yul\":9022:9033   */\n      swap1\n      pop\n        /* \"#utility.yul\":9053:9056   */\n      dup2\n        /* \"#utility.yul\":9050:9051   */\n      0x00\n        /* \"#utility.yul\":9043:9057   */\n      mstore\n        /* \"#utility.yul\":9087:9091   */\n      0x20\n        /* \"#utility.yul\":9084:9085   */\n      0x00\n        /* \"#utility.yul\":9074:9092   */\n      keccak256\n        /* \"#utility.yul\":9066:9092   */\n      swap1\n      pop\n        /* \"#utility.yul\":8958:9099   */\n      swap2\n      swap1\n      pop\n      jump\t// out\n        /* \"#utility.yul\":9105:9198   */\n    tag_91:\n        /* \"#utility.yul\":9142:9148   */\n      0x00\n        /* \"#utility.yul\":9189:9191   */\n      0x20\n        /* \"#utility.yul\":9184:9186   */\n      0x1f\n        /* \"#utility.yul\":9177:9182   */\n      dup4\n        /* \"#utility.yul\":9173:9187   */\n      add\n        /* \"#utility.yul\":9169:9192   */\n      div\n        /* \"#utility.yul\":9159:9192   */\n      swap1\n      pop\n        /* \"#utility.yul\":9105:9198   */\n      swap2\n      swap1\n      pop\n      jump\t// out\n        /* \"#utility.yul\":9204:9311   */\n    tag_92:\n        /* \"#utility.yul\":9248:9256   */\n      0x00\n        /* \"#utility.yul\":9298:9303   */\n      dup3\n        /* \"#utility.yul\":9292:9296   */\n      dup3\n        /* \"#utility.yul\":9288:9304   */\n      shl\n        /* \"#utility.yul\":9267:9304   */\n      swap1\n      pop\n        /* \"#utility.yul\":9204:9311   */\n      swap3\n      swap2\n      pop\n      pop\n      jump\t// out\n        /* \"#utility.yul\":9317:9710   */\n    tag_93:\n        /* \"#utility.yul\":9386:9392   */\n      0x00\n        /* \"#utility.yul\":9436:9437   */\n      0x08\n        /* \"#utility.yul\":9424:9434   */\n      dup4\n        /* \"#utility.yul\":9420:9438   */\n      mul\n        /* \"#utility.yul\":9459:9556   */\n      tag_209\n        /* \"#utility.yul\":9489:9555   */\n      0xffffffffffffffffffffffffffffffffffffffffffffffffffffffffffffffff\n        /* \"#utility.yul\":9478:9487   */\n      dup3\n        /* \"#utility.yul\":9459:9556   */\n      tag_92\n      jump\t// in\n    tag_209:\n        /* \"#utility.yul\":9577:9616   */\n      tag_210\n        /* \"#utility.yul\":9607:9615   */\n      dup7\n        /* \"#utility.yul\":9596:9605   */\n      dup4\n        /* \"#utility.yul\":9577:9616   */\n      tag_92\n      jump\t// in\n    tag_210:\n        /* \"#utility.yul\":9565:9616   */\n      swap6\n      pop\n        /* \"#utility.yul\":9649:9653   */\n      dup1\n        /* \"#utility.yul\":9645:9654   */\n      not\n        /* \"#utility.yul\":9638:9643   */\n      dup5\n        /* \"#utility.yul\":9634:9655   */\n      and\n        /* \"#utility.yul\":9625:9655   */\n      swap4\n      pop\n        /* \"#utility.yul\":9698:9702   */\n      dup1\n        /* \"#utility.yul\":9688:9696   */\n      dup7\n        /* \"#utility.yul\":9684:9703   */\n      and\n        /* \"#utility.yul\":9677:9682   */\n      dup5\n        /* \"#utility.yul\":9674:9704   */\n      or\n        /* \"#utility.yul\":9664:9704   */\n      swap3\n      pop\n        /* \"#utility.yul\":9393:9710   */\n      pop\n      pop\n        /* \"#utility.yul\":9317:9710   */\n      swap4\n      swap3\n      pop\n      pop\n      pop\n      jump\t// out\n        /* \"#utility.yul\":9716:9776   */\n    tag_94:\n        /* \"#utility.yul\":9744:9747   */\n      0x00\n        /* \"#utility.yul\":9765:9770   */\n      dup2\n        /* \"#utility.yul\":9758:9770   */\n      swap1\n      pop\n        /* \"#utility.yul\":9716:9776   */\n      swap2\n      swap1\n      pop\n      jump\t// out\n        /* \"#utility.yul\":9782:9924   */\n    tag_95:\n        /* \"#utility.yul\":9832:9841   */\n      0x00\n        /* \"#utility.yul\":9865:9918   */\n      tag_213\n        /* \"#utility.yul\":9883:9917   */\n      tag_214\n        /* \"#utility.yul\":9892:9916   */\n      tag_215\n        /* \"#utility.yul\":9910:9915   */\n      dup5\n        /* \"#utility.yul\":9892:9916   */\n      tag_85\n      jump\t// in\n    tag_215:\n        /* \"#utility.yul\":9883:9917   */\n      tag_94\n      jump\t// in\n    tag_214:\n        /* \"#utility.yul\":9865:9918   */\n      tag_85\n      jump\t// in\n    tag_213:\n        /* \"#utility.yul\":9852:9918   */\n      swap1\n      pop\n        /* \"#utility.yul\":9782:9924   */\n      swap2\n      swap1\n      pop\n      jump\t// out\n        /* \"#utility.yul\":9930:10005   */\n    tag_96:\n        /* \"#utility.yul\":9973:9976   */\n      0x00\n        /* \"#utility.yul\":9994:9999   */\n      dup2\n        /* \"#utility.yul\":9987:9999   */\n      swap1\n      pop\n        /* \"#utility.yul\":9930:10005   */\n      swap2\n      swap1\n      pop\n      jump\t// out\n        /* \"#utility.yul\":10011:10280   */\n    tag_97:\n        /* \"#utility.yul\":10121:10160   */\n      tag_218\n        /* \"#utility.yul\":10152:10159   */\n      dup4\n        /* \"#utility.yul\":10121:10160   */\n      tag_95\n      jump\t// in\n    tag_218:\n        /* \"#utility.yul\":10182:10273   */\n      tag_219\n        /* \"#utility.yul\":10231:10272   */\n      tag_220\n        /* \"#utility.yul\":10255:10271   */\n      dup3\n        /* \"#utility.yul\":10231:10272   */\n      tag_96\n      jump\t// in\n    tag_220:\n        /* \"#utility.yul\":10223:10229   */\n      dup5\n        /* \"#utility.yul\":10216:10220   */\n      dup5\n        /* \"#utility.yul\":10210:10221   */\n      sload\n        /* \"#utility.yul\":10182:10273   */\n      tag_93\n      jump\t// in\n    tag_219:\n        /* \"#utility.yul\":10176:10180   */\n      dup3\n        /* \"#utility.yul\":10169:10274   */\n      sstore\n        /* \"#utility.yul\":10087:10280   */\n      pop\n        /* \"#utility.yul\":10011:10280   */\n      pop\n      pop\n      pop\n      jump\t// out\n        /* \"#utility.yul\":10286:10359   */\n    tag_98:\n        /* \"#utility.yul\":10331:10334   */\n      0x00\n        /* \"#utility.yul\":10352:10353   */\n      0x00\n        /* \"#utility.yul\":10345:10353   */\n      swap1\n      pop\n        /* \"#utility.yul\":10286:10359   */\n      swap1\n      jump\t// out\n        /* \"#utility.yul\":10365:10554   */\n    tag_99:\n        /* \"#utility.yul\":10442:10474   */\n      tag_223\n      tag_98\n      jump\t// in\n    tag_223:\n        /* \"#utility.yul\":10483:10548   */\n      tag_224\n        /* \"#utility.yul\":10541:10547   */\n      dup2\n        /* \"#utility.yul\":10533:10539   */\n      dup5\n        /* \"#utility.yul\":10527:10531   */\n      dup5\n        /* \"#utility.yul\":10483:10548   */\n      tag_97\n      jump\t// in\n    tag_224:\n        /* \"#utility.yul\":10418:10554   */\n      pop\n        /* \"#utility.yul\":10365:10554   */\n      pop\n      pop\n      jump\t// out\n        /* \"#utility.yul\":10560:10746   */\n    tag_100:\n        /* \"#utility.yul\":10620:10740   */\n    tag_226:\n        /* \"#utility.yul\":10637:10640   */\n      dup2\n        /* \"#utility.yul\":10630:10635   */\n      dup2\n        /* \"#utility.yul\":10627:10641   */\n      lt\n        /* \"#utility.yul\":10620:10740   */\n      iszero\n      tag_228\n      jumpi\n        /* \"#utility.yul\":10691:10730   */\n      tag_229\n        /* \"#utility.yul\":10728:10729   */\n      0x00\n        /* \"#utility.yul\":10721:10726   */\n      dup3\n        /* \"#utility.yul\":10691:10730   */\n      tag_99\n      jump\t// in\n    tag_229:\n        /* \"#utility.yul\":10664:10665   */\n      0x01\n        /* \"#utility.yul\":10657:10662   */\n      dup2\n        /* \"#utility.yul\":10653:10666   */\n      add\n        /* \"#utility.yul\":10644:10666   */\n      swap1\n      pop\n        /* \"#utility.yul\":10620:10740   */\n      jump(tag_226)\n    tag_228:\n        /* \"#utility.yul\":10560:10746   */\n      pop\n      pop\n      jump\t// out\n        /* \"#utility.yul\":10752:11295   */\n    tag_101:\n        /* \"#utility.yul\":10853:10855   */\n      0x1f\n        /* \"#utility.yul\":10848:10851   */\n      dup3\n        /* \"#utility.yul\":10845:10856   */\n      gt\n        /* \"#utility.yul\":10842:11288   */\n      iszero\n      tag_231\n      jumpi\n        /* \"#utility.yul\":10887:10925   */\n      tag_232\n        /* \"#utility.yul\":10919:10924   */\n      dup2\n        /* \"#utility.yul\":10887:10925   */\n      tag_90\n      jump\t// in\n    tag_232:\n        /* \"#utility.yul\":10971:11000   */\n      tag_233\n        /* \"#utility.yul\":10989:10999   */\n      dup5\n        /* \"#utility.yul\":10971:11000   */\n      tag_91\n      jump\t// in\n    tag_233:\n        /* \"#utility.yul\":10961:10969   */\n      dup2\n        /* \"#utility.yul\":10957:11001   */\n      add\n        /* \"#utility.yul\":11154:11156   */\n      0x20\n        /* \"#utility.yul\":11142:11152   */\n      dup6\n        /* \"#utility.yul\":11139:11157   */\n      lt\n        /* \"#utility.yul\":11136:11185   */\n      iszero\n      tag_234\n      jumpi\n        /* \"#utility.yul\":11175:11183   */\n      dup2\n        /* \"#utility.yul\":11160:11183   */\n      swap1\n      pop\n        /* \"#utility.yul\":11136:11185   */\n    tag_234:\n        /* \"#utility.yul\":11198:11278   */\n      tag_235\n        /* \"#utility.yul\":11254:11276   */\n      tag_236\n        /* \"#utility.yul\":11272:11275   */\n      dup6\n        /* \"#utility.yul\":11254:11276   */\n      tag_91\n      jump\t// in\n    tag_236:\n        /* \"#utility.yul\":11244:11252   */\n      dup4\n        /* \"#utility.yul\":11240:11277   */\n      add\n        /* \"#utility.yul\":11227:11238   */\n      dup3\n        /* \"#utility.yul\":11198:11278   */\n      tag_100\n      jump\t// in\n    tag_235:\n        /* \"#utility.yul\":10857:11288   */\n      pop\n      pop\n        /* \"#utility.yul\":10842:11288   */\n    tag_231:\n        /* \"#utility.yul\":10752:11295   */\n      pop\n      pop\n      pop\n      jump\t// out\n        /* \"#utility.yul\":11301:11418   */\n    tag_102:\n        /* \"#utility.yul\":11355:11363   */\n      0x00\n        /* \"#utility.yul\":11405:11410   */\n      dup3\n        /* \"#utility.yul\":11399:11403   */\n      dup3\n        /* \"#utility.yul\":11395:11411   */\n      shr\n        /* \"#utility.yul\":11374:11411   */\n      swap1\n      pop\n        /* \"#utility.yul\":11301:11418   */\n      swap3\n      swap2\n      pop\n      pop\n      jump\t// out\n        /* \"#utility.yul\":11424:11593   */\n    tag_103:\n        /* \"#utility.yul\":11468:11474   */\n      0x00\n        /* \"#utility.yul\":11501:11552   */\n      tag_239\n        /* \"#utility.yul\":11549:11550   */\n      0x00\n        /* \"#utility.yul\":11545:11551   */\n      not\n        /* \"#utility.yul\":11537:11542   */\n      dup5\n        /* \"#utility.yul\":11534:11535   */\n      0x08\n        /* \"#utility.yul\":11530:11543   */\n      mul\n        /* \"#utility.yul\":11501:11552   */\n      tag_102\n      jump\t// in\n    tag_239:\n        /* \"#utility.yul\":11497:11553   */\n      not\n        /* \"#utility.yul\":11582:11586   */\n      dup1\n        /* \"#utility.yul\":11576:11580   */\n      dup4\n        /* \"#utility.yul\":11572:11587   */\n      and\n        /* \"#utility.yul\":11562:11587   */\n      swap2\n      pop\n        /* \"#utility.yul\":11475:11593   */\n      pop\n        /* \"#utility.yul\":11424:11593   */\n      swap3\n      swap2\n      pop\n      pop\n      jump\t// out\n        /* \"#utility.yul\":11598:11893   */\n    tag_104:\n        /* \"#utility.yul\":11674:11678   */\n      0x00\n        /* \"#utility.yul\":11820:11849   */\n      tag_241\n        /* \"#utility.yul\":11845:11848   */\n      dup4\n        /* \"#utility.yul\":11839:11843   */\n      dup4\n        /* \"#utility.yul\":11820:11849   */\n      tag_103\n      jump\t// in\n    tag_241:\n        /* \"#utility.yul\":11812:11849   */\n      swap2\n      pop\n        /* \"#utility.yul\":11882:11885   */\n      dup3\n        /* \"#utility.yul\":11879:11880   */\n      0x02\n        /* \"#utility.yul\":11875:11886   */\n      mul\n        /* \"#utility.yul\":11869:11873   */\n      dup3\n        /* \"#utility.yul\":11866:11887   */\n      or\n        /* \"#utility.yul\":11858:11887   */\n      swap1\n      pop\n        /* \"#utility.yul\":11598:11893   */\n      swap3\n      swap2\n      pop\n      pop\n      jump\t// out\n        /* \"#utility.yul\":11898:13293   */\n    tag_42:\n        /* \"#utility.yul\":12015:12052   */\n      tag_243\n        /* \"#utility.yul\":12048:12051   */\n      dup3\n        /* \"#utility.yul\":12015:12052   */\n      tag_69\n      jump\t// in\n    tag_243:\n        /* \"#utility.yul\":12117:12135   */\n      0xffffffffffffffff\n        /* \"#utility.yul\":12109:12115   */\n      dup2\n        /* \"#utility.yul\":12106:12136   */\n      gt\n        /* \"#utility.yul\":12103:12159   */\n      iszero\n      tag_244\n      jumpi\n        /* \"#utility.yul\":12139:12157   */\n      tag_245\n      tag_62\n      jump\t// in\n    tag_245:\n        /* \"#utility.yul\":12103:12159   */\n    tag_244:\n        /* \"#utility.yul\":12183:12221   */\n      tag_246\n        /* \"#utility.yul\":12215:12219   */\n      dup3\n        /* \"#utility.yul\":12209:12220   */\n      sload\n        /* \"#utility.yul\":12183:12221   */\n      tag_46\n      jump\t// in\n    tag_246:\n        /* \"#utility.yul\":12268:12335   */\n      tag_247\n        /* \"#utility.yul\":12328:12334   */\n      dup3\n        /* \"#utility.yul\":12320:12326   */\n      dup3\n        /* \"#utility.yul\":12314:12318   */\n      dup6\n        /* \"#utility.yul\":12268:12335   */\n      tag_101\n      jump\t// in\n    tag_247:\n        /* \"#utility.yul\":12362:12363   */\n      0x00\n        /* \"#utility.yul\":12386:12390   */\n      0x20\n        /* \"#utility.yul\":12373:12390   */\n      swap1\n      pop\n        /* \"#utility.yul\":12418:12420   */\n      0x1f\n        /* \"#utility.yul\":12410:12416   */\n      dup4\n        /* \"#utility.yul\":12407:12421   */\n      gt\n        /* \"#utility.yul\":12435:12436   */\n      0x01\n        /* \"#utility.yul\":12430:13048   */\n      dup2\n      eq\n      tag_249\n      jumpi\n        /* \"#utility.yul\":13092:13093   */\n      0x00\n        /* \"#utility.yul\":13109:13115   */\n      dup5\n        /* \"#utility.yul\":13106:13183   */\n      iszero\n      tag_250\n      jumpi\n        /* \"#utility.yul\":13158:13167   */\n      dup3\n        /* \"#utility.yul\":13153:13156   */\n      dup8\n        /* \"#utility.yul\":13149:13168   */\n      add\n        /* \"#utility.yul\":13143:13169   */\n      mload\n        /* \"#utility.yul\":13134:13169   */\n      swap1\n      pop\n        /* \"#utility.yul\":13106:13183   */\n    tag_250:\n        /* \"#utility.yul\":13209:13276   */\n      tag_251\n        /* \"#utility.yul\":13269:13275   */\n      dup6\n        /* \"#utility.yul\":13262:13267   */\n      dup3\n        /* \"#utility.yul\":13209:13276   */\n      tag_104\n      jump\t// in\n    tag_251:\n        /* \"#utility.yul\":13203:13207   */\n      dup7\n        /* \"#utility.yul\":13196:13277   */\n      sstore\n        /* \"#utility.yul\":13065:13287   */\n      pop\n        /* \"#utility.yul\":12400:13287   */\n      jump(tag_248)\n        /* \"#utility.yul\":12430:13048   */\n    tag_249:\n        /* \"#utility.yul\":12482:12486   */\n      0x1f\n        /* \"#utility.yul\":12478:12487   */\n      not\n        /* \"#utility.yul\":12470:12476   */\n      dup5\n        /* \"#utility.yul\":12466:12488   */\n      and\n        /* \"#utility.yul\":12516:12553   */\n      tag_252\n        /* \"#utility.yul\":12548:12552   */\n      dup7\n        /* \"#utility.yul\":12516:12553   */\n      tag_90\n      jump\t// in\n    tag_252:\n        /* \"#utility.yul\":12575:12576   */\n      0x00\n        /* \"#utility.yul\":12589:12797   */\n    tag_253:\n        /* \"#utility.yul\":12603:12610   */\n      dup3\n        /* \"#utility.yul\":12600:12601   */\n      dup2\n        /* \"#utility.yul\":12597:12611   */\n      lt\n        /* \"#utility.yul\":12589:12797   */\n      iszero\n      tag_255\n      jumpi\n        /* \"#utility.yul\":12682:12691   */\n      dup5\n        /* \"#utility.yul\":12677:12680   */\n      dup10\n        /* \"#utility.yul\":12673:12692   */\n      add\n        /* \"#utility.yul\":12667:12693   */\n      mload\n        /* \"#utility.yul\":12659:12665   */\n      dup3\n        /* \"#utility.yul\":12652:12694   */\n      sstore\n        /* \"#utility.yul\":12733:12734   */\n      0x01\n        /* \"#utility.yul\":12725:12731   */\n      dup3\n        /* \"#utility.yul\":12721:12735   */\n      add\n        /* \"#utility.yul\":12711:12735   */\n      swap2\n      pop\n        /* \"#utility.yul\":12780:12782   */\n      0x20\n        /* \"#utility.yul\":12769:12778   */\n      dup6\n        /* \"#utility.yul\":12765:12783   */\n      add\n        /* \"#utility.yul\":12752:12783   */\n      swap5\n      pop\n        /* \"#utility.yul\":12626:12630   */\n      0x20\n        /* \"#utility.yul\":12623:12624   */\n      dup2\n        /* \"#utility.yul\":12619:12631   */\n      add\n        /* \"#utility.yul\":12614:12631   */\n      swap1\n      pop\n        /* \"#utility.yul\":12589:12797   */\n      jump(tag_253)\n    tag_255:\n        /* \"#utility.yul\":12825:12831   */\n      dup7\n        /* \"#utility.yul\":12816:12823   */\n      dup4\n        /* \"#utility.yul\":12813:12832   */\n      lt\n        /* \"#utility.yul\":12810:12989   */\n      iszero\n      tag_256\n      jumpi\n        /* \"#utility.yul\":12883:12892   */\n      dup5\n        /* \"#utility.yul\":12878:12881   */\n      dup10\n        /* \"#utility.yul\":12874:12893   */\n      add\n        /* \"#utility.yul\":12868:12894   */\n      mload\n        /* \"#utility.yul\":12926:12974   */\n      tag_257\n        /* \"#utility.yul\":12968:12972   */\n      0x1f\n        /* \"#utility.yul\":12960:12966   */\n      dup10\n        /* \"#utility.yul\":12956:12973   */\n      and\n        /* \"#utility.yul\":12945:12954   */\n      dup3\n        /* \"#utility.yul\":12926:12974   */\n      tag_103\n      jump\t// in\n    tag_257:\n        /* \"#utility.yul\":12918:12924   */\n      dup4\n        /* \"#utility.yul\":12911:12975   */\n      sstore\n        /* \"#utility.yul\":12833:12989   */\n      pop\n        /* \"#utility.yul\":12810:12989   */\n    tag_256:\n        /* \"#utility.yul\":13035:13036   */\n      0x01\n        /* \"#utility.yul\":13031:13032   */\n      0x02\n        /* \"#utility.yul\":13023:13029   */\n      dup9\n        /* \"#utility.yul\":13019:13033   */\n      mul\n        /* \"#utility.yul\":13015:13037   */\n      add\n        /* \"#utility.yul\":13009:13013   */\n      dup9\n        /* \"#utility.yul\":13002:13038   */\n      sstore\n        /* \"#utility.yul\":12437:13048   */\n      pop\n      pop\n      pop\n        /* \"#utility.yul\":12400:13287   */\n    tag_248:\n      pop\n        /* \"#utility.yul\":11990:13293   */\n      pop\n      pop\n      pop\n        /* \"#utility.yul\":11898:13293   */\n      pop\n      pop\n      jump\t// out\n        /* \"#utility.yul\":13299:13479   */\n    tag_105:\n        /* \"#utility.yul\":13347:13424   */\n      0x4e487b7100000000000000000000000000000000000000000000000000000000\n        /* \"#utility.yul\":13344:13345   */\n      0x00\n        /* \"#utility.yul\":13337:13425   */\n      mstore\n        /* \"#utility.yul\":13444:13448   */\n      0x11\n        /* \"#utility.yul\":13441:13442   */\n      0x04\n        /* \"#utility.yul\":13434:13449   */\n      mstore\n        /* \"#utility.yul\":13468:13472   */\n      0x24\n        /* \"#utility.yul\":13465:13466   */\n      0x00\n        /* \"#utility.yul\":13458:13473   */\n      revert\n        /* \"#utility.yul\":13485:13718   */\n    tag_44:\n        /* \"#utility.yul\":13524:13527   */\n      0x00\n        /* \"#utility.yul\":13547:13571   */\n      tag_260\n        /* \"#utility.yul\":13565:13570   */\n      dup3\n        /* \"#utility.yul\":13547:13571   */\n      tag_85\n      jump\t// in\n    tag_260:\n        /* \"#utility.yul\":13538:13571   */\n      swap2\n      pop\n        /* \"#utility.yul\":13593:13659   */\n      0xffffffffffffffffffffffffffffffffffffffffffffffffffffffffffffffff\n        /* \"#utility.yul\":13586:13591   */\n      dup3\n        /* \"#utility.yul\":13583:13660   */\n      sub\n        /* \"#utility.yul\":13580:13683   */\n      tag_261\n      jumpi\n        /* \"#utility.yul\":13663:13681   */\n      tag_262\n      tag_105\n      jump\t// in\n    tag_262:\n        /* \"#utility.yul\":13580:13683   */\n    tag_261:\n        /* \"#utility.yul\":13710:13711   */\n      0x01\n        /* \"#utility.yul\":13703:13708   */\n      dup3\n        /* \"#utility.yul\":13699:13712   */\n      add\n        /* \"#utility.yul\":13692:13712   */\n      swap1\n      pop\n        /* \"#utility.yul\":13485:13718   */\n      swap2\n      swap1\n      pop\n      jump\t// out\n\n    auxdata: 0xa26469706673582212208232833f6957de7169303687536ba625847c78bb7887cb3921091b66441fadff64736f6c634300081f0033\n}\n",
				"bytecode": {
					"linkReferences": {},
					"object": "60806040525f6002553480156012575f5ffd5b50610bdc806100205f395ff3fe608060405234801561000f575f5ffd5b5060043610610060575f3560e01c80635b0025ad1461006457806361fac54d14610080578063993746421461009e578063b331ce46146100ce578063c3c5a547146100ea578063e3d670d71461011a575b5f5ffd5b61007e60048036038101906100799190610574565b61014a565b005b610088610298565b604051610095919061061b565b60405180910390f35b6100b860048036038101906100b39190610695565b610324565b6040516100c59190610733565b60405180910390f35b6100e860048036038101906100e3919061076f565b610341565b005b61010460048036038101906100ff9190610695565b6103f6565b60405161011191906107b4565b60405180910390f35b610134600480360381019061012f9190610695565b610413565b60405161014191906107e5565b60405180910390f35b60015f3373ffffffffffffffffffffffffffffffffffffffff1673ffffffffffffffffffffffffffffffffffffffff1681526020019081526020015f205f9054906101000a900460ff16156101d4576040517f08c379a00000000000000000000000000000000000000000000000000000000081526004016101cb90610848565b60405180910390fd5b6001805f3373ffffffffffffffffffffffffffffffffffffffff1673ffffffffffffffffffffffffffffffffffffffff1681526020019081526020015f205f6101000a81548160ff02191690831515021790555080600390816102379190610a63565b505f60025f81548092919061024b90610b5f565b919050559050803373ffffffffffffffffffffffffffffffffffffffff167e7dc6ab80cc84c043b7b8d4fcafc802187470087f7ea7fccd2e17aecd0256a160405160405180910390a35050565b600380546102a590610893565b80601f01602080910402602001604051908101604052809291908181526020018280546102d190610893565b801561031c5780601f106102f35761010080835404028352916020019161031c565b820191905f5260205f20905b8154815290600101906020018083116102ff57829003601f168201915b505050505081565b6004602052805f5260405f205f915054906101000a900460ff1681565b8060045f3373ffffffffffffffffffffffffffffffffffffffff1673ffffffffffffffffffffffffffffffffffffffff1681526020019081526020015f205f6101000a81548160ff021916908360028111156103a05761039f6106c0565b5b02179055503373ffffffffffffffffffffffffffffffffffffffff167fda4d41475ec50aa8531c242d7d7a0aad94df435c0be1f0cbf130f862bb38290e826040516103eb9190610733565b60405180910390a250565b6001602052805f5260405f205f915054906101000a900460ff1681565b5f602052805f5260405f205f915090505481565b5f604051905090565b5f5ffd5b5f5ffd5b5f5ffd5b5f5ffd5b5f601f19601f8301169050919050565b7f4e487b71000000000000000000000000000000000000000000000000000000005f52604160045260245ffd5b61048682610440565b810181811067ffffffffffffffff821117156104a5576104a4610450565b5b80604052505050565b5f6104b7610427565b90506104c3828261047d565b919050565b5f67ffffffffffffffff8211156104e2576104e1610450565b5b6104eb82610440565b9050602081019050919050565b828183375f83830152505050565b5f610518610513846104c8565b6104ae565b9050828152602081018484840111156105345761053361043c565b5b61053f8482856104f8565b509392505050565b5f82601f83011261055b5761055a610438565b5b813561056b848260208601610506565b91505092915050565b5f6020828403121561058957610588610430565b5b5f82013567ffffffffffffffff8111156105a6576105a5610434565b5b6105b284828501610547565b91505092915050565b5f81519050919050565b5f82825260208201905092915050565b8281835e5f83830152505050565b5f6105ed826105bb565b6105f781856105c5565b93506106078185602086016105d5565b61061081610440565b840191505092915050565b5f6020820190508181035f83015261063381846105e3565b905092915050565b5f73ffffffffffffffffffffffffffffffffffffffff82169050919050565b5f6106648261063b565b9050919050565b6106748161065a565b811461067e575f5ffd5b50565b5f8135905061068f8161066b565b92915050565b5f602082840312156106aa576106a9610430565b5b5f6106b784828501610681565b91505092915050565b7f4e487b71000000000000000000000000000000000000000000000000000000005f52602160045260245ffd5b600381106106fe576106fd6106c0565b5b50565b5f81905061070e826106ed565b919050565b5f61071d82610701565b9050919050565b61072d81610713565b82525050565b5f6020820190506107465f830184610724565b92915050565b60038110610758575f5ffd5b50565b5f813590506107698161074c565b92915050565b5f6020828403121561078457610783610430565b5b5f6107918482850161075b565b91505092915050565b5f8115159050919050565b6107ae8161079a565b82525050565b5f6020820190506107c75f8301846107a5565b92915050565b5f819050919050565b6107df816107cd565b82525050565b5f6020820190506107f85f8301846107d6565b92915050565b7f4163636f756e7420616c726561647920657869737400000000000000000000005f82015250565b5f6108326015836105c5565b915061083d826107fe565b602082019050919050565b5f6020820190508181035f83015261085f81610826565b9050919050565b7f4e487b71000000000000000000000000000000000000000000000000000000005f52602260045260245ffd5b5f60028204905060018216806108aa57607f821691505b6020821081036108bd576108bc610866565b5b50919050565b5f819050815f5260205f209050919050565b5f6020601f8301049050919050565b5f82821b905092915050565b5f6008830261091f7fffffffffffffffffffffffffffffffffffffffffffffffffffffffffffffffff826108e4565b61092986836108e4565b95508019841693508086168417925050509392505050565b5f819050919050565b5f61096461095f61095a846107cd565b610941565b6107cd565b9050919050565b5f819050919050565b61097d8361094a565b6109916109898261096b565b8484546108f0565b825550505050565b5f5f905090565b6109a8610999565b6109b3818484610974565b505050565b5b818110156109d6576109cb5f826109a0565b6001810190506109b9565b5050565b601f821115610a1b576109ec816108c3565b6109f5846108d5565b81016020851015610a04578190505b610a18610a10856108d5565b8301826109b8565b50505b505050565b5f82821c905092915050565b5f610a3b5f1984600802610a20565b1980831691505092915050565b5f610a538383610a2c565b9150826002028217905092915050565b610a6c826105bb565b67ffffffffffffffff811115610a8557610a84610450565b5b610a8f8254610893565b610a9a8282856109da565b5f60209050601f831160018114610acb575f8415610ab9578287015190505b610ac38582610a48565b865550610b2a565b601f198416610ad9866108c3565b5f5b82811015610b0057848901518255600182019150602085019450602081019050610adb565b86831015610b1d5784890151610b19601f891682610a2c565b8355505b6001600288020188555050505b505050505050565b7f4e487b71000000000000000000000000000000000000000000000000000000005f52601160045260245ffd5b5f610b69826107cd565b91507fffffffffffffffffffffffffffffffffffffffffffffffffffffffffffffffff8203610b9b57610b9a610b32565b5b60018201905091905056fea26469706673582212208232833f6957de7169303687536ba625847c78bb7887cb3921091b66441fadff64736f6c634300081f0033",
					"opcodes": "PUSH1 0x80 PUSH1 0x40 MSTORE PUSH0 PUSH1 0x2 SSTORE CALLVALUE DUP1 ISZERO PUSH1 0x12 JUMPI PUSH0 PUSH0 REVERT JUMPDEST POP PUSH2 0xBDC DUP1 PUSH2 0x20 PUSH0 CODECOPY PUSH0 RETURN INVALID PUSH1 0x80 PUSH1 0x40 MSTORE CALLVALUE DUP1 ISZERO PUSH2 0xF JUMPI PUSH0 PUSH0 REVERT JUMPDEST POP PUSH1 0x4 CALLDATASIZE LT PUSH2 0x60 JUMPI PUSH0 CALLDATALOAD PUSH1 0xE0 SHR DUP1 PUSH4 0x5B0025AD EQ PUSH2 0x64 JUMPI DUP1 PUSH4 0x61FAC54D EQ PUSH2 0x80 JUMPI DUP1 PUSH4 0x99374642 EQ PUSH2 0x9E JUMPI DUP1 PUSH4 0xB331CE46 EQ PUSH2 0xCE JUMPI DUP1 PUSH4 0xC3C5A547 EQ PUSH2 0xEA JUMPI DUP1 PUSH4 0xE3D670D7 EQ PUSH2 0x11A JUMPI JUMPDEST PUSH0 PUSH0 REVERT JUMPDEST PUSH2 0x7E PUSH1 0x4 DUP1 CALLDATASIZE SUB DUP2 ADD SWAP1 PUSH2 0x79 SWAP2 SWAP1 PUSH2 0x574 JUMP JUMPDEST PUSH2 0x14A JUMP JUMPDEST STOP JUMPDEST PUSH2 0x88 PUSH2 0x298 JUMP JUMPDEST PUSH1 0x40 MLOAD PUSH2 0x95 SWAP2 SWAP1 PUSH2 0x61B JUMP JUMPDEST PUSH1 0x40 MLOAD DUP1 SWAP2 SUB SWAP1 RETURN JUMPDEST PUSH2 0xB8 PUSH1 0x4 DUP1 CALLDATASIZE SUB DUP2 ADD SWAP1 PUSH2 0xB3 SWAP2 SWAP1 PUSH2 0x695 JUMP JUMPDEST PUSH2 0x324 JUMP JUMPDEST PUSH1 0x40 MLOAD PUSH2 0xC5 SWAP2 SWAP1 PUSH2 0x733 JUMP JUMPDEST PUSH1 0x40 MLOAD DUP1 SWAP2 SUB SWAP1 RETURN JUMPDEST PUSH2 0xE8 PUSH1 0x4 DUP1 CALLDATASIZE SUB DUP2 ADD SWAP1 PUSH2 0xE3 SWAP2 SWAP1 PUSH2 0x76F JUMP JUMPDEST PUSH2 0x341 JUMP JUMPDEST STOP JUMPDEST PUSH2 0x104 PUSH1 0x4 DUP1 CALLDATASIZE SUB DUP2 ADD SWAP1 PUSH2 0xFF SWAP2 SWAP1 PUSH2 0x695 JUMP JUMPDEST PUSH2 0x3F6 JUMP JUMPDEST PUSH1 0x40 MLOAD PUSH2 0x111 SWAP2 SWAP1 PUSH2 0x7B4 JUMP JUMPDEST PUSH1 0x40 MLOAD DUP1 SWAP2 SUB SWAP1 RETURN JUMPDEST PUSH2 0x134 PUSH1 0x4 DUP1 CALLDATASIZE SUB DUP2 ADD SWAP1 PUSH2 0x12F SWAP2 SWAP1 PUSH2 0x695 JUMP JUMPDEST PUSH2 0x413 JUMP JUMPDEST PUSH1 0x40 MLOAD PUSH2 0x141 SWAP2 SWAP1 PUSH2 0x7E5 JUMP JUMPDEST PUSH1 0x40 MLOAD DUP1 SWAP2 SUB SWAP1 RETURN JUMPDEST PUSH1 0x1 PUSH0 CALLER PUSH20 0xFFFFFFFFFFFFFFFFFFFFFFFFFFFFFFFFFFFFFFFF AND PUSH20 0xFFFFFFFFFFFFFFFFFFFFFFFFFFFFFFFFFFFFFFFF AND DUP2 MSTORE PUSH1 0x20 ADD SWAP1 DUP2 MSTORE PUSH1 0x20 ADD PUSH0 KECCAK256 PUSH0 SWAP1 SLOAD SWAP1 PUSH2 0x100 EXP SWAP1 DIV PUSH1 0xFF AND ISZERO PUSH2 0x1D4 JUMPI PUSH1 0x40 MLOAD PUSH32 0x8C379A000000000000000000000000000000000000000000000000000000000 DUP2 MSTORE PUSH1 0x4 ADD PUSH2 0x1CB SWAP1 PUSH2 0x848 JUMP JUMPDEST PUSH1 0x40 MLOAD DUP1 SWAP2 SUB SWAP1 REVERT JUMPDEST PUSH1 0x1 DUP1 PUSH0 CALLER PUSH20 0xFFFFFFFFFFFFFFFFFFFFFFFFFFFFFFFFFFFFFFFF AND PUSH20 0xFFFFFFFFFFFFFFFFFFFFFFFFFFFFFFFFFFFFFFFF AND DUP2 MSTORE PUSH1 0x20 ADD SWAP1 DUP2 MSTORE PUSH1 0x20 ADD PUSH0 KECCAK256 PUSH0 PUSH2 0x100 EXP DUP2 SLOAD DUP2 PUSH1 0xFF MUL NOT AND SWAP1 DUP4 ISZERO ISZERO MUL OR SWAP1 SSTORE POP DUP1 PUSH1 0x3 SWAP1 DUP2 PUSH2 0x237 SWAP2 SWAP1 PUSH2 0xA63 JUMP JUMPDEST POP PUSH0 PUSH1 0x2 PUSH0 DUP2 SLOAD DUP1 SWAP3 SWAP2 SWAP1 PUSH2 0x24B SWAP1 PUSH2 0xB5F JUMP JUMPDEST SWAP2 SWAP1 POP SSTORE SWAP1 POP DUP1 CALLER PUSH20 0xFFFFFFFFFFFFFFFFFFFFFFFFFFFFFFFFFFFFFFFF AND PUSH31 0x7DC6AB80CC84C043B7B8D4FCAFC802187470087F7EA7FCCD2E17AECD0256A1 PUSH1 0x40 MLOAD PUSH1 0x40 MLOAD DUP1 SWAP2 SUB SWAP1 LOG3 POP POP JUMP JUMPDEST PUSH1 0x3 DUP1 SLOAD PUSH2 0x2A5 SWAP1 PUSH2 0x893 JUMP JUMPDEST DUP1 PUSH1 0x1F ADD PUSH1 0x20 DUP1 SWAP2 DIV MUL PUSH1 0x20 ADD PUSH1 0x40 MLOAD SWAP1 DUP2 ADD PUSH1 0x40 MSTORE DUP1 SWAP3 SWAP2 SWAP1 DUP2 DUP2 MSTORE PUSH1 0x20 ADD DUP3 DUP1 SLOAD PUSH2 0x2D1 SWAP1 PUSH2 0x893 JUMP JUMPDEST DUP1 ISZERO PUSH2 0x31C JUMPI DUP1 PUSH1 0x1F LT PUSH2 0x2F3 JUMPI PUSH2 0x100 DUP1 DUP4 SLOAD DIV MUL DUP4 MSTORE SWAP2 PUSH1 0x20 ADD SWAP2 PUSH2 0x31C JUMP JUMPDEST DUP3 ADD SWAP2 SWAP1 PUSH0 MSTORE PUSH1 0x20 PUSH0 KECCAK256 SWAP1 JUMPDEST DUP2 SLOAD DUP2 MSTORE SWAP1 PUSH1 0x1 ADD SWAP1 PUSH1 0x20 ADD DUP1 DUP4 GT PUSH2 0x2FF JUMPI DUP3 SWAP1 SUB PUSH1 0x1F AND DUP3 ADD SWAP2 JUMPDEST POP POP POP POP POP DUP2 JUMP JUMPDEST PUSH1 0x4 PUSH1 0x20 MSTORE DUP1 PUSH0 MSTORE PUSH1 0x40 PUSH0 KECCAK256 PUSH0 SWAP2 POP SLOAD SWAP1 PUSH2 0x100 EXP SWAP1 DIV PUSH1 0xFF AND DUP2 JUMP JUMPDEST DUP1 PUSH1 0x4 PUSH0 CALLER PUSH20 0xFFFFFFFFFFFFFFFFFFFFFFFFFFFFFFFFFFFFFFFF AND PUSH20 0xFFFFFFFFFFFFFFFFFFFFFFFFFFFFFFFFFFFFFFFF AND DUP2 MSTORE PUSH1 0x20 ADD SWAP1 DUP2 MSTORE PUSH1 0x20 ADD PUSH0 KECCAK256 PUSH0 PUSH2 0x100 EXP DUP2 SLOAD DUP2 PUSH1 0xFF MUL NOT AND SWAP1 DUP4 PUSH1 0x2 DUP2 GT ISZERO PUSH2 0x3A0 JUMPI PUSH2 0x39F PUSH2 0x6C0 JUMP JUMPDEST JUMPDEST MUL OR SWAP1 SSTORE POP CALLER PUSH20 0xFFFFFFFFFFFFFFFFFFFFFFFFFFFFFFFFFFFFFFFF AND PUSH32 0xDA4D41475EC50AA8531C242D7D7A0AAD94DF435C0BE1F0CBF130F862BB38290E DUP3 PUSH1 0x40 MLOAD PUSH2 0x3EB SWAP2 SWAP1 PUSH2 0x733 JUMP JUMPDEST PUSH1 0x40 MLOAD DUP1 SWAP2 SUB SWAP1 LOG2 POP JUMP JUMPDEST PUSH1 0x1 PUSH1 0x20 MSTORE DUP1 PUSH0 MSTORE PUSH1 0x40 PUSH0 KECCAK256 PUSH0 SWAP2 POP SLOAD SWAP1 PUSH2 0x100 EXP SWAP1 DIV PUSH1 0xFF AND DUP2 JUMP JUMPDEST PUSH0 PUSH1 0x20 MSTORE DUP1 PUSH0 MSTORE PUSH1 0x40 PUSH0 KECCAK256 PUSH0 SWAP2 POP SWAP1 POP SLOAD DUP2 JUMP JUMPDEST PUSH0 PUSH1 0x40 MLOAD SWAP1 POP SWAP1 JUMP JUMPDEST PUSH0 PUSH0 REVERT JUMPDEST PUSH0 PUSH0 REVERT JUMPDEST PUSH0 PUSH0 REVERT JUMPDEST PUSH0 PUSH0 REVERT JUMPDEST PUSH0 PUSH1 0x1F NOT PUSH1 0x1F DUP4 ADD AND SWAP1 POP SWAP2 SWAP1 POP JUMP JUMPDEST PUSH32 0x4E487B7100000000000000000000000000000000000000000000000000000000 PUSH0 MSTORE PUSH1 0x41 PUSH1 0x4 MSTORE PUSH1 0x24 PUSH0 REVERT JUMPDEST PUSH2 0x486 DUP3 PUSH2 0x440 JUMP JUMPDEST DUP2 ADD DUP2 DUP2 LT PUSH8 0xFFFFFFFFFFFFFFFF DUP3 GT OR ISZERO PUSH2 0x4A5 JUMPI PUSH2 0x4A4 PUSH2 0x450 JUMP JUMPDEST JUMPDEST DUP1 PUSH1 0x40 MSTORE POP POP POP JUMP JUMPDEST PUSH0 PUSH2 0x4B7 PUSH2 0x427 JUMP JUMPDEST SWAP1 POP PUSH2 0x4C3 DUP3 DUP3 PUSH2 0x47D JUMP JUMPDEST SWAP2 SWAP1 POP JUMP JUMPDEST PUSH0 PUSH8 0xFFFFFFFFFFFFFFFF DUP3 GT ISZERO PUSH2 0x4E2 JUMPI PUSH2 0x4E1 PUSH2 0x450 JUMP JUMPDEST JUMPDEST PUSH2 0x4EB DUP3 PUSH2 0x440 JUMP JUMPDEST SWAP1 POP PUSH1 0x20 DUP2 ADD SWAP1 POP SWAP2 SWAP1 POP JUMP JUMPDEST DUP3 DUP2 DUP4 CALLDATACOPY PUSH0 DUP4 DUP4 ADD MSTORE POP POP POP JUMP JUMPDEST PUSH0 PUSH2 0x518 PUSH2 0x513 DUP5 PUSH2 0x4C8 JUMP JUMPDEST PUSH2 0x4AE JUMP JUMPDEST SWAP1 POP DUP3 DUP2 MSTORE PUSH1 0x20 DUP2 ADD DUP5 DUP5 DUP5 ADD GT ISZERO PUSH2 0x534 JUMPI PUSH2 0x533 PUSH2 0x43C JUMP JUMPDEST JUMPDEST PUSH2 0x53F DUP5 DUP3 DUP6 PUSH2 0x4F8 JUMP JUMPDEST POP SWAP4 SWAP3 POP POP POP JUMP JUMPDEST PUSH0 DUP3 PUSH1 0x1F DUP4 ADD SLT PUSH2 0x55B JUMPI PUSH2 0x55A PUSH2 0x438 JUMP JUMPDEST JUMPDEST DUP2 CALLDATALOAD PUSH2 0x56B DUP5 DUP3 PUSH1 0x20 DUP7 ADD PUSH2 0x506 JUMP JUMPDEST SWAP2 POP POP SWAP3 SWAP2 POP POP JUMP JUMPDEST PUSH0 PUSH1 0x20 DUP3 DUP5 SUB SLT ISZERO PUSH2 0x589 JUMPI PUSH2 0x588 PUSH2 0x430 JUMP JUMPDEST JUMPDEST PUSH0 DUP3 ADD CALLDATALOAD PUSH8 0xFFFFFFFFFFFFFFFF DUP2 GT ISZERO PUSH2 0x5A6 JUMPI PUSH2 0x5A5 PUSH2 0x434 JUMP JUMPDEST JUMPDEST PUSH2 0x5B2 DUP5 DUP3 DUP6 ADD PUSH2 0x547 JUMP JUMPDEST SWAP2 POP POP SWAP3 SWAP2 POP POP JUMP JUMPDEST PUSH0 DUP2 MLOAD SWAP1 POP SWAP2 SWAP1 POP JUMP JUMPDEST PUSH0 DUP3 DUP3 MSTORE PUSH1 0x20 DUP3 ADD SWAP1 POP SWAP3 SWAP2 POP POP JUMP JUMPDEST DUP3 DUP2 DUP4 MCOPY PUSH0 DUP4 DUP4 ADD MSTORE POP POP POP JUMP JUMPDEST PUSH0 PUSH2 0x5ED DUP3 PUSH2 0x5BB JUMP JUMPDEST PUSH2 0x5F7 DUP2 DUP6 PUSH2 0x5C5 JUMP JUMPDEST SWAP4 POP PUSH2 0x607 DUP2 DUP6 PUSH1 0x20 DUP7 ADD PUSH2 0x5D5 JUMP JUMPDEST PUSH2 0x610 DUP2 PUSH2 0x440 JUMP JUMPDEST DUP5 ADD SWAP2 POP POP SWAP3 SWAP2 POP POP JUMP JUMPDEST PUSH0 PUSH1 0x20 DUP3 ADD SWAP1 POP DUP2 DUP2 SUB PUSH0 DUP4 ADD MSTORE PUSH2 0x633 DUP2 DUP5 PUSH2 0x5E3 JUMP JUMPDEST SWAP1 POP SWAP3 SWAP2 POP POP JUMP JUMPDEST PUSH0 PUSH20 0xFFFFFFFFFFFFFFFFFFFFFFFFFFFFFFFFFFFFFFFF DUP3 AND SWAP1 POP SWAP2 SWAP1 POP JUMP JUMPDEST PUSH0 PUSH2 0x664 DUP3 PUSH2 0x63B JUMP JUMPDEST SWAP1 POP SWAP2 SWAP1 POP JUMP JUMPDEST PUSH2 0x674 DUP2 PUSH2 0x65A JUMP JUMPDEST DUP2 EQ PUSH2 0x67E JUMPI PUSH0 PUSH0 REVERT JUMPDEST POP JUMP JUMPDEST PUSH0 DUP2 CALLDATALOAD SWAP1 POP PUSH2 0x68F DUP2 PUSH2 0x66B JUMP JUMPDEST SWAP3 SWAP2 POP POP JUMP JUMPDEST PUSH0 PUSH1 0x20 DUP3 DUP5 SUB SLT ISZERO PUSH2 0x6AA JUMPI PUSH2 0x6A9 PUSH2 0x430 JUMP JUMPDEST JUMPDEST PUSH0 PUSH2 0x6B7 DUP5 DUP3 DUP6 ADD PUSH2 0x681 JUMP JUMPDEST SWAP2 POP POP SWAP3 SWAP2 POP POP JUMP JUMPDEST PUSH32 0x4E487B7100000000000000000000000000000000000000000000000000000000 PUSH0 MSTORE PUSH1 0x21 PUSH1 0x4 MSTORE PUSH1 0x24 PUSH0 REVERT JUMPDEST PUSH1 0x3 DUP2 LT PUSH2 0x6FE JUMPI PUSH2 0x6FD PUSH2 0x6C0 JUMP JUMPDEST JUMPDEST POP JUMP JUMPDEST PUSH0 DUP2 SWAP1 POP PUSH2 0x70E DUP3 PUSH2 0x6ED JUMP JUMPDEST SWAP2 SWAP1 POP JUMP JUMPDEST PUSH0 PUSH2 0x71D DUP3 PUSH2 0x701 JUMP JUMPDEST SWAP1 POP SWAP2 SWAP1 POP JUMP JUMPDEST PUSH2 0x72D DUP2 PUSH2 0x713 JUMP JUMPDEST DUP3 MSTORE POP POP JUMP JUMPDEST PUSH0 PUSH1 0x20 DUP3 ADD SWAP1 POP PUSH2 0x746 PUSH0 DUP4 ADD DUP5 PUSH2 0x724 JUMP JUMPDEST SWAP3 SWAP2 POP POP JUMP JUMPDEST PUSH1 0x3 DUP2 LT PUSH2 0x758 JUMPI PUSH0 PUSH0 REVERT JUMPDEST POP JUMP JUMPDEST PUSH0 DUP2 CALLDATALOAD SWAP1 POP PUSH2 0x769 DUP2 PUSH2 0x74C JUMP JUMPDEST SWAP3 SWAP2 POP POP JUMP JUMPDEST PUSH0 PUSH1 0x20 DUP3 DUP5 SUB SLT ISZERO PUSH2 0x784 JUMPI PUSH2 0x783 PUSH2 0x430 JUMP JUMPDEST JUMPDEST PUSH0 PUSH2 0x791 DUP5 DUP3 DUP6 ADD PUSH2 0x75B JUMP JUMPDEST SWAP2 POP POP SWAP3 SWAP2 POP POP JUMP JUMPDEST PUSH0 DUP2 ISZERO ISZERO SWAP1 POP SWAP2 SWAP1 POP JUMP JUMPDEST PUSH2 0x7AE DUP2 PUSH2 0x79A JUMP JUMPDEST DUP3 MSTORE POP POP JUMP JUMPDEST PUSH0 PUSH1 0x20 DUP3 ADD SWAP1 POP PUSH2 0x7C7 PUSH0 DUP4 ADD DUP5 PUSH2 0x7A5 JUMP JUMPDEST SWAP3 SWAP2 POP POP JUMP JUMPDEST PUSH0 DUP2 SWAP1 POP SWAP2 SWAP1 POP JUMP JUMPDEST PUSH2 0x7DF DUP2 PUSH2 0x7CD JUMP JUMPDEST DUP3 MSTORE POP POP JUMP JUMPDEST PUSH0 PUSH1 0x20 DUP3 ADD SWAP1 POP PUSH2 0x7F8 PUSH0 DUP4 ADD DUP5 PUSH2 0x7D6 JUMP JUMPDEST SWAP3 SWAP2 POP POP JUMP JUMPDEST PUSH32 0x4163636F756E7420616C72656164792065786973740000000000000000000000 PUSH0 DUP3 ADD MSTORE POP JUMP JUMPDEST PUSH0 PUSH2 0x832 PUSH1 0x15 DUP4 PUSH2 0x5C5 JUMP JUMPDEST SWAP2 POP PUSH2 0x83D DUP3 PUSH2 0x7FE JUMP JUMPDEST PUSH1 0x20 DUP3 ADD SWAP1 POP SWAP2 SWAP1 POP JUMP JUMPDEST PUSH0 PUSH1 0x20 DUP3 ADD SWAP1 POP DUP2 DUP2 SUB PUSH0 DUP4 ADD MSTORE PUSH2 0x85F DUP2 PUSH2 0x826 JUMP JUMPDEST SWAP1 POP SWAP2 SWAP1 POP JUMP JUMPDEST PUSH32 0x4E487B7100000000000000000000000000000000000000000000000000000000 PUSH0 MSTORE PUSH1 0x22 PUSH1 0x4 MSTORE PUSH1 0x24 PUSH0 REVERT JUMPDEST PUSH0 PUSH1 0x2 DUP3 DIV SWAP1 POP PUSH1 0x1 DUP3 AND DUP1 PUSH2 0x8AA JUMPI PUSH1 0x7F DUP3 AND SWAP2 POP JUMPDEST PUSH1 0x20 DUP3 LT DUP2 SUB PUSH2 0x8BD JUMPI PUSH2 0x8BC PUSH2 0x866 JUMP JUMPDEST JUMPDEST POP SWAP2 SWAP1 POP JUMP JUMPDEST PUSH0 DUP2 SWAP1 POP DUP2 PUSH0 MSTORE PUSH1 0x20 PUSH0 KECCAK256 SWAP1 POP SWAP2 SWAP1 POP JUMP JUMPDEST PUSH0 PUSH1 0x20 PUSH1 0x1F DUP4 ADD DIV SWAP1 POP SWAP2 SWAP1 POP JUMP JUMPDEST PUSH0 DUP3 DUP3 SHL SWAP1 POP SWAP3 SWAP2 POP POP JUMP JUMPDEST PUSH0 PUSH1 0x8 DUP4 MUL PUSH2 0x91F PUSH32 0xFFFFFFFFFFFFFFFFFFFFFFFFFFFFFFFFFFFFFFFFFFFFFFFFFFFFFFFFFFFFFFFF DUP3 PUSH2 0x8E4 JUMP JUMPDEST PUSH2 0x929 DUP7 DUP4 PUSH2 0x8E4 JUMP JUMPDEST SWAP6 POP DUP1 NOT DUP5 AND SWAP4 POP DUP1 DUP7 AND DUP5 OR SWAP3 POP POP POP SWAP4 SWAP3 POP POP POP JUMP JUMPDEST PUSH0 DUP2 SWAP1 POP SWAP2 SWAP1 POP JUMP JUMPDEST PUSH0 PUSH2 0x964 PUSH2 0x95F PUSH2 0x95A DUP5 PUSH2 0x7CD JUMP JUMPDEST PUSH2 0x941 JUMP JUMPDEST PUSH2 0x7CD JUMP JUMPDEST SWAP1 POP SWAP2 SWAP1 POP JUMP JUMPDEST PUSH0 DUP2 SWAP1 POP SWAP2 SWAP1 POP JUMP JUMPDEST PUSH2 0x97D DUP4 PUSH2 0x94A JUMP JUMPDEST PUSH2 0x991 PUSH2 0x989 DUP3 PUSH2 0x96B JUMP JUMPDEST DUP5 DUP5 SLOAD PUSH2 0x8F0 JUMP JUMPDEST DUP3 SSTORE POP POP POP POP JUMP JUMPDEST PUSH0 PUSH0 SWAP1 POP SWAP1 JUMP JUMPDEST PUSH2 0x9A8 PUSH2 0x999 JUMP JUMPDEST PUSH2 0x9B3 DUP2 DUP5 DUP5 PUSH2 0x974 JUMP JUMPDEST POP POP POP JUMP JUMPDEST JUMPDEST DUP2 DUP2 LT ISZERO PUSH2 0x9D6 JUMPI PUSH2 0x9CB PUSH0 DUP3 PUSH2 0x9A0 JUMP JUMPDEST PUSH1 0x1 DUP2 ADD SWAP1 POP PUSH2 0x9B9 JUMP JUMPDEST POP POP JUMP JUMPDEST PUSH1 0x1F DUP3 GT ISZERO PUSH2 0xA1B JUMPI PUSH2 0x9EC DUP2 PUSH2 0x8C3 JUMP JUMPDEST PUSH2 0x9F5 DUP5 PUSH2 0x8D5 JUMP JUMPDEST DUP2 ADD PUSH1 0x20 DUP6 LT ISZERO PUSH2 0xA04 JUMPI DUP2 SWAP1 POP JUMPDEST PUSH2 0xA18 PUSH2 0xA10 DUP6 PUSH2 0x8D5 JUMP JUMPDEST DUP4 ADD DUP3 PUSH2 0x9B8 JUMP JUMPDEST POP POP JUMPDEST POP POP POP JUMP JUMPDEST PUSH0 DUP3 DUP3 SHR SWAP1 POP SWAP3 SWAP2 POP POP JUMP JUMPDEST PUSH0 PUSH2 0xA3B PUSH0 NOT DUP5 PUSH1 0x8 MUL PUSH2 0xA20 JUMP JUMPDEST NOT DUP1 DUP4 AND SWAP2 POP POP SWAP3 SWAP2 POP POP JUMP JUMPDEST PUSH0 PUSH2 0xA53 DUP4 DUP4 PUSH2 0xA2C JUMP JUMPDEST SWAP2 POP DUP3 PUSH1 0x2 MUL DUP3 OR SWAP1 POP SWAP3 SWAP2 POP POP JUMP JUMPDEST PUSH2 0xA6C DUP3 PUSH2 0x5BB JUMP JUMPDEST PUSH8 0xFFFFFFFFFFFFFFFF DUP2 GT ISZERO PUSH2 0xA85 JUMPI PUSH2 0xA84 PUSH2 0x450 JUMP JUMPDEST JUMPDEST PUSH2 0xA8F DUP3 SLOAD PUSH2 0x893 JUMP JUMPDEST PUSH2 0xA9A DUP3 DUP3 DUP6 PUSH2 0x9DA JUMP JUMPDEST PUSH0 PUSH1 0x20 SWAP1 POP PUSH1 0x1F DUP4 GT PUSH1 0x1 DUP2 EQ PUSH2 0xACB JUMPI PUSH0 DUP5 ISZERO PUSH2 0xAB9 JUMPI DUP3 DUP8 ADD MLOAD SWAP1 POP JUMPDEST PUSH2 0xAC3 DUP6 DUP3 PUSH2 0xA48 JUMP JUMPDEST DUP7 SSTORE POP PUSH2 0xB2A JUMP JUMPDEST PUSH1 0x1F NOT DUP5 AND PUSH2 0xAD9 DUP7 PUSH2 0x8C3 JUMP JUMPDEST PUSH0 JUMPDEST DUP3 DUP2 LT ISZERO PUSH2 0xB00 JUMPI DUP5 DUP10 ADD MLOAD DUP3 SSTORE PUSH1 0x1 DUP3 ADD SWAP2 POP PUSH1 0x20 DUP6 ADD SWAP5 POP PUSH1 0x20 DUP2 ADD SWAP1 POP PUSH2 0xADB JUMP JUMPDEST DUP7 DUP4 LT ISZERO PUSH2 0xB1D JUMPI DUP5 DUP10 ADD MLOAD PUSH2 0xB19 PUSH1 0x1F DUP10 AND DUP3 PUSH2 0xA2C JUMP JUMPDEST DUP4 SSTORE POP JUMPDEST PUSH1 0x1 PUSH1 0x2 DUP9 MUL ADD DUP9 SSTORE POP POP POP JUMPDEST POP POP POP POP POP POP JUMP JUMPDEST PUSH32 0x4E487B7100000000000000000000000000000000000000000000000000000000 PUSH0 MSTORE PUSH1 0x11 PUSH1 0x4 MSTORE PUSH1 0x24 PUSH0 REVERT JUMPDEST PUSH0 PUSH2 0xB69 DUP3 PUSH2 0x7CD JUMP JUMPDEST SWAP2 POP PUSH32 0xFFFFFFFFFFFFFFFFFFFFFFFFFFFFFFFFFFFFFFFFFFFFFFFFFFFFFFFFFFFFFFFF DUP3 SUB PUSH2 0xB9B JUMPI PUSH2 0xB9A PUSH2 0xB32 JUMP JUMPDEST JUMPDEST PUSH1 0x1 DUP3 ADD SWAP1 POP SWAP2 SWAP1 POP JUMP INVALID LOG2 PUSH5 0x6970667358 0x22 SLT KECCAK256 DUP3 ORIGIN DUP4 EXTCODEHASH PUSH10 0x57DE7169303687536BA6 0x25 DUP5 PUSH29 0x78BB7887CB3921091B66441FADFF64736F6C634300081F003300000000 "
				},
				"gasEstimates": {
					"creation": {
						"codeDepositCost": "607200",
						"executionCost": "5641",
						"totalCost": "612841"
					},
					"external": {
						"ChangeRole(uint8)": "26441",
						"RegisterNow(string)": "infinite",
						"balance(address)": "2889",
						"isRegistered(address)": "2899",
						"roles(address)": "2943",
						"username()": "infinite"
					}
				},
				"methodIdentifiers": {
					"ChangeRole(uint8)": "b331ce46",
					"RegisterNow(string)": "5b0025ad",
					"balance(address)": "e3d670d7",
					"isRegistered(address)": "c3c5a547",
					"roles(address)": "99374642",
					"username()": "61fac54d"
				}
			},
			"storageLayout": {
				"storage": [
					{
						"astId": 5,
						"contract": "W3day4.sol:registration",
						"label": "balance",
						"offset": 0,
						"slot": "0",
						"type": "t_mapping(t_address,t_uint256)"
					},
					{
						"astId": 9,
						"contract": "W3day4.sol:registration",
						"label": "isRegistered",
						"offset": 0,
						"slot": "1",
						"type": "t_mapping(t_address,t_bool)"
					},
					{
						"astId": 12,
						"contract": "W3day4.sol:registration",
						"label": "id",
						"offset": 0,
						"slot": "2",
						"type": "t_uint256"
					},
					{
						"astId": 14,
						"contract": "W3day4.sol:registration",
						"label": "username",
						"offset": 0,
						"slot": "3",
						"type": "t_string_storage"
					},
					{
						"astId": 23,
						"contract": "W3day4.sol:registration",
						"label": "roles",
						"offset": 0,
						"slot": "4",
						"type": "t_mapping(t_address,t_enum(Role)18)"
					}
				],
				"types": {
					"t_address": {
						"encoding": "inplace",
						"label": "address",
						"numberOfBytes": "20"
					},
					"t_bool": {
						"encoding": "inplace",
						"label": "bool",
						"numberOfBytes": "1"
					},
					"t_enum(Role)18": {
						"encoding": "inplace",
						"label": "enum registration.Role",
						"numberOfBytes": "1"
					},
					"t_mapping(t_address,t_bool)": {
						"encoding": "mapping",
						"key": "t_address",
						"label": "mapping(address => bool)",
						"numberOfBytes": "32",
						"value": "t_bool"
					},
					"t_mapping(t_address,t_enum(Role)18)": {
						"encoding": "mapping",
						"key": "t_address",
						"label": "mapping(address => enum registration.Role)",
						"numberOfBytes": "32",
						"value": "t_enum(Role)18"
					},
					"t_mapping(t_address,t_uint256)": {
						"encoding": "mapping",
						"key": "t_address",
						"label": "mapping(address => uint256)",
						"numberOfBytes": "32",
						"value": "t_uint256"
					},
					"t_string_storage": {
						"encoding": "bytes",
						"label": "string",
						"numberOfBytes": "32"
					},
					"t_uint256": {
						"encoding": "inplace",
						"label": "uint256",
						"numberOfBytes": "32"
					}
				}
			},
			"userdoc": {
				"kind": "user",
				"methods": {},
				"version": 1
			}
		}
	}
}