{
	"W3day4.sol": {
		"registration": {
			"abi": [
				{
					"inputs": [],
					"stateMutability": "nonpayable",
					"type": "constructor"
				},
				{
					"anonymous": false,
					"inputs": [
						{
							"indexed": true,
							"internalType": "address",
							"name": "user",
							"type": "address"
						},
						{
							"indexed": false,
							"internalType": "uint256",
							"name": "amount",
							"type": "uint256"
						}
					],
					"name": "Balance",
					"type": "event"
				},
				{
					"anonymous": false,
					"inputs": [
						{
							"indexed": true,
							"internalType": "address",
							"name": "user",
							"type": "address"
						},
						{
							"indexed": true,
							"internalType": "uint256",
							"name": "uid",
							"type": "uint256"
						}
					],
					"name": "Register",
					"type": "event"
				},
				{
					"anonymous": false,
					"inputs": [
						{
							"indexed": true,
							"internalType": "address",
							"name": "user",
							"type": "address"
						},
						{
							"indexed": false,
							"internalType": "enum registration.Role",
							"name": "roles",
							"type": "uint8"
						}
					],
					"name": "Roole",
					"type": "event"
				},
				{
					"inputs": [
						{
							"internalType": "address",
							"name": "_user",
							"type": "address"
						},
						{
							"internalType": "enum registration.Role",
							"name": "_roles",
							"type": "uint8"
						}
					],
					"name": "ChangeRole",
					"outputs": [],
					"stateMutability": "nonpayable",
					"type": "function"
				},
				{
					"inputs": [
						{
							"internalType": "address",
							"name": "_user",
							"type": "address"
						}
					],
					"name": "IncreaseBalance",
					"outputs": [],
					"stateMutability": "payable",
					"type": "function"
				},
				{
					"inputs": [
						{
							"internalType": "string",
							"name": "_username",
							"type": "string"
						}
					],
					"name": "RegisterNow",
					"outputs": [],
					"stateMutability": "nonpayable",
					"type": "function"
				},
				{
					"inputs": [],
					"name": "admin",
					"outputs": [
						{
							"internalType": "address",
							"name": "",
							"type": "address"
						}
					],
					"stateMutability": "view",
					"type": "function"
				},
				{
					"inputs": [
						{
							"internalType": "address",
							"name": "",
							"type": "address"
						}
					],
					"name": "balance",
					"outputs": [
						{
							"internalType": "uint256",
							"name": "",
							"type": "uint256"
						}
					],
					"stateMutability": "view",
					"type": "function"
				},
				{
					"inputs": [
						{
							"internalType": "address",
							"name": "",
							"type": "address"
						}
					],
					"name": "isRegistered",
					"outputs": [
						{
							"internalType": "bool",
							"name": "",
							"type": "bool"
						}
					],
					"stateMutability": "view",
					"type": "function"
				},
				{
					"inputs": [
						{
							"internalType": "address",
							"name": "",
							"type": "address"
						}
					],
					"name": "roles",
					"outputs": [
						{
							"internalType": "enum registration.Role",
							"name": "",
							"type": "uint8"
						}
					],
					"stateMutability": "view",
					"type": "function"
				}
			],
			"devdoc": {
				"kind": "dev",
				"methods": {},
				"version": 1
			},
			"evm": {
				"assembly": "    /* \"W3day4.sol\":1207:2534  contract registration{... */\n  mstore(0x40, 0x80)\n    /* \"W3day4.sol\":1356:1357  0 */\n  0x00\n    /* \"W3day4.sol\":1335:1357  uint256 private id = 0 */\n  0x02\n  sstore\n    /* \"W3day4.sol\":1423:1474  constructor() {... */\n  callvalue\n  dup1\n  iszero\n  tag_1\n  jumpi\n  revert(0x00, 0x00)\ntag_1:\n  pop\n    /* \"W3day4.sol\":1456:1466  msg.sender */\n  caller\n    /* \"W3day4.sol\":1448:1453  admin */\n  0x04\n  0x00\n    /* \"W3day4.sol\":1448:1466  admin = msg.sender */\n  0x0100\n  exp\n  dup2\n  sload\n  dup2\n  0xffffffffffffffffffffffffffffffffffffffff\n  mul\n  not\n  and\n  swap1\n  dup4\n  0xffffffffffffffffffffffffffffffffffffffff\n  and\n  mul\n  or\n  swap1\n  sstore\n  pop\n    /* \"W3day4.sol\":1207:2534  contract registration{... */\n  dataSize(sub_0)\n  dup1\n  dataOffset(sub_0)\n  0x00\n  codecopy\n  0x00\n  return\nstop\n\nsub_0: assembly {\n        /* \"W3day4.sol\":1207:2534  contract registration{... */\n      mstore(0x40, 0x80)\n      jumpi(tag_1, lt(calldatasize, 0x04))\n      shr(0xe0, calldataload(0x00))\n      dup1\n      0x99374642\n      gt\n      tag_9\n      jumpi\n      dup1\n      0x99374642\n      eq\n      tag_5\n      jumpi\n      dup1\n      0xc3c5a547\n      eq\n      tag_6\n      jumpi\n      dup1\n      0xe3d670d7\n      eq\n      tag_7\n      jumpi\n      dup1\n      0xf851a440\n      eq\n      tag_8\n      jumpi\n      jump(tag_1)\n    tag_9:\n      dup1\n      0x04ab7197\n      eq\n      tag_2\n      jumpi\n      dup1\n      0x5b0025ad\n      eq\n      tag_3\n      jumpi\n      dup1\n      0x6b4fd2ad\n      eq\n      tag_4\n      jumpi\n    tag_1:\n      revert(0x00, 0x00)\n        /* \"W3day4.sol\":2318:2531  function IncreaseBalance(address _user)public payable {... */\n    tag_2:\n      tag_10\n      0x04\n      dup1\n      calldatasize\n      sub\n      dup2\n      add\n      swap1\n      tag_11\n      swap2\n      swap1\n      tag_12\n      jump\t// in\n    tag_11:\n      tag_13\n      jump\t// in\n    tag_10:\n      stop\n        /* \"W3day4.sol\":1778:2056  function RegisterNow(string memory _username) external {... */\n    tag_3:\n      callvalue\n      dup1\n      iszero\n      tag_14\n      jumpi\n      revert(0x00, 0x00)\n    tag_14:\n      pop\n      tag_15\n      0x04\n      dup1\n      calldatasize\n      sub\n      dup2\n      add\n      swap1\n      tag_16\n      swap2\n      swap1\n      tag_17\n      jump\t// in\n    tag_16:\n      tag_18\n      jump\t// in\n    tag_15:\n      stop\n        /* \"W3day4.sol\":2167:2310  function ChangeRole(address _user, Role _roles) external OnlyAdmin {... */\n    tag_4:\n      callvalue\n      dup1\n      iszero\n      tag_19\n      jumpi\n      revert(0x00, 0x00)\n    tag_19:\n      pop\n      tag_20\n      0x04\n      dup1\n      calldatasize\n      sub\n      dup2\n      add\n      swap1\n      tag_21\n      swap2\n      swap1\n      tag_22\n      jump\t// in\n    tag_21:\n      tag_23\n      jump\t// in\n    tag_20:\n      stop\n        /* \"W3day4.sol\":1556:1593  mapping(address => Role) public roles */\n    tag_5:\n      callvalue\n      dup1\n      iszero\n      tag_24\n      jumpi\n      revert(0x00, 0x00)\n    tag_24:\n      pop\n      tag_25\n      0x04\n      dup1\n      calldatasize\n      sub\n      dup2\n      add\n      swap1\n      tag_26\n      swap2\n      swap1\n      tag_12\n      jump\t// in\n    tag_26:\n      tag_27\n      jump\t// in\n    tag_25:\n      mload(0x40)\n      tag_28\n      swap2\n      swap1\n      tag_29\n      jump\t// in\n    tag_28:\n      mload(0x40)\n      dup1\n      swap2\n      sub\n      swap1\n      return\n        /* \"W3day4.sol\":1284:1328  mapping(address => bool) public isRegistered */\n    tag_6:\n      callvalue\n      dup1\n      iszero\n      tag_30\n      jumpi\n      revert(0x00, 0x00)\n    tag_30:\n      pop\n      tag_31\n      0x04\n      dup1\n      calldatasize\n      sub\n      dup2\n      add\n      swap1\n      tag_32\n      swap2\n      swap1\n      tag_12\n      jump\t// in\n    tag_32:\n      tag_33\n      jump\t// in\n    tag_31:\n      mload(0x40)\n      tag_34\n      swap2\n      swap1\n      tag_35\n      jump\t// in\n    tag_34:\n      mload(0x40)\n      dup1\n      swap2\n      sub\n      swap1\n      return\n        /* \"W3day4.sol\":1235:1277  mapping(address => uint256) public balance */\n    tag_7:\n      callvalue\n      dup1\n      iszero\n      tag_36\n      jumpi\n      revert(0x00, 0x00)\n    tag_36:\n      pop\n      tag_37\n      0x04\n      dup1\n      calldatasize\n      sub\n      dup2\n      add\n      swap1\n      tag_38\n      swap2\n      swap1\n      tag_12\n      jump\t// in\n    tag_38:\n      tag_39\n      jump\t// in\n    tag_37:\n      mload(0x40)\n      tag_40\n      swap2\n      swap1\n      tag_41\n      jump\t// in\n    tag_40:\n      mload(0x40)\n      dup1\n      swap2\n      sub\n      swap1\n      return\n        /* \"W3day4.sol\":1394:1414  address public admin */\n    tag_8:\n      callvalue\n      dup1\n      iszero\n      tag_42\n      jumpi\n      revert(0x00, 0x00)\n    tag_42:\n      pop\n      tag_43\n      tag_44\n      jump\t// in\n    tag_43:\n      mload(0x40)\n      tag_45\n      swap2\n      swap1\n      tag_46\n      jump\t// in\n    tag_45:\n      mload(0x40)\n      dup1\n      swap2\n      sub\n      swap1\n      return\n        /* \"W3day4.sol\":2318:2531  function IncreaseBalance(address _user)public payable {... */\n    tag_13:\n        /* \"W3day4.sol\":2403:2404  0 */\n      0x00\n        /* \"W3day4.sol\":2391:2400  msg.value */\n      callvalue\n        /* \"W3day4.sol\":2391:2404  msg.value > 0 */\n      gt\n        /* \"W3day4.sol\":2383:2444  require(msg.value > 0, \"Deposit something you piss of shite\") */\n      tag_48\n      jumpi\n      mload(0x40)\n      0x08c379a000000000000000000000000000000000000000000000000000000000\n      dup2\n      mstore\n      0x04\n      add\n      tag_49\n      swap1\n      tag_50\n      jump\t// in\n    tag_49:\n      mload(0x40)\n      dup1\n      swap2\n      sub\n      swap1\n      revert\n    tag_48:\n        /* \"W3day4.sol\":2473:2482  msg.value */\n      callvalue\n        /* \"W3day4.sol\":2455:2462  balance */\n      0x00\n        /* \"W3day4.sol\":2455:2469  balance[_user] */\n      0x00\n        /* \"W3day4.sol\":2463:2468  _user */\n      dup4\n        /* \"W3day4.sol\":2455:2469  balance[_user] */\n      0xffffffffffffffffffffffffffffffffffffffff\n      and\n      0xffffffffffffffffffffffffffffffffffffffff\n      and\n      dup2\n      mstore\n      0x20\n      add\n      swap1\n      dup2\n      mstore\n      0x20\n      add\n      0x00\n      keccak256\n      0x00\n        /* \"W3day4.sol\":2455:2482  balance[_user] += msg.value */\n      dup3\n      dup3\n      sload\n      tag_51\n      swap2\n      swap1\n      tag_52\n      jump\t// in\n    tag_51:\n      swap3\n      pop\n      pop\n      dup2\n      swap1\n      sstore\n      pop\n        /* \"W3day4.sol\":2506:2511  _user */\n      dup1\n        /* \"W3day4.sol\":2498:2523  Balance(_user, msg.value) */\n      0xffffffffffffffffffffffffffffffffffffffff\n      and\n      0x134e340554ff8a7d64280a2a28b982df554e2595e5bf45cd39368f31099172a6\n        /* \"W3day4.sol\":2513:2522  msg.value */\n      callvalue\n        /* \"W3day4.sol\":2498:2523  Balance(_user, msg.value) */\n      mload(0x40)\n      tag_53\n      swap2\n      swap1\n      tag_41\n      jump\t// in\n    tag_53:\n      mload(0x40)\n      dup1\n      swap2\n      sub\n      swap1\n      log2\n        /* \"W3day4.sol\":2318:2531  function IncreaseBalance(address _user)public payable {... */\n      pop\n      jump\t// out\n        /* \"W3day4.sol\":1778:2056  function RegisterNow(string memory _username) external {... */\n    tag_18:\n        /* \"W3day4.sol\":1853:1865  isRegistered */\n      0x01\n        /* \"W3day4.sol\":1853:1877  isRegistered[msg.sender] */\n      0x00\n        /* \"W3day4.sol\":1866:1876  msg.sender */\n      caller\n        /* \"W3day4.sol\":1853:1877  isRegistered[msg.sender] */\n      0xffffffffffffffffffffffffffffffffffffffff\n      and\n      0xffffffffffffffffffffffffffffffffffffffff\n      and\n      dup2\n      mstore\n      0x20\n      add\n      swap1\n      dup2\n      mstore\n      0x20\n      add\n      0x00\n      keccak256\n      0x00\n      swap1\n      sload\n      swap1\n      0x0100\n      exp\n      swap1\n      div\n      0xff\n      and\n        /* \"W3day4.sol\":1852:1877  !isRegistered[msg.sender] */\n      iszero\n        /* \"W3day4.sol\":1844:1903  require(!isRegistered[msg.sender], \"Account already exist\") */\n      tag_55\n      jumpi\n      mload(0x40)\n      0x08c379a000000000000000000000000000000000000000000000000000000000\n      dup2\n      mstore\n      0x04\n      add\n      tag_56\n      swap1\n      tag_57\n      jump\t// in\n    tag_56:\n      mload(0x40)\n      dup1\n      swap2\n      sub\n      swap1\n      revert\n    tag_55:\n        /* \"W3day4.sol\":1943:1947  true */\n      0x01\n        /* \"W3day4.sol\":1916:1928  isRegistered */\n      dup1\n        /* \"W3day4.sol\":1916:1940  isRegistered[msg.sender] */\n      0x00\n        /* \"W3day4.sol\":1929:1939  msg.sender */\n      caller\n        /* \"W3day4.sol\":1916:1940  isRegistered[msg.sender] */\n      0xffffffffffffffffffffffffffffffffffffffff\n      and\n      0xffffffffffffffffffffffffffffffffffffffff\n      and\n      dup2\n      mstore\n      0x20\n      add\n      swap1\n      dup2\n      mstore\n      0x20\n      add\n      0x00\n      keccak256\n      0x00\n        /* \"W3day4.sol\":1916:1947  isRegistered[msg.sender] = true */\n      0x0100\n      exp\n      dup2\n      sload\n      dup2\n      0xff\n      mul\n      not\n      and\n      swap1\n      dup4\n      iszero\n      iszero\n      mul\n      or\n      swap1\n      sstore\n      pop\n        /* \"W3day4.sol\":1969:1978  _username */\n      dup1\n        /* \"W3day4.sol\":1958:1966  username */\n      0x03\n        /* \"W3day4.sol\":1958:1978  username = _username */\n      swap1\n      dup2\n      tag_58\n      swap2\n      swap1\n      tag_59\n      jump\t// in\n    tag_58:\n      pop\n        /* \"W3day4.sol\":1989:2000  uint256 uid */\n      0x00\n        /* \"W3day4.sol\":2003:2005  id */\n      0x02\n      0x00\n        /* \"W3day4.sol\":2003:2007  id++ */\n      dup2\n      sload\n      dup1\n      swap3\n      swap2\n      swap1\n      tag_60\n      swap1\n      tag_61\n      jump\t// in\n    tag_60:\n      swap2\n      swap1\n      pop\n      sstore\n        /* \"W3day4.sol\":1989:2007  uint256 uid = id++ */\n      swap1\n      pop\n        /* \"W3day4.sol\":2044:2047  uid */\n      dup1\n        /* \"W3day4.sol\":2032:2042  msg.sender */\n      caller\n        /* \"W3day4.sol\":2023:2048  Register(msg.sender, uid) */\n      0xffffffffffffffffffffffffffffffffffffffff\n      and\n      0x7dc6ab80cc84c043b7b8d4fcafc802187470087f7ea7fccd2e17aecd0256a1\n      mload(0x40)\n      mload(0x40)\n      dup1\n      swap2\n      sub\n      swap1\n      log3\n        /* \"W3day4.sol\":1833:2056  {... */\n      pop\n        /* \"W3day4.sol\":1778:2056  function RegisterNow(string memory _username) external {... */\n      pop\n      jump\t// out\n        /* \"W3day4.sol\":2167:2310  function ChangeRole(address _user, Role _roles) external OnlyAdmin {... */\n    tag_23:\n        /* \"W3day4.sol\":2117:2122  admin */\n      0x04\n      0x00\n      swap1\n      sload\n      swap1\n      0x0100\n      exp\n      swap1\n      div\n      0xffffffffffffffffffffffffffffffffffffffff\n      and\n        /* \"W3day4.sol\":2103:2122  msg.sender == admin */\n      0xffffffffffffffffffffffffffffffffffffffff\n      and\n        /* \"W3day4.sol\":2103:2113  msg.sender */\n      caller\n        /* \"W3day4.sol\":2103:2122  msg.sender == admin */\n      0xffffffffffffffffffffffffffffffffffffffff\n      and\n      eq\n        /* \"W3day4.sol\":2095:2139  require(msg.sender == admin, \"Not an admin\") */\n      tag_63\n      jumpi\n      mload(0x40)\n      0x08c379a000000000000000000000000000000000000000000000000000000000\n      dup2\n      mstore\n      0x04\n      add\n      tag_64\n      swap1\n      tag_65\n      jump\t// in\n    tag_64:\n      mload(0x40)\n      dup1\n      swap2\n      sub\n      swap1\n      revert\n    tag_63:\n        /* \"W3day4.sol\":2260:2266  _roles */\n      dup1\n        /* \"W3day4.sol\":2245:2250  roles */\n      0x05\n        /* \"W3day4.sol\":2245:2257  roles[_user] */\n      0x00\n        /* \"W3day4.sol\":2251:2256  _user */\n      dup5\n        /* \"W3day4.sol\":2245:2257  roles[_user] */\n      0xffffffffffffffffffffffffffffffffffffffff\n      and\n      0xffffffffffffffffffffffffffffffffffffffff\n      and\n      dup2\n      mstore\n      0x20\n      add\n      swap1\n      dup2\n      mstore\n      0x20\n      add\n      0x00\n      keccak256\n      0x00\n        /* \"W3day4.sol\":2245:2266  roles[_user] = _roles */\n      0x0100\n      exp\n      dup2\n      sload\n      dup2\n      0xff\n      mul\n      not\n      and\n      swap1\n      dup4\n      0x02\n      dup2\n      gt\n      iszero\n      tag_67\n      jumpi\n      tag_68\n      tag_69\n      jump\t// in\n    tag_68:\n    tag_67:\n      mul\n      or\n      swap1\n      sstore\n      pop\n        /* \"W3day4.sol\":2288:2293  _user */\n      dup2\n        /* \"W3day4.sol\":2282:2302  Roole(_user, _roles) */\n      0xffffffffffffffffffffffffffffffffffffffff\n      and\n      0xda4d41475ec50aa8531c242d7d7a0aad94df435c0be1f0cbf130f862bb38290e\n        /* \"W3day4.sol\":2295:2301  _roles */\n      dup3\n        /* \"W3day4.sol\":2282:2302  Roole(_user, _roles) */\n      mload(0x40)\n      tag_70\n      swap2\n      swap1\n      tag_29\n      jump\t// in\n    tag_70:\n      mload(0x40)\n      dup1\n      swap2\n      sub\n      swap1\n      log2\n        /* \"W3day4.sol\":2167:2310  function ChangeRole(address _user, Role _roles) external OnlyAdmin {... */\n      pop\n      pop\n      jump\t// out\n        /* \"W3day4.sol\":1556:1593  mapping(address => Role) public roles */\n    tag_27:\n      mstore(0x20, 0x05)\n      dup1\n      0x00\n      mstore\n      keccak256(0x00, 0x40)\n      0x00\n      swap2\n      pop\n      sload\n      swap1\n      0x0100\n      exp\n      swap1\n      div\n      0xff\n      and\n      dup2\n      jump\t// out\n        /* \"W3day4.sol\":1284:1328  mapping(address => bool) public isRegistered */\n    tag_33:\n      mstore(0x20, 0x01)\n      dup1\n      0x00\n      mstore\n      keccak256(0x00, 0x40)\n      0x00\n      swap2\n      pop\n      sload\n      swap1\n      0x0100\n      exp\n      swap1\n      div\n      0xff\n      and\n      dup2\n      jump\t// out\n        /* \"W3day4.sol\":1235:1277  mapping(address => uint256) public balance */\n    tag_39:\n      mstore(0x20, 0x00)\n      dup1\n      0x00\n      mstore\n      keccak256(0x00, 0x40)\n      0x00\n      swap2\n      pop\n      swap1\n      pop\n      sload\n      dup2\n      jump\t// out\n        /* \"W3day4.sol\":1394:1414  address public admin */\n    tag_44:\n      0x04\n      0x00\n      swap1\n      sload\n      swap1\n      0x0100\n      exp\n      swap1\n      div\n      0xffffffffffffffffffffffffffffffffffffffff\n      and\n      dup2\n      jump\t// out\n        /* \"#utility.yul\":7:82   */\n    tag_71:\n        /* \"#utility.yul\":40:46   */\n      0x00\n        /* \"#utility.yul\":73:75   */\n      0x40\n        /* \"#utility.yul\":67:76   */\n      mload\n        /* \"#utility.yul\":57:76   */\n      swap1\n      pop\n        /* \"#utility.yul\":7:82   */\n      swap1\n      jump\t// out\n        /* \"#utility.yul\":88:205   */\n    tag_72:\n        /* \"#utility.yul\":197:198   */\n      0x00\n        /* \"#utility.yul\":194:195   */\n      0x00\n        /* \"#utility.yul\":187:199   */\n      revert\n        /* \"#utility.yul\":211:328   */\n    tag_73:\n        /* \"#utility.yul\":320:321   */\n      0x00\n        /* \"#utility.yul\":317:318   */\n      0x00\n        /* \"#utility.yul\":310:322   */\n      revert\n        /* \"#utility.yul\":334:460   */\n    tag_74:\n        /* \"#utility.yul\":371:378   */\n      0x00\n        /* \"#utility.yul\":411:453   */\n      0xffffffffffffffffffffffffffffffffffffffff\n        /* \"#utility.yul\":404:409   */\n      dup3\n        /* \"#utility.yul\":400:454   */\n      and\n        /* \"#utility.yul\":389:454   */\n      swap1\n      pop\n        /* \"#utility.yul\":334:460   */\n      swap2\n      swap1\n      pop\n      jump\t// out\n        /* \"#utility.yul\":466:562   */\n    tag_75:\n        /* \"#utility.yul\":503:510   */\n      0x00\n        /* \"#utility.yul\":532:556   */\n      tag_131\n        /* \"#utility.yul\":550:555   */\n      dup3\n        /* \"#utility.yul\":532:556   */\n      tag_74\n      jump\t// in\n    tag_131:\n        /* \"#utility.yul\":521:556   */\n      swap1\n      pop\n        /* \"#utility.yul\":466:562   */\n      swap2\n      swap1\n      pop\n      jump\t// out\n        /* \"#utility.yul\":568:690   */\n    tag_76:\n        /* \"#utility.yul\":641:665   */\n      tag_133\n        /* \"#utility.yul\":659:664   */\n      dup2\n        /* \"#utility.yul\":641:665   */\n      tag_75\n      jump\t// in\n    tag_133:\n        /* \"#utility.yul\":634:639   */\n      dup2\n        /* \"#utility.yul\":631:666   */\n      eq\n        /* \"#utility.yul\":621:684   */\n      tag_134\n      jumpi\n        /* \"#utility.yul\":680:681   */\n      0x00\n        /* \"#utility.yul\":677:678   */\n      0x00\n        /* \"#utility.yul\":670:682   */\n      revert\n        /* \"#utility.yul\":621:684   */\n    tag_134:\n        /* \"#utility.yul\":568:690   */\n      pop\n      jump\t// out\n        /* \"#utility.yul\":696:835   */\n    tag_77:\n        /* \"#utility.yul\":742:747   */\n      0x00\n        /* \"#utility.yul\":780:786   */\n      dup2\n        /* \"#utility.yul\":767:787   */\n      calldataload\n        /* \"#utility.yul\":758:787   */\n      swap1\n      pop\n        /* \"#utility.yul\":796:829   */\n      tag_136\n        /* \"#utility.yul\":823:828   */\n      dup2\n        /* \"#utility.yul\":796:829   */\n      tag_76\n      jump\t// in\n    tag_136:\n        /* \"#utility.yul\":696:835   */\n      swap3\n      swap2\n      pop\n      pop\n      jump\t// out\n        /* \"#utility.yul\":841:1170   */\n    tag_12:\n        /* \"#utility.yul\":900:906   */\n      0x00\n        /* \"#utility.yul\":949:951   */\n      0x20\n        /* \"#utility.yul\":937:946   */\n      dup3\n        /* \"#utility.yul\":928:935   */\n      dup5\n        /* \"#utility.yul\":924:947   */\n      sub\n        /* \"#utility.yul\":920:952   */\n      slt\n        /* \"#utility.yul\":917:1036   */\n      iszero\n      tag_138\n      jumpi\n        /* \"#utility.yul\":955:1034   */\n      tag_139\n      tag_72\n      jump\t// in\n    tag_139:\n        /* \"#utility.yul\":917:1036   */\n    tag_138:\n        /* \"#utility.yul\":1075:1076   */\n      0x00\n        /* \"#utility.yul\":1100:1153   */\n      tag_140\n        /* \"#utility.yul\":1145:1152   */\n      dup5\n        /* \"#utility.yul\":1136:1142   */\n      dup3\n        /* \"#utility.yul\":1125:1134   */\n      dup6\n        /* \"#utility.yul\":1121:1143   */\n      add\n        /* \"#utility.yul\":1100:1153   */\n      tag_77\n      jump\t// in\n    tag_140:\n        /* \"#utility.yul\":1090:1153   */\n      swap2\n      pop\n        /* \"#utility.yul\":1046:1163   */\n      pop\n        /* \"#utility.yul\":841:1170   */\n      swap3\n      swap2\n      pop\n      pop\n      jump\t// out\n        /* \"#utility.yul\":1176:1293   */\n    tag_78:\n        /* \"#utility.yul\":1285:1286   */\n      0x00\n        /* \"#utility.yul\":1282:1283   */\n      0x00\n        /* \"#utility.yul\":1275:1287   */\n      revert\n        /* \"#utility.yul\":1299:1416   */\n    tag_79:\n        /* \"#utility.yul\":1408:1409   */\n      0x00\n        /* \"#utility.yul\":1405:1406   */\n      0x00\n        /* \"#utility.yul\":1398:1410   */\n      revert\n        /* \"#utility.yul\":1422:1524   */\n    tag_80:\n        /* \"#utility.yul\":1463:1469   */\n      0x00\n        /* \"#utility.yul\":1514:1516   */\n      0x1f\n        /* \"#utility.yul\":1510:1517   */\n      not\n        /* \"#utility.yul\":1505:1507   */\n      0x1f\n        /* \"#utility.yul\":1498:1503   */\n      dup4\n        /* \"#utility.yul\":1494:1508   */\n      add\n        /* \"#utility.yul\":1490:1518   */\n      and\n        /* \"#utility.yul\":1480:1518   */\n      swap1\n      pop\n        /* \"#utility.yul\":1422:1524   */\n      swap2\n      swap1\n      pop\n      jump\t// out\n        /* \"#utility.yul\":1530:1710   */\n    tag_81:\n        /* \"#utility.yul\":1578:1655   */\n      0x4e487b7100000000000000000000000000000000000000000000000000000000\n        /* \"#utility.yul\":1575:1576   */\n      0x00\n        /* \"#utility.yul\":1568:1656   */\n      mstore\n        /* \"#utility.yul\":1675:1679   */\n      0x41\n        /* \"#utility.yul\":1672:1673   */\n      0x04\n        /* \"#utility.yul\":1665:1680   */\n      mstore\n        /* \"#utility.yul\":1699:1703   */\n      0x24\n        /* \"#utility.yul\":1696:1697   */\n      0x00\n        /* \"#utility.yul\":1689:1704   */\n      revert\n        /* \"#utility.yul\":1716:1997   */\n    tag_82:\n        /* \"#utility.yul\":1799:1826   */\n      tag_146\n        /* \"#utility.yul\":1821:1825   */\n      dup3\n        /* \"#utility.yul\":1799:1826   */\n      tag_80\n      jump\t// in\n    tag_146:\n        /* \"#utility.yul\":1791:1797   */\n      dup2\n        /* \"#utility.yul\":1787:1827   */\n      add\n        /* \"#utility.yul\":1929:1935   */\n      dup2\n        /* \"#utility.yul\":1917:1927   */\n      dup2\n        /* \"#utility.yul\":1914:1936   */\n      lt\n        /* \"#utility.yul\":1893:1911   */\n      0xffffffffffffffff\n        /* \"#utility.yul\":1881:1891   */\n      dup3\n        /* \"#utility.yul\":1878:1912   */\n      gt\n        /* \"#utility.yul\":1875:1937   */\n      or\n        /* \"#utility.yul\":1872:1960   */\n      iszero\n      tag_147\n      jumpi\n        /* \"#utility.yul\":1940:1958   */\n      tag_148\n      tag_81\n      jump\t// in\n    tag_148:\n        /* \"#utility.yul\":1872:1960   */\n    tag_147:\n        /* \"#utility.yul\":1980:1990   */\n      dup1\n        /* \"#utility.yul\":1976:1978   */\n      0x40\n        /* \"#utility.yul\":1969:1991   */\n      mstore\n        /* \"#utility.yul\":1759:1997   */\n      pop\n        /* \"#utility.yul\":1716:1997   */\n      pop\n      pop\n      jump\t// out\n        /* \"#utility.yul\":2003:2132   */\n    tag_83:\n        /* \"#utility.yul\":2037:2043   */\n      0x00\n        /* \"#utility.yul\":2064:2084   */\n      tag_150\n      tag_71\n      jump\t// in\n    tag_150:\n        /* \"#utility.yul\":2054:2084   */\n      swap1\n      pop\n        /* \"#utility.yul\":2093:2126   */\n      tag_151\n        /* \"#utility.yul\":2121:2125   */\n      dup3\n        /* \"#utility.yul\":2113:2119   */\n      dup3\n        /* \"#utility.yul\":2093:2126   */\n      tag_82\n      jump\t// in\n    tag_151:\n        /* \"#utility.yul\":2003:2132   */\n      swap2\n      swap1\n      pop\n      jump\t// out\n        /* \"#utility.yul\":2138:2446   */\n    tag_84:\n        /* \"#utility.yul\":2200:2204   */\n      0x00\n        /* \"#utility.yul\":2290:2308   */\n      0xffffffffffffffff\n        /* \"#utility.yul\":2282:2288   */\n      dup3\n        /* \"#utility.yul\":2279:2309   */\n      gt\n        /* \"#utility.yul\":2276:2332   */\n      iszero\n      tag_153\n      jumpi\n        /* \"#utility.yul\":2312:2330   */\n      tag_154\n      tag_81\n      jump\t// in\n    tag_154:\n        /* \"#utility.yul\":2276:2332   */\n    tag_153:\n        /* \"#utility.yul\":2350:2379   */\n      tag_155\n        /* \"#utility.yul\":2372:2378   */\n      dup3\n        /* \"#utility.yul\":2350:2379   */\n      tag_80\n      jump\t// in\n    tag_155:\n        /* \"#utility.yul\":2342:2379   */\n      swap1\n      pop\n        /* \"#utility.yul\":2434:2438   */\n      0x20\n        /* \"#utility.yul\":2428:2432   */\n      dup2\n        /* \"#utility.yul\":2424:2439   */\n      add\n        /* \"#utility.yul\":2416:2439   */\n      swap1\n      pop\n        /* \"#utility.yul\":2138:2446   */\n      swap2\n      swap1\n      pop\n      jump\t// out\n        /* \"#utility.yul\":2452:2600   */\n    tag_85:\n        /* \"#utility.yul\":2550:2556   */\n      dup3\n        /* \"#utility.yul\":2545:2548   */\n      dup2\n        /* \"#utility.yul\":2540:2543   */\n      dup4\n        /* \"#utility.yul\":2527:2557   */\n      calldatacopy\n        /* \"#utility.yul\":2591:2592   */\n      0x00\n        /* \"#utility.yul\":2582:2588   */\n      dup4\n        /* \"#utility.yul\":2577:2580   */\n      dup4\n        /* \"#utility.yul\":2573:2589   */\n      add\n        /* \"#utility.yul\":2566:2593   */\n      mstore\n        /* \"#utility.yul\":2452:2600   */\n      pop\n      pop\n      pop\n      jump\t// out\n        /* \"#utility.yul\":2606:3031   */\n    tag_86:\n        /* \"#utility.yul\":2684:2689   */\n      0x00\n        /* \"#utility.yul\":2709:2775   */\n      tag_158\n        /* \"#utility.yul\":2725:2774   */\n      tag_159\n        /* \"#utility.yul\":2767:2773   */\n      dup5\n        /* \"#utility.yul\":2725:2774   */\n      tag_84\n      jump\t// in\n    tag_159:\n        /* \"#utility.yul\":2709:2775   */\n      tag_83\n      jump\t// in\n    tag_158:\n        /* \"#utility.yul\":2700:2775   */\n      swap1\n      pop\n        /* \"#utility.yul\":2798:2804   */\n      dup3\n        /* \"#utility.yul\":2791:2796   */\n      dup2\n        /* \"#utility.yul\":2784:2805   */\n      mstore\n        /* \"#utility.yul\":2836:2840   */\n      0x20\n        /* \"#utility.yul\":2829:2834   */\n      dup2\n        /* \"#utility.yul\":2825:2841   */\n      add\n        /* \"#utility.yul\":2874:2877   */\n      dup5\n        /* \"#utility.yul\":2865:2871   */\n      dup5\n        /* \"#utility.yul\":2860:2863   */\n      dup5\n        /* \"#utility.yul\":2856:2872   */\n      add\n        /* \"#utility.yul\":2853:2878   */\n      gt\n        /* \"#utility.yul\":2850:2962   */\n      iszero\n      tag_160\n      jumpi\n        /* \"#utility.yul\":2881:2960   */\n      tag_161\n      tag_79\n      jump\t// in\n    tag_161:\n        /* \"#utility.yul\":2850:2962   */\n    tag_160:\n        /* \"#utility.yul\":2971:3025   */\n      tag_162\n        /* \"#utility.yul\":3018:3024   */\n      dup5\n        /* \"#utility.yul\":3013:3016   */\n      dup3\n        /* \"#utility.yul\":3008:3011   */\n      dup6\n        /* \"#utility.yul\":2971:3025   */\n      tag_85\n      jump\t// in\n    tag_162:\n        /* \"#utility.yul\":2690:3031   */\n      pop\n        /* \"#utility.yul\":2606:3031   */\n      swap4\n      swap3\n      pop\n      pop\n      pop\n      jump\t// out\n        /* \"#utility.yul\":3051:3391   */\n    tag_87:\n        /* \"#utility.yul\":3107:3112   */\n      0x00\n        /* \"#utility.yul\":3156:3159   */\n      dup3\n        /* \"#utility.yul\":3149:3153   */\n      0x1f\n        /* \"#utility.yul\":3141:3147   */\n      dup4\n        /* \"#utility.yul\":3137:3154   */\n      add\n        /* \"#utility.yul\":3133:3160   */\n      slt\n        /* \"#utility.yul\":3123:3245   */\n      tag_164\n      jumpi\n        /* \"#utility.yul\":3164:3243   */\n      tag_165\n      tag_78\n      jump\t// in\n    tag_165:\n        /* \"#utility.yul\":3123:3245   */\n    tag_164:\n        /* \"#utility.yul\":3281:3287   */\n      dup2\n        /* \"#utility.yul\":3268:3288   */\n      calldataload\n        /* \"#utility.yul\":3306:3385   */\n      tag_166\n        /* \"#utility.yul\":3381:3384   */\n      dup5\n        /* \"#utility.yul\":3373:3379   */\n      dup3\n        /* \"#utility.yul\":3366:3370   */\n      0x20\n        /* \"#utility.yul\":3358:3364   */\n      dup7\n        /* \"#utility.yul\":3354:3371   */\n      add\n        /* \"#utility.yul\":3306:3385   */\n      tag_86\n      jump\t// in\n    tag_166:\n        /* \"#utility.yul\":3297:3385   */\n      swap2\n      pop\n        /* \"#utility.yul\":3113:3391   */\n      pop\n        /* \"#utility.yul\":3051:3391   */\n      swap3\n      swap2\n      pop\n      pop\n      jump\t// out\n        /* \"#utility.yul\":3397:3906   */\n    tag_17:\n        /* \"#utility.yul\":3466:3472   */\n      0x00\n        /* \"#utility.yul\":3515:3517   */\n      0x20\n        /* \"#utility.yul\":3503:3512   */\n      dup3\n        /* \"#utility.yul\":3494:3501   */\n      dup5\n        /* \"#utility.yul\":3490:3513   */\n      sub\n        /* \"#utility.yul\":3486:3518   */\n      slt\n        /* \"#utility.yul\":3483:3602   */\n      iszero\n      tag_168\n      jumpi\n        /* \"#utility.yul\":3521:3600   */\n      tag_169\n      tag_72\n      jump\t// in\n    tag_169:\n        /* \"#utility.yul\":3483:3602   */\n    tag_168:\n        /* \"#utility.yul\":3669:3670   */\n      0x00\n        /* \"#utility.yul\":3658:3667   */\n      dup3\n        /* \"#utility.yul\":3654:3671   */\n      add\n        /* \"#utility.yul\":3641:3672   */\n      calldataload\n        /* \"#utility.yul\":3699:3717   */\n      0xffffffffffffffff\n        /* \"#utility.yul\":3691:3697   */\n      dup2\n        /* \"#utility.yul\":3688:3718   */\n      gt\n        /* \"#utility.yul\":3685:3802   */\n      iszero\n      tag_170\n      jumpi\n        /* \"#utility.yul\":3721:3800   */\n      tag_171\n      tag_73\n      jump\t// in\n    tag_171:\n        /* \"#utility.yul\":3685:3802   */\n    tag_170:\n        /* \"#utility.yul\":3826:3889   */\n      tag_172\n        /* \"#utility.yul\":3881:3888   */\n      dup5\n        /* \"#utility.yul\":3872:3878   */\n      dup3\n        /* \"#utility.yul\":3861:3870   */\n      dup6\n        /* \"#utility.yul\":3857:3879   */\n      add\n        /* \"#utility.yul\":3826:3889   */\n      tag_87\n      jump\t// in\n    tag_172:\n        /* \"#utility.yul\":3816:3889   */\n      swap2\n      pop\n        /* \"#utility.yul\":3612:3899   */\n      pop\n        /* \"#utility.yul\":3397:3906   */\n      swap3\n      swap2\n      pop\n      pop\n      jump\t// out\n        /* \"#utility.yul\":3912:4018   */\n    tag_88:\n        /* \"#utility.yul\":3992:3993   */\n      0x03\n        /* \"#utility.yul\":3985:3990   */\n      dup2\n        /* \"#utility.yul\":3982:3994   */\n      lt\n        /* \"#utility.yul\":3972:4012   */\n      tag_174\n      jumpi\n        /* \"#utility.yul\":4008:4009   */\n      0x00\n        /* \"#utility.yul\":4005:4006   */\n      0x00\n        /* \"#utility.yul\":3998:4010   */\n      revert\n        /* \"#utility.yul\":3972:4012   */\n    tag_174:\n        /* \"#utility.yul\":3912:4018   */\n      pop\n      jump\t// out\n        /* \"#utility.yul\":4024:4177   */\n    tag_89:\n        /* \"#utility.yul\":4077:4082   */\n      0x00\n        /* \"#utility.yul\":4115:4121   */\n      dup2\n        /* \"#utility.yul\":4102:4122   */\n      calldataload\n        /* \"#utility.yul\":4093:4122   */\n      swap1\n      pop\n        /* \"#utility.yul\":4131:4171   */\n      tag_176\n        /* \"#utility.yul\":4165:4170   */\n      dup2\n        /* \"#utility.yul\":4131:4171   */\n      tag_88\n      jump\t// in\n    tag_176:\n        /* \"#utility.yul\":4024:4177   */\n      swap3\n      swap2\n      pop\n      pop\n      jump\t// out\n        /* \"#utility.yul\":4183:4671   */\n    tag_22:\n        /* \"#utility.yul\":4258:4264   */\n      0x00\n        /* \"#utility.yul\":4266:4272   */\n      0x00\n        /* \"#utility.yul\":4315:4317   */\n      0x40\n        /* \"#utility.yul\":4303:4312   */\n      dup4\n        /* \"#utility.yul\":4294:4301   */\n      dup6\n        /* \"#utility.yul\":4290:4313   */\n      sub\n        /* \"#utility.yul\":4286:4318   */\n      slt\n        /* \"#utility.yul\":4283:4402   */\n      iszero\n      tag_178\n      jumpi\n        /* \"#utility.yul\":4321:4400   */\n      tag_179\n      tag_72\n      jump\t// in\n    tag_179:\n        /* \"#utility.yul\":4283:4402   */\n    tag_178:\n        /* \"#utility.yul\":4441:4442   */\n      0x00\n        /* \"#utility.yul\":4466:4519   */\n      tag_180\n        /* \"#utility.yul\":4511:4518   */\n      dup6\n        /* \"#utility.yul\":4502:4508   */\n      dup3\n        /* \"#utility.yul\":4491:4500   */\n      dup7\n        /* \"#utility.yul\":4487:4509   */\n      add\n        /* \"#utility.yul\":4466:4519   */\n      tag_77\n      jump\t// in\n    tag_180:\n        /* \"#utility.yul\":4456:4519   */\n      swap3\n      pop\n        /* \"#utility.yul\":4412:4529   */\n      pop\n        /* \"#utility.yul\":4568:4570   */\n      0x20\n        /* \"#utility.yul\":4594:4654   */\n      tag_181\n        /* \"#utility.yul\":4646:4653   */\n      dup6\n        /* \"#utility.yul\":4637:4643   */\n      dup3\n        /* \"#utility.yul\":4626:4635   */\n      dup7\n        /* \"#utility.yul\":4622:4644   */\n      add\n        /* \"#utility.yul\":4594:4654   */\n      tag_89\n      jump\t// in\n    tag_181:\n        /* \"#utility.yul\":4584:4654   */\n      swap2\n      pop\n        /* \"#utility.yul\":4539:4664   */\n      pop\n        /* \"#utility.yul\":4183:4671   */\n      swap3\n      pop\n      swap3\n      swap1\n      pop\n      jump\t// out\n        /* \"#utility.yul\":4677:4857   */\n    tag_69:\n        /* \"#utility.yul\":4725:4802   */\n      0x4e487b7100000000000000000000000000000000000000000000000000000000\n        /* \"#utility.yul\":4722:4723   */\n      0x00\n        /* \"#utility.yul\":4715:4803   */\n      mstore\n        /* \"#utility.yul\":4822:4826   */\n      0x21\n        /* \"#utility.yul\":4819:4820   */\n      0x04\n        /* \"#utility.yul\":4812:4827   */\n      mstore\n        /* \"#utility.yul\":4846:4850   */\n      0x24\n        /* \"#utility.yul\":4843:4844   */\n      0x00\n        /* \"#utility.yul\":4836:4851   */\n      revert\n        /* \"#utility.yul\":4863:4975   */\n    tag_90:\n        /* \"#utility.yul\":4943:4944   */\n      0x03\n        /* \"#utility.yul\":4936:4941   */\n      dup2\n        /* \"#utility.yul\":4933:4945   */\n      lt\n        /* \"#utility.yul\":4923:4969   */\n      tag_184\n      jumpi\n        /* \"#utility.yul\":4949:4967   */\n      tag_185\n      tag_69\n      jump\t// in\n    tag_185:\n        /* \"#utility.yul\":4923:4969   */\n    tag_184:\n        /* \"#utility.yul\":4863:4975   */\n      pop\n      jump\t// out\n        /* \"#utility.yul\":4981:5106   */\n    tag_91:\n        /* \"#utility.yul\":5025:5032   */\n      0x00\n        /* \"#utility.yul\":5054:5059   */\n      dup2\n        /* \"#utility.yul\":5043:5059   */\n      swap1\n      pop\n        /* \"#utility.yul\":5060:5100   */\n      tag_187\n        /* \"#utility.yul\":5094:5099   */\n      dup3\n        /* \"#utility.yul\":5060:5100   */\n      tag_90\n      jump\t// in\n    tag_187:\n        /* \"#utility.yul\":4981:5106   */\n      swap2\n      swap1\n      pop\n      jump\t// out\n        /* \"#utility.yul\":5112:5237   */\n    tag_92:\n        /* \"#utility.yul\":5167:5176   */\n      0x00\n        /* \"#utility.yul\":5200:5231   */\n      tag_189\n        /* \"#utility.yul\":5225:5230   */\n      dup3\n        /* \"#utility.yul\":5200:5231   */\n      tag_91\n      jump\t// in\n    tag_189:\n        /* \"#utility.yul\":5187:5231   */\n      swap1\n      pop\n        /* \"#utility.yul\":5112:5237   */\n      swap2\n      swap1\n      pop\n      jump\t// out\n        /* \"#utility.yul\":5243:5384   */\n    tag_93:\n        /* \"#utility.yul\":5335:5377   */\n      tag_191\n        /* \"#utility.yul\":5371:5376   */\n      dup2\n        /* \"#utility.yul\":5335:5377   */\n      tag_92\n      jump\t// in\n    tag_191:\n        /* \"#utility.yul\":5330:5333   */\n      dup3\n        /* \"#utility.yul\":5323:5378   */\n      mstore\n        /* \"#utility.yul\":5243:5384   */\n      pop\n      pop\n      jump\t// out\n        /* \"#utility.yul\":5390:5622   */\n    tag_29:\n        /* \"#utility.yul\":5488:5492   */\n      0x00\n        /* \"#utility.yul\":5526:5528   */\n      0x20\n        /* \"#utility.yul\":5515:5524   */\n      dup3\n        /* \"#utility.yul\":5511:5529   */\n      add\n        /* \"#utility.yul\":5503:5529   */\n      swap1\n      pop\n        /* \"#utility.yul\":5539:5615   */\n      tag_193\n        /* \"#utility.yul\":5612:5613   */\n      0x00\n        /* \"#utility.yul\":5601:5610   */\n      dup4\n        /* \"#utility.yul\":5597:5614   */\n      add\n        /* \"#utility.yul\":5588:5594   */\n      dup5\n        /* \"#utility.yul\":5539:5615   */\n      tag_93\n      jump\t// in\n    tag_193:\n        /* \"#utility.yul\":5390:5622   */\n      swap3\n      swap2\n      pop\n      pop\n      jump\t// out\n        /* \"#utility.yul\":5628:5718   */\n    tag_94:\n        /* \"#utility.yul\":5662:5669   */\n      0x00\n        /* \"#utility.yul\":5705:5710   */\n      dup2\n        /* \"#utility.yul\":5698:5711   */\n      iszero\n        /* \"#utility.yul\":5691:5712   */\n      iszero\n        /* \"#utility.yul\":5680:5712   */\n      swap1\n      pop\n        /* \"#utility.yul\":5628:5718   */\n      swap2\n      swap1\n      pop\n      jump\t// out\n        /* \"#utility.yul\":5724:5833   */\n    tag_95:\n        /* \"#utility.yul\":5805:5826   */\n      tag_196\n        /* \"#utility.yul\":5820:5825   */\n      dup2\n        /* \"#utility.yul\":5805:5826   */\n      tag_94\n      jump\t// in\n    tag_196:\n        /* \"#utility.yul\":5800:5803   */\n      dup3\n        /* \"#utility.yul\":5793:5827   */\n      mstore\n        /* \"#utility.yul\":5724:5833   */\n      pop\n      pop\n      jump\t// out\n        /* \"#utility.yul\":5839:6049   */\n    tag_35:\n        /* \"#utility.yul\":5926:5930   */\n      0x00\n        /* \"#utility.yul\":5964:5966   */\n      0x20\n        /* \"#utility.yul\":5953:5962   */\n      dup3\n        /* \"#utility.yul\":5949:5967   */\n      add\n        /* \"#utility.yul\":5941:5967   */\n      swap1\n      pop\n        /* \"#utility.yul\":5977:6042   */\n      tag_198\n        /* \"#utility.yul\":6039:6040   */\n      0x00\n        /* \"#utility.yul\":6028:6037   */\n      dup4\n        /* \"#utility.yul\":6024:6041   */\n      add\n        /* \"#utility.yul\":6015:6021   */\n      dup5\n        /* \"#utility.yul\":5977:6042   */\n      tag_95\n      jump\t// in\n    tag_198:\n        /* \"#utility.yul\":5839:6049   */\n      swap3\n      swap2\n      pop\n      pop\n      jump\t// out\n        /* \"#utility.yul\":6055:6132   */\n    tag_96:\n        /* \"#utility.yul\":6092:6099   */\n      0x00\n        /* \"#utility.yul\":6121:6126   */\n      dup2\n        /* \"#utility.yul\":6110:6126   */\n      swap1\n      pop\n        /* \"#utility.yul\":6055:6132   */\n      swap2\n      swap1\n      pop\n      jump\t// out\n        /* \"#utility.yul\":6138:6256   */\n    tag_97:\n        /* \"#utility.yul\":6225:6249   */\n      tag_201\n        /* \"#utility.yul\":6243:6248   */\n      dup2\n        /* \"#utility.yul\":6225:6249   */\n      tag_96\n      jump\t// in\n    tag_201:\n        /* \"#utility.yul\":6220:6223   */\n      dup3\n        /* \"#utility.yul\":6213:6250   */\n      mstore\n        /* \"#utility.yul\":6138:6256   */\n      pop\n      pop\n      jump\t// out\n        /* \"#utility.yul\":6262:6484   */\n    tag_41:\n        /* \"#utility.yul\":6355:6359   */\n      0x00\n        /* \"#utility.yul\":6393:6395   */\n      0x20\n        /* \"#utility.yul\":6382:6391   */\n      dup3\n        /* \"#utility.yul\":6378:6396   */\n      add\n        /* \"#utility.yul\":6370:6396   */\n      swap1\n      pop\n        /* \"#utility.yul\":6406:6477   */\n      tag_203\n        /* \"#utility.yul\":6474:6475   */\n      0x00\n        /* \"#utility.yul\":6463:6472   */\n      dup4\n        /* \"#utility.yul\":6459:6476   */\n      add\n        /* \"#utility.yul\":6450:6456   */\n      dup5\n        /* \"#utility.yul\":6406:6477   */\n      tag_97\n      jump\t// in\n    tag_203:\n        /* \"#utility.yul\":6262:6484   */\n      swap3\n      swap2\n      pop\n      pop\n      jump\t// out\n        /* \"#utility.yul\":6490:6608   */\n    tag_98:\n        /* \"#utility.yul\":6577:6601   */\n      tag_205\n        /* \"#utility.yul\":6595:6600   */\n      dup2\n        /* \"#utility.yul\":6577:6601   */\n      tag_75\n      jump\t// in\n    tag_205:\n        /* \"#utility.yul\":6572:6575   */\n      dup3\n        /* \"#utility.yul\":6565:6602   */\n      mstore\n        /* \"#utility.yul\":6490:6608   */\n      pop\n      pop\n      jump\t// out\n        /* \"#utility.yul\":6614:6836   */\n    tag_46:\n        /* \"#utility.yul\":6707:6711   */\n      0x00\n        /* \"#utility.yul\":6745:6747   */\n      0x20\n        /* \"#utility.yul\":6734:6743   */\n      dup3\n        /* \"#utility.yul\":6730:6748   */\n      add\n        /* \"#utility.yul\":6722:6748   */\n      swap1\n      pop\n        /* \"#utility.yul\":6758:6829   */\n      tag_207\n        /* \"#utility.yul\":6826:6827   */\n      0x00\n        /* \"#utility.yul\":6815:6824   */\n      dup4\n        /* \"#utility.yul\":6811:6828   */\n      add\n        /* \"#utility.yul\":6802:6808   */\n      dup5\n        /* \"#utility.yul\":6758:6829   */\n      tag_98\n      jump\t// in\n    tag_207:\n        /* \"#utility.yul\":6614:6836   */\n      swap3\n      swap2\n      pop\n      pop\n      jump\t// out\n        /* \"#utility.yul\":6842:7011   */\n    tag_99:\n        /* \"#utility.yul\":6926:6937   */\n      0x00\n        /* \"#utility.yul\":6960:6966   */\n      dup3\n        /* \"#utility.yul\":6955:6958   */\n      dup3\n        /* \"#utility.yul\":6948:6967   */\n      mstore\n        /* \"#utility.yul\":7000:7004   */\n      0x20\n        /* \"#utility.yul\":6995:6998   */\n      dup3\n        /* \"#utility.yul\":6991:7005   */\n      add\n        /* \"#utility.yul\":6976:7005   */\n      swap1\n      pop\n        /* \"#utility.yul\":6842:7011   */\n      swap3\n      swap2\n      pop\n      pop\n      jump\t// out\n        /* \"#utility.yul\":7017:7239   */\n    tag_100:\n        /* \"#utility.yul\":7157:7191   */\n      0x4465706f73697420736f6d657468696e6720796f752070697373206f66207368\n        /* \"#utility.yul\":7153:7154   */\n      0x00\n        /* \"#utility.yul\":7145:7151   */\n      dup3\n        /* \"#utility.yul\":7141:7155   */\n      add\n        /* \"#utility.yul\":7134:7192   */\n      mstore\n        /* \"#utility.yul\":7226:7231   */\n      0x6974650000000000000000000000000000000000000000000000000000000000\n        /* \"#utility.yul\":7221:7223   */\n      0x20\n        /* \"#utility.yul\":7213:7219   */\n      dup3\n        /* \"#utility.yul\":7209:7224   */\n      add\n        /* \"#utility.yul\":7202:7232   */\n      mstore\n        /* \"#utility.yul\":7017:7239   */\n      pop\n      jump\t// out\n        /* \"#utility.yul\":7245:7611   */\n    tag_101:\n        /* \"#utility.yul\":7387:7390   */\n      0x00\n        /* \"#utility.yul\":7408:7475   */\n      tag_211\n        /* \"#utility.yul\":7472:7474   */\n      0x23\n        /* \"#utility.yul\":7467:7470   */\n      dup4\n        /* \"#utility.yul\":7408:7475   */\n      tag_99\n      jump\t// in\n    tag_211:\n        /* \"#utility.yul\":7401:7475   */\n      swap2\n      pop\n        /* \"#utility.yul\":7484:7577   */\n      tag_212\n        /* \"#utility.yul\":7573:7576   */\n      dup3\n        /* \"#utility.yul\":7484:7577   */\n      tag_100\n      jump\t// in\n    tag_212:\n        /* \"#utility.yul\":7602:7604   */\n      0x40\n        /* \"#utility.yul\":7597:7600   */\n      dup3\n        /* \"#utility.yul\":7593:7605   */\n      add\n        /* \"#utility.yul\":7586:7605   */\n      swap1\n      pop\n        /* \"#utility.yul\":7245:7611   */\n      swap2\n      swap1\n      pop\n      jump\t// out\n        /* \"#utility.yul\":7617:8036   */\n    tag_50:\n        /* \"#utility.yul\":7783:7787   */\n      0x00\n        /* \"#utility.yul\":7821:7823   */\n      0x20\n        /* \"#utility.yul\":7810:7819   */\n      dup3\n        /* \"#utility.yul\":7806:7824   */\n      add\n        /* \"#utility.yul\":7798:7824   */\n      swap1\n      pop\n        /* \"#utility.yul\":7870:7879   */\n      dup2\n        /* \"#utility.yul\":7864:7868   */\n      dup2\n        /* \"#utility.yul\":7860:7880   */\n      sub\n        /* \"#utility.yul\":7856:7857   */\n      0x00\n        /* \"#utility.yul\":7845:7854   */\n      dup4\n        /* \"#utility.yul\":7841:7858   */\n      add\n        /* \"#utility.yul\":7834:7881   */\n      mstore\n        /* \"#utility.yul\":7898:8029   */\n      tag_214\n        /* \"#utility.yul\":8024:8028   */\n      dup2\n        /* \"#utility.yul\":7898:8029   */\n      tag_101\n      jump\t// in\n    tag_214:\n        /* \"#utility.yul\":7890:8029   */\n      swap1\n      pop\n        /* \"#utility.yul\":7617:8036   */\n      swap2\n      swap1\n      pop\n      jump\t// out\n        /* \"#utility.yul\":8042:8222   */\n    tag_102:\n        /* \"#utility.yul\":8090:8167   */\n      0x4e487b7100000000000000000000000000000000000000000000000000000000\n        /* \"#utility.yul\":8087:8088   */\n      0x00\n        /* \"#utility.yul\":8080:8168   */\n      mstore\n        /* \"#utility.yul\":8187:8191   */\n      0x11\n        /* \"#utility.yul\":8184:8185   */\n      0x04\n        /* \"#utility.yul\":8177:8192   */\n      mstore\n        /* \"#utility.yul\":8211:8215   */\n      0x24\n        /* \"#utility.yul\":8208:8209   */\n      0x00\n        /* \"#utility.yul\":8201:8216   */\n      revert\n        /* \"#utility.yul\":8228:8419   */\n    tag_52:\n        /* \"#utility.yul\":8268:8271   */\n      0x00\n        /* \"#utility.yul\":8287:8307   */\n      tag_217\n        /* \"#utility.yul\":8305:8306   */\n      dup3\n        /* \"#utility.yul\":8287:8307   */\n      tag_96\n      jump\t// in\n    tag_217:\n        /* \"#utility.yul\":8282:8307   */\n      swap2\n      pop\n        /* \"#utility.yul\":8321:8341   */\n      tag_218\n        /* \"#utility.yul\":8339:8340   */\n      dup4\n        /* \"#utility.yul\":8321:8341   */\n      tag_96\n      jump\t// in\n    tag_218:\n        /* \"#utility.yul\":8316:8341   */\n      swap3\n      pop\n        /* \"#utility.yul\":8364:8365   */\n      dup3\n        /* \"#utility.yul\":8361:8362   */\n      dup3\n        /* \"#utility.yul\":8357:8366   */\n      add\n        /* \"#utility.yul\":8350:8366   */\n      swap1\n      pop\n        /* \"#utility.yul\":8385:8388   */\n      dup1\n        /* \"#utility.yul\":8382:8383   */\n      dup3\n        /* \"#utility.yul\":8379:8389   */\n      gt\n        /* \"#utility.yul\":8376:8412   */\n      iszero\n      tag_219\n      jumpi\n        /* \"#utility.yul\":8392:8410   */\n      tag_220\n      tag_102\n      jump\t// in\n    tag_220:\n        /* \"#utility.yul\":8376:8412   */\n    tag_219:\n        /* \"#utility.yul\":8228:8419   */\n      swap3\n      swap2\n      pop\n      pop\n      jump\t// out\n        /* \"#utility.yul\":8425:8596   */\n    tag_103:\n        /* \"#utility.yul\":8565:8588   */\n      0x4163636f756e7420616c72656164792065786973740000000000000000000000\n        /* \"#utility.yul\":8561:8562   */\n      0x00\n        /* \"#utility.yul\":8553:8559   */\n      dup3\n        /* \"#utility.yul\":8549:8563   */\n      add\n        /* \"#utility.yul\":8542:8589   */\n      mstore\n        /* \"#utility.yul\":8425:8596   */\n      pop\n      jump\t// out\n        /* \"#utility.yul\":8602:8968   */\n    tag_104:\n        /* \"#utility.yul\":8744:8747   */\n      0x00\n        /* \"#utility.yul\":8765:8832   */\n      tag_223\n        /* \"#utility.yul\":8829:8831   */\n      0x15\n        /* \"#utility.yul\":8824:8827   */\n      dup4\n        /* \"#utility.yul\":8765:8832   */\n      tag_99\n      jump\t// in\n    tag_223:\n        /* \"#utility.yul\":8758:8832   */\n      swap2\n      pop\n        /* \"#utility.yul\":8841:8934   */\n      tag_224\n        /* \"#utility.yul\":8930:8933   */\n      dup3\n        /* \"#utility.yul\":8841:8934   */\n      tag_103\n      jump\t// in\n    tag_224:\n        /* \"#utility.yul\":8959:8961   */\n      0x20\n        /* \"#utility.yul\":8954:8957   */\n      dup3\n        /* \"#utility.yul\":8950:8962   */\n      add\n        /* \"#utility.yul\":8943:8962   */\n      swap1\n      pop\n        /* \"#utility.yul\":8602:8968   */\n      swap2\n      swap1\n      pop\n      jump\t// out\n        /* \"#utility.yul\":8974:9393   */\n    tag_57:\n        /* \"#utility.yul\":9140:9144   */\n      0x00\n        /* \"#utility.yul\":9178:9180   */\n      0x20\n        /* \"#utility.yul\":9167:9176   */\n      dup3\n        /* \"#utility.yul\":9163:9181   */\n      add\n        /* \"#utility.yul\":9155:9181   */\n      swap1\n      pop\n        /* \"#utility.yul\":9227:9236   */\n      dup2\n        /* \"#utility.yul\":9221:9225   */\n      dup2\n        /* \"#utility.yul\":9217:9237   */\n      sub\n        /* \"#utility.yul\":9213:9214   */\n      0x00\n        /* \"#utility.yul\":9202:9211   */\n      dup4\n        /* \"#utility.yul\":9198:9215   */\n      add\n        /* \"#utility.yul\":9191:9238   */\n      mstore\n        /* \"#utility.yul\":9255:9386   */\n      tag_226\n        /* \"#utility.yul\":9381:9385   */\n      dup2\n        /* \"#utility.yul\":9255:9386   */\n      tag_104\n      jump\t// in\n    tag_226:\n        /* \"#utility.yul\":9247:9386   */\n      swap1\n      pop\n        /* \"#utility.yul\":8974:9393   */\n      swap2\n      swap1\n      pop\n      jump\t// out\n        /* \"#utility.yul\":9399:9498   */\n    tag_105:\n        /* \"#utility.yul\":9451:9457   */\n      0x00\n        /* \"#utility.yul\":9485:9490   */\n      dup2\n        /* \"#utility.yul\":9479:9491   */\n      mload\n        /* \"#utility.yul\":9469:9491   */\n      swap1\n      pop\n        /* \"#utility.yul\":9399:9498   */\n      swap2\n      swap1\n      pop\n      jump\t// out\n        /* \"#utility.yul\":9504:9684   */\n    tag_106:\n        /* \"#utility.yul\":9552:9629   */\n      0x4e487b7100000000000000000000000000000000000000000000000000000000\n        /* \"#utility.yul\":9549:9550   */\n      0x00\n        /* \"#utility.yul\":9542:9630   */\n      mstore\n        /* \"#utility.yul\":9649:9653   */\n      0x22\n        /* \"#utility.yul\":9646:9647   */\n      0x04\n        /* \"#utility.yul\":9639:9654   */\n      mstore\n        /* \"#utility.yul\":9673:9677   */\n      0x24\n        /* \"#utility.yul\":9670:9671   */\n      0x00\n        /* \"#utility.yul\":9663:9678   */\n      revert\n        /* \"#utility.yul\":9690:10010   */\n    tag_107:\n        /* \"#utility.yul\":9734:9740   */\n      0x00\n        /* \"#utility.yul\":9771:9772   */\n      0x02\n        /* \"#utility.yul\":9765:9769   */\n      dup3\n        /* \"#utility.yul\":9761:9773   */\n      div\n        /* \"#utility.yul\":9751:9773   */\n      swap1\n      pop\n        /* \"#utility.yul\":9818:9819   */\n      0x01\n        /* \"#utility.yul\":9812:9816   */\n      dup3\n        /* \"#utility.yul\":9808:9820   */\n      and\n        /* \"#utility.yul\":9839:9857   */\n      dup1\n        /* \"#utility.yul\":9829:9910   */\n      tag_230\n      jumpi\n        /* \"#utility.yul\":9895:9899   */\n      0x7f\n        /* \"#utility.yul\":9887:9893   */\n      dup3\n        /* \"#utility.yul\":9883:9900   */\n      and\n        /* \"#utility.yul\":9873:9900   */\n      swap2\n      pop\n        /* \"#utility.yul\":9829:9910   */\n    tag_230:\n        /* \"#utility.yul\":9957:9959   */\n      0x20\n        /* \"#utility.yul\":9949:9955   */\n      dup3\n        /* \"#utility.yul\":9946:9960   */\n      lt\n        /* \"#utility.yul\":9926:9944   */\n      dup2\n        /* \"#utility.yul\":9923:9961   */\n      sub\n        /* \"#utility.yul\":9920:10004   */\n      tag_231\n      jumpi\n        /* \"#utility.yul\":9976:9994   */\n      tag_232\n      tag_106\n      jump\t// in\n    tag_232:\n        /* \"#utility.yul\":9920:10004   */\n    tag_231:\n        /* \"#utility.yul\":9741:10010   */\n      pop\n        /* \"#utility.yul\":9690:10010   */\n      swap2\n      swap1\n      pop\n      jump\t// out\n        /* \"#utility.yul\":10016:10157   */\n    tag_108:\n        /* \"#utility.yul\":10065:10069   */\n      0x00\n        /* \"#utility.yul\":10088:10091   */\n      dup2\n        /* \"#utility.yul\":10080:10091   */\n      swap1\n      pop\n        /* \"#utility.yul\":10111:10114   */\n      dup2\n        /* \"#utility.yul\":10108:10109   */\n      0x00\n        /* \"#utility.yul\":10101:10115   */\n      mstore\n        /* \"#utility.yul\":10145:10149   */\n      0x20\n        /* \"#utility.yul\":10142:10143   */\n      0x00\n        /* \"#utility.yul\":10132:10150   */\n      keccak256\n        /* \"#utility.yul\":10124:10150   */\n      swap1\n      pop\n        /* \"#utility.yul\":10016:10157   */\n      swap2\n      swap1\n      pop\n      jump\t// out\n        /* \"#utility.yul\":10163:10256   */\n    tag_109:\n        /* \"#utility.yul\":10200:10206   */\n      0x00\n        /* \"#utility.yul\":10247:10249   */\n      0x20\n        /* \"#utility.yul\":10242:10244   */\n      0x1f\n        /* \"#utility.yul\":10235:10240   */\n      dup4\n        /* \"#utility.yul\":10231:10245   */\n      add\n        /* \"#utility.yul\":10227:10250   */\n      div\n        /* \"#utility.yul\":10217:10250   */\n      swap1\n      pop\n        /* \"#utility.yul\":10163:10256   */\n      swap2\n      swap1\n      pop\n      jump\t// out\n        /* \"#utility.yul\":10262:10369   */\n    tag_110:\n        /* \"#utility.yul\":10306:10314   */\n      0x00\n        /* \"#utility.yul\":10356:10361   */\n      dup3\n        /* \"#utility.yul\":10350:10354   */\n      dup3\n        /* \"#utility.yul\":10346:10362   */\n      shl\n        /* \"#utility.yul\":10325:10362   */\n      swap1\n      pop\n        /* \"#utility.yul\":10262:10369   */\n      swap3\n      swap2\n      pop\n      pop\n      jump\t// out\n        /* \"#utility.yul\":10375:10768   */\n    tag_111:\n        /* \"#utility.yul\":10444:10450   */\n      0x00\n        /* \"#utility.yul\":10494:10495   */\n      0x08\n        /* \"#utility.yul\":10482:10492   */\n      dup4\n        /* \"#utility.yul\":10478:10496   */\n      mul\n        /* \"#utility.yul\":10517:10614   */\n      tag_237\n        /* \"#utility.yul\":10547:10613   */\n      0xffffffffffffffffffffffffffffffffffffffffffffffffffffffffffffffff\n        /* \"#utility.yul\":10536:10545   */\n      dup3\n        /* \"#utility.yul\":10517:10614   */\n      tag_110\n      jump\t// in\n    tag_237:\n        /* \"#utility.yul\":10635:10674   */\n      tag_238\n        /* \"#utility.yul\":10665:10673   */\n      dup7\n        /* \"#utility.yul\":10654:10663   */\n      dup4\n        /* \"#utility.yul\":10635:10674   */\n      tag_110\n      jump\t// in\n    tag_238:\n        /* \"#utility.yul\":10623:10674   */\n      swap6\n      pop\n        /* \"#utility.yul\":10707:10711   */\n      dup1\n        /* \"#utility.yul\":10703:10712   */\n      not\n        /* \"#utility.yul\":10696:10701   */\n      dup5\n        /* \"#utility.yul\":10692:10713   */\n      and\n        /* \"#utility.yul\":10683:10713   */\n      swap4\n      pop\n        /* \"#utility.yul\":10756:10760   */\n      dup1\n        /* \"#utility.yul\":10746:10754   */\n      dup7\n        /* \"#utility.yul\":10742:10761   */\n      and\n        /* \"#utility.yul\":10735:10740   */\n      dup5\n        /* \"#utility.yul\":10732:10762   */\n      or\n        /* \"#utility.yul\":10722:10762   */\n      swap3\n      pop\n        /* \"#utility.yul\":10451:10768   */\n      pop\n      pop\n        /* \"#utility.yul\":10375:10768   */\n      swap4\n      swap3\n      pop\n      pop\n      pop\n      jump\t// out\n        /* \"#utility.yul\":10774:10834   */\n    tag_112:\n        /* \"#utility.yul\":10802:10805   */\n      0x00\n        /* \"#utility.yul\":10823:10828   */\n      dup2\n        /* \"#utility.yul\":10816:10828   */\n      swap1\n      pop\n        /* \"#utility.yul\":10774:10834   */\n      swap2\n      swap1\n      pop\n      jump\t// out\n        /* \"#utility.yul\":10840:10982   */\n    tag_113:\n        /* \"#utility.yul\":10890:10899   */\n      0x00\n        /* \"#utility.yul\":10923:10976   */\n      tag_241\n        /* \"#utility.yul\":10941:10975   */\n      tag_242\n        /* \"#utility.yul\":10950:10974   */\n      tag_243\n        /* \"#utility.yul\":10968:10973   */\n      dup5\n        /* \"#utility.yul\":10950:10974   */\n      tag_96\n      jump\t// in\n    tag_243:\n        /* \"#utility.yul\":10941:10975   */\n      tag_112\n      jump\t// in\n    tag_242:\n        /* \"#utility.yul\":10923:10976   */\n      tag_96\n      jump\t// in\n    tag_241:\n        /* \"#utility.yul\":10910:10976   */\n      swap1\n      pop\n        /* \"#utility.yul\":10840:10982   */\n      swap2\n      swap1\n      pop\n      jump\t// out\n        /* \"#utility.yul\":10988:11063   */\n    tag_114:\n        /* \"#utility.yul\":11031:11034   */\n      0x00\n        /* \"#utility.yul\":11052:11057   */\n      dup2\n        /* \"#utility.yul\":11045:11057   */\n      swap1\n      pop\n        /* \"#utility.yul\":10988:11063   */\n      swap2\n      swap1\n      pop\n      jump\t// out\n        /* \"#utility.yul\":11069:11338   */\n    tag_115:\n        /* \"#utility.yul\":11179:11218   */\n      tag_246\n        /* \"#utility.yul\":11210:11217   */\n      dup4\n        /* \"#utility.yul\":11179:11218   */\n      tag_113\n      jump\t// in\n    tag_246:\n        /* \"#utility.yul\":11240:11331   */\n      tag_247\n        /* \"#utility.yul\":11289:11330   */\n      tag_248\n        /* \"#utility.yul\":11313:11329   */\n      dup3\n        /* \"#utility.yul\":11289:11330   */\n      tag_114\n      jump\t// in\n    tag_248:\n        /* \"#utility.yul\":11281:11287   */\n      dup5\n        /* \"#utility.yul\":11274:11278   */\n      dup5\n        /* \"#utility.yul\":11268:11279   */\n      sload\n        /* \"#utility.yul\":11240:11331   */\n      tag_111\n      jump\t// in\n    tag_247:\n        /* \"#utility.yul\":11234:11238   */\n      dup3\n        /* \"#utility.yul\":11227:11332   */\n      sstore\n        /* \"#utility.yul\":11145:11338   */\n      pop\n        /* \"#utility.yul\":11069:11338   */\n      pop\n      pop\n      pop\n      jump\t// out\n        /* \"#utility.yul\":11344:11417   */\n    tag_116:\n        /* \"#utility.yul\":11389:11392   */\n      0x00\n        /* \"#utility.yul\":11410:11411   */\n      0x00\n        /* \"#utility.yul\":11403:11411   */\n      swap1\n      pop\n        /* \"#utility.yul\":11344:11417   */\n      swap1\n      jump\t// out\n        /* \"#utility.yul\":11423:11612   */\n    tag_117:\n        /* \"#utility.yul\":11500:11532   */\n      tag_251\n      tag_116\n      jump\t// in\n    tag_251:\n        /* \"#utility.yul\":11541:11606   */\n      tag_252\n        /* \"#utility.yul\":11599:11605   */\n      dup2\n        /* \"#utility.yul\":11591:11597   */\n      dup5\n        /* \"#utility.yul\":11585:11589   */\n      dup5\n        /* \"#utility.yul\":11541:11606   */\n      tag_115\n      jump\t// in\n    tag_252:\n        /* \"#utility.yul\":11476:11612   */\n      pop\n        /* \"#utility.yul\":11423:11612   */\n      pop\n      pop\n      jump\t// out\n        /* \"#utility.yul\":11618:11804   */\n    tag_118:\n        /* \"#utility.yul\":11678:11798   */\n    tag_254:\n        /* \"#utility.yul\":11695:11698   */\n      dup2\n        /* \"#utility.yul\":11688:11693   */\n      dup2\n        /* \"#utility.yul\":11685:11699   */\n      lt\n        /* \"#utility.yul\":11678:11798   */\n      iszero\n      tag_256\n      jumpi\n        /* \"#utility.yul\":11749:11788   */\n      tag_257\n        /* \"#utility.yul\":11786:11787   */\n      0x00\n        /* \"#utility.yul\":11779:11784   */\n      dup3\n        /* \"#utility.yul\":11749:11788   */\n      tag_117\n      jump\t// in\n    tag_257:\n        /* \"#utility.yul\":11722:11723   */\n      0x01\n        /* \"#utility.yul\":11715:11720   */\n      dup2\n        /* \"#utility.yul\":11711:11724   */\n      add\n        /* \"#utility.yul\":11702:11724   */\n      swap1\n      pop\n        /* \"#utility.yul\":11678:11798   */\n      jump(tag_254)\n    tag_256:\n        /* \"#utility.yul\":11618:11804   */\n      pop\n      pop\n      jump\t// out\n        /* \"#utility.yul\":11810:12353   */\n    tag_119:\n        /* \"#utility.yul\":11911:11913   */\n      0x1f\n        /* \"#utility.yul\":11906:11909   */\n      dup3\n        /* \"#utility.yul\":11903:11914   */\n      gt\n        /* \"#utility.yul\":11900:12346   */\n      iszero\n      tag_259\n      jumpi\n        /* \"#utility.yul\":11945:11983   */\n      tag_260\n        /* \"#utility.yul\":11977:11982   */\n      dup2\n        /* \"#utility.yul\":11945:11983   */\n      tag_108\n      jump\t// in\n    tag_260:\n        /* \"#utility.yul\":12029:12058   */\n      tag_261\n        /* \"#utility.yul\":12047:12057   */\n      dup5\n        /* \"#utility.yul\":12029:12058   */\n      tag_109\n      jump\t// in\n    tag_261:\n        /* \"#utility.yul\":12019:12027   */\n      dup2\n        /* \"#utility.yul\":12015:12059   */\n      add\n        /* \"#utility.yul\":12212:12214   */\n      0x20\n        /* \"#utility.yul\":12200:12210   */\n      dup6\n        /* \"#utility.yul\":12197:12215   */\n      lt\n        /* \"#utility.yul\":12194:12243   */\n      iszero\n      tag_262\n      jumpi\n        /* \"#utility.yul\":12233:12241   */\n      dup2\n        /* \"#utility.yul\":12218:12241   */\n      swap1\n      pop\n        /* \"#utility.yul\":12194:12243   */\n    tag_262:\n        /* \"#utility.yul\":12256:12336   */\n      tag_263\n        /* \"#utility.yul\":12312:12334   */\n      tag_264\n        /* \"#utility.yul\":12330:12333   */\n      dup6\n        /* \"#utility.yul\":12312:12334   */\n      tag_109\n      jump\t// in\n    tag_264:\n        /* \"#utility.yul\":12302:12310   */\n      dup4\n        /* \"#utility.yul\":12298:12335   */\n      add\n        /* \"#utility.yul\":12285:12296   */\n      dup3\n        /* \"#utility.yul\":12256:12336   */\n      tag_118\n      jump\t// in\n    tag_263:\n        /* \"#utility.yul\":11915:12346   */\n      pop\n      pop\n        /* \"#utility.yul\":11900:12346   */\n    tag_259:\n        /* \"#utility.yul\":11810:12353   */\n      pop\n      pop\n      pop\n      jump\t// out\n        /* \"#utility.yul\":12359:12476   */\n    tag_120:\n        /* \"#utility.yul\":12413:12421   */\n      0x00\n        /* \"#utility.yul\":12463:12468   */\n      dup3\n        /* \"#utility.yul\":12457:12461   */\n      dup3\n        /* \"#utility.yul\":12453:12469   */\n      shr\n        /* \"#utility.yul\":12432:12469   */\n      swap1\n      pop\n        /* \"#utility.yul\":12359:12476   */\n      swap3\n      swap2\n      pop\n      pop\n      jump\t// out\n        /* \"#utility.yul\":12482:12651   */\n    tag_121:\n        /* \"#utility.yul\":12526:12532   */\n      0x00\n        /* \"#utility.yul\":12559:12610   */\n      tag_267\n        /* \"#utility.yul\":12607:12608   */\n      0x00\n        /* \"#utility.yul\":12603:12609   */\n      not\n        /* \"#utility.yul\":12595:12600   */\n      dup5\n        /* \"#utility.yul\":12592:12593   */\n      0x08\n        /* \"#utility.yul\":12588:12601   */\n      mul\n        /* \"#utility.yul\":12559:12610   */\n      tag_120\n      jump\t// in\n    tag_267:\n        /* \"#utility.yul\":12555:12611   */\n      not\n        /* \"#utility.yul\":12640:12644   */\n      dup1\n        /* \"#utility.yul\":12634:12638   */\n      dup4\n        /* \"#utility.yul\":12630:12645   */\n      and\n        /* \"#utility.yul\":12620:12645   */\n      swap2\n      pop\n        /* \"#utility.yul\":12533:12651   */\n      pop\n        /* \"#utility.yul\":12482:12651   */\n      swap3\n      swap2\n      pop\n      pop\n      jump\t// out\n        /* \"#utility.yul\":12656:12951   */\n    tag_122:\n        /* \"#utility.yul\":12732:12736   */\n      0x00\n        /* \"#utility.yul\":12878:12907   */\n      tag_269\n        /* \"#utility.yul\":12903:12906   */\n      dup4\n        /* \"#utility.yul\":12897:12901   */\n      dup4\n        /* \"#utility.yul\":12878:12907   */\n      tag_121\n      jump\t// in\n    tag_269:\n        /* \"#utility.yul\":12870:12907   */\n      swap2\n      pop\n        /* \"#utility.yul\":12940:12943   */\n      dup3\n        /* \"#utility.yul\":12937:12938   */\n      0x02\n        /* \"#utility.yul\":12933:12944   */\n      mul\n        /* \"#utility.yul\":12927:12931   */\n      dup3\n        /* \"#utility.yul\":12924:12945   */\n      or\n        /* \"#utility.yul\":12916:12945   */\n      swap1\n      pop\n        /* \"#utility.yul\":12656:12951   */\n      swap3\n      swap2\n      pop\n      pop\n      jump\t// out\n        /* \"#utility.yul\":12956:14351   */\n    tag_59:\n        /* \"#utility.yul\":13073:13110   */\n      tag_271\n        /* \"#utility.yul\":13106:13109   */\n      dup3\n        /* \"#utility.yul\":13073:13110   */\n      tag_105\n      jump\t// in\n    tag_271:\n        /* \"#utility.yul\":13175:13193   */\n      0xffffffffffffffff\n        /* \"#utility.yul\":13167:13173   */\n      dup2\n        /* \"#utility.yul\":13164:13194   */\n      gt\n        /* \"#utility.yul\":13161:13217   */\n      iszero\n      tag_272\n      jumpi\n        /* \"#utility.yul\":13197:13215   */\n      tag_273\n      tag_81\n      jump\t// in\n    tag_273:\n        /* \"#utility.yul\":13161:13217   */\n    tag_272:\n        /* \"#utility.yul\":13241:13279   */\n      tag_274\n        /* \"#utility.yul\":13273:13277   */\n      dup3\n        /* \"#utility.yul\":13267:13278   */\n      sload\n        /* \"#utility.yul\":13241:13279   */\n      tag_107\n      jump\t// in\n    tag_274:\n        /* \"#utility.yul\":13326:13393   */\n      tag_275\n        /* \"#utility.yul\":13386:13392   */\n      dup3\n        /* \"#utility.yul\":13378:13384   */\n      dup3\n        /* \"#utility.yul\":13372:13376   */\n      dup6\n        /* \"#utility.yul\":13326:13393   */\n      tag_119\n      jump\t// in\n    tag_275:\n        /* \"#utility.yul\":13420:13421   */\n      0x00\n        /* \"#utility.yul\":13444:13448   */\n      0x20\n        /* \"#utility.yul\":13431:13448   */\n      swap1\n      pop\n        /* \"#utility.yul\":13476:13478   */\n      0x1f\n        /* \"#utility.yul\":13468:13474   */\n      dup4\n        /* \"#utility.yul\":13465:13479   */\n      gt\n        /* \"#utility.yul\":13493:13494   */\n      0x01\n        /* \"#utility.yul\":13488:14106   */\n      dup2\n      eq\n      tag_277\n      jumpi\n        /* \"#utility.yul\":14150:14151   */\n      0x00\n        /* \"#utility.yul\":14167:14173   */\n      dup5\n        /* \"#utility.yul\":14164:14241   */\n      iszero\n      tag_278\n      jumpi\n        /* \"#utility.yul\":14216:14225   */\n      dup3\n        /* \"#utility.yul\":14211:14214   */\n      dup8\n        /* \"#utility.yul\":14207:14226   */\n      add\n        /* \"#utility.yul\":14201:14227   */\n      mload\n        /* \"#utility.yul\":14192:14227   */\n      swap1\n      pop\n        /* \"#utility.yul\":14164:14241   */\n    tag_278:\n        /* \"#utility.yul\":14267:14334   */\n      tag_279\n        /* \"#utility.yul\":14327:14333   */\n      dup6\n        /* \"#utility.yul\":14320:14325   */\n      dup3\n        /* \"#utility.yul\":14267:14334   */\n      tag_122\n      jump\t// in\n    tag_279:\n        /* \"#utility.yul\":14261:14265   */\n      dup7\n        /* \"#utility.yul\":14254:14335   */\n      sstore\n        /* \"#utility.yul\":14123:14345   */\n      pop\n        /* \"#utility.yul\":13458:14345   */\n      jump(tag_276)\n        /* \"#utility.yul\":13488:14106   */\n    tag_277:\n        /* \"#utility.yul\":13540:13544   */\n      0x1f\n        /* \"#utility.yul\":13536:13545   */\n      not\n        /* \"#utility.yul\":13528:13534   */\n      dup5\n        /* \"#utility.yul\":13524:13546   */\n      and\n        /* \"#utility.yul\":13574:13611   */\n      tag_280\n        /* \"#utility.yul\":13606:13610   */\n      dup7\n        /* \"#utility.yul\":13574:13611   */\n      tag_108\n      jump\t// in\n    tag_280:\n        /* \"#utility.yul\":13633:13634   */\n      0x00\n        /* \"#utility.yul\":13647:13855   */\n    tag_281:\n        /* \"#utility.yul\":13661:13668   */\n      dup3\n        /* \"#utility.yul\":13658:13659   */\n      dup2\n        /* \"#utility.yul\":13655:13669   */\n      lt\n        /* \"#utility.yul\":13647:13855   */\n      iszero\n      tag_283\n      jumpi\n        /* \"#utility.yul\":13740:13749   */\n      dup5\n        /* \"#utility.yul\":13735:13738   */\n      dup10\n        /* \"#utility.yul\":13731:13750   */\n      add\n        /* \"#utility.yul\":13725:13751   */\n      mload\n        /* \"#utility.yul\":13717:13723   */\n      dup3\n        /* \"#utility.yul\":13710:13752   */\n      sstore\n        /* \"#utility.yul\":13791:13792   */\n      0x01\n        /* \"#utility.yul\":13783:13789   */\n      dup3\n        /* \"#utility.yul\":13779:13793   */\n      add\n        /* \"#utility.yul\":13769:13793   */\n      swap2\n      pop\n        /* \"#utility.yul\":13838:13840   */\n      0x20\n        /* \"#utility.yul\":13827:13836   */\n      dup6\n        /* \"#utility.yul\":13823:13841   */\n      add\n        /* \"#utility.yul\":13810:13841   */\n      swap5\n      pop\n        /* \"#utility.yul\":13684:13688   */\n      0x20\n        /* \"#utility.yul\":13681:13682   */\n      dup2\n        /* \"#utility.yul\":13677:13689   */\n      add\n        /* \"#utility.yul\":13672:13689   */\n      swap1\n      pop\n        /* \"#utility.yul\":13647:13855   */\n      jump(tag_281)\n    tag_283:\n        /* \"#utility.yul\":13883:13889   */\n      dup7\n        /* \"#utility.yul\":13874:13881   */\n      dup4\n        /* \"#utility.yul\":13871:13890   */\n      lt\n        /* \"#utility.yul\":13868:14047   */\n      iszero\n      tag_284\n      jumpi\n        /* \"#utility.yul\":13941:13950   */\n      dup5\n        /* \"#utility.yul\":13936:13939   */\n      dup10\n        /* \"#utility.yul\":13932:13951   */\n      add\n        /* \"#utility.yul\":13926:13952   */\n      mload\n        /* \"#utility.yul\":13984:14032   */\n      tag_285\n        /* \"#utility.yul\":14026:14030   */\n      0x1f\n        /* \"#utility.yul\":14018:14024   */\n      dup10\n        /* \"#utility.yul\":14014:14031   */\n      and\n        /* \"#utility.yul\":14003:14012   */\n      dup3\n        /* \"#utility.yul\":13984:14032   */\n      tag_121\n      jump\t// in\n    tag_285:\n        /* \"#utility.yul\":13976:13982   */\n      dup4\n        /* \"#utility.yul\":13969:14033   */\n      sstore\n        /* \"#utility.yul\":13891:14047   */\n      pop\n        /* \"#utility.yul\":13868:14047   */\n    tag_284:\n        /* \"#utility.yul\":14093:14094   */\n      0x01\n        /* \"#utility.yul\":14089:14090   */\n      0x02\n        /* \"#utility.yul\":14081:14087   */\n      dup9\n        /* \"#utility.yul\":14077:14091   */\n      mul\n        /* \"#utility.yul\":14073:14095   */\n      add\n        /* \"#utility.yul\":14067:14071   */\n      dup9\n        /* \"#utility.yul\":14060:14096   */\n      sstore\n        /* \"#utility.yul\":13495:14106   */\n      pop\n      pop\n      pop\n        /* \"#utility.yul\":13458:14345   */\n    tag_276:\n      pop\n        /* \"#utility.yul\":13048:14351   */\n      pop\n      pop\n      pop\n        /* \"#utility.yul\":12956:14351   */\n      pop\n      pop\n      jump\t// out\n        /* \"#utility.yul\":14357:14590   */\n    tag_61:\n        /* \"#utility.yul\":14396:14399   */\n      0x00\n        /* \"#utility.yul\":14419:14443   */\n      tag_287\n        /* \"#utility.yul\":14437:14442   */\n      dup3\n        /* \"#utility.yul\":14419:14443   */\n      tag_96\n      jump\t// in\n    tag_287:\n        /* \"#utility.yul\":14410:14443   */\n      swap2\n      pop\n        /* \"#utility.yul\":14465:14531   */\n      0xffffffffffffffffffffffffffffffffffffffffffffffffffffffffffffffff\n        /* \"#utility.yul\":14458:14463   */\n      dup3\n        /* \"#utility.yul\":14455:14532   */\n      sub\n        /* \"#utility.yul\":14452:14555   */\n      tag_288\n      jumpi\n        /* \"#utility.yul\":14535:14553   */\n      tag_289\n      tag_102\n      jump\t// in\n    tag_289:\n        /* \"#utility.yul\":14452:14555   */\n    tag_288:\n        /* \"#utility.yul\":14582:14583   */\n      0x01\n        /* \"#utility.yul\":14575:14580   */\n      dup3\n        /* \"#utility.yul\":14571:14584   */\n      add\n        /* \"#utility.yul\":14564:14584   */\n      swap1\n      pop\n        /* \"#utility.yul\":14357:14590   */\n      swap2\n      swap1\n      pop\n      jump\t// out\n        /* \"#utility.yul\":14596:14758   */\n    tag_123:\n        /* \"#utility.yul\":14736:14750   */\n      0x4e6f7420616e2061646d696e0000000000000000000000000000000000000000\n        /* \"#utility.yul\":14732:14733   */\n      0x00\n        /* \"#utility.yul\":14724:14730   */\n      dup3\n        /* \"#utility.yul\":14720:14734   */\n      add\n        /* \"#utility.yul\":14713:14751   */\n      mstore\n        /* \"#utility.yul\":14596:14758   */\n      pop\n      jump\t// out\n        /* \"#utility.yul\":14764:15130   */\n    tag_124:\n        /* \"#utility.yul\":14906:14909   */\n      0x00\n        /* \"#utility.yul\":14927:14994   */\n      tag_292\n        /* \"#utility.yul\":14991:14993   */\n      0x0c\n        /* \"#utility.yul\":14986:14989   */\n      dup4\n        /* \"#utility.yul\":14927:14994   */\n      tag_99\n      jump\t// in\n    tag_292:\n        /* \"#utility.yul\":14920:14994   */\n      swap2\n      pop\n        /* \"#utility.yul\":15003:15096   */\n      tag_293\n        /* \"#utility.yul\":15092:15095   */\n      dup3\n        /* \"#utility.yul\":15003:15096   */\n      tag_123\n      jump\t// in\n    tag_293:\n        /* \"#utility.yul\":15121:15123   */\n      0x20\n        /* \"#utility.yul\":15116:15119   */\n      dup3\n        /* \"#utility.yul\":15112:15124   */\n      add\n        /* \"#utility.yul\":15105:15124   */\n      swap1\n      pop\n        /* \"#utility.yul\":14764:15130   */\n      swap2\n      swap1\n      pop\n      jump\t// out\n        /* \"#utility.yul\":15136:15555   */\n    tag_65:\n        /* \"#utility.yul\":15302:15306   */\n      0x00\n        /* \"#utility.yul\":15340:15342   */\n      0x20\n        /* \"#utility.yul\":15329:15338   */\n      dup3\n        /* \"#utility.yul\":15325:15343   */\n      add\n        /* \"#utility.yul\":15317:15343   */\n      swap1\n      pop\n        /* \"#utility.yul\":15389:15398   */\n      dup2\n        /* \"#utility.yul\":15383:15387   */\n      dup2\n        /* \"#utility.yul\":15379:15399   */\n      sub\n        /* \"#utility.yul\":15375:15376   */\n      0x00\n        /* \"#utility.yul\":15364:15373   */\n      dup4\n        /* \"#utility.yul\":15360:15377   */\n      add\n        /* \"#utility.yul\":15353:15400   */\n      mstore\n        /* \"#utility.yul\":15417:15548   */\n      tag_295\n        /* \"#utility.yul\":15543:15547   */\n      dup2\n        /* \"#utility.yul\":15417:15548   */\n      tag_124\n      jump\t// in\n    tag_295:\n        /* \"#utility.yul\":15409:15548   */\n      swap1\n      pop\n        /* \"#utility.yul\":15136:15555   */\n      swap2\n      swap1\n      pop\n      jump\t// out\n\n    auxdata: 0xa264697066735822122076c916ebb9f3f6b366f602a62e059028b92fe1fc373aa807286311c96aad7a7e64736f6c634300081f0033\n}\n",
				"bytecode": {
					"linkReferences": {},
					"object": "60806040525f6002553480156012575f5ffd5b503360045f6101000a81548173ffffffffffffffffffffffffffffffffffffffff021916908373ffffffffffffffffffffffffffffffffffffffff160217905550610e5b806100605f395ff3fe60806040526004361061006f575f3560e01c8063993746421161004d57806399374642146100df578063c3c5a5471461011b578063e3d670d714610157578063f851a440146101935761006f565b806304ab7197146100735780635b0025ad1461008f5780636b4fd2ad146100b7575b5f5ffd5b61008d60048036038101906100889190610613565b6101bd565b005b34801561009a575f5ffd5b506100b560048036038101906100b0919061077a565b6102a2565b005b3480156100c2575f5ffd5b506100dd60048036038101906100d891906107e4565b6103f0565b005b3480156100ea575f5ffd5b5061010560048036038101906101009190610613565b610535565b6040516101129190610895565b60405180910390f35b348015610126575f5ffd5b50610141600480360381019061013c9190610613565b610552565b60405161014e91906108c8565b60405180910390f35b348015610162575f5ffd5b5061017d60048036038101906101789190610613565b61056f565b60405161018a91906108f9565b60405180910390f35b34801561019e575f5ffd5b506101a7610583565b6040516101b49190610921565b60405180910390f35b5f34116101ff576040517f08c379a00000000000000000000000000000000000000000000000000000000081526004016101f6906109ba565b60405180910390fd5b345f5f8373ffffffffffffffffffffffffffffffffffffffff1673ffffffffffffffffffffffffffffffffffffffff1681526020019081526020015f205f82825461024a9190610a05565b925050819055508073ffffffffffffffffffffffffffffffffffffffff167f134e340554ff8a7d64280a2a28b982df554e2595e5bf45cd39368f31099172a63460405161029791906108f9565b60405180910390a250565b60015f3373ffffffffffffffffffffffffffffffffffffffff1673ffffffffffffffffffffffffffffffffffffffff1681526020019081526020015f205f9054906101000a900460ff161561032c576040517f08c379a000000000000000000000000000000000000000000000000000000000815260040161032390610a82565b60405180910390fd5b6001805f3373ffffffffffffffffffffffffffffffffffffffff1673ffffffffffffffffffffffffffffffffffffffff1681526020019081526020015f205f6101000a81548160ff021916908315150217905550806003908161038f9190610ca7565b505f60025f8154809291906103a390610d76565b919050559050803373ffffffffffffffffffffffffffffffffffffffff167e7dc6ab80cc84c043b7b8d4fcafc802187470087f7ea7fccd2e17aecd0256a160405160405180910390a35050565b60045f9054906101000a900473ffffffffffffffffffffffffffffffffffffffff1673ffffffffffffffffffffffffffffffffffffffff163373ffffffffffffffffffffffffffffffffffffffff161461047f576040517f08c379a000000000000000000000000000000000000000000000000000000000815260040161047690610e07565b60405180910390fd5b8060055f8473ffffffffffffffffffffffffffffffffffffffff1673ffffffffffffffffffffffffffffffffffffffff1681526020019081526020015f205f6101000a81548160ff021916908360028111156104de576104dd610822565b5b02179055508173ffffffffffffffffffffffffffffffffffffffff167fda4d41475ec50aa8531c242d7d7a0aad94df435c0be1f0cbf130f862bb38290e826040516105299190610895565b60405180910390a25050565b6005602052805f5260405f205f915054906101000a900460ff1681565b6001602052805f5260405f205f915054906101000a900460ff1681565b5f602052805f5260405f205f915090505481565b60045f9054906101000a900473ffffffffffffffffffffffffffffffffffffffff1681565b5f604051905090565b5f5ffd5b5f5ffd5b5f73ffffffffffffffffffffffffffffffffffffffff82169050919050565b5f6105e2826105b9565b9050919050565b6105f2816105d8565b81146105fc575f5ffd5b50565b5f8135905061060d816105e9565b92915050565b5f60208284031215610628576106276105b1565b5b5f610635848285016105ff565b91505092915050565b5f5ffd5b5f5ffd5b5f601f19601f8301169050919050565b7f4e487b71000000000000000000000000000000000000000000000000000000005f52604160045260245ffd5b61068c82610646565b810181811067ffffffffffffffff821117156106ab576106aa610656565b5b80604052505050565b5f6106bd6105a8565b90506106c98282610683565b919050565b5f67ffffffffffffffff8211156106e8576106e7610656565b5b6106f182610646565b9050602081019050919050565b828183375f83830152505050565b5f61071e610719846106ce565b6106b4565b90508281526020810184848401111561073a57610739610642565b5b6107458482856106fe565b509392505050565b5f82601f8301126107615761076061063e565b5b813561077184826020860161070c565b91505092915050565b5f6020828403121561078f5761078e6105b1565b5b5f82013567ffffffffffffffff8111156107ac576107ab6105b5565b5b6107b88482850161074d565b91505092915050565b600381106107cd575f5ffd5b50565b5f813590506107de816107c1565b92915050565b5f5f604083850312156107fa576107f96105b1565b5b5f610807858286016105ff565b9250506020610818858286016107d0565b9150509250929050565b7f4e487b71000000000000000000000000000000000000000000000000000000005f52602160045260245ffd5b600381106108605761085f610822565b5b50565b5f8190506108708261084f565b919050565b5f61087f82610863565b9050919050565b61088f81610875565b82525050565b5f6020820190506108a85f830184610886565b92915050565b5f8115159050919050565b6108c2816108ae565b82525050565b5f6020820190506108db5f8301846108b9565b92915050565b5f819050919050565b6108f3816108e1565b82525050565b5f60208201905061090c5f8301846108ea565b92915050565b61091b816105d8565b82525050565b5f6020820190506109345f830184610912565b92915050565b5f82825260208201905092915050565b7f4465706f73697420736f6d657468696e6720796f752070697373206f662073685f8201527f6974650000000000000000000000000000000000000000000000000000000000602082015250565b5f6109a460238361093a565b91506109af8261094a565b604082019050919050565b5f6020820190508181035f8301526109d181610998565b9050919050565b7f4e487b71000000000000000000000000000000000000000000000000000000005f52601160045260245ffd5b5f610a0f826108e1565b9150610a1a836108e1565b9250828201905080821115610a3257610a316109d8565b5b92915050565b7f4163636f756e7420616c726561647920657869737400000000000000000000005f82015250565b5f610a6c60158361093a565b9150610a7782610a38565b602082019050919050565b5f6020820190508181035f830152610a9981610a60565b9050919050565b5f81519050919050565b7f4e487b71000000000000000000000000000000000000000000000000000000005f52602260045260245ffd5b5f6002820490506001821680610aee57607f821691505b602082108103610b0157610b00610aaa565b5b50919050565b5f819050815f5260205f209050919050565b5f6020601f8301049050919050565b5f82821b905092915050565b5f60088302610b637fffffffffffffffffffffffffffffffffffffffffffffffffffffffffffffffff82610b28565b610b6d8683610b28565b95508019841693508086168417925050509392505050565b5f819050919050565b5f610ba8610ba3610b9e846108e1565b610b85565b6108e1565b9050919050565b5f819050919050565b610bc183610b8e565b610bd5610bcd82610baf565b848454610b34565b825550505050565b5f5f905090565b610bec610bdd565b610bf7818484610bb8565b505050565b5b81811015610c1a57610c0f5f82610be4565b600181019050610bfd565b5050565b601f821115610c5f57610c3081610b07565b610c3984610b19565b81016020851015610c48578190505b610c5c610c5485610b19565b830182610bfc565b50505b505050565b5f82821c905092915050565b5f610c7f5f1984600802610c64565b1980831691505092915050565b5f610c978383610c70565b9150826002028217905092915050565b610cb082610aa0565b67ffffffffffffffff811115610cc957610cc8610656565b5b610cd38254610ad7565b610cde828285610c1e565b5f60209050601f831160018114610d0f575f8415610cfd578287015190505b610d078582610c8c565b865550610d6e565b601f198416610d1d86610b07565b5f5b82811015610d4457848901518255600182019150602085019450602081019050610d1f565b86831015610d615784890151610d5d601f891682610c70565b8355505b6001600288020188555050505b505050505050565b5f610d80826108e1565b91507fffffffffffffffffffffffffffffffffffffffffffffffffffffffffffffffff8203610db257610db16109d8565b5b600182019050919050565b7f4e6f7420616e2061646d696e00000000000000000000000000000000000000005f82015250565b5f610df1600c8361093a565b9150610dfc82610dbd565b602082019050919050565b5f6020820190508181035f830152610e1e81610de5565b905091905056fea264697066735822122076c916ebb9f3f6b366f602a62e059028b92fe1fc373aa807286311c96aad7a7e64736f6c634300081f0033",
					"opcodes": "PUSH1 0x80 PUSH1 0x40 MSTORE PUSH0 PUSH1 0x2 SSTORE CALLVALUE DUP1 ISZERO PUSH1 0x12 JUMPI PUSH0 PUSH0 REVERT JUMPDEST POP CALLER PUSH1 0x4 PUSH0 PUSH2 0x100 EXP DUP2 SLOAD DUP2 PUSH20 0xFFFFFFFFFFFFFFFFFFFFFFFFFFFFFFFFFFFFFFFF MUL NOT AND SWAP1 DUP4 PUSH20 0xFFFFFFFFFFFFFFFFFFFFFFFFFFFFFFFFFFFFFFFF AND MUL OR SWAP1 SSTORE POP PUSH2 0xE5B DUP1 PUSH2 0x60 PUSH0 CODECOPY PUSH0 RETURN INVALID PUSH1 0x80 PUSH1 0x40 MSTORE PUSH1 0x4 CALLDATASIZE LT PUSH2 0x6F JUMPI PUSH0 CALLDATALOAD PUSH1 0xE0 SHR DUP1 PUSH4 0x99374642 GT PUSH2 0x4D JUMPI DUP1 PUSH4 0x99374642 EQ PUSH2 0xDF JUMPI DUP1 PUSH4 0xC3C5A547 EQ PUSH2 0x11B JUMPI DUP1 PUSH4 0xE3D670D7 EQ PUSH2 0x157 JUMPI DUP1 PUSH4 0xF851A440 EQ PUSH2 0x193 JUMPI PUSH2 0x6F JUMP JUMPDEST DUP1 PUSH4 0x4AB7197 EQ PUSH2 0x73 JUMPI DUP1 PUSH4 0x5B0025AD EQ PUSH2 0x8F JUMPI DUP1 PUSH4 0x6B4FD2AD EQ PUSH2 0xB7 JUMPI JUMPDEST PUSH0 PUSH0 REVERT JUMPDEST PUSH2 0x8D PUSH1 0x4 DUP1 CALLDATASIZE SUB DUP2 ADD SWAP1 PUSH2 0x88 SWAP2 SWAP1 PUSH2 0x613 JUMP JUMPDEST PUSH2 0x1BD JUMP JUMPDEST STOP JUMPDEST CALLVALUE DUP1 ISZERO PUSH2 0x9A JUMPI PUSH0 PUSH0 REVERT JUMPDEST POP PUSH2 0xB5 PUSH1 0x4 DUP1 CALLDATASIZE SUB DUP2 ADD SWAP1 PUSH2 0xB0 SWAP2 SWAP1 PUSH2 0x77A JUMP JUMPDEST PUSH2 0x2A2 JUMP JUMPDEST STOP JUMPDEST CALLVALUE DUP1 ISZERO PUSH2 0xC2 JUMPI PUSH0 PUSH0 REVERT JUMPDEST POP PUSH2 0xDD PUSH1 0x4 DUP1 CALLDATASIZE SUB DUP2 ADD SWAP1 PUSH2 0xD8 SWAP2 SWAP1 PUSH2 0x7E4 JUMP JUMPDEST PUSH2 0x3F0 JUMP JUMPDEST STOP JUMPDEST CALLVALUE DUP1 ISZERO PUSH2 0xEA JUMPI PUSH0 PUSH0 REVERT JUMPDEST POP PUSH2 0x105 PUSH1 0x4 DUP1 CALLDATASIZE SUB DUP2 ADD SWAP1 PUSH2 0x100 SWAP2 SWAP1 PUSH2 0x613 JUMP JUMPDEST PUSH2 0x535 JUMP JUMPDEST PUSH1 0x40 MLOAD PUSH2 0x112 SWAP2 SWAP1 PUSH2 0x895 JUMP JUMPDEST PUSH1 0x40 MLOAD DUP1 SWAP2 SUB SWAP1 RETURN JUMPDEST CALLVALUE DUP1 ISZERO PUSH2 0x126 JUMPI PUSH0 PUSH0 REVERT JUMPDEST POP PUSH2 0x141 PUSH1 0x4 DUP1 CALLDATASIZE SUB DUP2 ADD SWAP1 PUSH2 0x13C SWAP2 SWAP1 PUSH2 0x613 JUMP JUMPDEST PUSH2 0x552 JUMP JUMPDEST PUSH1 0x40 MLOAD PUSH2 0x14E SWAP2 SWAP1 PUSH2 0x8C8 JUMP JUMPDEST PUSH1 0x40 MLOAD DUP1 SWAP2 SUB SWAP1 RETURN JUMPDEST CALLVALUE DUP1 ISZERO PUSH2 0x162 JUMPI PUSH0 PUSH0 REVERT JUMPDEST POP PUSH2 0x17D PUSH1 0x4 DUP1 CALLDATASIZE SUB DUP2 ADD SWAP1 PUSH2 0x178 SWAP2 SWAP1 PUSH2 0x613 JUMP JUMPDEST PUSH2 0x56F JUMP JUMPDEST PUSH1 0x40 MLOAD PUSH2 0x18A SWAP2 SWAP1 PUSH2 0x8F9 JUMP JUMPDEST PUSH1 0x40 MLOAD DUP1 SWAP2 SUB SWAP1 RETURN JUMPDEST CALLVALUE DUP1 ISZERO PUSH2 0x19E JUMPI PUSH0 PUSH0 REVERT JUMPDEST POP PUSH2 0x1A7 PUSH2 0x583 JUMP JUMPDEST PUSH1 0x40 MLOAD PUSH2 0x1B4 SWAP2 SWAP1 PUSH2 0x921 JUMP JUMPDEST PUSH1 0x40 MLOAD DUP1 SWAP2 SUB SWAP1 RETURN JUMPDEST PUSH0 CALLVALUE GT PUSH2 0x1FF JUMPI PUSH1 0x40 MLOAD PUSH32 0x8C379A000000000000000000000000000000000000000000000000000000000 DUP2 MSTORE PUSH1 0x4 ADD PUSH2 0x1F6 SWAP1 PUSH2 0x9BA JUMP JUMPDEST PUSH1 0x40 MLOAD DUP1 SWAP2 SUB SWAP1 REVERT JUMPDEST CALLVALUE PUSH0 PUSH0 DUP4 PUSH20 0xFFFFFFFFFFFFFFFFFFFFFFFFFFFFFFFFFFFFFFFF AND PUSH20 0xFFFFFFFFFFFFFFFFFFFFFFFFFFFFFFFFFFFFFFFF AND DUP2 MSTORE PUSH1 0x20 ADD SWAP1 DUP2 MSTORE PUSH1 0x20 ADD PUSH0 KECCAK256 PUSH0 DUP3 DUP3 SLOAD PUSH2 0x24A SWAP2 SWAP1 PUSH2 0xA05 JUMP JUMPDEST SWAP3 POP POP DUP2 SWAP1 SSTORE POP DUP1 PUSH20 0xFFFFFFFFFFFFFFFFFFFFFFFFFFFFFFFFFFFFFFFF AND PUSH32 0x134E340554FF8A7D64280A2A28B982DF554E2595E5BF45CD39368F31099172A6 CALLVALUE PUSH1 0x40 MLOAD PUSH2 0x297 SWAP2 SWAP1 PUSH2 0x8F9 JUMP JUMPDEST PUSH1 0x40 MLOAD DUP1 SWAP2 SUB SWAP1 LOG2 POP JUMP JUMPDEST PUSH1 0x1 PUSH0 CALLER PUSH20 0xFFFFFFFFFFFFFFFFFFFFFFFFFFFFFFFFFFFFFFFF AND PUSH20 0xFFFFFFFFFFFFFFFFFFFFFFFFFFFFFFFFFFFFFFFF AND DUP2 MSTORE PUSH1 0x20 ADD SWAP1 DUP2 MSTORE PUSH1 0x20 ADD PUSH0 KECCAK256 PUSH0 SWAP1 SLOAD SWAP1 PUSH2 0x100 EXP SWAP1 DIV PUSH1 0xFF AND ISZERO PUSH2 0x32C JUMPI PUSH1 0x40 MLOAD PUSH32 0x8C379A000000000000000000000000000000000000000000000000000000000 DUP2 MSTORE PUSH1 0x4 ADD PUSH2 0x323 SWAP1 PUSH2 0xA82 JUMP JUMPDEST PUSH1 0x40 MLOAD DUP1 SWAP2 SUB SWAP1 REVERT JUMPDEST PUSH1 0x1 DUP1 PUSH0 CALLER PUSH20 0xFFFFFFFFFFFFFFFFFFFFFFFFFFFFFFFFFFFFFFFF AND PUSH20 0xFFFFFFFFFFFFFFFFFFFFFFFFFFFFFFFFFFFFFFFF AND DUP2 MSTORE PUSH1 0x20 ADD SWAP1 DUP2 MSTORE PUSH1 0x20 ADD PUSH0 KECCAK256 PUSH0 PUSH2 0x100 EXP DUP2 SLOAD DUP2 PUSH1 0xFF MUL NOT AND SWAP1 DUP4 ISZERO ISZERO MUL OR SWAP1 SSTORE POP DUP1 PUSH1 0x3 SWAP1 DUP2 PUSH2 0x38F SWAP2 SWAP1 PUSH2 0xCA7 JUMP JUMPDEST POP PUSH0 PUSH1 0x2 PUSH0 DUP2 SLOAD DUP1 SWAP3 SWAP2 SWAP1 PUSH2 0x3A3 SWAP1 PUSH2 0xD76 JUMP JUMPDEST SWAP2 SWAP1 POP SSTORE SWAP1 POP DUP1 CALLER PUSH20 0xFFFFFFFFFFFFFFFFFFFFFFFFFFFFFFFFFFFFFFFF AND PUSH31 0x7DC6AB80CC84C043B7B8D4FCAFC802187470087F7EA7FCCD2E17AECD0256A1 PUSH1 0x40 MLOAD PUSH1 0x40 MLOAD DUP1 SWAP2 SUB SWAP1 LOG3 POP POP JUMP JUMPDEST PUSH1 0x4 PUSH0 SWAP1 SLOAD SWAP1 PUSH2 0x100 EXP SWAP1 DIV PUSH20 0xFFFFFFFFFFFFFFFFFFFFFFFFFFFFFFFFFFFFFFFF AND PUSH20 0xFFFFFFFFFFFFFFFFFFFFFFFFFFFFFFFFFFFFFFFF AND CALLER PUSH20 0xFFFFFFFFFFFFFFFFFFFFFFFFFFFFFFFFFFFFFFFF AND EQ PUSH2 0x47F JUMPI PUSH1 0x40 MLOAD PUSH32 0x8C379A000000000000000000000000000000000000000000000000000000000 DUP2 MSTORE PUSH1 0x4 ADD PUSH2 0x476 SWAP1 PUSH2 0xE07 JUMP JUMPDEST PUSH1 0x40 MLOAD DUP1 SWAP2 SUB SWAP1 REVERT JUMPDEST DUP1 PUSH1 0x5 PUSH0 DUP5 PUSH20 0xFFFFFFFFFFFFFFFFFFFFFFFFFFFFFFFFFFFFFFFF AND PUSH20 0xFFFFFFFFFFFFFFFFFFFFFFFFFFFFFFFFFFFFFFFF AND DUP2 MSTORE PUSH1 0x20 ADD SWAP1 DUP2 MSTORE PUSH1 0x20 ADD PUSH0 KECCAK256 PUSH0 PUSH2 0x100 EXP DUP2 SLOAD DUP2 PUSH1 0xFF MUL NOT AND SWAP1 DUP4 PUSH1 0x2 DUP2 GT ISZERO PUSH2 0x4DE JUMPI PUSH2 0x4DD PUSH2 0x822 JUMP JUMPDEST JUMPDEST MUL OR SWAP1 SSTORE POP DUP2 PUSH20 0xFFFFFFFFFFFFFFFFFFFFFFFFFFFFFFFFFFFFFFFF AND PUSH32 0xDA4D41475EC50AA8531C242D7D7A0AAD94DF435C0BE1F0CBF130F862BB38290E DUP3 PUSH1 0x40 MLOAD PUSH2 0x529 SWAP2 SWAP1 PUSH2 0x895 JUMP JUMPDEST PUSH1 0x40 MLOAD DUP1 SWAP2 SUB SWAP1 LOG2 POP POP JUMP JUMPDEST PUSH1 0x5 PUSH1 0x20 MSTORE DUP1 PUSH0 MSTORE PUSH1 0x40 PUSH0 KECCAK256 PUSH0 SWAP2 POP SLOAD SWAP1 PUSH2 0x100 EXP SWAP1 DIV PUSH1 0xFF AND DUP2 JUMP JUMPDEST PUSH1 0x1 PUSH1 0x20 MSTORE DUP1 PUSH0 MSTORE PUSH1 0x40 PUSH0 KECCAK256 PUSH0 SWAP2 POP SLOAD SWAP1 PUSH2 0x100 EXP SWAP1 DIV PUSH1 0xFF AND DUP2 JUMP JUMPDEST PUSH0 PUSH1 0x20 MSTORE DUP1 PUSH0 MSTORE PUSH1 0x40 PUSH0 KECCAK256 PUSH0 SWAP2 POP SWAP1 POP SLOAD DUP2 JUMP JUMPDEST PUSH1 0x4 PUSH0 SWAP1 SLOAD SWAP1 PUSH2 0x100 EXP SWAP1 DIV PUSH20 0xFFFFFFFFFFFFFFFFFFFFFFFFFFFFFFFFFFFFFFFF AND DUP2 JUMP JUMPDEST PUSH0 PUSH1 0x40 MLOAD SWAP1 POP SWAP1 JUMP JUMPDEST PUSH0 PUSH0 REVERT JUMPDEST PUSH0 PUSH0 REVERT JUMPDEST PUSH0 PUSH20 0xFFFFFFFFFFFFFFFFFFFFFFFFFFFFFFFFFFFFFFFF DUP3 AND SWAP1 POP SWAP2 SWAP1 POP JUMP JUMPDEST PUSH0 PUSH2 0x5E2 DUP3 PUSH2 0x5B9 JUMP JUMPDEST SWAP1 POP SWAP2 SWAP1 POP JUMP JUMPDEST PUSH2 0x5F2 DUP2 PUSH2 0x5D8 JUMP JUMPDEST DUP2 EQ PUSH2 0x5FC JUMPI PUSH0 PUSH0 REVERT JUMPDEST POP JUMP JUMPDEST PUSH0 DUP2 CALLDATALOAD SWAP1 POP PUSH2 0x60D DUP2 PUSH2 0x5E9 JUMP JUMPDEST SWAP3 SWAP2 POP POP JUMP JUMPDEST PUSH0 PUSH1 0x20 DUP3 DUP5 SUB SLT ISZERO PUSH2 0x628 JUMPI PUSH2 0x627 PUSH2 0x5B1 JUMP JUMPDEST JUMPDEST PUSH0 PUSH2 0x635 DUP5 DUP3 DUP6 ADD PUSH2 0x5FF JUMP JUMPDEST SWAP2 POP POP SWAP3 SWAP2 POP POP JUMP JUMPDEST PUSH0 PUSH0 REVERT JUMPDEST PUSH0 PUSH0 REVERT JUMPDEST PUSH0 PUSH1 0x1F NOT PUSH1 0x1F DUP4 ADD AND SWAP1 POP SWAP2 SWAP1 POP JUMP JUMPDEST PUSH32 0x4E487B7100000000000000000000000000000000000000000000000000000000 PUSH0 MSTORE PUSH1 0x41 PUSH1 0x4 MSTORE PUSH1 0x24 PUSH0 REVERT JUMPDEST PUSH2 0x68C DUP3 PUSH2 0x646 JUMP JUMPDEST DUP2 ADD DUP2 DUP2 LT PUSH8 0xFFFFFFFFFFFFFFFF DUP3 GT OR ISZERO PUSH2 0x6AB JUMPI PUSH2 0x6AA PUSH2 0x656 JUMP JUMPDEST JUMPDEST DUP1 PUSH1 0x40 MSTORE POP POP POP JUMP JUMPDEST PUSH0 PUSH2 0x6BD PUSH2 0x5A8 JUMP JUMPDEST SWAP1 POP PUSH2 0x6C9 DUP3 DUP3 PUSH2 0x683 JUMP JUMPDEST SWAP2 SWAP1 POP JUMP JUMPDEST PUSH0 PUSH8 0xFFFFFFFFFFFFFFFF DUP3 GT ISZERO PUSH2 0x6E8 JUMPI PUSH2 0x6E7 PUSH2 0x656 JUMP JUMPDEST JUMPDEST PUSH2 0x6F1 DUP3 PUSH2 0x646 JUMP JUMPDEST SWAP1 POP PUSH1 0x20 DUP2 ADD SWAP1 POP SWAP2 SWAP1 POP JUMP JUMPDEST DUP3 DUP2 DUP4 CALLDATACOPY PUSH0 DUP4 DUP4 ADD MSTORE POP POP POP JUMP JUMPDEST PUSH0 PUSH2 0x71E PUSH2 0x719 DUP5 PUSH2 0x6CE JUMP JUMPDEST PUSH2 0x6B4 JUMP JUMPDEST SWAP1 POP DUP3 DUP2 MSTORE PUSH1 0x20 DUP2 ADD DUP5 DUP5 DUP5 ADD GT ISZERO PUSH2 0x73A JUMPI PUSH2 0x739 PUSH2 0x642 JUMP JUMPDEST JUMPDEST PUSH2 0x745 DUP5 DUP3 DUP6 PUSH2 0x6FE JUMP JUMPDEST POP SWAP4 SWAP3 POP POP POP JUMP JUMPDEST PUSH0 DUP3 PUSH1 0x1F DUP4 ADD SLT PUSH2 0x761 JUMPI PUSH2 0x760 PUSH2 0x63E JUMP JUMPDEST JUMPDEST DUP2 CALLDATALOAD PUSH2 0x771 DUP5 DUP3 PUSH1 0x20 DUP7 ADD PUSH2 0x70C JUMP JUMPDEST SWAP2 POP POP SWAP3 SWAP2 POP POP JUMP JUMPDEST PUSH0 PUSH1 0x20 DUP3 DUP5 SUB SLT ISZERO PUSH2 0x78F JUMPI PUSH2 0x78E PUSH2 0x5B1 JUMP JUMPDEST JUMPDEST PUSH0 DUP3 ADD CALLDATALOAD PUSH8 0xFFFFFFFFFFFFFFFF DUP2 GT ISZERO PUSH2 0x7AC JUMPI PUSH2 0x7AB PUSH2 0x5B5 JUMP JUMPDEST JUMPDEST PUSH2 0x7B8 DUP5 DUP3 DUP6 ADD PUSH2 0x74D JUMP JUMPDEST SWAP2 POP POP SWAP3 SWAP2 POP POP JUMP JUMPDEST PUSH1 0x3 DUP2 LT PUSH2 0x7CD JUMPI PUSH0 PUSH0 REVERT JUMPDEST POP JUMP JUMPDEST PUSH0 DUP2 CALLDATALOAD SWAP1 POP PUSH2 0x7DE DUP2 PUSH2 0x7C1 JUMP JUMPDEST SWAP3 SWAP2 POP POP JUMP JUMPDEST PUSH0 PUSH0 PUSH1 0x40 DUP4 DUP6 SUB SLT ISZERO PUSH2 0x7FA JUMPI PUSH2 0x7F9 PUSH2 0x5B1 JUMP JUMPDEST JUMPDEST PUSH0 PUSH2 0x807 DUP6 DUP3 DUP7 ADD PUSH2 0x5FF JUMP JUMPDEST SWAP3 POP POP PUSH1 0x20 PUSH2 0x818 DUP6 DUP3 DUP7 ADD PUSH2 0x7D0 JUMP JUMPDEST SWAP2 POP POP SWAP3 POP SWAP3 SWAP1 POP JUMP JUMPDEST PUSH32 0x4E487B7100000000000000000000000000000000000000000000000000000000 PUSH0 MSTORE PUSH1 0x21 PUSH1 0x4 MSTORE PUSH1 0x24 PUSH0 REVERT JUMPDEST PUSH1 0x3 DUP2 LT PUSH2 0x860 JUMPI PUSH2 0x85F PUSH2 0x822 JUMP JUMPDEST JUMPDEST POP JUMP JUMPDEST PUSH0 DUP2 SWAP1 POP PUSH2 0x870 DUP3 PUSH2 0x84F JUMP JUMPDEST SWAP2 SWAP1 POP JUMP JUMPDEST PUSH0 PUSH2 0x87F DUP3 PUSH2 0x863 JUMP JUMPDEST SWAP1 POP SWAP2 SWAP1 POP JUMP JUMPDEST PUSH2 0x88F DUP2 PUSH2 0x875 JUMP JUMPDEST DUP3 MSTORE POP POP JUMP JUMPDEST PUSH0 PUSH1 0x20 DUP3 ADD SWAP1 POP PUSH2 0x8A8 PUSH0 DUP4 ADD DUP5 PUSH2 0x886 JUMP JUMPDEST SWAP3 SWAP2 POP POP JUMP JUMPDEST PUSH0 DUP2 ISZERO ISZERO SWAP1 POP SWAP2 SWAP1 POP JUMP JUMPDEST PUSH2 0x8C2 DUP2 PUSH2 0x8AE JUMP JUMPDEST DUP3 MSTORE POP POP JUMP JUMPDEST PUSH0 PUSH1 0x20 DUP3 ADD SWAP1 POP PUSH2 0x8DB PUSH0 DUP4 ADD DUP5 PUSH2 0x8B9 JUMP JUMPDEST SWAP3 SWAP2 POP POP JUMP JUMPDEST PUSH0 DUP2 SWAP1 POP SWAP2 SWAP1 POP JUMP JUMPDEST PUSH2 0x8F3 DUP2 PUSH2 0x8E1 JUMP JUMPDEST DUP3 MSTORE POP POP JUMP JUMPDEST PUSH0 PUSH1 0x20 DUP3 ADD SWAP1 POP PUSH2 0x90C PUSH0 DUP4 ADD DUP5 PUSH2 0x8EA JUMP JUMPDEST SWAP3 SWAP2 POP POP JUMP JUMPDEST PUSH2 0x91B DUP2 PUSH2 0x5D8 JUMP JUMPDEST DUP3 MSTORE POP POP JUMP JUMPDEST PUSH0 PUSH1 0x20 DUP3 ADD SWAP1 POP PUSH2 0x934 PUSH0 DUP4 ADD DUP5 PUSH2 0x912 JUMP JUMPDEST SWAP3 SWAP2 POP POP JUMP JUMPDEST PUSH0 DUP3 DUP3 MSTORE PUSH1 0x20 DUP3 ADD SWAP1 POP SWAP3 SWAP2 POP POP JUMP JUMPDEST PUSH32 0x4465706F73697420736F6D657468696E6720796F752070697373206F66207368 PUSH0 DUP3 ADD MSTORE PUSH32 0x6974650000000000000000000000000000000000000000000000000000000000 PUSH1 0x20 DUP3 ADD MSTORE POP JUMP JUMPDEST PUSH0 PUSH2 0x9A4 PUSH1 0x23 DUP4 PUSH2 0x93A JUMP JUMPDEST SWAP2 POP PUSH2 0x9AF DUP3 PUSH2 0x94A JUMP JUMPDEST PUSH1 0x40 DUP3 ADD SWAP1 POP SWAP2 SWAP1 POP JUMP JUMPDEST PUSH0 PUSH1 0x20 DUP3 ADD SWAP1 POP DUP2 DUP2 SUB PUSH0 DUP4 ADD MSTORE PUSH2 0x9D1 DUP2 PUSH2 0x998 JUMP JUMPDEST SWAP1 POP SWAP2 SWAP1 POP JUMP JUMPDEST PUSH32 0x4E487B7100000000000000000000000000000000000000000000000000000000 PUSH0 MSTORE PUSH1 0x11 PUSH1 0x4 MSTORE PUSH1 0x24 PUSH0 REVERT JUMPDEST PUSH0 PUSH2 0xA0F DUP3 PUSH2 0x8E1 JUMP JUMPDEST SWAP2 POP PUSH2 0xA1A DUP4 PUSH2 0x8E1 JUMP JUMPDEST SWAP3 POP DUP3 DUP3 ADD SWAP1 POP DUP1 DUP3 GT ISZERO PUSH2 0xA32 JUMPI PUSH2 0xA31 PUSH2 0x9D8 JUMP JUMPDEST JUMPDEST SWAP3 SWAP2 POP POP JUMP JUMPDEST PUSH32 0x4163636F756E7420616C72656164792065786973740000000000000000000000 PUSH0 DUP3 ADD MSTORE POP JUMP JUMPDEST PUSH0 PUSH2 0xA6C PUSH1 0x15 DUP4 PUSH2 0x93A JUMP JUMPDEST SWAP2 POP PUSH2 0xA77 DUP3 PUSH2 0xA38 JUMP JUMPDEST PUSH1 0x20 DUP3 ADD SWAP1 POP SWAP2 SWAP1 POP JUMP JUMPDEST PUSH0 PUSH1 0x20 DUP3 ADD SWAP1 POP DUP2 DUP2 SUB PUSH0 DUP4 ADD MSTORE PUSH2 0xA99 DUP2 PUSH2 0xA60 JUMP JUMPDEST SWAP1 POP SWAP2 SWAP1 POP JUMP JUMPDEST PUSH0 DUP2 MLOAD SWAP1 POP SWAP2 SWAP1 POP JUMP JUMPDEST PUSH32 0x4E487B7100000000000000000000000000000000000000000000000000000000 PUSH0 MSTORE PUSH1 0x22 PUSH1 0x4 MSTORE PUSH1 0x24 PUSH0 REVERT JUMPDEST PUSH0 PUSH1 0x2 DUP3 DIV SWAP1 POP PUSH1 0x1 DUP3 AND DUP1 PUSH2 0xAEE JUMPI PUSH1 0x7F DUP3 AND SWAP2 POP JUMPDEST PUSH1 0x20 DUP3 LT DUP2 SUB PUSH2 0xB01 JUMPI PUSH2 0xB00 PUSH2 0xAAA JUMP JUMPDEST JUMPDEST POP SWAP2 SWAP1 POP JUMP JUMPDEST PUSH0 DUP2 SWAP1 POP DUP2 PUSH0 MSTORE PUSH1 0x20 PUSH0 KECCAK256 SWAP1 POP SWAP2 SWAP1 POP JUMP JUMPDEST PUSH0 PUSH1 0x20 PUSH1 0x1F DUP4 ADD DIV SWAP1 POP SWAP2 SWAP1 POP JUMP JUMPDEST PUSH0 DUP3 DUP3 SHL SWAP1 POP SWAP3 SWAP2 POP POP JUMP JUMPDEST PUSH0 PUSH1 0x8 DUP4 MUL PUSH2 0xB63 PUSH32 0xFFFFFFFFFFFFFFFFFFFFFFFFFFFFFFFFFFFFFFFFFFFFFFFFFFFFFFFFFFFFFFFF DUP3 PUSH2 0xB28 JUMP JUMPDEST PUSH2 0xB6D DUP7 DUP4 PUSH2 0xB28 JUMP JUMPDEST SWAP6 POP DUP1 NOT DUP5 AND SWAP4 POP DUP1 DUP7 AND DUP5 OR SWAP3 POP POP POP SWAP4 SWAP3 POP POP POP JUMP JUMPDEST PUSH0 DUP2 SWAP1 POP SWAP2 SWAP1 POP JUMP JUMPDEST PUSH0 PUSH2 0xBA8 PUSH2 0xBA3 PUSH2 0xB9E DUP5 PUSH2 0x8E1 JUMP JUMPDEST PUSH2 0xB85 JUMP JUMPDEST PUSH2 0x8E1 JUMP JUMPDEST SWAP1 POP SWAP2 SWAP1 POP JUMP JUMPDEST PUSH0 DUP2 SWAP1 POP SWAP2 SWAP1 POP JUMP JUMPDEST PUSH2 0xBC1 DUP4 PUSH2 0xB8E JUMP JUMPDEST PUSH2 0xBD5 PUSH2 0xBCD DUP3 PUSH2 0xBAF JUMP JUMPDEST DUP5 DUP5 SLOAD PUSH2 0xB34 JUMP JUMPDEST DUP3 SSTORE POP POP POP POP JUMP JUMPDEST PUSH0 PUSH0 SWAP1 POP SWAP1 JUMP JUMPDEST PUSH2 0xBEC PUSH2 0xBDD JUMP JUMPDEST PUSH2 0xBF7 DUP2 DUP5 DUP5 PUSH2 0xBB8 JUMP JUMPDEST POP POP POP JUMP JUMPDEST JUMPDEST DUP2 DUP2 LT ISZERO PUSH2 0xC1A JUMPI PUSH2 0xC0F PUSH0 DUP3 PUSH2 0xBE4 JUMP JUMPDEST PUSH1 0x1 DUP2 ADD SWAP1 POP PUSH2 0xBFD JUMP JUMPDEST POP POP JUMP JUMPDEST PUSH1 0x1F DUP3 GT ISZERO PUSH2 0xC5F JUMPI PUSH2 0xC30 DUP2 PUSH2 0xB07 JUMP JUMPDEST PUSH2 0xC39 DUP5 PUSH2 0xB19 JUMP JUMPDEST DUP2 ADD PUSH1 0x20 DUP6 LT ISZERO PUSH2 0xC48 JUMPI DUP2 SWAP1 POP JUMPDEST PUSH2 0xC5C PUSH2 0xC54 DUP6 PUSH2 0xB19 JUMP JUMPDEST DUP4 ADD DUP3 PUSH2 0xBFC JUMP JUMPDEST POP POP JUMPDEST POP POP POP JUMP JUMPDEST PUSH0 DUP3 DUP3 SHR SWAP1 POP SWAP3 SWAP2 POP POP JUMP JUMPDEST PUSH0 PUSH2 0xC7F PUSH0 NOT DUP5 PUSH1 0x8 MUL PUSH2 0xC64 JUMP JUMPDEST NOT DUP1 DUP4 AND SWAP2 POP POP SWAP3 SWAP2 POP POP JUMP JUMPDEST PUSH0 PUSH2 0xC97 DUP4 DUP4 PUSH2 0xC70 JUMP JUMPDEST SWAP2 POP DUP3 PUSH1 0x2 MUL DUP3 OR SWAP1 POP SWAP3 SWAP2 POP POP JUMP JUMPDEST PUSH2 0xCB0 DUP3 PUSH2 0xAA0 JUMP JUMPDEST PUSH8 0xFFFFFFFFFFFFFFFF DUP2 GT ISZERO PUSH2 0xCC9 JUMPI PUSH2 0xCC8 PUSH2 0x656 JUMP JUMPDEST JUMPDEST PUSH2 0xCD3 DUP3 SLOAD PUSH2 0xAD7 JUMP JUMPDEST PUSH2 0xCDE DUP3 DUP3 DUP6 PUSH2 0xC1E JUMP JUMPDEST PUSH0 PUSH1 0x20 SWAP1 POP PUSH1 0x1F DUP4 GT PUSH1 0x1 DUP2 EQ PUSH2 0xD0F JUMPI PUSH0 DUP5 ISZERO PUSH2 0xCFD JUMPI DUP3 DUP8 ADD MLOAD SWAP1 POP JUMPDEST PUSH2 0xD07 DUP6 DUP3 PUSH2 0xC8C JUMP JUMPDEST DUP7 SSTORE POP PUSH2 0xD6E JUMP JUMPDEST PUSH1 0x1F NOT DUP5 AND PUSH2 0xD1D DUP7 PUSH2 0xB07 JUMP JUMPDEST PUSH0 JUMPDEST DUP3 DUP2 LT ISZERO PUSH2 0xD44 JUMPI DUP5 DUP10 ADD MLOAD DUP3 SSTORE PUSH1 0x1 DUP3 ADD SWAP2 POP PUSH1 0x20 DUP6 ADD SWAP5 POP PUSH1 0x20 DUP2 ADD SWAP1 POP PUSH2 0xD1F JUMP JUMPDEST DUP7 DUP4 LT ISZERO PUSH2 0xD61 JUMPI DUP5 DUP10 ADD MLOAD PUSH2 0xD5D PUSH1 0x1F DUP10 AND DUP3 PUSH2 0xC70 JUMP JUMPDEST DUP4 SSTORE POP JUMPDEST PUSH1 0x1 PUSH1 0x2 DUP9 MUL ADD DUP9 SSTORE POP POP POP JUMPDEST POP POP POP POP POP POP JUMP JUMPDEST PUSH0 PUSH2 0xD80 DUP3 PUSH2 0x8E1 JUMP JUMPDEST SWAP2 POP PUSH32 0xFFFFFFFFFFFFFFFFFFFFFFFFFFFFFFFFFFFFFFFFFFFFFFFFFFFFFFFFFFFFFFFF DUP3 SUB PUSH2 0xDB2 JUMPI PUSH2 0xDB1 PUSH2 0x9D8 JUMP JUMPDEST JUMPDEST PUSH1 0x1 DUP3 ADD SWAP1 POP SWAP2 SWAP1 POP JUMP JUMPDEST PUSH32 0x4E6F7420616E2061646D696E0000000000000000000000000000000000000000 PUSH0 DUP3 ADD MSTORE POP JUMP JUMPDEST PUSH0 PUSH2 0xDF1 PUSH1 0xC DUP4 PUSH2 0x93A JUMP JUMPDEST SWAP2 POP PUSH2 0xDFC DUP3 PUSH2 0xDBD JUMP JUMPDEST PUSH1 0x20 DUP3 ADD SWAP1 POP SWAP2 SWAP1 POP JUMP JUMPDEST PUSH0 PUSH1 0x20 DUP3 ADD SWAP1 POP DUP2 DUP2 SUB PUSH0 DUP4 ADD MSTORE PUSH2 0xE1E DUP2 PUSH2 0xDE5 JUMP JUMPDEST SWAP1 POP SWAP2 SWAP1 POP JUMP INVALID LOG2 PUSH5 0x6970667358 0x22 SLT KECCAK256 PUSH23 0xC916EBB9F3F6B366F602A62E059028B92FE1FC373AA807 0x28 PUSH4 0x11C96AAD PUSH27 0x7E64736F6C634300081F0033000000000000000000000000000000 "
				},
				"gasEstimates": {
					"creation": {
						"codeDepositCost": "735000",
						"executionCost": "30034",
						"totalCost": "765034"
					},
					"external": {
						"ChangeRole(address,uint8)": "28831",
						"IncreaseBalance(address)": "infinite",
						"RegisterNow(string)": "infinite",
						"admin()": "2574",
						"balance(address)": "2845",
						"isRegistered(address)": "2855",
						"roles(address)": "2921"
					}
				},
				"methodIdentifiers": {
					"ChangeRole(address,uint8)": "6b4fd2ad",
					"IncreaseBalance(address)": "04ab7197",
					"RegisterNow(string)": "5b0025ad",
					"admin()": "f851a440",
					"balance(address)": "e3d670d7",
					"isRegistered(address)": "c3c5a547",
					"roles(address)": "99374642"
				}
			},
			"storageLayout": {
				"storage": [
					{
						"astId": 5,
						"contract": "W3day4.sol:registration",
						"label": "balance",
						"offset": 0,
						"slot": "0",
						"type": "t_mapping(t_address,t_uint256)"
					},
					{
						"astId": 9,
						"contract": "W3day4.sol:registration",
						"label": "isRegistered",
						"offset": 0,
						"slot": "1",
						"type": "t_mapping(t_address,t_bool)"
					},
					{
						"astId": 12,
						"contract": "W3day4.sol:registration",
						"label": "id",
						"offset": 0,
						"slot": "2",
						"type": "t_uint256"
					},
					{
						"astId": 14,
						"contract": "W3day4.sol:registration",
						"label": "username",
						"offset": 0,
						"slot": "3",
						"type": "t_string_storage"
					},
					{
						"astId": 16,
						"contract": "W3day4.sol:registration",
						"label": "admin",
						"offset": 0,
						"slot": "4",
						"type": "t_address"
					},
					{
						"astId": 34,
						"contract": "W3day4.sol:registration",
						"label": "roles",
						"offset": 0,
						"slot": "5",
						"type": "t_mapping(t_address,t_enum(Role)29)"
					}
				],
				"types": {
					"t_address": {
						"encoding": "inplace",
						"label": "address",
						"numberOfBytes": "20"
					},
					"t_bool": {
						"encoding": "inplace",
						"label": "bool",
						"numberOfBytes": "1"
					},
					"t_enum(Role)29": {
						"encoding": "inplace",
						"label": "enum registration.Role",
						"numberOfBytes": "1"
					},
					"t_mapping(t_address,t_bool)": {
						"encoding": "mapping",
						"key": "t_address",
						"label": "mapping(address => bool)",
						"numberOfBytes": "32",
						"value": "t_bool"
					},
					"t_mapping(t_address,t_enum(Role)29)": {
						"encoding": "mapping",
						"key": "t_address",
						"label": "mapping(address => enum registration.Role)",
						"numberOfBytes": "32",
						"value": "t_enum(Role)29"
					},
					"t_mapping(t_address,t_uint256)": {
						"encoding": "mapping",
						"key": "t_address",
						"label": "mapping(address => uint256)",
						"numberOfBytes": "32",
						"value": "t_uint256"
					},
					"t_string_storage": {
						"encoding": "bytes",
						"label": "string",
						"numberOfBytes": "32"
					},
					"t_uint256": {
						"encoding": "inplace",
						"label": "uint256",
						"numberOfBytes": "32"
					}
				}
			},
			"userdoc": {
				"kind": "user",
				"methods": {},
				"version": 1
			}
		}
	}
}