{
	"data": {
		"bytecode": {
			"linkReferences": {},
			"object": "6080604052348015600e575f5ffd5b506101bb8061001c5f395ff3fe60806040526004361061001d575f3560e01c8063ed21248c14610021575b5f5ffd5b61002961002b565b005b5f5f90505b47811161008d575f81101561007a576040517f08c379a0000000000000000000000000000000000000000000000000000000008152600401610071906100ea565b60405180910390fd5b80806100859061013e565b915050610030565b50565b5f82825260208201905092915050565b7f496e73756666696369656e742066756e640000000000000000000000000000005f82015250565b5f6100d4601183610090565b91506100df826100a0565b602082019050919050565b5f6020820190508181035f830152610101816100c8565b9050919050565b7f4e487b71000000000000000000000000000000000000000000000000000000005f52601160045260245ffd5b5f819050919050565b5f61014882610135565b91507fffffffffffffffffffffffffffffffffffffffffffffffffffffffffffffffff820361017a57610179610108565b5b60018201905091905056fea2646970667358221220d9fad33ec0cea752e139b1ac346234ba9195873101c7d793ca71d420b666d32764736f6c634300081f0033",
			"opcodes": "PUSH1 0x80 PUSH1 0x40 MSTORE CALLVALUE DUP1 ISZERO PUSH1 0xE JUMPI PUSH0 PUSH0 REVERT JUMPDEST POP PUSH2 0x1BB DUP1 PUSH2 0x1C PUSH0 CODECOPY PUSH0 RETURN INVALID PUSH1 0x80 PUSH1 0x40 MSTORE PUSH1 0x4 CALLDATASIZE LT PUSH2 0x1D JUMPI PUSH0 CALLDATALOAD PUSH1 0xE0 SHR DUP1 PUSH4 0xED21248C EQ PUSH2 0x21 JUMPI JUMPDEST PUSH0 PUSH0 REVERT JUMPDEST PUSH2 0x29 PUSH2 0x2B JUMP JUMPDEST STOP JUMPDEST PUSH0 PUSH0 SWAP1 POP JUMPDEST SELFBALANCE DUP2 GT PUSH2 0x8D JUMPI PUSH0 DUP2 LT ISZERO PUSH2 0x7A JUMPI PUSH1 0x40 MLOAD PUSH32 0x8C379A000000000000000000000000000000000000000000000000000000000 DUP2 MSTORE PUSH1 0x4 ADD PUSH2 0x71 SWAP1 PUSH2 0xEA JUMP JUMPDEST PUSH1 0x40 MLOAD DUP1 SWAP2 SUB SWAP1 REVERT JUMPDEST DUP1 DUP1 PUSH2 0x85 SWAP1 PUSH2 0x13E JUMP JUMPDEST SWAP2 POP POP PUSH2 0x30 JUMP JUMPDEST POP JUMP JUMPDEST PUSH0 DUP3 DUP3 MSTORE PUSH1 0x20 DUP3 ADD SWAP1 POP SWAP3 SWAP2 POP POP JUMP JUMPDEST PUSH32 0x496E73756666696369656E742066756E64000000000000000000000000000000 PUSH0 DUP3 ADD MSTORE POP JUMP JUMPDEST PUSH0 PUSH2 0xD4 PUSH1 0x11 DUP4 PUSH2 0x90 JUMP JUMPDEST SWAP2 POP PUSH2 0xDF DUP3 PUSH2 0xA0 JUMP JUMPDEST PUSH1 0x20 DUP3 ADD SWAP1 POP SWAP2 SWAP1 POP JUMP JUMPDEST PUSH0 PUSH1 0x20 DUP3 ADD SWAP1 POP DUP2 DUP2 SUB PUSH0 DUP4 ADD MSTORE PUSH2 0x101 DUP2 PUSH2 0xC8 JUMP JUMPDEST SWAP1 POP SWAP2 SWAP1 POP JUMP JUMPDEST PUSH32 0x4E487B7100000000000000000000000000000000000000000000000000000000 PUSH0 MSTORE PUSH1 0x11 PUSH1 0x4 MSTORE PUSH1 0x24 PUSH0 REVERT JUMPDEST PUSH0 DUP2 SWAP1 POP SWAP2 SWAP1 POP JUMP JUMPDEST PUSH0 PUSH2 0x148 DUP3 PUSH2 0x135 JUMP JUMPDEST SWAP2 POP PUSH32 0xFFFFFFFFFFFFFFFFFFFFFFFFFFFFFFFFFFFFFFFFFFFFFFFFFFFFFFFFFFFFFFFF DUP3 SUB PUSH2 0x17A JUMPI PUSH2 0x179 PUSH2 0x108 JUMP JUMPDEST JUMPDEST PUSH1 0x1 DUP3 ADD SWAP1 POP SWAP2 SWAP1 POP JUMP INVALID LOG2 PUSH5 0x6970667358 0x22 SLT KECCAK256 0xD9 STATICCALL 0xD3 RETURNDATACOPY 0xC0 0xCE 0xA7 MSTORE RJUMPI 0x39B1 0xAC CALLVALUE PUSH3 0x34BA91 SWAP6 DUP8 BALANCE ADD 0xC7 0xD7 SWAP4 0xCA PUSH18 0xD420B666D32764736F6C634300081F003300 "
		},
		"gasEstimates": {
			"creation": {
				"codeDepositCost": "88600",
				"executionCost": "133",
				"totalCost": "88733"
			},
			"external": {
				"Deposit()": "infinite"
			}
		},
		"methodIdentifiers": {
			"Deposit()": "ed21248c"
		}
	},
	"abi": [
		{
			"inputs": [],
			"name": "Deposit",
			"outputs": [],
			"stateMutability": "payable",
			"type": "function"
		}
	]
}