{
	"data": {
		"bytecode": {
			"linkReferences": {},
			"object": "608060405260015f5f6101000a81548160ff0219169083600481111560255760246039565b5b02179055503480156034575f5ffd5b506066565b7f4e487b71000000000000000000000000000000000000000000000000000000005f52602160045260245ffd5b61034e806100735f395ff3fe608060405234801561000f575f5ffd5b5060043610610086575f3560e01c806364bd70131161005957806364bd7013146100d857806376d66fdb146100e2578063c59d4847146100ec578063ea8a1af01461010a57610086565b8063200d2ed21461008a57806324b8ba5f146100a85780632852b71c146100c45780634dc415de146100ce575b5f5ffd5b610092610114565b60405161009f91906102ad565b60405180910390f35b6100c260048036038101906100bd91906102ed565b610125565b005b6100cc610150565b005b6100d661017b565b005b6100e06101a6565b005b6100ea6101d0565b005b6100f46101fb565b60405161010191906102ad565b60405180910390f35b61011261020f565b005b5f5f9054906101000a900460ff1681565b805f5f6101000a81548160ff021916908360048111156101485761014761023a565b5b021790555050565b60025f5f6101000a81548160ff021916908360048111156101745761017361023a565b5b0217905550565b60035f5f6101000a81548160ff0219169083600481111561019f5761019e61023a565b5b0217905550565b5f5f5f6101000a81548160ff021916908360048111156101c9576101c861023a565b5b0217905550565b60015f5f6101000a81548160ff021916908360048111156101f4576101f361023a565b5b0217905550565b5f5f5f9054906101000a900460ff16905090565b60045f5f6101000a81548160ff021916908360048111156102335761023261023a565b5b0217905550565b7f4e487b71000000000000000000000000000000000000000000000000000000005f52602160045260245ffd5b600581106102785761027761023a565b5b50565b5f81905061028882610267565b919050565b5f6102978261027b565b9050919050565b6102a78161028d565b82525050565b5f6020820190506102c05f83018461029e565b92915050565b5f5ffd5b600581106102d6575f5ffd5b50565b5f813590506102e7816102ca565b92915050565b5f60208284031215610302576103016102c6565b5b5f61030f848285016102d9565b9150509291505056fea26469706673582212203b2ad1497d27b8ebcebe7b2c1894f281024f2107e403bbd8354fd783d393c09d64736f6c63430008210033",
			"opcodes": "PUSH1 0x80 PUSH1 0x40 MSTORE PUSH1 0x1 PUSH0 PUSH0 PUSH2 0x100 EXP DUP2 SLOAD DUP2 PUSH1 0xFF MUL NOT AND SWAP1 DUP4 PUSH1 0x4 DUP2 GT ISZERO PUSH1 0x25 JUMPI PUSH1 0x24 PUSH1 0x39 JUMP JUMPDEST JUMPDEST MUL OR SWAP1 SSTORE POP CALLVALUE DUP1 ISZERO PUSH1 0x34 JUMPI PUSH0 PUSH0 REVERT JUMPDEST POP PUSH1 0x66 JUMP JUMPDEST PUSH32 0x4E487B7100000000000000000000000000000000000000000000000000000000 PUSH0 MSTORE PUSH1 0x21 PUSH1 0x4 MSTORE PUSH1 0x24 PUSH0 REVERT JUMPDEST PUSH2 0x34E DUP1 PUSH2 0x73 PUSH0 CODECOPY PUSH0 RETURN INVALID PUSH1 0x80 PUSH1 0x40 MSTORE CALLVALUE DUP1 ISZERO PUSH2 0xF JUMPI PUSH0 PUSH0 REVERT JUMPDEST POP PUSH1 0x4 CALLDATASIZE LT PUSH2 0x86 JUMPI PUSH0 CALLDATALOAD PUSH1 0xE0 SHR DUP1 PUSH4 0x64BD7013 GT PUSH2 0x59 JUMPI DUP1 PUSH4 0x64BD7013 EQ PUSH2 0xD8 JUMPI DUP1 PUSH4 0x76D66FDB EQ PUSH2 0xE2 JUMPI DUP1 PUSH4 0xC59D4847 EQ PUSH2 0xEC JUMPI DUP1 PUSH4 0xEA8A1AF0 EQ PUSH2 0x10A JUMPI PUSH2 0x86 JUMP JUMPDEST DUP1 PUSH4 0x200D2ED2 EQ PUSH2 0x8A JUMPI DUP1 PUSH4 0x24B8BA5F EQ PUSH2 0xA8 JUMPI DUP1 PUSH4 0x2852B71C EQ PUSH2 0xC4 JUMPI DUP1 PUSH4 0x4DC415DE EQ PUSH2 0xCE JUMPI JUMPDEST PUSH0 PUSH0 REVERT JUMPDEST PUSH2 0x92 PUSH2 0x114 JUMP JUMPDEST PUSH1 0x40 MLOAD PUSH2 0x9F SWAP2 SWAP1 PUSH2 0x2AD JUMP JUMPDEST PUSH1 0x40 MLOAD DUP1 SWAP2 SUB SWAP1 RETURN JUMPDEST PUSH2 0xC2 PUSH1 0x4 DUP1 CALLDATASIZE SUB DUP2 ADD SWAP1 PUSH2 0xBD SWAP2 SWAP1 PUSH2 0x2ED JUMP JUMPDEST PUSH2 0x125 JUMP JUMPDEST STOP JUMPDEST PUSH2 0xCC PUSH2 0x150 JUMP JUMPDEST STOP JUMPDEST PUSH2 0xD6 PUSH2 0x17B JUMP JUMPDEST STOP JUMPDEST PUSH2 0xE0 PUSH2 0x1A6 JUMP JUMPDEST STOP JUMPDEST PUSH2 0xEA PUSH2 0x1D0 JUMP JUMPDEST STOP JUMPDEST PUSH2 0xF4 PUSH2 0x1FB JUMP JUMPDEST PUSH1 0x40 MLOAD PUSH2 0x101 SWAP2 SWAP1 PUSH2 0x2AD JUMP JUMPDEST PUSH1 0x40 MLOAD DUP1 SWAP2 SUB SWAP1 RETURN JUMPDEST PUSH2 0x112 PUSH2 0x20F JUMP JUMPDEST STOP JUMPDEST PUSH0 PUSH0 SWAP1 SLOAD SWAP1 PUSH2 0x100 EXP SWAP1 DIV PUSH1 0xFF AND DUP2 JUMP JUMPDEST DUP1 PUSH0 PUSH0 PUSH2 0x100 EXP DUP2 SLOAD DUP2 PUSH1 0xFF MUL NOT AND SWAP1 DUP4 PUSH1 0x4 DUP2 GT ISZERO PUSH2 0x148 JUMPI PUSH2 0x147 PUSH2 0x23A JUMP JUMPDEST JUMPDEST MUL OR SWAP1 SSTORE POP POP JUMP JUMPDEST PUSH1 0x2 PUSH0 PUSH0 PUSH2 0x100 EXP DUP2 SLOAD DUP2 PUSH1 0xFF MUL NOT AND SWAP1 DUP4 PUSH1 0x4 DUP2 GT ISZERO PUSH2 0x174 JUMPI PUSH2 0x173 PUSH2 0x23A JUMP JUMPDEST JUMPDEST MUL OR SWAP1 SSTORE POP JUMP JUMPDEST PUSH1 0x3 PUSH0 PUSH0 PUSH2 0x100 EXP DUP2 SLOAD DUP2 PUSH1 0xFF MUL NOT AND SWAP1 DUP4 PUSH1 0x4 DUP2 GT ISZERO PUSH2 0x19F JUMPI PUSH2 0x19E PUSH2 0x23A JUMP JUMPDEST JUMPDEST MUL OR SWAP1 SSTORE POP JUMP JUMPDEST PUSH0 PUSH0 PUSH0 PUSH2 0x100 EXP DUP2 SLOAD DUP2 PUSH1 0xFF MUL NOT AND SWAP1 DUP4 PUSH1 0x4 DUP2 GT ISZERO PUSH2 0x1C9 JUMPI PUSH2 0x1C8 PUSH2 0x23A JUMP JUMPDEST JUMPDEST MUL OR SWAP1 SSTORE POP JUMP JUMPDEST PUSH1 0x1 PUSH0 PUSH0 PUSH2 0x100 EXP DUP2 SLOAD DUP2 PUSH1 0xFF MUL NOT AND SWAP1 DUP4 PUSH1 0x4 DUP2 GT ISZERO PUSH2 0x1F4 JUMPI PUSH2 0x1F3 PUSH2 0x23A JUMP JUMPDEST JUMPDEST MUL OR SWAP1 SSTORE POP JUMP JUMPDEST PUSH0 PUSH0 PUSH0 SWAP1 SLOAD SWAP1 PUSH2 0x100 EXP SWAP1 DIV PUSH1 0xFF AND SWAP1 POP SWAP1 JUMP JUMPDEST PUSH1 0x4 PUSH0 PUSH0 PUSH2 0x100 EXP DUP2 SLOAD DUP2 PUSH1 0xFF MUL NOT AND SWAP1 DUP4 PUSH1 0x4 DUP2 GT ISZERO PUSH2 0x233 JUMPI PUSH2 0x232 PUSH2 0x23A JUMP JUMPDEST JUMPDEST MUL OR SWAP1 SSTORE POP JUMP JUMPDEST PUSH32 0x4E487B7100000000000000000000000000000000000000000000000000000000 PUSH0 MSTORE PUSH1 0x21 PUSH1 0x4 MSTORE PUSH1 0x24 PUSH0 REVERT JUMPDEST PUSH1 0x5 DUP2 LT PUSH2 0x278 JUMPI PUSH2 0x277 PUSH2 0x23A JUMP JUMPDEST JUMPDEST POP JUMP JUMPDEST PUSH0 DUP2 SWAP1 POP PUSH2 0x288 DUP3 PUSH2 0x267 JUMP JUMPDEST SWAP2 SWAP1 POP JUMP JUMPDEST PUSH0 PUSH2 0x297 DUP3 PUSH2 0x27B JUMP JUMPDEST SWAP1 POP SWAP2 SWAP1 POP JUMP JUMPDEST PUSH2 0x2A7 DUP2 PUSH2 0x28D JUMP JUMPDEST DUP3 MSTORE POP POP JUMP JUMPDEST PUSH0 PUSH1 0x20 DUP3 ADD SWAP1 POP PUSH2 0x2C0 PUSH0 DUP4 ADD DUP5 PUSH2 0x29E JUMP JUMPDEST SWAP3 SWAP2 POP POP JUMP JUMPDEST PUSH0 PUSH0 REVERT JUMPDEST PUSH1 0x5 DUP2 LT PUSH2 0x2D6 JUMPI PUSH0 PUSH0 REVERT JUMPDEST POP JUMP JUMPDEST PUSH0 DUP2 CALLDATALOAD SWAP1 POP PUSH2 0x2E7 DUP2 PUSH2 0x2CA JUMP JUMPDEST SWAP3 SWAP2 POP POP JUMP JUMPDEST PUSH0 PUSH1 0x20 DUP3 DUP5 SUB SLT ISZERO PUSH2 0x302 JUMPI PUSH2 0x301 PUSH2 0x2C6 JUMP JUMPDEST JUMPDEST PUSH0 PUSH2 0x30F DUP5 DUP3 DUP6 ADD PUSH2 0x2D9 JUMP JUMPDEST SWAP2 POP POP SWAP3 SWAP2 POP POP JUMP INVALID LOG2 PUSH5 0x6970667358 0x22 SLT KECCAK256 EXTCODESIZE 0x2A DATALOADN 0x497D 0x27 0xB8 0xEB 0xCE 0xBE PUSH28 0x2C1894F281024F2107E403BBD8354FD783D393C09D64736F6C634300 ADDMOD 0x21 STOP CALLER "
		},
		"gasEstimates": {
			"creation": {
				"codeDepositCost": "169200",
				"executionCost": "24509",
				"totalCost": "193709"
			},
			"external": {
				"accept()": "24473",
				"alert()": "24450",
				"cancel()": "24494",
				"getStats()": "2604",
				"reject()": "24495",
				"set(uint8)": "24667",
				"status()": "2554",
				"wait()": "24427"
			}
		},
		"methodIdentifiers": {
			"accept()": "2852b71c",
			"alert()": "76d66fdb",
			"cancel()": "ea8a1af0",
			"getStats()": "c59d4847",
			"reject()": "4dc415de",
			"set(uint8)": "24b8ba5f",
			"status()": "200d2ed2",
			"wait()": "64bd7013"
		}
	},
	"abi": [
		{
			"inputs": [],
			"name": "accept",
			"outputs": [],
			"stateMutability": "nonpayable",
			"type": "function"
		},
		{
			"inputs": [],
			"name": "alert",
			"outputs": [],
			"stateMutability": "nonpayable",
			"type": "function"
		},
		{
			"inputs": [],
			"name": "cancel",
			"outputs": [],
			"stateMutability": "nonpayable",
			"type": "function"
		},
		{
			"inputs": [],
			"name": "getStats",
			"outputs": [
				{
					"internalType": "enum stats.Status",
					"name": "",
					"type": "uint8"
				}
			],
			"stateMutability": "view",
			"type": "function"
		},
		{
			"inputs": [],
			"name": "reject",
			"outputs": [],
			"stateMutability": "nonpayable",
			"type": "function"
		},
		{
			"inputs": [
				{
					"internalType": "enum stats.Status",
					"name": "_status",
					"type": "uint8"
				}
			],
			"name": "set",
			"outputs": [],
			"stateMutability": "nonpayable",
			"type": "function"
		},
		{
			"inputs": [],
			"name": "status",
			"outputs": [
				{
					"internalType": "enum stats.Status",
					"name": "",
					"type": "uint8"
				}
			],
			"stateMutability": "view",
			"type": "function"
		},
		{
			"inputs": [],
			"name": "wait",
			"outputs": [],
			"stateMutability": "nonpayable",
			"type": "function"
		}
	]
}